Component: ARM Compiler 5.06 update 5 (build 528) Tool: armlink [4d35e2]

==============================================================================

Section Cross References

    startup_stm32h743xx.o(STACK) refers (Special) to heapauxi.o(.text) for __use_two_region_memory
    startup_stm32h743xx.o(HEAP) refers (Special) to heapauxi.o(.text) for __use_two_region_memory
    startup_stm32h743xx.o(RESET) refers (Special) to heapauxi.o(.text) for __use_two_region_memory
    startup_stm32h743xx.o(RESET) refers to startup_stm32h743xx.o(STACK) for __initial_sp
    startup_stm32h743xx.o(RESET) refers to startup_stm32h743xx.o(.text) for Reset_Handler
    startup_stm32h743xx.o(RESET) refers to stm32h7xx_it.o(i.NMI_Handler) for NMI_Handler
    startup_stm32h743xx.o(RESET) refers to stm32h7xx_it.o(i.HardFault_Handler) for HardFault_Handler
    startup_stm32h743xx.o(RESET) refers to stm32h7xx_it.o(i.MemManage_Handler) for MemManage_Handler
    startup_stm32h743xx.o(RESET) refers to stm32h7xx_it.o(i.BusFault_Handler) for BusFault_Handler
    startup_stm32h743xx.o(RESET) refers to stm32h7xx_it.o(i.UsageFault_Handler) for UsageFault_Handler
    startup_stm32h743xx.o(RESET) refers to port.o(.emb_text) for SVC_Handler
    startup_stm32h743xx.o(RESET) refers to stm32h7xx_it.o(i.DebugMon_Handler) for DebugMon_Handler
    startup_stm32h743xx.o(RESET) refers to delay.o(i.SysTick_Handler) for SysTick_Handler
    startup_stm32h743xx.o(RESET) refers to ads1292.o(i.EXTI9_5_IRQHandler) for EXTI9_5_IRQHandler
    startup_stm32h743xx.o(RESET) refers to spi.o(i.SPI1_IRQHandler) for SPI1_IRQHandler
    startup_stm32h743xx.o(RESET) refers to usart.o(i.USART1_IRQHandler) for USART1_IRQHandler
    startup_stm32h743xx.o(RESET) refers to usart.o(i.USART3_IRQHandler) for USART3_IRQHandler
    startup_stm32h743xx.o(RESET) refers to spi.o(i.DMA2_Stream2_IRQHandler) for DMA2_Stream2_IRQHandler
==============================================================================

Removing Unused input sections from the image.

    Removing ecg.o(i.ai_ecg_destroy), (4 bytes).
    Removing ecg.o(i.ai_ecg_forward), (6 bytes).
    Removing ecg.o(i.ai_ecg_get_info), (88 bytes).
    Removing ecg_data.o(i.ai_ecg_data_activations_buffer_get), (56 bytes).
    Removing ecg_data.o(i.ai_ecg_data_weights_buffer_get), (56 bytes).
    Removing ecg_data.o(i.ai_ecg_data_weights_get), (8 bytes).
    Removing ecg_data_params.o(.data), (12 bytes).
    Removing ecg_data_params.o(.data), (12 bytes).
    Removing app_x-cube-ai.o(.rev16_text), (4 bytes).
    Removing app_x-cube-ai.o(.revsh_text), (4 bytes).
    Removing app_x-cube-ai.o(.rrx_text), (6 bytes).
    Removing app_x-cube-ai.o(i.MX_X_CUBE_AI_Init), (56 bytes).
    Removing app_x-cube-ai.o(i.MX_X_CUBE_AI_Process), (124 bytes).
    Removing app_x-cube-ai.o(i.acquire_and_process_data), (4 bytes).
    Removing app_x-cube-ai.o(i.ai_boostrap), (96 bytes).
    Removing app_x-cube-ai.o(i.ai_log_err), (132 bytes).
    Removing app_x-cube-ai.o(i.post_process), (4 bytes).
    Removing app_x-cube-ai.o(.bss), (32140 bytes).
==============================================================================

Image Symbol Table

    Local Symbols

    Symbol Name                              Value     Ov Type        Size  Object(Section)

    ../Core/Src/crc.c                        0x00000000   Number         0  crc.o ABSOLUTE
    ../Core/Src/gpio.c                       0x00000000   Number         0  gpio.o ABSOLUTE
    ../Core/Src/main.c                       0x00000000   Number         0  main.o ABSOLUTE
    ../Core/Src/stm32h7xx_hal_msp.c          0x00000000   Number         0  stm32h7xx_hal_msp.o ABSOLUTE
    ../Core/Src/stm32h7xx_it.c               0x00000000   Number         0  stm32h7xx_it.o ABSOLUTE
    ../Core/Src/system_stm32h7xx.c           0x00000000   Number         0  system_stm32h7xx.o ABSOLUTE
    ../Drivers/STM32H7xx_HAL_Driver/Src/stm32h7xx_hal.c 0x00000000   Number         0  stm32h7xx_hal.o ABSOLUTE
    ../Drivers/STM32H7xx_HAL_Driver/Src/stm32h7xx_hal_cortex.c 0x00000000   Number         0  stm32h7xx_hal_cortex.o ABSOLUTE
    ../Drivers/STM32H7xx_HAL_Driver/Src/stm32h7xx_hal_crc.c 0x00000000   Number         0  stm32h7xx_hal_crc.o ABSOLUTE
    ../Drivers/STM32H7xx_HAL_Driver/Src/stm32h7xx_hal_crc_ex.c 0x00000000   Number         0  stm32h7xx_hal_crc_ex.o ABSOLUTE
    ../Drivers/STM32H7xx_HAL_Driver/Src/stm32h7xx_hal_dma.c 0x00000000   Number         0  stm32h7xx_hal_dma.o ABSOLUTE
    ../Drivers/STM32H7xx_HAL_Driver/Src/stm32h7xx_hal_dma_ex.c 0x00000000   Number         0  stm32h7xx_hal_dma_ex.o ABSOLUTE
    ../Drivers/STM32H7xx_HAL_Driver/Src/stm32h7xx_hal_exti.c 0x00000000   Number         0  stm32h7xx_hal_exti.o ABSOLUTE
    ../Drivers/STM32H7xx_HAL_Driver/Src/stm32h7xx_hal_flash.c 0x00000000   Number         0  stm32h7xx_hal_flash.o ABSOLUTE
    ../Drivers/STM32H7xx_HAL_Driver/Src/stm32h7xx_hal_flash_ex.c 0x00000000   Number         0  stm32h7xx_hal_flash_ex.o ABSOLUTE
    ../Drivers/STM32H7xx_HAL_Driver/Src/stm32h7xx_hal_gpio.c 0x00000000   Number         0  stm32h7xx_hal_gpio.o ABSOLUTE
    ../Drivers/STM32H7xx_HAL_Driver/Src/stm32h7xx_hal_hsem.c 0x00000000   Number         0  stm32h7xx_hal_hsem.o ABSOLUTE
    ../Drivers/STM32H7xx_HAL_Driver/Src/stm32h7xx_hal_i2c.c 0x00000000   Number         0  stm32h7xx_hal_i2c.o ABSOLUTE
    ../Drivers/STM32H7xx_HAL_Driver/Src/stm32h7xx_hal_i2c_ex.c 0x00000000   Number         0  stm32h7xx_hal_i2c_ex.o ABSOLUTE
    ../Drivers/STM32H7xx_HAL_Driver/Src/stm32h7xx_hal_mdma.c 0x00000000   Number         0  stm32h7xx_hal_mdma.o ABSOLUTE
    ../Drivers/STM32H7xx_HAL_Driver/Src/stm32h7xx_hal_pwr.c 0x00000000   Number         0  stm32h7xx_hal_pwr.o ABSOLUTE
    ../Drivers/STM32H7xx_HAL_Driver/Src/stm32h7xx_hal_pwr_ex.c 0x00000000   Number         0  stm32h7xx_hal_pwr_ex.o ABSOLUTE
    ../Drivers/STM32H7xx_HAL_Driver/Src/stm32h7xx_hal_rcc.c 0x00000000   Number         0  stm32h7xx_hal_rcc.o ABSOLUTE
    ../Drivers/STM32H7xx_HAL_Driver/Src/stm32h7xx_hal_rcc_ex.c 0x00000000   Number         0  stm32h7xx_hal_rcc_ex.o ABSOLUTE
    ../Drivers/STM32H7xx_HAL_Driver/Src/stm32h7xx_hal_tim.c 0x00000000   Number         0  stm32h7xx_hal_tim.o ABSOLUTE
    ../Drivers/STM32H7xx_HAL_Driver/Src/stm32h7xx_hal_tim_ex.c 0x00000000   Number         0  stm32h7xx_hal_tim_ex.o ABSOLUTE
    ../X-CUBE-AI/App/app_x-cube-ai.c         0x00000000   Number         0  app_x-cube-ai.o ABSOLUTE
    ../X-CUBE-AI/App/ecg.c                   0x00000000   Number         0  ecg.o ABSOLUTE
    ../X-CUBE-AI/App/ecg_data.c              0x00000000   Number         0  ecg_data.o ABSOLUTE
    ../X-CUBE-AI/App/ecg_data_params.c       0x00000000   Number         0  ecg_data_params.o ABSOLUTE
    ../clib/angel/boardlib.s                 0x00000000   Number         0  boardshut.o ABSOLUTE
    ../clib/angel/boardlib.s                 0x00000000   Number         0  boardinit3.o ABSOLUTE
    ../clib/angel/boardlib.s                 0x00000000   Number         0  boardinit2.o ABSOLUTE
    ../clib/angel/boardlib.s                 0x00000000   Number         0  boardinit1.o ABSOLUTE
    ../clib/angel/dczerorl2.s                0x00000000   Number         0  __dczerorl2.o ABSOLUTE
    ../clib/angel/handlers.s                 0x00000000   Number         0  __scatter_zi.o ABSOLUTE
    ../clib/angel/kernel.s                   0x00000000   Number         0  __rtentry4.o ABSOLUTE
    ../clib/angel/kernel.s                   0x00000000   Number         0  rtexit2.o ABSOLUTE
    ../clib/angel/kernel.s                   0x00000000   Number         0  rtexit.o ABSOLUTE
    ../clib/angel/kernel.s                   0x00000000   Number         0  __rtentry.o ABSOLUTE
    ../clib/angel/kernel.s                   0x00000000   Number         0  __rtentry2.o ABSOLUTE
    ../clib/angel/rt.s                       0x00000000   Number         0  rt_errno_addr_intlibspace.o ABSOLUTE
    ../clib/angel/rt.s                       0x00000000   Number         0  rt_locale_intlibspace.o ABSOLUTE
    ../clib/angel/rt.s                       0x00000000   Number         0  rt_locale.o ABSOLUTE
    ../clib/angel/rt.s                       0x00000000   Number         0  aeabi_ldiv0.o ABSOLUTE
    ../clib/angel/rt.s                       0x00000000   Number         0  rt_heap_descriptor_intlibspace.o ABSOLUTE
    ../clib/angel/rt.s                       0x00000000   Number         0  rt_raise.o ABSOLUTE
    ../clib/angel/rt.s                       0x00000000   Number         0  rt_heap_descriptor.o ABSOLUTE
    ../clib/angel/rt.s                       0x00000000   Number         0  rt_div0.o ABSOLUTE
    ../clib/angel/rt.s                       0x00000000   Number         0  aeabi_ldiv0_sigfpe.o ABSOLUTE
    ../clib/angel/rt.s                       0x00000000   Number         0  rt_errno_addr.o ABSOLUTE
    ../clib/angel/scatter.s                  0x00000000   Number         0  __scatter.o ABSOLUTE
    ../clib/angel/startup.s                  0x00000000   Number         0  __main.o ABSOLUTE
    ../clib/angel/sys.s                      0x00000000   Number         0  mutex_dummy.o ABSOLUTE
    ../clib/angel/sys.s                      0x00000000   Number         0  use_no_semi.o ABSOLUTE
    ../clib/angel/sys.s                      0x00000000   Number         0  use_no_semi_2.o ABSOLUTE
    ../clib/angel/sys.s                      0x00000000   Number         0  sys_stackheap_outer.o ABSOLUTE
    ../clib/angel/sys.s                      0x00000000   Number         0  libspace.o ABSOLUTE
    ../clib/armsys.c                         0x00000000   Number         0  _get_argv_nomalloc.o ABSOLUTE
    ../clib/armsys.c                         0x00000000   Number         0  no_argv.o ABSOLUTE
    ../clib/armsys.c                         0x00000000   Number         0  argv_veneer.o ABSOLUTE
    ../clib/armsys.c                         0x00000000   Number         0  _get_argv.o ABSOLUTE
    ../clib/armsys.c                         0x00000000   Number         0  argv_veneer.o ABSOLUTE
    ../clib/bigflt.c                         0x00000000   Number         0  bigflt0.o ABSOLUTE
    ../clib/btod.s                           0x00000000   Number         0  btod.o ABSOLUTE
    ../clib/fenv.c                           0x00000000   Number         0  _rserrno.o ABSOLUTE
    ../clib/heap1.c                          0x00000000   Number         0  h1_final_mt.o ABSOLUTE
    ../clib/heap1.c                          0x00000000   Number         0  h1_realloc.o ABSOLUTE
    ../clib/heap1.c                          0x00000000   Number         0  h1_extend.o ABSOLUTE
    ../clib/heap1.c                          0x00000000   Number         0  h1_realloc_mt.o ABSOLUTE
    ../clib/heap1.c                          0x00000000   Number         0  h1_free_mt.o ABSOLUTE
    ../clib/heap1.c                          0x00000000   Number         0  h1_alloc_mt.o ABSOLUTE
    ../clib/heap1.c                          0x00000000   Number         0  h1_extend_mt.o ABSOLUTE
    ../clib/heap1.c                          0x00000000   Number         0  h1_init_mt.o ABSOLUTE
    ../clib/heap1.c                          0x00000000   Number         0  h1_alloc.o ABSOLUTE
    ../clib/heap1.c                          0x00000000   Number         0  h1_init.o ABSOLUTE
    ../clib/heap1.c                          0x00000000   Number         0  h1_free.o ABSOLUTE
    ../clib/heap1.c                          0x00000000   Number         0  h1_final.o ABSOLUTE
    ../clib/heap2.c                          0x00000000   Number         0  fdtree.o ABSOLUTE
    ../clib/heap2.c                          0x00000000   Number         0  heap2.o ABSOLUTE
    ../clib/heap2.c                          0x00000000   Number         0  heap2mt.o ABSOLUTE
    ../clib/heapalloc.c                      0x00000000   Number         0  term_alloc.o ABSOLUTE
    ../clib/heapalloc.c                      0x00000000   Number         0  maybetermalloc1.o ABSOLUTE
    ../clib/heapalloc.c                      0x00000000   Number         0  hrguard.o ABSOLUTE
    ../clib/heapalloc.c                      0x00000000   Number         0  free.o ABSOLUTE
    ../clib/heapalloc.c                      0x00000000   Number         0  realloc.o ABSOLUTE
    ../clib/heapalloc.c                      0x00000000   Number         0  maybetermalloc2.o ABSOLUTE
    ../clib/heapalloc.c                      0x00000000   Number         0  heapstubs.o ABSOLUTE
    ../clib/heapalloc.c                      0x00000000   Number         0  maybetermalloc2.o ABSOLUTE
    ../clib/heapalloc.c                      0x00000000   Number         0  hguard.o ABSOLUTE
    ../clib/heapalloc.c                      0x00000000   Number         0  malloc.o ABSOLUTE
    ../clib/heapalloc.c                      0x00000000   Number         0  maybetermalloc1.o ABSOLUTE
    ../clib/heapalloc.c                      0x00000000   Number         0  init_alloc.o ABSOLUTE
    ../clib/heapaux.c                        0x00000000   Number         0  heapauxa.o ABSOLUTE
    ../clib/heapaux.c                        0x00000000   Number         0  heapauxi.o ABSOLUTE
    ../clib/libinit.s                        0x00000000   Number         0  libshutdown.o ABSOLUTE
    ../clib/libinit.s                        0x00000000   Number         0  libinit.o ABSOLUTE
    ../clib/libinit.s                        0x00000000   Number         0  libinit2.o ABSOLUTE
    ../clib/libinit.s                        0x00000000   Number         0  libshutdown2.o ABSOLUTE
    ../clib/locale.s                         0x00000000   Number         0  lc_numeric_c.o ABSOLUTE
    ../clib/longlong.s                       0x00000000   Number         0  lludivv7m.o ABSOLUTE
    ../clib/longlong.s                       0x00000000   Number         0  lludiv10.o ABSOLUTE
    ../clib/memcpset.s                       0x00000000   Number         0  rt_memcpy_v6.o ABSOLUTE
    ../clib/memcpset.s                       0x00000000   Number         0  rt_memclr.o ABSOLUTE
    ../clib/memcpset.s                       0x00000000   Number         0  strcmpv7m_pel.o ABSOLUTE
    ../clib/memcpset.s                       0x00000000   Number         0  rt_memcpy_w.o ABSOLUTE
    ../clib/memcpset.s                       0x00000000   Number         0  rt_memclr_w.o ABSOLUTE
    ../clib/memcpset.s                       0x00000000   Number         0  aeabi_memset.o ABSOLUTE
    ../clib/memcpset.s                       0x00000000   Number         0  memset.o ABSOLUTE
    ../clib/misc.s                           0x00000000   Number         0  printf_stubs.o ABSOLUTE
    ../clib/printf.c                         0x00000000   Number         0  _printf_hex_ll_ptr.o ABSOLUTE
    ../clib/printf.c                         0x00000000   Number         0  _sputc.o ABSOLUTE
    ../clib/printf.c                         0x00000000   Number         0  _printf_hex_int_ptr.o ABSOLUTE
    ../clib/printf.c                         0x00000000   Number         0  _printf_char_common.o ABSOLUTE
    ../clib/printf.c                         0x00000000   Number         0  _printf_hex_ptr.o ABSOLUTE
    ../clib/printf.c                         0x00000000   Number         0  _printf_hex_int_ll.o ABSOLUTE
    ../clib/printf.c                         0x00000000   Number         0  _printf_fp_dec.o ABSOLUTE
    ../clib/printf.c                         0x00000000   Number         0  noretval__2sprintf.o ABSOLUTE
    ../clib/printf.c                         0x00000000   Number         0  _printf_intcommon.o ABSOLUTE
    ../clib/printf.c                         0x00000000   Number         0  _printf_hex_ll.o ABSOLUTE
    ../clib/printf.c                         0x00000000   Number         0  _printf_hex_int.o ABSOLUTE
    ../clib/printf.c                         0x00000000   Number         0  _printf_dec.o ABSOLUTE
    ../clib/printf.c                         0x00000000   Number         0  noretval__2printf.o ABSOLUTE
    ../clib/printf.c                         0x00000000   Number         0  _printf_str.o ABSOLUTE
    ../clib/printf.c                         0x00000000   Number         0  __2sprintf.o ABSOLUTE
    ../clib/printf.c                         0x00000000   Number         0  _printf_pad.o ABSOLUTE
    ../clib/printf.c                         0x00000000   Number         0  __printf_flags_ss_wp.o ABSOLUTE
    ../clib/printf.c                         0x00000000   Number         0  __printf_ss_wp.o ABSOLUTE
    ../clib/printf.c                         0x00000000   Number         0  __printf.o ABSOLUTE
    ../clib/printf.c                         0x00000000   Number         0  __printf_flags_wp.o ABSOLUTE
    ../clib/printf.c                         0x00000000   Number         0  __2printf.o ABSOLUTE
    ../clib/printf.c                         0x00000000   Number         0  __printf_wp.o ABSOLUTE
    ../clib/printf.c                         0x00000000   Number         0  __printf_flags_ss.o ABSOLUTE
    ../clib/printf.c                         0x00000000   Number         0  __printf_nopercent.o ABSOLUTE
    ../clib/printf.c                         0x00000000   Number         0  __printf_ss.o ABSOLUTE
    ../clib/printf.c                         0x00000000   Number         0  _printf_fp_infnan.o ABSOLUTE
    ../clib/printf.c                         0x00000000   Number         0  __printf_flags.o ABSOLUTE
    ../clib/printf.c                         0x00000000   Number         0  _printf_char_file.o ABSOLUTE
    ../clib/printf.c                         0x00000000   Number         0  _printf_hex_int_ll_ptr.o ABSOLUTE
    ../clib/printf.c                         0x00000000   Number         0  _printf_char.o ABSOLUTE
    ../clib/printf_percent.s                 0x00000000   Number         0  _printf_percent.o ABSOLUTE
    ../clib/printf_percent.s                 0x00000000   Number         0  _printf_percent_end.o ABSOLUTE
    ../clib/printf_percent.s                 0x00000000   Number         0  _printf_c.o ABSOLUTE
    ../clib/printf_percent.s                 0x00000000   Number         0  _printf_s.o ABSOLUTE
    ../clib/printf_percent.s                 0x00000000   Number         0  _printf_x.o ABSOLUTE
    ../clib/printf_percent.s                 0x00000000   Number         0  _printf_f.o ABSOLUTE
    ../clib/printf_percent.s                 0x00000000   Number         0  _printf_u.o ABSOLUTE
    ../clib/printf_percent.s                 0x00000000   Number         0  _printf_d.o ABSOLUTE
    ../clib/signal.c                         0x00000000   Number         0  defsig_pvfn_inner.o ABSOLUTE
    ../clib/signal.c                         0x00000000   Number         0  defsig_stak_inner.o ABSOLUTE
    ../clib/signal.c                         0x00000000   Number         0  defsig_rtred_inner.o ABSOLUTE
    ../clib/signal.c                         0x00000000   Number         0  defsig_abrt_inner.o ABSOLUTE
    ../clib/signal.c                         0x00000000   Number         0  defsig_segv_inner.o ABSOLUTE
    ../clib/signal.c                         0x00000000   Number         0  defsig_fpe_outer.o ABSOLUTE
    ../clib/signal.c                         0x00000000   Number         0  defsig_rtmem_outer.o ABSOLUTE
    ../clib/signal.c                         0x00000000   Number         0  defsig_rtmem_formal.o ABSOLUTE
    ../clib/signal.c                         0x00000000   Number         0  defsig_rtmem_inner.o ABSOLUTE
    ../clib/signal.c                         0x00000000   Number         0  defsig_fpe_formal.o ABSOLUTE
    ../clib/signal.c                         0x00000000   Number         0  defsig_fpe_inner.o ABSOLUTE
    ../clib/signal.c                         0x00000000   Number         0  defsig_cppl_inner.o ABSOLUTE
    ../clib/signal.c                         0x00000000   Number         0  defsig_general.o ABSOLUTE
    ../clib/signal.c                         0x00000000   Number         0  __raise.o ABSOLUTE
    ../clib/signal.c                         0x00000000   Number         0  defsig_exit.o ABSOLUTE
    ../clib/signal.c                         0x00000000   Number         0  defsig_other.o ABSOLUTE
    ../clib/signal.s                         0x00000000   Number         0  defsig.o ABSOLUTE
    ../clib/stdio.c                          0x00000000   Number         0  ferror.o ABSOLUTE
    ../clib/stdio.c                          0x00000000   Number         0  ferror_locked.o ABSOLUTE
    ../clib/stdlib.c                         0x00000000   Number         0  exit.o ABSOLUTE
    ../clib/string.c                         0x00000000   Number         0  memcmp.o ABSOLUTE
    ../clib/string.c                         0x00000000   Number         0  strlen.o ABSOLUTE
    ../clib/string.c                         0x00000000   Number         0  strcpy.o ABSOLUTE
    ../fplib/ffixll.s                        0x00000000   Number         0  ffixll.o ABSOLUTE
    ../fplib/fnaninf.s                       0x00000000   Number         0  fnaninf.o ABSOLUTE
    ../fplib/fpinit.s                        0x00000000   Number         0  fpinit.o ABSOLUTE
    ../fplib/frem.s                          0x00000000   Number         0  frem_clz.o ABSOLUTE
    ../fplib/frnd.s                          0x00000000   Number         0  frnd.o ABSOLUTE
    ../fplib/istatus.s                       0x00000000   Number         0  istatus.o ABSOLUTE
    ../fplib/printf1.s                       0x00000000   Number         0  printf1.o ABSOLUTE
    ../fplib/usenofp.s                       0x00000000   Number         0  usenofp.o ABSOLUTE
    ../mathlib/acosf.c                       0x00000000   Number         0  acosf.o ABSOLUTE
    ../mathlib/acosf.c                       0x00000000   Number         0  acosf_x.o ABSOLUTE
    ../mathlib/acoshf.c                      0x00000000   Number         0  acoshf.o ABSOLUTE
    ../mathlib/acoshf.c                      0x00000000   Number         0  acoshf_x.o ABSOLUTE
    ../mathlib/asinf.c                       0x00000000   Number         0  asinf_x.o ABSOLUTE
    ../mathlib/asinf.c                       0x00000000   Number         0  asinf.o ABSOLUTE
    ../mathlib/asinhf.c                      0x00000000   Number         0  asinhf_x.o ABSOLUTE
    ../mathlib/asinhf.c                      0x00000000   Number         0  asinhf.o ABSOLUTE
    ../mathlib/atanf.c                       0x00000000   Number         0  atanf_x.o ABSOLUTE
    ../mathlib/atanf.c                       0x00000000   Number         0  atanf.o ABSOLUTE
    ../mathlib/atanhf.c                      0x00000000   Number         0  atanhf_x.o ABSOLUTE
    ../mathlib/atanhf.c                      0x00000000   Number         0  atanhf.o ABSOLUTE
    ../mathlib/ceilf.c                       0x00000000   Number         0  ceilf.o ABSOLUTE
    ../mathlib/cosf.c                        0x00000000   Number         0  cosf_x.o ABSOLUTE
    ../mathlib/cosf.c                        0x00000000   Number         0  cosf.o ABSOLUTE
    ../mathlib/coshf.c                       0x00000000   Number         0  coshf_x.o ABSOLUTE
    ../mathlib/coshf.c                       0x00000000   Number         0  coshf.o ABSOLUTE
    ../mathlib/erff.c                        0x00000000   Number         0  erff.o ABSOLUTE
    ../mathlib/erff.c                        0x00000000   Number         0  erff_x.o ABSOLUTE
    ../mathlib/expf.c                        0x00000000   Number         0  expf.o ABSOLUTE
    ../mathlib/expf.c                        0x00000000   Number         0  expf_x.o ABSOLUTE
    ../mathlib/floorf.c                      0x00000000   Number         0  floorf.o ABSOLUTE
    ../mathlib/fmodf.c                       0x00000000   Number         0  fmodf_x.o ABSOLUTE
    ../mathlib/fmodf.c                       0x00000000   Number         0  fmodf.o ABSOLUTE
    ../mathlib/fpclassify.c                  0x00000000   Number         0  fpclassify.o ABSOLUTE
    ../mathlib/fpclassifyf.c                 0x00000000   Number         0  fpclassifyf.o ABSOLUTE
    ../mathlib/funder.c                      0x00000000   Number         0  funder.o ABSOLUTE
    ../mathlib/log1pf.c                      0x00000000   Number         0  log1pf_x.o ABSOLUTE
    ../mathlib/log1pf.c                      0x00000000   Number         0  log1pf_i.o ABSOLUTE
    ../mathlib/logf.c                        0x00000000   Number         0  logf.o ABSOLUTE
    ../mathlib/logf.c                        0x00000000   Number         0  logf_x.o ABSOLUTE
    ../mathlib/logf.c                        0x00000000   Number         0  logf_i.o ABSOLUTE
    ../mathlib/powf.c                        0x00000000   Number         0  powf_x.o ABSOLUTE
    ../mathlib/powf.c                        0x00000000   Number         0  powf.o ABSOLUTE
    ../mathlib/round.c                       0x00000000   Number         0  roundf.o ABSOLUTE
    ../mathlib/rredf.c                       0x00000000   Number         0  rredf.o ABSOLUTE
    ../mathlib/sinf.c                        0x00000000   Number         0  sinf_x.o ABSOLUTE
    ../mathlib/sinf.c                        0x00000000   Number         0  sinf.o ABSOLUTE
    ../mathlib/sinhf.c                       0x00000000   Number         0  sinhf_x.o ABSOLUTE
    ../mathlib/sinhf.c                       0x00000000   Number         0  sinhf.o ABSOLUTE
    ../mathlib/sqrtf.c                       0x00000000   Number         0  sqrtf_x.o ABSOLUTE
    ../mathlib/sqrtf.c                       0x00000000   Number         0  sqrtf.o ABSOLUTE
    ../mathlib/tanf.c                        0x00000000   Number         0  tanf.o ABSOLUTE
    ../mathlib/tanf.c                        0x00000000   Number         0  tanf_x.o ABSOLUTE
    ../mathlib/tanhf.c                       0x00000000   Number         0  tanhf.o ABSOLUTE
    ../mathlib/tanhf.c                       0x00000000   Number         0  tanhf_x.o ABSOLUTE
    ..\..\..\src\ai_lite\src\kernels\forward_lite_conv2d_if32of32wf32.c 0x00000000   Number         0  forward_lite_conv2d_if32of32wf32.o ABSOLUTE
    ..\..\..\src\ai_lite\src\kernels\lite_dense_if32.c 0x00000000   Number         0  lite_dense_if32.o ABSOLUTE
    ..\..\..\src\api\ai_datatypes_format.c   0x00000000   Number         0  ai_datatypes_format.o ABSOLUTE
    ..\..\..\src\api\ai_datatypes_internal.c 0x00000000   Number         0  ai_datatypes_internal.o ABSOLUTE
    ..\..\..\src\api\ai_platform.c           0x00000000   Number         0  ai_platform.o ABSOLUTE
    ..\..\..\src\api\ai_platform_interface.c 0x00000000   Number         0  ai_platform_interface.o ABSOLUTE
    ..\..\..\src\core\core_common.c          0x00000000   Number         0  core_common.o ABSOLUTE
    ..\..\..\src\core\core_mem_manager.c     0x00000000   Number         0  core_mem_manager.o ABSOLUTE
    ..\..\..\src\core\core_utils.c           0x00000000   Number         0  core_utils.o ABSOLUTE
    ..\..\..\src\helpers\ai_math_helpers.c   0x00000000   Number         0  ai_math_helpers.o ABSOLUTE
    ..\..\..\src\layers\layers.c             0x00000000   Number         0  layers.o ABSOLUTE
    ..\..\..\src\layers\layers_conv2d_generic_float.c 0x00000000   Number         0  layers_conv2d_generic_float.o ABSOLUTE
    ..\..\..\src\layers\layers_conv2d_stm32_integer.c 0x00000000   Number         0  layers_conv2d_stm32_integer.o ABSOLUTE
    ..\..\..\src\layers\layers_nl_generic_float.c 0x00000000   Number         0  layers_nl_generic_float.o ABSOLUTE
    ..\..\..\src\layers\layers_norm_generic_float.c 0x00000000   Number         0  layers_norm_generic_float.o ABSOLUTE
    ..\..\..\src\layers\layers_pool_generic_float.c 0x00000000   Number         0  layers_pool_generic_float.o ABSOLUTE
    ..\..\Drivers\CMSIS\DSP\Source\MatrixFunctions\arm_mat_init_f32.c 0x00000000   Number         0  arm_mat_init_f32.o ABSOLUTE
    ..\..\Drivers\CMSIS\DSP\Source\SupportFunctions\arm_copy_q7.c 0x00000000   Number         0  arm_copy_q7.o ABSOLUTE
    ..\..\Drivers\CMSIS\DSP\Source\SupportFunctions\arm_fill_q15.c 0x00000000   Number         0  arm_fill_q15.o ABSOLUTE
    ..\..\Drivers\ST_CMSIS\NN\Source\ConvolutionFunctions\st_convolve_reference.c 0x00000000   Number         0  st_convolve_reference.o ABSOLUTE
    ..\..\Drivers\ST_CMSIS\NN\Source\ConvolutionFunctions\st_sssa8_ch_convolve.c 0x00000000   Number         0  st_sssa8_ch_convolve.o ABSOLUTE
    ..\..\Drivers\ST_CMSIS\NN\Source\ConvolutionFunctions\st_sssa8_convolve.c 0x00000000   Number         0  st_sssa8_convolve.o ABSOLUTE
    ..\..\Drivers\ST_CMSIS\NN\Source\ConvolutionFunctions\st_sssa8_convolve_1x1.c 0x00000000   Number         0  st_sssa8_convolve_1x1.o ABSOLUTE
    ..\..\Drivers\ST_CMSIS\NN\Source\ConvolutionFunctions\st_sssa8_convolve_dw.c 0x00000000   Number         0  st_sssa8_convolve_dw.o ABSOLUTE
    ..\..\Drivers\ST_CMSIS\NN\Source\ConvolutionFunctions\st_sssa8_convolve_rgb.c 0x00000000   Number         0  st_sssa8_convolve_rgb.o ABSOLUTE
    ..\..\Drivers\ST_CMSIS\NN\Source\ConvolutionFunctions\st_ssua8_ch_convolve.c 0x00000000   Number         0  st_ssua8_ch_convolve.o ABSOLUTE
    ..\..\Drivers\ST_CMSIS\NN\Source\ConvolutionFunctions\st_ssua8_ch_convolve_1x1.c 0x00000000   Number         0  st_ssua8_ch_convolve_1x1.o ABSOLUTE
    ..\..\Drivers\ST_CMSIS\NN\Source\ConvolutionFunctions\st_ssua8_ch_convolve_dw.c 0x00000000   Number         0  st_ssua8_ch_convolve_dw.o ABSOLUTE
    ..\..\Drivers\ST_CMSIS\NN\Source\ConvolutionFunctions\st_ssua8_ch_convolve_rgb.c 0x00000000   Number         0  st_ssua8_ch_convolve_rgb.o ABSOLUTE
    ..\..\Drivers\ST_CMSIS\NN\Source\ConvolutionFunctions\st_ssua8_convolve.c 0x00000000   Number         0  st_ssua8_convolve.o ABSOLUTE
    ..\..\Drivers\ST_CMSIS\NN\Source\ConvolutionFunctions\st_ssua8_convolve_1x1.c 0x00000000   Number         0  st_ssua8_convolve_1x1.o ABSOLUTE
    ..\..\Drivers\ST_CMSIS\NN\Source\ConvolutionFunctions\st_ssua8_convolve_dw.c 0x00000000   Number         0  st_ssua8_convolve_dw.o ABSOLUTE
    ..\..\Drivers\ST_CMSIS\NN\Source\ConvolutionFunctions\st_ssua8_convolve_rgb.c 0x00000000   Number         0  st_ssua8_convolve_rgb.o ABSOLUTE
    ..\..\Drivers\ST_CMSIS\NN\Source\ConvolutionFunctions\st_uaua8_ch_convolve.c 0x00000000   Number         0  st_uaua8_ch_convolve.o ABSOLUTE
    ..\..\Drivers\ST_CMSIS\NN\Source\ConvolutionFunctions\st_uaua8_ch_convolve_1x1.c 0x00000000   Number         0  st_uaua8_ch_convolve_1x1.o ABSOLUTE
    ..\..\Drivers\ST_CMSIS\NN\Source\ConvolutionFunctions\st_uaua8_ch_convolve_dw.c 0x00000000   Number         0  st_uaua8_ch_convolve_dw.o ABSOLUTE
    ..\..\Drivers\ST_CMSIS\NN\Source\ConvolutionFunctions\st_uaua8_ch_convolve_rgb.c 0x00000000   Number         0  st_uaua8_ch_convolve_rgb.o ABSOLUTE
    ..\..\Drivers\ST_CMSIS\NN\Source\ConvolutionFunctions\st_uaua8_convolve.c 0x00000000   Number         0  st_uaua8_convolve.o ABSOLUTE
    ..\..\Drivers\ST_CMSIS\NN\Source\ConvolutionFunctions\st_uaua8_convolve_1x1.c 0x00000000   Number         0  st_uaua8_convolve_1x1.o ABSOLUTE
    ..\..\Drivers\ST_CMSIS\NN\Source\ConvolutionFunctions\st_uaua8_convolve_dw.c 0x00000000   Number         0  st_uaua8_convolve_dw.o ABSOLUTE
    ..\..\Drivers\ST_CMSIS\NN\Source\ConvolutionFunctions\st_uaua8_convolve_rgb.c 0x00000000   Number         0  st_uaua8_convolve_rgb.o ABSOLUTE
    ..\..\Drivers\ST_CMSIS\NN\Source\FullyConnectedFunctions\st_sssa8_ch_dense.c 0x00000000   Number         0  st_sssa8_ch_dense.o ABSOLUTE
    ..\..\Drivers\ST_CMSIS\NN\Source\FullyConnectedFunctions\st_sssa8_dense.c 0x00000000   Number         0  st_sssa8_dense.o ABSOLUTE
    ..\..\Drivers\ST_CMSIS\NN\Source\FullyConnectedFunctions\st_ssua8_ch_dense.c 0x00000000   Number         0  st_ssua8_ch_dense.o ABSOLUTE
    ..\..\Drivers\ST_CMSIS\NN\Source\FullyConnectedFunctions\st_ssua8_dense.c 0x00000000   Number         0  st_ssua8_dense.o ABSOLUTE
    ..\..\Drivers\ST_CMSIS\NN\Source\FullyConnectedFunctions\st_uaua8_ch_dense.c 0x00000000   Number         0  st_uaua8_ch_dense.o ABSOLUTE
    ..\..\Drivers\ST_CMSIS\NN\Source\FullyConnectedFunctions\st_uaua8_dense.c 0x00000000   Number         0  st_uaua8_dense.o ABSOLUTE
    ..\..\Drivers\ST_CMSIS\NN\Source\NNSupportFunctions\st_int8_fill.c 0x00000000   Number         0  st_int8_fill.o ABSOLUTE
    ..\..\Drivers\ST_CMSIS\NN\Source\NNSupportFunctions\st_int8_reordered_no_shift.c 0x00000000   Number         0  st_int8_reordered_no_shift.o ABSOLUTE
    ..\..\Drivers\ST_CMSIS\NN\Source\NNSupportFunctions\st_int8_to16_no_shift.c 0x00000000   Number         0  st_int8_to16_no_shift.o ABSOLUTE
    ..\..\Drivers\ST_CMSIS\NN\Source\NNSupportFunctions\st_padding_opt.c 0x00000000   Number         0  st_padding_opt.o ABSOLUTE
    ..\..\Drivers\ST_CMSIS\NN\Source\NNSupportFunctions\st_sssa8_ch_nn_mat_mult_kernel_opt.c 0x00000000   Number         0  st_sssa8_ch_nn_mat_mult_kernel_opt.o ABSOLUTE
    ..\..\Drivers\ST_CMSIS\NN\Source\NNSupportFunctions\st_sssa8_ch_nn_mat_mult_nt_t.c 0x00000000   Number         0  st_sssa8_ch_nn_mat_mult_nt_t.o ABSOLUTE
    ..\..\Drivers\ST_CMSIS\NN\Source\NNSupportFunctions\st_sssa8_nn_mat_mult_kernel.c 0x00000000   Number         0  st_sssa8_nn_mat_mult_kernel.o ABSOLUTE
    ..\..\Drivers\ST_CMSIS\NN\Source\NNSupportFunctions\st_sssa8_nn_mat_mult_kernel_opt.c 0x00000000   Number         0  st_sssa8_nn_mat_mult_kernel_opt.o ABSOLUTE
    ..\..\Drivers\ST_CMSIS\NN\Source\NNSupportFunctions\st_sssa8_nn_mat_mult_nt_t.c 0x00000000   Number         0  st_sssa8_nn_mat_mult_nt_t.o ABSOLUTE
    ..\..\Drivers\ST_CMSIS\NN\Source\NNSupportFunctions\st_ssua8_ch_nn_mat_mult_kernel.c 0x00000000   Number         0  st_ssua8_ch_nn_mat_mult_kernel.o ABSOLUTE
    ..\..\Drivers\ST_CMSIS\NN\Source\NNSupportFunctions\st_ssua8_ch_nn_mat_mult_nt_t.c 0x00000000   Number         0  st_ssua8_ch_nn_mat_mult_nt_t.o ABSOLUTE
    ..\..\Drivers\ST_CMSIS\NN\Source\NNSupportFunctions\st_ssua8_nn_mat_mult_kernel.c 0x00000000   Number         0  st_ssua8_nn_mat_mult_kernel.o ABSOLUTE
    ..\..\Drivers\ST_CMSIS\NN\Source\NNSupportFunctions\st_ssua8_nn_mat_mult_nt_t.c 0x00000000   Number         0  st_ssua8_nn_mat_mult_nt_t.o ABSOLUTE
    ..\..\Drivers\ST_CMSIS\NN\Source\NNSupportFunctions\st_uaua8_ch_nn_mat_mult_kernel.c 0x00000000   Number         0  st_uaua8_ch_nn_mat_mult_kernel.o ABSOLUTE
    ..\..\Drivers\ST_CMSIS\NN\Source\NNSupportFunctions\st_uaua8_ch_nn_mat_mult_nt_t.c 0x00000000   Number         0  st_uaua8_ch_nn_mat_mult_nt_t.o ABSOLUTE
    ..\..\Drivers\ST_CMSIS\NN\Source\NNSupportFunctions\st_uaua8_nn_mat_mult_kernel.c 0x00000000   Number         0  st_uaua8_nn_mat_mult_kernel.o ABSOLUTE
    ..\..\Drivers\ST_CMSIS\NN\Source\NNSupportFunctions\st_uaua8_nn_mat_mult_nt_t.c 0x00000000   Number         0  st_uaua8_nn_mat_mult_nt_t.o ABSOLUTE
    ..\..\Drivers\ST_CMSIS\NN\Source\NNSupportFunctions\st_uint8_fill.c 0x00000000   Number         0  st_uint8_fill.o ABSOLUTE
    ..\..\Drivers\ST_CMSIS\NN\Source\NNSupportFunctions\st_uint8_reordered_no_shift.c 0x00000000   Number         0  st_uint8_reordered_no_shift.o ABSOLUTE
    ..\..\Drivers\ST_CMSIS\NN\Source\NNSupportFunctions\st_uint8_to16_no_shift.c 0x00000000   Number         0  st_uint8_to16_no_shift.o ABSOLUTE
    ..\Core\Src\crc.c                        0x00000000   Number         0  crc.o ABSOLUTE
    ..\Core\Src\gpio.c                       0x00000000   Number         0  gpio.o ABSOLUTE
    ..\Core\Src\main.c                       0x00000000   Number         0  main.o ABSOLUTE
    ..\Core\Src\stm32h7xx_hal_msp.c          0x00000000   Number         0  stm32h7xx_hal_msp.o ABSOLUTE
    ..\Core\Src\stm32h7xx_it.c               0x00000000   Number         0  stm32h7xx_it.o ABSOLUTE
    ..\Core\Src\system_stm32h7xx.c           0x00000000   Number         0  system_stm32h7xx.o ABSOLUTE
    ..\DEMO\freertos_demo.c                  0x00000000   Number         0  freertos_demo.o ABSOLUTE
    ..\Data_Processing\Data_Processing.c     0x00000000   Number         0  data_processing.o ABSOLUTE
    ..\Drivers\BSP\LED\led.c                 0x00000000   Number         0  led.o ABSOLUTE
    ..\Drivers\BSP\ads1292\ads1292.c         0x00000000   Number         0  ads1292.o ABSOLUTE
    ..\Drivers\BSP\hc05\hc05.c               0x00000000   Number         0  hc05.o ABSOLUTE
    ..\Drivers\STM32H7xx_HAL_Driver\Src\stm32h7xx_hal.c 0x00000000   Number         0  stm32h7xx_hal.o ABSOLUTE
    ..\Drivers\STM32H7xx_HAL_Driver\Src\stm32h7xx_hal_cortex.c 0x00000000   Number         0  stm32h7xx_hal_cortex.o ABSOLUTE
    ..\Drivers\STM32H7xx_HAL_Driver\Src\stm32h7xx_hal_crc.c 0x00000000   Number         0  stm32h7xx_hal_crc.o ABSOLUTE
    ..\Drivers\STM32H7xx_HAL_Driver\Src\stm32h7xx_hal_crc_ex.c 0x00000000   Number         0  stm32h7xx_hal_crc_ex.o ABSOLUTE
    ..\Drivers\STM32H7xx_HAL_Driver\Src\stm32h7xx_hal_dma.c 0x00000000   Number         0  stm32h7xx_hal_dma.o ABSOLUTE
    ..\Drivers\STM32H7xx_HAL_Driver\Src\stm32h7xx_hal_dma2d.c 0x00000000   Number         0  stm32h7xx_hal_dma2d.o ABSOLUTE
    ..\Drivers\STM32H7xx_HAL_Driver\Src\stm32h7xx_hal_dma_ex.c 0x00000000   Number         0  stm32h7xx_hal_dma_ex.o ABSOLUTE
    ..\Drivers\STM32H7xx_HAL_Driver\Src\stm32h7xx_hal_exti.c 0x00000000   Number         0  stm32h7xx_hal_exti.o ABSOLUTE
    ..\Drivers\STM32H7xx_HAL_Driver\Src\stm32h7xx_hal_flash.c 0x00000000   Number         0  stm32h7xx_hal_flash.o ABSOLUTE
    ..\Drivers\STM32H7xx_HAL_Driver\Src\stm32h7xx_hal_flash_ex.c 0x00000000   Number         0  stm32h7xx_hal_flash_ex.o ABSOLUTE
    ..\Drivers\STM32H7xx_HAL_Driver\Src\stm32h7xx_hal_gpio.c 0x00000000   Number         0  stm32h7xx_hal_gpio.o ABSOLUTE
    ..\Drivers\STM32H7xx_HAL_Driver\Src\stm32h7xx_hal_hsem.c 0x00000000   Number         0  stm32h7xx_hal_hsem.o ABSOLUTE
    ..\Drivers\STM32H7xx_HAL_Driver\Src\stm32h7xx_hal_i2c.c 0x00000000   Number         0  stm32h7xx_hal_i2c.o ABSOLUTE
    ..\Drivers\STM32H7xx_HAL_Driver\Src\stm32h7xx_hal_i2c_ex.c 0x00000000   Number         0  stm32h7xx_hal_i2c_ex.o ABSOLUTE
    ..\Drivers\STM32H7xx_HAL_Driver\Src\stm32h7xx_hal_mdma.c 0x00000000   Number         0  stm32h7xx_hal_mdma.o ABSOLUTE
    ..\Drivers\STM32H7xx_HAL_Driver\Src\stm32h7xx_hal_ospi.c 0x00000000   Number         0  stm32h7xx_hal_ospi.o ABSOLUTE
    ..\Drivers\STM32H7xx_HAL_Driver\Src\stm32h7xx_hal_pwr.c 0x00000000   Number         0  stm32h7xx_hal_pwr.o ABSOLUTE
    ..\Drivers\STM32H7xx_HAL_Driver\Src\stm32h7xx_hal_pwr_ex.c 0x00000000   Number         0  stm32h7xx_hal_pwr_ex.o ABSOLUTE
    ..\Drivers\STM32H7xx_HAL_Driver\Src\stm32h7xx_hal_rcc.c 0x00000000   Number         0  stm32h7xx_hal_rcc.o ABSOLUTE
    ..\Drivers\STM32H7xx_HAL_Driver\Src\stm32h7xx_hal_rcc_ex.c 0x00000000   Number         0  stm32h7xx_hal_rcc_ex.o ABSOLUTE
    ..\Drivers\STM32H7xx_HAL_Driver\Src\stm32h7xx_hal_spdifrx.c 0x00000000   Number         0  stm32h7xx_hal_spdifrx.o ABSOLUTE
    ..\Drivers\STM32H7xx_HAL_Driver\Src\stm32h7xx_hal_spi.c 0x00000000   Number         0  stm32h7xx_hal_spi.o ABSOLUTE
    ..\Drivers\STM32H7xx_HAL_Driver\Src\stm32h7xx_hal_spi_ex.c 0x00000000   Number         0  stm32h7xx_hal_spi_ex.o ABSOLUTE
    ..\Drivers\STM32H7xx_HAL_Driver\Src\stm32h7xx_hal_tim.c 0x00000000   Number         0  stm32h7xx_hal_tim.o ABSOLUTE
    ..\Drivers\STM32H7xx_HAL_Driver\Src\stm32h7xx_hal_tim_ex.c 0x00000000   Number         0  stm32h7xx_hal_tim_ex.o ABSOLUTE
    ..\Drivers\STM32H7xx_HAL_Driver\Src\stm32h7xx_hal_uart.c 0x00000000   Number         0  stm32h7xx_hal_uart.o ABSOLUTE
    ..\Drivers\STM32H7xx_HAL_Driver\Src\stm32h7xx_hal_uart_ex.c 0x00000000   Number         0  stm32h7xx_hal_uart_ex.o ABSOLUTE
    ..\Drivers\STM32H7xx_HAL_Driver\Src\stm32h7xx_hal_usart.c 0x00000000   Number         0  stm32h7xx_hal_usart.o ABSOLUTE
    ..\Drivers\STM32H7xx_HAL_Driver\Src\stm32h7xx_hal_usart_ex.c 0x00000000   Number         0  stm32h7xx_hal_usart_ex.o ABSOLUTE
    ..\Drivers\STM32H7xx_HAL_Driver\Src\stm32h7xx_ll_spi.c 0x00000000   Number         0  stm32h7xx_ll_spi.o ABSOLUTE
    ..\Drivers\STM32H7xx_HAL_Driver\Src\stm32h7xx_ll_usart.c 0x00000000   Number         0  stm32h7xx_ll_usart.o ABSOLUTE
    ..\Drivers\SYSTEM\MPU\mpu.c              0x00000000   Number         0  mpu.o ABSOLUTE
    ..\Drivers\SYSTEM\delay\delay.c          0x00000000   Number         0  delay.o ABSOLUTE
    ..\Drivers\SYSTEM\spi\spi.c              0x00000000   Number         0  spi.o ABSOLUTE
    ..\Drivers\SYSTEM\sys\sys.c              0x00000000   Number         0  sys.o ABSOLUTE
    ..\Drivers\SYSTEM\usart\usart.c          0x00000000   Number         0  usart.o ABSOLUTE
    ..\Middlewares\FreeRTOS\croutine.c       0x00000000   Number         0  croutine.o ABSOLUTE
    ..\Middlewares\FreeRTOS\event_groups.c   0x00000000   Number         0  event_groups.o ABSOLUTE
    ..\Middlewares\FreeRTOS\list.c           0x00000000   Number         0  list.o ABSOLUTE
    ..\Middlewares\FreeRTOS\portable\MemMang\heap_4.c 0x00000000   Number         0  heap_4.o ABSOLUTE
    ..\Middlewares\FreeRTOS\portable\RVDS\ARM_CM7\r0p1\port.c 0x00000000   Number         0  port.o ABSOLUTE
    ..\Middlewares\FreeRTOS\queue.c          0x00000000   Number         0  queue.o ABSOLUTE
    ..\Middlewares\FreeRTOS\stream_buffer.c  0x00000000   Number         0  stream_buffer.o ABSOLUTE
    ..\Middlewares\FreeRTOS\tasks.c          0x00000000   Number         0  tasks.o ABSOLUTE
    ..\Middlewares\FreeRTOS\timers.c         0x00000000   Number         0  timers.o ABSOLUTE
    ..\Middlewares\SeqQueue\SeqQueue.c       0x00000000   Number         0  seqqueue.o ABSOLUTE
    ..\X-CUBE-AI\App\app_x-cube-ai.c         0x00000000   Number         0  app_x-cube-ai.o ABSOLUTE
    ..\X-CUBE-AI\ECG_RUN\ecg_run.c           0x00000000   Number         0  ecg_run.o ABSOLUTE
    ..\\..\\..\\src\\api\\ai_platform_interface.c 0x00000000   Number         0  ai_platform_interface.o ABSOLUTE
    ..\\..\\..\\src\\core\\core_utils.c      0x00000000   Number         0  core_utils.o ABSOLUTE
    ..\\..\\..\\src\\helpers\\ai_math_helpers.c 0x00000000   Number         0  ai_math_helpers.o ABSOLUTE
    ..\\..\\..\\src\\layers\\layers.c        0x00000000   Number         0  layers.o ABSOLUTE
    ..\\..\\..\\src\\layers\\layers_conv2d_generic_float.c 0x00000000   Number         0  layers_conv2d_generic_float.o ABSOLUTE
    ..\\..\\..\\src\\layers\\layers_conv2d_stm32_integer.c 0x00000000   Number         0  layers_conv2d_stm32_integer.o ABSOLUTE
    ..\\..\\..\\src\\layers\\layers_nl_generic_float.c 0x00000000   Number         0  layers_nl_generic_float.o ABSOLUTE
    ..\\..\\..\\src\\layers\\layers_norm_generic_float.c 0x00000000   Number         0  layers_norm_generic_float.o ABSOLUTE
    ..\\..\\Drivers\\CMSIS\\DSP\\Source\\MatrixFunctions\\arm_mat_init_f32.c 0x00000000   Number         0  arm_mat_init_f32.o ABSOLUTE
    ..\\..\\Drivers\\CMSIS\\DSP\\Source\\SupportFunctions\\arm_copy_q7.c 0x00000000   Number         0  arm_copy_q7.o ABSOLUTE
    ..\\..\\Drivers\\CMSIS\\DSP\\Source\\SupportFunctions\\arm_fill_q15.c 0x00000000   Number         0  arm_fill_q15.o ABSOLUTE
    ..\\..\\Drivers\\ST_CMSIS\\NN\\Source\\ConvolutionFunctions\\st_convolve_reference.c 0x00000000   Number         0  st_convolve_reference.o ABSOLUTE
    ..\\..\\Drivers\\ST_CMSIS\\NN\\Source\\ConvolutionFunctions\\st_sssa8_ch_convolve.c 0x00000000   Number         0  st_sssa8_ch_convolve.o ABSOLUTE
    ..\\..\\Drivers\\ST_CMSIS\\NN\\Source\\ConvolutionFunctions\\st_sssa8_convolve.c 0x00000000   Number         0  st_sssa8_convolve.o ABSOLUTE
    ..\\..\\Drivers\\ST_CMSIS\\NN\\Source\\ConvolutionFunctions\\st_sssa8_convolve_1x1.c 0x00000000   Number         0  st_sssa8_convolve_1x1.o ABSOLUTE
    ..\\..\\Drivers\\ST_CMSIS\\NN\\Source\\ConvolutionFunctions\\st_sssa8_convolve_dw.c 0x00000000   Number         0  st_sssa8_convolve_dw.o ABSOLUTE
    ..\\..\\Drivers\\ST_CMSIS\\NN\\Source\\ConvolutionFunctions\\st_sssa8_convolve_rgb.c 0x00000000   Number         0  st_sssa8_convolve_rgb.o ABSOLUTE
    ..\\..\\Drivers\\ST_CMSIS\\NN\\Source\\ConvolutionFunctions\\st_ssua8_ch_convolve.c 0x00000000   Number         0  st_ssua8_ch_convolve.o ABSOLUTE
    ..\\..\\Drivers\\ST_CMSIS\\NN\\Source\\ConvolutionFunctions\\st_ssua8_ch_convolve_1x1.c 0x00000000   Number         0  st_ssua8_ch_convolve_1x1.o ABSOLUTE
    ..\\..\\Drivers\\ST_CMSIS\\NN\\Source\\ConvolutionFunctions\\st_ssua8_ch_convolve_dw.c 0x00000000   Number         0  st_ssua8_ch_convolve_dw.o ABSOLUTE
    ..\\..\\Drivers\\ST_CMSIS\\NN\\Source\\ConvolutionFunctions\\st_ssua8_ch_convolve_rgb.c 0x00000000   Number         0  st_ssua8_ch_convolve_rgb.o ABSOLUTE
    ..\\..\\Drivers\\ST_CMSIS\\NN\\Source\\ConvolutionFunctions\\st_ssua8_convolve.c 0x00000000   Number         0  st_ssua8_convolve.o ABSOLUTE
    ..\\..\\Drivers\\ST_CMSIS\\NN\\Source\\ConvolutionFunctions\\st_ssua8_convolve_1x1.c 0x00000000   Number         0  st_ssua8_convolve_1x1.o ABSOLUTE
    ..\\..\\Drivers\\ST_CMSIS\\NN\\Source\\ConvolutionFunctions\\st_ssua8_convolve_dw.c 0x00000000   Number         0  st_ssua8_convolve_dw.o ABSOLUTE
    ..\\..\\Drivers\\ST_CMSIS\\NN\\Source\\ConvolutionFunctions\\st_ssua8_convolve_rgb.c 0x00000000   Number         0  st_ssua8_convolve_rgb.o ABSOLUTE
    ..\\..\\Drivers\\ST_CMSIS\\NN\\Source\\ConvolutionFunctions\\st_uaua8_ch_convolve.c 0x00000000   Number         0  st_uaua8_ch_convolve.o ABSOLUTE
    ..\\..\\Drivers\\ST_CMSIS\\NN\\Source\\ConvolutionFunctions\\st_uaua8_ch_convolve_1x1.c 0x00000000   Number         0  st_uaua8_ch_convolve_1x1.o ABSOLUTE
    ..\\..\\Drivers\\ST_CMSIS\\NN\\Source\\ConvolutionFunctions\\st_uaua8_ch_convolve_dw.c 0x00000000   Number         0  st_uaua8_ch_convolve_dw.o ABSOLUTE
    ..\\..\\Drivers\\ST_CMSIS\\NN\\Source\\ConvolutionFunctions\\st_uaua8_ch_convolve_rgb.c 0x00000000   Number         0  st_uaua8_ch_convolve_rgb.o ABSOLUTE
    ..\\..\\Drivers\\ST_CMSIS\\NN\\Source\\ConvolutionFunctions\\st_uaua8_convolve.c 0x00000000   Number         0  st_uaua8_convolve.o ABSOLUTE
    ..\\..\\Drivers\\ST_CMSIS\\NN\\Source\\ConvolutionFunctions\\st_uaua8_convolve_1x1.c 0x00000000   Number         0  st_uaua8_convolve_1x1.o ABSOLUTE
    ..\\..\\Drivers\\ST_CMSIS\\NN\\Source\\ConvolutionFunctions\\st_uaua8_convolve_dw.c 0x00000000   Number         0  st_uaua8_convolve_dw.o ABSOLUTE
    ..\\..\\Drivers\\ST_CMSIS\\NN\\Source\\ConvolutionFunctions\\st_uaua8_convolve_rgb.c 0x00000000   Number         0  st_uaua8_convolve_rgb.o ABSOLUTE
    ..\\..\\Drivers\\ST_CMSIS\\NN\\Source\\FullyConnectedFunctions\\st_sssa8_ch_dense.c 0x00000000   Number         0  st_sssa8_ch_dense.o ABSOLUTE
    ..\\..\\Drivers\\ST_CMSIS\\NN\\Source\\FullyConnectedFunctions\\st_sssa8_dense.c 0x00000000   Number         0  st_sssa8_dense.o ABSOLUTE
    ..\\..\\Drivers\\ST_CMSIS\\NN\\Source\\FullyConnectedFunctions\\st_ssua8_ch_dense.c 0x00000000   Number         0  st_ssua8_ch_dense.o ABSOLUTE
    ..\\..\\Drivers\\ST_CMSIS\\NN\\Source\\FullyConnectedFunctions\\st_ssua8_dense.c 0x00000000   Number         0  st_ssua8_dense.o ABSOLUTE
    ..\\..\\Drivers\\ST_CMSIS\\NN\\Source\\FullyConnectedFunctions\\st_uaua8_ch_dense.c 0x00000000   Number         0  st_uaua8_ch_dense.o ABSOLUTE
    ..\\..\\Drivers\\ST_CMSIS\\NN\\Source\\FullyConnectedFunctions\\st_uaua8_dense.c 0x00000000   Number         0  st_uaua8_dense.o ABSOLUTE
    ..\\..\\Drivers\\ST_CMSIS\\NN\\Source\\NNSupportFunctions\\st_int8_fill.c 0x00000000   Number         0  st_int8_fill.o ABSOLUTE
    ..\\..\\Drivers\\ST_CMSIS\\NN\\Source\\NNSupportFunctions\\st_int8_reordered_no_shift.c 0x00000000   Number         0  st_int8_reordered_no_shift.o ABSOLUTE
    ..\\..\\Drivers\\ST_CMSIS\\NN\\Source\\NNSupportFunctions\\st_int8_to16_no_shift.c 0x00000000   Number         0  st_int8_to16_no_shift.o ABSOLUTE
    ..\\..\\Drivers\\ST_CMSIS\\NN\\Source\\NNSupportFunctions\\st_padding_opt.c 0x00000000   Number         0  st_padding_opt.o ABSOLUTE
    ..\\..\\Drivers\\ST_CMSIS\\NN\\Source\\NNSupportFunctions\\st_sssa8_ch_nn_mat_mult_kernel_opt.c 0x00000000   Number         0  st_sssa8_ch_nn_mat_mult_kernel_opt.o ABSOLUTE
    ..\\..\\Drivers\\ST_CMSIS\\NN\\Source\\NNSupportFunctions\\st_sssa8_ch_nn_mat_mult_nt_t.c 0x00000000   Number         0  st_sssa8_ch_nn_mat_mult_nt_t.o ABSOLUTE
    ..\\..\\Drivers\\ST_CMSIS\\NN\\Source\\NNSupportFunctions\\st_sssa8_nn_mat_mult_kernel.c 0x00000000   Number         0  st_sssa8_nn_mat_mult_kernel.o ABSOLUTE
    ..\\..\\Drivers\\ST_CMSIS\\NN\\Source\\NNSupportFunctions\\st_sssa8_nn_mat_mult_kernel_opt.c 0x00000000   Number         0  st_sssa8_nn_mat_mult_kernel_opt.o ABSOLUTE
    ..\\..\\Drivers\\ST_CMSIS\\NN\\Source\\NNSupportFunctions\\st_sssa8_nn_mat_mult_nt_t.c 0x00000000   Number         0  st_sssa8_nn_mat_mult_nt_t.o ABSOLUTE
    ..\\..\\Drivers\\ST_CMSIS\\NN\\Source\\NNSupportFunctions\\st_ssua8_ch_nn_mat_mult_kernel.c 0x00000000   Number         0  st_ssua8_ch_nn_mat_mult_kernel.o ABSOLUTE
    ..\\..\\Drivers\\ST_CMSIS\\NN\\Source\\NNSupportFunctions\\st_ssua8_ch_nn_mat_mult_nt_t.c 0x00000000   Number         0  st_ssua8_ch_nn_mat_mult_nt_t.o ABSOLUTE
    ..\\..\\Drivers\\ST_CMSIS\\NN\\Source\\NNSupportFunctions\\st_ssua8_nn_mat_mult_kernel.c 0x00000000   Number         0  st_ssua8_nn_mat_mult_kernel.o ABSOLUTE
    ..\\..\\Drivers\\ST_CMSIS\\NN\\Source\\NNSupportFunctions\\st_ssua8_nn_mat_mult_nt_t.c 0x00000000   Number         0  st_ssua8_nn_mat_mult_nt_t.o ABSOLUTE
    ..\\..\\Drivers\\ST_CMSIS\\NN\\Source\\NNSupportFunctions\\st_uaua8_ch_nn_mat_mult_kernel.c 0x00000000   Number         0  st_uaua8_ch_nn_mat_mult_kernel.o ABSOLUTE
    ..\\..\\Drivers\\ST_CMSIS\\NN\\Source\\NNSupportFunctions\\st_uaua8_ch_nn_mat_mult_nt_t.c 0x00000000   Number         0  st_uaua8_ch_nn_mat_mult_nt_t.o ABSOLUTE
    ..\\..\\Drivers\\ST_CMSIS\\NN\\Source\\NNSupportFunctions\\st_uaua8_nn_mat_mult_kernel.c 0x00000000   Number         0  st_uaua8_nn_mat_mult_kernel.o ABSOLUTE
    ..\\..\\Drivers\\ST_CMSIS\\NN\\Source\\NNSupportFunctions\\st_uaua8_nn_mat_mult_nt_t.c 0x00000000   Number         0  st_uaua8_nn_mat_mult_nt_t.o ABSOLUTE
    ..\\..\\Drivers\\ST_CMSIS\\NN\\Source\\NNSupportFunctions\\st_uint8_fill.c 0x00000000   Number         0  st_uint8_fill.o ABSOLUTE
    ..\\..\\Drivers\\ST_CMSIS\\NN\\Source\\NNSupportFunctions\\st_uint8_reordered_no_shift.c 0x00000000   Number         0  st_uint8_reordered_no_shift.o ABSOLUTE
    ..\\..\\Drivers\\ST_CMSIS\\NN\\Source\\NNSupportFunctions\\st_uint8_to16_no_shift.c 0x00000000   Number         0  st_uint8_to16_no_shift.o ABSOLUTE
    ..\\DEMO\\freertos_demo.c                0x00000000   Number         0  freertos_demo.o ABSOLUTE
    ..\\Data_Processing\\Data_Processing.c   0x00000000   Number         0  data_processing.o ABSOLUTE
    ..\\Drivers\\BSP\\LED\\led.c             0x00000000   Number         0  led.o ABSOLUTE
    ..\\Drivers\\BSP\\ads1292\\ads1292.c     0x00000000   Number         0  ads1292.o ABSOLUTE
    ..\\Drivers\\BSP\\hc05\\hc05.c           0x00000000   Number         0  hc05.o ABSOLUTE
    ..\\Drivers\\STM32H7xx_HAL_Driver\\Src\\stm32h7xx_hal_dma2d.c 0x00000000   Number         0  stm32h7xx_hal_dma2d.o ABSOLUTE
    ..\\Drivers\\STM32H7xx_HAL_Driver\\Src\\stm32h7xx_hal_ospi.c 0x00000000   Number         0  stm32h7xx_hal_ospi.o ABSOLUTE
    ..\\Drivers\\STM32H7xx_HAL_Driver\\Src\\stm32h7xx_hal_spdifrx.c 0x00000000   Number         0  stm32h7xx_hal_spdifrx.o ABSOLUTE
    ..\\Drivers\\STM32H7xx_HAL_Driver\\Src\\stm32h7xx_hal_spi.c 0x00000000   Number         0  stm32h7xx_hal_spi.o ABSOLUTE
    ..\\Drivers\\STM32H7xx_HAL_Driver\\Src\\stm32h7xx_hal_spi_ex.c 0x00000000   Number         0  stm32h7xx_hal_spi_ex.o ABSOLUTE
    ..\\Drivers\\STM32H7xx_HAL_Driver\\Src\\stm32h7xx_hal_uart.c 0x00000000   Number         0  stm32h7xx_hal_uart.o ABSOLUTE
    ..\\Drivers\\STM32H7xx_HAL_Driver\\Src\\stm32h7xx_hal_uart_ex.c 0x00000000   Number         0  stm32h7xx_hal_uart_ex.o ABSOLUTE
    ..\\Drivers\\STM32H7xx_HAL_Driver\\Src\\stm32h7xx_hal_usart.c 0x00000000   Number         0  stm32h7xx_hal_usart.o ABSOLUTE
    ..\\Drivers\\STM32H7xx_HAL_Driver\\Src\\stm32h7xx_hal_usart_ex.c 0x00000000   Number         0  stm32h7xx_hal_usart_ex.o ABSOLUTE
    ..\\Drivers\\SYSTEM\\MPU\\mpu.c          0x00000000   Number         0  mpu.o ABSOLUTE
    ..\\Drivers\\SYSTEM\\delay\\delay.c      0x00000000   Number         0  delay.o ABSOLUTE
    ..\\Drivers\\SYSTEM\\spi\\spi.c          0x00000000   Number         0  spi.o ABSOLUTE
    ..\\Drivers\\SYSTEM\\sys\\sys.c          0x00000000   Number         0  sys.o ABSOLUTE
    ..\\Drivers\\SYSTEM\\usart\\usart.c      0x00000000   Number         0  usart.o ABSOLUTE
    ..\\Middlewares\\FreeRTOS\\croutine.c    0x00000000   Number         0  croutine.o ABSOLUTE
    ..\\Middlewares\\FreeRTOS\\event_groups.c 0x00000000   Number         0  event_groups.o ABSOLUTE
    ..\\Middlewares\\FreeRTOS\\list.c        0x00000000   Number         0  list.o ABSOLUTE
    ..\\Middlewares\\FreeRTOS\\portable\\MemMang\\heap_4.c 0x00000000   Number         0  heap_4.o ABSOLUTE
    ..\\Middlewares\\FreeRTOS\\portable\\RVDS\\ARM_CM7\\r0p1\\port.c 0x00000000   Number         0  port.o ABSOLUTE
    ..\\Middlewares\\FreeRTOS\\queue.c       0x00000000   Number         0  queue.o ABSOLUTE
    ..\\Middlewares\\FreeRTOS\\stream_buffer.c 0x00000000   Number         0  stream_buffer.o ABSOLUTE
    ..\\Middlewares\\FreeRTOS\\tasks.c       0x00000000   Number         0  tasks.o ABSOLUTE
    ..\\Middlewares\\FreeRTOS\\timers.c      0x00000000   Number         0  timers.o ABSOLUTE
    ..\\Middlewares\\SeqQueue\\SeqQueue.c    0x00000000   Number         0  seqqueue.o ABSOLUTE
    ..\\X-CUBE-AI\\ECG_RUN\\ecg_run.c        0x00000000   Number         0  ecg_run.o ABSOLUTE
    arm_fir_f32.c                            0x00000000   Number         0  arm_fir_f32.o ABSOLUTE
    arm_fir_init_f32.c                       0x00000000   Number         0  arm_fir_init_f32.o ABSOLUTE
    dc.s                                     0x00000000   Number         0  dc.o ABSOLUTE
    startup_stm32h743xx.s                    0x00000000   Number         0  startup_stm32h743xx.o ABSOLUTE
    RESET                                    0x08000000   Section      664  startup_stm32h743xx.o(RESET)
    !!!main                                  0x08000298   Section        8  __main.o(!!!main)
    !!!scatter                               0x080002a0   Section       52  __scatter.o(!!!scatter)
    !!dczerorl2                              0x080002d4   Section       90  __dczerorl2.o(!!dczerorl2)
    !!handler_zi                             0x08000330   Section       28  __scatter_zi.o(!!handler_zi)
    .ARM.Collect$$_printf_percent$$00000000  0x0800034c   Section        0  _printf_percent.o(.ARM.Collect$$_printf_percent$$00000000)
    .ARM.Collect$$_printf_percent$$00000003  0x0800034c   Section        6  _printf_f.o(.ARM.Collect$$_printf_percent$$00000003)
    .ARM.Collect$$_printf_percent$$00000009  0x08000352   Section        6  _printf_d.o(.ARM.Collect$$_printf_percent$$00000009)
    .ARM.Collect$$_printf_percent$$0000000C  0x08000358   Section        6  _printf_x.o(.ARM.Collect$$_printf_percent$$0000000C)
    .ARM.Collect$$_printf_percent$$00000013  0x0800035e   Section        6  _printf_c.o(.ARM.Collect$$_printf_percent$$00000013)
    .ARM.Collect$$_printf_percent$$00000014  0x08000364   Section        6  _printf_s.o(.ARM.Collect$$_printf_percent$$00000014)
    .ARM.Collect$$_printf_percent$$00000017  0x0800036a   Section        4  _printf_percent_end.o(.ARM.Collect$$_printf_percent$$00000017)
    .ARM.Collect$$libinit$$00000000          0x0800036e   Section        2  libinit.o(.ARM.Collect$$libinit$$00000000)
    .ARM.Collect$$libinit$$00000001          0x08000370   Section        4  libinit2.o(.ARM.Collect$$libinit$$00000001)
    .ARM.Collect$$libinit$$00000004          0x08000374   Section        0  libinit2.o(.ARM.Collect$$libinit$$00000004)
    .ARM.Collect$$libinit$$00000005          0x08000374   Section        8  libinit2.o(.ARM.Collect$$libinit$$00000005)
    .ARM.Collect$$libinit$$0000000A          0x0800037c   Section        0  libinit2.o(.ARM.Collect$$libinit$$0000000A)
    .ARM.Collect$$libinit$$0000000C          0x0800037c   Section        0  libinit2.o(.ARM.Collect$$libinit$$0000000C)
    .ARM.Collect$$libinit$$0000000E          0x0800037c   Section        0  libinit2.o(.ARM.Collect$$libinit$$0000000E)
    .ARM.Collect$$libinit$$0000000F          0x0800037c   Section        6  libinit2.o(.ARM.Collect$$libinit$$0000000F)
    .ARM.Collect$$libinit$$00000011          0x08000382   Section        0  libinit2.o(.ARM.Collect$$libinit$$00000011)
    .ARM.Collect$$libinit$$00000013          0x08000382   Section        0  libinit2.o(.ARM.Collect$$libinit$$00000013)
    .ARM.Collect$$libinit$$00000015          0x08000382   Section        0  libinit2.o(.ARM.Collect$$libinit$$00000015)
    .ARM.Collect$$libinit$$00000016          0x08000382   Section       10  libinit2.o(.ARM.Collect$$libinit$$00000016)
    .ARM.Collect$$libinit$$00000017          0x0800038c   Section        0  libinit2.o(.ARM.Collect$$libinit$$00000017)
    .ARM.Collect$$libinit$$00000019          0x0800038c   Section        0  libinit2.o(.ARM.Collect$$libinit$$00000019)
    .ARM.Collect$$libinit$$0000001B          0x0800038c   Section        0  libinit2.o(.ARM.Collect$$libinit$$0000001B)
    .ARM.Collect$$libinit$$0000001D          0x0800038c   Section        0  libinit2.o(.ARM.Collect$$libinit$$0000001D)
    .ARM.Collect$$libinit$$0000001F          0x0800038c   Section        0  libinit2.o(.ARM.Collect$$libinit$$0000001F)
    .ARM.Collect$$libinit$$00000021          0x0800038c   Section        0  libinit2.o(.ARM.Collect$$libinit$$00000021)
    .ARM.Collect$$libinit$$00000023          0x0800038c   Section        0  libinit2.o(.ARM.Collect$$libinit$$00000023)
    .ARM.Collect$$libinit$$00000025          0x0800038c   Section        0  libinit2.o(.ARM.Collect$$libinit$$00000025)
    .ARM.Collect$$libinit$$0000002C          0x0800038c   Section        0  libinit2.o(.ARM.Collect$$libinit$$0000002C)
    .ARM.Collect$$libinit$$0000002E          0x0800038c   Section        0  libinit2.o(.ARM.Collect$$libinit$$0000002E)
    .ARM.Collect$$libinit$$00000030          0x0800038c   Section        0  libinit2.o(.ARM.Collect$$libinit$$00000030)
    .ARM.Collect$$libinit$$00000032          0x0800038c   Section        0  libinit2.o(.ARM.Collect$$libinit$$00000032)
    .ARM.Collect$$libinit$$00000033          0x0800038c   Section        2  libinit2.o(.ARM.Collect$$libinit$$00000033)
    .ARM.Collect$$libshutdown$$00000000      0x0800038e   Section        2  libshutdown.o(.ARM.Collect$$libshutdown$$00000000)
    .ARM.Collect$$libshutdown$$00000002      0x08000390   Section        0  libshutdown2.o(.ARM.Collect$$libshutdown$$00000002)
    .ARM.Collect$$libshutdown$$00000004      0x08000390   Section        0  libshutdown2.o(.ARM.Collect$$libshutdown$$00000004)
    .ARM.Collect$$libshutdown$$00000007      0x08000390   Section        0  libshutdown2.o(.ARM.Collect$$libshutdown$$00000007)
    .ARM.Collect$$libshutdown$$0000000A      0x08000390   Section        0  libshutdown2.o(.ARM.Collect$$libshutdown$$0000000A)
    .ARM.Collect$$libshutdown$$0000000C      0x08000390   Section        0  libshutdown2.o(.ARM.Collect$$libshutdown$$0000000C)
    .ARM.Collect$$libshutdown$$0000000F      0x08000390   Section        0  libshutdown2.o(.ARM.Collect$$libshutdown$$0000000F)
    .ARM.Collect$$libshutdown$$00000010      0x08000390   Section        2  libshutdown2.o(.ARM.Collect$$libshutdown$$00000010)
    .ARM.Collect$$rtentry$$00000000          0x08000392   Section        0  __rtentry.o(.ARM.Collect$$rtentry$$00000000)
    .ARM.Collect$$rtentry$$00000002          0x08000392   Section        0  __rtentry2.o(.ARM.Collect$$rtentry$$00000002)
    .ARM.Collect$$rtentry$$00000004          0x08000392   Section        6  __rtentry4.o(.ARM.Collect$$rtentry$$00000004)
    .ARM.Collect$$rtentry$$00000009          0x08000398   Section        0  __rtentry2.o(.ARM.Collect$$rtentry$$00000009)
    .ARM.Collect$$rtentry$$0000000A          0x08000398   Section        4  __rtentry2.o(.ARM.Collect$$rtentry$$0000000A)
    .ARM.Collect$$rtentry$$0000000C          0x0800039c   Section        0  __rtentry2.o(.ARM.Collect$$rtentry$$0000000C)
    .ARM.Collect$$rtentry$$0000000D          0x0800039c   Section        8  __rtentry2.o(.ARM.Collect$$rtentry$$0000000D)
    .ARM.Collect$$rtexit$$00000000           0x080003a4   Section        2  rtexit.o(.ARM.Collect$$rtexit$$00000000)
    .ARM.Collect$$rtexit$$00000002           0x080003a6   Section        0  rtexit2.o(.ARM.Collect$$rtexit$$00000002)
    .ARM.Collect$$rtexit$$00000003           0x080003a6   Section        4  rtexit2.o(.ARM.Collect$$rtexit$$00000003)
    .ARM.Collect$$rtexit$$00000004           0x080003aa   Section        6  rtexit2.o(.ARM.Collect$$rtexit$$00000004)
    .emb_text                                0x080003b0   Section      194  port.o(.emb_text)
    $v0                                      0x080003b0   Number         0  port.o(.emb_text)
    .emb_text                                0x08000474   Section        0  maybetermalloc1.o(.emb_text)
    .text                                    0x08000474   Section       64  startup_stm32h743xx.o(.text)
    $v0                                      0x08000474   Number         0  startup_stm32h743xx.o(.text)
    .text                                    0x080004b4   Section        2  use_no_semi_2.o(.text)
    .text                                    0x080004b6   Section        0  h1_alloc.o(.text)
    .text                                    0x08000514   Section        0  h1_free.o(.text)
    .text                                    0x08000562   Section      238  lludivv7m.o(.text)
    .text                                    0x08000650   Section        0  noretval__2printf.o(.text)
    .text                                    0x08000668   Section        0  noretval__2sprintf.o(.text)
    .text                                    0x08000690   Section        0  _printf_pad.o(.text)
    .text                                    0x080006de   Section        0  _printf_str.o(.text)
    .text                                    0x08000730   Section        0  _printf_dec.o(.text)
    .text                                    0x080007a8   Section        0  _printf_hex_int.o(.text)
    .text                                    0x08000800   Section        0  __printf_flags_wp.o(.text)
    .text                                    0x08000938   Section        0  memcmp.o(.text)
    .text                                    0x08000990   Section        0  strlen.o(.text)
    .text                                    0x080009ce   Section      138  rt_memcpy_v6.o(.text)
    .text                                    0x08000a58   Section      100  rt_memcpy_w.o(.text)
    .text                                    0x08000abc   Section       16  aeabi_memset.o(.text)
    .text                                    0x08000acc   Section       78  rt_memclr_w.o(.text)
    .text                                    0x08000b1a   Section        0  heapauxi.o(.text)
    .text                                    0x08000b20   Section        2  use_no_semi.o(.text)
    .text                                    0x08000b24   Section        8  rt_heap_descriptor_intlibspace.o(.text)
    .text                                    0x08000b2c   Section        0  hguard.o(.text)
    .text                                    0x08000b30   Section        0  init_alloc.o(.text)
    .text                                    0x08000bba   Section        0  h1_init.o(.text)
    .text                                    0x08000bc8   Section        0  _rserrno.o(.text)
    .text                                    0x08000bde   Section        0  _printf_intcommon.o(.text)
    .text                                    0x08000c90   Section        0  _printf_fp_dec.o(.text)
    _fp_digits                               0x08000c93   Thumb Code   432  _printf_fp_dec.o(.text)
    .text                                    0x080010b0   Section        0  _printf_char_common.o(.text)
    _printf_input_char                       0x080010b1   Thumb Code    10  _printf_char_common.o(.text)
    .text                                    0x080010e0   Section        0  _sputc.o(.text)
    .text                                    0x080010ea   Section        0  _printf_char.o(.text)
    .text                                    0x08001118   Section        0  _printf_char_file.o(.text)
    .text                                    0x0800113c   Section       68  rt_memclr.o(.text)
    .text                                    0x08001180   Section        8  libspace.o(.text)
    .text                                    0x08001188   Section        8  rt_locale_intlibspace.o(.text)
    .text                                    0x08001190   Section        8  rt_errno_addr_intlibspace.o(.text)
    .text                                    0x08001198   Section        0  h1_extend.o(.text)
    .text                                    0x080011cc   Section      138  lludiv10.o(.text)
    .text                                    0x08001258   Section        0  _printf_fp_infnan.o(.text)
    .text                                    0x080012d8   Section        0  bigflt0.o(.text)
    .text                                    0x080013bc   Section        0  ferror.o(.text)
    .text                                    0x080013c4   Section        0  defsig_rtmem_outer.o(.text)
    .text                                    0x080013d2   Section       74  sys_stackheap_outer.o(.text)
    .text                                    0x0800141c   Section        0  exit.o(.text)
    .text                                    0x0800142e   Section        0  defsig_exit.o(.text)
    .text                                    0x08001438   Section        0  defsig_rtmem_inner.o(.text)
    .text                                    0x08001488   Section      104  strcmpv7m_pel.o(.text)
    .text                                    0x080014f0   Section        0  defsig_general.o(.text)
    [Anonymous Symbol]                       0x08001524   Section        0  arm_fir_f32.o(.text.arm_fir_f32)
    [Anonymous Symbol]                       0x080018c4   Section        0  arm_fir_init_f32.o(.text.arm_fir_init_f32)
    CL$$btod_d2e                             0x080018e8   Section       62  btod.o(CL$$btod_d2e)
    CL$$btod_d2e_denorm_low                  0x08001926   Section       70  btod.o(CL$$btod_d2e_denorm_low)
    CL$$btod_d2e_norm_op1                    0x0800196c   Section       96  btod.o(CL$$btod_d2e_norm_op1)
    CL$$btod_div_common                      0x080019cc   Section      824  btod.o(CL$$btod_div_common)
    CL$$btod_e2e                             0x08001d04   Section      220  btod.o(CL$$btod_e2e)
    CL$$btod_ediv                            0x08001de0   Section       42  btod.o(CL$$btod_ediv)
    CL$$btod_emul                            0x08001e0a   Section       42  btod.o(CL$$btod_emul)
    CL$$btod_mult_common                     0x08001e34   Section      580  btod.o(CL$$btod_mult_common)
    i.ADS1292_Init                           0x08002078   Section        0  ads1292.o(i.ADS1292_Init)
    i.ADS1292_PowerOnInit                    0x08002138   Section        0  ads1292.o(i.ADS1292_PowerOnInit)
    i.ADS1292_Read_Data                      0x08002388   Section        0  ads1292.o(i.ADS1292_Read_Data)
    i.ADS1292_Read_Reg                       0x080023e8   Section        0  ads1292.o(i.ADS1292_Read_Reg)
    i.ADS1292_Write_Reg                      0x08002430   Section        0  ads1292.o(i.ADS1292_Write_Reg)
    i.BusFault_Handler                       0x08002478   Section        0  stm32h7xx_it.o(i.BusFault_Handler)
    i.CRC_Is_Enabled                         0x0800247c   Section        0  ai_platform_interface.o(i.CRC_Is_Enabled)
    CRC_Is_Enabled                           0x0800247d   Thumb Code   232  ai_platform_interface.o(i.CRC_Is_Enabled)
    i.CRC_Lock                               0x08002574   Section        0  ai_platform_interface.o(i.CRC_Lock)
    CRC_Lock                                 0x08002575   Thumb Code   224  ai_platform_interface.o(i.CRC_Lock)
    i.DMA2_Stream2_IRQHandler                0x0800266c   Section        0  spi.o(i.DMA2_Stream2_IRQHandler)
    i.DMA2_Stream3_IRQHandler                0x08002678   Section        0  spi.o(i.DMA2_Stream3_IRQHandler)
    i.DMA_CalcBaseAndBitshift                0x08002684   Section        0  stm32h7xx_hal_dma.o(i.DMA_CalcBaseAndBitshift)
    DMA_CalcBaseAndBitshift                  0x08002685   Thumb Code   168  stm32h7xx_hal_dma.o(i.DMA_CalcBaseAndBitshift)
    i.DMA_CalcDMAMUXChannelBaseAndMask       0x08002738   Section        0  stm32h7xx_hal_dma.o(i.DMA_CalcDMAMUXChannelBaseAndMask)
    DMA_CalcDMAMUXChannelBaseAndMask         0x08002739   Thumb Code   138  stm32h7xx_hal_dma.o(i.DMA_CalcDMAMUXChannelBaseAndMask)
    i.DMA_CalcDMAMUXRequestGenBaseAndMask    0x080027d4   Section        0  stm32h7xx_hal_dma.o(i.DMA_CalcDMAMUXRequestGenBaseAndMask)
    DMA_CalcDMAMUXRequestGenBaseAndMask      0x080027d5   Thumb Code   104  stm32h7xx_hal_dma.o(i.DMA_CalcDMAMUXRequestGenBaseAndMask)
    i.DMA_CheckFifoParam                     0x08002848   Section        0  stm32h7xx_hal_dma.o(i.DMA_CheckFifoParam)
    DMA_CheckFifoParam                       0x08002849   Thumb Code    84  stm32h7xx_hal_dma.o(i.DMA_CheckFifoParam)
    i.DMA_Init                               0x0800289c   Section        0  spi.o(i.DMA_Init)
    i.DMA_SetConfig                          0x0800298c   Section        0  stm32h7xx_hal_dma.o(i.DMA_SetConfig)
    DMA_SetConfig                            0x0800298d   Thumb Code   518  stm32h7xx_hal_dma.o(i.DMA_SetConfig)
    i.DMA_getdata                            0x08002bac   Section        0  spi.o(i.DMA_getdata)
    i.DebugMon_Handler                       0x08002bc0   Section        0  stm32h7xx_it.o(i.DebugMon_Handler)
    i.EXTI9_5_IRQHandler                     0x08002bc2   Section        0  ads1292.o(i.EXTI9_5_IRQHandler)
    i.FIR_5HZ_40HZ_Init                      0x08002bd8   Section        0  data_processing.o(i.FIR_5HZ_40HZ_Init)
    i.FIR_5HZ_40HZ_Run                       0x08002bfc   Section        0  data_processing.o(i.FIR_5HZ_40HZ_Run)
    i.HAL_CRCEx_Polynomial_Set               0x08002c14   Section        0  stm32h7xx_hal_crc_ex.o(i.HAL_CRCEx_Polynomial_Set)
    i.HAL_CRC_Init                           0x08002c64   Section        0  stm32h7xx_hal_crc.o(i.HAL_CRC_Init)
    i.HAL_CRC_MspInit                        0x08002cdc   Section        0  crc.o(i.HAL_CRC_MspInit)
    i.HAL_DMA_Abort                          0x08002d04   Section        0  stm32h7xx_hal_dma.o(i.HAL_DMA_Abort)
    i.HAL_DMA_Abort_IT                       0x08003064   Section        0  stm32h7xx_hal_dma.o(i.HAL_DMA_Abort_IT)
    i.HAL_DMA_DeInit                         0x080032e8   Section        0  stm32h7xx_hal_dma.o(i.HAL_DMA_DeInit)
    i.HAL_DMA_GetError                       0x080034d0   Section        0  stm32h7xx_hal_dma.o(i.HAL_DMA_GetError)
    i.HAL_DMA_IRQHandler                     0x080034d4   Section        0  stm32h7xx_hal_dma.o(i.HAL_DMA_IRQHandler)
    i.HAL_DMA_Init                           0x08003bbc   Section        0  stm32h7xx_hal_dma.o(i.HAL_DMA_Init)
    i.HAL_DMA_Start_IT                       0x08003f80   Section        0  stm32h7xx_hal_dma.o(i.HAL_DMA_Start_IT)
    i.HAL_Delay                              0x0800421c   Section        0  stm32h7xx_hal.o(i.HAL_Delay)
    i.HAL_EnableCompensationCell             0x08004240   Section        0  stm32h7xx_hal.o(i.HAL_EnableCompensationCell)
    i.HAL_GPIO_EXTI_Callback                 0x08004250   Section        0  ads1292.o(i.HAL_GPIO_EXTI_Callback)
    i.HAL_GPIO_EXTI_IRQHandler               0x080042b4   Section        0  stm32h7xx_hal_gpio.o(i.HAL_GPIO_EXTI_IRQHandler)
    i.HAL_GPIO_Init                          0x080042cc   Section        0  stm32h7xx_hal_gpio.o(i.HAL_GPIO_Init)
    i.HAL_GPIO_TogglePin                     0x080044f8   Section        0  stm32h7xx_hal_gpio.o(i.HAL_GPIO_TogglePin)
    i.HAL_GPIO_WritePin                      0x08004508   Section        0  stm32h7xx_hal_gpio.o(i.HAL_GPIO_WritePin)
    i.HAL_GetREVID                           0x08004514   Section        0  stm32h7xx_hal.o(i.HAL_GetREVID)
    i.HAL_GetTick                            0x08004520   Section        0  stm32h7xx_hal.o(i.HAL_GetTick)
    i.HAL_IncTick                            0x0800452c   Section        0  stm32h7xx_hal.o(i.HAL_IncTick)
    i.HAL_Init                               0x0800453c   Section        0  stm32h7xx_hal.o(i.HAL_Init)
    i.HAL_InitTick                           0x08004598   Section        0  stm32h7xx_hal.o(i.HAL_InitTick)
    i.HAL_MPU_ConfigRegion                   0x080045d8   Section        0  stm32h7xx_hal_cortex.o(i.HAL_MPU_ConfigRegion)
    i.HAL_MPU_Disable                        0x08004634   Section        0  stm32h7xx_hal_cortex.o(i.HAL_MPU_Disable)
    i.HAL_MPU_Enable                         0x08004650   Section        0  stm32h7xx_hal_cortex.o(i.HAL_MPU_Enable)
    i.HAL_MspInit                            0x08004674   Section        0  stm32h7xx_hal_msp.o(i.HAL_MspInit)
    i.HAL_NVIC_EnableIRQ                     0x08004690   Section        0  stm32h7xx_hal_cortex.o(i.HAL_NVIC_EnableIRQ)
    i.HAL_NVIC_SetPriority                   0x080046ac   Section        0  stm32h7xx_hal_cortex.o(i.HAL_NVIC_SetPriority)
    i.HAL_NVIC_SetPriorityGrouping           0x080046ec   Section        0  stm32h7xx_hal_cortex.o(i.HAL_NVIC_SetPriorityGrouping)
    i.HAL_PWREx_EnableUSBVoltageDetector     0x08004710   Section        0  stm32h7xx_hal_pwr_ex.o(i.HAL_PWREx_EnableUSBVoltageDetector)
    i.HAL_RCCEx_GetD3PCLK1Freq               0x08004720   Section        0  stm32h7xx_hal_rcc_ex.o(i.HAL_RCCEx_GetD3PCLK1Freq)
    i.HAL_RCCEx_GetPLL2ClockFreq             0x08004744   Section        0  stm32h7xx_hal_rcc_ex.o(i.HAL_RCCEx_GetPLL2ClockFreq)
    i.HAL_RCCEx_GetPLL3ClockFreq             0x08004888   Section        0  stm32h7xx_hal_rcc_ex.o(i.HAL_RCCEx_GetPLL3ClockFreq)
    i.HAL_RCC_ClockConfig                    0x080049cc   Section        0  stm32h7xx_hal_rcc.o(i.HAL_RCC_ClockConfig)
    i.HAL_RCC_GetHCLKFreq                    0x08004c28   Section        0  stm32h7xx_hal_rcc.o(i.HAL_RCC_GetHCLKFreq)
    i.HAL_RCC_GetPCLK1Freq                   0x08004c6c   Section        0  stm32h7xx_hal_rcc.o(i.HAL_RCC_GetPCLK1Freq)
    i.HAL_RCC_GetPCLK2Freq                   0x08004c90   Section        0  stm32h7xx_hal_rcc.o(i.HAL_RCC_GetPCLK2Freq)
    i.HAL_RCC_GetSysClockFreq                0x08004cb4   Section        0  stm32h7xx_hal_rcc.o(i.HAL_RCC_GetSysClockFreq)
    i.HAL_RCC_OscConfig                      0x08004dec   Section        0  stm32h7xx_hal_rcc.o(i.HAL_RCC_OscConfig)
    i.HAL_SPI_ErrorCallback                  0x0800531c   Section        0  stm32h7xx_hal_spi.o(i.HAL_SPI_ErrorCallback)
    i.HAL_SPI_IRQHandler                     0x08005320   Section        0  stm32h7xx_hal_spi.o(i.HAL_SPI_IRQHandler)
    i.HAL_SPI_Init                           0x08005558   Section        0  stm32h7xx_hal_spi.o(i.HAL_SPI_Init)
    i.HAL_SPI_MspInit                        0x080056b0   Section        0  spi.o(i.HAL_SPI_MspInit)
    i.HAL_SPI_RxCpltCallback                 0x08005714   Section        0  stm32h7xx_hal_spi.o(i.HAL_SPI_RxCpltCallback)
    i.HAL_SPI_RxHalfCpltCallback             0x08005716   Section        0  stm32h7xx_hal_spi.o(i.HAL_SPI_RxHalfCpltCallback)
    i.HAL_SPI_TransmitReceive                0x08005718   Section        0  stm32h7xx_hal_spi.o(i.HAL_SPI_TransmitReceive)
    i.HAL_SPI_TransmitReceive_DMA            0x08005a3c   Section        0  stm32h7xx_hal_spi.o(i.HAL_SPI_TransmitReceive_DMA)
    i.HAL_SPI_TxCpltCallback                 0x08005c38   Section        0  stm32h7xx_hal_spi.o(i.HAL_SPI_TxCpltCallback)
    i.HAL_SPI_TxRxCpltCallback               0x08005c3a   Section        0  stm32h7xx_hal_spi.o(i.HAL_SPI_TxRxCpltCallback)
    i.HAL_SPI_TxRxHalfCpltCallback           0x08005c3c   Section        0  stm32h7xx_hal_spi.o(i.HAL_SPI_TxRxHalfCpltCallback)
    i.HAL_SYSTICK_CLKSourceConfig            0x08005c3e   Section        0  stm32h7xx_hal_cortex.o(i.HAL_SYSTICK_CLKSourceConfig)
    i.HAL_SYSTICK_Config                     0x08005c56   Section        0  stm32h7xx_hal_cortex.o(i.HAL_SYSTICK_Config)
    i.HAL_UARTEx_RxEventCallback             0x08005c7c   Section        0  stm32h7xx_hal_uart.o(i.HAL_UARTEx_RxEventCallback)
    i.HAL_UARTEx_RxFifoFullCallback          0x08005c7e   Section        0  stm32h7xx_hal_uart_ex.o(i.HAL_UARTEx_RxFifoFullCallback)
    i.HAL_UARTEx_TxFifoEmptyCallback         0x08005c80   Section        0  stm32h7xx_hal_uart_ex.o(i.HAL_UARTEx_TxFifoEmptyCallback)
    i.HAL_UARTEx_WakeupCallback              0x08005c82   Section        0  stm32h7xx_hal_uart_ex.o(i.HAL_UARTEx_WakeupCallback)
    i.HAL_UART_ErrorCallback                 0x08005c84   Section        0  stm32h7xx_hal_uart.o(i.HAL_UART_ErrorCallback)
    i.HAL_UART_IRQHandler                    0x08005c88   Section        0  stm32h7xx_hal_uart.o(i.HAL_UART_IRQHandler)
    i.HAL_UART_Init                          0x08005fe8   Section        0  stm32h7xx_hal_uart.o(i.HAL_UART_Init)
    i.HAL_UART_MspInit                       0x08006054   Section        0  usart.o(i.HAL_UART_MspInit)
    i.HAL_UART_Receive_IT                    0x08006158   Section        0  stm32h7xx_hal_uart.o(i.HAL_UART_Receive_IT)
    i.HAL_UART_RxCpltCallback                0x080061ac   Section        0  usart.o(i.HAL_UART_RxCpltCallback)
    i.HAL_UART_Transmit                      0x08006238   Section        0  stm32h7xx_hal_uart.o(i.HAL_UART_Transmit)
    i.HAL_UART_TxCpltCallback                0x080062f6   Section        0  stm32h7xx_hal_uart.o(i.HAL_UART_TxCpltCallback)
    i.HC05_SendCmd                           0x080062f8   Section        0  hc05.o(i.HC05_SendCmd)
    i.HCO5_AT_Confg                          0x08006388   Section        0  hc05.o(i.HCO5_AT_Confg)
    i.HCO5_IO_Init                           0x08006610   Section        0  hc05.o(i.HCO5_IO_Init)
    i.HardFault_Handler                      0x08006654   Section        0  stm32h7xx_it.o(i.HardFault_Handler)
    i.LPF_2HZ_Init                           0x08006658   Section        0  data_processing.o(i.LPF_2HZ_Init)
    i.LPF_2HZ_Run                            0x0800667c   Section        0  data_processing.o(i.LPF_2HZ_Run)
    i.MX_CRC_Init                            0x08006694   Section        0  crc.o(i.MX_CRC_Init)
    i.MX_GPIO_Init                           0x080066d0   Section        0  gpio.o(i.MX_GPIO_Init)
    i.MX_SPI1_Init                           0x080066fc   Section        0  spi.o(i.MX_SPI1_Init)
    i.MemManage_Handler                      0x0800676c   Section        0  stm32h7xx_it.o(i.MemManage_Handler)
    i.NMI_Handler                            0x0800676e   Section        0  stm32h7xx_it.o(i.NMI_Handler)
    i.SPI1_IRQHandler                        0x08006770   Section        0  spi.o(i.SPI1_IRQHandler)
    i.SPI1_ReadWriteByte                     0x0800677c   Section        0  spi.o(i.SPI1_ReadWriteByte)
    i.SPI_CloseTransfer                      0x080067a4   Section        0  stm32h7xx_hal_spi.o(i.SPI_CloseTransfer)
    SPI_CloseTransfer                        0x080067a5   Thumb Code   188  stm32h7xx_hal_spi.o(i.SPI_CloseTransfer)
    i.SPI_DMAAbortOnError                    0x08006860   Section        0  stm32h7xx_hal_spi.o(i.SPI_DMAAbortOnError)
    SPI_DMAAbortOnError                      0x08006861   Thumb Code    26  stm32h7xx_hal_spi.o(i.SPI_DMAAbortOnError)
    i.SPI_DMAError                           0x0800687a   Section        0  stm32h7xx_hal_spi.o(i.SPI_DMAError)
    SPI_DMAError                             0x0800687b   Thumb Code    44  stm32h7xx_hal_spi.o(i.SPI_DMAError)
    i.SPI_DMAHalfReceiveCplt                 0x080068a6   Section        0  stm32h7xx_hal_spi.o(i.SPI_DMAHalfReceiveCplt)
    SPI_DMAHalfReceiveCplt                   0x080068a7   Thumb Code    10  stm32h7xx_hal_spi.o(i.SPI_DMAHalfReceiveCplt)
    i.SPI_DMAHalfTransmitReceiveCplt         0x080068b0   Section        0  stm32h7xx_hal_spi.o(i.SPI_DMAHalfTransmitReceiveCplt)
    SPI_DMAHalfTransmitReceiveCplt           0x080068b1   Thumb Code    10  stm32h7xx_hal_spi.o(i.SPI_DMAHalfTransmitReceiveCplt)
    i.SPI_DMAReceiveCplt                     0x080068ba   Section        0  stm32h7xx_hal_spi.o(i.SPI_DMAReceiveCplt)
    SPI_DMAReceiveCplt                       0x080068bb   Thumb Code    40  stm32h7xx_hal_spi.o(i.SPI_DMAReceiveCplt)
    i.SPI_DMATransmitReceiveCplt             0x080068e2   Section        0  stm32h7xx_hal_spi.o(i.SPI_DMATransmitReceiveCplt)
    SPI_DMATransmitReceiveCplt               0x080068e3   Thumb Code    40  stm32h7xx_hal_spi.o(i.SPI_DMATransmitReceiveCplt)
    i.SPI_WaitOnFlagUntilTimeout             0x0800690a   Section        0  stm32h7xx_hal_spi.o(i.SPI_WaitOnFlagUntilTimeout)
    SPI_WaitOnFlagUntilTimeout               0x0800690b   Thumb Code    66  stm32h7xx_hal_spi.o(i.SPI_WaitOnFlagUntilTimeout)
    i.Swtmr1_Callback                        0x0800694c   Section        0  freertos_demo.o(i.Swtmr1_Callback)
    i.SysTick_Handler                        0x080069ec   Section        0  delay.o(i.SysTick_Handler)
    i.SystemInit                             0x08006a04   Section        0  system_stm32h7xx.o(i.SystemInit)
    i.UART_AdvFeatureConfig                  0x08006ae0   Section        0  stm32h7xx_hal_uart.o(i.UART_AdvFeatureConfig)
    i.UART_CheckIdleState                    0x08006ba8   Section        0  stm32h7xx_hal_uart.o(i.UART_CheckIdleState)
    i.UART_DMAAbortOnError                   0x08006c08   Section        0  stm32h7xx_hal_uart.o(i.UART_DMAAbortOnError)
    UART_DMAAbortOnError                     0x08006c09   Thumb Code    20  stm32h7xx_hal_uart.o(i.UART_DMAAbortOnError)
    i.UART_EndRxTransfer                     0x08006c1c   Section        0  stm32h7xx_hal_uart.o(i.UART_EndRxTransfer)
    UART_EndRxTransfer                       0x08006c1d   Thumb Code    78  stm32h7xx_hal_uart.o(i.UART_EndRxTransfer)
    i.UART_RxISR_16BIT                       0x08006c70   Section        0  stm32h7xx_hal_uart.o(i.UART_RxISR_16BIT)
    UART_RxISR_16BIT                         0x08006c71   Thumb Code   162  stm32h7xx_hal_uart.o(i.UART_RxISR_16BIT)
    i.UART_RxISR_16BIT_FIFOEN                0x08006d14   Section        0  stm32h7xx_hal_uart.o(i.UART_RxISR_16BIT_FIFOEN)
    UART_RxISR_16BIT_FIFOEN                  0x08006d15   Thumb Code   364  stm32h7xx_hal_uart.o(i.UART_RxISR_16BIT_FIFOEN)
    i.UART_RxISR_8BIT                        0x08006e88   Section        0  stm32h7xx_hal_uart.o(i.UART_RxISR_8BIT)
    UART_RxISR_8BIT                          0x08006e89   Thumb Code   162  stm32h7xx_hal_uart.o(i.UART_RxISR_8BIT)
    i.UART_RxISR_8BIT_FIFOEN                 0x08006f2c   Section        0  stm32h7xx_hal_uart.o(i.UART_RxISR_8BIT_FIFOEN)
    UART_RxISR_8BIT_FIFOEN                   0x08006f2d   Thumb Code   364  stm32h7xx_hal_uart.o(i.UART_RxISR_8BIT_FIFOEN)
    i.UART_SetConfig                         0x080070a0   Section        0  stm32h7xx_hal_uart.o(i.UART_SetConfig)
    i.UART_Start_Receive_IT                  0x0800744c   Section        0  stm32h7xx_hal_uart.o(i.UART_Start_Receive_IT)
    i.UART_WaitOnFlagUntilTimeout            0x08007564   Section        0  stm32h7xx_hal_uart.o(i.UART_WaitOnFlagUntilTimeout)
    i.USART1_IRQHandler                      0x08007630   Section        0  usart.o(i.USART1_IRQHandler)
    i.USART3_IRQHandler                      0x0800763c   Section        0  usart.o(i.USART3_IRQHandler)
    i.UsageFault_Handler                     0x08007648   Section        0  stm32h7xx_it.o(i.UsageFault_Handler)
    i.__ARM_fpclassify                       0x0800764a   Section        0  fpclassify.o(i.__ARM_fpclassify)
    i.__ARM_fpclassifyf                      0x0800767a   Section        0  fpclassifyf.o(i.__ARM_fpclassifyf)
    i.__NVIC_SetPriority                     0x080076a0   Section        0  stm32h7xx_hal_cortex.o(i.__NVIC_SetPriority)
    __NVIC_SetPriority                       0x080076a1   Thumb Code    34  stm32h7xx_hal_cortex.o(i.__NVIC_SetPriority)
    i.__ai_math_dot_array                    0x080076c4   Section        0  lite_dense_if32.o(i.__ai_math_dot_array)
    __ai_math_dot_array                      0x080076c5   Thumb Code   244  lite_dense_if32.o(i.__ai_math_dot_array)
    i.__hardfp_expf                          0x080077bc   Section        0  expf.o(i.__hardfp_expf)
    i.__mathlib_flt_infnan                   0x080079b0   Section        0  funder.o(i.__mathlib_flt_infnan)
    i.__mathlib_flt_overflow                 0x080079b8   Section        0  funder.o(i.__mathlib_flt_overflow)
    i.__mathlib_flt_underflow                0x080079c8   Section        0  funder.o(i.__mathlib_flt_underflow)
    i._ai_dict4_dot_array_f32                0x080079d8   Section        0  layers_conv2d_generic_float.o(i._ai_dict4_dot_array_f32)
    _ai_dict4_dot_array_f32                  0x080079d9   Thumb Code   300  layers_conv2d_generic_float.o(i._ai_dict4_dot_array_f32)
    i._ai_dict8_dot_array_f32                0x08007b08   Section        0  layers_conv2d_generic_float.o(i._ai_dict8_dot_array_f32)
    _ai_dict8_dot_array_f32                  0x08007b09   Thumb Code   246  layers_conv2d_generic_float.o(i._ai_dict8_dot_array_f32)
    i._ai_forward_layer                      0x08007c04   Section        0  layers.o(i._ai_forward_layer)
    _ai_forward_layer                        0x08007c05   Thumb Code    18  layers.o(i._ai_forward_layer)
    i._ai_platform_acquire_crc               0x08007c16   Section        0  ai_platform_interface.o(i._ai_platform_acquire_crc)
    i._ai_platform_get_io_buffers_info       0x08007c1c   Section        0  ai_platform_interface.o(i._ai_platform_get_io_buffers_info)
    _ai_platform_get_io_buffers_info         0x08007c1d   Thumb Code   220  ai_platform_interface.o(i._ai_platform_get_io_buffers_info)
    i._ai_platform_release_crc               0x08007cfc   Section        0  ai_platform_interface.o(i._ai_platform_release_crc)
    i._forward_lite_nl_relu_generic_if32of32 0x08007d00   Section        0  layers_nl_generic_float.o(i._forward_lite_nl_relu_generic_if32of32)
    _forward_lite_nl_relu_generic_if32of32   0x08007d01   Thumb Code   160  layers_nl_generic_float.o(i._forward_lite_nl_relu_generic_if32of32)
    i._forward_lite_nl_relu_thresholded_if32of32 0x08007da4   Section        0  layers_nl_generic_float.o(i._forward_lite_nl_relu_thresholded_if32of32)
    _forward_lite_nl_relu_thresholded_if32of32 0x08007da5   Thumb Code    52  layers_nl_generic_float.o(i._forward_lite_nl_relu_thresholded_if32of32)
    i._forward_lite_nl_softmax_if32of32      0x08007ddc   Section        0  layers_nl_generic_float.o(i._forward_lite_nl_softmax_if32of32)
    _forward_lite_nl_softmax_if32of32        0x08007ddd   Thumb Code   158  layers_nl_generic_float.o(i._forward_lite_nl_softmax_if32of32)
    i._is_digit                              0x08007e80   Section        0  __printf_wp.o(i._is_digit)
    i._platform_ai_buffer_array_copy         0x08007e8e   Section        0  ai_platform_interface.o(i._platform_ai_buffer_array_copy)
    _platform_ai_buffer_array_copy           0x08007e8f   Thumb Code    74  ai_platform_interface.o(i._platform_ai_buffer_array_copy)
    i._platform_get_table_map_from_buffer    0x08007ed8   Section        0  ai_platform_interface.o(i._platform_get_table_map_from_buffer)
    _platform_get_table_map_from_buffer      0x08007ed9   Thumb Code    74  ai_platform_interface.o(i._platform_get_table_map_from_buffer)
    i._platform_get_table_map_from_buffer_array 0x08007f28   Section        0  ai_platform_interface.o(i._platform_get_table_map_from_buffer_array)
    _platform_get_table_map_from_buffer_array 0x08007f29   Thumb Code    68  ai_platform_interface.o(i._platform_get_table_map_from_buffer_array)
    i._platform_network_buffers_signature_valid 0x08007f6c   Section        0  ai_platform_interface.o(i._platform_network_buffers_signature_valid)
    _platform_network_buffers_signature_valid 0x08007f6d   Thumb Code    14  ai_platform_interface.o(i._platform_network_buffers_signature_valid)
    i._platform_network_io_bind              0x08007f80   Section        0  ai_platform_interface.o(i._platform_network_io_bind)
    _platform_network_io_bind                0x08007f81   Thumb Code   528  ai_platform_interface.o(i._platform_network_io_bind)
    i._platform_network_state_setup          0x08008190   Section        0  ai_platform_interface.o(i._platform_network_state_setup)
    _platform_network_state_setup            0x08008191   Thumb Code    62  ai_platform_interface.o(i._platform_network_state_setup)
    i._platform_network_state_update_input   0x080081ce   Section        0  ai_platform_interface.o(i._platform_network_state_update_input)
    _platform_network_state_update_input     0x080081cf   Thumb Code   106  ai_platform_interface.o(i._platform_network_state_update_input)
    i._platform_network_state_update_output  0x08008238   Section        0  ai_platform_interface.o(i._platform_network_state_update_output)
    _platform_network_state_update_output    0x08008239   Thumb Code   128  ai_platform_interface.o(i._platform_network_state_update_output)
    i._sys_exit                              0x080082b8   Section        0  usart.o(i._sys_exit)
    i._ttywrch                               0x080082ba   Section        0  usart.o(i._ttywrch)
    i.acquire_and_process_data_test          0x080082bc   Section        0  ecg_run.o(i.acquire_and_process_data_test)
    i.aiInit                                 0x080082e8   Section        0  ecg_run.o(i.aiInit)
    i.aiRun                                  0x08008384   Section        0  ecg_run.o(i.aiRun)
    i.ai_array_get_byte_size                 0x080083d8   Section        0  ai_datatypes_format.o(i.ai_array_get_byte_size)
    i.ai_array_get_data_byte_size            0x08008414   Section        0  ai_datatypes_format.o(i.ai_array_get_data_byte_size)
    i.ai_array_to_buffer_fmt                 0x08008434   Section        0  ai_datatypes_format.o(i.ai_array_to_buffer_fmt)
    i.ai_buffer_array_item_set_address       0x08008560   Section        0  ai_platform.o(i.ai_buffer_array_item_set_address)
    i.ai_buffer_array_sane                   0x08008584   Section        0  ai_platform.o(i.ai_buffer_array_sane)
    i.ai_buffer_get_size                     0x08008598   Section        0  ai_platform.o(i.ai_buffer_get_size)
    i.ai_check_custom_types                  0x08008600   Section        0  layers.o(i.ai_check_custom_types)
    i.ai_conv2d_kernel_simple_opt_f32        0x0800862c   Section        0  forward_lite_conv2d_if32of32wf32.o(i.ai_conv2d_kernel_simple_opt_f32)
    i.ai_dict_decompress_f32                 0x0800879a   Section        0  layers_conv2d_generic_float.o(i.ai_dict_decompress_f32)
    i.ai_ecg_create                          0x08008814   Section        0  ecg.o(i.ai_ecg_create)
    i.ai_ecg_create_and_init                 0x0800882c   Section        0  ecg.o(i.ai_ecg_create_and_init)
    i.ai_ecg_data_params_get                 0x080088b0   Section        0  ecg_data.o(i.ai_ecg_data_params_get)
    i.ai_ecg_get_error                       0x080088d8   Section        0  ecg.o(i.ai_ecg_get_error)
    i.ai_ecg_get_report                      0x080088dc   Section        0  ecg.o(i.ai_ecg_get_report)
    i.ai_ecg_init                            0x08008934   Section        0  ecg.o(i.ai_ecg_init)
    i.ai_ecg_inputs_get                      0x08008964   Section        0  ecg.o(i.ai_ecg_inputs_get)
    i.ai_ecg_outputs_get                     0x08008978   Section        0  ecg.o(i.ai_ecg_outputs_get)
    i.ai_ecg_run                             0x0800898c   Section        0  ecg.o(i.ai_ecg_run)
    i.ai_layers_forward_all                  0x08008990   Section        0  layers.o(i.ai_layers_forward_all)
    i.ai_layers_init_all                     0x080089e0   Section        0  layers.o(i.ai_layers_init_all)
    i.ai_layers_post_init_all                0x080089fe   Section        0  layers.o(i.ai_layers_post_init_all)
    i.ai_platform_api_get_network_report     0x08008a34   Section        0  ai_platform_interface.o(i.ai_platform_api_get_network_report)
    i.ai_platform_api_get_version            0x08008bc0   Section        0  ai_platform_interface.o(i.ai_platform_api_get_version)
    i.ai_platform_bind_network_params        0x08008bd4   Section        0  ai_platform_interface.o(i.ai_platform_bind_network_params)
    i.ai_platform_context_acquire            0x08008c00   Section        0  ai_platform_interface.o(i.ai_platform_context_acquire)
    i.ai_platform_get_activations_map        0x08008c1c   Section        0  ai_platform_interface.o(i.ai_platform_get_activations_map)
    i.ai_platform_get_weights_map            0x08008c48   Section        0  ai_platform_interface.o(i.ai_platform_get_weights_map)
    i.ai_platform_inputs_get                 0x08008c70   Section        0  ai_platform_interface.o(i.ai_platform_inputs_get)
    i.ai_platform_interface_api_get_version  0x08008cb4   Section        0  ai_platform_interface.o(i.ai_platform_interface_api_get_version)
    i.ai_platform_network_create             0x08008cc8   Section        0  ai_platform_interface.o(i.ai_platform_network_create)
    i.ai_platform_network_get_error          0x08008d7c   Section        0  ai_platform_interface.o(i.ai_platform_network_get_error)
    i.ai_platform_network_init               0x08008d98   Section        0  ai_platform_interface.o(i.ai_platform_network_init)
    i.ai_platform_network_post_init          0x08008ea4   Section        0  ai_platform_interface.o(i.ai_platform_network_post_init)
    i.ai_platform_network_process            0x08008eea   Section        0  ai_platform_interface.o(i.ai_platform_network_process)
    i.ai_platform_network_set_error          0x08008f3e   Section        0  ai_platform_interface.o(i.ai_platform_network_set_error)
    i.ai_platform_outputs_get                0x08008f4a   Section        0  ai_platform_interface.o(i.ai_platform_outputs_get)
    i.ai_platform_runtime_get_revision       0x08008f94   Section        0  ai_platform_interface.o(i.ai_platform_runtime_get_revision)
    i.ai_platform_runtime_get_version        0x08008fa4   Section        0  ai_platform_interface.o(i.ai_platform_runtime_get_version)
    i.ai_platform_version_get                0x08008fb8   Section        0  ai_datatypes_internal.o(i.ai_platform_version_get)
    i.ai_shape_get_size                      0x08008fce   Section        0  layers_nl_generic_float.o(i.ai_shape_get_size)
    ai_shape_get_size                        0x08008fcf   Thumb Code    26  layers_nl_generic_float.o(i.ai_shape_get_size)
    i.ai_shape_get_size                      0x08008fe8   Section        0  layers_norm_generic_float.o(i.ai_shape_get_size)
    ai_shape_get_size                        0x08008fe9   Thumb Code    26  layers_norm_generic_float.o(i.ai_shape_get_size)
    i.ai_version_get                         0x08009002   Section        0  ai_datatypes_internal.o(i.ai_version_get)
    i.core_get_error                         0x0800900e   Section        0  core_common.o(i.core_get_error)
    i.core_init                              0x0800901a   Section        0  core_common.o(i.core_init)
    i.core_set_error                         0x0800901e   Section        0  core_common.o(i.core_set_error)
    i.delay_init                             0x08009038   Section        0  delay.o(i.delay_init)
    i.delay_ms                               0x08009068   Section        0  delay.o(i.delay_ms)
    i.delay_us                               0x08009084   Section        0  delay.o(i.delay_us)
    i.ecg_configure_activations              0x080090b8   Section        0  ecg.o(i.ecg_configure_activations)
    ecg_configure_activations                0x080090b9   Thumb Code   166  ecg.o(i.ecg_configure_activations)
    i.ecg_configure_weights                  0x08009164   Section        0  ecg.o(i.ecg_configure_weights)
    ecg_configure_weights                    0x08009165   Thumb Code   332  ecg.o(i.ecg_configure_weights)
    i.forward_ap                             0x080092c8   Section        0  layers_pool_generic_float.o(i.forward_ap)
    i.forward_bn                             0x0800943e   Section        0  layers_norm_generic_float.o(i.forward_bn)
    i.forward_conv2d_if32of32wf32            0x0800956a   Section        0  layers_conv2d_generic_float.o(i.forward_conv2d_if32of32wf32)
    i.forward_dense                          0x08009758   Section        0  layers_conv2d_generic_float.o(i.forward_dense)
    i.forward_lite_conv2d_if32of32wf32       0x08009944   Section        0  forward_lite_conv2d_if32of32wf32.o(i.forward_lite_conv2d_if32of32wf32)
    i.forward_lite_dense_if32of32wf32        0x08009ab8   Section        0  lite_dense_if32.o(i.forward_lite_dense_if32of32wf32)
    i.forward_relu                           0x08009b34   Section        0  layers_nl_generic_float.o(i.forward_relu)
    i.forward_sm                             0x08009bf8   Section        0  layers_nl_generic_float.o(i.forward_sm)
    i.fputc                                  0x08009c68   Section        0  usart.o(i.fputc)
    i.freertos_demo                          0x08009c7c   Section        0  freertos_demo.o(i.freertos_demo)
    i.get_tensor_byte_size                   0x08009cb0   Section        0  ai_datatypes_internal.o(i.get_tensor_byte_size)
    i.led_init                               0x08009cd8   Section        0  led.o(i.led_init)
    i.main                                   0x08009d40   Section        0  main.o(i.main)
    i.mpu_memory_protection                  0x08009e14   Section        0  mpu.o(i.mpu_memory_protection)
    i.mpu_set_protection                     0x08009e46   Section        0  mpu.o(i.mpu_set_protection)
    i.pool_func_ap_kernel_array_f32          0x08009ea0   Section        0  layers_pool_generic_float.o(i.pool_func_ap_kernel_array_f32)
    i.post_process_test                      0x08009f1c   Section        0  ecg_run.o(i.post_process_test)
    i.prvAddCurrentTaskToDelayedList         0x08009f64   Section        0  tasks.o(i.prvAddCurrentTaskToDelayedList)
    prvAddCurrentTaskToDelayedList           0x08009f65   Thumb Code   136  tasks.o(i.prvAddCurrentTaskToDelayedList)
    i.prvAddNewTaskToReadyList               0x08009ff4   Section        0  tasks.o(i.prvAddNewTaskToReadyList)
    prvAddNewTaskToReadyList                 0x08009ff5   Thumb Code   224  tasks.o(i.prvAddNewTaskToReadyList)
    i.prvCheckForValidListAndQueue           0x0800a0e4   Section        0  timers.o(i.prvCheckForValidListAndQueue)
    prvCheckForValidListAndQueue             0x0800a0e5   Thumb Code    62  timers.o(i.prvCheckForValidListAndQueue)
    i.prvCopyDataFromQueue                   0x0800a134   Section        0  queue.o(i.prvCopyDataFromQueue)
    prvCopyDataFromQueue                     0x0800a135   Thumb Code    38  queue.o(i.prvCopyDataFromQueue)
    i.prvCopyDataToQueue                     0x0800a15a   Section        0  queue.o(i.prvCopyDataToQueue)
    prvCopyDataToQueue                       0x0800a15b   Thumb Code   108  queue.o(i.prvCopyDataToQueue)
    i.prvDeleteTCB                           0x0800a1c6   Section        0  tasks.o(i.prvDeleteTCB)
    prvDeleteTCB                             0x0800a1c7   Thumb Code    20  tasks.o(i.prvDeleteTCB)
    i.prvHeapInit                            0x0800a1dc   Section        0  heap_4.o(i.prvHeapInit)
    prvHeapInit                              0x0800a1dd   Thumb Code    70  heap_4.o(i.prvHeapInit)
    i.prvIdleTask                            0x0800a22c   Section        0  tasks.o(i.prvIdleTask)
    prvIdleTask                              0x0800a22d   Thumb Code    82  tasks.o(i.prvIdleTask)
    i.prvInitialiseNewTask                   0x0800a28c   Section        0  tasks.o(i.prvInitialiseNewTask)
    prvInitialiseNewTask                     0x0800a28d   Thumb Code   182  tasks.o(i.prvInitialiseNewTask)
    i.prvInsertBlockIntoFreeList             0x0800a374   Section        0  heap_4.o(i.prvInsertBlockIntoFreeList)
    prvInsertBlockIntoFreeList               0x0800a375   Thumb Code    72  heap_4.o(i.prvInsertBlockIntoFreeList)
    i.prvInsertTimerInActiveList             0x0800a3c0   Section        0  timers.o(i.prvInsertTimerInActiveList)
    prvInsertTimerInActiveList               0x0800a3c1   Thumb Code    54  timers.o(i.prvInsertTimerInActiveList)
    i.prvIsQueueEmpty                        0x0800a3fc   Section        0  queue.o(i.prvIsQueueEmpty)
    prvIsQueueEmpty                          0x0800a3fd   Thumb Code    28  queue.o(i.prvIsQueueEmpty)
    i.prvNotifyQueueSetContainer             0x0800a418   Section        0  queue.o(i.prvNotifyQueueSetContainer)
    prvNotifyQueueSetContainer               0x0800a419   Thumb Code   116  queue.o(i.prvNotifyQueueSetContainer)
    i.prvProcessExpiredTimer                 0x0800a4bc   Section        0  timers.o(i.prvProcessExpiredTimer)
    prvProcessExpiredTimer                   0x0800a4bd   Thumb Code    58  timers.o(i.prvProcessExpiredTimer)
    i.prvProcessReceivedCommands             0x0800a4fc   Section        0  timers.o(i.prvProcessReceivedCommands)
    prvProcessReceivedCommands               0x0800a4fd   Thumb Code   232  timers.o(i.prvProcessReceivedCommands)
    i.prvProcessTimerOrBlockTask             0x0800a61c   Section        0  timers.o(i.prvProcessTimerOrBlockTask)
    prvProcessTimerOrBlockTask               0x0800a61d   Thumb Code    98  timers.o(i.prvProcessTimerOrBlockTask)
    i.prvReloadTimer                         0x0800a688   Section        0  timers.o(i.prvReloadTimer)
    prvReloadTimer                           0x0800a689   Thumb Code    40  timers.o(i.prvReloadTimer)
    i.prvResetNextTaskUnblockTime            0x0800a6b0   Section        0  tasks.o(i.prvResetNextTaskUnblockTime)
    prvResetNextTaskUnblockTime              0x0800a6b1   Thumb Code    24  tasks.o(i.prvResetNextTaskUnblockTime)
    i.prvSampleTimeNow                       0x0800a6cc   Section        0  timers.o(i.prvSampleTimeNow)
    prvSampleTimeNow                         0x0800a6cd   Thumb Code    66  timers.o(i.prvSampleTimeNow)
    i.prvTaskExitError                       0x0800a714   Section        0  port.o(i.prvTaskExitError)
    prvTaskExitError                         0x0800a715   Thumb Code    38  port.o(i.prvTaskExitError)
    i.prvTimerTask                           0x0800a78c   Section        0  timers.o(i.prvTimerTask)
    prvTimerTask                             0x0800a78d   Thumb Code    32  timers.o(i.prvTimerTask)
    i.prvUnlockQueue                         0x0800a7b0   Section        0  queue.o(i.prvUnlockQueue)
    prvUnlockQueue                           0x0800a7b1   Thumb Code   118  queue.o(i.prvUnlockQueue)
    i.pvPortMalloc                           0x0800a828   Section        0  heap_4.o(i.pvPortMalloc)
    i.pxPortInitialiseStack                  0x0800a958   Section        0  port.o(i.pxPortInitialiseStack)
    i.realtime_dsp_normalize                 0x0800a988   Section        0  data_processing.o(i.realtime_dsp_normalize)
    i.realtime_ecg_normalize                 0x0800aa84   Section        0  data_processing.o(i.realtime_ecg_normalize)
    i.st_int8_copy                           0x0800ab80   Section        0  st_int8_fill.o(i.st_int8_copy)
    i.start_task                             0x0800ac04   Section        0  freertos_demo.o(i.start_task)
    i.sys_cache_enable                       0x0800acd8   Section        0  sys.o(i.sys_cache_enable)
    i.sys_stm32_clock_init                   0x0800ad6c   Section        0  sys.o(i.sys_stm32_clock_init)
    i.task_dsprx                             0x0800ae30   Section        0  freertos_demo.o(i.task_dsprx)
    i.task_ecgrx                             0x0800ae74   Section        0  freertos_demo.o(i.task_ecgrx)
    i.usart_blue_init                        0x0800af3c   Section        0  usart.o(i.usart_blue_init)
    i.usart_init                             0x0800af84   Section        0  usart.o(i.usart_init)
    i.uxListRemove                           0x0800afbc   Section        0  list.o(i.uxListRemove)
    i.vListInitialise                        0x0800afe2   Section        0  list.o(i.vListInitialise)
    i.vListInitialiseItem                    0x0800aff8   Section        0  list.o(i.vListInitialiseItem)
    i.vListInsert                            0x0800affe   Section        0  list.o(i.vListInsert)
    i.vListInsertEnd                         0x0800b02e   Section        0  list.o(i.vListInsertEnd)
    i.vPortEnterCritical                     0x0800b048   Section        0  port.o(i.vPortEnterCritical)
    i.vPortExitCritical                      0x0800b0d4   Section        0  port.o(i.vPortExitCritical)
    i.vPortFree                              0x0800b148   Section        0  heap_4.o(i.vPortFree)
    i.vPortSetupTimerInterrupt               0x0800b1f4   Section        0  port.o(i.vPortSetupTimerInterrupt)
    i.vPortValidateInterruptPriority         0x0800b218   Section        0  port.o(i.vPortValidateInterruptPriority)
    i.vQueueAddToRegistry                    0x0800b2b4   Section        0  queue.o(i.vQueueAddToRegistry)
    i.vQueueWaitForMessageRestricted         0x0800b334   Section        0  queue.o(i.vQueueWaitForMessageRestricted)
    i.vTaskDelete                            0x0800b378   Section        0  tasks.o(i.vTaskDelete)
    i.vTaskInternalSetTimeOutState           0x0800b458   Section        0  tasks.o(i.vTaskInternalSetTimeOutState)
    i.vTaskMissedYield                       0x0800b468   Section        0  tasks.o(i.vTaskMissedYield)
    i.vTaskPlaceOnEventList                  0x0800b474   Section        0  tasks.o(i.vTaskPlaceOnEventList)
    i.vTaskPlaceOnEventListRestricted        0x0800b4d4   Section        0  tasks.o(i.vTaskPlaceOnEventListRestricted)
    i.vTaskStartScheduler                    0x0800b558   Section        0  tasks.o(i.vTaskStartScheduler)
    i.vTaskSuspendAll                        0x0800b5f8   Section        0  tasks.o(i.vTaskSuspendAll)
    i.vTaskSwitchContext                     0x0800b608   Section        0  tasks.o(i.vTaskSwitchContext)
    i.xPortStartScheduler                    0x0800b690   Section        0  port.o(i.xPortStartScheduler)
    i.xPortSysTickHandler                    0x0800b7a4   Section        0  port.o(i.xPortSysTickHandler)
    i.xQueueGenericCreate                    0x0800b7d4   Section        0  queue.o(i.xQueueGenericCreate)
    i.xQueueGenericReset                     0x0800b868   Section        0  queue.o(i.xQueueGenericReset)
    i.xQueueGenericSend                      0x0800b950   Section        0  queue.o(i.xQueueGenericSend)
    i.xQueueGenericSendFromISR               0x0800bae8   Section        0  queue.o(i.xQueueGenericSendFromISR)
    i.xQueueReceive                          0x0800bbf0   Section        0  queue.o(i.xQueueReceive)
    i.xTaskCheckForTimeOut                   0x0800bd4c   Section        0  tasks.o(i.xTaskCheckForTimeOut)
    i.xTaskCreate                            0x0800bdfc   Section        0  tasks.o(i.xTaskCreate)
    i.xTaskGetSchedulerState                 0x0800be54   Section        0  tasks.o(i.xTaskGetSchedulerState)
    i.xTaskGetTickCount                      0x0800be70   Section        0  tasks.o(i.xTaskGetTickCount)
    i.xTaskIncrementTick                     0x0800be7c   Section        0  tasks.o(i.xTaskIncrementTick)
    i.xTaskPriorityDisinherit                0x0800bfd8   Section        0  tasks.o(i.xTaskPriorityDisinherit)
    i.xTaskRemoveFromEventList               0x0800c0bc   Section        0  tasks.o(i.xTaskRemoveFromEventList)
    i.xTaskResumeAll                         0x0800c1c4   Section        0  tasks.o(i.xTaskResumeAll)
    i.xTimerCreate                           0x0800c324   Section        0  timers.o(i.xTimerCreate)
    i.xTimerCreateTimerTask                  0x0800c3b8   Section        0  timers.o(i.xTimerCreateTimerTask)
    i.xTimerGenericCommand                   0x0800c438   Section        0  timers.o(i.xTimerGenericCommand)
    locale$$code                             0x0800c4d4   Section       44  lc_numeric_c.o(locale$$code)
    x$fpl$fpinit                             0x0800c500   Section       10  fpinit.o(x$fpl$fpinit)
    $v0                                      0x0800c500   Number         0  fpinit.o(x$fpl$fpinit)
    x$fpl$printf1                            0x0800c50a   Section        4  printf1.o(x$fpl$printf1)
    $v0                                      0x0800c50a   Number         0  printf1.o(x$fpl$printf1)
    x$fpl$usenofp                            0x0800c50e   Section        0  usenofp.o(x$fpl$usenofp)
    .constdata                               0x0800c510   Section        8  ecg.o(.constdata)
    dense_2_chain                            0x0800c510   Data           8  ecg.o(.constdata)
    .constdata                               0x0800c518   Section        8  ecg.o(.constdata)
    dense_2_dense_chain                      0x0800c518   Data           8  ecg.o(.constdata)
    .constdata                               0x0800c520   Section        8  ecg.o(.constdata)
    dense_1_chain                            0x0800c520   Data           8  ecg.o(.constdata)
    .constdata                               0x0800c528   Section        8  ecg.o(.constdata)
    dense_1_dense_chain                      0x0800c528   Data           8  ecg.o(.constdata)
    .constdata                               0x0800c530   Section        8  ecg.o(.constdata)
    dense_chain                              0x0800c530   Data           8  ecg.o(.constdata)
    .constdata                               0x0800c538   Section        8  ecg.o(.constdata)
    dense_dense_chain                        0x0800c538   Data           8  ecg.o(.constdata)
    .constdata                               0x0800c540   Section        8  ecg.o(.constdata)
    average_pooling2d_chain                  0x0800c540   Data           8  ecg.o(.constdata)
    .constdata                               0x0800c548   Section        8  ecg.o(.constdata)
    batch_normalization_1_chain              0x0800c548   Data           8  ecg.o(.constdata)
    .constdata                               0x0800c550   Section        8  ecg.o(.constdata)
    conv2d_1_chain                           0x0800c550   Data           8  ecg.o(.constdata)
    .constdata                               0x0800c558   Section        8  ecg.o(.constdata)
    conv2d_1_conv2d_chain                    0x0800c558   Data           8  ecg.o(.constdata)
    .constdata                               0x0800c560   Section        8  ecg.o(.constdata)
    conv2d_chain                             0x0800c560   Data           8  ecg.o(.constdata)
    .constdata                               0x0800c568   Section        8  ecg.o(.constdata)
    conv2d_conv2d_chain                      0x0800c568   Data           8  ecg.o(.constdata)
    .constdata                               0x0800c570   Section      272  ecg.o(.constdata)
    .constdata                               0x0800c680   Section      104  ecg_data.o(.constdata)
    .constdata                               0x0800c700   Section    1043600  ecg_data_params.o(.constdata)
    .constdata                               0x0810b390   Section        8  stm32h7xx_hal_dma.o(.constdata)
    flagBitshiftOffset                       0x0810b390   Data           8  stm32h7xx_hal_dma.o(.constdata)
    .constdata                               0x0810b398   Section       24  stm32h7xx_hal_uart.o(.constdata)
    .constdata                               0x0810b3b0   Section       16  system_stm32h7xx.o(.constdata)
    .constdata                               0x0810b3c0   Section        4  ecg_run.o(.constdata)
    .constdata                               0x0810b3c4   Section     1032  data_processing.o(.constdata)
    .constdata                               0x0810b7cc   Section      108  ai_platform_interface.o(.constdata)
    .constdata                               0x0810b838   Section       40  _printf_hex_int.o(.constdata)
    uc_hextab                                0x0810b838   Data          20  _printf_hex_int.o(.constdata)
    lc_hextab                                0x0810b84c   Data          20  _printf_hex_int.o(.constdata)
    .constdata                               0x0810b860   Section       17  __printf_flags_wp.o(.constdata)
    maptable                                 0x0810b860   Data          17  __printf_flags_wp.o(.constdata)
    .constdata                               0x0810b874   Section       48  expf.o(.constdata)
    twotokover4top                           0x0810b874   Data          16  expf.o(.constdata)
    twotokover4bot                           0x0810b884   Data          16  expf.o(.constdata)
    twotokover4all                           0x0810b894   Data          16  expf.o(.constdata)
    .constdata                               0x0810b8a4   Section      148  bigflt0.o(.constdata)
    tenpwrs_x                                0x0810b8a4   Data          60  bigflt0.o(.constdata)
    tenpwrs_i                                0x0810b8e0   Data          64  bigflt0.o(.constdata)
    .conststring                             0x0810b938   Section       93  ecg.o(.conststring)
    locale$$data                             0x0810b9b8   Section       28  lc_numeric_c.o(locale$$data)
    __lcnum_c_name                           0x0810b9bc   Data           2  lc_numeric_c.o(locale$$data)
    __lcnum_c_start                          0x0810b9c4   Data           0  lc_numeric_c.o(locale$$data)
    __lcnum_c_point                          0x0810b9d0   Data           0  lc_numeric_c.o(locale$$data)
    __lcnum_c_thousands                      0x0810b9d2   Data           0  lc_numeric_c.o(locale$$data)
    __lcnum_c_grouping                       0x0810b9d3   Data           0  lc_numeric_c.o(locale$$data)
    __lcnum_c_end                            0x0810b9d4   Data           0  lc_numeric_c.o(locale$$data)
    .data                                    0x24000000   Section       16  ecg.o(.data)
    <Data1>                                  0x24000000   Data          16  ecg.o(.data)
    .data                                    0x24000010   Section       16  ecg.o(.data)
    <Data2>                                  0x24000010   Data          16  ecg.o(.data)
    .data                                    0x24000020   Section       16  ecg.o(.data)
    <Data3>                                  0x24000020   Data          16  ecg.o(.data)
    .data                                    0x24000030   Section       16  ecg.o(.data)
    <Data4>                                  0x24000030   Data          16  ecg.o(.data)
    .data                                    0x24000040   Section       16  ecg.o(.data)
    <Data5>                                  0x24000040   Data          16  ecg.o(.data)
    .data                                    0x24000050   Section       16  ecg.o(.data)
    <Data6>                                  0x24000050   Data          16  ecg.o(.data)
    .data                                    0x24000060   Section       16  ecg.o(.data)
    <Data7>                                  0x24000060   Data          16  ecg.o(.data)
    .data                                    0x24000070   Section       16  ecg.o(.data)
    <Data8>                                  0x24000070   Data          16  ecg.o(.data)
    .data                                    0x24000080   Section       16  ecg.o(.data)
    <Data9>                                  0x24000080   Data          16  ecg.o(.data)
    .data                                    0x24000090   Section       16  ecg.o(.data)
    <Data10>                                 0x24000090   Data          16  ecg.o(.data)
    .data                                    0x240000a0   Section       16  ecg.o(.data)
    <Data11>                                 0x240000a0   Data          16  ecg.o(.data)
    .data                                    0x240000b0   Section       16  ecg.o(.data)
    <Data12>                                 0x240000b0   Data          16  ecg.o(.data)
    .data                                    0x240000c0   Section       16  ecg.o(.data)
    <Data13>                                 0x240000c0   Data          16  ecg.o(.data)
    .data                                    0x240000d0   Section       16  ecg.o(.data)
    <Data14>                                 0x240000d0   Data          16  ecg.o(.data)
    .data                                    0x240000e0   Section       16  ecg.o(.data)
    <Data15>                                 0x240000e0   Data          16  ecg.o(.data)
    .data                                    0x240000f0   Section       16  ecg.o(.data)
    <Data16>                                 0x240000f0   Data          16  ecg.o(.data)
    .data                                    0x24000100   Section       16  ecg.o(.data)
    <Data17>                                 0x24000100   Data          16  ecg.o(.data)
    .data                                    0x24000110   Section       16  ecg.o(.data)
    <Data18>                                 0x24000110   Data          16  ecg.o(.data)
    .data                                    0x24000120   Section       16  ecg.o(.data)
    <Data19>                                 0x24000120   Data          16  ecg.o(.data)
    .data                                    0x24000130   Section       16  ecg.o(.data)
    <Data20>                                 0x24000130   Data          16  ecg.o(.data)
    .data                                    0x24000140   Section       16  ecg.o(.data)
    <Data21>                                 0x24000140   Data          16  ecg.o(.data)
    .data                                    0x24000150   Section       16  ecg.o(.data)
    <Data22>                                 0x24000150   Data          16  ecg.o(.data)
    .data                                    0x24000160   Section       16  ecg.o(.data)
    <Data23>                                 0x24000160   Data          16  ecg.o(.data)
    .data                                    0x24000170   Section       16  ecg.o(.data)
    <Data24>                                 0x24000170   Data          16  ecg.o(.data)
    .data                                    0x24000180   Section       16  ecg.o(.data)
    <Data25>                                 0x24000180   Data          16  ecg.o(.data)
    .data                                    0x24000190   Section       16  ecg.o(.data)
    <Data26>                                 0x24000190   Data          16  ecg.o(.data)
    .data                                    0x240001a0   Section       16  ecg.o(.data)
    <Data27>                                 0x240001a0   Data          16  ecg.o(.data)
    .data                                    0x240001b0   Section       16  ecg.o(.data)
    <Data28>                                 0x240001b0   Data          16  ecg.o(.data)
    .data                                    0x240001c0   Section       16  ecg.o(.data)
    <Data29>                                 0x240001c0   Data          16  ecg.o(.data)
    .data                                    0x240001d0   Section       16  ecg.o(.data)
    <Data30>                                 0x240001d0   Data          16  ecg.o(.data)
    .data                                    0x240001e0   Section       16  ecg.o(.data)
    <Data31>                                 0x240001e0   Data          16  ecg.o(.data)
    .data                                    0x240001f0   Section       16  ecg.o(.data)
    <Data32>                                 0x240001f0   Data          16  ecg.o(.data)
    .data                                    0x24000200   Section       16  ecg.o(.data)
    <Data33>                                 0x24000200   Data          16  ecg.o(.data)
    .data                                    0x24000210   Section       16  ecg.o(.data)
    <Data34>                                 0x24000210   Data          16  ecg.o(.data)
    .data                                    0x24000220   Section       16  ecg.o(.data)
    <Data35>                                 0x24000220   Data          16  ecg.o(.data)
    .data                                    0x24000230   Section       16  ecg.o(.data)
    <Data36>                                 0x24000230   Data          16  ecg.o(.data)
    .data                                    0x24000240   Section       16  ecg.o(.data)
    <Data37>                                 0x24000240   Data          16  ecg.o(.data)
    .data                                    0x24000250   Section       16  ecg.o(.data)
    <Data38>                                 0x24000250   Data          16  ecg.o(.data)
    .data                                    0x24000260   Section       16  ecg.o(.data)
    <Data39>                                 0x24000260   Data          16  ecg.o(.data)
    .data                                    0x24000270   Section       16  ecg.o(.data)
    <Data40>                                 0x24000270   Data          16  ecg.o(.data)
    .data                                    0x24000280   Section       16  ecg.o(.data)
    <Data41>                                 0x24000280   Data          16  ecg.o(.data)
    .data                                    0x24000290   Section       16  ecg.o(.data)
    <Data42>                                 0x24000290   Data          16  ecg.o(.data)
    .data                                    0x240002a0   Section       16  ecg.o(.data)
    <Data43>                                 0x240002a0   Data          16  ecg.o(.data)
    .data                                    0x240002b0   Section       16  ecg.o(.data)
    <Data44>                                 0x240002b0   Data          16  ecg.o(.data)
    .data                                    0x240002c0   Section       16  ecg.o(.data)
    <Data45>                                 0x240002c0   Data          16  ecg.o(.data)
    .data                                    0x240002d0   Section       16  ecg.o(.data)
    <Data46>                                 0x240002d0   Data          16  ecg.o(.data)
    .data                                    0x240002e0   Section       16  ecg.o(.data)
    <Data47>                                 0x240002e0   Data          16  ecg.o(.data)
    .data                                    0x240002f0   Section       16  ecg.o(.data)
    <Data48>                                 0x240002f0   Data          16  ecg.o(.data)
    .data                                    0x24000300   Section       16  ecg.o(.data)
    <Data49>                                 0x24000300   Data          16  ecg.o(.data)
    .data                                    0x24000310   Section       16  ecg.o(.data)
    <Data50>                                 0x24000310   Data          16  ecg.o(.data)
    .data                                    0x24000320   Section       16  ecg.o(.data)
    <Data51>                                 0x24000320   Data          16  ecg.o(.data)
    .data                                    0x24000330   Section       16  ecg.o(.data)
    <Data52>                                 0x24000330   Data          16  ecg.o(.data)
    .data                                    0x24000340   Section       16  ecg.o(.data)
    <Data53>                                 0x24000340   Data          16  ecg.o(.data)
    .data                                    0x24000350   Section       16  ecg.o(.data)
    <Data54>                                 0x24000350   Data          16  ecg.o(.data)
    .data                                    0x24000360   Section        4  ecg.o(.data)
    <Data55>                                 0x24000360   Data           4  ecg.o(.data)
    .data                                    0x24000364   Section        4  ecg.o(.data)
    <Data56>                                 0x24000364   Data           4  ecg.o(.data)
    .data                                    0x24000368   Section        4  ecg.o(.data)
    <Data57>                                 0x24000368   Data           4  ecg.o(.data)
    .data                                    0x2400036c   Section        4  ecg.o(.data)
    <Data58>                                 0x2400036c   Data           4  ecg.o(.data)
    .data                                    0x24000370   Section       48  ecg.o(.data)
    <Data59>                                 0x24000370   Data          48  ecg.o(.data)
    .data                                    0x240003a0   Section        4  ecg.o(.data)
    <Data60>                                 0x240003a0   Data           4  ecg.o(.data)
    .data                                    0x240003a4   Section        4  ecg.o(.data)
    <Data61>                                 0x240003a4   Data           4  ecg.o(.data)
    .data                                    0x240003a8   Section        8  ecg.o(.data)
    <Data62>                                 0x240003a8   Data           8  ecg.o(.data)
    .data                                    0x240003b0   Section        4  ecg.o(.data)
    <Data63>                                 0x240003b0   Data           4  ecg.o(.data)
    .data                                    0x240003b4   Section       48  ecg.o(.data)
    <Data64>                                 0x240003b4   Data          48  ecg.o(.data)
    .data                                    0x240003e4   Section        4  ecg.o(.data)
    <Data65>                                 0x240003e4   Data           4  ecg.o(.data)
    .data                                    0x240003e8   Section        4  ecg.o(.data)
    <Data66>                                 0x240003e8   Data           4  ecg.o(.data)
    .data                                    0x240003ec   Section        4  ecg.o(.data)
    <Data67>                                 0x240003ec   Data           4  ecg.o(.data)
    .data                                    0x240003f0   Section        4  ecg.o(.data)
    <Data68>                                 0x240003f0   Data           4  ecg.o(.data)
    .data                                    0x240003f4   Section       48  ecg.o(.data)
    <Data69>                                 0x240003f4   Data          48  ecg.o(.data)
    .data                                    0x24000424   Section        4  ecg.o(.data)
    <Data70>                                 0x24000424   Data           4  ecg.o(.data)
    .data                                    0x24000428   Section        4  ecg.o(.data)
    <Data71>                                 0x24000428   Data           4  ecg.o(.data)
    .data                                    0x2400042c   Section        8  ecg.o(.data)
    <Data72>                                 0x2400042c   Data           8  ecg.o(.data)
    .data                                    0x24000434   Section        4  ecg.o(.data)
    <Data73>                                 0x24000434   Data           4  ecg.o(.data)
    .data                                    0x24000438   Section       48  ecg.o(.data)
    <Data74>                                 0x24000438   Data          48  ecg.o(.data)
    .data                                    0x24000468   Section        4  ecg.o(.data)
    <Data75>                                 0x24000468   Data           4  ecg.o(.data)
    .data                                    0x2400046c   Section        4  ecg.o(.data)
    <Data76>                                 0x2400046c   Data           4  ecg.o(.data)
    .data                                    0x24000470   Section        4  ecg.o(.data)
    <Data77>                                 0x24000470   Data           4  ecg.o(.data)
    .data                                    0x24000474   Section        4  ecg.o(.data)
    <Data78>                                 0x24000474   Data           4  ecg.o(.data)
    .data                                    0x24000478   Section       48  ecg.o(.data)
    <Data79>                                 0x24000478   Data          48  ecg.o(.data)
    .data                                    0x240004a8   Section        4  ecg.o(.data)
    <Data80>                                 0x240004a8   Data           4  ecg.o(.data)
    .data                                    0x240004ac   Section        4  ecg.o(.data)
    <Data81>                                 0x240004ac   Data           4  ecg.o(.data)
    .data                                    0x240004b0   Section        8  ecg.o(.data)
    <Data82>                                 0x240004b0   Data           8  ecg.o(.data)
    .data                                    0x240004b8   Section        4  ecg.o(.data)
    <Data83>                                 0x240004b8   Data           4  ecg.o(.data)
    .data                                    0x240004bc   Section       48  ecg.o(.data)
    <Data84>                                 0x240004bc   Data          48  ecg.o(.data)
    .data                                    0x240004ec   Section        4  ecg.o(.data)
    <Data85>                                 0x240004ec   Data           4  ecg.o(.data)
    .data                                    0x240004f0   Section        4  ecg.o(.data)
    <Data86>                                 0x240004f0   Data           4  ecg.o(.data)
    .data                                    0x240004f4   Section        4  ecg.o(.data)
    <Data87>                                 0x240004f4   Data           4  ecg.o(.data)
    .data                                    0x240004f8   Section        4  ecg.o(.data)
    <Data88>                                 0x240004f8   Data           4  ecg.o(.data)
    .data                                    0x240004fc   Section       48  ecg.o(.data)
    <Data89>                                 0x240004fc   Data          48  ecg.o(.data)
    .data                                    0x2400052c   Section        4  ecg.o(.data)
    <Data91>                                 0x2400052c   Data           4  ecg.o(.data)
    .data                                    0x24000530   Section        4  ecg.o(.data)
    <Data92>                                 0x24000530   Data           4  ecg.o(.data)
    .data                                    0x24000534   Section        8  ecg.o(.data)
    <Data93>                                 0x24000534   Data           8  ecg.o(.data)
    .data                                    0x2400053c   Section        4  ecg.o(.data)
    <Data94>                                 0x2400053c   Data           4  ecg.o(.data)
    .data                                    0x24000540   Section       48  ecg.o(.data)
    <Data95>                                 0x24000540   Data          48  ecg.o(.data)
    .data                                    0x24000570   Section        4  ecg.o(.data)
    <Data96>                                 0x24000570   Data           4  ecg.o(.data)
    .data                                    0x24000574   Section        4  ecg.o(.data)
    <Data97>                                 0x24000574   Data           4  ecg.o(.data)
    .data                                    0x24000578   Section        4  ecg.o(.data)
    <Data98>                                 0x24000578   Data           4  ecg.o(.data)
    .data                                    0x2400057c   Section        4  ecg.o(.data)
    <Data99>                                 0x2400057c   Data           4  ecg.o(.data)
    .data                                    0x24000580   Section       48  ecg.o(.data)
    <Data100>                                0x24000580   Data          48  ecg.o(.data)
    .data                                    0x240005b0   Section        4  ecg.o(.data)
    <Data101>                                0x240005b0   Data           4  ecg.o(.data)
    .data                                    0x240005b4   Section        4  ecg.o(.data)
    <Data102>                                0x240005b4   Data           4  ecg.o(.data)
    .data                                    0x240005b8   Section       12  ecg.o(.data)
    <Data103>                                0x240005b8   Data          12  ecg.o(.data)
    .data                                    0x240005c4   Section        4  ecg.o(.data)
    <Data104>                                0x240005c4   Data           4  ecg.o(.data)
    .data                                    0x240005c8   Section       48  ecg.o(.data)
    <Data105>                                0x240005c8   Data          48  ecg.o(.data)
    .data                                    0x240005f8   Section        4  ecg.o(.data)
    <Data107>                                0x240005f8   Data           4  ecg.o(.data)
    .data                                    0x240005fc   Section        4  ecg.o(.data)
    <Data108>                                0x240005fc   Data           4  ecg.o(.data)
    .data                                    0x24000600   Section        4  ecg.o(.data)
    <Data109>                                0x24000600   Data           4  ecg.o(.data)
    .data                                    0x24000604   Section        4  ecg.o(.data)
    <Data110>                                0x24000604   Data           4  ecg.o(.data)
    .data                                    0x24000608   Section       48  ecg.o(.data)
    <Data111>                                0x24000608   Data          48  ecg.o(.data)
    .data                                    0x24000638   Section        4  ecg.o(.data)
    <Data112>                                0x24000638   Data           4  ecg.o(.data)
    .data                                    0x2400063c   Section        4  ecg.o(.data)
    <Data113>                                0x2400063c   Data           4  ecg.o(.data)
    .data                                    0x24000640   Section       12  ecg.o(.data)
    <Data114>                                0x24000640   Data          12  ecg.o(.data)
    .data                                    0x2400064c   Section        4  ecg.o(.data)
    <Data115>                                0x2400064c   Data           4  ecg.o(.data)
    .data                                    0x24000650   Section       48  ecg.o(.data)
    <Data116>                                0x24000650   Data          48  ecg.o(.data)
    .data                                    0x24000680   Section       16  ecg.o(.data)
    <Data118>                                0x24000680   Data          16  ecg.o(.data)
    .data                                    0x24000690   Section       28  ecg.o(.data)
    <Data119>                                0x24000690   Data          28  ecg.o(.data)
    .data                                    0x240006ac   Section       16  ecg.o(.data)
    <Data120>                                0x240006ac   Data          16  ecg.o(.data)
    .data                                    0x240006bc   Section       28  ecg.o(.data)
    <Data121>                                0x240006bc   Data          28  ecg.o(.data)
    .data                                    0x240006d8   Section        4  ecg.o(.data)
    <Data122>                                0x240006d8   Data           4  ecg.o(.data)
    .data                                    0x240006dc   Section        8  ecg.o(.data)
    <Data125>                                0x240006dc   Data           8  ecg.o(.data)
    .data                                    0x240006e4   Section       12  ecg.o(.data)
    <Data126>                                0x240006e4   Data          12  ecg.o(.data)
    .data                                    0x240006f0   Section        4  ecg.o(.data)
    <Data127>                                0x240006f0   Data           4  ecg.o(.data)
    .data                                    0x240006f4   Section        8  ecg.o(.data)
    <Data130>                                0x240006f4   Data           8  ecg.o(.data)
    .data                                    0x240006fc   Section       12  ecg.o(.data)
    <Data131>                                0x240006fc   Data          12  ecg.o(.data)
    .data                                    0x24000708   Section       24  ecg.o(.data)
    <Data132>                                0x24000708   Data          24  ecg.o(.data)
    .data                                    0x24000720   Section      484  ecg.o(.data)
    g_ecg_activations_map                    0x24000720   Data           4  ecg.o(.data)
    g_ecg_weights_map                        0x24000724   Data           4  ecg.o(.data)
    conv2d_conv2d_bias_array                 0x24000728   Data          16  ecg.o(.data)
    conv2d_1_conv2d_weights_array            0x24000738   Data          16  ecg.o(.data)
    conv2d_1_conv2d_bias_array               0x24000748   Data          16  ecg.o(.data)
    batch_normalization_1_scale_array        0x24000758   Data          16  ecg.o(.data)
    batch_normalization_1_bias_array         0x24000768   Data          16  ecg.o(.data)
    dense_dense_weights_array                0x24000778   Data          16  ecg.o(.data)
    dense_dense_bias_array                   0x24000788   Data          16  ecg.o(.data)
    dense_1_dense_weights_array              0x24000798   Data          16  ecg.o(.data)
    dense_1_dense_bias_array                 0x240007a8   Data          16  ecg.o(.data)
    dense_2_dense_weights_array              0x240007b8   Data          16  ecg.o(.data)
    dense_2_dense_bias_array                 0x240007c8   Data          16  ecg.o(.data)
    input_0_output_array                     0x240007d8   Data          16  ecg.o(.data)
    conv2d_conv2d_output_array               0x240007e8   Data          16  ecg.o(.data)
    conv2d_output_array                      0x240007f8   Data          16  ecg.o(.data)
    conv2d_1_conv2d_output_array             0x24000808   Data          16  ecg.o(.data)
    conv2d_1_output_array                    0x24000818   Data          16  ecg.o(.data)
    batch_normalization_1_output_array       0x24000828   Data          16  ecg.o(.data)
    average_pooling2d_output_array           0x24000838   Data          16  ecg.o(.data)
    dense_dense_output_array                 0x24000848   Data          16  ecg.o(.data)
    dense_output_array                       0x24000858   Data          16  ecg.o(.data)
    dense_1_dense_output_array               0x24000868   Data          16  ecg.o(.data)
    dense_1_output_array                     0x24000878   Data          16  ecg.o(.data)
    dense_2_dense_output_array               0x24000888   Data          16  ecg.o(.data)
    dense_2_output_array                     0x24000898   Data          16  ecg.o(.data)
    conv2d_conv2d_weights_array              0x240008a8   Data          16  ecg.o(.data)
    g_ecg                                    0x240008b8   Data          76  ecg.o(.data)
    .data                                    0x24000904   Section       28  ecg.o(.data)
    conv2d_conv2d_bias                       0x24000904   Data          28  ecg.o(.data)
    .data                                    0x24000920   Section       28  ecg.o(.data)
    conv2d_1_conv2d_weights                  0x24000920   Data          28  ecg.o(.data)
    .data                                    0x2400093c   Section       28  ecg.o(.data)
    conv2d_1_conv2d_bias                     0x2400093c   Data          28  ecg.o(.data)
    .data                                    0x24000958   Section       28  ecg.o(.data)
    batch_normalization_1_scale              0x24000958   Data          28  ecg.o(.data)
    .data                                    0x24000974   Section       28  ecg.o(.data)
    batch_normalization_1_bias               0x24000974   Data          28  ecg.o(.data)
    .data                                    0x24000990   Section       28  ecg.o(.data)
    dense_dense_weights                      0x24000990   Data          28  ecg.o(.data)
    .data                                    0x240009ac   Section       28  ecg.o(.data)
    dense_dense_bias                         0x240009ac   Data          28  ecg.o(.data)
    .data                                    0x240009c8   Section       28  ecg.o(.data)
    dense_1_dense_weights                    0x240009c8   Data          28  ecg.o(.data)
    .data                                    0x240009e4   Section       28  ecg.o(.data)
    dense_1_dense_bias                       0x240009e4   Data          28  ecg.o(.data)
    .data                                    0x24000a00   Section       28  ecg.o(.data)
    dense_2_dense_weights                    0x24000a00   Data          28  ecg.o(.data)
    .data                                    0x24000a1c   Section       28  ecg.o(.data)
    dense_2_dense_bias                       0x24000a1c   Data          28  ecg.o(.data)
    .data                                    0x24000a38   Section       28  ecg.o(.data)
    input_0_output                           0x24000a38   Data          28  ecg.o(.data)
    .data                                    0x24000a54   Section       28  ecg.o(.data)
    input_0_output0                          0x24000a54   Data          28  ecg.o(.data)
    .data                                    0x24000a70   Section       28  ecg.o(.data)
    conv2d_conv2d_output                     0x24000a70   Data          28  ecg.o(.data)
    .data                                    0x24000a8c   Section       28  ecg.o(.data)
    conv2d_output                            0x24000a8c   Data          28  ecg.o(.data)
    .data                                    0x24000aa8   Section       28  ecg.o(.data)
    conv2d_1_conv2d_output                   0x24000aa8   Data          28  ecg.o(.data)
    .data                                    0x24000ac4   Section       28  ecg.o(.data)
    conv2d_1_output                          0x24000ac4   Data          28  ecg.o(.data)
    .data                                    0x24000ae0   Section       28  ecg.o(.data)
    batch_normalization_1_output             0x24000ae0   Data          28  ecg.o(.data)
    .data                                    0x24000afc   Section       28  ecg.o(.data)
    average_pooling2d_output                 0x24000afc   Data          28  ecg.o(.data)
    .data                                    0x24000b18   Section       28  ecg.o(.data)
    average_pooling2d_output0                0x24000b18   Data          28  ecg.o(.data)
    .data                                    0x24000b34   Section       28  ecg.o(.data)
    dense_dense_output                       0x24000b34   Data          28  ecg.o(.data)
    .data                                    0x24000b50   Section       28  ecg.o(.data)
    dense_output                             0x24000b50   Data          28  ecg.o(.data)
    .data                                    0x24000b6c   Section       28  ecg.o(.data)
    dense_1_dense_output                     0x24000b6c   Data          28  ecg.o(.data)
    .data                                    0x24000b88   Section       28  ecg.o(.data)
    dense_1_output                           0x24000b88   Data          28  ecg.o(.data)
    .data                                    0x24000ba4   Section       28  ecg.o(.data)
    dense_2_dense_output                     0x24000ba4   Data          28  ecg.o(.data)
    .data                                    0x24000bc0   Section       28  ecg.o(.data)
    dense_2_output                           0x24000bc0   Data          28  ecg.o(.data)
    .data                                    0x24000bdc   Section       28  ecg.o(.data)
    conv2d_conv2d_weights                    0x24000bdc   Data          28  ecg.o(.data)
    .data                                    0x24000bf8   Section       32  ecg.o(.data)
    dense_2_layer                            0x24000bf8   Data          32  ecg.o(.data)
    .data                                    0x24000c18   Section       28  ecg.o(.data)
    dense_2_dense_layer                      0x24000c18   Data          28  ecg.o(.data)
    .data                                    0x24000c34   Section       32  ecg.o(.data)
    dense_1_layer                            0x24000c34   Data          32  ecg.o(.data)
    .data                                    0x24000c54   Section       28  ecg.o(.data)
    dense_1_dense_layer                      0x24000c54   Data          28  ecg.o(.data)
    .data                                    0x24000c70   Section       32  ecg.o(.data)
    dense_layer                              0x24000c70   Data          32  ecg.o(.data)
    .data                                    0x24000c90   Section       28  ecg.o(.data)
    dense_dense_layer                        0x24000c90   Data          28  ecg.o(.data)
    .data                                    0x24000cac   Section       56  ecg.o(.data)
    average_pooling2d_layer                  0x24000cac   Data          56  ecg.o(.data)
    .data                                    0x24000ce4   Section       28  ecg.o(.data)
    batch_normalization_1_layer              0x24000ce4   Data          28  ecg.o(.data)
    .data                                    0x24000d00   Section       32  ecg.o(.data)
    conv2d_1_layer                           0x24000d00   Data          32  ecg.o(.data)
    .data                                    0x24000d20   Section       68  ecg.o(.data)
    conv2d_1_conv2d_layer                    0x24000d20   Data          68  ecg.o(.data)
    .data                                    0x24000d64   Section       32  ecg.o(.data)
    conv2d_layer                             0x24000d64   Data          32  ecg.o(.data)
    .data                                    0x24000d84   Section       68  ecg.o(.data)
    conv2d_conv2d_layer                      0x24000d84   Data          68  ecg.o(.data)
    .data                                    0x24000dc8   Section       16  ecg_data.o(.data)
    <Data1>                                  0x24000dc8   Data          16  ecg_data.o(.data)
    .data                                    0x24000dd8   Section       16  ecg_data.o(.data)
    <Data2>                                  0x24000dd8   Data          16  ecg_data.o(.data)
    .data                                    0x24000de8   Section       28  ecg_data.o(.data)
    .data                                    0x24000e04   Section       28  ecg_data.o(.data)
    .data                                    0x24000e20   Section       12  stm32h7xx_hal.o(.data)
    .data                                    0x24000e2c   Section        8  system_stm32h7xx.o(.data)
    .data                                    0x24000e34   Section        8  usart.o(.data)
    .data                                    0x24000e3c   Section        4  usart.o(.data)
    .data                                    0x24000e40   Section        2  delay.o(.data)
    g_fac_us                                 0x24000e40   Data           2  delay.o(.data)
    .data                                    0x24000e44   Section     2012  ecg_run.o(.data)
    network                                  0x24000e44   Data           4  ecg_run.o(.data)
    ai_input                                 0x24000e48   Data           4  ecg_run.o(.data)
    ai_output                                0x24000e4c   Data           4  ecg_run.o(.data)
    .data                                    0x24001620   Section        8  ads1292.o(.data)
    .data                                    0x24001628   Section       64  tasks.o(.data)
    uxDeletedTasksWaitingCleanUp             0x2400162c   Data           4  tasks.o(.data)
    uxCurrentNumberOfTasks                   0x24001630   Data           4  tasks.o(.data)
    xTickCount                               0x24001634   Data           4  tasks.o(.data)
    uxTopReadyPriority                       0x24001638   Data           4  tasks.o(.data)
    xSchedulerRunning                        0x2400163c   Data           4  tasks.o(.data)
    xPendedTicks                             0x24001640   Data           4  tasks.o(.data)
    xYieldPending                            0x24001644   Data           4  tasks.o(.data)
    xNumOfOverflows                          0x24001648   Data           4  tasks.o(.data)
    uxTaskNumber                             0x2400164c   Data           4  tasks.o(.data)
    xNextTaskUnblockTime                     0x24001650   Data           4  tasks.o(.data)
    xIdleTaskHandle                          0x24001654   Data           4  tasks.o(.data)
    uxSchedulerSuspended                     0x2400165c   Data           4  tasks.o(.data)
    pxDelayedTaskList                        0x24001660   Data           4  tasks.o(.data)
    pxOverflowDelayedTaskList                0x24001664   Data           4  tasks.o(.data)
    .data                                    0x24001668   Section       20  timers.o(.data)
    xTimerQueue                              0x24001668   Data           4  timers.o(.data)
    xTimerTaskHandle                         0x2400166c   Data           4  timers.o(.data)
    xLastTime                                0x24001670   Data           4  timers.o(.data)
    pxCurrentTimerList                       0x24001674   Data           4  timers.o(.data)
    pxOverflowTimerList                      0x24001678   Data           4  timers.o(.data)
    .data                                    0x2400167c   Section       32  heap_4.o(.data)
    pxEnd                                    0x2400167c   Data           4  heap_4.o(.data)
    xFreeBytesRemaining                      0x24001680   Data           4  heap_4.o(.data)
    xMinimumEverFreeBytesRemaining           0x24001684   Data           4  heap_4.o(.data)
    xNumberOfSuccessfulAllocations           0x24001688   Data           4  heap_4.o(.data)
    xNumberOfSuccessfulFrees                 0x2400168c   Data           4  heap_4.o(.data)
    xBlockAllocatedBit                       0x24001690   Data           4  heap_4.o(.data)
    xStart                                   0x24001694   Data           8  heap_4.o(.data)
    .data                                    0x2400169c   Section       12  port.o(.data)
    ucMaxSysCallPriority                     0x2400169c   Data           1  port.o(.data)
    uxCriticalNesting                        0x240016a0   Data           4  port.o(.data)
    ulMaxPRIGROUPValue                       0x240016a4   Data           4  port.o(.data)
    .data                                    0x240016a8   Section       36  freertos_demo.o(.data)
    .data                                    0x240016cc   Section       52  data_processing.o(.data)
    up_max                                   0x240016d0   Data           4  data_processing.o(.data)
    dowm_max                                 0x240016d4   Data           4  data_processing.o(.data)
    temp_max                                 0x240016d8   Data           4  data_processing.o(.data)
    temp_min                                 0x240016dc   Data           4  data_processing.o(.data)
    count                                    0x240016e0   Data           4  data_processing.o(.data)
    if_trans                                 0x240016e4   Data           4  data_processing.o(.data)
    up_max                                   0x240016e8   Data           4  data_processing.o(.data)
    dowm_max                                 0x240016ec   Data           4  data_processing.o(.data)
    temp_max                                 0x240016f0   Data           4  data_processing.o(.data)
    temp_min                                 0x240016f4   Data           4  data_processing.o(.data)
    count                                    0x240016f8   Data           4  data_processing.o(.data)
    if_trans                                 0x240016fc   Data           4  data_processing.o(.data)
    .bss                                     0x24001700   Section       16  ecg.o(.bss)
    <Data90>                                 0x24001700   Data          16  ecg.o(.bss)
    .bss                                     0x24001710   Section       16  ecg.o(.bss)
    <Data106>                                0x24001710   Data          16  ecg.o(.bss)
    .bss                                     0x24001720   Section       16  ecg.o(.bss)
    <Data117>                                0x24001720   Data          16  ecg.o(.bss)
    .bss                                     0x24001730   Section       28  ecg.o(.bss)
    <Data123>                                0x24001730   Data          28  ecg.o(.bss)
    .bss                                     0x2400174c   Section       16  ecg.o(.bss)
    <Data124>                                0x2400174c   Data          16  ecg.o(.bss)
    .bss                                     0x2400175c   Section       28  ecg.o(.bss)
    <Data128>                                0x2400175c   Data          28  ecg.o(.bss)
    .bss                                     0x24001778   Section       16  ecg.o(.bss)
    <Data129>                                0x24001778   Data          16  ecg.o(.bss)
    .bss                                     0x240017a0   Section     2032  main.o(.bss)
    in_data                                  0x240017a0   Data        2000  main.o(.bss)
    out_data                                 0x24001f80   Data          16  main.o(.bss)
    .bss                                     0x24001f90   Section       36  crc.o(.bss)
    .bss                                     0x24001fb4   Section      488  usart.o(.bss)
    .bss                                     0x2400219c   Section      385  spi.o(.bss)
    .bss                                     0x24002320   Section    32140  ecg_run.o(.bss)
    activations                              0x24002320   Data       32140  ecg_run.o(.bss)
    .bss                                     0x2400a0ac   Section        9  ads1292.o(.bss)
    .bss                                     0x2400a0b8   Section       64  queue.o(.bss)
    .bss                                     0x2400a0f8   Section      740  tasks.o(.bss)
    pxReadyTasksLists                        0x2400a0f8   Data         640  tasks.o(.bss)
    xDelayedTaskList1                        0x2400a378   Data          20  tasks.o(.bss)
    xDelayedTaskList2                        0x2400a38c   Data          20  tasks.o(.bss)
    xPendingReadyList                        0x2400a3a0   Data          20  tasks.o(.bss)
    xTasksWaitingTermination                 0x2400a3b4   Data          20  tasks.o(.bss)
    xSuspendedTaskList                       0x2400a3c8   Data          20  tasks.o(.bss)
    .bss                                     0x2400a3dc   Section       40  timers.o(.bss)
    xActiveTimerList1                        0x2400a3dc   Data          20  timers.o(.bss)
    xActiveTimerList2                        0x2400a3f0   Data          20  timers.o(.bss)
    .bss                                     0x2400a404   Section    15360  heap_4.o(.bss)
    ucHeap                                   0x2400a404   Data       15360  heap_4.o(.bss)
    .bss                                     0x2400e020   Section     2032  freertos_demo.o(.bss)
    out_data1                                0x2400e020   Data          16  freertos_demo.o(.bss)
    in_data1                                 0x2400e040   Data        2000  freertos_demo.o(.bss)
    .bss                                     0x2400e810   Section     1056  data_processing.o(.bss)
    firState_ecg                             0x2400e810   Data         516  data_processing.o(.bss)
    firState_dsp                             0x2400ea14   Data         516  data_processing.o(.bss)
    .bss                                     0x2400ec30   Section       96  libspace.o(.bss)
    HEAP                                     0x2400ec90   Section     2048  startup_stm32h743xx.o(HEAP)
    Heap_Mem                                 0x2400ec90   Data        2048  startup_stm32h743xx.o(HEAP)
    STACK                                    0x2400f490   Section     2048  startup_stm32h743xx.o(STACK)
    Stack_Mem                                0x2400f490   Data        2048  startup_stm32h743xx.o(STACK)
    __initial_sp                             0x2400fc90   Data           0  startup_stm32h743xx.o(STACK)

    Global Symbols

    Symbol Name                              Value     Ov Type        Size  Object(Section)

    BuildAttributes$$THM_ISAv4$E$P$D$K$B$S$7EM$VFPv5_D16$PE$PLD8$A:L22UL41UL21$X:L11$S22US41US21$IEEE1$IW$USESV6$~STKCKD$USESV7$~SHL$OTIME$ROPI$IEEEX$EBA8$UX$STANDARDLIB$REQ8$PRES8$EABIv2 0x00000000   Number         0  anon$$obj.o ABSOLUTE
    __ARM_use_no_argv                        0x00000000   Number         0  main.o ABSOLUTE
    _printf_flags                            0x00000000   Number         0  printf_stubs.o ABSOLUTE
    _printf_return_value                     0x00000000   Number         0  printf_stubs.o ABSOLUTE
    _printf_sizespec                         0x00000000   Number         0  printf_stubs.o ABSOLUTE
    _printf_widthprec                        0x00000000   Number         0  printf_stubs.o ABSOLUTE
    __ARM_exceptions_init                     - Undefined Weak Reference
    __alloca_initialize                       - Undefined Weak Reference
    __arm_preinit_                            - Undefined Weak Reference
    __cpp_initialize__aeabi_                  - Undefined Weak Reference
    __cxa_finalize                            - Undefined Weak Reference
    __sigvec_lookup                           - Undefined Weak Reference
    __user_heap_extent                        - Undefined Weak Reference
    _atexit_init                              - Undefined Weak Reference
    _call_atexit_fns                          - Undefined Weak Reference
    _clock_init                               - Undefined Weak Reference
    _fp_trap_init                             - Undefined Weak Reference
    _fp_trap_shutdown                         - Undefined Weak Reference
    _get_lc_collate                           - Undefined Weak Reference
    _get_lc_ctype                             - Undefined Weak Reference
    _get_lc_monetary                          - Undefined Weak Reference
    _get_lc_time                              - Undefined Weak Reference
    _getenv_init                              - Undefined Weak Reference
    _handle_redirection                       - Undefined Weak Reference
    _initio                                   - Undefined Weak Reference
    _mutex_acquire                            - Undefined Weak Reference
    _mutex_free                               - Undefined Weak Reference
    _mutex_release                            - Undefined Weak Reference
    _printf_mbtowc                            - Undefined Weak Reference
    _printf_truncate_signed                   - Undefined Weak Reference
    _printf_truncate_unsigned                 - Undefined Weak Reference
    _rand_init                                - Undefined Weak Reference
    _signal_finish                            - Undefined Weak Reference
    _signal_init                              - Undefined Weak Reference
    _terminateio                              - Undefined Weak Reference
    __Vectors_Size                           0x00000298   Number         0  startup_stm32h743xx.o ABSOLUTE
    __Vectors                                0x08000000   Data           4  startup_stm32h743xx.o(RESET)
    __Vectors_End                            0x08000298   Data           0  startup_stm32h743xx.o(RESET)
    __main                                   0x08000299   Thumb Code     8  __main.o(!!!main)
    __scatterload                            0x080002a1   Thumb Code     0  __scatter.o(!!!scatter)
    __scatterload_rt2                        0x080002a1   Thumb Code    44  __scatter.o(!!!scatter)
    __scatterload_rt2_thumb_only             0x080002a1   Thumb Code     0  __scatter.o(!!!scatter)
    __scatterload_null                       0x080002af   Thumb Code     0  __scatter.o(!!!scatter)
    __decompress                             0x080002d5   Thumb Code    90  __dczerorl2.o(!!dczerorl2)
    __decompress1                            0x080002d5   Thumb Code     0  __dczerorl2.o(!!dczerorl2)
    __scatterload_zeroinit                   0x08000331   Thumb Code    28  __scatter_zi.o(!!handler_zi)
    _printf_f                                0x0800034d   Thumb Code     0  _printf_f.o(.ARM.Collect$$_printf_percent$$00000003)
    _printf_percent                          0x0800034d   Thumb Code     0  _printf_percent.o(.ARM.Collect$$_printf_percent$$00000000)
    _printf_d                                0x08000353   Thumb Code     0  _printf_d.o(.ARM.Collect$$_printf_percent$$00000009)
    _printf_x                                0x08000359   Thumb Code     0  _printf_x.o(.ARM.Collect$$_printf_percent$$0000000C)
    _printf_c                                0x0800035f   Thumb Code     0  _printf_c.o(.ARM.Collect$$_printf_percent$$00000013)
    _printf_s                                0x08000365   Thumb Code     0  _printf_s.o(.ARM.Collect$$_printf_percent$$00000014)
    _printf_percent_end                      0x0800036b   Thumb Code     0  _printf_percent_end.o(.ARM.Collect$$_printf_percent$$00000017)
    __rt_lib_init                            0x0800036f   Thumb Code     0  libinit.o(.ARM.Collect$$libinit$$00000000)
    __rt_lib_init_fp_1                       0x08000371   Thumb Code     0  libinit2.o(.ARM.Collect$$libinit$$00000001)
    __rt_lib_init_heap_2                     0x08000375   Thumb Code     0  libinit2.o(.ARM.Collect$$libinit$$00000005)
    __rt_lib_init_preinit_1                  0x08000375   Thumb Code     0  libinit2.o(.ARM.Collect$$libinit$$00000004)
    __rt_lib_init_heap_1                     0x0800037d   Thumb Code     0  libinit2.o(.ARM.Collect$$libinit$$0000000A)
    __rt_lib_init_lc_common                  0x0800037d   Thumb Code     0  libinit2.o(.ARM.Collect$$libinit$$0000000F)
    __rt_lib_init_rand_1                     0x0800037d   Thumb Code     0  libinit2.o(.ARM.Collect$$libinit$$0000000E)
    __rt_lib_init_user_alloc_1               0x0800037d   Thumb Code     0  libinit2.o(.ARM.Collect$$libinit$$0000000C)
    __rt_lib_init_lc_collate_1               0x08000383   Thumb Code     0  libinit2.o(.ARM.Collect$$libinit$$00000011)
    __rt_lib_init_lc_ctype_1                 0x08000383   Thumb Code     0  libinit2.o(.ARM.Collect$$libinit$$00000013)
    __rt_lib_init_lc_monetary_1              0x08000383   Thumb Code     0  libinit2.o(.ARM.Collect$$libinit$$00000015)
    __rt_lib_init_lc_numeric_2               0x08000383   Thumb Code     0  libinit2.o(.ARM.Collect$$libinit$$00000016)
    __rt_lib_init_alloca_1                   0x0800038d   Thumb Code     0  libinit2.o(.ARM.Collect$$libinit$$0000002E)
    __rt_lib_init_argv_1                     0x0800038d   Thumb Code     0  libinit2.o(.ARM.Collect$$libinit$$0000002C)
    __rt_lib_init_atexit_1                   0x0800038d   Thumb Code     0  libinit2.o(.ARM.Collect$$libinit$$0000001B)
    __rt_lib_init_clock_1                    0x0800038d   Thumb Code     0  libinit2.o(.ARM.Collect$$libinit$$00000021)
    __rt_lib_init_cpp_1                      0x0800038d   Thumb Code     0  libinit2.o(.ARM.Collect$$libinit$$00000032)
    __rt_lib_init_exceptions_1               0x0800038d   Thumb Code     0  libinit2.o(.ARM.Collect$$libinit$$00000030)
    __rt_lib_init_fp_trap_1                  0x0800038d   Thumb Code     0  libinit2.o(.ARM.Collect$$libinit$$0000001F)
    __rt_lib_init_getenv_1                   0x0800038d   Thumb Code     0  libinit2.o(.ARM.Collect$$libinit$$00000023)
    __rt_lib_init_lc_numeric_1               0x0800038d   Thumb Code     0  libinit2.o(.ARM.Collect$$libinit$$00000017)
    __rt_lib_init_lc_time_1                  0x0800038d   Thumb Code     0  libinit2.o(.ARM.Collect$$libinit$$00000019)
    __rt_lib_init_return                     0x0800038d   Thumb Code     0  libinit2.o(.ARM.Collect$$libinit$$00000033)
    __rt_lib_init_signal_1                   0x0800038d   Thumb Code     0  libinit2.o(.ARM.Collect$$libinit$$0000001D)
    __rt_lib_init_stdio_1                    0x0800038d   Thumb Code     0  libinit2.o(.ARM.Collect$$libinit$$00000025)
    __rt_lib_shutdown                        0x0800038f   Thumb Code     0  libshutdown.o(.ARM.Collect$$libshutdown$$00000000)
    __rt_lib_shutdown_cpp_1                  0x08000391   Thumb Code     0  libshutdown2.o(.ARM.Collect$$libshutdown$$00000002)
    __rt_lib_shutdown_fp_trap_1              0x08000391   Thumb Code     0  libshutdown2.o(.ARM.Collect$$libshutdown$$00000007)
    __rt_lib_shutdown_heap_1                 0x08000391   Thumb Code     0  libshutdown2.o(.ARM.Collect$$libshutdown$$0000000F)
    __rt_lib_shutdown_return                 0x08000391   Thumb Code     0  libshutdown2.o(.ARM.Collect$$libshutdown$$00000010)
    __rt_lib_shutdown_signal_1               0x08000391   Thumb Code     0  libshutdown2.o(.ARM.Collect$$libshutdown$$0000000A)
    __rt_lib_shutdown_stdio_1                0x08000391   Thumb Code     0  libshutdown2.o(.ARM.Collect$$libshutdown$$00000004)
    __rt_lib_shutdown_user_alloc_1           0x08000391   Thumb Code     0  libshutdown2.o(.ARM.Collect$$libshutdown$$0000000C)
    __rt_entry                               0x08000393   Thumb Code     0  __rtentry.o(.ARM.Collect$$rtentry$$00000000)
    __rt_entry_presh_1                       0x08000393   Thumb Code     0  __rtentry2.o(.ARM.Collect$$rtentry$$00000002)
    __rt_entry_sh                            0x08000393   Thumb Code     0  __rtentry4.o(.ARM.Collect$$rtentry$$00000004)
    __rt_entry_li                            0x08000399   Thumb Code     0  __rtentry2.o(.ARM.Collect$$rtentry$$0000000A)
    __rt_entry_postsh_1                      0x08000399   Thumb Code     0  __rtentry2.o(.ARM.Collect$$rtentry$$00000009)
    __rt_entry_main                          0x0800039d   Thumb Code     0  __rtentry2.o(.ARM.Collect$$rtentry$$0000000D)
    __rt_entry_postli_1                      0x0800039d   Thumb Code     0  __rtentry2.o(.ARM.Collect$$rtentry$$0000000C)
    __rt_exit                                0x080003a5   Thumb Code     0  rtexit.o(.ARM.Collect$$rtexit$$00000000)
    __rt_exit_ls                             0x080003a7   Thumb Code     0  rtexit2.o(.ARM.Collect$$rtexit$$00000003)
    __rt_exit_prels_1                        0x080003a7   Thumb Code     0  rtexit2.o(.ARM.Collect$$rtexit$$00000002)
    __rt_exit_exit                           0x080003ab   Thumb Code     0  rtexit2.o(.ARM.Collect$$rtexit$$00000004)
    SVC_Handler                              0x080003b1   Thumb Code    28  port.o(.emb_text)
    __asm___6_port_c_39a90d8d__prvStartFirstTask 0x080003d1   Thumb Code    36  port.o(.emb_text)
    __asm___6_port_c_39a90d8d__prvEnableVFP  0x080003f9   Thumb Code    16  port.o(.emb_text)
    PendSV_Handler                           0x0800040d   Thumb Code    92  port.o(.emb_text)
    vPortGetIPSR                             0x0800046d   Thumb Code     6  port.o(.emb_text)
    Reset_Handler                            0x08000475   Thumb Code     8  startup_stm32h743xx.o(.text)
    _maybe_terminate_alloc                   0x08000475   Thumb Code     0  maybetermalloc1.o(.emb_text)
    ADC3_IRQHandler                          0x0800048f   Thumb Code     0  startup_stm32h743xx.o(.text)
    ADC_IRQHandler                           0x0800048f   Thumb Code     0  startup_stm32h743xx.o(.text)
    BDMA_Channel0_IRQHandler                 0x0800048f   Thumb Code     0  startup_stm32h743xx.o(.text)
    BDMA_Channel1_IRQHandler                 0x0800048f   Thumb Code     0  startup_stm32h743xx.o(.text)
    BDMA_Channel2_IRQHandler                 0x0800048f   Thumb Code     0  startup_stm32h743xx.o(.text)
    BDMA_Channel3_IRQHandler                 0x0800048f   Thumb Code     0  startup_stm32h743xx.o(.text)
    BDMA_Channel4_IRQHandler                 0x0800048f   Thumb Code     0  startup_stm32h743xx.o(.text)
    BDMA_Channel5_IRQHandler                 0x0800048f   Thumb Code     0  startup_stm32h743xx.o(.text)
    BDMA_Channel6_IRQHandler                 0x0800048f   Thumb Code     0  startup_stm32h743xx.o(.text)
    BDMA_Channel7_IRQHandler                 0x0800048f   Thumb Code     0  startup_stm32h743xx.o(.text)
    CEC_IRQHandler                           0x0800048f   Thumb Code     0  startup_stm32h743xx.o(.text)
    COMP1_IRQHandler                         0x0800048f   Thumb Code     0  startup_stm32h743xx.o(.text)
    CRS_IRQHandler                           0x0800048f   Thumb Code     0  startup_stm32h743xx.o(.text)
    DCMI_IRQHandler                          0x0800048f   Thumb Code     0  startup_stm32h743xx.o(.text)
    DFSDM1_FLT0_IRQHandler                   0x0800048f   Thumb Code     0  startup_stm32h743xx.o(.text)
    DFSDM1_FLT1_IRQHandler                   0x0800048f   Thumb Code     0  startup_stm32h743xx.o(.text)
    DFSDM1_FLT2_IRQHandler                   0x0800048f   Thumb Code     0  startup_stm32h743xx.o(.text)
    DFSDM1_FLT3_IRQHandler                   0x0800048f   Thumb Code     0  startup_stm32h743xx.o(.text)
    DMA1_Stream0_IRQHandler                  0x0800048f   Thumb Code     0  startup_stm32h743xx.o(.text)
    DMA1_Stream1_IRQHandler                  0x0800048f   Thumb Code     0  startup_stm32h743xx.o(.text)
    DMA1_Stream2_IRQHandler                  0x0800048f   Thumb Code     0  startup_stm32h743xx.o(.text)
    DMA1_Stream3_IRQHandler                  0x0800048f   Thumb Code     0  startup_stm32h743xx.o(.text)
    DMA1_Stream4_IRQHandler                  0x0800048f   Thumb Code     0  startup_stm32h743xx.o(.text)
    DMA1_Stream5_IRQHandler                  0x0800048f   Thumb Code     0  startup_stm32h743xx.o(.text)
    DMA1_Stream6_IRQHandler                  0x0800048f   Thumb Code     0  startup_stm32h743xx.o(.text)
    DMA1_Stream7_IRQHandler                  0x0800048f   Thumb Code     0  startup_stm32h743xx.o(.text)
    DMA2D_IRQHandler                         0x0800048f   Thumb Code     0  startup_stm32h743xx.o(.text)
    DMA2_Stream0_IRQHandler                  0x0800048f   Thumb Code     0  startup_stm32h743xx.o(.text)
    DMA2_Stream1_IRQHandler                  0x0800048f   Thumb Code     0  startup_stm32h743xx.o(.text)
    DMA2_Stream4_IRQHandler                  0x0800048f   Thumb Code     0  startup_stm32h743xx.o(.text)
    DMA2_Stream5_IRQHandler                  0x0800048f   Thumb Code     0  startup_stm32h743xx.o(.text)
    DMA2_Stream6_IRQHandler                  0x0800048f   Thumb Code     0  startup_stm32h743xx.o(.text)
    DMA2_Stream7_IRQHandler                  0x0800048f   Thumb Code     0  startup_stm32h743xx.o(.text)
    DMAMUX1_OVR_IRQHandler                   0x0800048f   Thumb Code     0  startup_stm32h743xx.o(.text)
    DMAMUX2_OVR_IRQHandler                   0x0800048f   Thumb Code     0  startup_stm32h743xx.o(.text)
    ECC_IRQHandler                           0x0800048f   Thumb Code     0  startup_stm32h743xx.o(.text)
    ETH_IRQHandler                           0x0800048f   Thumb Code     0  startup_stm32h743xx.o(.text)
    ETH_WKUP_IRQHandler                      0x0800048f   Thumb Code     0  startup_stm32h743xx.o(.text)
    EXTI0_IRQHandler                         0x0800048f   Thumb Code     0  startup_stm32h743xx.o(.text)
    EXTI15_10_IRQHandler                     0x0800048f   Thumb Code     0  startup_stm32h743xx.o(.text)
    EXTI1_IRQHandler                         0x0800048f   Thumb Code     0  startup_stm32h743xx.o(.text)
    EXTI2_IRQHandler                         0x0800048f   Thumb Code     0  startup_stm32h743xx.o(.text)
    EXTI3_IRQHandler                         0x0800048f   Thumb Code     0  startup_stm32h743xx.o(.text)
    EXTI4_IRQHandler                         0x0800048f   Thumb Code     0  startup_stm32h743xx.o(.text)
    FDCAN1_IT0_IRQHandler                    0x0800048f   Thumb Code     0  startup_stm32h743xx.o(.text)
    FDCAN1_IT1_IRQHandler                    0x0800048f   Thumb Code     0  startup_stm32h743xx.o(.text)
    FDCAN2_IT0_IRQHandler                    0x0800048f   Thumb Code     0  startup_stm32h743xx.o(.text)
    FDCAN2_IT1_IRQHandler                    0x0800048f   Thumb Code     0  startup_stm32h743xx.o(.text)
    FDCAN_CAL_IRQHandler                     0x0800048f   Thumb Code     0  startup_stm32h743xx.o(.text)
    FLASH_IRQHandler                         0x0800048f   Thumb Code     0  startup_stm32h743xx.o(.text)
    FMC_IRQHandler                           0x0800048f   Thumb Code     0  startup_stm32h743xx.o(.text)
    FPU_IRQHandler                           0x0800048f   Thumb Code     0  startup_stm32h743xx.o(.text)
    HRTIM1_FLT_IRQHandler                    0x0800048f   Thumb Code     0  startup_stm32h743xx.o(.text)
    HRTIM1_Master_IRQHandler                 0x0800048f   Thumb Code     0  startup_stm32h743xx.o(.text)
    HRTIM1_TIMA_IRQHandler                   0x0800048f   Thumb Code     0  startup_stm32h743xx.o(.text)
    HRTIM1_TIMB_IRQHandler                   0x0800048f   Thumb Code     0  startup_stm32h743xx.o(.text)
    HRTIM1_TIMC_IRQHandler                   0x0800048f   Thumb Code     0  startup_stm32h743xx.o(.text)
    HRTIM1_TIMD_IRQHandler                   0x0800048f   Thumb Code     0  startup_stm32h743xx.o(.text)
    HRTIM1_TIME_IRQHandler                   0x0800048f   Thumb Code     0  startup_stm32h743xx.o(.text)
    HSEM1_IRQHandler                         0x0800048f   Thumb Code     0  startup_stm32h743xx.o(.text)
    I2C1_ER_IRQHandler                       0x0800048f   Thumb Code     0  startup_stm32h743xx.o(.text)
    I2C1_EV_IRQHandler                       0x0800048f   Thumb Code     0  startup_stm32h743xx.o(.text)
    I2C2_ER_IRQHandler                       0x0800048f   Thumb Code     0  startup_stm32h743xx.o(.text)
    I2C2_EV_IRQHandler                       0x0800048f   Thumb Code     0  startup_stm32h743xx.o(.text)
    I2C3_ER_IRQHandler                       0x0800048f   Thumb Code     0  startup_stm32h743xx.o(.text)
    I2C3_EV_IRQHandler                       0x0800048f   Thumb Code     0  startup_stm32h743xx.o(.text)
    I2C4_ER_IRQHandler                       0x0800048f   Thumb Code     0  startup_stm32h743xx.o(.text)
    I2C4_EV_IRQHandler                       0x0800048f   Thumb Code     0  startup_stm32h743xx.o(.text)
    JPEG_IRQHandler                          0x0800048f   Thumb Code     0  startup_stm32h743xx.o(.text)
    LPTIM1_IRQHandler                        0x0800048f   Thumb Code     0  startup_stm32h743xx.o(.text)
    LPTIM2_IRQHandler                        0x0800048f   Thumb Code     0  startup_stm32h743xx.o(.text)
    LPTIM3_IRQHandler                        0x0800048f   Thumb Code     0  startup_stm32h743xx.o(.text)
    LPTIM4_IRQHandler                        0x0800048f   Thumb Code     0  startup_stm32h743xx.o(.text)
    LPTIM5_IRQHandler                        0x0800048f   Thumb Code     0  startup_stm32h743xx.o(.text)
    LPUART1_IRQHandler                       0x0800048f   Thumb Code     0  startup_stm32h743xx.o(.text)
    LTDC_ER_IRQHandler                       0x0800048f   Thumb Code     0  startup_stm32h743xx.o(.text)
    LTDC_IRQHandler                          0x0800048f   Thumb Code     0  startup_stm32h743xx.o(.text)
    MDIOS_IRQHandler                         0x0800048f   Thumb Code     0  startup_stm32h743xx.o(.text)
    MDIOS_WKUP_IRQHandler                    0x0800048f   Thumb Code     0  startup_stm32h743xx.o(.text)
    MDMA_IRQHandler                          0x0800048f   Thumb Code     0  startup_stm32h743xx.o(.text)
    OTG_FS_EP1_IN_IRQHandler                 0x0800048f   Thumb Code     0  startup_stm32h743xx.o(.text)
    OTG_FS_EP1_OUT_IRQHandler                0x0800048f   Thumb Code     0  startup_stm32h743xx.o(.text)
    OTG_FS_IRQHandler                        0x0800048f   Thumb Code     0  startup_stm32h743xx.o(.text)
    OTG_FS_WKUP_IRQHandler                   0x0800048f   Thumb Code     0  startup_stm32h743xx.o(.text)
    OTG_HS_EP1_IN_IRQHandler                 0x0800048f   Thumb Code     0  startup_stm32h743xx.o(.text)
    OTG_HS_EP1_OUT_IRQHandler                0x0800048f   Thumb Code     0  startup_stm32h743xx.o(.text)
    OTG_HS_IRQHandler                        0x0800048f   Thumb Code     0  startup_stm32h743xx.o(.text)
    OTG_HS_WKUP_IRQHandler                   0x0800048f   Thumb Code     0  startup_stm32h743xx.o(.text)
    PVD_AVD_IRQHandler                       0x0800048f   Thumb Code     0  startup_stm32h743xx.o(.text)
    QUADSPI_IRQHandler                       0x0800048f   Thumb Code     0  startup_stm32h743xx.o(.text)
    RCC_IRQHandler                           0x0800048f   Thumb Code     0  startup_stm32h743xx.o(.text)
    RNG_IRQHandler                           0x0800048f   Thumb Code     0  startup_stm32h743xx.o(.text)
    RTC_Alarm_IRQHandler                     0x0800048f   Thumb Code     0  startup_stm32h743xx.o(.text)
    RTC_WKUP_IRQHandler                      0x0800048f   Thumb Code     0  startup_stm32h743xx.o(.text)
    SAI1_IRQHandler                          0x0800048f   Thumb Code     0  startup_stm32h743xx.o(.text)
    SAI2_IRQHandler                          0x0800048f   Thumb Code     0  startup_stm32h743xx.o(.text)
    SAI3_IRQHandler                          0x0800048f   Thumb Code     0  startup_stm32h743xx.o(.text)
    SAI4_IRQHandler                          0x0800048f   Thumb Code     0  startup_stm32h743xx.o(.text)
    SDMMC1_IRQHandler                        0x0800048f   Thumb Code     0  startup_stm32h743xx.o(.text)
    SDMMC2_IRQHandler                        0x0800048f   Thumb Code     0  startup_stm32h743xx.o(.text)
    SPDIF_RX_IRQHandler                      0x0800048f   Thumb Code     0  startup_stm32h743xx.o(.text)
    SPI2_IRQHandler                          0x0800048f   Thumb Code     0  startup_stm32h743xx.o(.text)
    SPI3_IRQHandler                          0x0800048f   Thumb Code     0  startup_stm32h743xx.o(.text)
    SPI4_IRQHandler                          0x0800048f   Thumb Code     0  startup_stm32h743xx.o(.text)
    SPI5_IRQHandler                          0x0800048f   Thumb Code     0  startup_stm32h743xx.o(.text)
    SPI6_IRQHandler                          0x0800048f   Thumb Code     0  startup_stm32h743xx.o(.text)
    SWPMI1_IRQHandler                        0x0800048f   Thumb Code     0  startup_stm32h743xx.o(.text)
    TAMP_STAMP_IRQHandler                    0x0800048f   Thumb Code     0  startup_stm32h743xx.o(.text)
    TIM15_IRQHandler                         0x0800048f   Thumb Code     0  startup_stm32h743xx.o(.text)
    TIM16_IRQHandler                         0x0800048f   Thumb Code     0  startup_stm32h743xx.o(.text)
    TIM17_IRQHandler                         0x0800048f   Thumb Code     0  startup_stm32h743xx.o(.text)
    TIM1_BRK_IRQHandler                      0x0800048f   Thumb Code     0  startup_stm32h743xx.o(.text)
    TIM1_CC_IRQHandler                       0x0800048f   Thumb Code     0  startup_stm32h743xx.o(.text)
    TIM1_TRG_COM_IRQHandler                  0x0800048f   Thumb Code     0  startup_stm32h743xx.o(.text)
    TIM1_UP_IRQHandler                       0x0800048f   Thumb Code     0  startup_stm32h743xx.o(.text)
    TIM2_IRQHandler                          0x0800048f   Thumb Code     0  startup_stm32h743xx.o(.text)
    TIM3_IRQHandler                          0x0800048f   Thumb Code     0  startup_stm32h743xx.o(.text)
    TIM4_IRQHandler                          0x0800048f   Thumb Code     0  startup_stm32h743xx.o(.text)
    TIM5_IRQHandler                          0x0800048f   Thumb Code     0  startup_stm32h743xx.o(.text)
    TIM6_DAC_IRQHandler                      0x0800048f   Thumb Code     0  startup_stm32h743xx.o(.text)
    TIM7_IRQHandler                          0x0800048f   Thumb Code     0  startup_stm32h743xx.o(.text)
    TIM8_BRK_TIM12_IRQHandler                0x0800048f   Thumb Code     0  startup_stm32h743xx.o(.text)
    TIM8_CC_IRQHandler                       0x0800048f   Thumb Code     0  startup_stm32h743xx.o(.text)
    TIM8_TRG_COM_TIM14_IRQHandler            0x0800048f   Thumb Code     0  startup_stm32h743xx.o(.text)
    TIM8_UP_TIM13_IRQHandler                 0x0800048f   Thumb Code     0  startup_stm32h743xx.o(.text)
    UART4_IRQHandler                         0x0800048f   Thumb Code     0  startup_stm32h743xx.o(.text)
    UART5_IRQHandler                         0x0800048f   Thumb Code     0  startup_stm32h743xx.o(.text)
    UART7_IRQHandler                         0x0800048f   Thumb Code     0  startup_stm32h743xx.o(.text)
    UART8_IRQHandler                         0x0800048f   Thumb Code     0  startup_stm32h743xx.o(.text)
    USART2_IRQHandler                        0x0800048f   Thumb Code     0  startup_stm32h743xx.o(.text)
    USART6_IRQHandler                        0x0800048f   Thumb Code     0  startup_stm32h743xx.o(.text)
    WAKEUP_PIN_IRQHandler                    0x0800048f   Thumb Code     0  startup_stm32h743xx.o(.text)
    WWDG_IRQHandler                          0x0800048f   Thumb Code     0  startup_stm32h743xx.o(.text)
    __user_initial_stackheap                 0x08000491   Thumb Code     0  startup_stm32h743xx.o(.text)
    __use_no_semihosting                     0x080004b5   Thumb Code     2  use_no_semi_2.o(.text)
    malloc                                   0x080004b7   Thumb Code    94  h1_alloc.o(.text)
    free                                     0x08000515   Thumb Code    78  h1_free.o(.text)
    __aeabi_uldivmod                         0x08000563   Thumb Code     0  lludivv7m.o(.text)
    _ll_udiv                                 0x08000563   Thumb Code   238  lludivv7m.o(.text)
    __2printf                                0x08000651   Thumb Code    20  noretval__2printf.o(.text)
    __2sprintf                               0x08000669   Thumb Code    34  noretval__2sprintf.o(.text)
    _printf_pre_padding                      0x08000691   Thumb Code    44  _printf_pad.o(.text)
    _printf_post_padding                     0x080006bd   Thumb Code    34  _printf_pad.o(.text)
    _printf_str                              0x080006df   Thumb Code    82  _printf_str.o(.text)
    _printf_int_dec                          0x08000731   Thumb Code   104  _printf_dec.o(.text)
    _printf_int_hex                          0x080007a9   Thumb Code    84  _printf_hex_int.o(.text)
    _printf_longlong_hex                     0x080007a9   Thumb Code     0  _printf_hex_int.o(.text)
    __printf                                 0x08000801   Thumb Code   308  __printf_flags_wp.o(.text)
    memcmp                                   0x08000939   Thumb Code    88  memcmp.o(.text)
    strlen                                   0x08000991   Thumb Code    62  strlen.o(.text)
    __aeabi_memcpy                           0x080009cf   Thumb Code     0  rt_memcpy_v6.o(.text)
    __rt_memcpy                              0x080009cf   Thumb Code   138  rt_memcpy_v6.o(.text)
    _memcpy_lastbytes                        0x08000a35   Thumb Code     0  rt_memcpy_v6.o(.text)
    __aeabi_memcpy4                          0x08000a59   Thumb Code     0  rt_memcpy_w.o(.text)
    __aeabi_memcpy8                          0x08000a59   Thumb Code     0  rt_memcpy_w.o(.text)
    __rt_memcpy_w                            0x08000a59   Thumb Code   100  rt_memcpy_w.o(.text)
    _memcpy_lastbytes_aligned                0x08000aa1   Thumb Code     0  rt_memcpy_w.o(.text)
    __aeabi_memset                           0x08000abd   Thumb Code    16  aeabi_memset.o(.text)
    __aeabi_memclr4                          0x08000acd   Thumb Code     0  rt_memclr_w.o(.text)
    __aeabi_memclr8                          0x08000acd   Thumb Code     0  rt_memclr_w.o(.text)
    __rt_memclr_w                            0x08000acd   Thumb Code    78  rt_memclr_w.o(.text)
    _memset_w                                0x08000ad1   Thumb Code     0  rt_memclr_w.o(.text)
    __use_two_region_memory                  0x08000b1b   Thumb Code     2  heapauxi.o(.text)
    __rt_heap_escrow                         0x08000b1d   Thumb Code     2  heapauxi.o(.text)
    __rt_heap_expand                         0x08000b1f   Thumb Code     2  heapauxi.o(.text)
    __semihosting$guard                      0x08000b21   Thumb Code     0  use_no_semi.o(.text)
    __use_no_semihosting_swi                 0x08000b21   Thumb Code     2  use_no_semi.o(.text)
    __rt_heap_descriptor                     0x08000b25   Thumb Code     8  rt_heap_descriptor_intlibspace.o(.text)
    __use_no_heap                            0x08000b2d   Thumb Code     2  hguard.o(.text)
    __heap$guard                             0x08000b2f   Thumb Code     2  hguard.o(.text)
    _terminate_user_alloc                    0x08000b31   Thumb Code     2  init_alloc.o(.text)
    _init_user_alloc                         0x08000b33   Thumb Code     2  init_alloc.o(.text)
    __Heap_Full                              0x08000b35   Thumb Code    34  init_alloc.o(.text)
    __Heap_Broken                            0x08000b57   Thumb Code     6  init_alloc.o(.text)
    _init_alloc                              0x08000b5d   Thumb Code    94  init_alloc.o(.text)
    __Heap_Initialize                        0x08000bbb   Thumb Code    10  h1_init.o(.text)
    __Heap_DescSize                          0x08000bc5   Thumb Code     4  h1_init.o(.text)
    __read_errno                             0x08000bc9   Thumb Code    10  _rserrno.o(.text)
    __set_errno                              0x08000bd3   Thumb Code    12  _rserrno.o(.text)
    _printf_int_common                       0x08000bdf   Thumb Code   178  _printf_intcommon.o(.text)
    __lib_sel_fp_printf                      0x08000c91   Thumb Code     2  _printf_fp_dec.o(.text)
    _printf_fp_dec_real                      0x08000e43   Thumb Code   620  _printf_fp_dec.o(.text)
    _printf_char_common                      0x080010bb   Thumb Code    32  _printf_char_common.o(.text)
    _sputc                                   0x080010e1   Thumb Code    10  _sputc.o(.text)
    _printf_cs_common                        0x080010eb   Thumb Code    20  _printf_char.o(.text)
    _printf_char                             0x080010ff   Thumb Code    16  _printf_char.o(.text)
    _printf_string                           0x0800110f   Thumb Code     8  _printf_char.o(.text)
    _printf_char_file                        0x08001119   Thumb Code    32  _printf_char_file.o(.text)
    __aeabi_memclr                           0x0800113d   Thumb Code     0  rt_memclr.o(.text)
    __rt_memclr                              0x0800113d   Thumb Code    68  rt_memclr.o(.text)
    _memset                                  0x08001141   Thumb Code     0  rt_memclr.o(.text)
    __user_libspace                          0x08001181   Thumb Code     8  libspace.o(.text)
    __user_perproc_libspace                  0x08001181   Thumb Code     0  libspace.o(.text)
    __user_perthread_libspace                0x08001181   Thumb Code     0  libspace.o(.text)
    __rt_locale                              0x08001189   Thumb Code     8  rt_locale_intlibspace.o(.text)
    __aeabi_errno_addr                       0x08001191   Thumb Code     8  rt_errno_addr_intlibspace.o(.text)
    __errno$intlibspace                      0x08001191   Thumb Code     0  rt_errno_addr_intlibspace.o(.text)
    __rt_errno_addr$intlibspace              0x08001191   Thumb Code     0  rt_errno_addr_intlibspace.o(.text)
    __Heap_ProvideMemory                     0x08001199   Thumb Code    52  h1_extend.o(.text)
    _ll_udiv10                               0x080011cd   Thumb Code   138  lludiv10.o(.text)
    _printf_fp_infnan                        0x08001259   Thumb Code   112  _printf_fp_infnan.o(.text)
    _btod_etento                             0x080012d9   Thumb Code   224  bigflt0.o(.text)
    ferror                                   0x080013bd   Thumb Code     8  ferror.o(.text)
    __rt_SIGRTMEM                            0x080013c5   Thumb Code    14  defsig_rtmem_outer.o(.text)
    __user_setup_stackheap                   0x080013d3   Thumb Code    74  sys_stackheap_outer.o(.text)
    exit                                     0x0800141d   Thumb Code    18  exit.o(.text)
    __sig_exit                               0x0800142f   Thumb Code    10  defsig_exit.o(.text)
    __rt_SIGRTMEM_inner                      0x08001439   Thumb Code    22  defsig_rtmem_inner.o(.text)
    strcmp                                   0x08001489   Thumb Code   104  strcmpv7m_pel.o(.text)
    __default_signal_display                 0x080014f1   Thumb Code    50  defsig_general.o(.text)
    arm_fir_f32                              0x08001525   Thumb Code   928  arm_fir_f32.o(.text.arm_fir_f32)
    arm_fir_init_f32                         0x080018c5   Thumb Code    36  arm_fir_init_f32.o(.text.arm_fir_init_f32)
    _btod_d2e                                0x080018e9   Thumb Code    62  btod.o(CL$$btod_d2e)
    _d2e_denorm_low                          0x08001927   Thumb Code    70  btod.o(CL$$btod_d2e_denorm_low)
    _d2e_norm_op1                            0x0800196d   Thumb Code    96  btod.o(CL$$btod_d2e_norm_op1)
    __btod_div_common                        0x080019cd   Thumb Code   696  btod.o(CL$$btod_div_common)
    _e2e                                     0x08001d05   Thumb Code   220  btod.o(CL$$btod_e2e)
    _btod_ediv                               0x08001de1   Thumb Code    42  btod.o(CL$$btod_ediv)
    _btod_emul                               0x08001e0b   Thumb Code    42  btod.o(CL$$btod_emul)
    __btod_mult_common                       0x08001e35   Thumb Code   580  btod.o(CL$$btod_mult_common)
    ADS1292_Init                             0x08002079   Thumb Code   178  ads1292.o(i.ADS1292_Init)
    ADS1292_PowerOnInit                      0x08002139   Thumb Code   562  ads1292.o(i.ADS1292_PowerOnInit)
    ADS1292_Read_Data                        0x08002389   Thumb Code    88  ads1292.o(i.ADS1292_Read_Data)
    ADS1292_Read_Reg                         0x080023e9   Thumb Code    68  ads1292.o(i.ADS1292_Read_Reg)
    ADS1292_Write_Reg                        0x08002431   Thumb Code    68  ads1292.o(i.ADS1292_Write_Reg)
    BusFault_Handler                         0x08002479   Thumb Code     2  stm32h7xx_it.o(i.BusFault_Handler)
    DMA2_Stream2_IRQHandler                  0x0800266d   Thumb Code     8  spi.o(i.DMA2_Stream2_IRQHandler)
    DMA2_Stream3_IRQHandler                  0x08002679   Thumb Code     8  spi.o(i.DMA2_Stream3_IRQHandler)
    DMA_Init                                 0x0800289d   Thumb Code   224  spi.o(i.DMA_Init)
    DMA_getdata                              0x08002bad   Thumb Code    14  spi.o(i.DMA_getdata)
    DebugMon_Handler                         0x08002bc1   Thumb Code     2  stm32h7xx_it.o(i.DebugMon_Handler)
    EXTI9_5_IRQHandler                       0x08002bc3   Thumb Code    22  ads1292.o(i.EXTI9_5_IRQHandler)
    FIR_5HZ_40HZ_Init                        0x08002bd9   Thumb Code    24  data_processing.o(i.FIR_5HZ_40HZ_Init)
    FIR_5HZ_40HZ_Run                         0x08002bfd   Thumb Code    14  data_processing.o(i.FIR_5HZ_40HZ_Run)
    HAL_CRCEx_Polynomial_Set                 0x08002c15   Thumb Code    78  stm32h7xx_hal_crc_ex.o(i.HAL_CRCEx_Polynomial_Set)
    HAL_CRC_Init                             0x08002c65   Thumb Code   114  stm32h7xx_hal_crc.o(i.HAL_CRC_Init)
    HAL_CRC_MspInit                          0x08002cdd   Thumb Code    30  crc.o(i.HAL_CRC_MspInit)
    HAL_DMA_Abort                            0x08002d05   Thumb Code   836  stm32h7xx_hal_dma.o(i.HAL_DMA_Abort)
    HAL_DMA_Abort_IT                         0x08003065   Thumb Code   602  stm32h7xx_hal_dma.o(i.HAL_DMA_Abort_IT)
    HAL_DMA_DeInit                           0x080032e9   Thumb Code   446  stm32h7xx_hal_dma.o(i.HAL_DMA_DeInit)
    HAL_DMA_GetError                         0x080034d1   Thumb Code     4  stm32h7xx_hal_dma.o(i.HAL_DMA_GetError)
    HAL_DMA_IRQHandler                       0x080034d5   Thumb Code  1756  stm32h7xx_hal_dma.o(i.HAL_DMA_IRQHandler)
    HAL_DMA_Init                             0x08003bbd   Thumb Code   926  stm32h7xx_hal_dma.o(i.HAL_DMA_Init)
    HAL_DMA_Start_IT                         0x08003f81   Thumb Code   628  stm32h7xx_hal_dma.o(i.HAL_DMA_Start_IT)
    HAL_Delay                                0x0800421d   Thumb Code    32  stm32h7xx_hal.o(i.HAL_Delay)
    HAL_EnableCompensationCell               0x08004241   Thumb Code    12  stm32h7xx_hal.o(i.HAL_EnableCompensationCell)
    HAL_GPIO_EXTI_Callback                   0x08004251   Thumb Code    84  ads1292.o(i.HAL_GPIO_EXTI_Callback)
    HAL_GPIO_EXTI_IRQHandler                 0x080042b5   Thumb Code    24  stm32h7xx_hal_gpio.o(i.HAL_GPIO_EXTI_IRQHandler)
    HAL_GPIO_Init                            0x080042cd   Thumb Code   506  stm32h7xx_hal_gpio.o(i.HAL_GPIO_Init)
    HAL_GPIO_TogglePin                       0x080044f9   Thumb Code    16  stm32h7xx_hal_gpio.o(i.HAL_GPIO_TogglePin)
    HAL_GPIO_WritePin                        0x08004509   Thumb Code    10  stm32h7xx_hal_gpio.o(i.HAL_GPIO_WritePin)
    HAL_GetREVID                             0x08004515   Thumb Code     8  stm32h7xx_hal.o(i.HAL_GetREVID)
    HAL_GetTick                              0x08004521   Thumb Code     6  stm32h7xx_hal.o(i.HAL_GetTick)
    HAL_IncTick                              0x0800452d   Thumb Code    12  stm32h7xx_hal.o(i.HAL_IncTick)
    HAL_Init                                 0x0800453d   Thumb Code    74  stm32h7xx_hal.o(i.HAL_Init)
    HAL_InitTick                             0x08004599   Thumb Code    56  stm32h7xx_hal.o(i.HAL_InitTick)
    HAL_MPU_ConfigRegion                     0x080045d9   Thumb Code    86  stm32h7xx_hal_cortex.o(i.HAL_MPU_ConfigRegion)
    HAL_MPU_Disable                          0x08004635   Thumb Code    24  stm32h7xx_hal_cortex.o(i.HAL_MPU_Disable)
    HAL_MPU_Enable                           0x08004651   Thumb Code    30  stm32h7xx_hal_cortex.o(i.HAL_MPU_Enable)
    HAL_MspInit                              0x08004675   Thumb Code    22  stm32h7xx_hal_msp.o(i.HAL_MspInit)
    HAL_NVIC_EnableIRQ                       0x08004691   Thumb Code    26  stm32h7xx_hal_cortex.o(i.HAL_NVIC_EnableIRQ)
    HAL_NVIC_SetPriority                     0x080046ad   Thumb Code    60  stm32h7xx_hal_cortex.o(i.HAL_NVIC_SetPriority)
    HAL_NVIC_SetPriorityGrouping             0x080046ed   Thumb Code    28  stm32h7xx_hal_cortex.o(i.HAL_NVIC_SetPriorityGrouping)
    HAL_PWREx_EnableUSBVoltageDetector       0x08004711   Thumb Code    12  stm32h7xx_hal_pwr_ex.o(i.HAL_PWREx_EnableUSBVoltageDetector)
    HAL_RCCEx_GetD3PCLK1Freq                 0x08004721   Thumb Code    26  stm32h7xx_hal_rcc_ex.o(i.HAL_RCCEx_GetD3PCLK1Freq)
    HAL_RCCEx_GetPLL2ClockFreq               0x08004745   Thumb Code   296  stm32h7xx_hal_rcc_ex.o(i.HAL_RCCEx_GetPLL2ClockFreq)
    HAL_RCCEx_GetPLL3ClockFreq               0x08004889   Thumb Code   296  stm32h7xx_hal_rcc_ex.o(i.HAL_RCCEx_GetPLL3ClockFreq)
    HAL_RCC_ClockConfig                      0x080049cd   Thumb Code   580  stm32h7xx_hal_rcc.o(i.HAL_RCC_ClockConfig)
    HAL_RCC_GetHCLKFreq                      0x08004c29   Thumb Code    52  stm32h7xx_hal_rcc.o(i.HAL_RCC_GetHCLKFreq)
    HAL_RCC_GetPCLK1Freq                     0x08004c6d   Thumb Code    26  stm32h7xx_hal_rcc.o(i.HAL_RCC_GetPCLK1Freq)
    HAL_RCC_GetPCLK2Freq                     0x08004c91   Thumb Code    26  stm32h7xx_hal_rcc.o(i.HAL_RCC_GetPCLK2Freq)
    HAL_RCC_GetSysClockFreq                  0x08004cb5   Thumb Code   278  stm32h7xx_hal_rcc.o(i.HAL_RCC_GetSysClockFreq)
    HAL_RCC_OscConfig                        0x08004ded   Thumb Code  1322  stm32h7xx_hal_rcc.o(i.HAL_RCC_OscConfig)
    HAL_SPI_ErrorCallback                    0x0800531d   Thumb Code     2  stm32h7xx_hal_spi.o(i.HAL_SPI_ErrorCallback)
    HAL_SPI_IRQHandler                       0x08005321   Thumb Code   564  stm32h7xx_hal_spi.o(i.HAL_SPI_IRQHandler)
    HAL_SPI_Init                             0x08005559   Thumb Code   330  stm32h7xx_hal_spi.o(i.HAL_SPI_Init)
    HAL_SPI_MspInit                          0x080056b1   Thumb Code    88  spi.o(i.HAL_SPI_MspInit)
    HAL_SPI_RxCpltCallback                   0x08005715   Thumb Code     2  stm32h7xx_hal_spi.o(i.HAL_SPI_RxCpltCallback)
    HAL_SPI_RxHalfCpltCallback               0x08005717   Thumb Code     2  stm32h7xx_hal_spi.o(i.HAL_SPI_RxHalfCpltCallback)
    HAL_SPI_TransmitReceive                  0x08005719   Thumb Code   804  stm32h7xx_hal_spi.o(i.HAL_SPI_TransmitReceive)
    HAL_SPI_TransmitReceive_DMA              0x08005a3d   Thumb Code   488  stm32h7xx_hal_spi.o(i.HAL_SPI_TransmitReceive_DMA)
    HAL_SPI_TxCpltCallback                   0x08005c39   Thumb Code     2  stm32h7xx_hal_spi.o(i.HAL_SPI_TxCpltCallback)
    HAL_SPI_TxRxCpltCallback                 0x08005c3b   Thumb Code     2  stm32h7xx_hal_spi.o(i.HAL_SPI_TxRxCpltCallback)
    HAL_SPI_TxRxHalfCpltCallback             0x08005c3d   Thumb Code     2  stm32h7xx_hal_spi.o(i.HAL_SPI_TxRxHalfCpltCallback)
    HAL_SYSTICK_CLKSourceConfig              0x08005c3f   Thumb Code    24  stm32h7xx_hal_cortex.o(i.HAL_SYSTICK_CLKSourceConfig)
    HAL_SYSTICK_Config                       0x08005c57   Thumb Code    38  stm32h7xx_hal_cortex.o(i.HAL_SYSTICK_Config)
    HAL_UARTEx_RxEventCallback               0x08005c7d   Thumb Code     2  stm32h7xx_hal_uart.o(i.HAL_UARTEx_RxEventCallback)
    HAL_UARTEx_RxFifoFullCallback            0x08005c7f   Thumb Code     2  stm32h7xx_hal_uart_ex.o(i.HAL_UARTEx_RxFifoFullCallback)
    HAL_UARTEx_TxFifoEmptyCallback           0x08005c81   Thumb Code     2  stm32h7xx_hal_uart_ex.o(i.HAL_UARTEx_TxFifoEmptyCallback)
    HAL_UARTEx_WakeupCallback                0x08005c83   Thumb Code     2  stm32h7xx_hal_uart_ex.o(i.HAL_UARTEx_WakeupCallback)
    HAL_UART_ErrorCallback                   0x08005c85   Thumb Code     2  stm32h7xx_hal_uart.o(i.HAL_UART_ErrorCallback)
    HAL_UART_IRQHandler                      0x08005c89   Thumb Code   838  stm32h7xx_hal_uart.o(i.HAL_UART_IRQHandler)
    HAL_UART_Init                            0x08005fe9   Thumb Code   106  stm32h7xx_hal_uart.o(i.HAL_UART_Init)
    HAL_UART_MspInit                         0x08006055   Thumb Code   240  usart.o(i.HAL_UART_MspInit)
    HAL_UART_Receive_IT                      0x08006159   Thumb Code    80  stm32h7xx_hal_uart.o(i.HAL_UART_Receive_IT)
    HAL_UART_RxCpltCallback                  0x080061ad   Thumb Code   118  usart.o(i.HAL_UART_RxCpltCallback)
    HAL_UART_Transmit                        0x08006239   Thumb Code   190  stm32h7xx_hal_uart.o(i.HAL_UART_Transmit)
    HAL_UART_TxCpltCallback                  0x080062f7   Thumb Code     2  stm32h7xx_hal_uart.o(i.HAL_UART_TxCpltCallback)
    HC05_SendCmd                             0x080062f9   Thumb Code   124  hc05.o(i.HC05_SendCmd)
    HCO5_AT_Confg                            0x08006389   Thumb Code   396  hc05.o(i.HCO5_AT_Confg)
    HCO5_IO_Init                             0x08006611   Thumb Code    60  hc05.o(i.HCO5_IO_Init)
    HardFault_Handler                        0x08006655   Thumb Code     2  stm32h7xx_it.o(i.HardFault_Handler)
    LPF_2HZ_Init                             0x08006659   Thumb Code    24  data_processing.o(i.LPF_2HZ_Init)
    LPF_2HZ_Run                              0x0800667d   Thumb Code    14  data_processing.o(i.LPF_2HZ_Run)
    MX_CRC_Init                              0x08006695   Thumb Code    42  crc.o(i.MX_CRC_Init)
