Component: ARM Compiler 5.06 update 5 (build 528) Tool: armlink [4d35e2]

==============================================================================

Section Cross References

    startup_stm32h743xx.o(STACK) refers (Special) to heapauxi.o(.text) for __use_two_region_memory
    startup_stm32h743xx.o(HEAP) refers (Special) to heapauxi.o(.text) for __use_two_region_memory
    startup_stm32h743xx.o(RESET) refers (Special) to heapauxi.o(.text) for __use_two_region_memory
    startup_stm32h743xx.o(RESET) refers to startup_stm32h743xx.o(STACK) for __initial_sp
    startup_stm32h743xx.o(RESET) refers to startup_stm32h743xx.o(.text) for Reset_Handler
    startup_stm32h743xx.o(RESET) refers to stm32h7xx_it.o(i.NMI_Handler) for NMI_Handler
    startup_stm32h743xx.o(RESET) refers to stm32h7xx_it.o(i.HardFault_Handler) for HardFault_Handler
    startup_stm32h743xx.o(RESET) refers to stm32h7xx_it.o(i.MemManage_Handler) for MemManage_Handler
    startup_stm32h743xx.o(RESET) refers to stm32h7xx_it.o(i.BusFault_Handler) for BusFault_Handler
    startup_stm32h743xx.o(RESET) refers to stm32h7xx_it.o(i.UsageFault_Handler) for UsageFault_Handler
    startup_stm32h743xx.o(RESET) refers to stm32h7xx_it.o(i.SVC_Handler) for SVC_Handler
    startup_stm32h743xx.o(RESET) refers to stm32h7xx_it.o(i.DebugMon_Handler) for DebugMon_Handler
    startup_stm32h743xx.o(RESET) refers to stm32h7xx_it.o(i.PendSV_Handler) for PendSV_Handler
    startup_stm32h743xx.o(RESET) refers to stm32h7xx_it.o(i.SysTick_Handler) for SysTick_Handler
    startup_stm32h743xx.o(RESET) refers to usart.o(i.USART1_IRQHandler) for USART1_IRQHandler
    startup_stm32h743xx.o(RESET) refers to btim.o(i.TIM6_DAC_IRQHandler) for TIM6_DAC_IRQHandler
    startup_stm32h743xx.o(.text) refers (Special) to heapauxi.o(.text) for __use_two_region_memory
    startup_stm32h743xx.o(.text) refers to system_stm32h7xx.o(i.SystemInit) for SystemInit
==============================================================================

Removing Unused input sections from the image.

    Removing ecg.o(i.ai_ecg_destroy), (4 bytes).
    Removing ecg.o(i.ai_ecg_forward), (6 bytes).
    Removing ecg.o(i.ai_ecg_get_info), (88 bytes).
    Removing ecg_data.o(i.ai_ecg_data_activations_buffer_get), (56 bytes).
    Removing ecg_data.o(i.ai_ecg_data_weights_buffer_get), (56 bytes).
    Removing ecg_data.o(i.ai_ecg_data_weights_get), (8 bytes).
    Removing ecg_data_params.o(.data), (12 bytes).
    Removing ecg_data_params.o(.data), (12 bytes).
    Removing app_x-cube-ai.o(.rev16_text), (4 bytes).
    Removing app_x-cube-ai.o(.revsh_text), (4 bytes).
    Removing app_x-cube-ai.o(.rrx_text), (6 bytes).
    Removing app_x-cube-ai.o(i.MX_X_CUBE_AI_Init), (56 bytes).
    Removing app_x-cube-ai.o(i.MX_X_CUBE_AI_Process), (124 bytes).
    Removing app_x-cube-ai.o(i.acquire_and_process_data), (4 bytes).
    Removing app_x-cube-ai.o(i.ai_boostrap), (96 bytes).
    Removing app_x-cube-ai.o(i.ai_log_err), (132 bytes).
    Removing app_x-cube-ai.o(i.post_process), (4 bytes).
    Removing app_x-cube-ai.o(.bss), (32140 bytes).
==============================================================================

Image Symbol Table

    Local Symbols

    Symbol Name                              Value     Ov Type        Size  Object(Section)

    .ARM.__AT_0x00000000                     0x00000000   Section    61440  malloc.o(.ARM.__AT_0x00000000)
    ../Core/Src/crc.c                        0x00000000   Number         0  crc.o ABSOLUTE
    ../Core/Src/gpio.c                       0x00000000   Number         0  gpio.o ABSOLUTE
    ../Core/Src/main.c                       0x00000000   Number         0  main.o ABSOLUTE
    ../Core/Src/stm32h7xx_hal_msp.c          0x00000000   Number         0  stm32h7xx_hal_msp.o ABSOLUTE
    ../Core/Src/stm32h7xx_it.c               0x00000000   Number         0  stm32h7xx_it.o ABSOLUTE
    ../Core/Src/system_stm32h7xx.c           0x00000000   Number         0  system_stm32h7xx.o ABSOLUTE
    ../Drivers/STM32H7xx_HAL_Driver/Src/stm32h7xx_hal.c 0x00000000   Number         0  stm32h7xx_hal.o ABSOLUTE
    ../Drivers/STM32H7xx_HAL_Driver/Src/stm32h7xx_hal_cortex.c 0x00000000   Number         0  stm32h7xx_hal_cortex.o ABSOLUTE
    ../Drivers/STM32H7xx_HAL_Driver/Src/stm32h7xx_hal_crc.c 0x00000000   Number         0  stm32h7xx_hal_crc.o ABSOLUTE
    ../Drivers/STM32H7xx_HAL_Driver/Src/stm32h7xx_hal_crc_ex.c 0x00000000   Number         0  stm32h7xx_hal_crc_ex.o ABSOLUTE
    ../Drivers/STM32H7xx_HAL_Driver/Src/stm32h7xx_hal_dma.c 0x00000000   Number         0  stm32h7xx_hal_dma.o ABSOLUTE
    ../Drivers/STM32H7xx_HAL_Driver/Src/stm32h7xx_hal_dma_ex.c 0x00000000   Number         0  stm32h7xx_hal_dma_ex.o ABSOLUTE
    ../Drivers/STM32H7xx_HAL_Driver/Src/stm32h7xx_hal_exti.c 0x00000000   Number         0  stm32h7xx_hal_exti.o ABSOLUTE
    ../Drivers/STM32H7xx_HAL_Driver/Src/stm32h7xx_hal_flash.c 0x00000000   Number         0  stm32h7xx_hal_flash.o ABSOLUTE
    ../Drivers/STM32H7xx_HAL_Driver/Src/stm32h7xx_hal_flash_ex.c 0x00000000   Number         0  stm32h7xx_hal_flash_ex.o ABSOLUTE
    ../Drivers/STM32H7xx_HAL_Driver/Src/stm32h7xx_hal_gpio.c 0x00000000   Number         0  stm32h7xx_hal_gpio.o ABSOLUTE
    ../Drivers/STM32H7xx_HAL_Driver/Src/stm32h7xx_hal_hsem.c 0x00000000   Number         0  stm32h7xx_hal_hsem.o ABSOLUTE
    ../Drivers/STM32H7xx_HAL_Driver/Src/stm32h7xx_hal_i2c.c 0x00000000   Number         0  stm32h7xx_hal_i2c.o ABSOLUTE
    ../Drivers/STM32H7xx_HAL_Driver/Src/stm32h7xx_hal_i2c_ex.c 0x00000000   Number         0  stm32h7xx_hal_i2c_ex.o ABSOLUTE
    ../Drivers/STM32H7xx_HAL_Driver/Src/stm32h7xx_hal_mdma.c 0x00000000   Number         0  stm32h7xx_hal_mdma.o ABSOLUTE
    ../Drivers/STM32H7xx_HAL_Driver/Src/stm32h7xx_hal_pwr.c 0x00000000   Number         0  stm32h7xx_hal_pwr.o ABSOLUTE
    ../Drivers/STM32H7xx_HAL_Driver/Src/stm32h7xx_hal_pwr_ex.c 0x00000000   Number         0  stm32h7xx_hal_pwr_ex.o ABSOLUTE
    ../Drivers/STM32H7xx_HAL_Driver/Src/stm32h7xx_hal_rcc.c 0x00000000   Number         0  stm32h7xx_hal_rcc.o ABSOLUTE
    ../Drivers/STM32H7xx_HAL_Driver/Src/stm32h7xx_hal_rcc_ex.c 0x00000000   Number         0  stm32h7xx_hal_rcc_ex.o ABSOLUTE
    ../Drivers/STM32H7xx_HAL_Driver/Src/stm32h7xx_hal_tim.c 0x00000000   Number         0  stm32h7xx_hal_tim.o ABSOLUTE
    ../Drivers/STM32H7xx_HAL_Driver/Src/stm32h7xx_hal_tim_ex.c 0x00000000   Number         0  stm32h7xx_hal_tim_ex.o ABSOLUTE
    ../X-CUBE-AI/App/app_x-cube-ai.c         0x00000000   Number         0  app_x-cube-ai.o ABSOLUTE
    ../X-CUBE-AI/App/ecg.c                   0x00000000   Number         0  ecg.o ABSOLUTE
    ../X-CUBE-AI/App/ecg_data.c              0x00000000   Number         0  ecg_data.o ABSOLUTE
    ../X-CUBE-AI/App/ecg_data_params.c       0x00000000   Number         0  ecg_data_params.o ABSOLUTE
    ../clib/angel/boardlib.s                 0x00000000   Number         0  boardinit1.o ABSOLUTE
    ../clib/angel/boardlib.s                 0x00000000   Number         0  boardinit3.o ABSOLUTE
    ../clib/angel/boardlib.s                 0x00000000   Number         0  boardshut.o ABSOLUTE
    ../clib/angel/boardlib.s                 0x00000000   Number         0  boardinit2.o ABSOLUTE
    ../clib/angel/dczerorl2.s                0x00000000   Number         0  __dczerorl2.o ABSOLUTE
    ../clib/angel/handlers.s                 0x00000000   Number         0  __scatter_zi.o ABSOLUTE
    ../clib/angel/kernel.s                   0x00000000   Number         0  rtexit.o ABSOLUTE
    ../clib/angel/kernel.s                   0x00000000   Number         0  __rtentry.o ABSOLUTE
    ../clib/angel/kernel.s                   0x00000000   Number         0  rtexit2.o ABSOLUTE
    ../clib/angel/kernel.s                   0x00000000   Number         0  __rtentry4.o ABSOLUTE
    ../clib/angel/kernel.s                   0x00000000   Number         0  __rtentry2.o ABSOLUTE
    ../clib/angel/rt.s                       0x00000000   Number         0  rt_div0.o ABSOLUTE
    ../clib/angel/rt.s                       0x00000000   Number         0  rt_locale.o ABSOLUTE
    ../clib/angel/rt.s                       0x00000000   Number         0  rt_locale_intlibspace.o ABSOLUTE
    ../clib/angel/rt.s                       0x00000000   Number         0  rt_errno_addr.o ABSOLUTE
    ../clib/angel/rt.s                       0x00000000   Number         0  rt_errno_addr_intlibspace.o ABSOLUTE
    ../clib/angel/rt.s                       0x00000000   Number         0  rt_raise.o ABSOLUTE
    ../clib/angel/rt.s                       0x00000000   Number         0  aeabi_ldiv0.o ABSOLUTE
    ../clib/angel/rt.s                       0x00000000   Number         0  aeabi_ldiv0_sigfpe.o ABSOLUTE
    ../clib/angel/rt.s                       0x00000000   Number         0  rt_heap_descriptor_intlibspace.o ABSOLUTE
    ../clib/angel/rt.s                       0x00000000   Number         0  rt_heap_descriptor.o ABSOLUTE
    ../clib/angel/scatter.s                  0x00000000   Number         0  __scatter.o ABSOLUTE
    ../clib/angel/startup.s                  0x00000000   Number         0  __main.o ABSOLUTE
    ../clib/angel/sys.s                      0x00000000   Number         0  sys_stackheap_outer.o ABSOLUTE
    ../clib/angel/sys.s                      0x00000000   Number         0  use_no_semi_2.o ABSOLUTE
    ../clib/angel/sys.s                      0x00000000   Number         0  mutex_dummy.o ABSOLUTE
    ../clib/angel/sys.s                      0x00000000   Number         0  libspace.o ABSOLUTE
    ../clib/angel/sys.s                      0x00000000   Number         0  use_no_semi.o ABSOLUTE
    ../clib/armsys.c                         0x00000000   Number         0  argv_veneer.o ABSOLUTE
    ../clib/armsys.c                         0x00000000   Number         0  argv_veneer.o ABSOLUTE
    ../clib/armsys.c                         0x00000000   Number         0  _get_argv.o ABSOLUTE
    ../clib/armsys.c                         0x00000000   Number         0  no_argv.o ABSOLUTE
    ../clib/armsys.c                         0x00000000   Number         0  _get_argv_nomalloc.o ABSOLUTE
    ../clib/bigflt.c                         0x00000000   Number         0  bigflt0.o ABSOLUTE
    ../clib/btod.s                           0x00000000   Number         0  btod.o ABSOLUTE
    ../clib/fenv.c                           0x00000000   Number         0  _rserrno.o ABSOLUTE
    ../clib/heap1.c                          0x00000000   Number         0  h1_free.o ABSOLUTE
    ../clib/heap1.c                          0x00000000   Number         0  h1_init.o ABSOLUTE
    ../clib/heap1.c                          0x00000000   Number         0  h1_final_mt.o ABSOLUTE
    ../clib/heap1.c                          0x00000000   Number         0  h1_realloc.o ABSOLUTE
    ../clib/heap1.c                          0x00000000   Number         0  h1_extend.o ABSOLUTE
    ../clib/heap1.c                          0x00000000   Number         0  h1_realloc_mt.o ABSOLUTE
    ../clib/heap1.c                          0x00000000   Number         0  h1_extend_mt.o ABSOLUTE
    ../clib/heap1.c                          0x00000000   Number         0  h1_init_mt.o ABSOLUTE
    ../clib/heap1.c                          0x00000000   Number         0  h1_free_mt.o ABSOLUTE
    ../clib/heap1.c                          0x00000000   Number         0  h1_alloc.o ABSOLUTE
    ../clib/heap1.c                          0x00000000   Number         0  h1_alloc_mt.o ABSOLUTE
    ../clib/heap1.c                          0x00000000   Number         0  h1_final.o ABSOLUTE
    ../clib/heap2.c                          0x00000000   Number         0  fdtree.o ABSOLUTE
    ../clib/heap2.c                          0x00000000   Number         0  heap2mt.o ABSOLUTE
    ../clib/heap2.c                          0x00000000   Number         0  heap2.o ABSOLUTE
    ../clib/heapalloc.c                      0x00000000   Number         0  malloc.o ABSOLUTE
    ../clib/heapalloc.c                      0x00000000   Number         0  hrguard.o ABSOLUTE
    ../clib/heapalloc.c                      0x00000000   Number         0  free.o ABSOLUTE
    ../clib/heapalloc.c                      0x00000000   Number         0  realloc.o ABSOLUTE
    ../clib/heapalloc.c                      0x00000000   Number         0  maybetermalloc2.o ABSOLUTE
    ../clib/heapalloc.c                      0x00000000   Number         0  maybetermalloc2.o ABSOLUTE
    ../clib/heapalloc.c                      0x00000000   Number         0  maybetermalloc1.o ABSOLUTE
    ../clib/heapalloc.c                      0x00000000   Number         0  init_alloc.o ABSOLUTE
    ../clib/heapalloc.c                      0x00000000   Number         0  maybetermalloc1.o ABSOLUTE
    ../clib/heapalloc.c                      0x00000000   Number         0  heapstubs.o ABSOLUTE
    ../clib/heapalloc.c                      0x00000000   Number         0  hguard.o ABSOLUTE
    ../clib/heapalloc.c                      0x00000000   Number         0  term_alloc.o ABSOLUTE
    ../clib/heapaux.c                        0x00000000   Number         0  heapauxa.o ABSOLUTE
    ../clib/heapaux.c                        0x00000000   Number         0  heapauxi.o ABSOLUTE
    ../clib/libinit.s                        0x00000000   Number         0  libinit2.o ABSOLUTE
    ../clib/libinit.s                        0x00000000   Number         0  libshutdown2.o ABSOLUTE
    ../clib/libinit.s                        0x00000000   Number         0  libinit.o ABSOLUTE
    ../clib/libinit.s                        0x00000000   Number         0  libshutdown.o ABSOLUTE
    ../clib/locale.s                         0x00000000   Number         0  lc_numeric_c.o ABSOLUTE
    ../clib/longlong.s                       0x00000000   Number         0  lludivv7m.o ABSOLUTE
    ../clib/longlong.s                       0x00000000   Number         0  lludiv10.o ABSOLUTE
    ../clib/longlong.s                       0x00000000   Number         0  llsdiv.o ABSOLUTE
    ../clib/memcpset.s                       0x00000000   Number         0  strcmpv7m_pel.o ABSOLUTE
    ../clib/memcpset.s                       0x00000000   Number         0  rt_memcpy_w.o ABSOLUTE
    ../clib/memcpset.s                       0x00000000   Number         0  rt_memclr_w.o ABSOLUTE
    ../clib/misc.s                           0x00000000   Number         0  printf_stubs.o ABSOLUTE
    ../clib/printf.c                         0x00000000   Number         0  __printf_ss_wp.o ABSOLUTE
    ../clib/printf.c                         0x00000000   Number         0  __printf_nopercent.o ABSOLUTE
    ../clib/printf.c                         0x00000000   Number         0  _printf_hex_ll.o ABSOLUTE
    ../clib/printf.c                         0x00000000   Number         0  _printf_fp_infnan.o ABSOLUTE
    ../clib/printf.c                         0x00000000   Number         0  __2sprintf.o ABSOLUTE
    ../clib/printf.c                         0x00000000   Number         0  noretval__2printf.o ABSOLUTE
    ../clib/printf.c                         0x00000000   Number         0  _printf_hex_int_ll_ptr.o ABSOLUTE
    ../clib/printf.c                         0x00000000   Number         0  _printf_str.o ABSOLUTE
    ../clib/printf.c                         0x00000000   Number         0  _printf_hex_ll_ptr.o ABSOLUTE
    ../clib/printf.c                         0x00000000   Number         0  _printf_dec.o ABSOLUTE
    ../clib/printf.c                         0x00000000   Number         0  _printf_hex_int_ptr.o ABSOLUTE
    ../clib/printf.c                         0x00000000   Number         0  _printf_longlong_dec.o ABSOLUTE
    ../clib/printf.c                         0x00000000   Number         0  noretval__2sprintf.o ABSOLUTE
    ../clib/printf.c                         0x00000000   Number         0  __printf.o ABSOLUTE
    ../clib/printf.c                         0x00000000   Number         0  _printf_char_file.o ABSOLUTE
    ../clib/printf.c                         0x00000000   Number         0  _printf_hex_ptr.o ABSOLUTE
    ../clib/printf.c                         0x00000000   Number         0  _printf_char.o ABSOLUTE
    ../clib/printf.c                         0x00000000   Number         0  _printf_hex_int_ll.o ABSOLUTE
    ../clib/printf.c                         0x00000000   Number         0  _printf_pad.o ABSOLUTE
    ../clib/printf.c                         0x00000000   Number         0  __2printf.o ABSOLUTE
    ../clib/printf.c                         0x00000000   Number         0  __printf_wp.o ABSOLUTE
    ../clib/printf.c                         0x00000000   Number         0  __printf_flags_wp.o ABSOLUTE
    ../clib/printf.c                         0x00000000   Number         0  __printf_flags_ss_wp.o ABSOLUTE
    ../clib/printf.c                         0x00000000   Number         0  _sputc.o ABSOLUTE
    ../clib/printf.c                         0x00000000   Number         0  _printf_char_common.o ABSOLUTE
    ../clib/printf.c                         0x00000000   Number         0  _printf_fp_dec.o ABSOLUTE
    ../clib/printf.c                         0x00000000   Number         0  _printf_hex_int.o ABSOLUTE
    ../clib/printf.c                         0x00000000   Number         0  __printf_flags_ss.o ABSOLUTE
    ../clib/printf.c                         0x00000000   Number         0  __printf_ss.o ABSOLUTE
    ../clib/printf.c                         0x00000000   Number         0  __printf_flags.o ABSOLUTE
    ../clib/printf.c                         0x00000000   Number         0  _printf_intcommon.o ABSOLUTE
    ../clib/printf_percent.s                 0x00000000   Number         0  _printf_s.o ABSOLUTE
    ../clib/printf_percent.s                 0x00000000   Number         0  _printf_f.o ABSOLUTE
    ../clib/printf_percent.s                 0x00000000   Number         0  _printf_x.o ABSOLUTE
    ../clib/printf_percent.s                 0x00000000   Number         0  _printf_lld.o ABSOLUTE
    ../clib/printf_percent.s                 0x00000000   Number         0  _printf_ll.o ABSOLUTE
    ../clib/printf_percent.s                 0x00000000   Number         0  _printf_d.o ABSOLUTE
    ../clib/printf_percent.s                 0x00000000   Number         0  _printf_percent_end.o ABSOLUTE
    ../clib/printf_percent.s                 0x00000000   Number         0  _printf_c.o ABSOLUTE
    ../clib/printf_percent.s                 0x00000000   Number         0  _printf_percent.o ABSOLUTE
    ../clib/signal.c                         0x00000000   Number         0  defsig_rtmem_inner.o ABSOLUTE
    ../clib/signal.c                         0x00000000   Number         0  defsig_rtmem_outer.o ABSOLUTE
    ../clib/signal.c                         0x00000000   Number         0  defsig_rtmem_formal.o ABSOLUTE
    ../clib/signal.c                         0x00000000   Number         0  __raise.o ABSOLUTE
    ../clib/signal.c                         0x00000000   Number         0  defsig_general.o ABSOLUTE
    ../clib/signal.c                         0x00000000   Number         0  defsig_fpe_inner.o ABSOLUTE
    ../clib/signal.c                         0x00000000   Number         0  defsig_abrt_inner.o ABSOLUTE
    ../clib/signal.c                         0x00000000   Number         0  defsig_stak_inner.o ABSOLUTE
    ../clib/signal.c                         0x00000000   Number         0  defsig_pvfn_inner.o ABSOLUTE
    ../clib/signal.c                         0x00000000   Number         0  defsig_cppl_inner.o ABSOLUTE
    ../clib/signal.c                         0x00000000   Number         0  defsig_exit.o ABSOLUTE
    ../clib/signal.c                         0x00000000   Number         0  defsig_segv_inner.o ABSOLUTE
    ../clib/signal.c                         0x00000000   Number         0  defsig_fpe_outer.o ABSOLUTE
    ../clib/signal.c                         0x00000000   Number         0  defsig_fpe_formal.o ABSOLUTE
    ../clib/signal.c                         0x00000000   Number         0  defsig_rtred_inner.o ABSOLUTE
    ../clib/signal.c                         0x00000000   Number         0  defsig_other.o ABSOLUTE
    ../clib/signal.s                         0x00000000   Number         0  defsig.o ABSOLUTE
    ../clib/stdio.c                          0x00000000   Number         0  ferror.o ABSOLUTE
    ../clib/stdio.c                          0x00000000   Number         0  ferror_locked.o ABSOLUTE
    ../clib/stdlib.c                         0x00000000   Number         0  exit.o ABSOLUTE
    ../clib/string.c                         0x00000000   Number         0  memcmp.o ABSOLUTE
    ../clib/string.c                         0x00000000   Number         0  strcpy.o ABSOLUTE
    ../clib/string.c                         0x00000000   Number         0  strlen.o ABSOLUTE
    ../clib/string.c                         0x00000000   Number         0  strcat.o ABSOLUTE
    ../fplib/dcheck1.s                       0x00000000   Number         0  dcheck1.o ABSOLUTE
    ../fplib/ffixll.s                        0x00000000   Number         0  ffixll.o ABSOLUTE
    ../fplib/fnaninf.s                       0x00000000   Number         0  fnaninf.o ABSOLUTE
    ../fplib/fpinit.s                        0x00000000   Number         0  fpinit.o ABSOLUTE
    ../fplib/frem.s                          0x00000000   Number         0  frem_clz.o ABSOLUTE
    ../fplib/frnd.s                          0x00000000   Number         0  frnd.o ABSOLUTE
    ../fplib/istatus.s                       0x00000000   Number         0  istatus.o ABSOLUTE
    ../fplib/printf1.s                       0x00000000   Number         0  printf1.o ABSOLUTE
    ../fplib/retnan.s                        0x00000000   Number         0  retnan.o ABSOLUTE
    ../fplib/scalbn.s                        0x00000000   Number         0  scalbn.o ABSOLUTE
    ../fplib/trapv.s                         0x00000000   Number         0  trapv.o ABSOLUTE
    ../fplib/usenofp.s                       0x00000000   Number         0  usenofp.o ABSOLUTE
    ../mathlib/acosf.c                       0x00000000   Number         0  acosf.o ABSOLUTE
    ../mathlib/acosf.c                       0x00000000   Number         0  acosf_x.o ABSOLUTE
    ../mathlib/acoshf.c                      0x00000000   Number         0  acoshf.o ABSOLUTE
    ../mathlib/acoshf.c                      0x00000000   Number         0  acoshf_x.o ABSOLUTE
    ../mathlib/asinf.c                       0x00000000   Number         0  asinf.o ABSOLUTE
    ../mathlib/asinf.c                       0x00000000   Number         0  asinf_x.o ABSOLUTE
    ../mathlib/asinhf.c                      0x00000000   Number         0  asinhf.o ABSOLUTE
    ../mathlib/asinhf.c                      0x00000000   Number         0  asinhf_x.o ABSOLUTE
    ../mathlib/atanf.c                       0x00000000   Number         0  atanf_x.o ABSOLUTE
    ../mathlib/atanf.c                       0x00000000   Number         0  atanf.o ABSOLUTE
    ../mathlib/atanhf.c                      0x00000000   Number         0  atanhf_x.o ABSOLUTE
    ../mathlib/atanhf.c                      0x00000000   Number         0  atanhf.o ABSOLUTE
    ../mathlib/ceilf.c                       0x00000000   Number         0  ceilf.o ABSOLUTE
    ../mathlib/cosf.c                        0x00000000   Number         0  cosf_x.o ABSOLUTE
    ../mathlib/cosf.c                        0x00000000   Number         0  cosf.o ABSOLUTE
    ../mathlib/coshf.c                       0x00000000   Number         0  coshf_x.o ABSOLUTE
    ../mathlib/coshf.c                       0x00000000   Number         0  coshf.o ABSOLUTE
    ../mathlib/dunder.c                      0x00000000   Number         0  dunder.o ABSOLUTE
    ../mathlib/erff.c                        0x00000000   Number         0  erff_x.o ABSOLUTE
    ../mathlib/erff.c                        0x00000000   Number         0  erff.o ABSOLUTE
    ../mathlib/expf.c                        0x00000000   Number         0  expf_x.o ABSOLUTE
    ../mathlib/expf.c                        0x00000000   Number         0  expf.o ABSOLUTE
    ../mathlib/fabs.c                        0x00000000   Number         0  fabs.o ABSOLUTE
    ../mathlib/floorf.c                      0x00000000   Number         0  floorf.o ABSOLUTE
    ../mathlib/fmodf.c                       0x00000000   Number         0  fmodf.o ABSOLUTE
    ../mathlib/fmodf.c                       0x00000000   Number         0  fmodf_x.o ABSOLUTE
    ../mathlib/fpclassify.c                  0x00000000   Number         0  fpclassify.o ABSOLUTE
    ../mathlib/fpclassifyf.c                 0x00000000   Number         0  fpclassifyf.o ABSOLUTE
    ../mathlib/funder.c                      0x00000000   Number         0  funder.o ABSOLUTE
    ../mathlib/log1pf.c                      0x00000000   Number         0  log1pf_x.o ABSOLUTE
    ../mathlib/log1pf.c                      0x00000000   Number         0  log1pf_i.o ABSOLUTE
    ../mathlib/logf.c                        0x00000000   Number         0  logf.o ABSOLUTE
    ../mathlib/logf.c                        0x00000000   Number         0  logf_x.o ABSOLUTE
    ../mathlib/logf.c                        0x00000000   Number         0  logf_i.o ABSOLUTE
    ../mathlib/poly.c                        0x00000000   Number         0  poly.o ABSOLUTE
    ../mathlib/pow.c                         0x00000000   Number         0  pow.o ABSOLUTE
    ../mathlib/pow.c                         0x00000000   Number         0  pow_x.o ABSOLUTE
    ../mathlib/powf.c                        0x00000000   Number         0  powf.o ABSOLUTE
    ../mathlib/powf.c                        0x00000000   Number         0  powf_x.o ABSOLUTE
    ../mathlib/qnan.c                        0x00000000   Number         0  qnan.o ABSOLUTE
    ../mathlib/round.c                       0x00000000   Number         0  roundf.o ABSOLUTE
    ../mathlib/rredf.c                       0x00000000   Number         0  rredf.o ABSOLUTE
    ../mathlib/sinf.c                        0x00000000   Number         0  sinf_x.o ABSOLUTE
    ../mathlib/sinf.c                        0x00000000   Number         0  sinf.o ABSOLUTE
    ../mathlib/sinhf.c                       0x00000000   Number         0  sinhf_x.o ABSOLUTE
    ../mathlib/sinhf.c                       0x00000000   Number         0  sinhf.o ABSOLUTE
    ../mathlib/sqrt.c                        0x00000000   Number         0  sqrt.o ABSOLUTE
    ../mathlib/sqrt.c                        0x00000000   Number         0  sqrt_x.o ABSOLUTE
    ../mathlib/sqrtf.c                       0x00000000   Number         0  sqrtf.o ABSOLUTE
    ../mathlib/sqrtf.c                       0x00000000   Number         0  sqrtf_x.o ABSOLUTE
    ../mathlib/tanf.c                        0x00000000   Number         0  tanf.o ABSOLUTE
    ../mathlib/tanf.c                        0x00000000   Number         0  tanf_x.o ABSOLUTE
    ../mathlib/tanhf.c                       0x00000000   Number         0  tanhf_x.o ABSOLUTE
    ../mathlib/tanhf.c                       0x00000000   Number         0  tanhf.o ABSOLUTE
    ..\..\..\src\ai_lite\src\kernels\forward_lite_conv2d_if32of32wf32.c 0x00000000   Number         0  forward_lite_conv2d_if32of32wf32.o ABSOLUTE
    ..\..\..\src\ai_lite\src\kernels\lite_dense_if32.c 0x00000000   Number         0  lite_dense_if32.o ABSOLUTE
    ..\..\..\src\api\ai_datatypes_format.c   0x00000000   Number         0  ai_datatypes_format.o ABSOLUTE
    ..\..\..\src\api\ai_datatypes_internal.c 0x00000000   Number         0  ai_datatypes_internal.o ABSOLUTE
    ..\..\..\src\api\ai_platform.c           0x00000000   Number         0  ai_platform.o ABSOLUTE
    ..\..\..\src\api\ai_platform_interface.c 0x00000000   Number         0  ai_platform_interface.o ABSOLUTE
    ..\..\..\src\core\core_common.c          0x00000000   Number         0  core_common.o ABSOLUTE
    ..\..\..\src\core\core_mem_manager.c     0x00000000   Number         0  core_mem_manager.o ABSOLUTE
    ..\..\..\src\core\core_utils.c           0x00000000   Number         0  core_utils.o ABSOLUTE
    ..\..\..\src\helpers\ai_math_helpers.c   0x00000000   Number         0  ai_math_helpers.o ABSOLUTE
    ..\..\..\src\layers\layers.c             0x00000000   Number         0  layers.o ABSOLUTE
    ..\..\..\src\layers\layers_conv2d_generic_float.c 0x00000000   Number         0  layers_conv2d_generic_float.o ABSOLUTE
    ..\..\..\src\layers\layers_conv2d_stm32_integer.c 0x00000000   Number         0  layers_conv2d_stm32_integer.o ABSOLUTE
    ..\..\..\src\layers\layers_nl_generic_float.c 0x00000000   Number         0  layers_nl_generic_float.o ABSOLUTE
    ..\..\..\src\layers\layers_norm_generic_float.c 0x00000000   Number         0  layers_norm_generic_float.o ABSOLUTE
    ..\..\..\src\layers\layers_pool_generic_float.c 0x00000000   Number         0  layers_pool_generic_float.o ABSOLUTE
    ..\..\Drivers\CMSIS\DSP\Source\MatrixFunctions\arm_mat_init_f32.c 0x00000000   Number         0  arm_mat_init_f32.o ABSOLUTE
    ..\..\Drivers\CMSIS\DSP\Source\SupportFunctions\arm_copy_q7.c 0x00000000   Number         0  arm_copy_q7.o ABSOLUTE
    ..\..\Drivers\CMSIS\DSP\Source\SupportFunctions\arm_fill_q15.c 0x00000000   Number         0  arm_fill_q15.o ABSOLUTE
    ..\..\Drivers\ST_CMSIS\NN\Source\ConvolutionFunctions\st_convolve_reference.c 0x00000000   Number         0  st_convolve_reference.o ABSOLUTE
    ..\..\Drivers\ST_CMSIS\NN\Source\ConvolutionFunctions\st_sssa8_ch_convolve.c 0x00000000   Number         0  st_sssa8_ch_convolve.o ABSOLUTE
    ..\..\Drivers\ST_CMSIS\NN\Source\ConvolutionFunctions\st_sssa8_convolve.c 0x00000000   Number         0  st_sssa8_convolve.o ABSOLUTE
    ..\..\Drivers\ST_CMSIS\NN\Source\ConvolutionFunctions\st_sssa8_convolve_1x1.c 0x00000000   Number         0  st_sssa8_convolve_1x1.o ABSOLUTE
    ..\..\Drivers\ST_CMSIS\NN\Source\ConvolutionFunctions\st_sssa8_convolve_dw.c 0x00000000   Number         0  st_sssa8_convolve_dw.o ABSOLUTE
    ..\..\Drivers\ST_CMSIS\NN\Source\ConvolutionFunctions\st_sssa8_convolve_rgb.c 0x00000000   Number         0  st_sssa8_convolve_rgb.o ABSOLUTE
    ..\..\Drivers\ST_CMSIS\NN\Source\ConvolutionFunctions\st_ssua8_ch_convolve.c 0x00000000   Number         0  st_ssua8_ch_convolve.o ABSOLUTE
    ..\..\Drivers\ST_CMSIS\NN\Source\ConvolutionFunctions\st_ssua8_ch_convolve_1x1.c 0x00000000   Number         0  st_ssua8_ch_convolve_1x1.o ABSOLUTE
    ..\..\Drivers\ST_CMSIS\NN\Source\ConvolutionFunctions\st_ssua8_ch_convolve_dw.c 0x00000000   Number         0  st_ssua8_ch_convolve_dw.o ABSOLUTE
    ..\..\Drivers\ST_CMSIS\NN\Source\ConvolutionFunctions\st_ssua8_ch_convolve_rgb.c 0x00000000   Number         0  st_ssua8_ch_convolve_rgb.o ABSOLUTE
    ..\..\Drivers\ST_CMSIS\NN\Source\ConvolutionFunctions\st_ssua8_convolve.c 0x00000000   Number         0  st_ssua8_convolve.o ABSOLUTE
    ..\..\Drivers\ST_CMSIS\NN\Source\ConvolutionFunctions\st_ssua8_convolve_1x1.c 0x00000000   Number         0  st_ssua8_convolve_1x1.o ABSOLUTE
    ..\..\Drivers\ST_CMSIS\NN\Source\ConvolutionFunctions\st_ssua8_convolve_dw.c 0x00000000   Number         0  st_ssua8_convolve_dw.o ABSOLUTE
    ..\..\Drivers\ST_CMSIS\NN\Source\ConvolutionFunctions\st_ssua8_convolve_rgb.c 0x00000000   Number         0  st_ssua8_convolve_rgb.o ABSOLUTE
    ..\..\Drivers\ST_CMSIS\NN\Source\ConvolutionFunctions\st_uaua8_ch_convolve.c 0x00000000   Number         0  st_uaua8_ch_convolve.o ABSOLUTE
    ..\..\Drivers\ST_CMSIS\NN\Source\ConvolutionFunctions\st_uaua8_ch_convolve_1x1.c 0x00000000   Number         0  st_uaua8_ch_convolve_1x1.o ABSOLUTE
    ..\..\Drivers\ST_CMSIS\NN\Source\ConvolutionFunctions\st_uaua8_ch_convolve_dw.c 0x00000000   Number         0  st_uaua8_ch_convolve_dw.o ABSOLUTE
    ..\..\Drivers\ST_CMSIS\NN\Source\ConvolutionFunctions\st_uaua8_ch_convolve_rgb.c 0x00000000   Number         0  st_uaua8_ch_convolve_rgb.o ABSOLUTE
    ..\..\Drivers\ST_CMSIS\NN\Source\ConvolutionFunctions\st_uaua8_convolve.c 0x00000000   Number         0  st_uaua8_convolve.o ABSOLUTE
    ..\..\Drivers\ST_CMSIS\NN\Source\ConvolutionFunctions\st_uaua8_convolve_1x1.c 0x00000000   Number         0  st_uaua8_convolve_1x1.o ABSOLUTE
    ..\..\Drivers\ST_CMSIS\NN\Source\ConvolutionFunctions\st_uaua8_convolve_dw.c 0x00000000   Number         0  st_uaua8_convolve_dw.o ABSOLUTE
    ..\..\Drivers\ST_CMSIS\NN\Source\ConvolutionFunctions\st_uaua8_convolve_rgb.c 0x00000000   Number         0  st_uaua8_convolve_rgb.o ABSOLUTE
    ..\..\Drivers\ST_CMSIS\NN\Source\FullyConnectedFunctions\st_sssa8_ch_dense.c 0x00000000   Number         0  st_sssa8_ch_dense.o ABSOLUTE
    ..\..\Drivers\ST_CMSIS\NN\Source\FullyConnectedFunctions\st_sssa8_dense.c 0x00000000   Number         0  st_sssa8_dense.o ABSOLUTE
    ..\..\Drivers\ST_CMSIS\NN\Source\FullyConnectedFunctions\st_ssua8_ch_dense.c 0x00000000   Number         0  st_ssua8_ch_dense.o ABSOLUTE
    ..\..\Drivers\ST_CMSIS\NN\Source\FullyConnectedFunctions\st_ssua8_dense.c 0x00000000   Number         0  st_ssua8_dense.o ABSOLUTE
    ..\..\Drivers\ST_CMSIS\NN\Source\FullyConnectedFunctions\st_uaua8_ch_dense.c 0x00000000   Number         0  st_uaua8_ch_dense.o ABSOLUTE
    ..\..\Drivers\ST_CMSIS\NN\Source\FullyConnectedFunctions\st_uaua8_dense.c 0x00000000   Number         0  st_uaua8_dense.o ABSOLUTE
    ..\..\Drivers\ST_CMSIS\NN\Source\NNSupportFunctions\st_int8_fill.c 0x00000000   Number         0  st_int8_fill.o ABSOLUTE
    ..\..\Drivers\ST_CMSIS\NN\Source\NNSupportFunctions\st_int8_reordered_no_shift.c 0x00000000   Number         0  st_int8_reordered_no_shift.o ABSOLUTE
    ..\..\Drivers\ST_CMSIS\NN\Source\NNSupportFunctions\st_int8_to16_no_shift.c 0x00000000   Number         0  st_int8_to16_no_shift.o ABSOLUTE
    ..\..\Drivers\ST_CMSIS\NN\Source\NNSupportFunctions\st_padding_opt.c 0x00000000   Number         0  st_padding_opt.o ABSOLUTE
    ..\..\Drivers\ST_CMSIS\NN\Source\NNSupportFunctions\st_sssa8_ch_nn_mat_mult_kernel_opt.c 0x00000000   Number         0  st_sssa8_ch_nn_mat_mult_kernel_opt.o ABSOLUTE
    ..\..\Drivers\ST_CMSIS\NN\Source\NNSupportFunctions\st_sssa8_ch_nn_mat_mult_nt_t.c 0x00000000   Number         0  st_sssa8_ch_nn_mat_mult_nt_t.o ABSOLUTE
    ..\..\Drivers\ST_CMSIS\NN\Source\NNSupportFunctions\st_sssa8_nn_mat_mult_kernel.c 0x00000000   Number         0  st_sssa8_nn_mat_mult_kernel.o ABSOLUTE
    ..\..\Drivers\ST_CMSIS\NN\Source\NNSupportFunctions\st_sssa8_nn_mat_mult_kernel_opt.c 0x00000000   Number         0  st_sssa8_nn_mat_mult_kernel_opt.o ABSOLUTE
    ..\..\Drivers\ST_CMSIS\NN\Source\NNSupportFunctions\st_sssa8_nn_mat_mult_nt_t.c 0x00000000   Number         0  st_sssa8_nn_mat_mult_nt_t.o ABSOLUTE
    ..\..\Drivers\ST_CMSIS\NN\Source\NNSupportFunctions\st_ssua8_ch_nn_mat_mult_kernel.c 0x00000000   Number         0  st_ssua8_ch_nn_mat_mult_kernel.o ABSOLUTE
    ..\..\Drivers\ST_CMSIS\NN\Source\NNSupportFunctions\st_ssua8_ch_nn_mat_mult_nt_t.c 0x00000000   Number         0  st_ssua8_ch_nn_mat_mult_nt_t.o ABSOLUTE
    ..\..\Drivers\ST_CMSIS\NN\Source\NNSupportFunctions\st_ssua8_nn_mat_mult_kernel.c 0x00000000   Number         0  st_ssua8_nn_mat_mult_kernel.o ABSOLUTE
    ..\..\Drivers\ST_CMSIS\NN\Source\NNSupportFunctions\st_ssua8_nn_mat_mult_nt_t.c 0x00000000   Number         0  st_ssua8_nn_mat_mult_nt_t.o ABSOLUTE
    ..\..\Drivers\ST_CMSIS\NN\Source\NNSupportFunctions\st_uaua8_ch_nn_mat_mult_kernel.c 0x00000000   Number         0  st_uaua8_ch_nn_mat_mult_kernel.o ABSOLUTE
    ..\..\Drivers\ST_CMSIS\NN\Source\NNSupportFunctions\st_uaua8_ch_nn_mat_mult_nt_t.c 0x00000000   Number         0  st_uaua8_ch_nn_mat_mult_nt_t.o ABSOLUTE
    ..\..\Drivers\ST_CMSIS\NN\Source\NNSupportFunctions\st_uaua8_nn_mat_mult_kernel.c 0x00000000   Number         0  st_uaua8_nn_mat_mult_kernel.o ABSOLUTE
    ..\..\Drivers\ST_CMSIS\NN\Source\NNSupportFunctions\st_uaua8_nn_mat_mult_nt_t.c 0x00000000   Number         0  st_uaua8_nn_mat_mult_nt_t.o ABSOLUTE
    ..\..\Drivers\ST_CMSIS\NN\Source\NNSupportFunctions\st_uint8_fill.c 0x00000000   Number         0  st_uint8_fill.o ABSOLUTE
    ..\..\Drivers\ST_CMSIS\NN\Source\NNSupportFunctions\st_uint8_reordered_no_shift.c 0x00000000   Number         0  st_uint8_reordered_no_shift.o ABSOLUTE
    ..\..\Drivers\ST_CMSIS\NN\Source\NNSupportFunctions\st_uint8_to16_no_shift.c 0x00000000   Number         0  st_uint8_to16_no_shift.o ABSOLUTE
    ..\Core\Src\crc.c                        0x00000000   Number         0  crc.o ABSOLUTE
    ..\Core\Src\gpio.c                       0x00000000   Number         0  gpio.o ABSOLUTE
    ..\Core\Src\main.c                       0x00000000   Number         0  main.o ABSOLUTE
    ..\Core\Src\stm32h7xx_hal_msp.c          0x00000000   Number         0  stm32h7xx_hal_msp.o ABSOLUTE
    ..\Core\Src\stm32h7xx_it.c               0x00000000   Number         0  stm32h7xx_it.o ABSOLUTE
    ..\Core\Src\system_stm32h7xx.c           0x00000000   Number         0  system_stm32h7xx.o ABSOLUTE
    ..\Drivers\BSP\SDMMC\sdmmc_sdcard.c      0x00000000   Number         0  sdmmc_sdcard.o ABSOLUTE
    ..\Drivers\BSP\TIMER\btim.c              0x00000000   Number         0  btim.o ABSOLUTE
    ..\Drivers\STM32H7xx_HAL_Driver\Src\stm32h7xx_hal.c 0x00000000   Number         0  stm32h7xx_hal.o ABSOLUTE
    ..\Drivers\STM32H7xx_HAL_Driver\Src\stm32h7xx_hal_cortex.c 0x00000000   Number         0  stm32h7xx_hal_cortex.o ABSOLUTE
    ..\Drivers\STM32H7xx_HAL_Driver\Src\stm32h7xx_hal_crc.c 0x00000000   Number         0  stm32h7xx_hal_crc.o ABSOLUTE
    ..\Drivers\STM32H7xx_HAL_Driver\Src\stm32h7xx_hal_crc_ex.c 0x00000000   Number         0  stm32h7xx_hal_crc_ex.o ABSOLUTE
    ..\Drivers\STM32H7xx_HAL_Driver\Src\stm32h7xx_hal_dma.c 0x00000000   Number         0  stm32h7xx_hal_dma.o ABSOLUTE
    ..\Drivers\STM32H7xx_HAL_Driver\Src\stm32h7xx_hal_dma_ex.c 0x00000000   Number         0  stm32h7xx_hal_dma_ex.o ABSOLUTE
    ..\Drivers\STM32H7xx_HAL_Driver\Src\stm32h7xx_hal_exti.c 0x00000000   Number         0  stm32h7xx_hal_exti.o ABSOLUTE
    ..\Drivers\STM32H7xx_HAL_Driver\Src\stm32h7xx_hal_flash.c 0x00000000   Number         0  stm32h7xx_hal_flash.o ABSOLUTE
    ..\Drivers\STM32H7xx_HAL_Driver\Src\stm32h7xx_hal_flash_ex.c 0x00000000   Number         0  stm32h7xx_hal_flash_ex.o ABSOLUTE
    ..\Drivers\STM32H7xx_HAL_Driver\Src\stm32h7xx_hal_gpio.c 0x00000000   Number         0  stm32h7xx_hal_gpio.o ABSOLUTE
    ..\Drivers\STM32H7xx_HAL_Driver\Src\stm32h7xx_hal_hsem.c 0x00000000   Number         0  stm32h7xx_hal_hsem.o ABSOLUTE
    ..\Drivers\STM32H7xx_HAL_Driver\Src\stm32h7xx_hal_i2c.c 0x00000000   Number         0  stm32h7xx_hal_i2c.o ABSOLUTE
    ..\Drivers\STM32H7xx_HAL_Driver\Src\stm32h7xx_hal_i2c_ex.c 0x00000000   Number         0  stm32h7xx_hal_i2c_ex.o ABSOLUTE
    ..\Drivers\STM32H7xx_HAL_Driver\Src\stm32h7xx_hal_mdma.c 0x00000000   Number         0  stm32h7xx_hal_mdma.o ABSOLUTE
    ..\Drivers\STM32H7xx_HAL_Driver\Src\stm32h7xx_hal_pwr.c 0x00000000   Number         0  stm32h7xx_hal_pwr.o ABSOLUTE
    ..\Drivers\STM32H7xx_HAL_Driver\Src\stm32h7xx_hal_pwr_ex.c 0x00000000   Number         0  stm32h7xx_hal_pwr_ex.o ABSOLUTE
    ..\Drivers\STM32H7xx_HAL_Driver\Src\stm32h7xx_hal_rcc.c 0x00000000   Number         0  stm32h7xx_hal_rcc.o ABSOLUTE
    ..\Drivers\STM32H7xx_HAL_Driver\Src\stm32h7xx_hal_rcc_ex.c 0x00000000   Number         0  stm32h7xx_hal_rcc_ex.o ABSOLUTE
    ..\Drivers\STM32H7xx_HAL_Driver\Src\stm32h7xx_hal_tim.c 0x00000000   Number         0  stm32h7xx_hal_tim.o ABSOLUTE
    ..\Drivers\STM32H7xx_HAL_Driver\Src\stm32h7xx_hal_tim_ex.c 0x00000000   Number         0  stm32h7xx_hal_tim_ex.o ABSOLUTE
    ..\Drivers\STM32H7xx_HAL_Driver\Src\stm32h7xx_hal_uart.c 0x00000000   Number         0  stm32h7xx_hal_uart.o ABSOLUTE
    ..\Drivers\STM32H7xx_HAL_Driver\Src\stm32h7xx_hal_uart_ex.c 0x00000000   Number         0  stm32h7xx_hal_uart_ex.o ABSOLUTE
    ..\Drivers\STM32H7xx_HAL_Driver\Src\stm32h7xx_hal_usart.c 0x00000000   Number         0  stm32h7xx_hal_usart.o ABSOLUTE
    ..\Drivers\STM32H7xx_HAL_Driver\Src\stm32h7xx_hal_usart_ex.c 0x00000000   Number         0  stm32h7xx_hal_usart_ex.o ABSOLUTE
    ..\Drivers\STM32H7xx_HAL_Driver\Src\stm32h7xx_ll_usart.c 0x00000000   Number         0  stm32h7xx_ll_usart.o ABSOLUTE
    ..\Drivers\SYSTEM\MALLOC\malloc.c        0x00000000   Number         0  malloc.o ABSOLUTE
    ..\Drivers\SYSTEM\delay\delay.c          0x00000000   Number         0  delay.o ABSOLUTE
    ..\Drivers\SYSTEM\sys\sys.c              0x00000000   Number         0  sys.o ABSOLUTE
    ..\Drivers\SYSTEM\usart\usart.c          0x00000000   Number         0  usart.o ABSOLUTE
    ..\FATFS\exfuns\exfuns.c                 0x00000000   Number         0  exfuns.o ABSOLUTE
    ..\FATFS\exfuns\fattester.c              0x00000000   Number         0  fattester.o ABSOLUTE
    ..\FATFS\source\diskio.c                 0x00000000   Number         0  diskio.o ABSOLUTE
    ..\FATFS\source\ff.c                     0x00000000   Number         0  ff.o ABSOLUTE
    ..\FATFS\source\ffsystem.c               0x00000000   Number         0  ffsystem.o ABSOLUTE
    ..\FATFS\source\ffunicode.c              0x00000000   Number         0  ffunicode.o ABSOLUTE
    ..\READFILE\readfile.c                   0x00000000   Number         0  readfile.o ABSOLUTE
    ..\X-CUBE-AI\App\app_x-cube-ai.c         0x00000000   Number         0  app_x-cube-ai.o ABSOLUTE
    ..\X-CUBE-AI\ECG_RUN\ecg_run.c           0x00000000   Number         0  ecg_run.o ABSOLUTE
    ..\\..\\..\\src\\api\\ai_platform_interface.c 0x00000000   Number         0  ai_platform_interface.o ABSOLUTE
    ..\\..\\..\\src\\core\\core_utils.c      0x00000000   Number         0  core_utils.o ABSOLUTE
    ..\\..\\..\\src\\helpers\\ai_math_helpers.c 0x00000000   Number         0  ai_math_helpers.o ABSOLUTE
    ..\\..\\..\\src\\layers\\layers.c        0x00000000   Number         0  layers.o ABSOLUTE
    ..\\..\\..\\src\\layers\\layers_conv2d_generic_float.c 0x00000000   Number         0  layers_conv2d_generic_float.o ABSOLUTE
    ..\\..\\..\\src\\layers\\layers_conv2d_stm32_integer.c 0x00000000   Number         0  layers_conv2d_stm32_integer.o ABSOLUTE
    ..\\..\\..\\src\\layers\\layers_nl_generic_float.c 0x00000000   Number         0  layers_nl_generic_float.o ABSOLUTE
    ..\\..\\..\\src\\layers\\layers_norm_generic_float.c 0x00000000   Number         0  layers_norm_generic_float.o ABSOLUTE
    ..\\..\\Drivers\\CMSIS\\DSP\\Source\\MatrixFunctions\\arm_mat_init_f32.c 0x00000000   Number         0  arm_mat_init_f32.o ABSOLUTE
    ..\\..\\Drivers\\CMSIS\\DSP\\Source\\SupportFunctions\\arm_copy_q7.c 0x00000000   Number         0  arm_copy_q7.o ABSOLUTE
    ..\\..\\Drivers\\CMSIS\\DSP\\Source\\SupportFunctions\\arm_fill_q15.c 0x00000000   Number         0  arm_fill_q15.o ABSOLUTE
    ..\\..\\Drivers\\ST_CMSIS\\NN\\Source\\ConvolutionFunctions\\st_convolve_reference.c 0x00000000   Number         0  st_convolve_reference.o ABSOLUTE
    ..\\..\\Drivers\\ST_CMSIS\\NN\\Source\\ConvolutionFunctions\\st_sssa8_ch_convolve.c 0x00000000   Number         0  st_sssa8_ch_convolve.o ABSOLUTE
    ..\\..\\Drivers\\ST_CMSIS\\NN\\Source\\ConvolutionFunctions\\st_sssa8_convolve.c 0x00000000   Number         0  st_sssa8_convolve.o ABSOLUTE
    ..\\..\\Drivers\\ST_CMSIS\\NN\\Source\\ConvolutionFunctions\\st_sssa8_convolve_1x1.c 0x00000000   Number         0  st_sssa8_convolve_1x1.o ABSOLUTE
    ..\\..\\Drivers\\ST_CMSIS\\NN\\Source\\ConvolutionFunctions\\st_sssa8_convolve_dw.c 0x00000000   Number         0  st_sssa8_convolve_dw.o ABSOLUTE
    ..\\..\\Drivers\\ST_CMSIS\\NN\\Source\\ConvolutionFunctions\\st_sssa8_convolve_rgb.c 0x00000000   Number         0  st_sssa8_convolve_rgb.o ABSOLUTE
    ..\\..\\Drivers\\ST_CMSIS\\NN\\Source\\ConvolutionFunctions\\st_ssua8_ch_convolve.c 0x00000000   Number         0  st_ssua8_ch_convolve.o ABSOLUTE
    ..\\..\\Drivers\\ST_CMSIS\\NN\\Source\\ConvolutionFunctions\\st_ssua8_ch_convolve_1x1.c 0x00000000   Number         0  st_ssua8_ch_convolve_1x1.o ABSOLUTE
    ..\\..\\Drivers\\ST_CMSIS\\NN\\Source\\ConvolutionFunctions\\st_ssua8_ch_convolve_dw.c 0x00000000   Number         0  st_ssua8_ch_convolve_dw.o ABSOLUTE
    ..\\..\\Drivers\\ST_CMSIS\\NN\\Source\\ConvolutionFunctions\\st_ssua8_ch_convolve_rgb.c 0x00000000   Number         0  st_ssua8_ch_convolve_rgb.o ABSOLUTE
    ..\\..\\Drivers\\ST_CMSIS\\NN\\Source\\ConvolutionFunctions\\st_ssua8_convolve.c 0x00000000   Number         0  st_ssua8_convolve.o ABSOLUTE
    ..\\..\\Drivers\\ST_CMSIS\\NN\\Source\\ConvolutionFunctions\\st_ssua8_convolve_1x1.c 0x00000000   Number         0  st_ssua8_convolve_1x1.o ABSOLUTE
    ..\\..\\Drivers\\ST_CMSIS\\NN\\Source\\ConvolutionFunctions\\st_ssua8_convolve_dw.c 0x00000000   Number         0  st_ssua8_convolve_dw.o ABSOLUTE
    ..\\..\\Drivers\\ST_CMSIS\\NN\\Source\\ConvolutionFunctions\\st_ssua8_convolve_rgb.c 0x00000000   Number         0  st_ssua8_convolve_rgb.o ABSOLUTE
    ..\\..\\Drivers\\ST_CMSIS\\NN\\Source\\ConvolutionFunctions\\st_uaua8_ch_convolve.c 0x00000000   Number         0  st_uaua8_ch_convolve.o ABSOLUTE
    ..\\..\\Drivers\\ST_CMSIS\\NN\\Source\\ConvolutionFunctions\\st_uaua8_ch_convolve_1x1.c 0x00000000   Number         0  st_uaua8_ch_convolve_1x1.o ABSOLUTE
    ..\\..\\Drivers\\ST_CMSIS\\NN\\Source\\ConvolutionFunctions\\st_uaua8_ch_convolve_dw.c 0x00000000   Number         0  st_uaua8_ch_convolve_dw.o ABSOLUTE
    ..\\..\\Drivers\\ST_CMSIS\\NN\\Source\\ConvolutionFunctions\\st_uaua8_ch_convolve_rgb.c 0x00000000   Number         0  st_uaua8_ch_convolve_rgb.o ABSOLUTE
    ..\\..\\Drivers\\ST_CMSIS\\NN\\Source\\ConvolutionFunctions\\st_uaua8_convolve.c 0x00000000   Number         0  st_uaua8_convolve.o ABSOLUTE
    ..\\..\\Drivers\\ST_CMSIS\\NN\\Source\\ConvolutionFunctions\\st_uaua8_convolve_1x1.c 0x00000000   Number         0  st_uaua8_convolve_1x1.o ABSOLUTE
    ..\\..\\Drivers\\ST_CMSIS\\NN\\Source\\ConvolutionFunctions\\st_uaua8_convolve_dw.c 0x00000000   Number         0  st_uaua8_convolve_dw.o ABSOLUTE
    ..\\..\\Drivers\\ST_CMSIS\\NN\\Source\\ConvolutionFunctions\\st_uaua8_convolve_rgb.c 0x00000000   Number         0  st_uaua8_convolve_rgb.o ABSOLUTE
    ..\\..\\Drivers\\ST_CMSIS\\NN\\Source\\FullyConnectedFunctions\\st_sssa8_ch_dense.c 0x00000000   Number         0  st_sssa8_ch_dense.o ABSOLUTE
    ..\\..\\Drivers\\ST_CMSIS\\NN\\Source\\FullyConnectedFunctions\\st_sssa8_dense.c 0x00000000   Number         0  st_sssa8_dense.o ABSOLUTE
    ..\\..\\Drivers\\ST_CMSIS\\NN\\Source\\FullyConnectedFunctions\\st_ssua8_ch_dense.c 0x00000000   Number         0  st_ssua8_ch_dense.o ABSOLUTE
    ..\\..\\Drivers\\ST_CMSIS\\NN\\Source\\FullyConnectedFunctions\\st_ssua8_dense.c 0x00000000   Number         0  st_ssua8_dense.o ABSOLUTE
    ..\\..\\Drivers\\ST_CMSIS\\NN\\Source\\FullyConnectedFunctions\\st_uaua8_ch_dense.c 0x00000000   Number         0  st_uaua8_ch_dense.o ABSOLUTE
    ..\\..\\Drivers\\ST_CMSIS\\NN\\Source\\FullyConnectedFunctions\\st_uaua8_dense.c 0x00000000   Number         0  st_uaua8_dense.o ABSOLUTE
    ..\\..\\Drivers\\ST_CMSIS\\NN\\Source\\NNSupportFunctions\\st_int8_fill.c 0x00000000   Number         0  st_int8_fill.o ABSOLUTE
    ..\\..\\Drivers\\ST_CMSIS\\NN\\Source\\NNSupportFunctions\\st_int8_reordered_no_shift.c 0x00000000   Number         0  st_int8_reordered_no_shift.o ABSOLUTE
    ..\\..\\Drivers\\ST_CMSIS\\NN\\Source\\NNSupportFunctions\\st_int8_to16_no_shift.c 0x00000000   Number         0  st_int8_to16_no_shift.o ABSOLUTE
    ..\\..\\Drivers\\ST_CMSIS\\NN\\Source\\NNSupportFunctions\\st_padding_opt.c 0x00000000   Number         0  st_padding_opt.o ABSOLUTE
    ..\\..\\Drivers\\ST_CMSIS\\NN\\Source\\NNSupportFunctions\\st_sssa8_ch_nn_mat_mult_kernel_opt.c 0x00000000   Number         0  st_sssa8_ch_nn_mat_mult_kernel_opt.o ABSOLUTE
    ..\\..\\Drivers\\ST_CMSIS\\NN\\Source\\NNSupportFunctions\\st_sssa8_ch_nn_mat_mult_nt_t.c 0x00000000   Number         0  st_sssa8_ch_nn_mat_mult_nt_t.o ABSOLUTE
    ..\\..\\Drivers\\ST_CMSIS\\NN\\Source\\NNSupportFunctions\\st_sssa8_nn_mat_mult_kernel.c 0x00000000   Number         0  st_sssa8_nn_mat_mult_kernel.o ABSOLUTE
    ..\\..\\Drivers\\ST_CMSIS\\NN\\Source\\NNSupportFunctions\\st_sssa8_nn_mat_mult_kernel_opt.c 0x00000000   Number         0  st_sssa8_nn_mat_mult_kernel_opt.o ABSOLUTE
    ..\\..\\Drivers\\ST_CMSIS\\NN\\Source\\NNSupportFunctions\\st_sssa8_nn_mat_mult_nt_t.c 0x00000000   Number         0  st_sssa8_nn_mat_mult_nt_t.o ABSOLUTE
    ..\\..\\Drivers\\ST_CMSIS\\NN\\Source\\NNSupportFunctions\\st_ssua8_ch_nn_mat_mult_kernel.c 0x00000000   Number         0  st_ssua8_ch_nn_mat_mult_kernel.o ABSOLUTE
    ..\\..\\Drivers\\ST_CMSIS\\NN\\Source\\NNSupportFunctions\\st_ssua8_ch_nn_mat_mult_nt_t.c 0x00000000   Number         0  st_ssua8_ch_nn_mat_mult_nt_t.o ABSOLUTE
    ..\\..\\Drivers\\ST_CMSIS\\NN\\Source\\NNSupportFunctions\\st_ssua8_nn_mat_mult_kernel.c 0x00000000   Number         0  st_ssua8_nn_mat_mult_kernel.o ABSOLUTE
    ..\\..\\Drivers\\ST_CMSIS\\NN\\Source\\NNSupportFunctions\\st_ssua8_nn_mat_mult_nt_t.c 0x00000000   Number         0  st_ssua8_nn_mat_mult_nt_t.o ABSOLUTE
    ..\\..\\Drivers\\ST_CMSIS\\NN\\Source\\NNSupportFunctions\\st_uaua8_ch_nn_mat_mult_kernel.c 0x00000000   Number         0  st_uaua8_ch_nn_mat_mult_kernel.o ABSOLUTE
    ..\\..\\Drivers\\ST_CMSIS\\NN\\Source\\NNSupportFunctions\\st_uaua8_ch_nn_mat_mult_nt_t.c 0x00000000   Number         0  st_uaua8_ch_nn_mat_mult_nt_t.o ABSOLUTE
    ..\\..\\Drivers\\ST_CMSIS\\NN\\Source\\NNSupportFunctions\\st_uaua8_nn_mat_mult_kernel.c 0x00000000   Number         0  st_uaua8_nn_mat_mult_kernel.o ABSOLUTE
    ..\\..\\Drivers\\ST_CMSIS\\NN\\Source\\NNSupportFunctions\\st_uaua8_nn_mat_mult_nt_t.c 0x00000000   Number         0  st_uaua8_nn_mat_mult_nt_t.o ABSOLUTE
    ..\\..\\Drivers\\ST_CMSIS\\NN\\Source\\NNSupportFunctions\\st_uint8_fill.c 0x00000000   Number         0  st_uint8_fill.o ABSOLUTE
    ..\\..\\Drivers\\ST_CMSIS\\NN\\Source\\NNSupportFunctions\\st_uint8_reordered_no_shift.c 0x00000000   Number         0  st_uint8_reordered_no_shift.o ABSOLUTE
    ..\\..\\Drivers\\ST_CMSIS\\NN\\Source\\NNSupportFunctions\\st_uint8_to16_no_shift.c 0x00000000   Number         0  st_uint8_to16_no_shift.o ABSOLUTE
    ..\\Drivers\\BSP\\SDMMC\\sdmmc_sdcard.c  0x00000000   Number         0  sdmmc_sdcard.o ABSOLUTE
    ..\\Drivers\\BSP\\TIMER\\btim.c          0x00000000   Number         0  btim.o ABSOLUTE
    ..\\Drivers\\STM32H7xx_HAL_Driver\\Src\\stm32h7xx_hal_uart.c 0x00000000   Number         0  stm32h7xx_hal_uart.o ABSOLUTE
    ..\\Drivers\\STM32H7xx_HAL_Driver\\Src\\stm32h7xx_hal_uart_ex.c 0x00000000   Number         0  stm32h7xx_hal_uart_ex.o ABSOLUTE
    ..\\Drivers\\STM32H7xx_HAL_Driver\\Src\\stm32h7xx_hal_usart.c 0x00000000   Number         0  stm32h7xx_hal_usart.o ABSOLUTE
    ..\\Drivers\\STM32H7xx_HAL_Driver\\Src\\stm32h7xx_hal_usart_ex.c 0x00000000   Number         0  stm32h7xx_hal_usart_ex.o ABSOLUTE
    ..\\Drivers\\SYSTEM\\MALLOC\\malloc.c    0x00000000   Number         0  malloc.o ABSOLUTE
    ..\\Drivers\\SYSTEM\\delay\\delay.c      0x00000000   Number         0  delay.o ABSOLUTE
    ..\\Drivers\\SYSTEM\\sys\\sys.c          0x00000000   Number         0  sys.o ABSOLUTE
    ..\\Drivers\\SYSTEM\\usart\\usart.c      0x00000000   Number         0  usart.o ABSOLUTE
    ..\\FATFS\\exfuns\\exfuns.c              0x00000000   Number         0  exfuns.o ABSOLUTE
    ..\\FATFS\\exfuns\\fattester.c           0x00000000   Number         0  fattester.o ABSOLUTE
    ..\\FATFS\\source\\diskio.c              0x00000000   Number         0  diskio.o ABSOLUTE
    ..\\FATFS\\source\\ffsystem.c            0x00000000   Number         0  ffsystem.o ABSOLUTE
    ..\\READFILE\\readfile.c                 0x00000000   Number         0  readfile.o ABSOLUTE
    ..\\X-CUBE-AI\\ECG_RUN\\ecg_run.c        0x00000000   Number         0  ecg_run.o ABSOLUTE
    dc.s                                     0x00000000   Number         0  dc.o ABSOLUTE
    mem6base                                 0x00000000   Data       61440  malloc.o(.ARM.__AT_0x00000000)
    startup_stm32h743xx.s                    0x00000000   Number         0  startup_stm32h743xx.o ABSOLUTE
    .ARM.__AT_0x0000F000                     0x0000f000   Section     3840  malloc.o(.ARM.__AT_0x0000F000)
    mem6mapbase                              0x0000f000   Data        3840  malloc.o(.ARM.__AT_0x0000F000)
    RESET                                    0x08000000   Section      664  startup_stm32h743xx.o(RESET)
    !!!main                                  0x08000298   Section        8  __main.o(!!!main)
    !!!scatter                               0x080002a0   Section       52  __scatter.o(!!!scatter)
    !!dczerorl2                              0x080002d4   Section       90  __dczerorl2.o(!!dczerorl2)
    !!handler_zi                             0x08000330   Section       28  __scatter_zi.o(!!handler_zi)
    .ARM.Collect$$_printf_percent$$00000000  0x0800034c   Section        0  _printf_percent.o(.ARM.Collect$$_printf_percent$$00000000)
    .ARM.Collect$$_printf_percent$$00000003  0x0800034c   Section        6  _printf_f.o(.ARM.Collect$$_printf_percent$$00000003)
    .ARM.Collect$$_printf_percent$$00000009  0x08000352   Section        6  _printf_d.o(.ARM.Collect$$_printf_percent$$00000009)
    .ARM.Collect$$_printf_percent$$00000017  0x08000358   Section        4  _printf_percent_end.o(.ARM.Collect$$_printf_percent$$00000017)
    .ARM.Collect$$libinit$$00000000          0x0800035c   Section        2  libinit.o(.ARM.Collect$$libinit$$00000000)
    .ARM.Collect$$libinit$$00000001          0x0800035e   Section        4  libinit2.o(.ARM.Collect$$libinit$$00000001)
    .ARM.Collect$$libinit$$00000004          0x08000362   Section        0  libinit2.o(.ARM.Collect$$libinit$$00000004)
    .ARM.Collect$$libinit$$00000005          0x08000362   Section        8  libinit2.o(.ARM.Collect$$libinit$$00000005)
    .ARM.Collect$$libinit$$0000000A          0x0800036a   Section        0  libinit2.o(.ARM.Collect$$libinit$$0000000A)
    .ARM.Collect$$libinit$$0000000C          0x0800036a   Section        0  libinit2.o(.ARM.Collect$$libinit$$0000000C)
    .ARM.Collect$$libinit$$0000000E          0x0800036a   Section        0  libinit2.o(.ARM.Collect$$libinit$$0000000E)
    .ARM.Collect$$libinit$$0000000F          0x0800036a   Section        6  libinit2.o(.ARM.Collect$$libinit$$0000000F)
    .ARM.Collect$$libinit$$00000011          0x08000370   Section        0  libinit2.o(.ARM.Collect$$libinit$$00000011)
    .ARM.Collect$$libinit$$00000013          0x08000370   Section        0  libinit2.o(.ARM.Collect$$libinit$$00000013)
    .ARM.Collect$$libinit$$00000015          0x08000370   Section        0  libinit2.o(.ARM.Collect$$libinit$$00000015)
    .ARM.Collect$$libinit$$00000016          0x08000370   Section       10  libinit2.o(.ARM.Collect$$libinit$$00000016)
    .ARM.Collect$$libinit$$00000017          0x0800037a   Section        0  libinit2.o(.ARM.Collect$$libinit$$00000017)
    .ARM.Collect$$libinit$$00000019          0x0800037a   Section        0  libinit2.o(.ARM.Collect$$libinit$$00000019)
    .ARM.Collect$$libinit$$0000001B          0x0800037a   Section        0  libinit2.o(.ARM.Collect$$libinit$$0000001B)
    .ARM.Collect$$libinit$$0000001D          0x0800037a   Section        0  libinit2.o(.ARM.Collect$$libinit$$0000001D)
    .ARM.Collect$$libinit$$0000001F          0x0800037a   Section        0  libinit2.o(.ARM.Collect$$libinit$$0000001F)
    .ARM.Collect$$libinit$$00000021          0x0800037a   Section        0  libinit2.o(.ARM.Collect$$libinit$$00000021)
    .ARM.Collect$$libinit$$00000023          0x0800037a   Section        0  libinit2.o(.ARM.Collect$$libinit$$00000023)
    .ARM.Collect$$libinit$$00000025          0x0800037a   Section        0  libinit2.o(.ARM.Collect$$libinit$$00000025)
    .ARM.Collect$$libinit$$0000002C          0x0800037a   Section        0  libinit2.o(.ARM.Collect$$libinit$$0000002C)
    .ARM.Collect$$libinit$$0000002E          0x0800037a   Section        0  libinit2.o(.ARM.Collect$$libinit$$0000002E)
    .ARM.Collect$$libinit$$00000030          0x0800037a   Section        0  libinit2.o(.ARM.Collect$$libinit$$00000030)
    .ARM.Collect$$libinit$$00000032          0x0800037a   Section        0  libinit2.o(.ARM.Collect$$libinit$$00000032)
    .ARM.Collect$$libinit$$00000033          0x0800037a   Section        2  libinit2.o(.ARM.Collect$$libinit$$00000033)
    .ARM.Collect$$libshutdown$$00000000      0x0800037c   Section        2  libshutdown.o(.ARM.Collect$$libshutdown$$00000000)
    .ARM.Collect$$libshutdown$$00000002      0x0800037e   Section        0  libshutdown2.o(.ARM.Collect$$libshutdown$$00000002)
    .ARM.Collect$$libshutdown$$00000004      0x0800037e   Section        0  libshutdown2.o(.ARM.Collect$$libshutdown$$00000004)
    .ARM.Collect$$libshutdown$$00000007      0x0800037e   Section        0  libshutdown2.o(.ARM.Collect$$libshutdown$$00000007)
    .ARM.Collect$$libshutdown$$0000000A      0x0800037e   Section        0  libshutdown2.o(.ARM.Collect$$libshutdown$$0000000A)
    .ARM.Collect$$libshutdown$$0000000C      0x0800037e   Section        0  libshutdown2.o(.ARM.Collect$$libshutdown$$0000000C)
    .ARM.Collect$$libshutdown$$0000000F      0x0800037e   Section        0  libshutdown2.o(.ARM.Collect$$libshutdown$$0000000F)
    .ARM.Collect$$libshutdown$$00000010      0x0800037e   Section        2  libshutdown2.o(.ARM.Collect$$libshutdown$$00000010)
    .ARM.Collect$$rtentry$$00000000          0x08000380   Section        0  __rtentry.o(.ARM.Collect$$rtentry$$00000000)
    .ARM.Collect$$rtentry$$00000002          0x08000380   Section        0  __rtentry2.o(.ARM.Collect$$rtentry$$00000002)
    .ARM.Collect$$rtentry$$00000004          0x08000380   Section        6  __rtentry4.o(.ARM.Collect$$rtentry$$00000004)
    .ARM.Collect$$rtentry$$00000009          0x08000386   Section        0  __rtentry2.o(.ARM.Collect$$rtentry$$00000009)
    .ARM.Collect$$rtentry$$0000000A          0x08000386   Section        4  __rtentry2.o(.ARM.Collect$$rtentry$$0000000A)
    .ARM.Collect$$rtentry$$0000000C          0x0800038a   Section        0  __rtentry2.o(.ARM.Collect$$rtentry$$0000000C)
    .ARM.Collect$$rtentry$$0000000D          0x0800038a   Section        8  __rtentry2.o(.ARM.Collect$$rtentry$$0000000D)
    .ARM.Collect$$rtexit$$00000000           0x08000392   Section        2  rtexit.o(.ARM.Collect$$rtexit$$00000000)
    .ARM.Collect$$rtexit$$00000002           0x08000394   Section        0  rtexit2.o(.ARM.Collect$$rtexit$$00000002)
    .ARM.Collect$$rtexit$$00000003           0x08000394   Section        4  rtexit2.o(.ARM.Collect$$rtexit$$00000003)
    .ARM.Collect$$rtexit$$00000004           0x08000398   Section        6  rtexit2.o(.ARM.Collect$$rtexit$$00000004)
    .emb_text                                0x080003a0   Section       16  sys.o(.emb_text)
    $v0                                      0x080003a0   Number         0  sys.o(.emb_text)
    .emb_text                                0x080003b0   Section        0  maybetermalloc1.o(.emb_text)
    .text                                    0x080003b0   Section       64  startup_stm32h743xx.o(.text)
    $v0                                      0x080003b0   Number         0  startup_stm32h743xx.o(.text)
    .text                                    0x080003f0   Section        2  use_no_semi_2.o(.text)
    .text                                    0x080003f2   Section        0  h1_alloc.o(.text)
    .text                                    0x08000450   Section        0  h1_free.o(.text)
    .text                                    0x0800049e   Section      238  lludivv7m.o(.text)
    .text                                    0x0800058c   Section       72  llsdiv.o(.text)
    .text                                    0x080005d4   Section        0  noretval__2printf.o(.text)
    .text                                    0x080005ec   Section        0  noretval__2sprintf.o(.text)
    .text                                    0x08000614   Section        0  _printf_dec.o(.text)
    .text                                    0x0800068c   Section        0  __printf_flags_ss_wp.o(.text)
    .text                                    0x08000814   Section        0  memcmp.o(.text)
    .text                                    0x0800086c   Section      100  rt_memcpy_w.o(.text)
    .text                                    0x080008d0   Section       78  rt_memclr_w.o(.text)
    .text                                    0x08000920   Section      104  strcmpv7m_pel.o(.text)
    .text                                    0x08000988   Section        0  heapauxi.o(.text)
    .text                                    0x0800098e   Section        2  use_no_semi.o(.text)
    .text                                    0x08000990   Section        8  rt_heap_descriptor_intlibspace.o(.text)
    .text                                    0x08000998   Section        0  hguard.o(.text)
    .text                                    0x0800099c   Section        0  init_alloc.o(.text)
    .text                                    0x08000a26   Section        0  h1_init.o(.text)
    .text                                    0x08000a34   Section      138  lludiv10.o(.text)
    .text                                    0x08000abe   Section        0  _rserrno.o(.text)
    .text                                    0x08000ad4   Section        0  _printf_intcommon.o(.text)
    .text                                    0x08000b86   Section        0  _printf_fp_dec.o(.text)
    _fp_digits                               0x08000b89   Thumb Code   432  _printf_fp_dec.o(.text)
    .text                                    0x08000fa4   Section        0  _printf_char_common.o(.text)
    _printf_input_char                       0x08000fa5   Thumb Code    10  _printf_char_common.o(.text)
    .text                                    0x08000fd4   Section        0  _sputc.o(.text)
    .text                                    0x08000fe0   Section        0  _printf_char_file.o(.text)
    .text                                    0x08001004   Section        8  libspace.o(.text)
    .text                                    0x0800100c   Section        8  rt_locale_intlibspace.o(.text)
    .text                                    0x08001014   Section        8  rt_errno_addr_intlibspace.o(.text)
    .text                                    0x0800101c   Section        0  h1_extend.o(.text)
    .text                                    0x08001050   Section        0  _printf_fp_infnan.o(.text)
    .text                                    0x080010d0   Section        0  bigflt0.o(.text)
    .text                                    0x080011b4   Section        0  ferror.o(.text)
    .text                                    0x080011bc   Section        0  defsig_rtmem_outer.o(.text)
    .text                                    0x080011ca   Section       74  sys_stackheap_outer.o(.text)
    .text                                    0x08001214   Section        0  exit.o(.text)
    .text                                    0x08001226   Section        0  defsig_exit.o(.text)
    .text                                    0x08001230   Section        0  defsig_rtmem_inner.o(.text)
    .text                                    0x08001280   Section        0  defsig_general.o(.text)
    CL$$btod_d2e                             0x080012b2   Section       62  btod.o(CL$$btod_d2e)
    CL$$btod_d2e_denorm_low                  0x080012f0   Section       70  btod.o(CL$$btod_d2e_denorm_low)
    CL$$btod_d2e_norm_op1                    0x08001336   Section       96  btod.o(CL$$btod_d2e_norm_op1)
    CL$$btod_div_common                      0x08001396   Section      824  btod.o(CL$$btod_div_common)
    CL$$btod_e2e                             0x080016ce   Section      220  btod.o(CL$$btod_e2e)
    CL$$btod_ediv                            0x080017aa   Section       42  btod.o(CL$$btod_ediv)
    CL$$btod_emul                            0x080017d4   Section       42  btod.o(CL$$btod_emul)
    CL$$btod_mult_common                     0x080017fe   Section      580  btod.o(CL$$btod_mult_common)
    i.BusFault_Handler                       0x08001a42   Section        0  stm32h7xx_it.o(i.BusFault_Handler)
    i.CRC_Is_Enabled                         0x08001a44   Section        0  ai_platform_interface.o(i.CRC_Is_Enabled)
    CRC_Is_Enabled                           0x08001a45   Thumb Code   232  ai_platform_interface.o(i.CRC_Is_Enabled)
    i.CRC_Lock                               0x08001b3c   Section        0  ai_platform_interface.o(i.CRC_Lock)
    CRC_Lock                                 0x08001b3d   Thumb Code   224  ai_platform_interface.o(i.CRC_Lock)
    i.Cache_Enable                           0x08001c34   Section        0  sys.o(i.Cache_Enable)
    i.DebugMon_Handler                       0x08001cc8   Section        0  stm32h7xx_it.o(i.DebugMon_Handler)
    i.HAL_CRCEx_Polynomial_Set               0x08001cca   Section        0  stm32h7xx_hal_crc_ex.o(i.HAL_CRCEx_Polynomial_Set)
    i.HAL_CRC_Init                           0x08001d18   Section        0  stm32h7xx_hal_crc.o(i.HAL_CRC_Init)
    i.HAL_CRC_MspInit                        0x08001d90   Section        0  crc.o(i.HAL_CRC_MspInit)
    i.HAL_DMA_Abort                          0x08001db8   Section        0  stm32h7xx_hal_dma.o(i.HAL_DMA_Abort)
    i.HAL_DMA_Abort_IT                       0x08002118   Section        0  stm32h7xx_hal_dma.o(i.HAL_DMA_Abort_IT)
    i.HAL_EnableCompensationCell             0x0800239c   Section        0  stm32h7xx_hal.o(i.HAL_EnableCompensationCell)
    i.HAL_GPIO_Init                          0x080023ac   Section        0  stm32h7xx_hal_gpio.o(i.HAL_GPIO_Init)
    i.HAL_GetREVID                           0x080025d8   Section        0  stm32h7xx_hal.o(i.HAL_GetREVID)
    i.HAL_GetTick                            0x080025e4   Section        0  stm32h7xx_hal.o(i.HAL_GetTick)
    i.HAL_IncTick                            0x080025f0   Section        0  stm32h7xx_hal.o(i.HAL_IncTick)
    i.HAL_Init                               0x08002600   Section        0  stm32h7xx_hal.o(i.HAL_Init)
    i.HAL_InitTick                           0x0800265c   Section        0  stm32h7xx_hal.o(i.HAL_InitTick)
    i.HAL_MspInit                            0x0800269c   Section        0  stm32h7xx_hal_msp.o(i.HAL_MspInit)
    i.HAL_NVIC_EnableIRQ                     0x080026b8   Section        0  stm32h7xx_hal_cortex.o(i.HAL_NVIC_EnableIRQ)
    i.HAL_NVIC_SetPriority                   0x080026d4   Section        0  stm32h7xx_hal_cortex.o(i.HAL_NVIC_SetPriority)
    i.HAL_NVIC_SetPriorityGrouping           0x08002714   Section        0  stm32h7xx_hal_cortex.o(i.HAL_NVIC_SetPriorityGrouping)
    i.HAL_RCCEx_GetD3PCLK1Freq               0x08002738   Section        0  stm32h7xx_hal_rcc_ex.o(i.HAL_RCCEx_GetD3PCLK1Freq)
    i.HAL_RCCEx_GetPLL2ClockFreq             0x0800275c   Section        0  stm32h7xx_hal_rcc_ex.o(i.HAL_RCCEx_GetPLL2ClockFreq)
    i.HAL_RCCEx_GetPLL3ClockFreq             0x080028a0   Section        0  stm32h7xx_hal_rcc_ex.o(i.HAL_RCCEx_GetPLL3ClockFreq)
    i.HAL_RCC_ClockConfig                    0x080029e4   Section        0  stm32h7xx_hal_rcc.o(i.HAL_RCC_ClockConfig)
    i.HAL_RCC_GetHCLKFreq                    0x08002c40   Section        0  stm32h7xx_hal_rcc.o(i.HAL_RCC_GetHCLKFreq)
    i.HAL_RCC_GetPCLK1Freq                   0x08002c84   Section        0  stm32h7xx_hal_rcc.o(i.HAL_RCC_GetPCLK1Freq)
    i.HAL_RCC_GetPCLK2Freq                   0x08002ca8   Section        0  stm32h7xx_hal_rcc.o(i.HAL_RCC_GetPCLK2Freq)
    i.HAL_RCC_GetSysClockFreq                0x08002ccc   Section        0  stm32h7xx_hal_rcc.o(i.HAL_RCC_GetSysClockFreq)
    i.HAL_RCC_OscConfig                      0x08002e04   Section        0  stm32h7xx_hal_rcc.o(i.HAL_RCC_OscConfig)
    i.HAL_SYSTICK_Config                     0x08003334   Section        0  stm32h7xx_hal_cortex.o(i.HAL_SYSTICK_Config)
    i.HAL_TIMEx_Break2Callback               0x0800335a   Section        0  stm32h7xx_hal_tim_ex.o(i.HAL_TIMEx_Break2Callback)
    i.HAL_TIMEx_BreakCallback                0x0800335c   Section        0  stm32h7xx_hal_tim_ex.o(i.HAL_TIMEx_BreakCallback)
    i.HAL_TIMEx_CommutCallback               0x0800335e   Section        0  stm32h7xx_hal_tim_ex.o(i.HAL_TIMEx_CommutCallback)
    i.HAL_TIM_Base_Init                      0x08003360   Section        0  stm32h7xx_hal_tim.o(i.HAL_TIM_Base_Init)
    i.HAL_TIM_Base_MspInit                   0x080033c4   Section        0  btim.o(i.HAL_TIM_Base_MspInit)
    i.HAL_TIM_Base_Start_IT                  0x08003400   Section        0  stm32h7xx_hal_tim.o(i.HAL_TIM_Base_Start_IT)
    i.HAL_TIM_IC_CaptureCallback             0x0800348c   Section        0  stm32h7xx_hal_tim.o(i.HAL_TIM_IC_CaptureCallback)
    i.HAL_TIM_IRQHandler                     0x0800348e   Section        0  stm32h7xx_hal_tim.o(i.HAL_TIM_IRQHandler)
    i.HAL_TIM_OC_DelayElapsedCallback        0x08003610   Section        0  stm32h7xx_hal_tim.o(i.HAL_TIM_OC_DelayElapsedCallback)
    i.HAL_TIM_PWM_PulseFinishedCallback      0x08003612   Section        0  stm32h7xx_hal_tim.o(i.HAL_TIM_PWM_PulseFinishedCallback)
    i.HAL_TIM_PeriodElapsedCallback          0x08003614   Section        0  btim.o(i.HAL_TIM_PeriodElapsedCallback)
    i.HAL_TIM_TriggerCallback                0x080036a4   Section        0  stm32h7xx_hal_tim.o(i.HAL_TIM_TriggerCallback)
    i.HAL_UARTEx_RxEventCallback             0x080036a6   Section        0  stm32h7xx_hal_uart.o(i.HAL_UARTEx_RxEventCallback)
    i.HAL_UARTEx_RxFifoFullCallback          0x080036a8   Section        0  stm32h7xx_hal_uart_ex.o(i.HAL_UARTEx_RxFifoFullCallback)
    i.HAL_UARTEx_TxFifoEmptyCallback         0x080036aa   Section        0  stm32h7xx_hal_uart_ex.o(i.HAL_UARTEx_TxFifoEmptyCallback)
    i.HAL_UARTEx_WakeupCallback              0x080036ac   Section        0  stm32h7xx_hal_uart_ex.o(i.HAL_UARTEx_WakeupCallback)
    i.HAL_UART_ErrorCallback                 0x080036ae   Section        0  stm32h7xx_hal_uart.o(i.HAL_UART_ErrorCallback)
    i.HAL_UART_IRQHandler                    0x080036b0   Section        0  stm32h7xx_hal_uart.o(i.HAL_UART_IRQHandler)
    i.HAL_UART_Init                          0x08003a10   Section        0  stm32h7xx_hal_uart.o(i.HAL_UART_Init)
    i.HAL_UART_MspInit                       0x08003a7c   Section        0  usart.o(i.HAL_UART_MspInit)
    i.HAL_UART_Receive_IT                    0x08003b0c   Section        0  stm32h7xx_hal_uart.o(i.HAL_UART_Receive_IT)
    i.HAL_UART_RxCpltCallback                0x08003b60   Section        0  usart.o(i.HAL_UART_RxCpltCallback)
    i.HAL_UART_TxCpltCallback                0x08003bc8   Section        0  stm32h7xx_hal_uart.o(i.HAL_UART_TxCpltCallback)
    i.HardFault_Handler                      0x08003bca   Section        0  stm32h7xx_it.o(i.HardFault_Handler)
    i.MX_CRC_Init                            0x08003bcc   Section        0  crc.o(i.MX_CRC_Init)
    i.MX_GPIO_Init                           0x08003c08   Section        0  gpio.o(i.MX_GPIO_Init)
    i.MemManage_Handler                      0x08003c34   Section        0  stm32h7xx_it.o(i.MemManage_Handler)
    i.NMI_Handler                            0x08003c36   Section        0  stm32h7xx_it.o(i.NMI_Handler)
    i.PendSV_Handler                         0x08003c38   Section        0  stm32h7xx_it.o(i.PendSV_Handler)
    i.SVC_Handler                            0x08003c3a   Section        0  stm32h7xx_it.o(i.SVC_Handler)
    i.Stm32_Clock_Init                       0x08003c3c   Section        0  sys.o(i.Stm32_Clock_Init)
    i.StrToDouble                            0x08003cf8   Section        0  readfile.o(i.StrToDouble)
    i.SysTick_Handler                        0x08003f08   Section        0  stm32h7xx_it.o(i.SysTick_Handler)
    i.SystemInit                             0x08003f0c   Section        0  system_stm32h7xx.o(i.SystemInit)
    i.TIM6_DAC_IRQHandler                    0x08003fe8   Section        0  btim.o(i.TIM6_DAC_IRQHandler)
    i.TIM_Base_SetConfig                     0x08003ff4   Section        0  stm32h7xx_hal_tim.o(i.TIM_Base_SetConfig)
    i.UART_AdvFeatureConfig                  0x080040b8   Section        0  stm32h7xx_hal_uart.o(i.UART_AdvFeatureConfig)
    i.UART_CheckIdleState                    0x08004180   Section        0  stm32h7xx_hal_uart.o(i.UART_CheckIdleState)
    i.UART_DMAAbortOnError                   0x080041e0   Section        0  stm32h7xx_hal_uart.o(i.UART_DMAAbortOnError)
    UART_DMAAbortOnError                     0x080041e1   Thumb Code    20  stm32h7xx_hal_uart.o(i.UART_DMAAbortOnError)
    i.UART_EndRxTransfer                     0x080041f4   Section        0  stm32h7xx_hal_uart.o(i.UART_EndRxTransfer)
    UART_EndRxTransfer                       0x080041f5   Thumb Code    78  stm32h7xx_hal_uart.o(i.UART_EndRxTransfer)
    i.UART_RxISR_16BIT                       0x08004248   Section        0  stm32h7xx_hal_uart.o(i.UART_RxISR_16BIT)
    UART_RxISR_16BIT                         0x08004249   Thumb Code   162  stm32h7xx_hal_uart.o(i.UART_RxISR_16BIT)
    i.UART_RxISR_16BIT_FIFOEN                0x080042ec   Section        0  stm32h7xx_hal_uart.o(i.UART_RxISR_16BIT_FIFOEN)
    UART_RxISR_16BIT_FIFOEN                  0x080042ed   Thumb Code   364  stm32h7xx_hal_uart.o(i.UART_RxISR_16BIT_FIFOEN)
    i.UART_RxISR_8BIT                        0x08004460   Section        0  stm32h7xx_hal_uart.o(i.UART_RxISR_8BIT)
    UART_RxISR_8BIT                          0x08004461   Thumb Code   162  stm32h7xx_hal_uart.o(i.UART_RxISR_8BIT)
    i.UART_RxISR_8BIT_FIFOEN                 0x08004504   Section        0  stm32h7xx_hal_uart.o(i.UART_RxISR_8BIT_FIFOEN)
    UART_RxISR_8BIT_FIFOEN                   0x08004505   Thumb Code   364  stm32h7xx_hal_uart.o(i.UART_RxISR_8BIT_FIFOEN)
    i.UART_SetConfig                         0x08004678   Section        0  stm32h7xx_hal_uart.o(i.UART_SetConfig)
    i.UART_Start_Receive_IT                  0x08004a24   Section        0  stm32h7xx_hal_uart.o(i.UART_Start_Receive_IT)
    i.UART_WaitOnFlagUntilTimeout            0x08004b3c   Section        0  stm32h7xx_hal_uart.o(i.UART_WaitOnFlagUntilTimeout)
    i.USART1_IRQHandler                      0x08004c08   Section        0  usart.o(i.USART1_IRQHandler)
    i.UsageFault_Handler                     0x08004c14   Section        0  stm32h7xx_it.o(i.UsageFault_Handler)
    i.__ARM_fpclassify                       0x08004c16   Section        0  fpclassify.o(i.__ARM_fpclassify)
    i.__ARM_fpclassifyf                      0x08004c46   Section        0  fpclassifyf.o(i.__ARM_fpclassifyf)
    i.__NVIC_SetPriority                     0x08004c6c   Section        0  stm32h7xx_hal_cortex.o(i.__NVIC_SetPriority)
    __NVIC_SetPriority                       0x08004c6d   Thumb Code    34  stm32h7xx_hal_cortex.o(i.__NVIC_SetPriority)
    i.__ai_math_dot_array                    0x08004c90   Section        0  lite_dense_if32.o(i.__ai_math_dot_array)
    __ai_math_dot_array                      0x08004c91   Thumb Code   244  lite_dense_if32.o(i.__ai_math_dot_array)
    i.__hardfp_expf                          0x08004d88   Section        0  expf.o(i.__hardfp_expf)
    i.__hardfp_pow                           0x08004f80   Section        0  pow.o(i.__hardfp_pow)
    i.__kernel_poly                          0x08005878   Section        0  poly.o(i.__kernel_poly)
    i.__mathlib_dbl_divzero                  0x080058e8   Section        0  dunder.o(i.__mathlib_dbl_divzero)
    i.__mathlib_dbl_infnan2                  0x08005908   Section        0  dunder.o(i.__mathlib_dbl_infnan2)
    i.__mathlib_dbl_invalid                  0x08005910   Section        0  dunder.o(i.__mathlib_dbl_invalid)
    i.__mathlib_dbl_overflow                 0x08005928   Section        0  dunder.o(i.__mathlib_dbl_overflow)
    i.__mathlib_dbl_underflow                0x08005940   Section        0  dunder.o(i.__mathlib_dbl_underflow)
    i.__mathlib_flt_infnan                   0x08005958   Section        0  funder.o(i.__mathlib_flt_infnan)
    i.__mathlib_flt_overflow                 0x08005960   Section        0  funder.o(i.__mathlib_flt_overflow)
    i.__mathlib_flt_underflow                0x08005970   Section        0  funder.o(i.__mathlib_flt_underflow)
    i._ai_dict4_dot_array_f32                0x08005980   Section        0  layers_conv2d_generic_float.o(i._ai_dict4_dot_array_f32)
    _ai_dict4_dot_array_f32                  0x08005981   Thumb Code   300  layers_conv2d_generic_float.o(i._ai_dict4_dot_array_f32)
    i._ai_dict8_dot_array_f32                0x08005ab0   Section        0  layers_conv2d_generic_float.o(i._ai_dict8_dot_array_f32)
    _ai_dict8_dot_array_f32                  0x08005ab1   Thumb Code   246  layers_conv2d_generic_float.o(i._ai_dict8_dot_array_f32)
    i._ai_forward_layer                      0x08005bac   Section        0  layers.o(i._ai_forward_layer)
    _ai_forward_layer                        0x08005bad   Thumb Code    18  layers.o(i._ai_forward_layer)
    i._ai_platform_acquire_crc               0x08005bbe   Section        0  ai_platform_interface.o(i._ai_platform_acquire_crc)
    i._ai_platform_get_io_buffers_info       0x08005bc4   Section        0  ai_platform_interface.o(i._ai_platform_get_io_buffers_info)
    _ai_platform_get_io_buffers_info         0x08005bc5   Thumb Code   220  ai_platform_interface.o(i._ai_platform_get_io_buffers_info)
    i._ai_platform_release_crc               0x08005ca4   Section        0  ai_platform_interface.o(i._ai_platform_release_crc)
    i._forward_lite_nl_relu_generic_if32of32 0x08005ca8   Section        0  layers_nl_generic_float.o(i._forward_lite_nl_relu_generic_if32of32)
    _forward_lite_nl_relu_generic_if32of32   0x08005ca9   Thumb Code   160  layers_nl_generic_float.o(i._forward_lite_nl_relu_generic_if32of32)
    i._forward_lite_nl_relu_thresholded_if32of32 0x08005d4c   Section        0  layers_nl_generic_float.o(i._forward_lite_nl_relu_thresholded_if32of32)
    _forward_lite_nl_relu_thresholded_if32of32 0x08005d4d   Thumb Code    52  layers_nl_generic_float.o(i._forward_lite_nl_relu_thresholded_if32of32)
    i._forward_lite_nl_softmax_if32of32      0x08005d84   Section        0  layers_nl_generic_float.o(i._forward_lite_nl_softmax_if32of32)
    _forward_lite_nl_softmax_if32of32        0x08005d85   Thumb Code   158  layers_nl_generic_float.o(i._forward_lite_nl_softmax_if32of32)
    i._is_digit                              0x08005e28   Section        0  __printf_wp.o(i._is_digit)
    i._platform_ai_buffer_array_copy         0x08005e36   Section        0  ai_platform_interface.o(i._platform_ai_buffer_array_copy)
    _platform_ai_buffer_array_copy           0x08005e37   Thumb Code    74  ai_platform_interface.o(i._platform_ai_buffer_array_copy)
    i._platform_get_table_map_from_buffer    0x08005e80   Section        0  ai_platform_interface.o(i._platform_get_table_map_from_buffer)
    _platform_get_table_map_from_buffer      0x08005e81   Thumb Code    74  ai_platform_interface.o(i._platform_get_table_map_from_buffer)
    i._platform_get_table_map_from_buffer_array 0x08005ed0   Section        0  ai_platform_interface.o(i._platform_get_table_map_from_buffer_array)
    _platform_get_table_map_from_buffer_array 0x08005ed1   Thumb Code    68  ai_platform_interface.o(i._platform_get_table_map_from_buffer_array)
    i._platform_network_buffers_signature_valid 0x08005f14   Section        0  ai_platform_interface.o(i._platform_network_buffers_signature_valid)
    _platform_network_buffers_signature_valid 0x08005f15   Thumb Code    14  ai_platform_interface.o(i._platform_network_buffers_signature_valid)
    i._platform_network_io_bind              0x08005f28   Section        0  ai_platform_interface.o(i._platform_network_io_bind)
    _platform_network_io_bind                0x08005f29   Thumb Code   528  ai_platform_interface.o(i._platform_network_io_bind)
    i._platform_network_state_setup          0x08006138   Section        0  ai_platform_interface.o(i._platform_network_state_setup)
    _platform_network_state_setup            0x08006139   Thumb Code    62  ai_platform_interface.o(i._platform_network_state_setup)
    i._platform_network_state_update_input   0x08006176   Section        0  ai_platform_interface.o(i._platform_network_state_update_input)
    _platform_network_state_update_input     0x08006177   Thumb Code   106  ai_platform_interface.o(i._platform_network_state_update_input)
    i._platform_network_state_update_output  0x080061e0   Section        0  ai_platform_interface.o(i._platform_network_state_update_output)
    _platform_network_state_update_output    0x080061e1   Thumb Code   128  ai_platform_interface.o(i._platform_network_state_update_output)
    i._sys_exit                              0x08006260   Section        0  usart.o(i._sys_exit)
    i._ttywrch                               0x08006262   Section        0  usart.o(i._ttywrch)
    i.acquire_and_process_sd_data            0x08006264   Section        0  ecg_run.o(i.acquire_and_process_sd_data)
    i.aiInit                                 0x080062a0   Section        0  ecg_run.o(i.aiInit)
    i.aiRun                                  0x0800633c   Section        0  ecg_run.o(i.aiRun)
    i.ai_array_get_byte_size                 0x08006390   Section        0  ai_datatypes_format.o(i.ai_array_get_byte_size)
    i.ai_array_get_data_byte_size            0x080063cc   Section        0  ai_datatypes_format.o(i.ai_array_get_data_byte_size)
    i.ai_array_to_buffer_fmt                 0x080063ec   Section        0  ai_datatypes_format.o(i.ai_array_to_buffer_fmt)
    i.ai_buffer_array_item_set_address       0x08006518   Section        0  ai_platform.o(i.ai_buffer_array_item_set_address)
    i.ai_buffer_array_sane                   0x0800653c   Section        0  ai_platform.o(i.ai_buffer_array_sane)
    i.ai_buffer_get_size                     0x08006550   Section        0  ai_platform.o(i.ai_buffer_get_size)
    i.ai_check_custom_types                  0x080065b8   Section        0  layers.o(i.ai_check_custom_types)
    i.ai_conv2d_kernel_simple_opt_f32        0x080065e4   Section        0  forward_lite_conv2d_if32of32wf32.o(i.ai_conv2d_kernel_simple_opt_f32)
    i.ai_dict_decompress_f32                 0x08006752   Section        0  layers_conv2d_generic_float.o(i.ai_dict_decompress_f32)
    i.ai_ecg_create                          0x080067cc   Section        0  ecg.o(i.ai_ecg_create)
    i.ai_ecg_create_and_init                 0x080067e4   Section        0  ecg.o(i.ai_ecg_create_and_init)
    i.ai_ecg_data_params_get                 0x08006868   Section        0  ecg_data.o(i.ai_ecg_data_params_get)
    i.ai_ecg_get_error                       0x08006890   Section        0  ecg.o(i.ai_ecg_get_error)
    i.ai_ecg_get_report                      0x08006894   Section        0  ecg.o(i.ai_ecg_get_report)
    i.ai_ecg_init                            0x080068ec   Section        0  ecg.o(i.ai_ecg_init)
    i.ai_ecg_inputs_get                      0x0800691c   Section        0  ecg.o(i.ai_ecg_inputs_get)
    i.ai_ecg_outputs_get                     0x08006930   Section        0  ecg.o(i.ai_ecg_outputs_get)
    i.ai_ecg_run                             0x08006944   Section        0  ecg.o(i.ai_ecg_run)
    i.ai_layers_forward_all                  0x08006948   Section        0  layers.o(i.ai_layers_forward_all)
    i.ai_layers_init_all                     0x08006998   Section        0  layers.o(i.ai_layers_init_all)
    i.ai_layers_post_init_all                0x080069b6   Section        0  layers.o(i.ai_layers_post_init_all)
    i.ai_platform_api_get_network_report     0x080069ec   Section        0  ai_platform_interface.o(i.ai_platform_api_get_network_report)
    i.ai_platform_api_get_version            0x08006b78   Section        0  ai_platform_interface.o(i.ai_platform_api_get_version)
    i.ai_platform_bind_network_params        0x08006b8c   Section        0  ai_platform_interface.o(i.ai_platform_bind_network_params)
    i.ai_platform_context_acquire            0x08006bb8   Section        0  ai_platform_interface.o(i.ai_platform_context_acquire)
    i.ai_platform_get_activations_map        0x08006bd4   Section        0  ai_platform_interface.o(i.ai_platform_get_activations_map)
    i.ai_platform_get_weights_map            0x08006c00   Section        0  ai_platform_interface.o(i.ai_platform_get_weights_map)
    i.ai_platform_inputs_get                 0x08006c28   Section        0  ai_platform_interface.o(i.ai_platform_inputs_get)
    i.ai_platform_interface_api_get_version  0x08006c6c   Section        0  ai_platform_interface.o(i.ai_platform_interface_api_get_version)
    i.ai_platform_network_create             0x08006c80   Section        0  ai_platform_interface.o(i.ai_platform_network_create)
    i.ai_platform_network_get_error          0x08006d34   Section        0  ai_platform_interface.o(i.ai_platform_network_get_error)
    i.ai_platform_network_init               0x08006d50   Section        0  ai_platform_interface.o(i.ai_platform_network_init)
    i.ai_platform_network_post_init          0x08006e5c   Section        0  ai_platform_interface.o(i.ai_platform_network_post_init)
    i.ai_platform_network_process            0x08006ea2   Section        0  ai_platform_interface.o(i.ai_platform_network_process)
    i.ai_platform_network_set_error          0x08006ef6   Section        0  ai_platform_interface.o(i.ai_platform_network_set_error)
    i.ai_platform_outputs_get                0x08006f02   Section        0  ai_platform_interface.o(i.ai_platform_outputs_get)
    i.ai_platform_runtime_get_revision       0x08006f4c   Section        0  ai_platform_interface.o(i.ai_platform_runtime_get_revision)
    i.ai_platform_runtime_get_version        0x08006f5c   Section        0  ai_platform_interface.o(i.ai_platform_runtime_get_version)
    i.ai_platform_version_get                0x08006f70   Section        0  ai_datatypes_internal.o(i.ai_platform_version_get)
    i.ai_shape_get_size                      0x08006f86   Section        0  layers_nl_generic_float.o(i.ai_shape_get_size)
    ai_shape_get_size                        0x08006f87   Thumb Code    26  layers_nl_generic_float.o(i.ai_shape_get_size)
    i.ai_shape_get_size                      0x08006fa0   Section        0  layers_norm_generic_float.o(i.ai_shape_get_size)
    ai_shape_get_size                        0x08006fa1   Thumb Code    26  layers_norm_generic_float.o(i.ai_shape_get_size)
    i.ai_version_get                         0x08006fba   Section        0  ai_datatypes_internal.o(i.ai_version_get)
    i.btim_timx_int_init                     0x08006fc8   Section        0  btim.o(i.btim_timx_int_init)
    i.change_bitmap                          0x08006ff0   Section        0  ff.o(i.change_bitmap)
    change_bitmap                            0x08006ff1   Thumb Code   130  ff.o(i.change_bitmap)
    i.check_fs                               0x08007074   Section        0  ff.o(i.check_fs)
    check_fs                                 0x08007075   Thumb Code   116  ff.o(i.check_fs)
    i.chk_chr                                0x08007100   Section        0  ff.o(i.chk_chr)
    chk_chr                                  0x08007101   Thumb Code    16  ff.o(i.chk_chr)
    i.clmt_clust                             0x08007110   Section        0  ff.o(i.clmt_clust)
    clmt_clust                               0x08007111   Thumb Code    50  ff.o(i.clmt_clust)
    i.clst2sect                              0x08007142   Section        0  ff.o(i.clst2sect)
    clst2sect                                0x08007143   Thumb Code    24  ff.o(i.clst2sect)
    i.cmp_lfn                                0x0800715c   Section        0  ff.o(i.cmp_lfn)
    cmp_lfn                                  0x0800715d   Thumb Code   124  ff.o(i.cmp_lfn)
    i.core_get_error                         0x080071dc   Section        0  core_common.o(i.core_get_error)
    i.core_init                              0x080071e8   Section        0  core_common.o(i.core_init)
    i.core_set_error                         0x080071ec   Section        0  core_common.o(i.core_set_error)
    i.create_chain                           0x08007206   Section        0  ff.o(i.create_chain)
    create_chain                             0x08007207   Thumb Code   364  ff.o(i.create_chain)
    i.create_name                            0x08007374   Section        0  ff.o(i.create_name)
    create_name                              0x08007375   Thumb Code   532  ff.o(i.create_name)
    i.create_xdir                            0x0800759c   Section        0  ff.o(i.create_xdir)
    create_xdir                              0x0800759d   Thumb Code   130  ff.o(i.create_xdir)
    i.dbc_1st                                0x0800761e   Section        0  ff.o(i.dbc_1st)
    dbc_1st                                  0x0800761f   Thumb Code    16  ff.o(i.dbc_1st)
    i.delay_init                             0x08007630   Section        0  delay.o(i.delay_init)
    i.delay_ms                               0x0800763c   Section        0  delay.o(i.delay_ms)
    i.delay_us                               0x08007648   Section        0  delay.o(i.delay_us)
    i.dir_alloc                              0x0800767c   Section        0  ff.o(i.dir_alloc)
    dir_alloc                                0x0800767d   Thumb Code    88  ff.o(i.dir_alloc)
    i.dir_clear                              0x080076d4   Section        0  ff.o(i.dir_clear)
    dir_clear                                0x080076d5   Thumb Code   174  ff.o(i.dir_clear)
    i.dir_find                               0x08007782   Section        0  ff.o(i.dir_find)
    dir_find                                 0x08007783   Thumb Code   326  ff.o(i.dir_find)
    i.dir_next                               0x080078c8   Section        0  ff.o(i.dir_next)
    dir_next                                 0x080078c9   Thumb Code   194  ff.o(i.dir_next)
    i.dir_read                               0x0800798a   Section        0  ff.o(i.dir_read)
    dir_read                                 0x0800798b   Thumb Code   228  ff.o(i.dir_read)
    i.dir_register                           0x08007a70   Section        0  ff.o(i.dir_register)
    dir_register                             0x08007a71   Thumb Code   578  ff.o(i.dir_register)
    i.dir_sdi                                0x08007cb8   Section        0  ff.o(i.dir_sdi)
    dir_sdi                                  0x08007cb9   Thumb Code   150  ff.o(i.dir_sdi)
    i.disk_initialize                        0x08007d4e   Section        0  diskio.o(i.disk_initialize)
    i.disk_ioctl                             0x08007d60   Section        0  diskio.o(i.disk_ioctl)
    i.disk_read                              0x08007dd4   Section        0  diskio.o(i.disk_read)
    i.disk_status                            0x08007e10   Section        0  diskio.o(i.disk_status)
    i.disk_write                             0x08007e14   Section        0  diskio.o(i.disk_write)
    i.ecg_configure_activations              0x08007e40   Section        0  ecg.o(i.ecg_configure_activations)
    ecg_configure_activations                0x08007e41   Thumb Code   166  ecg.o(i.ecg_configure_activations)
    i.ecg_configure_weights                  0x08007eec   Section        0  ecg.o(i.ecg_configure_weights)
    ecg_configure_weights                    0x08007eed   Thumb Code   332  ecg.o(i.ecg_configure_weights)
    i.exfuns_init                            0x08008050   Section        0  exfuns.o(i.exfuns_init)
    i.f_close                                0x080080b4   Section        0  ff.o(i.f_close)
    i.f_mount                                0x080080d4   Section        0  ff.o(i.f_mount)
    i.f_open                                 0x0800811c   Section        0  ff.o(i.f_open)
    i.f_read                                 0x080083c2   Section        0  ff.o(i.f_read)
    i.f_stat                                 0x08008548   Section        0  ff.o(i.f_stat)
    i.f_sync                                 0x080085a8   Section        0  ff.o(i.f_sync)
    i.fabs                                   0x08008710   Section        0  fabs.o(i.fabs)
    i.ff_memalloc                            0x08008728   Section        0  ffsystem.o(i.ff_memalloc)
    i.ff_memfree                             0x08008730   Section        0  ffsystem.o(i.ff_memfree)
    i.ff_oem2uni                             0x08008738   Section        0  ffunicode.o(i.ff_oem2uni)
    i.ff_uni2oem                             0x08008784   Section        0  ffunicode.o(i.ff_uni2oem)
    i.ff_wtoupper                            0x080087d8   Section        0  ffunicode.o(i.ff_wtoupper)
    i.file_size                              0x08008860   Section        0  readfile.o(i.file_size)
    i.fill_first_frag                        0x08008878   Section        0  ff.o(i.fill_first_frag)
    fill_first_frag                          0x08008879   Thumb Code    46  ff.o(i.fill_first_frag)
    i.fill_last_frag                         0x080088a6   Section        0  ff.o(i.fill_last_frag)
    fill_last_frag                           0x080088a7   Thumb Code    50  ff.o(i.fill_last_frag)
    i.find_bitmap                            0x080088d8   Section        0  ff.o(i.find_bitmap)
    find_bitmap                              0x080088d9   Thumb Code   140  ff.o(i.find_bitmap)
    i.find_volume                            0x08008964   Section        0  ff.o(i.find_volume)
    find_volume                              0x08008965   Thumb Code   850  ff.o(i.find_volume)
    i.follow_path                            0x08008cd0   Section        0  ff.o(i.follow_path)
    follow_path                              0x08008cd1   Thumb Code   156  ff.o(i.follow_path)
    i.forward_ap                             0x08008d6c   Section        0  layers_pool_generic_float.o(i.forward_ap)
    i.forward_bn                             0x08008ee2   Section        0  layers_norm_generic_float.o(i.forward_bn)
    i.forward_conv2d_if32of32wf32            0x0800900e   Section        0  layers_conv2d_generic_float.o(i.forward_conv2d_if32of32wf32)
    i.forward_dense                          0x080091fc   Section        0  layers_conv2d_generic_float.o(i.forward_dense)
    i.forward_lite_conv2d_if32of32wf32       0x080093e8   Section        0  forward_lite_conv2d_if32of32wf32.o(i.forward_lite_conv2d_if32of32wf32)
    i.forward_lite_dense_if32of32wf32        0x0800955c   Section        0  lite_dense_if32.o(i.forward_lite_dense_if32of32wf32)
    i.forward_relu                           0x080095d8   Section        0  layers_nl_generic_float.o(i.forward_relu)
    i.forward_sm                             0x0800969c   Section        0  layers_nl_generic_float.o(i.forward_sm)
    i.fputc                                  0x0800970c   Section        0  usart.o(i.fputc)
    i.gen_numname                            0x08009720   Section        0  ff.o(i.gen_numname)
    gen_numname                              0x08009721   Thumb Code   140  ff.o(i.gen_numname)
    i.get_fat                                0x080097b0   Section        0  ff.o(i.get_fat)
    get_fat                                  0x080097b1   Thumb Code   316  ff.o(i.get_fat)
    i.get_fattime                            0x080098ec   Section        0  ffsystem.o(i.get_fattime)
    i.get_fileinfo                           0x080098f0   Section        0  ff.o(i.get_fileinfo)
    get_fileinfo                             0x080098f1   Thumb Code   324  ff.o(i.get_fileinfo)
    i.get_ldnumber                           0x08009a34   Section        0  ff.o(i.get_ldnumber)
    get_ldnumber                             0x08009a35   Thumb Code    56  ff.o(i.get_ldnumber)
    i.get_tensor_byte_size                   0x08009a6c   Section        0  ai_datatypes_internal.o(i.get_tensor_byte_size)
    i.get_xfileinfo                          0x08009a94   Section        0  ff.o(i.get_xfileinfo)
    get_xfileinfo                            0x08009a95   Thumb Code   174  ff.o(i.get_xfileinfo)
    i.init_alloc_info                        0x08009b42   Section        0  ff.o(i.init_alloc_info)
    init_alloc_info                          0x08009b43   Thumb Code    46  ff.o(i.init_alloc_info)
    i.ld_clust                               0x08009b70   Section        0  ff.o(i.ld_clust)
    ld_clust                                 0x08009b71   Thumb Code    38  ff.o(i.ld_clust)
    i.ld_dword                               0x08009b96   Section        0  ff.o(i.ld_dword)
    ld_dword                                 0x08009b97   Thumb Code    22  ff.o(i.ld_dword)
    i.ld_qword                               0x08009bac   Section        0  ff.o(i.ld_qword)
    ld_qword                                 0x08009bad   Thumb Code    88  ff.o(i.ld_qword)
    i.ld_word                                0x08009c04   Section        0  ff.o(i.ld_word)
    ld_word                                  0x08009c05   Thumb Code    10  ff.o(i.ld_word)
    i.load_obj_xdir                          0x08009c0e   Section        0  ff.o(i.load_obj_xdir)
    load_obj_xdir                            0x08009c0f   Thumb Code    58  ff.o(i.load_obj_xdir)
    i.load_xdir                              0x08009c48   Section        0  ff.o(i.load_xdir)
    load_xdir                                0x08009c49   Thumb Code   208  ff.o(i.load_xdir)
    i.main                                   0x08009d18   Section        0  main.o(i.main)
    i.mem_cmp                                0x08009e68   Section        0  ff.o(i.mem_cmp)
    mem_cmp                                  0x08009e69   Thumb Code    28  ff.o(i.mem_cmp)
    i.mem_cpy                                0x08009e84   Section        0  ff.o(i.mem_cpy)
    mem_cpy                                  0x08009e85   Thumb Code    18  ff.o(i.mem_cpy)
    i.mem_set                                0x08009e98   Section        0  ff.o(i.mem_set)
    mem_set                                  0x08009e99   Thumb Code    14  ff.o(i.mem_set)
    i.move_window                            0x08009ea6   Section        0  ff.o(i.move_window)
    move_window                              0x08009ea7   Thumb Code    50  ff.o(i.move_window)
    i.my_mem_copy                            0x08009ed8   Section        0  malloc.o(i.my_mem_copy)
    i.my_mem_free                            0x08009eec   Section        0  malloc.o(i.my_mem_free)
    i.my_mem_init                            0x08009f44   Section        0  malloc.o(i.my_mem_init)
    i.my_mem_malloc                          0x08009f70   Section        0  malloc.o(i.my_mem_malloc)
    i.my_mem_perused                         0x08009ff8   Section        0  malloc.o(i.my_mem_perused)
    i.my_mem_set                             0x0800a034   Section        0  malloc.o(i.my_mem_set)
    i.myfree                                 0x0800a044   Section        0  malloc.o(i.myfree)
    i.mymalloc                               0x0800a05c   Section        0  malloc.o(i.mymalloc)
    i.myrealloc                              0x0800a07c   Section        0  malloc.o(i.myrealloc)
    i.para_init_all                          0x0800a0b8   Section        0  readfile.o(i.para_init_all)
    i.pick_lfn                               0x0800a258   Section        0  ff.o(i.pick_lfn)
    pick_lfn                                 0x0800a259   Thumb Code   110  ff.o(i.pick_lfn)
    i.pool_func_ap_kernel_array_f32          0x0800a2cc   Section        0  layers_pool_generic_float.o(i.pool_func_ap_kernel_array_f32)
    i.put_fat                                0x0800a348   Section        0  ff.o(i.put_fat)
    put_fat                                  0x0800a349   Thumb Code   256  ff.o(i.put_fat)
    i.put_utf                                0x0800a448   Section        0  ff.o(i.put_utf)
    put_utf                                  0x0800a449   Thumb Code    46  ff.o(i.put_utf)
    i.read_txtToDouble                       0x0800a478   Section        0  readfile.o(i.read_txtToDouble)
    i.remove_chain                           0x0800a69c   Section        0  ff.o(i.remove_chain)
    remove_chain                             0x0800a69d   Thumb Code   262  ff.o(i.remove_chain)
    i.sd_init                                0x0800a7a4   Section        0  sdmmc_sdcard.o(i.sd_init)
    i.sd_read_disk                           0x0800a8c0   Section        0  sdmmc_sdcard.o(i.sd_read_disk)
    i.sd_write_disk                          0x0800a8e4   Section        0  sdmmc_sdcard.o(i.sd_write_disk)
    i.sdmmc_clock_set                        0x0800a908   Section        0  sdmmc_sdcard.o(i.sdmmc_clock_set)
    sdmmc_clock_set                          0x0800a909   Thumb Code    14  sdmmc_sdcard.o(i.sdmmc_clock_set)
    i.sdmmc_cmd_resp1_error                  0x0800a91c   Section        0  sdmmc_sdcard.o(i.sdmmc_cmd_resp1_error)
    sdmmc_cmd_resp1_error                    0x0800a91d   Thumb Code    72  sdmmc_sdcard.o(i.sdmmc_cmd_resp1_error)
    i.sdmmc_cmd_resp2_error                  0x0800a96c   Section        0  sdmmc_sdcard.o(i.sdmmc_cmd_resp2_error)
    sdmmc_cmd_resp2_error                    0x0800a96d   Thumb Code    62  sdmmc_sdcard.o(i.sdmmc_cmd_resp2_error)
    i.sdmmc_cmd_resp3_error                  0x0800a9b4   Section        0  sdmmc_sdcard.o(i.sdmmc_cmd_resp3_error)
    sdmmc_cmd_resp3_error                    0x0800a9b5   Thumb Code    48  sdmmc_sdcard.o(i.sdmmc_cmd_resp3_error)
    i.sdmmc_cmd_resp6_error                  0x0800a9ec   Section        0  sdmmc_sdcard.o(i.sdmmc_cmd_resp6_error)
    sdmmc_cmd_resp6_error                    0x0800a9ed   Thumb Code   104  sdmmc_sdcard.o(i.sdmmc_cmd_resp6_error)
    i.sdmmc_find_scr                         0x0800aa5c   Section        0  sdmmc_sdcard.o(i.sdmmc_find_scr)
    sdmmc_find_scr                           0x0800aa5d   Thumb Code   180  sdmmc_sdcard.o(i.sdmmc_find_scr)
    i.sdmmc_get_card_info                    0x0800ab18   Section        0  sdmmc_sdcard.o(i.sdmmc_get_card_info)
    sdmmc_get_card_info                      0x0800ab19   Thumb Code   582  sdmmc_sdcard.o(i.sdmmc_get_card_info)
    i.sdmmc_initialize_cards                 0x0800ad68   Section        0  sdmmc_sdcard.o(i.sdmmc_initialize_cards)
    sdmmc_initialize_cards                   0x0800ad69   Thumb Code   186  sdmmc_sdcard.o(i.sdmmc_initialize_cards)
    i.sdmmc_is_card_programming              0x0800ae30   Section        0  sdmmc_sdcard.o(i.sdmmc_is_card_programming)
    sdmmc_is_card_programming                0x0800ae31   Thumb Code    98  sdmmc_sdcard.o(i.sdmmc_is_card_programming)
    i.sdmmc_power_on                         0x0800aea0   Section        0  sdmmc_sdcard.o(i.sdmmc_power_on)
    sdmmc_power_on                           0x0800aea1   Thumb Code   288  sdmmc_sdcard.o(i.sdmmc_power_on)
    i.sdmmc_read_blocks                      0x0800afd4   Section        0  sdmmc_sdcard.o(i.sdmmc_read_blocks)
    sdmmc_read_blocks                        0x0800afd5   Thumb Code   356  sdmmc_sdcard.o(i.sdmmc_read_blocks)
    i.sdmmc_send_cmd                         0x0800b16c   Section        0  sdmmc_sdcard.o(i.sdmmc_send_cmd)
    sdmmc_send_cmd                           0x0800b16d   Thumb Code    20  sdmmc_sdcard.o(i.sdmmc_send_cmd)
    i.sdmmc_send_data_cfg                    0x0800b184   Section        0  sdmmc_sdcard.o(i.sdmmc_send_data_cfg)
    sdmmc_send_data_cfg                      0x0800b185   Thumb Code    38  sdmmc_sdcard.o(i.sdmmc_send_data_cfg)
    i.sdmmc_wide_bus_enable                  0x0800b1b0   Section        0  sdmmc_sdcard.o(i.sdmmc_wide_bus_enable)
    sdmmc_wide_bus_enable                    0x0800b1b1   Thumb Code    92  sdmmc_sdcard.o(i.sdmmc_wide_bus_enable)
    i.sdmmc_write_blocks                     0x0800b214   Section        0  sdmmc_sdcard.o(i.sdmmc_write_blocks)
    sdmmc_write_blocks                       0x0800b215   Thumb Code   512  sdmmc_sdcard.o(i.sdmmc_write_blocks)
    i.sqrt                                   0x0800b420   Section        0  sqrt.o(i.sqrt)
    i.st_clust                               0x0800b48a   Section        0  ff.o(i.st_clust)
    st_clust                                 0x0800b48b   Thumb Code    40  ff.o(i.st_clust)
    i.st_dword                               0x0800b4b2   Section        0  ff.o(i.st_dword)
    st_dword                                 0x0800b4b3   Thumb Code    16  ff.o(i.st_dword)
    i.st_int8_copy                           0x0800b4c4   Section        0  st_int8_fill.o(i.st_int8_copy)
    i.st_qword                               0x0800b548   Section        0  ff.o(i.st_qword)
    st_qword                                 0x0800b549   Thumb Code    74  ff.o(i.st_qword)
    i.st_word                                0x0800b592   Section        0  ff.o(i.st_word)
    st_word                                  0x0800b593   Thumb Code     8  ff.o(i.st_word)
    i.store_xdir                             0x0800b59a   Section        0  ff.o(i.store_xdir)
    store_xdir                               0x0800b59b   Thumb Code   106  ff.o(i.store_xdir)
    i.sum_sfn                                0x0800b604   Section        0  ff.o(i.sum_sfn)
    sum_sfn                                  0x0800b605   Thumb Code    28  ff.o(i.sum_sfn)
    i.sync_fs                                0x0800b620   Section        0  ff.o(i.sync_fs)
    sync_fs                                  0x0800b621   Thumb Code   126  ff.o(i.sync_fs)
    i.sync_window                            0x0800b6a8   Section        0  ff.o(i.sync_window)
    sync_window                              0x0800b6a9   Thumb Code    70  ff.o(i.sync_window)
    i.tchar2uni                              0x0800b6ee   Section        0  ff.o(i.tchar2uni)
    tchar2uni                                0x0800b6ef   Thumb Code    78  ff.o(i.tchar2uni)
    i.usart_init                             0x0800b73c   Section        0  usart.o(i.usart_init)
    i.validate                               0x0800b774   Section        0  ff.o(i.validate)
    validate                                 0x0800b775   Thumb Code    52  ff.o(i.validate)
    i.xdir_sum                               0x0800b7a8   Section        0  ff.o(i.xdir_sum)
    xdir_sum                                 0x0800b7a9   Thumb Code    52  ff.o(i.xdir_sum)
    i.xname_sum                              0x0800b7dc   Section        0  ff.o(i.xname_sum)
    xname_sum                                0x0800b7dd   Thumb Code    62  ff.o(i.xname_sum)
    locale$$code                             0x0800b81c   Section       44  lc_numeric_c.o(locale$$code)
    x$fpl$dcheck1                            0x0800b848   Section       16  dcheck1.o(x$fpl$dcheck1)
    $v0                                      0x0800b848   Number         0  dcheck1.o(x$fpl$dcheck1)
    x$fpl$fpinit                             0x0800b858   Section       10  fpinit.o(x$fpl$fpinit)
    $v0                                      0x0800b858   Number         0  fpinit.o(x$fpl$fpinit)
    x$fpl$printf1                            0x0800b862   Section        4  printf1.o(x$fpl$printf1)
    $v0                                      0x0800b862   Number         0  printf1.o(x$fpl$printf1)
    x$fpl$retnan                             0x0800b866   Section      100  retnan.o(x$fpl$retnan)
    $v0                                      0x0800b866   Number         0  retnan.o(x$fpl$retnan)
    x$fpl$scalbn                             0x0800b8ca   Section       92  scalbn.o(x$fpl$scalbn)
    $v0                                      0x0800b8ca   Number         0  scalbn.o(x$fpl$scalbn)
    x$fpl$trapveneer                         0x0800b926   Section       48  trapv.o(x$fpl$trapveneer)
    $v0                                      0x0800b926   Number         0  trapv.o(x$fpl$trapveneer)
    x$fpl$usenofp                            0x0800b956   Section        0  usenofp.o(x$fpl$usenofp)
    .constdata                               0x0800b958   Section        8  ecg.o(.constdata)
    dense_2_chain                            0x0800b958   Data           8  ecg.o(.constdata)
    .constdata                               0x0800b960   Section        8  ecg.o(.constdata)
    dense_2_dense_chain                      0x0800b960   Data           8  ecg.o(.constdata)
    .constdata                               0x0800b968   Section        8  ecg.o(.constdata)
    dense_1_chain                            0x0800b968   Data           8  ecg.o(.constdata)
    .constdata                               0x0800b970   Section        8  ecg.o(.constdata)
    dense_1_dense_chain                      0x0800b970   Data           8  ecg.o(.constdata)
    .constdata                               0x0800b978   Section        8  ecg.o(.constdata)
    dense_chain                              0x0800b978   Data           8  ecg.o(.constdata)
    .constdata                               0x0800b980   Section        8  ecg.o(.constdata)
    dense_dense_chain                        0x0800b980   Data           8  ecg.o(.constdata)
    .constdata                               0x0800b988   Section        8  ecg.o(.constdata)
    average_pooling2d_chain                  0x0800b988   Data           8  ecg.o(.constdata)
    .constdata                               0x0800b990   Section        8  ecg.o(.constdata)
    batch_normalization_1_chain              0x0800b990   Data           8  ecg.o(.constdata)
    .constdata                               0x0800b998   Section        8  ecg.o(.constdata)
    conv2d_1_chain                           0x0800b998   Data           8  ecg.o(.constdata)
    .constdata                               0x0800b9a0   Section        8  ecg.o(.constdata)
    conv2d_1_conv2d_chain                    0x0800b9a0   Data           8  ecg.o(.constdata)
    .constdata                               0x0800b9a8   Section        8  ecg.o(.constdata)
    conv2d_chain                             0x0800b9a8   Data           8  ecg.o(.constdata)
    .constdata                               0x0800b9b0   Section        8  ecg.o(.constdata)
    conv2d_conv2d_chain                      0x0800b9b0   Data           8  ecg.o(.constdata)
    .constdata                               0x0800b9b8   Section      272  ecg.o(.constdata)
    .constdata                               0x0800bac8   Section      104  ecg_data.o(.constdata)
    .constdata                               0x0800bb40   Section    1043600  ecg_data_params.o(.constdata)
    .constdata                               0x0810a7d0   Section       24  stm32h7xx_hal_uart.o(.constdata)
    .constdata                               0x0810a7e8   Section       16  system_stm32h7xx.o(.constdata)
    .constdata                               0x0810a7f8   Section       72  malloc.o(.constdata)
    .constdata                               0x0810a840   Section        4  ecg_run.o(.constdata)
    .constdata                               0x0810a844   Section       60  ff.o(.constdata)
    LfnOfs                                   0x0810a844   Data          13  ff.o(.constdata)
    badchr                                   0x0810a851   Data          18  ff.o(.constdata)
    cst                                      0x0810a864   Data          14  ff.o(.constdata)
    cst32                                    0x0810a872   Data          14  ff.o(.constdata)
    .constdata                               0x0810a880   Section    175030  ffunicode.o(.constdata)
    uni2oem936                               0x0810a880   Data       87172  ffunicode.o(.constdata)
    oem2uni936                               0x0811fd04   Data       87172  ffunicode.o(.constdata)
    cvt1                                     0x08135188   Data         498  ffunicode.o(.constdata)
    cvt2                                     0x0813537a   Data         188  ffunicode.o(.constdata)
    .constdata                               0x08135438   Section      108  ai_platform_interface.o(.constdata)
    .constdata                               0x081354a4   Section       17  __printf_flags_ss_wp.o(.constdata)
    maptable                                 0x081354a4   Data          17  __printf_flags_ss_wp.o(.constdata)
    .constdata                               0x081354b8   Section       48  expf.o(.constdata)
    twotokover4top                           0x081354b8   Data          16  expf.o(.constdata)
    twotokover4bot                           0x081354c8   Data          16  expf.o(.constdata)
    twotokover4all                           0x081354d8   Data          16  expf.o(.constdata)
    .constdata                               0x081354e8   Section      136  pow.o(.constdata)
    bp                                       0x081354e8   Data          16  pow.o(.constdata)
    dp_h                                     0x081354f8   Data          16  pow.o(.constdata)
    dp_l                                     0x08135508   Data          16  pow.o(.constdata)
    L                                        0x08135518   Data          48  pow.o(.constdata)
    P                                        0x08135548   Data          40  pow.o(.constdata)
    .constdata                               0x08135570   Section        8  qnan.o(.constdata)
    .constdata                               0x08135578   Section      148  bigflt0.o(.constdata)
    tenpwrs_x                                0x08135578   Data          60  bigflt0.o(.constdata)
    tenpwrs_i                                0x081355b4   Data          64  bigflt0.o(.constdata)
    .conststring                             0x0813560c   Section       93  ecg.o(.conststring)
    locale$$data                             0x0813568c   Section       28  lc_numeric_c.o(locale$$data)
    __lcnum_c_name                           0x08135690   Data           2  lc_numeric_c.o(locale$$data)
    __lcnum_c_start                          0x08135698   Data           0  lc_numeric_c.o(locale$$data)
    __lcnum_c_point                          0x081356a4   Data           0  lc_numeric_c.o(locale$$data)
    __lcnum_c_thousands                      0x081356a6   Data           0  lc_numeric_c.o(locale$$data)
    __lcnum_c_grouping                       0x081356a7   Data           0  lc_numeric_c.o(locale$$data)
    __lcnum_c_end                            0x081356a8   Data           0  lc_numeric_c.o(locale$$data)
    .ARM.__AT_0x20000000                     0x20000000   Section    122880  malloc.o(.ARM.__AT_0x20000000)
    mem5base                                 0x20000000   Data       122880  malloc.o(.ARM.__AT_0x20000000)
    .ARM.__AT_0x2001E000                     0x2001e000   Section     7680  malloc.o(.ARM.__AT_0x2001E000)
    mem5mapbase                              0x2001e000   Data        7680  malloc.o(.ARM.__AT_0x2001E000)
    .data                                    0x24000000   Section       16  ecg.o(.data)
    <Data1>                                  0x24000000   Data          16  ecg.o(.data)
    .data                                    0x24000010   Section       16  ecg.o(.data)
    <Data2>                                  0x24000010   Data          16  ecg.o(.data)
    .data                                    0x24000020   Section       16  ecg.o(.data)
    <Data3>                                  0x24000020   Data          16  ecg.o(.data)
    .data                                    0x24000030   Section       16  ecg.o(.data)
    <Data4>                                  0x24000030   Data          16  ecg.o(.data)
    .data                                    0x24000040   Section       16  ecg.o(.data)
    <Data5>                                  0x24000040   Data          16  ecg.o(.data)
    .data                                    0x24000050   Section       16  ecg.o(.data)
    <Data6>                                  0x24000050   Data          16  ecg.o(.data)
    .data                                    0x24000060   Section       16  ecg.o(.data)
    <Data7>                                  0x24000060   Data          16  ecg.o(.data)
    .data                                    0x24000070   Section       16  ecg.o(.data)
    <Data8>                                  0x24000070   Data          16  ecg.o(.data)
    .data                                    0x24000080   Section       16  ecg.o(.data)
    <Data9>                                  0x24000080   Data          16  ecg.o(.data)
    .data                                    0x24000090   Section       16  ecg.o(.data)
    <Data10>                                 0x24000090   Data          16  ecg.o(.data)
    .data                                    0x240000a0   Section       16  ecg.o(.data)
    <Data11>                                 0x240000a0   Data          16  ecg.o(.data)
    .data                                    0x240000b0   Section       16  ecg.o(.data)
    <Data12>                                 0x240000b0   Data          16  ecg.o(.data)
    .data                                    0x240000c0   Section       16  ecg.o(.data)
    <Data13>                                 0x240000c0   Data          16  ecg.o(.data)
    .data                                    0x240000d0   Section       16  ecg.o(.data)
    <Data14>                                 0x240000d0   Data          16  ecg.o(.data)
    .data                                    0x240000e0   Section       16  ecg.o(.data)
    <Data15>                                 0x240000e0   Data          16  ecg.o(.data)
    .data                                    0x240000f0   Section       16  ecg.o(.data)
    <Data16>                                 0x240000f0   Data          16  ecg.o(.data)
    .data                                    0x24000100   Section       16  ecg.o(.data)
    <Data17>                                 0x24000100   Data          16  ecg.o(.data)
    .data                                    0x24000110   Section       16  ecg.o(.data)
    <Data18>                                 0x24000110   Data          16  ecg.o(.data)
    .data                                    0x24000120   Section       16  ecg.o(.data)
    <Data19>                                 0x24000120   Data          16  ecg.o(.data)
    .data                                    0x24000130   Section       16  ecg.o(.data)
    <Data20>                                 0x24000130   Data          16  ecg.o(.data)
    .data                                    0x24000140   Section       16  ecg.o(.data)
    <Data21>                                 0x24000140   Data          16  ecg.o(.data)
    .data                                    0x24000150   Section       16  ecg.o(.data)
    <Data22>                                 0x24000150   Data          16  ecg.o(.data)
    .data                                    0x24000160   Section       16  ecg.o(.data)
    <Data23>                                 0x24000160   Data          16  ecg.o(.data)
    .data                                    0x24000170   Section       16  ecg.o(.data)
    <Data24>                                 0x24000170   Data          16  ecg.o(.data)
    .data                                    0x24000180   Section       16  ecg.o(.data)
    <Data25>                                 0x24000180   Data          16  ecg.o(.data)
    .data                                    0x24000190   Section       16  ecg.o(.data)
    <Data26>                                 0x24000190   Data          16  ecg.o(.data)
    .data                                    0x240001a0   Section       16  ecg.o(.data)
    <Data27>                                 0x240001a0   Data          16  ecg.o(.data)
    .data                                    0x240001b0   Section       16  ecg.o(.data)
    <Data28>                                 0x240001b0   Data          16  ecg.o(.data)
    .data                                    0x240001c0   Section       16  ecg.o(.data)
    <Data29>                                 0x240001c0   Data          16  ecg.o(.data)
    .data                                    0x240001d0   Section       16  ecg.o(.data)
    <Data30>                                 0x240001d0   Data          16  ecg.o(.data)
    .data                                    0x240001e0   Section       16  ecg.o(.data)
    <Data31>                                 0x240001e0   Data          16  ecg.o(.data)
    .data                                    0x240001f0   Section       16  ecg.o(.data)
    <Data32>                                 0x240001f0   Data          16  ecg.o(.data)
    .data                                    0x24000200   Section       16  ecg.o(.data)
    <Data33>                                 0x24000200   Data          16  ecg.o(.data)
    .data                                    0x24000210   Section       16  ecg.o(.data)
    <Data34>                                 0x24000210   Data          16  ecg.o(.data)
    .data                                    0x24000220   Section       16  ecg.o(.data)
    <Data35>                                 0x24000220   Data          16  ecg.o(.data)
    .data                                    0x24000230   Section       16  ecg.o(.data)
    <Data36>                                 0x24000230   Data          16  ecg.o(.data)
    .data                                    0x24000240   Section       16  ecg.o(.data)
    <Data37>                                 0x24000240   Data          16  ecg.o(.data)
    .data                                    0x24000250   Section       16  ecg.o(.data)
    <Data38>                                 0x24000250   Data          16  ecg.o(.data)
    .data                                    0x24000260   Section       16  ecg.o(.data)
    <Data39>                                 0x24000260   Data          16  ecg.o(.data)
    .data                                    0x24000270   Section       16  ecg.o(.data)
    <Data40>                                 0x24000270   Data          16  ecg.o(.data)
    .data                                    0x24000280   Section       16  ecg.o(.data)
    <Data41>                                 0x24000280   Data          16  ecg.o(.data)
    .data                                    0x24000290   Section       16  ecg.o(.data)
    <Data42>                                 0x24000290   Data          16  ecg.o(.data)
    .data                                    0x240002a0   Section       16  ecg.o(.data)
    <Data43>                                 0x240002a0   Data          16  ecg.o(.data)
    .data                                    0x240002b0   Section       16  ecg.o(.data)
    <Data44>                                 0x240002b0   Data          16  ecg.o(.data)
    .data                                    0x240002c0   Section       16  ecg.o(.data)
    <Data45>                                 0x240002c0   Data          16  ecg.o(.data)
    .data                                    0x240002d0   Section       16  ecg.o(.data)
    <Data46>                                 0x240002d0   Data          16  ecg.o(.data)
    .data                                    0x240002e0   Section       16  ecg.o(.data)
    <Data47>                                 0x240002e0   Data          16  ecg.o(.data)
    .data                                    0x240002f0   Section       16  ecg.o(.data)
    <Data48>                                 0x240002f0   Data          16  ecg.o(.data)
    .data                                    0x24000300   Section       16  ecg.o(.data)
    <Data49>                                 0x24000300   Data          16  ecg.o(.data)
    .data                                    0x24000310   Section       16  ecg.o(.data)
    <Data50>                                 0x24000310   Data          16  ecg.o(.data)
    .data                                    0x24000320   Section       16  ecg.o(.data)
    <Data51>                                 0x24000320   Data          16  ecg.o(.data)
    .data                                    0x24000330   Section       16  ecg.o(.data)
    <Data52>                                 0x24000330   Data          16  ecg.o(.data)
    .data                                    0x24000340   Section       16  ecg.o(.data)
    <Data53>                                 0x24000340   Data          16  ecg.o(.data)
    .data                                    0x24000350   Section       16  ecg.o(.data)
    <Data54>                                 0x24000350   Data          16  ecg.o(.data)
    .data                                    0x24000360   Section        4  ecg.o(.data)
    <Data55>                                 0x24000360   Data           4  ecg.o(.data)
    .data                                    0x24000364   Section        4  ecg.o(.data)
    <Data56>                                 0x24000364   Data           4  ecg.o(.data)
    .data                                    0x24000368   Section        4  ecg.o(.data)
    <Data57>                                 0x24000368   Data           4  ecg.o(.data)
    .data                                    0x2400036c   Section        4  ecg.o(.data)
    <Data58>                                 0x2400036c   Data           4  ecg.o(.data)
    .data                                    0x24000370   Section       48  ecg.o(.data)
    <Data59>                                 0x24000370   Data          48  ecg.o(.data)
    .data                                    0x240003a0   Section        4  ecg.o(.data)
    <Data60>                                 0x240003a0   Data           4  ecg.o(.data)
    .data                                    0x240003a4   Section        4  ecg.o(.data)
    <Data61>                                 0x240003a4   Data           4  ecg.o(.data)
    .data                                    0x240003a8   Section        8  ecg.o(.data)
    <Data62>                                 0x240003a8   Data           8  ecg.o(.data)
    .data                                    0x240003b0   Section        4  ecg.o(.data)
    <Data63>                                 0x240003b0   Data           4  ecg.o(.data)
    .data                                    0x240003b4   Section       48  ecg.o(.data)
    <Data64>                                 0x240003b4   Data          48  ecg.o(.data)
    .data                                    0x240003e4   Section        4  ecg.o(.data)
    <Data65>                                 0x240003e4   Data           4  ecg.o(.data)
    .data                                    0x240003e8   Section        4  ecg.o(.data)
    <Data66>                                 0x240003e8   Data           4  ecg.o(.data)
    .data                                    0x240003ec   Section        4  ecg.o(.data)
    <Data67>                                 0x240003ec   Data           4  ecg.o(.data)
    .data                                    0x240003f0   Section        4  ecg.o(.data)
    <Data68>                                 0x240003f0   Data           4  ecg.o(.data)
    .data                                    0x240003f4   Section       48  ecg.o(.data)
    <Data69>                                 0x240003f4   Data          48  ecg.o(.data)
    .data                                    0x24000424   Section        4  ecg.o(.data)
    <Data70>                                 0x24000424   Data           4  ecg.o(.data)
    .data                                    0x24000428   Section        4  ecg.o(.data)
    <Data71>                                 0x24000428   Data           4  ecg.o(.data)
    .data                                    0x2400042c   Section        8  ecg.o(.data)
    <Data72>                                 0x2400042c   Data           8  ecg.o(.data)
    .data                                    0x24000434   Section        4  ecg.o(.data)
    <Data73>                                 0x24000434   Data           4  ecg.o(.data)
    .data                                    0x24000438   Section       48  ecg.o(.data)
    <Data74>                                 0x24000438   Data          48  ecg.o(.data)
    .data                                    0x24000468   Section        4  ecg.o(.data)
    <Data75>                                 0x24000468   Data           4  ecg.o(.data)
    .data                                    0x2400046c   Section        4  ecg.o(.data)
    <Data76>                                 0x2400046c   Data           4  ecg.o(.data)
    .data                                    0x24000470   Section        4  ecg.o(.data)
    <Data77>                                 0x24000470   Data           4  ecg.o(.data)
    .data                                    0x24000474   Section        4  ecg.o(.data)
    <Data78>                                 0x24000474   Data           4  ecg.o(.data)
    .data                                    0x24000478   Section       48  ecg.o(.data)
    <Data79>                                 0x24000478   Data          48  ecg.o(.data)
    .data                                    0x240004a8   Section        4  ecg.o(.data)
    <Data80>                                 0x240004a8   Data           4  ecg.o(.data)
    .data                                    0x240004ac   Section        4  ecg.o(.data)
    <Data81>                                 0x240004ac   Data           4  ecg.o(.data)
    .data                                    0x240004b0   Section        8  ecg.o(.data)
    <Data82>                                 0x240004b0   Data           8  ecg.o(.data)
    .data                                    0x240004b8   Section        4  ecg.o(.data)
    <Data83>                                 0x240004b8   Data           4  ecg.o(.data)
    .data                                    0x240004bc   Section       48  ecg.o(.data)
    <Data84>                                 0x240004bc   Data          48  ecg.o(.data)
    .data                                    0x240004ec   Section        4  ecg.o(.data)
    <Data85>                                 0x240004ec   Data           4  ecg.o(.data)
    .data                                    0x240004f0   Section        4  ecg.o(.data)
    <Data86>                                 0x240004f0   Data           4  ecg.o(.data)
    .data                                    0x240004f4   Section        4  ecg.o(.data)
    <Data87>                                 0x240004f4   Data           4  ecg.o(.data)
    .data                                    0x240004f8   Section        4  ecg.o(.data)
    <Data88>                                 0x240004f8   Data           4  ecg.o(.data)
    .data                                    0x240004fc   Section       48  ecg.o(.data)
    <Data89>                                 0x240004fc   Data          48  ecg.o(.data)
    .data                                    0x2400052c   Section        4  ecg.o(.data)
    <Data91>                                 0x2400052c   Data           4  ecg.o(.data)
    .data                                    0x24000530   Section        4  ecg.o(.data)
    <Data92>                                 0x24000530   Data           4  ecg.o(.data)
    .data                                    0x24000534   Section        8  ecg.o(.data)
    <Data93>                                 0x24000534   Data           8  ecg.o(.data)
    .data                                    0x2400053c   Section        4  ecg.o(.data)
    <Data94>                                 0x2400053c   Data           4  ecg.o(.data)
    .data                                    0x24000540   Section       48  ecg.o(.data)
    <Data95>                                 0x24000540   Data          48  ecg.o(.data)
    .data                                    0x24000570   Section        4  ecg.o(.data)
    <Data96>                                 0x24000570   Data           4  ecg.o(.data)
    .data                                    0x24000574   Section        4  ecg.o(.data)
    <Data97>                                 0x24000574   Data           4  ecg.o(.data)
    .data                                    0x24000578   Section        4  ecg.o(.data)
    <Data98>                                 0x24000578   Data           4  ecg.o(.data)
    .data                                    0x2400057c   Section        4  ecg.o(.data)
    <Data99>                                 0x2400057c   Data           4  ecg.o(.data)
    .data                                    0x24000580   Section       48  ecg.o(.data)
    <Data100>                                0x24000580   Data          48  ecg.o(.data)
    .data                                    0x240005b0   Section        4  ecg.o(.data)
    <Data101>                                0x240005b0   Data           4  ecg.o(.data)
    .data                                    0x240005b4   Section        4  ecg.o(.data)
    <Data102>                                0x240005b4   Data           4  ecg.o(.data)
    .data                                    0x240005b8   Section       12  ecg.o(.data)
    <Data103>                                0x240005b8   Data          12  ecg.o(.data)
    .data                                    0x240005c4   Section        4  ecg.o(.data)
    <Data104>                                0x240005c4   Data           4  ecg.o(.data)
    .data                                    0x240005c8   Section       48  ecg.o(.data)
    <Data105>                                0x240005c8   Data          48  ecg.o(.data)
    .data                                    0x240005f8   Section        4  ecg.o(.data)
    <Data107>                                0x240005f8   Data           4  ecg.o(.data)
    .data                                    0x240005fc   Section        4  ecg.o(.data)
    <Data108>                                0x240005fc   Data           4  ecg.o(.data)
    .data                                    0x24000600   Section        4  ecg.o(.data)
    <Data109>                                0x24000600   Data           4  ecg.o(.data)
    .data                                    0x24000604   Section        4  ecg.o(.data)
    <Data110>                                0x24000604   Data           4  ecg.o(.data)
    .data                                    0x24000608   Section       48  ecg.o(.data)
    <Data111>                                0x24000608   Data          48  ecg.o(.data)
    .data                                    0x24000638   Section        4  ecg.o(.data)
    <Data112>                                0x24000638   Data           4  ecg.o(.data)
    .data                                    0x2400063c   Section        4  ecg.o(.data)
    <Data113>                                0x2400063c   Data           4  ecg.o(.data)
    .data                                    0x24000640   Section       12  ecg.o(.data)
    <Data114>                                0x24000640   Data          12  ecg.o(.data)
    .data                                    0x2400064c   Section        4  ecg.o(.data)
    <Data115>                                0x2400064c   Data           4  ecg.o(.data)
    .data                                    0x24000650   Section       48  ecg.o(.data)
    <Data116>                                0x24000650   Data          48  ecg.o(.data)
    .data                                    0x24000680   Section       16  ecg.o(.data)
    <Data118>                                0x24000680   Data          16  ecg.o(.data)
    .data                                    0x24000690   Section       28  ecg.o(.data)
    <Data119>                                0x24000690   Data          28  ecg.o(.data)
    .data                                    0x240006ac   Section       16  ecg.o(.data)
    <Data120>                                0x240006ac   Data          16  ecg.o(.data)
    .data                                    0x240006bc   Section       28  ecg.o(.data)
    <Data121>                                0x240006bc   Data          28  ecg.o(.data)
    .data                                    0x240006d8   Section        4  ecg.o(.data)
    <Data122>                                0x240006d8   Data           4  ecg.o(.data)
    .data                                    0x240006dc   Section        8  ecg.o(.data)
    <Data125>                                0x240006dc   Data           8  ecg.o(.data)
    .data                                    0x240006e4   Section       12  ecg.o(.data)
    <Data126>                                0x240006e4   Data          12  ecg.o(.data)
    .data                                    0x240006f0   Section        4  ecg.o(.data)
    <Data127>                                0x240006f0   Data           4  ecg.o(.data)
    .data                                    0x240006f4   Section        8  ecg.o(.data)
    <Data130>                                0x240006f4   Data           8  ecg.o(.data)
    .data                                    0x240006fc   Section       12  ecg.o(.data)
    <Data131>                                0x240006fc   Data          12  ecg.o(.data)
    .data                                    0x24000708   Section       24  ecg.o(.data)
    <Data132>                                0x24000708   Data          24  ecg.o(.data)
    .data                                    0x24000720   Section      484  ecg.o(.data)
    g_ecg_activations_map                    0x24000720   Data           4  ecg.o(.data)
    g_ecg_weights_map                        0x24000724   Data           4  ecg.o(.data)
    conv2d_conv2d_bias_array                 0x24000728   Data          16  ecg.o(.data)
    conv2d_1_conv2d_weights_array            0x24000738   Data          16  ecg.o(.data)
    conv2d_1_conv2d_bias_array               0x24000748   Data          16  ecg.o(.data)
    batch_normalization_1_scale_array        0x24000758   Data          16  ecg.o(.data)
    batch_normalization_1_bias_array         0x24000768   Data          16  ecg.o(.data)
    dense_dense_weights_array                0x24000778   Data          16  ecg.o(.data)
    dense_dense_bias_array                   0x24000788   Data          16  ecg.o(.data)
    dense_1_dense_weights_array              0x24000798   Data          16  ecg.o(.data)
    dense_1_dense_bias_array                 0x240007a8   Data          16  ecg.o(.data)
    dense_2_dense_weights_array              0x240007b8   Data          16  ecg.o(.data)
    dense_2_dense_bias_array                 0x240007c8   Data          16  ecg.o(.data)
    input_0_output_array                     0x240007d8   Data          16  ecg.o(.data)
    conv2d_conv2d_output_array               0x240007e8   Data          16  ecg.o(.data)
    conv2d_output_array                      0x240007f8   Data          16  ecg.o(.data)
    conv2d_1_conv2d_output_array             0x24000808   Data          16  ecg.o(.data)
    conv2d_1_output_array                    0x24000818   Data          16  ecg.o(.data)
    batch_normalization_1_output_array       0x24000828   Data          16  ecg.o(.data)
    average_pooling2d_output_array           0x24000838   Data          16  ecg.o(.data)
    dense_dense_output_array                 0x24000848   Data          16  ecg.o(.data)
    dense_output_array                       0x24000858   Data          16  ecg.o(.data)
    dense_1_dense_output_array               0x24000868   Data          16  ecg.o(.data)
    dense_1_output_array                     0x24000878   Data          16  ecg.o(.data)
    dense_2_dense_output_array               0x24000888   Data          16  ecg.o(.data)
    dense_2_output_array                     0x24000898   Data          16  ecg.o(.data)
    conv2d_conv2d_weights_array              0x240008a8   Data          16  ecg.o(.data)
    g_ecg                                    0x240008b8   Data          76  ecg.o(.data)
    .data                                    0x24000904   Section       28  ecg.o(.data)
    conv2d_conv2d_bias                       0x24000904   Data          28  ecg.o(.data)
    .data                                    0x24000920   Section       28  ecg.o(.data)
    conv2d_1_conv2d_weights                  0x24000920   Data          28  ecg.o(.data)
    .data                                    0x2400093c   Section       28  ecg.o(.data)
    conv2d_1_conv2d_bias                     0x2400093c   Data          28  ecg.o(.data)
    .data                                    0x24000958   Section       28  ecg.o(.data)
    batch_normalization_1_scale              0x24000958   Data          28  ecg.o(.data)
    .data                                    0x24000974   Section       28  ecg.o(.data)
    batch_normalization_1_bias               0x24000974   Data          28  ecg.o(.data)
    .data                                    0x24000990   Section       28  ecg.o(.data)
    dense_dense_weights                      0x24000990   Data          28  ecg.o(.data)
    .data                                    0x240009ac   Section       28  ecg.o(.data)
    dense_dense_bias                         0x240009ac   Data          28  ecg.o(.data)
    .data                                    0x240009c8   Section       28  ecg.o(.data)
    dense_1_dense_weights                    0x240009c8   Data          28  ecg.o(.data)
    .data                                    0x240009e4   Section       28  ecg.o(.data)
    dense_1_dense_bias                       0x240009e4   Data          28  ecg.o(.data)
    .data                                    0x24000a00   Section       28  ecg.o(.data)
    dense_2_dense_weights                    0x24000a00   Data          28  ecg.o(.data)
    .data                                    0x24000a1c   Section       28  ecg.o(.data)
    dense_2_dense_bias                       0x24000a1c   Data          28  ecg.o(.data)
    .data                                    0x24000a38   Section       28  ecg.o(.data)
    input_0_output                           0x24000a38   Data          28  ecg.o(.data)
    .data                                    0x24000a54   Section       28  ecg.o(.data)
    input_0_output0                          0x24000a54   Data          28  ecg.o(.data)
    .data                                    0x24000a70   Section       28  ecg.o(.data)
    conv2d_conv2d_output                     0x24000a70   Data          28  ecg.o(.data)
    .data                                    0x24000a8c   Section       28  ecg.o(.data)
    conv2d_output                            0x24000a8c   Data          28  ecg.o(.data)
    .data                                    0x24000aa8   Section       28  ecg.o(.data)
    conv2d_1_conv2d_output                   0x24000aa8   Data          28  ecg.o(.data)
    .data                                    0x24000ac4   Section       28  ecg.o(.data)
    conv2d_1_output                          0x24000ac4   Data          28  ecg.o(.data)
    .data                                    0x24000ae0   Section       28  ecg.o(.data)
    batch_normalization_1_output             0x24000ae0   Data          28  ecg.o(.data)
    .data                                    0x24000afc   Section       28  ecg.o(.data)
    average_pooling2d_output                 0x24000afc   Data          28  ecg.o(.data)
    .data                                    0x24000b18   Section       28  ecg.o(.data)
    average_pooling2d_output0                0x24000b18   Data          28  ecg.o(.data)
    .data                                    0x24000b34   Section       28  ecg.o(.data)
    dense_dense_output                       0x24000b34   Data          28  ecg.o(.data)
    .data                                    0x24000b50   Section       28  ecg.o(.data)
    dense_output                             0x24000b50   Data          28  ecg.o(.data)
    .data                                    0x24000b6c   Section       28  ecg.o(.data)
    dense_1_dense_output                     0x24000b6c   Data          28  ecg.o(.data)
    .data                                    0x24000b88   Section       28  ecg.o(.data)
    dense_1_output                           0x24000b88   Data          28  ecg.o(.data)
    .data                                    0x24000ba4   Section       28  ecg.o(.data)
    dense_2_dense_output                     0x24000ba4   Data          28  ecg.o(.data)
    .data                                    0x24000bc0   Section       28  ecg.o(.data)
    dense_2_output                           0x24000bc0   Data          28  ecg.o(.data)
    .data                                    0x24000bdc   Section       28  ecg.o(.data)
    conv2d_conv2d_weights                    0x24000bdc   Data          28  ecg.o(.data)
    .data                                    0x24000bf8   Section       32  ecg.o(.data)
    dense_2_layer                            0x24000bf8   Data          32  ecg.o(.data)
    .data                                    0x24000c18   Section       28  ecg.o(.data)
    dense_2_dense_layer                      0x24000c18   Data          28  ecg.o(.data)
    .data                                    0x24000c34   Section       32  ecg.o(.data)
    dense_1_layer                            0x24000c34   Data          32  ecg.o(.data)
    .data                                    0x24000c54   Section       28  ecg.o(.data)
    dense_1_dense_layer                      0x24000c54   Data          28  ecg.o(.data)
    .data                                    0x24000c70   Section       32  ecg.o(.data)
    dense_layer                              0x24000c70   Data          32  ecg.o(.data)
    .data                                    0x24000c90   Section       28  ecg.o(.data)
    dense_dense_layer                        0x24000c90   Data          28  ecg.o(.data)
    .data                                    0x24000cac   Section       56  ecg.o(.data)
    average_pooling2d_layer                  0x24000cac   Data          56  ecg.o(.data)
    .data                                    0x24000ce4   Section       28  ecg.o(.data)
    batch_normalization_1_layer              0x24000ce4   Data          28  ecg.o(.data)
    .data                                    0x24000d00   Section       32  ecg.o(.data)
    conv2d_1_layer                           0x24000d00   Data          32  ecg.o(.data)
    .data                                    0x24000d20   Section       68  ecg.o(.data)
    conv2d_1_conv2d_layer                    0x24000d20   Data          68  ecg.o(.data)
    .data                                    0x24000d64   Section       32  ecg.o(.data)
    conv2d_layer                             0x24000d64   Data          32  ecg.o(.data)
    .data                                    0x24000d84   Section       68  ecg.o(.data)
    conv2d_conv2d_layer                      0x24000d84   Data          68  ecg.o(.data)
    .data                                    0x24000dc8   Section       16  ecg_data.o(.data)
    <Data1>                                  0x24000dc8   Data          16  ecg_data.o(.data)
    .data                                    0x24000dd8   Section       16  ecg_data.o(.data)
    <Data2>                                  0x24000dd8   Data          16  ecg_data.o(.data)
    .data                                    0x24000de8   Section       28  ecg_data.o(.data)
    .data                                    0x24000e04   Section       28  ecg_data.o(.data)
    .data                                    0x24000e20   Section       12  stm32h7xx_hal.o(.data)
    .data                                    0x24000e2c   Section        8  system_stm32h7xx.o(.data)
    .data                                    0x24000e34   Section        4  usart.o(.data)
    .data                                    0x24000e38   Section        4  usart.o(.data)
    .data                                    0x24000e3c   Section        4  delay.o(.data)
    g_fac_us                                 0x24000e3c   Data           4  delay.o(.data)
    .data                                    0x24000e40   Section       64  malloc.o(.data)
    .data                                    0x24000e80   Section     2012  ecg_run.o(.data)
    network                                  0x24000e80   Data           4  ecg_run.o(.data)
    ai_input                                 0x24000e84   Data           4  ecg_run.o(.data)
    ai_output                                0x24000e88   Data           4  ecg_run.o(.data)
    .data                                    0x2400165c   Section        8  sdmmc_sdcard.o(.data)
    CardType                                 0x2400165c   Data           1  sdmmc_sdcard.o(.data)
    RCA                                      0x24001660   Data           4  sdmmc_sdcard.o(.data)
    .data                                    0x24001664   Section       12  btim.o(.data)
    file                                     0x24001664   Data           4  btim.o(.data)
    group                                    0x24001668   Data           4  btim.o(.data)
    point                                    0x2400166c   Data           4  btim.o(.data)
    .data                                    0x24001670   Section       12  exfuns.o(.data)
    .data                                    0x2400167c   Section        2  ff.o(.data)
    Fsid                                     0x2400167c   Data           2  ff.o(.data)
    .data                                    0x24001680   Section        4  readfile.o(.data)
    .bss                                     0x24001684   Section       16  ecg.o(.bss)
    <Data90>                                 0x24001684   Data          16  ecg.o(.bss)
    .bss                                     0x24001694   Section       16  ecg.o(.bss)
    <Data106>                                0x24001694   Data          16  ecg.o(.bss)
    .bss                                     0x240016a4   Section       16  ecg.o(.bss)
    <Data117>                                0x240016a4   Data          16  ecg.o(.bss)
    .bss                                     0x240016b4   Section       28  ecg.o(.bss)
    <Data123>                                0x240016b4   Data          28  ecg.o(.bss)
    .bss                                     0x240016d0   Section       16  ecg.o(.bss)
    <Data124>                                0x240016d0   Data          16  ecg.o(.bss)
    .bss                                     0x240016e0   Section       28  ecg.o(.bss)
    <Data128>                                0x240016e0   Data          28  ecg.o(.bss)
    .bss                                     0x240016fc   Section       16  ecg.o(.bss)
    <Data129>                                0x240016fc   Data          16  ecg.o(.bss)
    .bss                                     0x24001720   Section     2152  main.o(.bss)
    in_data                                  0x24001720   Data        2000  main.o(.bss)
    out_data                                 0x24001f00   Data          16  main.o(.bss)
    .bss                                     0x24001f88   Section       36  crc.o(.bss)
    .bss                                     0x24001fac   Section      344  usart.o(.bss)
    .bss                                     0x24002140   Section    184320  malloc.o(.bss)
    mem1base                                 0x24002140   Data       184320  malloc.o(.bss)
    .bss                                     0x2402f140   Section    11520  malloc.o(.bss)
    mem1mapbase                              0x2402f140   Data       11520  malloc.o(.bss)
    .bss                                     0x24031e40   Section    32140  ecg_run.o(.bss)
    activations                              0x24031e40   Data       32140  ecg_run.o(.bss)
    .bss                                     0x24039bd0   Section      120  sdmmc_sdcard.o(.bss)
    CSD_Tab                                  0x24039bd0   Data          16  sdmmc_sdcard.o(.bss)
    CID_Tab                                  0x24039be0   Data          16  sdmmc_sdcard.o(.bss)
    .bss                                     0x24039c48   Section       76  btim.o(.bss)
    .bss                                     0x24039c94   Section       12  exfuns.o(.bss)
    .bss                                     0x24039ca0   Section       12  ff.o(.bss)
    FatFs                                    0x24039ca0   Data          12  ff.o(.bss)
    .bss                                     0x24039cac   Section       64  readfile.o(.bss)
    .bss                                     0x24039cec   Section       96  libspace.o(.bss)
    HEAP                                     0x24039d50   Section     2048  startup_stm32h743xx.o(HEAP)
    Heap_Mem                                 0x24039d50   Data        2048  startup_stm32h743xx.o(HEAP)
    STACK                                    0x2403a550   Section     2048  startup_stm32h743xx.o(STACK)
    Stack_Mem                                0x2403a550   Data        2048  startup_stm32h743xx.o(STACK)
    __initial_sp                             0x2403ad50   Data           0  startup_stm32h743xx.o(STACK)
    .ARM.__AT_0x30000000                     0x30000000   Section    245760  malloc.o(.ARM.__AT_0x30000000)
    mem3base                                 0x30000000   Data       245760  malloc.o(.ARM.__AT_0x30000000)
    .ARM.__AT_0x3003C000                     0x3003c000   Section    15360  malloc.o(.ARM.__AT_0x3003C000)
    mem3mapbase                              0x3003c000   Data       15360  malloc.o(.ARM.__AT_0x3003C000)
    .ARM.__AT_0x38000000                     0x38000000   Section    61440  malloc.o(.ARM.__AT_0x38000000)
    mem4base                                 0x38000000   Data       61440  malloc.o(.ARM.__AT_0x38000000)
    .ARM.__AT_0x3800F000                     0x3800f000   Section     3840  malloc.o(.ARM.__AT_0x3800F000)
    mem4mapbase                              0x3800f000   Data        3840  malloc.o(.ARM.__AT_0x3800F000)
    .ARM.__AT_0xC01F4000                     0xc01f4000   Section    29605888  malloc.o(.ARM.__AT_0xC01F4000)
    mem2base                                 0xc01f4000   Data       29605888  malloc.o(.ARM.__AT_0xC01F4000)
    .ARM.__AT_0xC1E30000                     0xc1e30000   Section    1850368  malloc.o(.ARM.__AT_0xC1E30000)
    mem2mapbase                              0xc1e30000   Data       1850368  malloc.o(.ARM.__AT_0xC1E30000)

    Global Symbols

    Symbol Name                              Value     Ov Type        Size  Object(Section)

    BuildAttributes$$THM_ISAv4$E$P$D$K$B$S$7EM$VFPv5_D16$PE$PLD8$A:L22UL41UL21$X:L11$S22US41US21$IEEE1$IW$USESV6$~STKCKD$USESV7$~SHL$OTIME$ROPI$IEEEX$EBA8$UX$STANDARDLIB$REQ8$PRES8$EABIv2 0x00000000   Number         0  anon$$obj.o ABSOLUTE
    __ARM_use_no_argv                        0x00000000   Number         0  main.o ABSOLUTE
    _printf_flags                            0x00000000   Number         0  printf_stubs.o ABSOLUTE
    _printf_return_value                     0x00000000   Number         0  printf_stubs.o ABSOLUTE
    _printf_sizespec                         0x00000000   Number         0  printf_stubs.o ABSOLUTE
    _printf_widthprec                        0x00000000   Number         0  printf_stubs.o ABSOLUTE
    __ARM_exceptions_init                     - Undefined Weak Reference
    __alloca_initialize                       - Undefined Weak Reference
    __arm_preinit_                            - Undefined Weak Reference
    __cpp_initialize__aeabi_                  - Undefined Weak Reference
    __cxa_finalize                            - Undefined Weak Reference
    __sigvec_lookup                           - Undefined Weak Reference
    __user_heap_extent                        - Undefined Weak Reference
    _atexit_init                              - Undefined Weak Reference
    _call_atexit_fns                          - Undefined Weak Reference
    _clock_init                               - Undefined Weak Reference
    _fp_trap_init                             - Undefined Weak Reference
    _fp_trap_shutdown                         - Undefined Weak Reference
    _get_lc_collate                           - Undefined Weak Reference
    _get_lc_ctype                             - Undefined Weak Reference
    _get_lc_monetary                          - Undefined Weak Reference
    _get_lc_time                              - Undefined Weak Reference
    _getenv_init                              - Undefined Weak Reference
    _handle_redirection                       - Undefined Weak Reference
    _initio                                   - Undefined Weak Reference
    _mutex_acquire                            - Undefined Weak Reference
    _mutex_free                               - Undefined Weak Reference
    _mutex_release                            - Undefined Weak Reference
    _printf_mbtowc                            - Undefined Weak Reference
    _printf_truncate_signed                   - Undefined Weak Reference
    _printf_truncate_unsigned                 - Undefined Weak Reference
    _rand_init                                - Undefined Weak Reference
    _signal_finish                            - Undefined Weak Reference
    _signal_init                              - Undefined Weak Reference
    _terminateio                              - Undefined Weak Reference
    __Vectors_Size                           0x00000298   Number         0  startup_stm32h743xx.o ABSOLUTE
    __Vectors                                0x08000000   Data           4  startup_stm32h743xx.o(RESET)
    __Vectors_End                            0x08000298   Data           0  startup_stm32h743xx.o(RESET)
    __main                                   0x08000299   Thumb Code     8  __main.o(!!!main)
    __scatterload                            0x080002a1   Thumb Code     0  __scatter.o(!!!scatter)
    __scatterload_rt2                        0x080002a1   Thumb Code    44  __scatter.o(!!!scatter)
    __scatterload_rt2_thumb_only             0x080002a1   Thumb Code     0  __scatter.o(!!!scatter)
    __scatterload_null                       0x080002af   Thumb Code     0  __scatter.o(!!!scatter)
    __decompress                             0x080002d5   Thumb Code    90  __dczerorl2.o(!!dczerorl2)
    __decompress1                            0x080002d5   Thumb Code     0  __dczerorl2.o(!!dczerorl2)
    __scatterload_zeroinit                   0x08000331   Thumb Code    28  __scatter_zi.o(!!handler_zi)
    _printf_f                                0x0800034d   Thumb Code     0  _printf_f.o(.ARM.Collect$$_printf_percent$$00000003)
    _printf_percent                          0x0800034d   Thumb Code     0  _printf_percent.o(.ARM.Collect$$_printf_percent$$00000000)
    _printf_d                                0x08000353   Thumb Code     0  _printf_d.o(.ARM.Collect$$_printf_percent$$00000009)
    _printf_percent_end                      0x08000359   Thumb Code     0  _printf_percent_end.o(.ARM.Collect$$_printf_percent$$00000017)
    __rt_lib_init                            0x0800035d   Thumb Code     0  libinit.o(.ARM.Collect$$libinit$$00000000)
    __rt_lib_init_fp_1                       0x0800035f   Thumb Code     0  libinit2.o(.ARM.Collect$$libinit$$00000001)
    __rt_lib_init_heap_2                     0x08000363   Thumb Code     0  libinit2.o(.ARM.Collect$$libinit$$00000005)
    __rt_lib_init_preinit_1                  0x08000363   Thumb Code     0  libinit2.o(.ARM.Collect$$libinit$$00000004)
    __rt_lib_init_heap_1                     0x0800036b   Thumb Code     0  libinit2.o(.ARM.Collect$$libinit$$0000000A)
    __rt_lib_init_lc_common                  0x0800036b   Thumb Code     0  libinit2.o(.ARM.Collect$$libinit$$0000000F)
    __rt_lib_init_rand_1                     0x0800036b   Thumb Code     0  libinit2.o(.ARM.Collect$$libinit$$0000000E)
    __rt_lib_init_user_alloc_1               0x0800036b   Thumb Code     0  libinit2.o(.ARM.Collect$$libinit$$0000000C)
    __rt_lib_init_lc_collate_1               0x08000371   Thumb Code     0  libinit2.o(.ARM.Collect$$libinit$$00000011)
    __rt_lib_init_lc_ctype_1                 0x08000371   Thumb Code     0  libinit2.o(.ARM.Collect$$libinit$$00000013)
    __rt_lib_init_lc_monetary_1              0x08000371   Thumb Code     0  libinit2.o(.ARM.Collect$$libinit$$00000015)
    __rt_lib_init_lc_numeric_2               0x08000371   Thumb Code     0  libinit2.o(.ARM.Collect$$libinit$$00000016)
    __rt_lib_init_alloca_1                   0x0800037b   Thumb Code     0  libinit2.o(.ARM.Collect$$libinit$$0000002E)
    __rt_lib_init_argv_1                     0x0800037b   Thumb Code     0  libinit2.o(.ARM.Collect$$libinit$$0000002C)
    __rt_lib_init_atexit_1                   0x0800037b   Thumb Code     0  libinit2.o(.ARM.Collect$$libinit$$0000001B)
    __rt_lib_init_clock_1                    0x0800037b   Thumb Code     0  libinit2.o(.ARM.Collect$$libinit$$00000021)
    __rt_lib_init_cpp_1                      0x0800037b   Thumb Code     0  libinit2.o(.ARM.Collect$$libinit$$00000032)
    __rt_lib_init_exceptions_1               0x0800037b   Thumb Code     0  libinit2.o(.ARM.Collect$$libinit$$00000030)
    __rt_lib_init_fp_trap_1                  0x0800037b   Thumb Code     0  libinit2.o(.ARM.Collect$$libinit$$0000001F)
    __rt_lib_init_getenv_1                   0x0800037b   Thumb Code     0  libinit2.o(.ARM.Collect$$libinit$$00000023)
    __rt_lib_init_lc_numeric_1               0x0800037b   Thumb Code     0  libinit2.o(.ARM.Collect$$libinit$$00000017)
    __rt_lib_init_lc_time_1                  0x0800037b   Thumb Code     0  libinit2.o(.ARM.Collect$$libinit$$00000019)
    __rt_lib_init_return                     0x0800037b   Thumb Code     0  libinit2.o(.ARM.Collect$$libinit$$00000033)
    __rt_lib_init_signal_1                   0x0800037b   Thumb Code     0  libinit2.o(.ARM.Collect$$libinit$$0000001D)
    __rt_lib_init_stdio_1                    0x0800037b   Thumb Code     0  libinit2.o(.ARM.Collect$$libinit$$00000025)
    __rt_lib_shutdown                        0x0800037d   Thumb Code     0  libshutdown.o(.ARM.Collect$$libshutdown$$00000000)
    __rt_lib_shutdown_cpp_1                  0x0800037f   Thumb Code     0  libshutdown2.o(.ARM.Collect$$libshutdown$$00000002)
    __rt_lib_shutdown_fp_trap_1              0x0800037f   Thumb Code     0  libshutdown2.o(.ARM.Collect$$libshutdown$$00000007)
    __rt_lib_shutdown_heap_1                 0x0800037f   Thumb Code     0  libshutdown2.o(.ARM.Collect$$libshutdown$$0000000F)
    __rt_lib_shutdown_return                 0x0800037f   Thumb Code     0  libshutdown2.o(.ARM.Collect$$libshutdown$$00000010)
    __rt_lib_shutdown_signal_1               0x0800037f   Thumb Code     0  libshutdown2.o(.ARM.Collect$$libshutdown$$0000000A)
    __rt_lib_shutdown_stdio_1                0x0800037f   Thumb Code     0  libshutdown2.o(.ARM.Collect$$libshutdown$$00000004)
    __rt_lib_shutdown_user_alloc_1           0x0800037f   Thumb Code     0  libshutdown2.o(.ARM.Collect$$libshutdown$$0000000C)
    __rt_entry                               0x08000381   Thumb Code     0  __rtentry.o(.ARM.Collect$$rtentry$$00000000)
    __rt_entry_presh_1                       0x08000381   Thumb Code     0  __rtentry2.o(.ARM.Collect$$rtentry$$00000002)
    __rt_entry_sh                            0x08000381   Thumb Code     0  __rtentry4.o(.ARM.Collect$$rtentry$$00000004)
    __rt_entry_li                            0x08000387   Thumb Code     0  __rtentry2.o(.ARM.Collect$$rtentry$$0000000A)
    __rt_entry_postsh_1                      0x08000387   Thumb Code     0  __rtentry2.o(.ARM.Collect$$rtentry$$00000009)
    __rt_entry_main                          0x0800038b   Thumb Code     0  __rtentry2.o(.ARM.Collect$$rtentry$$0000000D)
    __rt_entry_postli_1                      0x0800038b   Thumb Code     0  __rtentry2.o(.ARM.Collect$$rtentry$$0000000C)
    __rt_exit                                0x08000393   Thumb Code     0  rtexit.o(.ARM.Collect$$rtexit$$00000000)
    __rt_exit_ls                             0x08000395   Thumb Code     0  rtexit2.o(.ARM.Collect$$rtexit$$00000003)
    __rt_exit_prels_1                        0x08000395   Thumb Code     0  rtexit2.o(.ARM.Collect$$rtexit$$00000002)
    __rt_exit_exit                           0x08000399   Thumb Code     0  rtexit2.o(.ARM.Collect$$rtexit$$00000004)
    WFI_SET                                  0x080003a1   Thumb Code     2  sys.o(.emb_text)
    INTX_DISABLE                             0x080003a3   Thumb Code     4  sys.o(.emb_text)
    INTX_ENABLE                              0x080003a7   Thumb Code     4  sys.o(.emb_text)
    MSR_MSP                                  0x080003ab   Thumb Code     6  sys.o(.emb_text)
    Reset_Handler                            0x080003b1   Thumb Code     8  startup_stm32h743xx.o(.text)
    _maybe_terminate_alloc                   0x080003b1   Thumb Code     0  maybetermalloc1.o(.emb_text)
    ADC3_IRQHandler                          0x080003cb   Thumb Code     0  startup_stm32h743xx.o(.text)
    ADC_IRQHandler                           0x080003cb   Thumb Code     0  startup_stm32h743xx.o(.text)
    BDMA_Channel0_IRQHandler                 0x080003cb   Thumb Code     0  startup_stm32h743xx.o(.text)
    BDMA_Channel1_IRQHandler                 0x080003cb   Thumb Code     0  startup_stm32h743xx.o(.text)
    BDMA_Channel2_IRQHandler                 0x080003cb   Thumb Code     0  startup_stm32h743xx.o(.text)
    BDMA_Channel3_IRQHandler                 0x080003cb   Thumb Code     0  startup_stm32h743xx.o(.text)
    BDMA_Channel4_IRQHandler                 0x080003cb   Thumb Code     0  startup_stm32h743xx.o(.text)
    BDMA_Channel5_IRQHandler                 0x080003cb   Thumb Code     0  startup_stm32h743xx.o(.text)
    BDMA_Channel6_IRQHandler                 0x080003cb   Thumb Code     0  startup_stm32h743xx.o(.text)
    BDMA_Channel7_IRQHandler                 0x080003cb   Thumb Code     0  startup_stm32h743xx.o(.text)
    CEC_IRQHandler                           0x080003cb   Thumb Code     0  startup_stm32h743xx.o(.text)
    COMP1_IRQHandler                         0x080003cb   Thumb Code     0  startup_stm32h743xx.o(.text)
    CRS_IRQHandler                           0x080003cb   Thumb Code     0  startup_stm32h743xx.o(.text)
    DCMI_IRQHandler                          0x080003cb   Thumb Code     0  startup_stm32h743xx.o(.text)
    DFSDM1_FLT0_IRQHandler                   0x080003cb   Thumb Code     0  startup_stm32h743xx.o(.text)
    DFSDM1_FLT1_IRQHandler                   0x080003cb   Thumb Code     0  startup_stm32h743xx.o(.text)
    DFSDM1_FLT2_IRQHandler                   0x080003cb   Thumb Code     0  startup_stm32h743xx.o(.text)
    DFSDM1_FLT3_IRQHandler                   0x080003cb   Thumb Code     0  startup_stm32h743xx.o(.text)
    DMA1_Stream0_IRQHandler                  0x080003cb   Thumb Code     0  startup_stm32h743xx.o(.text)
    DMA1_Stream1_IRQHandler                  0x080003cb   Thumb Code     0  startup_stm32h743xx.o(.text)
    DMA1_Stream2_IRQHandler                  0x080003cb   Thumb Code     0  startup_stm32h743xx.o(.text)
    DMA1_Stream3_IRQHandler                  0x080003cb   Thumb Code     0  startup_stm32h743xx.o(.text)
    DMA1_Stream4_IRQHandler                  0x080003cb   Thumb Code     0  startup_stm32h743xx.o(.text)
    DMA1_Stream5_IRQHandler                  0x080003cb   Thumb Code     0  startup_stm32h743xx.o(.text)
    DMA1_Stream6_IRQHandler                  0x080003cb   Thumb Code     0  startup_stm32h743xx.o(.text)
    DMA1_Stream7_IRQHandler                  0x080003cb   Thumb Code     0  startup_stm32h743xx.o(.text)
    DMA2D_IRQHandler                         0x080003cb   Thumb Code     0  startup_stm32h743xx.o(.text)
    DMA2_Stream0_IRQHandler                  0x080003cb   Thumb Code     0  startup_stm32h743xx.o(.text)
    DMA2_Stream1_IRQHandler                  0x080003cb   Thumb Code     0  startup_stm32h743xx.o(.text)
    DMA2_Stream2_IRQHandler                  0x080003cb   Thumb Code     0  startup_stm32h743xx.o(.text)
    DMA2_Stream3_IRQHandler                  0x080003cb   Thumb Code     0  startup_stm32h743xx.o(.text)
    DMA2_Stream4_IRQHandler                  0x080003cb   Thumb Code     0  startup_stm32h743xx.o(.text)
    DMA2_Stream5_IRQHandler                  0x080003cb   Thumb Code     0  startup_stm32h743xx.o(.text)
    DMA2_Stream6_IRQHandler                  0x080003cb   Thumb Code     0  startup_stm32h743xx.o(.text)
    DMA2_Stream7_IRQHandler                  0x080003cb   Thumb Code     0  startup_stm32h743xx.o(.text)
    DMAMUX1_OVR_IRQHandler                   0x080003cb   Thumb Code     0  startup_stm32h743xx.o(.text)
    DMAMUX2_OVR_IRQHandler                   0x080003cb   Thumb Code     0  startup_stm32h743xx.o(.text)
    ECC_IRQHandler                           0x080003cb   Thumb Code     0  startup_stm32h743xx.o(.text)
    ETH_IRQHandler                           0x080003cb   Thumb Code     0  startup_stm32h743xx.o(.text)
    ETH_WKUP_IRQHandler                      0x080003cb   Thumb Code     0  startup_stm32h743xx.o(.text)
    EXTI0_IRQHandler                         0x080003cb   Thumb Code     0  startup_stm32h743xx.o(.text)
    EXTI15_10_IRQHandler                     0x080003cb   Thumb Code     0  startup_stm32h743xx.o(.text)
    EXTI1_IRQHandler                         0x080003cb   Thumb Code     0  startup_stm32h743xx.o(.text)
    EXTI2_IRQHandler                         0x080003cb   Thumb Code     0  startup_stm32h743xx.o(.text)
    EXTI3_IRQHandler                         0x080003cb   Thumb Code     0  startup_stm32h743xx.o(.text)
    EXTI4_IRQHandler                         0x080003cb   Thumb Code     0  startup_stm32h743xx.o(.text)
    EXTI9_5_IRQHandler                       0x080003cb   Thumb Code     0  startup_stm32h743xx.o(.text)
    FDCAN1_IT0_IRQHandler                    0x080003cb   Thumb Code     0  startup_stm32h743xx.o(.text)
    FDCAN1_IT1_IRQHandler                    0x080003cb   Thumb Code     0  startup_stm32h743xx.o(.text)
    FDCAN2_IT0_IRQHandler                    0x080003cb   Thumb Code     0  startup_stm32h743xx.o(.text)
    FDCAN2_IT1_IRQHandler                    0x080003cb   Thumb Code     0  startup_stm32h743xx.o(.text)
    FDCAN_CAL_IRQHandler                     0x080003cb   Thumb Code     0  startup_stm32h743xx.o(.text)
    FLASH_IRQHandler                         0x080003cb   Thumb Code     0  startup_stm32h743xx.o(.text)
    FMC_IRQHandler                           0x080003cb   Thumb Code     0  startup_stm32h743xx.o(.text)
    FPU_IRQHandler                           0x080003cb   Thumb Code     0  startup_stm32h743xx.o(.text)
    HRTIM1_FLT_IRQHandler                    0x080003cb   Thumb Code     0  startup_stm32h743xx.o(.text)
    HRTIM1_Master_IRQHandler                 0x080003cb   Thumb Code     0  startup_stm32h743xx.o(.text)
    HRTIM1_TIMA_IRQHandler                   0x080003cb   Thumb Code     0  startup_stm32h743xx.o(.text)
    HRTIM1_TIMB_IRQHandler                   0x080003cb   Thumb Code     0  startup_stm32h743xx.o(.text)
    HRTIM1_TIMC_IRQHandler                   0x080003cb   Thumb Code     0  startup_stm32h743xx.o(.text)
    HRTIM1_TIMD_IRQHandler                   0x080003cb   Thumb Code     0  startup_stm32h743xx.o(.text)
    HRTIM1_TIME_IRQHandler                   0x080003cb   Thumb Code     0  startup_stm32h743xx.o(.text)
    HSEM1_IRQHandler                         0x080003cb   Thumb Code     0  startup_stm32h743xx.o(.text)
    I2C1_ER_IRQHandler                       0x080003cb   Thumb Code     0  startup_stm32h743xx.o(.text)
    I2C1_EV_IRQHandler                       0x080003cb   Thumb Code     0  startup_stm32h743xx.o(.text)
    I2C2_ER_IRQHandler                       0x080003cb   Thumb Code     0  startup_stm32h743xx.o(.text)
    I2C2_EV_IRQHandler                       0x080003cb   Thumb Code     0  startup_stm32h743xx.o(.text)
    I2C3_ER_IRQHandler                       0x080003cb   Thumb Code     0  startup_stm32h743xx.o(.text)
    I2C3_EV_IRQHandler                       0x080003cb   Thumb Code     0  startup_stm32h743xx.o(.text)
    I2C4_ER_IRQHandler                       0x080003cb   Thumb Code     0  startup_stm32h743xx.o(.text)
    I2C4_EV_IRQHandler                       0x080003cb   Thumb Code     0  startup_stm32h743xx.o(.text)
    JPEG_IRQHandler                          0x080003cb   Thumb Code     0  startup_stm32h743xx.o(.text)
    LPTIM1_IRQHandler                        0x080003cb   Thumb Code     0  startup_stm32h743xx.o(.text)
    LPTIM2_IRQHandler                        0x080003cb   Thumb Code     0  startup_stm32h743xx.o(.text)
    LPTIM3_IRQHandler                        0x080003cb   Thumb Code     0  startup_stm32h743xx.o(.text)
    LPTIM4_IRQHandler                        0x080003cb   Thumb Code     0  startup_stm32h743xx.o(.text)
    LPTIM5_IRQHandler                        0x080003cb   Thumb Code     0  startup_stm32h743xx.o(.text)
    LPUART1_IRQHandler                       0x080003cb   Thumb Code     0  startup_stm32h743xx.o(.text)
    LTDC_ER_IRQHandler                       0x080003cb   Thumb Code     0  startup_stm32h743xx.o(.text)
    LTDC_IRQHandler                          0x080003cb   Thumb Code     0  startup_stm32h743xx.o(.text)
    MDIOS_IRQHandler                         0x080003cb   Thumb Code     0  startup_stm32h743xx.o(.text)
    MDIOS_WKUP_IRQHandler                    0x080003cb   Thumb Code     0  startup_stm32h743xx.o(.text)
    MDMA_IRQHandler                          0x080003cb   Thumb Code     0  startup_stm32h743xx.o(.text)
    OTG_FS_EP1_IN_IRQHandler                 0x080003cb   Thumb Code     0  startup_stm32h743xx.o(.text)
    OTG_FS_EP1_OUT_IRQHandler                0x080003cb   Thumb Code     0  startup_stm32h743xx.o(.text)
    OTG_FS_IRQHandler                        0x080003cb   Thumb Code     0  startup_stm32h743xx.o(.text)
    OTG_FS_WKUP_IRQHandler                   0x080003cb   Thumb Code     0  startup_stm32h743xx.o(.text)
    OTG_HS_EP1_IN_IRQHandler                 0x080003cb   Thumb Code     0  startup_stm32h743xx.o(.text)
    OTG_HS_EP1_OUT_IRQHandler                0x080003cb   Thumb Code     0  startup_stm32h743xx.o(.text)
    OTG_HS_IRQHandler                        0x080003cb   Thumb Code     0  startup_stm32h743xx.o(.text)
    OTG_HS_WKUP_IRQHandler                   0x080003cb   Thumb Code     0  startup_stm32h743xx.o(.text)
    PVD_AVD_IRQHandler                       0x080003cb   Thumb Code     0  startup_stm32h743xx.o(.text)
    QUADSPI_IRQHandler                       0x080003cb   Thumb Code     0  startup_stm32h743xx.o(.text)
    RCC_IRQHandler                           0x080003cb   Thumb Code     0  startup_stm32h743xx.o(.text)
    RNG_IRQHandler                           0x080003cb   Thumb Code     0  startup_stm32h743xx.o(.text)
    RTC_Alarm_IRQHandler                     0x080003cb   Thumb Code     0  startup_stm32h743xx.o(.text)
    RTC_WKUP_IRQHandler                      0x080003cb   Thumb Code     0  startup_stm32h743xx.o(.text)
    SAI1_IRQHandler                          0x080003cb   Thumb Code     0  startup_stm32h743xx.o(.text)
    SAI2_IRQHandler                          0x080003cb   Thumb Code     0  startup_stm32h743xx.o(.text)
    SAI3_IRQHandler                          0x080003cb   Thumb Code     0  startup_stm32h743xx.o(.text)
    SAI4_IRQHandler                          0x080003cb   Thumb Code     0  startup_stm32h743xx.o(.text)
    SDMMC1_IRQHandler                        0x080003cb   Thumb Code     0  startup_stm32h743xx.o(.text)
    SDMMC2_IRQHandler                        0x080003cb   Thumb Code     0  startup_stm32h743xx.o(.text)
    SPDIF_RX_IRQHandler                      0x080003cb   Thumb Code     0  startup_stm32h743xx.o(.text)
    SPI1_IRQHandler                          0x080003cb   Thumb Code     0  startup_stm32h743xx.o(.text)
    SPI2_IRQHandler                          0x080003cb   Thumb Code     0  startup_stm32h743xx.o(.text)
    SPI3_IRQHandler                          0x080003cb   Thumb Code     0  startup_stm32h743xx.o(.text)
    SPI4_IRQHandler                          0x080003cb   Thumb Code     0  startup_stm32h743xx.o(.text)
    SPI5_IRQHandler                          0x080003cb   Thumb Code     0  startup_stm32h743xx.o(.text)
    SPI6_IRQHandler                          0x080003cb   Thumb Code     0  startup_stm32h743xx.o(.text)
    SWPMI1_IRQHandler                        0x080003cb   Thumb Code     0  startup_stm32h743xx.o(.text)
    TAMP_STAMP_IRQHandler                    0x080003cb   Thumb Code     0  startup_stm32h743xx.o(.text)
    TIM15_IRQHandler                         0x080003cb   Thumb Code     0  startup_stm32h743xx.o(.text)
    TIM16_IRQHandler                         0x080003cb   Thumb Code     0  startup_stm32h743xx.o(.text)
    TIM17_IRQHandler                         0x080003cb   Thumb Code     0  startup_stm32h743xx.o(.text)
    TIM1_BRK_IRQHandler                      0x080003cb   Thumb Code     0  startup_stm32h743xx.o(.text)
    TIM1_CC_IRQHandler                       0x080003cb   Thumb Code     0  startup_stm32h743xx.o(.text)
    TIM1_TRG_COM_IRQHandler                  0x080003cb   Thumb Code     0  startup_stm32h743xx.o(.text)
    TIM1_UP_IRQHandler                       0x080003cb   Thumb Code     0  startup_stm32h743xx.o(.text)
    TIM2_IRQHandler                          0x080003cb   Thumb Code     0  startup_stm32h743xx.o(.text)
    TIM3_IRQHandler                          0x080003cb   Thumb Code     0  startup_stm32h743xx.o(.text)
    TIM4_IRQHandler                          0x080003cb   Thumb Code     0  startup_stm32h743xx.o(.text)
    TIM5_IRQHandler                          0x080003cb   Thumb Code     0  startup_stm32h743xx.o(.text)
    TIM7_IRQHandler                          0x080003cb   Thumb Code     0  startup_stm32h743xx.o(.text)
    TIM8_BRK_TIM12_IRQHandler                0x080003cb   Thumb Code     0  startup_stm32h743xx.o(.text)
    TIM8_CC_IRQHandler                       0x080003cb   Thumb Code     0  startup_stm32h743xx.o(.text)
    TIM8_TRG_COM_TIM14_IRQHandler            0x080003cb   Thumb Code     0  startup_stm32h743xx.o(.text)
    TIM8_UP_TIM13_IRQHandler                 0x080003cb   Thumb Code     0  startup_stm32h743xx.o(.text)
    UART4_IRQHandler                         0x080003cb   Thumb Code     0  startup_stm32h743xx.o(.text)
    UART5_IRQHandler                         0x080003cb   Thumb Code     0  startup_stm32h743xx.o(.text)
    UART7_IRQHandler                         0x080003cb   Thumb Code     0  startup_stm32h743xx.o(.text)
    UART8_IRQHandler                         0x080003cb   Thumb Code     0  startup_stm32h743xx.o(.text)
    USART2_IRQHandler                        0x080003cb   Thumb Code     0  startup_stm32h743xx.o(.text)
    USART3_IRQHandler                        0x080003cb   Thumb Code     0  startup_stm32h743xx.o(.text)
    USART6_IRQHandler                        0x080003cb   Thumb Code     0  startup_stm32h743xx.o(.text)
    WAKEUP_PIN_IRQHandler                    0x080003cb   Thumb Code     0  startup_stm32h743xx.o(.text)
    WWDG_IRQHandler                          0x080003cb   Thumb Code     0  startup_stm32h743xx.o(.text)
    __user_initial_stackheap                 0x080003cd   Thumb Code     0  startup_stm32h743xx.o(.text)
    __use_no_semihosting                     0x080003f1   Thumb Code     2  use_no_semi_2.o(.text)
    malloc                                   0x080003f3   Thumb Code    94  h1_alloc.o(.text)
    free                                     0x08000451   Thumb Code    78  h1_free.o(.text)
    __aeabi_uldivmod                         0x0800049f   Thumb Code     0  lludivv7m.o(.text)
    _ll_udiv                                 0x0800049f   Thumb Code   238  lludivv7m.o(.text)
    __aeabi_ldivmod                          0x0800058d   Thumb Code     0  llsdiv.o(.text)
    _ll_sdiv                                 0x0800058d   Thumb Code    72  llsdiv.o(.text)
    __2printf                                0x080005d5   Thumb Code    20  noretval__2printf.o(.text)
    __2sprintf                               0x080005ed   Thumb Code    34  noretval__2sprintf.o(.text)
    _printf_int_dec                          0x08000615   Thumb Code   104  _printf_dec.o(.text)
    __printf                                 0x0800068d   Thumb Code   388  __printf_flags_ss_wp.o(.text)
    memcmp                                   0x08000815   Thumb Code    88  memcmp.o(.text)
    __aeabi_memcpy4                          0x0800086d   Thumb Code     0  rt_memcpy_w.o(.text)
    __aeabi_memcpy8                          0x0800086d   Thumb Code     0  rt_memcpy_w.o(.text)
    __rt_memcpy_w                            0x0800086d   Thumb Code   100  rt_memcpy_w.o(.text)
    _memcpy_lastbytes_aligned                0x080008b5   Thumb Code     0  rt_memcpy_w.o(.text)
    __aeabi_memclr4                          0x080008d1   Thumb Code     0  rt_memclr_w.o(.text)
    __aeabi_memclr8                          0x080008d1   Thumb Code     0  rt_memclr_w.o(.text)
    __rt_memclr_w                            0x080008d1   Thumb Code    78  rt_memclr_w.o(.text)
    _memset_w                                0x080008d5   Thumb Code     0  rt_memclr_w.o(.text)
    strcmp                                   0x08000921   Thumb Code   104  strcmpv7m_pel.o(.text)
    __use_two_region_memory                  0x08000989   Thumb Code     2  heapauxi.o(.text)
    __rt_heap_escrow                         0x0800098b   Thumb Code     2  heapauxi.o(.text)
    __rt_heap_expand                         0x0800098d   Thumb Code     2  heapauxi.o(.text)
    __semihosting$guard                      0x0800098f   Thumb Code     0  use_no_semi.o(.text)
    __use_no_semihosting_swi                 0x0800098f   Thumb Code     2  use_no_semi.o(.text)
    __rt_heap_descriptor                     0x08000991   Thumb Code     8  rt_heap_descriptor_intlibspace.o(.text)
    __use_no_heap                            0x08000999   Thumb Code     2  hguard.o(.text)
    __heap$guard                             0x0800099b   Thumb Code     2  hguard.o(.text)
    _terminate_user_alloc                    0x0800099d   Thumb Code     2  init_alloc.o(.text)
    _init_user_alloc                         0x0800099f   Thumb Code     2  init_alloc.o(.text)
    __Heap_Full                              0x080009a1   Thumb Code    34  init_alloc.o(.text)
    __Heap_Broken                            0x080009c3   Thumb Code     6  init_alloc.o(.text)
    _init_alloc                              0x080009c9   Thumb Code    94  init_alloc.o(.text)
    __Heap_Initialize                        0x08000a27   Thumb Code    10  h1_init.o(.text)
    __Heap_DescSize                          0x08000a31   Thumb Code     4  h1_init.o(.text)
    _ll_udiv10                               0x08000a35   Thumb Code   138  lludiv10.o(.text)
    __read_errno                             0x08000abf   Thumb Code    10  _rserrno.o(.text)
    __set_errno                              0x08000ac9   Thumb Code    12  _rserrno.o(.text)
    _printf_int_common                       0x08000ad5   Thumb Code   178  _printf_intcommon.o(.text)
    __lib_sel_fp_printf                      0x08000b87   Thumb Code     2  _printf_fp_dec.o(.text)
    _printf_fp_dec_real                      0x08000d39   Thumb Code   620  _printf_fp_dec.o(.text)
    _printf_char_common                      0x08000faf   Thumb Code    32  _printf_char_common.o(.text)
    _sputc                                   0x08000fd5   Thumb Code    10  _sputc.o(.text)
    _printf_char_file                        0x08000fe1   Thumb Code    32  _printf_char_file.o(.text)
    __user_libspace                          0x08001005   Thumb Code     8  libspace.o(.text)
    __user_perproc_libspace                  0x08001005   Thumb Code     0  libspace.o(.text)
    __user_perthread_libspace                0x08001005   Thumb Code     0  libspace.o(.text)
    __rt_locale                              0x0800100d   Thumb Code     8  rt_locale_intlibspace.o(.text)
    __aeabi_errno_addr                       0x08001015   Thumb Code     8  rt_errno_addr_intlibspace.o(.text)
    __errno$intlibspace                      0x08001015   Thumb Code     0  rt_errno_addr_intlibspace.o(.text)
    __rt_errno_addr$intlibspace              0x08001015   Thumb Code     0  rt_errno_addr_intlibspace.o(.text)
    __Heap_ProvideMemory                     0x0800101d   Thumb Code    52  h1_extend.o(.text)
    _printf_fp_infnan                        0x08001051   Thumb Code   112  _printf_fp_infnan.o(.text)
    _btod_etento                             0x080010d1   Thumb Code   224  bigflt0.o(.text)
    ferror                                   0x080011b5   Thumb Code     8  ferror.o(.text)
    __rt_SIGRTMEM                            0x080011bd   Thumb Code    14  defsig_rtmem_outer.o(.text)
    __user_setup_stackheap                   0x080011cb   Thumb Code    74  sys_stackheap_outer.o(.text)
    exit                                     0x08001215   Thumb Code    18  exit.o(.text)
    __sig_exit                               0x08001227   Thumb Code    10  defsig_exit.o(.text)
    __rt_SIGRTMEM_inner                      0x08001231   Thumb Code    22  defsig_rtmem_inner.o(.text)
    __default_signal_display                 0x08001281   Thumb Code    50  defsig_general.o(.text)
    _btod_d2e                                0x080012b3   Thumb Code    62  btod.o(CL$$btod_d2e)
    _d2e_denorm_low                          0x080012f1   Thumb Code    70  btod.o(CL$$btod_d2e_denorm_low)
    _d2e_norm_op1                            0x08001337   Thumb Code    96  btod.o(CL$$btod_d2e_norm_op1)
    __btod_div_common                        0x08001397   Thumb Code   696  btod.o(CL$$btod_div_common)
    _e2e                                     0x080016cf   Thumb Code   220  btod.o(CL$$btod_e2e)
    _btod_ediv                               0x080017ab   Thumb Code    42  btod.o(CL$$btod_ediv)
    _btod_emul                               0x080017d5   Thumb Code    42  btod.o(CL$$btod_emul)
    __btod_mult_common                       0x080017ff   Thumb Code   580  btod.o(CL$$btod_mult_common)
    BusFault_Handler                         0x08001a43   Thumb Code     2  stm32h7xx_it.o(i.BusFault_Handler)
    Cache_Enable                             0x08001c35   Thumb Code   140  sys.o(i.Cache_Enable)
    DebugMon_Handler                         0x08001cc9   Thumb Code     2  stm32h7xx_it.o(i.DebugMon_Handler)
    HAL_CRCEx_Polynomial_Set                 0x08001ccb   Thumb Code    78  stm32h7xx_hal_crc_ex.o(i.HAL_CRCEx_Polynomial_Set)
    HAL_CRC_Init                             0x08001d19   Thumb Code   114  stm32h7xx_hal_crc.o(i.HAL_CRC_Init)
    HAL_CRC_MspInit                          0x08001d91   Thumb Code    30  crc.o(i.HAL_CRC_MspInit)
    HAL_DMA_Abort                            0x08001db9   Thumb Code   836  stm32h7xx_hal_dma.o(i.HAL_DMA_Abort)
    HAL_DMA_Abort_IT                         0x08002119   Thumb Code   602  stm32h7xx_hal_dma.o(i.HAL_DMA_Abort_IT)
    HAL_EnableCompensationCell               0x0800239d   Thumb Code    12  stm32h7xx_hal.o(i.HAL_EnableCompensationCell)
    HAL_GPIO_Init                            0x080023ad   Thumb Code   506  stm32h7xx_hal_gpio.o(i.HAL_GPIO_Init)
    HAL_GetREVID                             0x080025d9   Thumb Code     8  stm32h7xx_hal.o(i.HAL_GetREVID)
    HAL_GetTick                              0x080025e5   Thumb Code     6  stm32h7xx_hal.o(i.HAL_GetTick)
    HAL_IncTick                              0x080025f1   Thumb Code    12  stm32h7xx_hal.o(i.HAL_IncTick)
    HAL_Init                                 0x08002601   Thumb Code    74  stm32h7xx_hal.o(i.HAL_Init)
    HAL_InitTick                             0x0800265d   Thumb Code    56  stm32h7xx_hal.o(i.HAL_InitTick)
    HAL_MspInit                              0x0800269d   Thumb Code    22  stm32h7xx_hal_msp.o(i.HAL_MspInit)
    HAL_NVIC_EnableIRQ                       0x080026b9   Thumb Code    26  stm32h7xx_hal_cortex.o(i.HAL_NVIC_EnableIRQ)
    HAL_NVIC_SetPriority                     0x080026d5   Thumb Code    60  stm32h7xx_hal_cortex.o(i.HAL_NVIC_SetPriority)
    HAL_NVIC_SetPriorityGrouping             0x08002715   Thumb Code    28  stm32h7xx_hal_cortex.o(i.HAL_NVIC_SetPriorityGrouping)
    HAL_RCCEx_GetD3PCLK1Freq                 0x08002739   Thumb Code    26  stm32h7xx_hal_rcc_ex.o(i.HAL_RCCEx_GetD3PCLK1Freq)
    HAL_RCCEx_GetPLL2ClockFreq               0x0800275d   Thumb Code   296  stm32h7xx_hal_rcc_ex.o(i.HAL_RCCEx_GetPLL2ClockFreq)
    HAL_RCCEx_GetPLL3ClockFreq               0x080028a1   Thumb Code   296  stm32h7xx_hal_rcc_ex.o(i.HAL_RCCEx_GetPLL3ClockFreq)
    HAL_RCC_ClockConfig                      0x080029e5   Thumb Code   580  stm32h7xx_hal_rcc.o(i.HAL_RCC_ClockConfig)
    HAL_RCC_GetHCLKFreq                      0x08002c41   Thumb Code    52  stm32h7xx_hal_rcc.o(i.HAL_RCC_GetHCLKFreq)
    HAL_RCC_GetPCLK1Freq                     0x08002c85   Thumb Code    26  stm32h7xx_hal_rcc.o(i.HAL_RCC_GetPCLK1Freq)
    HAL_RCC_GetPCLK2Freq                     0x08002ca9   Thumb Code    26  stm32h7xx_hal_rcc.o(i.HAL_RCC_GetPCLK2Freq)
    HAL_RCC_GetSysClockFreq                  0x08002ccd   Thumb Code   278  stm32h7xx_hal_rcc.o(i.HAL_RCC_GetSysClockFreq)
    HAL_RCC_OscConfig                        0x08002e05   Thumb Code  1322  stm32h7xx_hal_rcc.o(i.HAL_RCC_OscConfig)
    HAL_SYSTICK_Config                       0x08003335   Thumb Code    38  stm32h7xx_hal_cortex.o(i.HAL_SYSTICK_Config)
    HAL_TIMEx_Break2Callback                 0x0800335b   Thumb Code     2  stm32h7xx_hal_tim_ex.o(i.HAL_TIMEx_Break2Callback)
    HAL_TIMEx_BreakCallback                  0x0800335d   Thumb Code     2  stm32h7xx_hal_tim_ex.o(i.HAL_TIMEx_BreakCallback)
    HAL_TIMEx_CommutCallback                 0x0800335f   Thumb Code     2  stm32h7xx_hal_tim_ex.o(i.HAL_TIMEx_CommutCallback)
    HAL_TIM_Base_Init                        0x08003361   Thumb Code    98  stm32h7xx_hal_tim.o(i.HAL_TIM_Base_Init)
    HAL_TIM_Base_MspInit                     0x080033c5   Thumb Code    50  btim.o(i.HAL_TIM_Base_MspInit)
    HAL_TIM_Base_Start_IT                    0x08003401   Thumb Code   106  stm32h7xx_hal_tim.o(i.HAL_TIM_Base_Start_IT)
    HAL_TIM_IC_CaptureCallback               0x0800348d   Thumb Code     2  stm32h7xx_hal_tim.o(i.HAL_TIM_IC_CaptureCallback)
    HAL_TIM_IRQHandler                       0x0800348f   Thumb Code   386  stm32h7xx_hal_tim.o(i.HAL_TIM_IRQHandler)
    HAL_TIM_OC_DelayElapsedCallback          0x08003611   Thumb Code     2  stm32h7xx_hal_tim.o(i.HAL_TIM_OC_DelayElapsedCallback)
    HAL_TIM_PWM_PulseFinishedCallback        0x08003613   Thumb Code     2  stm32h7xx_hal_tim.o(i.HAL_TIM_PWM_PulseFinishedCallback)
    HAL_TIM_PeriodElapsedCallback            0x08003615   Thumb Code   116  btim.o(i.HAL_TIM_PeriodElapsedCallback)
    HAL_TIM_TriggerCallback                  0x080036a5   Thumb Code     2  stm32h7xx_hal_tim.o(i.HAL_TIM_TriggerCallback)
    HAL_UARTEx_RxEventCallback               0x080036a7   Thumb Code     2  stm32h7xx_hal_uart.o(i.HAL_UARTEx_RxEventCallback)
    HAL_UARTEx_RxFifoFullCallback            0x080036a9   Thumb Code     2  stm32h7xx_hal_uart_ex.o(i.HAL_UARTEx_RxFifoFullCallback)
    HAL_UARTEx_TxFifoEmptyCallback           0x080036ab   Thumb Code     2  stm32h7xx_hal_uart_ex.o(i.HAL_UARTEx_TxFifoEmptyCallback)
    HAL_UARTEx_WakeupCallback                0x080036ad   Thumb Code     2  stm32h7xx_hal_uart_ex.o(i.HAL_UARTEx_WakeupCallback)
    HAL_UART_ErrorCallback                   0x080036af   Thumb Code     2  stm32h7xx_hal_uart.o(i.HAL_UART_ErrorCallback)
    HAL_UART_IRQHandler                      0x080036b1   Thumb Code   838  stm32h7xx_hal_uart.o(i.HAL_UART_IRQHandler)
    HAL_UART_Init                            0x08003a11   Thumb Code   106  stm32h7xx_hal_uart.o(i.HAL_UART_Init)
    HAL_UART_MspInit                         0x08003a7d   Thumb Code   130  usart.o(i.HAL_UART_MspInit)
    HAL_UART_Receive_IT                      0x08003b0d   Thumb Code    80  stm32h7xx_hal_uart.o(i.HAL_UART_Receive_IT)
    HAL_UART_RxCpltCallback                  0x08003b61   Thumb Code    90  usart.o(i.HAL_UART_RxCpltCallback)
    HAL_UART_TxCpltCallback                  0x08003bc9   Thumb Code     2  stm32h7xx_hal_uart.o(i.HAL_UART_TxCpltCallback)
    HardFault_Handler                        0x08003bcb   Thumb Code     2  stm32h7xx_it.o(i.HardFault_Handler)
    MX_CRC_Init                              0x08003bcd   Thumb Code    42  crc.o(i.MX_CRC_Init)
    MX_GPIO_Init                             0x08003c09   Thumb Code    38  gpio.o(i.MX_GPIO_Init)
    MemManage_Handler                        0x08003c35   Thumb Code     2  stm32h7xx_it.o(i.MemManage_Handler)
    NMI_Handler                              0x08003c37   Thumb Code     2  stm32h7xx_it.o(i.NMI_Handler)
    PendSV_Handler                           0x08003c39   Thumb Code     2  stm32h7xx_it.o(i.PendSV_Handler)
    SVC_Handler                              0x08003c3b   Thumb Code     2  stm32h7xx_it.o(i.SVC_Handler)
    Stm32_Clock_Init                         0x08003c3d   Thumb Code   176  sys.o(i.Stm32_Clock_Init)
    StrToDouble                              0x08003cf9   Thumb Code   520  readfile.o(i.StrToDouble)
    SysTick_Handler                          0x08003f09   Thumb Code     4  stm32h7xx_it.o(i.SysTick_Handler)
    SystemInit                               0x08003f0d   Thumb Code   180  system_stm32h7xx.o(i.SystemInit)
    TIM6_DAC_IRQHandler                      0x08003fe9   Thumb Code     6  btim.o(i.TIM6_DAC_IRQHandler)
    TIM_Base_SetConfig                       0x08003ff5   Thumb Code   162  stm32h7xx_hal_tim.o(i.TIM_Base_SetConfig)
    UART_AdvFeatureConfig                    0x080040b9   Thumb Code   200  stm32h7xx_hal_uart.o(i.UART_AdvFeatureConfig)
    UART_CheckIdleState                      0x08004181   Thumb Code    96  stm32h7xx_hal_uart.o(i.UART_CheckIdleState)
    UART_SetConfig                           0x08004679   Thumb Code   876  stm32h7xx_hal_uart.o(i.UART_SetConfig)
    UART_Start_Receive_IT                    0x08004a25   Thumb Code   262  stm32h7xx_hal_uart.o(i.UART_Start_Receive_IT)
    UART_WaitOnFlagUntilTimeout              0x08004b3d   Thumb Code   202  stm32h7xx_hal_uart.o(i.UART_WaitOnFlagUntilTimeout)
    USART1_IRQHandler                        0x08004c09   Thumb Code     6  usart.o(i.USART1_IRQHandler)
    UsageFault_Handler                       0x08004c15   Thumb Code     2  stm32h7xx_it.o(i.UsageFault_Handler)
    __ARM_fpclassify                         0x08004c17   Thumb Code    48  fpclassify.o(i.__ARM_fpclassify)
    __ARM_fpclassifyf                        0x08004c47   Thumb Code    38  fpclassifyf.o(i.__ARM_fpclassifyf)
    __hardfp_expf                            0x08004d89   Thumb Code   426  expf.o(i.__hardfp_expf)
    __mathlib_expf                           0x08004d89   Thumb Code     0  expf.o(i.__hardfp_expf)
    __hardfp_pow                             0x08004f81   Thumb Code  2140  pow.o(i.__hardfp_pow)
    __kernel_poly                            0x08005879   Thumb Code   112  poly.o(i.__kernel_poly)
    __mathlib_dbl_divzero                    0x080058e9   Thumb Code    14  dunder.o(i.__mathlib_dbl_divzero)
    __mathlib_dbl_infnan2                    0x08005909   Thumb Code     6  dunder.o(i.__mathlib_dbl_infnan2)
    __mathlib_dbl_invalid                    0x08005911   Thumb Code    10  dunder.o(i.__mathlib_dbl_invalid)
    __mathlib_dbl_overflow                   0x08005929   Thumb Code    10  dunder.o(i.__mathlib_dbl_overflow)
    __mathlib_dbl_underflow                  0x08005941   Thumb Code    10  dunder.o(i.__mathlib_dbl_underflow)
    __mathlib_flt_infnan                     0x08005959   Thumb Code     6  funder.o(i.__mathlib_flt_infnan)
    __mathlib_flt_overflow                   0x08005961   Thumb Code    10  funder.o(i.__mathlib_flt_overflow)
    __mathlib_flt_underflow                  0x08005971   Thumb Code    10  funder.o(i.__mathlib_flt_underflow)
    _ai_platform_acquire_crc                 0x08005bbf   Thumb Code     4  ai_platform_interface.o(i._ai_platform_acquire_crc)
    _ai_platform_release_crc                 0x08005ca5   Thumb Code     2  ai_platform_interface.o(i._ai_platform_release_crc)
    _is_digit                                0x08005e29   Thumb Code    14  __printf_wp.o(i._is_digit)
    _sys_exit                                0x08006261   Thumb Code     2  usart.o(i._sys_exit)
    _ttywrch                                 0x08006263   Thumb Code     2  usart.o(i._ttywrch)
    acquire_and_process_sd_data              0x08006265   Thumb Code    54  ecg_run.o(i.acquire_and_process_sd_data)
    aiInit                                   0x080062a1   Thumb Code    86  ecg_run.o(i.aiInit)
    aiRun                                    0x0800633d   Thumb Code    44  ecg_run.o(i.aiRun)
    ai_array_get_byte_size                   0x08006391   Thumb Code    60  ai_datatypes_format.o(i.ai_array_get_byte_size)
    ai_array_get_data_byte_size              0x080063cd   Thumb Code    30  ai_datatypes_format.o(i.ai_array_get_data_byte_size)
    ai_array_to_buffer_fmt                   0x080063ed   Thumb Code   246  ai_datatypes_format.o(i.ai_array_to_buffer_fmt)
    ai_buffer_array_item_set_address         0x08006519   Thumb Code    36  ai_platform.o(i.ai_buffer_array_item_set_address)
    ai_buffer_array_sane                     0x0800653d   Thumb Code    18  ai_platform.o(i.ai_buffer_array_sane)
    ai_buffer_get_size                       0x08006551   Thumb Code    96  ai_platform.o(i.ai_buffer_get_size)
    ai_check_custom_types                    0x080065b9   Thumb Code    38  layers.o(i.ai_check_custom_types)
    ai_conv2d_kernel_simple_opt_f32          0x080065e5   Thumb Code   366  forward_lite_conv2d_if32of32wf32.o(i.ai_conv2d_kernel_simple_opt_f32)
    ai_dict_decompress_f32                   0x08006753   Thumb Code   122  layers_conv2d_generic_float.o(i.ai_dict_decompress_f32)
    ai_ecg_create                            0x080067cd   Thumb Code    20  ecg.o(i.ai_ecg_create)
    ai_ecg_create_and_init                   0x080067e5   Thumb Code   132  ecg.o(i.ai_ecg_create_and_init)
    ai_ecg_data_params_get                   0x08006869   Thumb Code    36  ecg_data.o(i.ai_ecg_data_params_get)
    ai_ecg_get_error                         0x08006891   Thumb Code     4  ecg.o(i.ai_ecg_get_error)
    ai_ecg_get_report                        0x08006895   Thumb Code    82  ecg.o(i.ai_ecg_get_report)
    ai_ecg_init                              0x080068ed   Thumb Code    48  ecg.o(i.ai_ecg_init)
    ai_ecg_inputs_get                        0x0800691d   Thumb Code    12  ecg.o(i.ai_ecg_inputs_get)
    ai_ecg_outputs_get                       0x08006931   Thumb Code    12  ecg.o(i.ai_ecg_outputs_get)
    ai_ecg_run                               0x08006945   Thumb Code     4  ecg.o(i.ai_ecg_run)
    ai_layers_forward_all                    0x08006949   Thumb Code    80  layers.o(i.ai_layers_forward_all)
    ai_layers_init_all                       0x08006999   Thumb Code    30  layers.o(i.ai_layers_init_all)
    ai_layers_post_init_all                  0x080069b7   Thumb Code    54  layers.o(i.ai_layers_post_init_all)
    ai_platform_api_get_network_report       0x080069ed   Thumb Code   372  ai_platform_interface.o(i.ai_platform_api_get_network_report)
    ai_platform_api_get_version              0x08006b79   Thumb Code    14  ai_platform_interface.o(i.ai_platform_api_get_version)
    ai_platform_bind_network_params          0x08006b8d   Thumb Code    38  ai_platform_interface.o(i.ai_platform_bind_network_params)
    ai_platform_context_acquire              0x08006bb9   Thumb Code    24  ai_platform_interface.o(i.ai_platform_context_acquire)
    ai_platform_get_activations_map          0x08006bd5   Thumb Code    38  ai_platform_interface.o(i.ai_platform_get_activations_map)
    ai_platform_get_weights_map              0x08006c01   Thumb Code    36  ai_platform_interface.o(i.ai_platform_get_weights_map)
    ai_platform_inputs_get                   0x08006c29   Thumb Code    66  ai_platform_interface.o(i.ai_platform_inputs_get)
