:020000040800F2
:1000000050AD0324B1030008373C0008CB3B000887
:10001000353C0008431A0008154C00080000000099
:100020000000000000000000000000003B3C000851
:10003000C91C000800000000393C0008093F000806
:10004000CB030008CB030008CB030008CB03000858
:10005000CB030008CB030008CB030008CB03000848
:10006000CB030008CB030008CB030008CB03000838
:10007000CB030008CB030008CB030008CB03000828
:10008000CB030008CB030008CB030008CB03000818
:10009000CB030008CB030008CB030008CB03000808
:1000A000CB030008CB030008CB030008CB030008F8
:1000B000CB030008CB030008CB030008CB030008E8
:1000C000CB030008CB030008CB030008CB030008D8
:1000D000CB030008094C0008CB030008CB03000841
:1000E000CB030008CB03000800000000CB0300088E
:1000F000CB030008CB030008CB030008CB030008A8
:10010000CB030008CB030008CB030008CB03000897
:10011000CB030008CB030008E93F0008CB0300082D
:10012000CB030008CB030008CB030008CB03000877
:10013000CB030008CB030008CB030008CB03000867
:1001400000000000000000000000000000000000AF
:10015000CB030008CB030008CB030008CB03000847
:10016000CB030008CB030008CB030008CB03000837
:10017000CB030008CB030008CB03000800000000FD
:10018000CB030008CB030008CB030008CB03000817
:10019000CB030008CB030008CB030008CB03000807
:1001A000CB030008CB030008CB030008CB030008F7
:1001B000CB030008CB030008CB030008CB030008E7
:1001C000CB030008CB030008CB030008CB030008D7
:1001D000CB030008CB030008CB030008CB030008C7
:1001E000CB030008CB030008CB030008CB030008B7
:1001F000CB030008CB030008CB030008CB030008A7
:10020000CB030008CB030008CB030008CB03000896
:10021000CB030008CB030008CB030008CB03000886
:10022000CB030008CB030008CB030008000000004C
:10023000CB030008CB03000800000000CB0300083C
:10024000CB030008CB030008CB030008CB03000856
:10025000CB030008CB030008CB030008CB03000846
:10026000CB030008CB030008CB030008CB03000836
:10027000CB030008CB030008CB03000800000000FC
:10028000CB030008CB030008CB03000800000000EC
:1002900000000000CB03000800F002F800F070F846
:1002A0000AA090E8000C82448344AAF10107DA45D1
:1002B00001D100F065F8AFF2090EBAE80F0013F0B3
:1002C000010F18BFFB1A43F001031847A053130096
:1002D000C05313000A444FF0000C10F8013B13F018
:1002E000070408BF10F8014B1D1108BF10F8015B8F
:1002F000641E05D010F8016B641E01F8016BF9D182
:1003000013F0080F1EBF10F8014BAD1C0C1B09D1D8
:100310006D1E58BF01F801CBFAD505E014F8016B4A
:1003200001F8016B6D1EF9D59142D6D370470000DC
:100330000023002400250026103A28BF78C1FBD8EE
:10034000520728BF30C148BF0B60704766290BF0C9
:100350008882642900F05E81002070471FB50BF091
:100360007BFA9DE8030000F02FFB00F04FFE040035
:10037000002000210BF052FAE0601FBD10B510BD47
:1003800000F023FF1146FFF7E9FF09F0C5FC00F07C
:1003900041FF03B4FFF7F2FF03BC05F061FF00006B
:1003A00030BF72B6704762B6704780F308887047F6
:1003B0000948804709480047FEE7FEE7FEE7FEE7F9
:1003C000FEE7FEE7FEE7FEE7FEE7FEE70448054935
:1003D000054A064B704700000D3F000899020008CF
:1003E000509D032450AD032450A5032450A503249D
:1003F000704770B5064600F0CBFA056806F10B00B1
:1004000020F00704B4429CBF002070BD2B466A68F0
:10041000BAB11068A04210D304F1080188423CBF71
:100420005068586007D35168101941601168091B62
:10043000016058601460101D70BD13465268002A98
:10044000E7D12146284600F0ABFA0028DED170BD86
:1004500070B50446051F00F09BFA0068002C14BF1D
:10046000446870BD002C18BFAC423CBF2046646895
:10047000F8D301680A18AA4218BF456003D12A6858
:1004800005461144016028684119A1421CBF6C60F7
:1004900070BD6168696021680844286070BD53EAD6
:1004A000020C00F069802DE9F04B4FF00006002BA4
:1004B0001FBFB3FA83F503FA05F424FA05F65E408C
:1004C00012BF1643B2FA82F502FA05F4C5F120050F
:1004D0001EBF22FA05FC44EA0C04203556EA044CFF
:1004E0004FEA144418BF641C4FF000084FF0000995
:1004F000904271EB030C39D3002919BFB1FA81F78F
:1005000001FA07F6B0FA80F700FA07F6C7F12007FC
:100510001EBF20FA07FC46EA0C062037B6FBF4FCA7
:10052000A7EB0507103F07F01F0BCBF120060CFAD5
:100530000BFB2CFA06F644BFB3460026202FA4BFBF
:100540005E464FF0000B5BEA060C08BF4FF0010B54
:1005500019EB0B09ABFB027C48EB0608C01B06FB42
:1005600002CC0BFB03CC71EB0C01C1E70B4602463E
:1005700041464846BDE8F08B13B54FF000004FF000
:100580000001AFF30080BDE81C40704710B54C106F
:1005900084EA530404D54042C1F1000138BF491E2A
:1005A0001B4204D55242C3F1000338BF5B1EFFF764
:1005B00076FF14F0804F04D04042C1F1000138BFF3
:1005C000491E14F0004F04D05242C3F1000338BF5B
:1005D0005B1E10BD0FB4044910B503AA029800F0C9
:1005E000FFFC10BC5DF814FB380E00240FB41CB5E2
:1005F000074B06AA7B4469460090059800F0D7FC9B
:100600000020694600F0E6FC1CBC5DF814FB00000D
:10061000DD0900002DE9F041064600241068752927
:10062000314616A510D0AFF30080002802DA404210
:1006300013A507E031688A0701D512A502E0490732
:1006400004D511A5012401E0AFF3008000210A22A6
:1006500006F1240709E0B0FBF2FCB0FBF2F302FB69
:100660001C00303078541846491C0028F3D123462A
:100670002A463046BDE8F04100F02CBA00000000E8
:100680002D0000002B000000200000002DE9F05F8D
:10069000894604464FF0000ADFF874B1FB44C0F805
:1006A00020A02046E1688847002874D0252806D07D
:1006B000D4E901219047206A401C2062F1E700261E
:1006C0005F462046E16888472028054607DB312D34
:1006D00005D2781910F8200C08B10643F1E7B007ED
:1006E00001D526F00406C4F81CA00027C4F818A001
:1006F0002A2D09D0284605F097FB38B304EB87086C
:10070000303DC8F8185019E059F8041B204604EB96
:1007100087029161E1688847012F054618D1E06999
:10072000002820DA26F020061DE0D8F8180000EB9B
:10073000800005EB40003038C8F818002046E1681A
:100740008847054605F070FB0028EED1012F0AD03E
:100750002E2D08D12046E16888477F1C0546022FD0
:1007600046F02006C4DBA069002803DA404246F0C8
:100770000106A061F00701D026F010066C2D0BD009
:10078000682D09D04C2D39D06A2D35D0742D35D037
:100790007A2D33D016E038E0E1682F4620468847AE
:1007A000B842054609D16C2F26D04FF48060E1682D
:1007B000064320468847054604E06C2F1AD04FF4C4
:1007C000807006430DB3A5F14100192802D82035E9
:1007D00046F400664A462946204626604E46FFF704
:1007E000B5FD80B101280BD0F61D26F0070000F101
:1007F000080956E74020E4E78020D8E70020D6E744
:1008000006F104094DE7284652E7206ABDE8F09F4B
:10081000044E130040EA010310B59B070FD1042AD0
:100820000DD310C808C9121F9C42F8D020BA19BABB
:10083000884201D9012010BD4FF0FF3010BD1AB120
:10084000D30703D0521C07E0002010BD10F8013B75
:1008500011F8014B1B1B07D110F8013B11F8014B9C
:100860001B1B01D1921EF1D1184610BD10B5203AC4
:10087000C0F00B80B1E81850203AA0E81850B1E859
:100880001850A0E81850BFF4F5AF5FEA027C24BF0F
:10089000B1E81850A0E8185044BF18C918C0BDE806
:1008A00010405FEA827C24BF51F8043B40F8043BCF
:1008B00008BF7047D20728BF31F8023B48BF11F884
:1008C000012B28BF20F8023B48BF00F8012B7047DE
:1008D0004FF0000200B5134694469646203922BFD9
:1008E000A0E80C50A0E80C50B1F12001BFF4F7AF24
:1008F000090728BFA0E80C5048BF0CC05DF804EB06
:10090000890028BF40F8042B08BF704748BF20F873
:10091000022B11F0804F18BF00F8012B7047000028
:100920004FF0013C50F8042B51F8043B9A4215D18A
:10093000A2EB0C03934313EACC130BD150F8042B16
:1009400051F8043B9A4209D1A2EB0C03934313EAFA
:10095000CC13E7D04FF00000704700BFD01A01BAA7
:10096000B1FA81F101F0180122FA01F0CB40C1F196
:100970002001DBB2C0B2C01A2CFA01F3D11A9143A4
:1009800011EAC311E6D1704770477047704770474E
:1009900000487047F49C03247047704770477047C5
:1009A00038B504460A4600206946AFF300800028A7
:1009B00008BF38BD02460099204600F02FFB0120F9
:1009C00038BD012000F0FABBF8B5AFF30080054652
:1009D00000200C46102000BF0646A819A0420DD9E1
:1009E000324669460020AFF30080070008BF00F0E0
:1009F000E5FB0098A04218BF0546C419FFF7C8FFE1
:100A000005600746F01D20F007004619284600F053
:100A10000AF8B44208BFF8BDA21B31463868BDE8E9
:100A2000F84000F0FBBA00210160C0E901107047F6
:100A30001020704730B5B0F10A024FEA900E71F104
:100A400000034EEA817EB0EB0E0061EB91014FEAAC
:100A5000101E4EEA017E10EB0E0041EB11114FEA21
:100A6000102E4EEA016E10EB0E0041EB11214FEA01
:100A7000104E4EEA014E10EB0E0041EB11414018B2
:100A800041F100014FEAD00040EA41704FEAD10144
:100A900010EB80054FEA810444EA907444EB0104B2
:100AA0006D1944EB0404521BA3414FF0000348BFEF
:100AB0000A3200D530BD401C41F1000130BD10B5F7
:100AC00000F0A8FA006810BD10B5044600F0A2FAC4
:100AD000046010BD2DE9F0470D4699469246044644
:100AE00000F124080168880604D5E06921F01001AE
:100AF000216000E00120A84201DD471B00E0002743
:100B0000A1697A1902EB0900081AA0612078C006D1
:100B100002D42046AFF30080002608E0D4E901218A
:100B20001AF806009047206A401C761C20624E4549
:100B3000F4DB2078C0060AD52046AFF3008006E03B
:100B4000D4E9012130209047206A401C2062381EE1
:100B5000A7F10107F4DC07E0D4E9012118F805004A
:100B60009047206A401C2062281EA5F10105F3DC95
:100B70002046AFF300802078000602D50220BDE8B1
:100B8000F0870120FBE770472DE9FF4F0C461E461A
:100B90004FF0FF378BB0D2E90001DDF860800A909A
:100BA0008A46C1F30A5505B93D46002108464FF073
:100BB0000000BAF1000F00F4400005DA00EB8000FD
:100BC0004FF4400101EA50004FEA9059B9F1010F8A
:100BD00000DDB9460A9850EA4A000ED044F610509B
:100BE000A5F2FF3545432F14B8F1000F1ED0754212
:100BF000291E1EDDC9F100021CE0B8F1010F4FF003
:100C0000000001D0302103E0F24305E02154401CF4
:100C1000B042FBDB30460022002121540B99C1F881
:100C20000880C1E900200FB0BDE8F08FBD1B6D1C2E
:100C3000DEE74A4600DA694206A800F049FA06AB48
:100C400093E8070003AB83E8070050460A9900F0D9
:100C500030FB8DE80700A0F500501F380090039886
:100C6000002D0ADD42F21F014A460844002303A971
:100C70000390684600F099FD09E0A0F500504A464F
:100C80001F38002303A90390684600F0A3FD8DE8F8
:100C900007000004000C03D04FF0FF30410800E0D3
:100CA0001046B8F1000F03D00022009215461EE056
:100CB000751E05D4FFF7BEFE303262556D1EF9D5A4
:100CC000B3460122084302D000227F1C04E02078B2
:100CD000302801D100227F1E002A099784D01DE010
:100CE000112D07DAFFF7A6FE303262556D1C50EA6F
:100CF0000102F5D1084302D00098C8B10EE00021EE
:100D0000681E05E0235C625C63542254401E491C4B
:100D10008142F7DBAB46A81B401E0990002004F877
:100D20000B000B98099AC0F80880C0E9002B7AE7FD
:100D300011264FF0000857E72DE9F04F884604468A
:100D4000D21D22F0070191B0D1E90001CDE90A01DD
:100D500003F061FF02460B98C00F01D02D2007E081
:100D60002068810701D52B2002E0202101EAC00084
:100D7000032A099001D0072A05DB03464146204695
:100D800000F066F90BE12078800601D5E06900E00B
:100D90000620B8F1650F814606D0B8F1660F18D06D
:100DA000B8F1670F70D131E00020B9F1110F009058
:100DB00001DB112301E009F101030AAA01A90CA832
:100DC000FFF7E2FEDDE90C70002609F1010583461C
:100DD00047E001204B4600904FF000470AAA01A9C6
:100DE0000CA8FFF7D1FEDDE90DB00C995D46002699
:100DF00010B909F101000D18B9EB050003D4C0F1D9
:100E0000FF3609F10105A5EB09002BE0B9F1010F4F
:100E100001DA4FF001090020B9F1110F00904846A6
:100E200001DD112300E003460AAA01A90CA8FFF77F
:100E3000ABFEDDE90C704D460026834620780007A6
:100E40000AD4AB4500DA5D4601A8012D04DD411945
:100E500011F8011C302907D04F4502DA17F1040FB1
:100E600004DA012082460FE06D1EEEE7002F02DC5F
:100E7000ED1B3E4403E0781CA84200DD7D1CB81B3E
:100E800000F1010A4FF000472078000703D4AA457B
:100E900001DB4FF0FF3A0021B7F1004F0DF143089D
:100EA0008DF8431024D002202B23002F01DA7F423B
:100EB0002D230A21021EA0F1010000DC5FB197FB87
:100EC000F1FC97FBF1F201FB1C7C17460CF1300C96
:100ED00008F801CDEEE7A8F10100037021880905AB
:100EE00001D5452100E06521A0F1010800F8011CB1
:100EF00009980FA9A1EB0807FF1D00B101204119B6
:100F000001EBEA70A1693844081A401EA0612078FC
:100F1000C00602D42046AFF30080099828B1D4E976
:100F200001219047206A401C20622078C00622D50B
:100F30002046AFF300801EE0002E04DBB34502DD47
:100F400001A8805D00E03020D4E901219047206AAB
:100F5000401C2062761CAAF101005FEA000A0AD157
:100F600000F054F8C0680168405CD4E90121904762
:100F7000206A401C2062281EA5F10105DCDC07E088
:100F8000D4E9012118F8010B9047206A401C206227
:100F9000381EA7F10107F3DC2046AFF300800320E1
:100FA00011B041E601694A1C02610878704700B53A
:100FB0008FB0CDE901310021059105497944CDE992
:100FC000031011466846FFF761FB0FB000BD00003B
:100FD000E5FFFFFF0A6802F8010B0A607047000096
:100FE000074B70B50D467B44FFF7E1FF04462846EA
:100FF00000F0E0F810B14FF0FF3070BD204670BD3A
:101000002387000000487047EC9C03240048704789
:101010000C9D032400487047EC9C03240346406861
:101020008C46002818BF88423CBF03464068F8D36E
:1010300018681844884207D00CF1030020F007001C
:10104000001D411A521A0146081D0A60FFF700BA36
:101050002DE9F0411F46044603260168072A01F4E2
:10106000006004DB08B116A505E016A503E008B191
:1010700015A500E015A521F010002060A069C01E94
:10108000A0610FB1401EA0612046AFF300804FB1B8
:10109000D4E9012138469047206A401C2062C01CD8
:1010A000206206E0206AFAE7D4E9012115F8010B75
:1010B0009047761EF8D22046AFF30080BDE8F0815D
:1010C0004E414E006E616E00494E4600696E6600EC
:1010D0002DE9F047814616468AB0354878440DC858
:1010E0008DE80D0032487844801C03AC0DC884E8BC
:1010F0000D0041F69B300844372190FBF1F290FB44
:10110000F1F5A5F1800501FB12041B3C02D56442F8
:10111000012000E00020DFF898A080460027FA4474
:10112000AAF1BE0A0EE0E0070AD03246684607EB95
:10113000470101230AEB810100F04CFB8DE8070019
:1011400064107F1C002CEED1194F7F44AE3F19E094
:10115000E80715D007EB04100DF1180A90E80E000F
:101160008AE80E00C068F04201D198190890324612
:10117000012306A903A800F02DFB03AB83E80700B9
:101180006D10641C002DE3D14FF001033246694617
:10119000B8F1000F03A802D000F007FB01E000F057
:1011A00019FBC9E90001C9F808200AB0BDE8F087B9
:1011B00014451300007B00F08000704710B500F06C
:1011C00037F8BDE8104000F02EB87546FFF71AFF5B
:1011D000AE4605006946534620F00700854618B024
:1011E00020B5FFF7F3F8BDE820404FF000064FF0C0
:1011F00000074FF000084FF0000B21F00701AC464C
:10120000ACE8C009ACE8C009ACE8C009ACE8C0096A
:101210008D46704710B50446AFF300802046BDE808
:101220001040FFF7B6B8002801D005F019B8704794
:1012300010B5012805D0002103A000F021F80120FD
:1012400010BD09A1F8E7000053494752544D454DE0
:101250003A204F7574206F662068656170206D6557
:101260006D6F7279000000003A2048656170206D52
:10127000656D6F727920636F72727570746564004A
:1012800070B505460C460A2000E06D1C04F0E9FF2D
:1012900035B128780028F8D102E0641C04F0E1FFA1
:1012A00014B120780028F8D1BDE870400A2004F07D
:1012B000D8BF5FEA400C08BF91F0000F4FEA8C23C3
:1012C0004FEAC12243EA51514FEA1C5018BF00F5C2
:1012D000F0404FEA300018BF41F000415FEA6C5C1B
:1012E00000F02980BCF1FF3F08BF40F0804070470C
:1012F000130C06BF12044FF0100C4FF0000C130E2D
:1013000004BF12020CF1080C130F04BF12010CF100
:10131000040C930F04BF92000CF1020CD30F04BF16
:1013200052000CF1010C11464FF00002A0F11F0019
:10133000A0EB0C00704711F0004F08BF704731F070
:1013400000413FF4D5AF0B0C06BF09044FF0100C61
:101350004FF0000C0B0E04BF09020CF1080C0B0F30
:1013600004BF09010CF1040C8B0F04BF89000CF1C0
:10137000020CCB0F04BF49000CF1010CCCF120038F
:10138000A0EB0C0022FA03F302FA0CF241EA03018B
:1013900000F10100704720F07F4C80EA030023F049
:1013A0007F47ACEB070303F57C5300F0004003F1EB
:1013B000FF032DE980494FEA154B09B44FEA144366
:1013C00025EA0B4E24EA03480FF2042606EB132706
:1013D00049083E785FEA320203FB0667C7F500075B
:1013E00007FB06F64FEA54374FEAD64606F10206E7
:1013F00007FB066CCCF1005C4FEA1C472CEA074C5B
:1014000007FB06F40CFB06F504EB15464FEA9616AF
:1014100034BF00204FF000404FEAD13706FB07FCF5
:101420004FEA1C4C0CFB0BF7D21B03FB0CF761EBD8
:1014300007010CFB0EF7B0EB074072EB17420CFBF9
:1014400008F734BFA2EB0742B2EB074261EB17414A
:101450004FEA0C444FEA910706FB07FC4FEA1C4C8D
:101460000CFB0BF7B0EBC74072EB573203FB0CF7EA
:1014700034BFA2EBC742B2EBC74261EB57310CFB62
:101480000EF7B0EBC70072EB57720CFB08F734BFD6
:10149000A2EBC702B2EBC70261EB5771039F4FEAA1
:1014A000816141EA921104EBCC044FEAD1374FEA53
:1014B000826206FB07FC42EA90124FEA80604FEA24
:1014C0001C4C0CFB0BF7D21B03FB0CF761EB070169
:1014D0000CFB0EF7B0EB074072EB17420CFB08F762
:1014E00034BFA2EB0742B2EB074261EB17414FEA70
:1014F0008C554FEA910704EB9C2406FB07FC4FEA4E
:101500001C4C0CFB0BF7B0EBC74072EB573203FBE4
:101510000CF734BFA2EBC742B2EBC74261EB5731C5
:101520000CFB0EF7B0EBC70072EB57720CFB08F721
:1015300034BFA2EBC702B2EBC70261EB577115EBE8
:101540004C254FEA816141EA92114FEA82624FEAEB
:10155000D13742EA901206FB07FC44F100044FEA3F
:1015600080604FEA1C4C0CFB0BF7D21B03FB0CF703
:1015700061EB07010CFB0EF7B0EB074072EB174273
:101580000CFB08F734BFA2EB0742B2EB074261EB5A
:10159000174115EB1C154FEA813141EA92414FEAA0
:1015A000823242EA90424FEA80304FEA0C7644F1B0
:1015B000000448EA03434EEA0B484FF0000EB2EB3A
:1015C000080C71EB030724BF624639464EEB0E0E42
:1015D0004FF0000B0018524149414BEB0B0BB2EBA3
:1015E000080C71EB03077BF1000B24BF6246394600
:1015F0004EEB0E0E4FF0000B0018524149414BEBE1
:101600000B0BB2EB080C71EB03077BF1000B24BF53
:10161000624639464EEB0E0E51EA020718BF46F0FD
:10162000010616EB0E7655F1000254F1000103D5C8
:10163000BDE88901BDE80088BDE88901BDE8004832
:10164000B619524141EB0101A3F1010370478080BB
:101650007F7E7D7C7B7A797877767675747372710C
:1016600071706F6E6E6D6C6C6B6A6A6968686766C4
:1016700066656464636362616160605F5F5E5E5D56
:101680005D5C5C5B5B5A5A595958585757565655CA
:1016900055555454535352525251515050504F4F2C
:1016A0004F4E4E4D4D4D4C4C4C4B4B4B4A4A4A497C
:1016B00049494848484747474746464645454544BF
:1016C0004444444343434342424242414141002B4C
:1016D0009C4630D477002BD01CB54FEA370703B4B3
:1016E0004FF010004FF01001BAF1000F06D0BCF11E
:1016F000000FDCBF40F0080040F008014FF0000090
:101700000FBCBDE810400BF1010BBBF1010F08BF8E
:101710005FEA170722BF12F1010211F101014FF038
:10172000004143F1000300F0004043EA000070472D
:10173000F9D35708D0E746EA064613F1400F4FEABF
:1017400016461FDD13F1200FDFBF16430A460021A6
:1017500020335B42BED0C3F1200746EA064602FAB8
:1017600007F74FEA164646EA0706C3F1200722FAB2
:1017700003F201FA07F721FA03F14FF0000342EAFE
:101780000702A7E746EA020646EA06464FEA164679
:1017900046EA0106BCBF46EA0646360C4FF0000397
:1017A0004FF000024FF0000194E72DE9804C9A467B
:1017B000934670B491E8380007C831EA400C48BF3E
:1017C00034EA430C03D5FFF7E6FDFFF780FFF0BCDA
:1017D000BDE8008C2DE9804C9A46934670B491E8A0
:1017E000380007C810F0804F08BF13F0804F03D1B6
:1017F00000F005F8FFF76BFFF0BCBDE8008C20F0AF
:101800007F4780EA030023F07F4C07EB0C03A3F52E
:101810007C5300F00040A3F1FE0392F0000F00F0B3
:10182000B38095F0000F00F077802DE901494FEA71
:1018300011404FEA144621EA004800FB06FC24EA66
:10184000064708FB06F607FB08F800FB07F718EB4E
:1018500006484CEB164C4FEA124B18EB07484FEA80
:1018600015464CEB174022EA0B4E0BFB06FC25EA13
:1018700006470EFB06F607FB0EFE0BFB07F71EEBFB
:10188000064E4CEB164C4FF000061EEB074E4CEB91
:10189000174B18EB0B0840F1000018EB0E0B58EB40
:1018A000000840F100008F1A4FF000013CBFC9430F
:1018B000661B14BFB5EB040C00213CBFC943F61BEB
:1018C0004FEA17444EEA8E0E27EA04454FEA1C47BA
:1018D00004FB07622CEA074C05FB07F70CFB05F637
:1018E00004FB0CFC16EB074642EB174216EB0C46CA
:1018F00042EB1C421BEB060658EB0202414146EA52
:101900009E0601D5BDE80189B619524141EB01019E
:10191000A3F10103BDE801894FEA14454FEA1147DD
:1019200024EA054621EA074C05FB07F406FB07F706
:101930000CFB06F105FB0CFC11EB074144EB1744D3
:101940004FEA124711EB0C4144EB1C4422EA074CCE
:1019500005FB07F206FB07F70CFB06F605FB0CFC84
:1019600016EB074642EB174216EB0C4642EB1C45C2
:101970006A1854F1000148BF7047B619524141EB53
:101980000101A3F10103704795F0000F37D04FEA32
:1019900011424FEA144721EA024624EA074C02FBAF
:1019A00007F106FB07F70CFB06F402FB0CFC14EB3B
:1019B000074441EB17414FEA154714EB0C4441EB48
:1019C0001C4125EA074C02FB07F506FB07F70CFB59
:1019D00006F602FB0CFC16EB074645EB174516EB2B
:1019E0000C4645EB1C42121951F1000148BF7047EB
:1019F000B619524141EB0101A3F1010370474FEACF
:101A000014454FEA114724EA054621EA074C05FB35
:101A100007F106FB07F70CFB06F24FF0000605FB8B
:101A20000CFC12EB074241EB174112EB0C4251EB5D
:101A30001C4148BF7047921841EB0101A3F101031B
:101A40007047FEE72DE9F041002404F0B8F80500E6
:101A500013D03648006840F25146721C0021C0F392
:101A60000A000123A0F58067493F04D0B04207D1A6
:101A700041F0010108E0194606E02046BDE8F0818A
:101A8000904201D1012000E00020014328494FF09D
:101A9000180008D088608868182843D18B6088684F
:101AA0000028FCD13DE0234E4FF00A47224AD6F8E9
:101AB00000C0B7EB4C5F08D110601068182831D116
:101AC000136010680028FCD12BE0D6F800C0CCF3DE
:101AD0000A0CACF58067833F0AD037684FF010429C
:101AE000B2EB475F12D188608868182809D019E0E6
:101AF00010601068182815D1136010680028FCD1F8
:101B00000FE08B6088680028FCD10AE0326852053B
:101B100008D188608868182804D18B6088680028FC
:101B2000FCD10124284604F0BDF8A6E7002004E01B
:101B3000003002400010005C084C02582DE9F041D2
:101B400004F03DF835490B6840F251456C1C00210A
:101B5000C3F30A030122A3F58066493E04D0AB42D9
:101B600004D141F0010105E0114603E0A34201D197
:101B7000012300E000232A4D2A4E19432A4908D0A8
:101B80008A608A68002AFCD10D600968B14241D0A0
:101B9000FEE7264C4FF00A4C254BD4F800E0244FCA
:101BA0000837BCEB4E5F08D13A6039680029FCD198
:101BB0001D601968B1422DD0FEE7D4F800E0CEF3E5
:101BC0000A0EAEF5806CBCF1830C0ED027684FF086
:101BD0001043B3EB475F11D18A608A68002AFCD1B9
:101BE0000D600968B14215D0FEE73A6039680029F6
:101BF000FCD11D601968B1420CD0FEE723685B057B
:101C000008D18A608A68002AFCD10D600968B14257
:101C100000D0FEE704F046F8BDE8F081002004E0C3
:101C2000C2A507F4CDB5E8B5003002400010005C55
:101C3000004C0258224A0020F0B51168890311D4E3
:101C4000BFF34F8FBFF36F8F1E490860BFF34F8FF5
:101C5000BFF36F8F116841F400311160BFF34F8FF4
:101C6000BFF36F8F1168C90323D415497031086021
:101C7000BFF34F8F081F43F6FF740068114D1035F6
:101C8000C0F34E31C0F3C90304EA4116184600BF41
:101C900046EA80772F60401EFAD2491EF4D2BFF385
:101CA0004F8F106840F480301060BFF34F8FBFF348
:101CB0006F8F04484C30016841F004010160F0BDB1
:101CC00014ED00E050EF00E07047F0B50126044647
:101CD00000201E2301E05B1E05D303F01F0706FA58
:101CE00007F50D42F7D072B1082A0AD0102A05D0A4
:101CF000182A01D1072B06D30120F0BD082BFBD2F7
:101D000001E0102BF8D22368596121688B6823F019
:101D1000180313438B60F0BD10B5040010D0607F32
:101D200020B900202077204600F032F821790220E7
:101D3000607739B1D4E902122046FFF7C6FF48B1F7
:101D4000012010BD2168114848612068816821F098
:101D5000180181606079A0B12168206908610122C1
:101D600020686369816821F06001194381602068FF
:101D7000A369816821F080011943816062770020A6
:101D800010BD21684FF0FF30E8E70000B71DC10427
:101D900008B500680649884208D10648016841F440
:101DA00000210160006800F40020009008BD0000E0
:101DB000004C0258E04402582DE9F84F044600F068
:101DC00011FC00903CB194F83500022806D0802127
:101DD00061650020E4E00120BDE8F88FC74DC74EE3
:101DE000C649183520683036DFF81483DFF81493BD
:101DF0008842DFF814A3DFF814B32ED0A8422CD009
:101E0000B0422AD0404528D0484526D0504524D05D
:101E1000584522D0BD4A183290421ED0BC4A90424A
:101E20001BD0BB4A1832904217D0B94A3032904288
:101E300013D0B74A483290420FD0B54A6032904230
:101E40000BD0B34A7832904207D0B14A90329042D8
:101E500003D0AF4AA832904209D1026822F01E0294
:101E600002602068426922F08002426103E0026859
:101E700022F00E02026027688F4238464DD0A842F9
:101E80004BD0B04249D0404547D0484545D0504559
:101E900043D0584541D09D4A183290423DD09C4A8B
:101EA00090423AD09A4A1832904236D0984A30320C
:101EB000904232D0964A483290422ED0944A6032B4
:101EC00090422AD0924A7832904226D0904A90325C
:101ED000904222D08E4AA83290421ED08D4A904223
:101EE0001BD08C4A1432904217D08A4A2832904232
:101EF00013D0884A3C3290420FD0864A50329042EA
:101F00000BD0844A6432904207D0824A78329042A1
:101F100003D0804A8C32974204D1206E026822F4AA
:101F20008072026075492068884228D0A84226D075
:101F3000B04224D0404522D0484520D050451ED044
:101F400058451CD071491831884218D070498842D0
:101F500015D06F491831884211D06D49303188420F
:101F60000DD06B494831884209D0694960318842B7
:101F700005D067497831884201D0654990310168C0
:101F800021F0010101600EE000F02CFB0099401AE5
:101F9000052808D9202262650321002084F8351025
:101FA00084F8340017E73868C007EDD1534A01219F
:101FB000206890422ED0A8422CD0B0422AD0404572
:101FC00028D0484526D0504524D0584522D04F4BE4
:101FD000183398421ED04E4B98421BD04C4B1833AE
:101FE000984217D04A4B3033984213D0484B48336D
:101FF00098420FD0464B603398420BD0444B783315
:10200000984207D0424B9033984203D0404BA833BC
:10201000984208D194F85C703F23A06D07F01F0729
:10202000BB40836007E094F85C30A06D03F01F03B1
:1020300001FA03F34360206890424DD0A8424BD090
:10204000B04249D0404547D0484545D0504543D09F
:10205000584541D02D4A183290423DD02C4A9042EA
:102060003AD02B4A1832904236D0294A3032904228
:1020700032D0274A483290422ED0254A60329042D0
:102080002AD0234A7832904226D0214A9032904278
:1020900022D01F4AA83290421ED01E4A90421BD026
:1020A0001C4A1432904217D01A4A2832904213D058
:1020B000184A3C3290420FD0164A503290420BD010
:1020C000144A6432904207D0124A7832904203D0C8
:1020D000104A8C3290420BD1D4E919024260E06E72
:1020E00030B1026822F480720260D4E91C024260BE
:1020F000002084F8351084F834006DE610000240AA
:10210000580002407000024088000240A0000240D7
:1021100010040240085402582DE9F05F28B190F8ED
:102120003510022904D0802141650120BDE8F09FCF
:10213000904C904B0168183C18338E4ADFF83C9263
:10214000A1428D4CDFF838E28E4FDFF83CB2DFF869
:102150003CA28F4D8F4E31D091422FD099422DD03D
:10216000A1422BD0494529D0714527D0B94225D06D
:10217000DFF810C20CF1180C61451FD0DFF808C25F
:10218000ACF1600C614519D0DFF8FCC1ACF1480C32
:10219000614513D0DFF8F0C1ACF1300C61450DD0D2
:1021A000DFF8E4C1ACF1180C614507D0594505D002
:1021B000514503D0A94201D0B1422CD1DFF8B4C1BE
:1021C0004FF0040880F83580ACF1180C61451DD043
:1021D00091421BD0994219D0A14217D0494515D040
:1021E000714513D0B94211D06648183081420DD0E4
:1021F00065486038814209D063484838814205D03B
:1022000061483038814201D05F481838086820F0B2
:1022100001000860ABE0D1F800C02CF00E08DFF838
:1022200054C1C1F80080ACF1180C0168614527D099
:10223000914225D0994223D0A14221D049451FD0B7
:1022400071451DD0B9421BD0DFF838C10CF1180C14
:10225000614515D0DFF830C1ACF1600C61450FD09D
:10226000DFF824C1ACF1480C614509D0DFF818C192
:10227000ACF1300C614503D0DFF80CC1ACF1180CA7
:10228000D1F800C02CF0010CC1F800C0DFF8E480E8
:102290004FF0010C0168A8F11808414546D0914261
:1022A00044D0994242D0A14240D049453ED07145E8
:1022B0003CD0B9423AD0334A1832914236D0324AF1
:1022C000603A914232D0304A483A91422ED02E4A5A
:1022D000303A91422AD02C4A183A914226D0594598
:1022E00024D0514522D0A94220D0B1421ED02A4A42
:1022F00091421BD0284A1432914217D0264A2832E4
:10230000914213D0244A3C3291420FD0224A50329B
:1023100091420BD0204A6432914207D01E4A783253
:10232000914203D01C4A8C32914218D1016E0A6846
:1023300022F480720A6090F85C20816D02F01F0226
:102340000CFA02F24A60D0E919124A60C16E31B14A
:102350000A6822F480720A60D0E91C124A600022E6
:10236000016D80F835C080F8342001B18847002025
:10237000DCE60000280002405800024070000240E5
:1023800088000240A000024070040240880402401D
:10239000A0040240B80402400854025802480168F0
:1023A00041F0010101607047200400582DE9F84F09
:1023B00003247D4D00234FF001094FF0B04B4FF047
:1023C0000F0AE9E009FA03F73A4076D00E7906F0F1
:1023D0000306012E01D0022E18D1D0F808C04FEA12
:1023E000430ECE6804FA0EF82CEA080C06FA0EF634
:1023F00046EA0C068660D0F804C00E792CEA070C79
:10240000C6F300169E4046EA0C0646600E79F64377
:10241000B6070BD0C6684FEA43088F6804FA08FC79
:1024200026EA0C0607FA08F73743C7600E7906F06C
:102430000306022E12D1DE080F694FEA437C00EB3F
:102440008606B646366A4FEADC6C0AFA0CF807FADA
:102450000CF726EA08063743CEF820700F79066895
:102460004FEA430807F0030704FA08FC07FA08F7E5
:1024700026EA0C06374307604E6816F4403F1CD02E
:102480004A4E376847F00207376036689F0706F004
:102490000206009623F0030606F1B046B6463F0F4B
:1024A000D6F80864DFF808810AFA07FC404526EAF6
:1024B0000C0603D14FF0000C41E06CE0DFF8F4C0F3
:1024C000604502D14FF0010C39E0DFF8ECC0604507
:1024D00002D14FF0020C32E0DFF8E0C0604502D1DB
:1024E0004FF0030C2BE0DFF8D8C0604502D14FF06D
:1024F000040C24E0DFF8CCC0604502D14FF0050C9D
:102500001DE0DFF8C4C0604502D14FF0060C16E0B4
:10251000DFF8B8C0604502D14FF0070C0FE0DFF8DC
:10252000B0C0604502D14FF0080C08E0DFF8A4C04D
:10253000604502D14FF0090C01E04FF00A0C0CFA93
:1025400007FC4CEA060CCEF808C44F68DBF80060C4
:10255000FF0226EA020600D516435F46CBF800606C
:10256000D1F804C0DBF804605FEA8C2C26EA02068E
:1025700000D516437E606E684F6826EA0206BF03E8
:1025800000D516436E602E684F6826EA0206FF03E8
:1025900000D516432E605B1C0A6832FA03F67FF4FE
:1025A00011AFBDE8F88F000080000058F4440258D5
:1025B000000002580004025800080258000C02589B
:1025C000001002580014025800180258001C02584B
:1025D000002002580024025801480068000C70478F
:1025E0000010005C0148806870470000200E002445
:1025F000024881680278114481607047200E0024EF
:10260000032010B500F086F800F060FB0F4A104977
:1026100014681368C4F3032203F00F038A5CC95CD7
:1026200002F01F0201F01F01D0400A4A20FA01F116
:102630001160094908600F2000F010F808B101206E
:1026400010BD00F02BF8002010BD00001844025807
:10265000E8A71008300E00242C0E002470B50D4D94
:1026600004462878A0B14FF47A71B1FBF0F00A4922
:102670000968B1FBF0F000F05DFE48B9102C07D2FC
:1026800000222146501E00F025F800206C6070BD2D
:10269000012070BD200E00242C0E0024054808B532
:1026A000016841F002010160006800F00200009042
:1026B00008BD0000F4440258002809DB410900F07D
:1026C0001F028900012001F1E0219040C1F80001C2
:1026D000704700000E4BF0B41B680D46C3F3022395
:1026E000C3F10706042E00D90426191D072901D2BB
:1026F000002300E0DB1E012404FA06F19C40491E81
:102700002940641E994014402143F0BC02F0AEBA47
:102710000CED00E0064900F0070210B54FF6FF048B
:102720000868044B204040EA02201843086010BDAE
:102730000CED00E00000FA0510B500F081FA054943
:102740000968054AC1F30211515C01F01F01C8403C
:1027500010BD000020440258E8A71008494930B5D0
:10276000484C0B1D0A68143409681D68246802F07F
:102770000303C5F30012C1F30531C4F3CC040029EF
:1027800014FB02F200EE102AF8EE400A75D03F4A20
:102790009FED3D1AB7EE000A6BB1DFED3D1A012B3C
:1027A00001D0022B64D002EE101A1168F8EE422A12
:1027B00081EEA22A21E0334C283C23689B0612D5E7
:1027C000344B246801EE901A1168C4F3C104F8EE8A
:1027D000612AE34001EE903AC1F30801F8EE611A74
:1027E00081EEA22A0BE001EE901ADFED2B2A00BF4A
:1027F000F8EE611A116882EEA12AC1F3080101EE18
:10280000901A1168F8EE611A40EE811A71EE800A92
:1028100062EE200AC1F3462101EE101AB8EE411A09
:1028200031EE001AC0EE811ABCEEE11A80ED001AFA
:102830001168C1F3064101EE101AB8EE411A31EEEB
:10284000001AC0EE811ABCEEE11A80ED011A11687F
:10285000C1F3066101EE101AB8EE411A31EE000A1A
:1028600080EE801ABCEEC10A80ED020A30BD04E0A1
:1028700001EE901ADFED092ABAE7002101604160FC
:102880008160F3E7284402580000003938440258B8
:102890000024744A0090D0030024744C20BCBE4B2A
:1028A000494930B5484C0B1D0A681C3409681D683D
:1028B000246802F00303C5F30022C1F30551C4F3F9
:1028C000CC04002914FB02F200EE102AF8EE400AB4
:1028D00075D03F4A9FED3D1AB7EE000A6BB1DFEDB0
:1028E0003D1A012B01D0022B64D002EE101A1168A0
:1028F000F8EE422A81EEA22A21E0334C283C2368DC
:102900009B0612D5344B246801EE901A1168C4F36B
:10291000C104F8EE612AE34001EE903AC1F30801E8
:10292000F8EE611A81EEA22A0BE001EE901ADFEDBB
:102930002B2A00BFF8EE611A116882EEA12AC1F3BA
:10294000080101EE901A1168F8EE611A40EE811A42
:1029500071EE800A62EE200AC1F3462101EE101AE0
:10296000B8EE411A31EE001AC0EE811ABCEEE11A3F
:1029700080ED001A1168C1F3064101EE101AB8EE9D
:10298000411A31EE001AC0EE811ABCEEE11A80ED58
:10299000011A1168C1F3066101EE101AB8EE411A6E
:1029A00031EE000A80EE801ABCEEC10A80ED020A08
:1029B00030BD04E001EE901ADFED092ABAE70021EC
:1029C000016041608160F3E728440258000000394B
:1029D000404402580024744A0090D0030024744CF0
:1029E00020BCBE4B2DE9F05F04000F467ED0DFF81F
:1029F0003882D8F8000000F00F00B8420CD2D8F8A6
:102A0000001021F00F013943C8F80010D8F8000079
:102A100000F00F00B84269D12078844D40070AD5F4
:102A20002069296801F07001884204D9296821F0E1
:102A300070010143296020787C4E361D00070AD5BD
:102A40006069316801F07001884204D9316821F071
:102A50007001014331602078C0060AD5A069316851
:102A600001F4E061884204D9316821F4E061014356
:102A700031602078DFF8B4B180060BF1080B0CD57B
:102A8000E1695846DBF8002002F07002914204D957
:102A9000026822F070020A430260207880070AD59B
:102AA000E068296801F00F01884204D9296821F003
:102AB0000F01014329602078C0073ED05B49A2681E
:102AC0002868183920F47060104328606068022874
:102AD00018D0032819D00968012819D049070029FE
:102AE0004ADADFF848A1AAF1080A00E044E0DAF87F
:102AF000002022F007020243CAF80020FFF772FD0F
:102B0000814612E009688903E9E709688901E6E777
:102B1000C905E4E7FFF766FDA0EB090141F2883043
:102B2000814202D90320BDE8F09F6168DAF8000015
:102B300000F03800B0EBC10FECD1207880070AD547
:102B4000E068296801F00F01884204D2296821F069
:102B50000F0101432960D8F80010404601F00F0131
:102B6000B9420BD9016821F00F01394301600068B7
:102B700000F00F00B84201D00120D4E720784007D0
:102B80000AD52069296801F07001884204D22968B9
:102B900021F0700101432960207800070AD560699F
:102BA000316801F07001884204D2316821F070016F
:102BB000014331602078C0060AD5A069316801F46C
:102BC000E061884204D2316821F4E0610143316060
:102BD000207880060CD5E1695846DBF8002002F029
:102BE0007002914204D2026822F070020A4302602D
:102BF00000F06CF80E492A682B68C2F3032203F038
:102C00000F038A5CC95C02F01F0201F01F01D04073
:102C1000084A20FA01F11160074908600748006876
:102C2000BDE8F05FFFF71ABD0020005218440258BB
:102C3000E8A71008300E00242C0E0024240E0024D7
:102C400030B500F043F80B4A0B490C4B156814687B
:102C5000C5F3032204F00F048A5C095D02F01F0231
:102C600001F01F01D040064A20FA01F119601060FE
:102C7000084630BD18440258E8A71008300E00245A
:102C80002C0E002400B5FFF7DBFF05490968054A53
:102C9000C1F30211515C01F01F01C84000BD0000EA
:102CA0001C440258E8A7100800B5FFF7C9FF054902
:102CB0000968054AC1F30221515C01F01F01C840B7
:102CC00000BD00001C440258E8A71008454970B533
:102CD00045480968434B103B11F0380208D00111F8
:102CE000082A03D0102A0BD0182A0BD0084670BD32
:102CF00019688906FBD51968C1F3C101C84070BDC8
:102D00003A4870BD3749374D18310C1D24350A68D3
:102D1000096826682D6802F0030406F00102C1F379
:102D20000511C5F3CC0515FB02F200EE102AB8EE32
:102D3000400AE9B32F4ADFED2E0AB7EE001A6CB154
:102D4000DFED2D1A012C01D0022C43D002EE101A17
:102D50001068F8EE422A81EEA22A1EE01C68A40642
:102D600011D51B6801EE901A1168C3F3C103F8EE88
:102D7000612AD84001EE900AC1F30800F8EE611A0A
:102D800081EEA22A0BE001EE901ADFED1C2A00BFB3
:102D9000F8EE611A106882EEA12AC0F3080001EE75
:102DA000900AF8EE611A40EE201A31EE810A00E036
:102DB00015E022EE000A1068C0F34620401C00EE29
:102DC000900AF8EE600A80EE201ABCEEC10A10EEFE
:102DD000100A70BD01EE901ADFED092AD8E7002035
:102DE00070BD0000104402580090D00340787D016F
:102DF00000000039304402580024744A0024744C06
:102E000020BCBE4B2DE9F05F04007DD0FF4F207841
:102E1000FE4D1837DFF8F493103DC00748D0D9F8BD
:102E20000000396800F03800102815D0182803D1A8
:102E300001F0030002280FD06068B0F5803F12D087
:102E400010B1B0F5A02F18D0286820F48030286089
:102E5000286820F4802009E02868800328D560686D
:102E60000028D2D024E0286840F4803028606068D0
:102E700088B1FFF7B7FB064609E0286840F48020D8
:102E80002860F0E7FFF7AEFB801B64286FD8286846
:102E90008003F7D50CE0FFF7A5FB064605E000BF71
:102EA000FFF7A0FB801B6428F0D828688003F7D4C4
:102EB000207841F20308D54E0C3E800769D5D9F839
:102EC0000000396810F038000ED0182801D18807AA
:102ED0000AD0E06890B3296821F019010143296004
:102EE000FFF780FB824631E02868400702D5E068A2
:102EF00000288AD0E168286820F01900084328607B
:102F0000FFF770FB824607E0DFE000BFFFF76AFBD8
:102F1000A0EB0A000228B9D828684007F6D500BF00
:102F2000FFF75AFB40451BD82069402812D0316872
:102F300021F47C3141EA003030602AE018E000BF23
:102F4000FFF750FBA0EB0A0002289FD82868400733
:102F5000F6D5E5E7306820F47C3040F40030EBE74C
:102F6000207C316821F0FE4141EA0060E4E70DE198
:102F7000286820F001002860FFF734FB824605E056
:102F8000FFF730FBA0EB0A0002288DD82868400725
:102F9000F6D42078C0065DD5D9F80000DFF86CB211
:102FA000396800F03800ABF1040B082810D018285D
:102FB00003D101F0030001280AD0E0690028286845
:102FC00038D040F080002860FFF70CFB824623E0F9
:102FD0002868C00523D5E069802876D11FE0206AE3
:102FE000202821D0316821F0F84141EA806030602A
:102FF00030E000BF94F82010DBF8002022F07C5273
:1030000042EA0161CBF8001024E000BFFFF7EAFAC2
:10301000A0EB0A00022898D82868C005F6D5FFF76B
:10302000DBFA4045E6D8DAE7306820F0F84040F0B7
:103030008040DCE720F080002860FFF7D3FA0646E6
:1030400005E000BFFFF7CEFA801B02289DD8286854
:10305000C005F7D42078000729D56C486169643031
:1030600000298046016811D041F001010160FFF79D
:10307000B9FA064605E000BFFFF7B4FA801B022844
:10308000C9D8D8F800008007F6D510E021F001017A
:103090000160FFF7A7FA064605E000BFFFF7A2FAB6
:1030A000801B022872D8D8F800008007F6D4207858
:1030B000800623D5A0690028286810D040F48050ED
:1030C0002860FFF78FFA064605E02CE1FFF78AFA41
:1030D000801B02285AD828688004F7D50EE020F417
:1030E00080502860FFF77EFA064604E0FFF77AFA80
:1030F000801B02284AD828688004F7D4207840072B
:103100004FD5DFF80C81D8F8001041F48071C8F871
:103110000010FFF767FA064605E000BFFFF762FA06
:10312000801B642832D8D8F80000C005F6D5374E89
:10313000A068603601280AD008B1052813D030688D
:1031400020F001003060306820F0040002E03068B8
:1031500040F001003060A06841F2883A90B1FFF77A
:1031600041FA80460AE0306840F004003060EEE743
:10317000FFF738FAA0EB0801514507D830688007FF
:10318000F6D50EE0FFF72EFA804607E084E000BF98
:10319000FFF728FAA0EB080151457DD83068800779
:1031A000F6D4606AB0B3DFF86480D9F8001008F193
:1031B0002008C1F3C20103296FD00228286820F03B
:1031C0008070286003D0FFF70DFA044680E0FFF717
:1031D00009FA064605E000BFFFF704FA801B022843
:1031E00073D828688001F7D4E26A40F2F331386876
:1031F00054F8283F884340EA021018433860217B86
:103200004FF4FE0C22894FF0FE4704E010440258B0
:103210000048025889E0208A4902521E267DA1F505
:10322000007189B2401EC2F308021143761E0CEAF7
:10323000004001433E4807EA066211433C4AC8F891
:1032400000100832016821F00101016011684FF699
:10325000F876236AB14341EAC30111600168A269AB
:1032600021F00C01114301600168E26921F00201C3
:1032700011430160016841F480310160016841F44B
:1032800000310160016841F480210160016841F072
:1032900001010160286801E017E01DE040F0807046
:1032A0002860FFF79FF9044605E000BFFFF79AF991
:1032B000001B022809D828688001F7D535E000BF37
:1032C000FFF790F9001B022802D90320BDE8F09F08
:1032D00028688001F4D428E039680128D8F8000073
:1032E00021D0A26A01F0030393421CD1E26AC1F328
:1032F00005118A4217D1216BC0F30802491E8A4288
:1033000011D1616BC0F34622491E91420BD1A16BD2
:10331000C0F30642491E914205D1E16BC0F306603D
:10332000491E814201D00120D0E70020CEE70000F5
:103330002C440258401EB0F1807F10B501D301200B
:1033400010BD4FF0E02460610F21601701F08EFC8A
:103350000020A0610721216110BD704770477047B0
:1033600010B5040003D094F83D0010B107E001202F
:1033700010BD002084F83C00204600F023F8022015
:1033800084F83D002068211D00F034FE012084F8FF
:10339000480084F83E0084F83F0084F8400084F838
:1033A000410084F8420084F8430084F8440084F823
:1033B000450084F8460084F8470084F83D0000206A
:1033C00010BD000008B500680B49884212D10B48B7
:1033D000016841F01001016000680322012100F042
:1033E000100000903620FFF775F9BDE80840362040
:1033F000FFF762B908BD000000100040E844025821
:1034000090F83D10012901D001207047174A022190
:1034100080F83D100168CB6843F00103CB60006881
:10342000904214D0B0F1804F11D0114988420ED093
:10343000104988420BD01049884208D00F49884271
:1034400005D00F49884202D00E49884207D18168D1
:103450000D4A1140062906D0B1F5803F03D001681E
:1034600041F00101016000207047000000000140B0
:103470000004004000080040000C0040000401402F
:10348000001800400040014007000100704770B57F
:103490000446006800250169C943890715D4C1683D
:1034A000C943890711D4EA1E0261012121772068EE
:1034B00080698007204602D0FFF7E8FF04E000F0B3
:1034C000A7F8204600F0A5F8257720680169C943D0
:1034D000490717D4C168C943490713D402216FF0C3
:1034E0000402026121772068806910F4407F204641
:1034F00002D0FFF7CBFF04E000F08AF8204600F08E
:1035000088F8257720680169C943090716D4C1687E
:10351000C943090712D404216FF008020261217720
:103520002068C0698007204602D0FFF7AFFF04E0A3
:1035300000F06EF8204600F06CF8257720680169ED
:10354000C943C90617D4C168C943C90613D40821A1
:103550006FF01002026121772068C06910F4407F8B
:10356000204602D0FFF792FF04E000F051F8204619
:1035700000F04FF8257720680169C943C90708D1D1
:10358000C168C943C90704D1891E0161204600F002
:1035900041F820680169C943090609D4C168C943D3
:1035A000090605D46FF0800101612046FFF7D6FEC1
:1035B00020680169C943C90509D4C168C94309061E
:1035C00005D46FF4807101612046FFF7C6FE2068C4
:1035D0000169C943490609D4C168C943490605D4EC
:1035E0006FF040010161204600F05CF8206801693D
:1035F000C94389060BD4C168C943890607D46FF053
:10360000200101612046BDE87040FFF7A8BE70BDF3
:10361000704770471CB500681B49884233D11B4C6A
:103620001B4BD4E9001001EB8102024453F8222025
:1036300000EB4003CDE90002C3EBC010154BA268BC
:1036400002EB800053F8211001EB800090ED000A9E
:1036500011A0B7EEC00A53EC102BFCF7BBFFA0681B
:10366000401CA060B0F5FA7F0DD10020A060616819
:10367000491C6160052906D160602168491C2160F0
:10368000062900D120601CBD0010004064160024F3
:10369000101F0024CC9C032425662C25642C256453
:1036A0000A000000704770477047704770477047C6
:1036B0002DE9F04103680446002540F60F06D8695D
:1036C00019689A68304209D186067DD501F0200636
:1036D00002F080573E4377D0216F62E1C64EC74F5C
:1036E00016400F4037436FD0C70709D0CF0507D525
:1036F00001271F62D4F88C3043F00103C4F88C30EA
:1037000083070AD5D30708D0276802233B62D4F881
:103710008C3043F00403C4F88C3043070AD5D30738
:1037200008D0276804233B62D4F88C3043F00203AE
:10373000C4F88C3003070CD501F02003334308D0C4
:10374000266808233362D4F88C3043F00803C4F8A9
:103750008C3003050BD54B0109D526684FF4006367
:103760003362D4F88C3043F02003C4F88C30D4F8A2
:103770008C30002B3AD0800609D501F0200002F0F1
:103780008051084303D0216F09B120468847216842
:10379000D4F88C008968490602D410F0280F27D08D
:1037A000204600F027FD2068806840061BD5206871
:1037B000083050E8001F21F0400140E80012002AC4
:1037C000F5D1E06F78B100E018E08D490165E06F58
:1037D000FEF7A2FC002809D0E06F016D00E0204652
:1037E000BDE8F04108472046FFF761FFBDE8F081E2
:1037F0002046FFF75CFFC4F88C50F7E7E76E202601
:10380000012F7CD1C7067AD5CF0678D51020186253
:103810002068806840067DD5E16F7A4A086890424A
:1038200034D0784A1832904230D0764A30329042C2
:103830002CD0744A4832904228D0724A603290426A
:1038400024D0704A7832904220D06E4A9032904212
:103850001CD06C4AA832904218D06B4A904215D0C6
:10386000694A1832904211D0674A303290420DD0E6
:10387000654A4832904209D0634A6032904205D08E
:10388000614A7832904201D05F4A90324068000429
:10389000000CABD0B4F85C208242A7D9A4F85E003B
:1038A000C869B0F5807F2ED0216851E8000F20F460
:1038B000807041E80002002AF6D12068083050E804
:1038C000001F21F0010140E80012002AF5D1206814
:1038D000083050E8001F21F0400140E80012002AA3
:1038E000F5D1C4F88860E566216851E8000F20F042
:1038F000100041E80002002AF6D1E06F01E03BE051
:1039000008E0FEF759FAB4F85C00B4F85E10401A0B
:1039100081B22DE0B4F85C00B4F85E10B4F85E201B
:10392000401A81B2002AB4D00029B2D0226852E8ED
:10393000000F20F4907042E80003002BF6D1334BC7
:10394000226802F1080252E8000F00EA030042E890
:103950000007002FF4D1C4F88860E5662567226867
:1039600052E8000F20F0100042E80003002BF6D1CF
:103970002046FFF798FE39E7C70209D5570207D559
:103980004FF4801018622046BDE8F041FFF78EBE6C
:1039900003060AD501F0800302F40002134304D0A9
:1039A000616F00297FF41BAF20E7420611D54A065C
:1039B0000FD52046026852E8001F21F0400142E87E
:1039C0000013002BF6D1C0F88460456700F0FCF8C6
:1039D0000CE7020206D54A0004D52046BDE8F041B6
:1039E000FFF763BEC001C6D50029C4DA2046BDE892
:1039F000F041FFF759BE0000010000102001000453
:103A0000E14100081000024010040240FEFFFFEFF9
:103A100010B5040003D0D4F8840010B107E00120F1
:103A200010BD002084F88000204600F027F82420F4
:103A3000C4F884002068016821F00101016020467B
:103A400000F01AFE0128EBD0A06A10B1204600F069
:103A500033FB2068416821F490414160206881680F
:103A600021F02A0181602068016841F001010160B4
:103A70002046BDE8104000F083BB000030B5006870
:103A800087B01F49884238D11E48016841F01001B3
:103A90000160006800F0100005901A4810380168B5
:103AA00041F001010160016801F001010591016827
:103AB00041F00101016000680122134D072400F06C
:103AC00001000590022004940102CDE90010CDE927
:103AD000022069462846FEF769FC4FF4806069467B
:103AE000049400902846FEF761FC2520FEF7E4FDD3
:103AF000032225201146FEF7EDFD07B030BD000082
:103B000000100140F04402580000025870B4D0F890
:103B10008830202B20D1E1B1DAB190F88030012B30
:103B20001AD0036801260D4D002480F88060C46619
:103B3000AB420BD05B681B0208D5046854E8003F19
:103B400043F0806344E80035002DF6D170BC00F0EE
:103B500069BF012070BC70470220FBE7000C0058D1
:103B600030B400681549884225D1154841880A04B7
:103B700016D402464FF000034C04127804D50A2AEA
:103B80000DD141F4004114E00D2A10D00D4DC1F3C8
:103B90000D04491C89B2C7292A55418000D94380A8
:103BA0000122084830BC0649C830FFF7AFBF41F4D6
:103BB00080414180F4E730BC7047000000100140B4
:103BC000340E0024AC1F00247047FEE70B48002190
:103BD000094B012210B5036001714171416102621C
:103BE0008161FEF799F8002804D0BDE8104004A0D8
:103BF000FCF7F0BC10BD0000004C0258881F0024E8
:103C00004352434545520000094808B5016841F058
:103C100004010160016801F004010091016841F0B4
:103C200080010160006800F08000009008BD000085
:103C3000E0440258FEE7FEE770477047F0B52B4CB2
:103C40009DB0256825F004052560294D274C0C34CE
:103C50002E6826F001062E602D682668002546F4A1
:103C600040462660266806F440461B962668B60441
:103C7000FCD50DF1300E03950226099607954FF4F9
:103C8000803C8EE80D0001276846CDE90A610824D2
:103C9000CDE9007CCDE91045FFF7B4F800B1FEE7AF
:103CA00040203F210301032250261A96CDE9180334
:103CB00013AB83E82600CDE91640022113A8FEF7D6
:103CC00091FE00B1FEE70B48016841F08001016000
:103CD0000848F430016841F002010160006800F01A
:103CE00002001B90FEF75AFB1DB0F0BD0C480258B5
:103CF0002C040058004402582DE9F05F9A460D4606
:103D000080462DED048BDDE90E369FED7D9A109CEB
:103D1000BAF1010FDFF8ECB1A1EB0400B0EE498A73
:103D2000A4EB0207A1EB0201F0EE488AF7EE009A3D
:103D3000A7F10109A5F10102A0F1010004D0012BB6
:103D40004FD0002B7CD09BE0012B01D093B346E0F9
:103D5000012E01D07EB342E000EE100A671CF8EE9F
:103D6000C08A15E078EEE98AB2EE040BB7EEE81AE5
:103D700001F006F918F80700B7EEC81A303802EE5D
:103D8000100A7F1CB8EEC22B02EE001BB7EEC18BEF
:103D9000AF42E7D318EE101A59454BDA00EE109AED
:103DA000E01E00EE900AB8EEC00A70EE088AB8EE87
:103DB000E08A14E00BE0FFE7A81E00EE101A00EE08
:103DC000900A0127F8EEC08AB8EEE08A7BE000EEA8
:103DD000902A00EE101AB8EEE08AF8EEC08A0127A9
:103DE0004FE0012E01D066B34AE000EE100A671CD6
:103DF000F8EEC08A18E000BF78EEE98AB2EE040B54
:103E0000B7EEE81A01F0BCF818F80700B0EE401B56
:103E1000B7EEC80A303802EE100A7F1CB8EEC22B8B
:103E200002EE010BB7EEC08BAF42E5D318EE100ADD
:103E3000584507DBB0EE490ABDEC048BBDE8F09FA6
:103E400016E00BE000EE109AA01E00EE900AB8EE0D
:103E5000C00A70EE088AB8EEE08A11E000EE902AFF
:103E600000EE101A0027B8EEE08AF8EEC08A2AE0C9
:103E700000EE905A00EE101AB8EE608AF8EEC08A92
:103E80000027012E1FD1641EA5B21CE018F8070000
:103E90003038092816D838EE698AB2EE040BB7EE2E
:103EA000C81A01F06DF8B7EEC92A18F807003038C3
:103EB00001EE900AB8EEE13BB0EE421B03EE001BB0
:103EC000B7EEC19B7F1CAF42E0D3B7EEE81ABAF160
:103ED000010FB2EE040B08D001F052F8B7EEC91A88
:103EE00081EE002BB7EEC20BA6E701F049F8B7EE62
:103EF000C91A81EE002BB7EEC20BB1EE400A9BE768
:103F00000000000000007041FEF772BB2C48F0B5C5
:103F10002C4A016841F470010160106800F00F0044
:103F2000072804D2106820F00F00C01D1060264939
:103F30000020254C10340B68244D43F001030B6026
:103F400020600B682B400B60136803F00F03072BF6
:103F500004D9136823F00F03DB1D13601A4C1C4AAD
:103F600018341C4B261D371D2060174C1A4D283461
:103F70003060261D3860371D23603B1D35601C1DD9
:103F80003A60251D2E1D1860331D226028603260A6
:103F900018600A680C4B114C22F4802260330A60CE
:103FA000186020686FF30F00B0F1005F03D20C4976
:103FB0000120C1F8080143F2D2000A490860F0BDAF
:103FC00088ED00E000200052004402587FEDF6EA40
:103FD00080020101000202020000FF010010005CEB
:103FE00000800051004000520148FFF750BA000025
:103FF000489C03242DE9F047274B4FF0804A274D7A
:1040000002689842264E274F274C09D0504507D0CA
:10401000A84205D0B04203D0B84201D0A04205D199
:10402000D1F804C022F070024CEA0202DFF87CC032
:10403000DFF87C809842DFF87C900FD050450DD09F
:10404000A8420BD0B04209D0B84207D0A04205D058
:10405000604503D0404501D0484503D1CD6822F4E6
:1040600040722A434D6922F080022A43026098423E
:104070008A68C2620A68826207D0A04205D06045A1
:1040800003D0404501D0484501D1096901630121B0
:104090004161BDE8F08700000000014000040040DD
:1040A00000080040000C00400004014000400140B6
:1040B000004401400048014090F82810C90706D08C
:1040C0000168C36A4A6822F400321A434A6090F8D1
:1040D0002810890706D50168036B4A6822F48032EC
:1040E0001A434A6090F82810490706D50168436BC7
:1040F0004A6822F480221A434A6090F8281009077F
:1041000006D50168836B4A6822F400421A434A606C
:1041100090F82810C90606D50168C36B8A6822F496
:1041200080521A438A6090F82810890606D50168E3
:10413000036C8A6822F400521A438A6090F82810AF
:10414000490611D50168436C4A6822F480121A436B
:104150004A60416CB1F5801F06D10168836C4A68E2
:1041600022F4C0021A434A6090F82810090606D5C6
:104170000168C26C486820F4002010434860704712
:10418000F8B500260446C0F88C60FEF72BFA054609
:1041900020686FF07E470068000708D500222B4694
:1041A0004FF400112046009700F0C8FC60B9206869
:1041B000006840070AD500222B464FF480012046B4
:1041C000009700F0BBFC08B10320F8BD2020C4F824
:1041D0008400C4F88800E666002084F88060F8BD9A
:1041E00010B5806B0021A0F85E10A0F85610FFF704
:1041F0005EFA10BD10B5026852E8001F21F49071FC
:1042000042E80013002BF6D10E4B0268083252E848
:10421000001F194042E80014002CF6D1C16E01299C
:1042200008D1026852E8001F21F0100142E8001393
:10423000002BF6D100212022C0F88820C16601673A
:1042400010BD0000FEFFFFEF10B5D0F88810B0F8E9
:1042500060202229016804D0886940F00800886144
:1042600010BD496A836D11401980816D891C81657B
:10427000B0F85E10491EA0F85E10B0F85E1000297C
:10428000EED1026852E8001F21F4907142E8001359
:10429000002BF6D10168083151E8002F22F001020D
:1042A00041E80023002BF5D12022C0F8882000210E
:1042B000C26E0167012A02D0FFF752FC10BDC16631
:1042C000026852E8001F21F0100142E80013002BA1
:1042D000F6D10168CA69D243D20601D410220A621B
:1042E000B0F85C10FFF7DFF910BD00002DE9F047D2
:1042F00004460068C569D0F800A0D0F80880D4F85A
:104300008810B4F86060222905D0816941F0080165
:104310008161BDE8F087B4F868704FF0000963E090
:104320002068A16D406A30400880A06D801CA065A7
:10433000B4F85E00401EA4F85E002068C5696907F5
:1043400030D0E9070AD05FEACA5107D501210162DE
:10435000D4F88C0040F00100C4F88C00A8070BD5FD
:104360005FEAC87008D0216802200862D4F88C0087
:1043700040F00400C4F88C0068070BD55FEAC870F1
:1043800008D0216804200862D4F88C0040F00200B4
:10439000C4F88C00D4F88C0020B12046FFF787F9D0
:1043A000C4F88C90B4F85E00F0B9216851E8000FB1
:1043B00020F4807041E80002002AF6D1264A2068E5
:1043C000083050E8001F114040E80013002BF6D1E0
:1043D00020214846C4F88810E16EC4F87090012985
:1043E00023D02046FFF7BCFB0FB1A80698D4B4F841
:1043F0005E0000288DD0B4F86810814289D9206809
:10440000083050E8001F21F0805140E80012002AD7
:10441000F5D112482067216851E8000F40F02000D4
:1044200041E80002002AF6D173E7E066216851E80E
:10443000000F20F0100041E80002002AF6D12068A9
:10444000C169C943C90601D410210162B4F85C10E6
:104450002046FFF728F9C7E7FEFFFFEF49420008B3
:1044600010B5D0F88810B0F860202229016804D077
:10447000886940F00800886110BD496A836D114069
:104480001970816D491C8165B0F85E10491EA0F855
:104490005E10B0F85E100029EED1026852E8001FED
:1044A00021F4907142E80013002BF6D10168083125
:1044B00051E8002F22F0010241E80023002BF5D142
:1044C0002022C0F888200021C26E0167012A02D094
:1044D000FFF746FB10BDC166026852E8001F21F0DD
:1044E000100142E80013002BF6D10168CA69D243DB
:1044F000D20601D410220A62B0F85C10FFF7D3F89C
:1045000010BD00002DE9F04704460068C569D0F8E9
:1045100000A0D0F80880D4F88810B4F86060222990
:1045200005D0816941F008018161BDE8F087B4F8E8
:1045300068704FF0000963E02068A16D406A304068
:104540000870A06D401CA065B4F85E00401EA4F881
:104550005E002068C569690730D0E9070AD05FEAC4
:10456000CA5107D501210162D4F88C0040F0010046
:10457000C4F88C00A8070BD55FEAC87008D0216882
:1045800002200862D4F88C0040F00400C4F88C00CB
:1045900068070BD55FEAC87008D02168042008625C
:1045A000D4F88C0040F00200C4F88C00D4F88C00E1
:1045B00020B12046FFF77BF8C4F88C90B4F85E0079
:1045C000F0B9216851E8000F20F4807041E8000242
:1045D000002AF6D1264A2068083050E8001F114012
:1045E00040E80013002BF6D120214846C4F888107B
:1045F000E16EC4F87090012923D02046FFF7B0FA8D
:104600000FB1A80698D4B4F85E0000288DD0B4F895
:104610006810814289D92068083050E8001F21F0D5
:10462000805140E80012002AF5D112482067216825
:1046300051E8000F40F0200041E80002002AF6D1C6
:1046400073E7E066216851E8000F20F0100041E8B0
:104650000002002AF6D12068C169C943C90601D405
:1046600010210162B4F85C102046FFF71CF8C7E780
:10467000FEFFFFEF614400082DE9F0430446806827
:10468000D84E87B0D84B2168D4E90427D4F81CC091
:1046900010430A68002547EA0C07384332400243BA
:1046A0000A602068E268416821F44051114341608A
:1046B0002268A1699A4201D0206A01439768DFF815
:1046C0002CC3CB4ECB4807EA0C070F4397602168F9
:1046D000676ACA6A22F00F023A43CA622268B2428B
:1046E0000ED1006800F03800182873D047DCB8B34A
:1046F000082879D010286FD178E028287ED17BE077
:10470000BD498A4209D1006800F00700062875D229
:10471000DFE800F0546A6C6E7072B8498A4209D1C1
:10472000006800F00700062868D2DFE800F0475D67
:104730005F616365B2498A4209D1006800F00700F1
:1047400006285BD2DFE800F03A5052545658AD4983
:104750008A420BD1006800F0070006284ED200E024
:1047600010E0DFE800F02B4143454749A6498A4263
:104770000AD1006800F03800182839D0B7DD2028A9
:10478000BBD13CE001203AE0A0498A4209D100684F
:1047900000F00700062831D2DFE800F01026282AB2
:1047A0002C2E9B498A420BD1006800F00700062896
:1047B00024D2DFE800F003191B1D1F2100201EE09A
:1047C0009A421BD18B48001D006800F007000628A4
:1047D00014D202E00CE007E010E0DFE800F003058F
:1047E00007090B0D02200AE0042008E0082006E07B
:1047F000102004E0202002E0402000E080208549D5
:10480000DFF814829A42854A4FF400434FEA211799
:104810004FF000064ED110281AD006DC022809D02D
:1048200004280BD008287CD10DE020283ED0402859
:1048300077D13DE0FDF780FF014610E06846FDF7C7
:104840008DFF01990BE003A8FEF72AF8049906E012
:104850001068800605D51068C0F3C100C14000296A
:1048600070D0606A676838F8102007EB4703B1FB27
:10487000F2F0834255D8B0EB073F52D800230846E8
:104880001946FBF70CFE02467808130E120243EAA3
:10489000012110183A4671410023FBF700FE604ADF
:1048A000A0F5407191423CD821688FE03946D8E7A5
:1048B0001946D6E7D4F81CC04FF6EF799C4546D18F
:1048C000082819D005DC58B101280CD0042875D16E
:1048D0000DE0102815D0202835D040286ED134E0C6
:1048E000FEF7D0F901E0FEF7DFF9014610E0684677
:1048F000FDF734FF01990BE003A8FDF7D1FF049900
:1049000006E01068800604D51068C0F3C100C140FD
:10491000C1B1636A606838F81330B1FBF3F1490044
:1049200000E04BE001EB5001B1FBF0F0A0F1100111
:10493000494543D84FF6F0732168C0F3420218404E
:10494000104343E043E03946E3E71946E1E708282E
:1049500019D005DC58B101280CD004282ED10DE067
:10496000102815D020282BD0402827D12AE0FEF788
:1049700089F901E0FEF798F9014610E06846FDF775
:10498000EDFE01990BE003A8FDF78AFF049906E00C
:104990001068800604D51068C0F3C100C140B1B1F1
:1049A000636A606838F81330B1FBF3F101EB500132
:1049B000B1FBF0F0A0F11001494505D9012506E051
:1049C0003946EDE71946EBE7216880B2C86001205F
:1049D000A4F86A00A4F8680028462667666707B04E
:1049E000BDE8F083F369FFCF000C0058FFF4FF111E
:1049F0000010014054440258004400400048004068
:104A0000004C00400050004000140140007800407D
:104A1000007C00400090D003D0A71008004402584A
:104A2000FFFC0F0070B58468002381654FF480554A
:104A3000A0F85C20AC42A0F85E204FF0FF010367B5
:104A400004D1046904BB40F2FF111DE04FF07F0662
:104A5000C4B1B4F1805F1AD0A0F860302221C0F850
:104A60008C30C0F888100168083151E8004F44F0DC
:104A7000010441E80046002EF5D1416EB1F1005F1E
:104A80000CD030E0046934B9A0F86010E6E70169A1
:104A900009B13F21F8E7A0F86060DFE7B0F86810DF
:104AA000914220D88168A94201D10169C9B11F4949
:104AB0000167016980F8803041B1026852E8001F47
:104AC00041F4807142E80013002BF6D101680831EF
:104AD00051E8002F42F0805241E80023002BF5D12D
:104AE00021E01349E4E78168A94201D1016979B164
:104AF00010490167016980F8803059B1016851E8B7
:104B0000002F42F4907241E80023002BF6D10AE016
:104B10000949EEE7016851E8002F42F0200241E820
:104B20000023002BF6D1002070BD000005450008D1
:104B3000ED42000861440008494200082DE9F047B1
:104B40009A4617460E460446089D4FF000094FF05E
:104B500020084CE0681C4AD0FDF744FDA0EB0A0099
:104B6000A8422AD84DB32068016849073FD5C069DB
:104B7000C04300053BD421684FF4006008622168FF
:104B800051E8000F20F4D07041E80002002AF6D16D
:104B90002068083050E8001F21F0010140E80012B1
:104BA000002AF5D1C4F8848084F88090C4F8888005
:104BB000C4F88C800320BDE8F087206850E8001F0F
:104BC00021F4D07140E80012002AF6D120680830A4
:104BD00050E8001F21F0010140E80012002AF5D141
:104BE000C4F8848084F88090C4F88880E2E7206864
:104BF000C06936EA000004D00020B842AAD00020E4
:104C0000D9E70120F9E700000148FEF751BD000097
:104C100074200024FEE703B401984100009850EA94
:104C2000C12018BF04204A0D18BF40F0010040F217
:104C3000FF72B2EB515F08BF40F00200012808BFCD
:104C4000052002B070474100080218BF04200A0E78
:104C500018BF40F001004FF07F4232EA010108BF67
:104C600040F00200012808BF05207047090700280E
:104C70004FEA116104DB00F1E02080F80014704776
:104C800000F00F0000F1E02080F8141D70470000D4
:104C90009FED3C0A63E000BF92ED003A91ED004ABF
:104CA000D2ED012AD1ED013A04EE030A92ED022A77
:104CB000D1ED021AD2ED030A91ED031A91ED044AE7
:104CC00003EEA20AD2ED043A92ED053AD1ED052A9F
:104CD00001EE820A92ED062AD1ED061A01EE200AB3
:104CE00092ED071AD1ED070A04EE230AD2ED083A35
:104CF00091ED084A02EE830AD2ED092A91ED093AB4
:104D000001EE820A92ED0A2AD1ED0A1A00EE810A1A
:104D100092ED0B1AD1ED0B0A04EE230A91ED0C4A29
:104D2000D1ED0D3A03EE220A92ED0C3AD2ED0D2AA6
:104D300001EE820A92ED0E2AD1ED0F1A00EE810AE1
:104D400091ED0E1AD2ED0F0A40314032103B04EEC5
:104D5000030A03EEA20A01EE020A01EEA00A102BDA
:104D60009AD206E0F1EC010A5B1EB2EC011A00EEE9
:104D7000810A002BF6D1D0ED000A30EE800A80EDDA
:104D8000000A70470000000010B510EE104A4FF006
:104D900019406849002200EB44002DED028B884247
:104DA00057D8DFED650A14F0004F60EE200A14BFFB
:104DB0009FED621A9FED621A71EE200AFDEEE00A85
:104DC00010EE900A00EE900AF8EEE00A9FED5D1AF0
:104DD00000EEC10A9FED5C1A00EEC10ADFED5B0A2E
:104DE0009FED5B1A00EE201ADFED5A0A40EE010A31
:104DF0009FED591A594B00F0030100EE201A21EEE5
:104E0000000A7B4403EB8103D3ED000A544B7B443F
:104E100003EB810393ED001A524B41EE000A7B44F1
:104E200003EB8101801091ED000A70EE800AEABB6D
:104E300000EE100AB8EEC01ADFED4B1A9FED4B0AD8
:104E4000BDEC028B01EE210ABCEEC00A20EE200A66
:104E500010BD4FF0FF40A0431BD04FF0CE40B0EB51
:104E6000440F82BF9FED420ABDEC028B10BD41484A
:104E7000B0EB440F28BF012293D20220FBF724FE9F
:104E800014F0004F15D0BDEC028BBDE8104000F0CF
:104E90006FBD14F5000F02BF9FED370ABDEC028B0A
:104EA00010BDBDEC028BBDE8104000E007E000F053
:104EB00053BDBDEC028BBDE8104000F051BD00EBCE
:104EC000D07359104FF07E5202EBC15100EE101A10
:104ED000A0EB630002EBC05060EE200A00EE100A67
:104EE00020EE208A18EE100A88B118EE100AB0F1F0
:104EF000FF4F15D018EE100AFFF7A5FE042808BFD3
:104F000000F036FDB0EE480ABDEC028B10BD022069
:104F1000FBF7DAFDBDEC028BBDE8104000F028BDC8
:104F20000220FBF7D1FDBDEC028BBDE8104000F084
:104F300017BD00000000501E3BAAB840000000BF93
:104F40000000003F0070313EF4FD053712BB2A3DE2
:104F500012BB2A3EFFFFFF3EFFFF7F3FC20613004A
:104F6000C6061300960613000000004B00007E4E9C
:104F70000000803F0000A08500000000000000004D
:104F80002DE9F04D2DED040B2DED0A8B9AB0DDE9E6
:104F90002550279CDDF890A025F0004624F000481D
:104FA000BAF1000F14BF0121002101EB4502F849BD
:104FB00053184A1093422AD3002814BF0123002318
:104FC00003EB44030B44F3498B4220D358EA00011E
:104FD0009FEDF19B72D0DFF8C8B35D4503D1BAF104
:104FE000000F05D184E0BAF1000F08BF002100D006
:104FF000012101EB450111F5001F08D8002814BF5D
:105000000121002101EB440111F5001F0BD99DED99
:10501000261B9DED240B1AB0BDEC0A8B04B0BDE835
:10502000F04D00F071BC0027002DBCBFDD49884564
:1050300021DADD498845A8BF02271CDAC3451ADCFE
:10504000DA4901EB2851142908DDC1F1340220FAB4
:1050500002F101FA02F282420DD108E058B9C1F121
:10506000140228FA02F101FA02F2424503D101F0DA
:105070000101C1F1020756EA0A0120D1002C1EDA13
:10508000002D18BF022F01D0012F0AD00220FBF7FC
:105090001BFD1AB0BDEC0A8B04B0BDE8F04D00F06A
:1050A00023BC0220FBF710FD00F01EFCB1EE400B0C
:1050B0001AB0BDEC0A8B04B0BDE8F08D18E09FED8E
:1050C000BCAB9FEDBD8B00287DD1B64880451CD17F
:1050D00005F1804010F5801008BFBAF1000F07D02D
:1050E000B34508DC002CA8BF9DED260BE0DA07E0F5
:1050F000B0EE490BDCE7002CB8BF9DED260BD5DBED
:10510000AF48784490ED000BD2E7D84548D1002C49
:1051100043DA2EB186423AD1BAF1000F3DD126E0F2
:10512000BAF1000F13D00220FBF7CEFC00F0FCFB1D
:105130008DED020B9DED240B8DED000B10EE900A12
:10514000039961F31E0003909DED020BB0E78DED16
:1051500002AB9DED240B1AEE901A10EE900A8DED25
:10516000000B61F31E0003909DED020BA0E78DED97
:10517000028B9DED240B18EE901A10EE900A8DED27
:10518000000B61F31E0003909DED020B90E704DA23
:105190009DED241B89EE010B8AE79DED240B87E72B
:1051A00086421ADAB4F1804F04BF9DED240B20EE45
:1051B000000B3FF47DAFA4F10050B0F1FF500CD1D3
:1051C000002D0ADB00E008E09DED240B51EC100BF4
:1051D00006F026F941EC100B6AE79DED240B51EC2B
:1051E000100B03F095FABAF1000FCDE90E0140D192
:1051F0009FED750B46B3A6F1E040B0F17F600ED095
:105200005E4536D1002D00DA97B3022F0CBF012086
:105210004FF0FF3000EE100AB8EEC00B48E7002D4B
:1052200001DD002C0DDA002D01DD002C1DDB002D31
:1052300014DA002C12DB012F08BF9FED650B3FF441
:1052400037AFB0EE4A0B33E7022F18BF002D0CD05A
:10525000012F0AD1002DFFF62BAF06E0002DB8BFBD
:10526000002C06DA012F3FF423AFB0EE480B1FE706
:1052700019E0012000EBE57050EA070113D0791E18
:10528000B0EE498B084308BF9FED538B544800256F
:1052900080457ADD53495448884514DDB0420DDB22
:1052A000002C19DB2CE00120FBF70EFC1AB0BDEC42
:1052B0000A8B04B0BDE8F04D00F02ABBB34502DC18
:1052C000002C09DC1CE0864202DA002C18DA03E02C
:1052D0005E4528DD002C13DD0220FBF7F5FB00F016
:1052E00023FB8DED020B28EE0A0B8DED000B10EE6B
:1052F000900A039961F31E0003909DED020BD7E61F
:105300000220FBF7E1FB00F01BFB10EE901A18EEF9
:10531000900A8DED020B8DED008B61F31E00039062
:105320009DED020BC4E69DED0E0B9FED313B30EE83
:10533000490B8DED040B20EE002B9DED041B9FED22
:105340002E0B01EE430B9DED043B9FED2D1B03EE59
:10535000401B9DED040B9FED2E3B22EE012B9FED9C
:105360002A1B20EE011B20EE030B9FED2B3B02EED0
:10537000430B31EE002B8DED022B02959DED022BA0
:1053800032EE411B30EE411B21E149E000000000FC
:10539000FFFF1F00FFFF0F00000000000000F03FB4
:1053A0000000F03F0000F07F0000404301FCFFFFE1
:1053B000000000000000F07F00000000000000007E
:1053C0006A041300000000000000000000000080DC
:1053D000000000000000F0FF000000000000F0BF2F
:1053E0000000E0410000F043FFFFEF3F000000003D
:1053F000000000000000D03F555555555555D53F8C
:10540000000000000000E03F000000604715F73F8B
:1054100044DF5DF80BAE543EFE822B654715F73F27
:105420000020B6F5801F0BDA9DED0E0B9FEDEC1BF7
:105430006FF0340020EE010B10EE906A8DED0E0B34
:10544000E94A00EB2650C6F31301A0F2FF3741F002
:105450007F6040F040509142D8BF002408DDE34A0D
:105460008A42C8BF012403DC0024A0F580107F1C01
:10547000DF49794401EBC4010F9091ED001B9DEDD4
:105480000E2B9DED0E0BDB4931EE023B30EE410B56
:1054900089EE032B20EE02AB8DED02AB7944029531
:1054A00091ED003B4FF0005141EA600000EB844079
:1054B0008DED043B00F5002005909DED043B9DED36
:1054C000044B2AEE0ACB33EE411B9DED0E3BCA483E
:1054D000062133EE411B9DED023B03EE440B03EE30
:1054E000410B20EE02BBB0EE4C0B784400F0C4F947
:1054F0002CEE0C1B20EE010B9DED021B31EE0A1B66
:105500000BEE010B9DED021B21EE011B9FEDBC2B51
:1055100031EE023B33EE003B8DED043B04959DEDF7
:10552000043B33EE422B32EE411B30EE412B9DED1E
:10553000020B9DED041B20EE011B9DED040B2BEED9
:10554000000B02EE0A0B31EE002B8DED022B0295C3
:105550009DED022B32EE411B30EE410B9DED021B07
:105560009FEDA92B21EE021B9DED022B9FEDA83B89
:1055700022EE032B9FEDA83BA94800EE032B7844B5
:1055800000EBC40090ED000BA64832EE000B02EEDB
:10559000107AB8EEC22B8DED042B31EE003B78442F
:1055A00000EBC4009DED044B90ED002B33EE023B6D
:1055B00033EE043B8DED023B02959DED023B33EE55
:1055C000443B33EE422B32EE411B30EE411B9DED4E
:1055D000260B954A8DED000B00959DED260B9DED5C
:1055E000002B30EE420B9DED022B20EE020B9DEDC9
:1055F000262B02EE010B9DED001B9DED022B21EEF3
:10560000021B8DED021B30EE011B11EE900A11EE14
:10561000101A8DED001B904224DB821A11430ED12B
:105620009FED831B9DED002B9DED023B30EE011B9A
:1056300032EE432BB4EEC21BF1EE10FA26DD02204F
:10564000FBF742FA00F070F910EE901A18EE900A8B
:105650008DED020B8DED008B61F31E0003909DED2F
:10566000020B25E5744B20F000429A420ED3734A98
:10567000024411437FF444AE9DED022B31EE421BF8
:10568000B4EEC01BF1EE10FABFF63AAE20F00041C6
:105690006B4A6C4B002402EB21529942D8BF9DED1E
:1056A000021B27DD511C4FF4801222FA01F1014444
:1056B000654BC1F30A527B44A2F2FF3293ED001B0B
:1056C000624B8DED041BD34021EA0303C1F31301A8
:1056D00041F48011C2F1140221FA02F4059300286A
:1056E000B8BF64429DED021B9DED042B31EE421BC1
:1056F0008DED021B30EE011B8DED041B04959DED1D
:10570000041B9FED532B9DED023B21EE021B9DEDF3
:10571000042B32EE432B30EE420B9FED4F2B20EE4D
:10572000020B9DED042B9FED4E3B4F48052102EEF1
:10573000030B31EE002B8DED002B32EE411B30EED2
:1057400041AB9DED000B20EE000B8DED040B78447A
:1057500000F092F89DED001B9DED042B02EE401B26
:105760008DED021B9DED000B20EE010B9FED402BFC
:1057700031EE422B80EE021B9DED002BB0EE4A0B6A
:1057800002EE0A0B31EE400B9DED001B30EE410B9B
:1057900039EE400B10EE900A8DED000B00EB04503B
:1057A00001150029C8BF019013DC224651EC100BF3
:1057B00006F08BF8FFF72FFA042808BF00F0C0F8B6
:1057C00022469DED000B51EC100B06F07EF8CDE962
:1057D00000019DED000B28EE000B69E400000000C5
:1057E00000000000000040438E9803007AB60B00D2
:1057F00072001300D00013002A0013000000000004
:105800000000000000000840000000E009C7EE3F73
:10581000F5015B14E02F3EBEFD033ADC09C7EE3F05
:1058200086FF120056FF12000000904000000000AA
:10583000FE822B654715973C00CC904000346F3FAB
:1058400001FCFFFF0000E03FB6FE1200FFFF0F006B
:1058500000000000432EE63FEF39FAFE422EE63FFD
:10586000396CA80C615C20BEF6FD1200000000003F
:105870000000000000000040491E00EBC102B0EE35
:10588000401B92ED000B31F006020DD0491E00EBDB
:10589000C102B0EE403B92ED002B31F00602B0EEBB
:1058A000420B03EE010BF1D1022914D004290AD0D6
:1058B000062918BF704790ED0A2B00EE012B90EDE2
:1058C000080B02EE010B90ED062B00EE012B90ED84
:1058D000040B02EE010B90ED022B00EE012B90ED7C
:1058E000000B02EE010B70479FED031B9FED042B95
:1058F00081EE020B70470000000000000000F03F46
:10590000000000000000000030EE010B70470000B6
:105910009FED031B81EE010B7047000000000000AB
:1059200000000000000000009FED030B20EE000BC4
:105930007047000000000000000000000000007040
:105940009FED030B20EE000B7047000000000000ED
:10595000000000000000001030EE000A7047000058
:105960009FED020A20EE000A704700000000007060
:105970009FED020A20EE000A7047000000000010B0
:105980002DE9F0478246089D25F00100EC0803EB65
:1059900080069FED460A5AE051F8040BD3ED001A39
:1059A00000F0FF0C0CF00F084FEA1C1793ED014AB2
:1059B00002EB870CC0F30729DCED000A02EB880C30
:1059C0004FEA191700EEA10A9CED001A02EB870CB2
:1059D00093ED025ADCED000A09F00F0801EE040A0B
:1059E00002EB880C93ED033ADCED002AC0F3074785
:1059F000D3ED044A00EE850A4FEA171807F00F07A7
:105A000002EB880C02EB87079CED002A02EE830A6A
:105A1000000ED3ED053AD7ED001A4FEA101C00F046
:105A20000F0702EE240A02EB8C0093ED064A90ED7C
:105A3000001A02EB870093ED075A01EEA30AD0ED9E
:105A4000000A2033641E01EE040A00EE850A002CD1
:105A5000A2D115E011F8010B93ED002A93ED011A84
:105A6000040900F00F0002EB840402EB8000D4ED87
:105A7000001AD0ED000A083301EE820A00EE810A16
:105A8000B342E7D3E80709D0087893ED001A00097C
:105A900002EB8000D0ED000A00EE810ADAED000A88
:105AA00030EE800A8AED000ABDE8F08700000000B1
:105AB000F0B59FED3D0A059D03EB8504103C05F014
:105AC000030527E00E7893ED001A4F7802EB860667
:105AD000D3ED012AD6ED000A02EB870611F802CFBA
:105AE00000EE810A96ED001A02EB8C0791F801C0D6
:105AF00093ED022AD7ED000A02EB8C0601EE220A92
:105B0000D3ED031A891C103300EE820AD6ED000A89
:105B100000EEA10AA342D5D915B3012D04D0022D60
:105B20000CD0032D38D11CE0097893ED001A02EB5C
:105B30008101D1ED000A00EE810A2DE00C78D3ED51
:105B4000001A497802EB8404D3ED010A94ED001A9F
:105B500002EB810101EE210A91ED001A01EE200A0B
:105B60001AE00C7893ED002A4D7802EB84048978D2
:105B700093ED011AD4ED001A02EB850402EB8101CA
:105B800001EE820A94ED002AD3ED020AD1ED001A4B
:105B900002EE010A01EEA00AD0ED000A30EE800A02
:105BA00080ED000AF0BD00000000000010B5416962
:105BB000044688472069A04200D1002010BD012082
:105BC000704700002DE9F04F00260F4699B00546BA
:105BD000B04634464DE000BFA868C4EBC402894615
:105BE000D0E9013C03EB82000B902D480FAA0292F2
:105BF0000CEBC40A51F8082F406A49680C91110A4D
:105C000061F31F201C21834604A8FAF761FED9F82E
:105C10001800006800F0EAFB0490D9F818008068CA
:105C200005905FEA0A0009D0C0F80080D9F800109A
:105C3000416029B1498819B1012102E0404603E0E1
:105C40000021016001B900200690D9F818001C223B
:105C500004A94068CDE9080B0C980A900298FAF75D
:105C600005FE0B981C220FA9FAF700FE761CB6B2AF
:105C7000641C0DB1288800E00020A04205D96868A6
:105C800018B150F824100029A6D11EB1A8684068A8
:105C9000386001E0C7F8008019B03046BDE8F08FE9
:105CA000385413087047000010B501EB820400EB74
:105CB0008200D3EC030AF5EEC01AF1EE10FA29D2F5
:105CC000B5EEC01AF1EE10FA11D0001F241F8C425D
:105CD0001FD394ED000AB4EEE00AF1EE10FA03D8F7
:105CE00030EE600A20EE010A80ED000AEDE79FED3C
:105CF000161A0AE094ED000AB4EEE00AF1EE10FA8A
:105D000001D8B0EE410A80ED000A001F241F8C422A
:105D1000F0D210BD001F241F8C42FAD394ED000A6C
:105D2000B4EEE10AF1EE10FA09D8B4EEE00AF1EEB1
:105D300010FA06D830EE600A20EE010A01E0B0EE5B
:105D4000610A80ED000AE5E70000000010B59FED54
:105D50000C1AD3ED000A01EB820400EB8200001F55
:105D6000241F8C420BD394ED000AB4EEE00AF1EE4E
:105D700010FA01D8B0EE410A80ED000AEFE710BD3D
:105D8000000000002DE9F04701EB82081E460C469A
:105D900005462DED028BDDE90AA93CE00120D4ED9A
:105DA000008A9FED208A06E004EB8001401C91ED03
:105DB000000AC8FE808AB042F6D300270FE000BF79
:105DC00004EB870090ED000A30EE680AFEF7DCFF76
:105DD00030EE088A05EB87007F1C80ED000AB74291
:105DE000EED3B5EEC08AF1EE10FA10D0F7EE000A4D
:105DF000002080EE880A08E005EB8001401CD1ED10
:105E0000000A60EE800AC1ED000AB042F4D304EB50
:105E10008A0405EB89054445C0D3BDEC028BBDE87F
:105E2000F08700000000000030380A2801D201206D
:105E300070470020704770B5054648880C46698851
:105E4000884202D9A2B1002070BD8AB100260BE0C1
:105E50006168C6EBC6006A6801EB800102EB800056
:105E60001C22FAF703FD761C6088B042F0D801E0EE
:105E7000606868606088688020882880012070BD24
:105E800030B500B3F9B1F2B15268E2B10F4C13680A
:105E9000A34203D00129026013D014E00023121D95
:105EA00007E000BF52F82350A54204D040F8235029
:105EB0005B1C8B42F6D38B4205D152F82300A042E3
:105EC00001D1012030BD002030BD0000DECAFAA1A2
:105ED00070B506000D4614461AD0CCB1104600F03D
:105EE0002DFB00B16088A84212D10421002309E0F3
:105EF000C3EBC302606801EB8202805820B146F810
:105F000023005B1CAB42F3D3AB4201D1012070BD37
:105F1000002070BD0349884201D101207047002054
:105F200070470000DECAFAA12DE9FE4F0400924638
:105F3000894603D0A08D20B1256B03E00020BDE889
:105F4000FE8F0025217B0020E082C943A0828807C4
:105F500002D030221121DCE0B9F1000F62D0002D17
:105F600060D02888C8B3D9F818000026D0F800807F
:105F700056E0A868006800EB0610019052D060B3AC
:105F8000C6EBC6000290012109EB8000009000F0F2
:105F9000DFFA0246DBF8180041688A421AD8009AF4
:105FA000DBF80C309269DF68D2F80CC0674511D17C
:105FB0009F68D2F808C067450CD15B68526893426D
:105FC00008D1006800F002FA0746584603F04EFD7B
:105FD000874203D2182212219BE023E0DBF818004D
:105FE000006800F003FA0299C00159F82110B0EBE3
:105FF000C11F01D01922EEE70098406890B10098C7
:106000008069006880B14045414600D208465A4642
:106010008046DDE9001000F08FF806F101062DB191
:10602000288804E01722D6E72122D4E70020B042D6
:1060300006D9686820B150F826B0BBF1000F98D19E
:10604000BAF1000F73D0A08D012806D9256B0C354D
:1060500003D0288808B1002657E0182258E0A86825
:10606000006800EB061B39D0BBF1000F36D0C6EB41
:10607000C600019001210AEB8000009000F068FA50
:10608000D9F8183059688842E7D8009AD9F80C0036
:106090009269C768D2F80CC06745DED18768D2F82C
:1060A00008C06745D9D1406852689042D5D1186878
:1060B00000F08CF90746484603F0D8FC8742CCD361
:1060C000D9F81800006800F091F90199C0015AF858
:1060D0002110B0EBC11F03D0192219E0172217E0DD
:1060E000009840680028F9D000988069006870B175
:1060F0004045414600D20846009980464A465846E7
:1061000000F01AF806F101063DB1288806E02122C8
:106110001321204600F0EFFE10E70020B04206D920
:10612000686820B150F82690B9F1000F97D14FF070
:106130000100A4F8148002E770B50E460446154627
:10614000104603F093FCA0600146B0690068484324
:10615000E06071686160726810442060A86902683C
:10616000920007D4D0E90223D21A11448160A969B0
:106170006068C86070BD2DE9F0410025064620E04A
:10618000B268816913680A6803EB0514920005D5AB
:106190008968D4E9010205F095F908E0D1E9022304
:1061A0006768D21A3A448A6080696168C16094E87D
:1061B000070011446160814201D3E168411A6160C6
:1061C0006D1C0EB1308800E00020A84206D970682E
:1061D000002803D050F825000028D1D1BDE8F08177
:1061E0002DE9F041002506462BE0B2688869126867
:1061F000036802EB05149A000FD58068D4E90112F8
:1062000005F060F9D4E90101084460602168884222
:1062100001D3E068081A606012E0D4E90020A368A6
:1062200018446060904201D3E068101A60608A6987
:10623000D2E90237DB1B1844906089696068C86046
:106240006D1C0EB1308800E00020A84206D97068AD
:10625000002803D050F825100029C6D1BDE8F081F0
:1062600070477047F0B502EB42030C4CC3EBC2130E
:106270005FF000024FF4FA7554F8216002EB8307D7
:1062800000EB820C06EB8706521C96ED000AAA4230
:106290008CED000AF0DB0020F0BD0000CC9C032454
:1062A00010B51548A4B0002222A900682290134816
:1062B00000F098FA10F0FF0F04D0020AC1B210A04B
:1062C000FAF788F90D4C6946206800F0E3FA60B1EE
:1062D0002068002100F022FB60600021206800F0AF
:1062E00027FBA060002024B010BD0EA0FAF772F9C1
:1062F0004FF0FF30F7E7000040A81008800E0024A0
:1063000061695F6572726F725F747970653A256456
:106310002C61695F6572726F725F636F64653A25A5
:10632000640D0A00616920676574207265706F7280
:1063300074206572726F720A0000000010B50A4C7A
:106340000B4661684860A2685360206800F0FAFA62
:10635000012807D0206800F09BFA020AC1B203A00E
:10636000FAF738F9002010BD800E002461695F65DE
:1063700072726F725F747970653A25642C61695F1F
:106380006572726F725F636F64653A25640D0A000F
:1063900010B589B1C0F3C612C0F341545143C0F3E4
:1063A000434301F1070121F00700042B20FA04F018
:1063B00004D0082B07D104E0002010BD00EB021030
:1063C00001E000EB0220C01DC00810BD59B1C0F3B0
:1063D000C613C0F341525943C91D21F00700D040F4
:1063E000C01DC0087047002070470000C0F3434143
:1063F00002294FF0400170B51CD03A4A20F07E438C
:106400000D019C1A93424FF400665FD029DC364A96
:106410009342A3EB020459D019DC402B57D0403BE8
:10642000B3F580234CD0802B37D0AB424FD12E49CF
:10643000C91F4CE0C0F3C051C0F3C612C90500F03B
:106440007F0341EAC211194341F480213FE0A4F5E2
:106450004074F93C1FD00F2C35D0B44237D12349BA
:1064600035E0234BE21A9C421BD00BDC214AA218D8
:106470001DD0802A19D0AA4211D0A2F58062073A15
:1064800025D117E00F2A18D0B2420CD01A4BDA42AD
:106490001DD11A491BE01A4919E01A4917E01A4997
:1064A00015E01A4913E01A4911E01A490FE0194999
:1064B00080390CE01449C91D09E014490F3106E088
:1064C0001049803903E00E490F3100E0114600F019
:1064D000804300F000520B431A4300F00060104369
:1064E00070BD000040040600470404004010040092
:1064F00000047E00000482FF00F801FF40108201CA
:1065000040080400C00004004004840040088400E7
:1065100040108400C000840070B514460D46064645
:1065200000F00CF840B17068C5EBC50110EB8100BC
:1065300002D04460012070BD002070BD28B14168C8
:1065400019B1408808B10120704700207047000051
:10655000020010B52AD01068154BB3EBC01F03D052
:10656000144BB3EBC01F01D1012000E00020084212
:106570009069406802D01F3020F01F005369D9B2E3
:10658000012900D000211B0A07E0012907D09469E6
:1065900054F821406043491C1AB11C4602E0012412
:1065A000F8E700248C42F0DC002800DC002010BD5D
:1065B000006000420060000209A108B5096800916E
:1065C00048B101789DF80020914204D10422694627
:1065D000FAF720F908B1002008BD012008BD00002D
:1065E000038404842DE9FF4F2DED020B82B0DDE919
:1065F00013E8DDE91609DDF848B0189C00FB08F047
:106600005843002702EB800A9DE06142002900DC2C
:106610000021ABEB0402424500D34246661801FB61
:1066200003F0511AABEB01055E435D430195A8EB06
:10663000010203FB01F505990AEB80005A4301EBC7
:10664000860100920026F0EE400A6FE0002225F05D
:106650000F0C58E091ED004AD0ED004AD1ED011A3F
:1066600090ED011A44EE840AD1ED023A90ED022A2F
:1066700091ED033AD0ED032AD0ED044A41EE210A10
:1066800091ED054A90ED051AD1ED071A42EE230A65
:10669000D0ED063A90ED072A203042EE830A91EDC4
:1066A000043AD1ED062A203144EE830A41EE040A71
:1066B00043EEA20AB1EC043A42EE210AB0EC041A0D
:1066C00041EE030A90ED013A91ED021A41EEA30A60
:1066D000D0ED001AD1ED013A42EE040A90ED024AE3
:1066E00091ED032A42EEA40AD1ED004AD0ED032A2F
:1066F00010301031103241EEA40A43EE230A44EE6A
:10670000010A42EE820A9445A4DC06E0B0EC011ACC
:10671000521CF1EC011A41EE210AAA42F6DB019A61
:10672000761C01EB8201009A00EB82004E458DDB66
:1067300004987F1CC0ED000A1199049800EB8100B9
:106740000490199804447745FFF45FAF08B0BDE8A2
:10675000F08FF0B5042BDDE9055400EB840427D05D
:10676000082B27D12FE06E08002312E00F783F0995
:1067700002EB870797ED000A80ED000A11F8017B14
:1067800007F00F0702EB870797ED000A80ED010A7B
:106790000830B34203F10103E8D3EB0708D011F846
:1067A000013B1B0902EB830393ED000AA0EC010AF5
:1067B000A042D8D3F0BD11F8013B02EB830393ED67
:1067C000000AA0EC010AA042F5D3F0BD1CB50023DD
:1067D0000522CDE90023024A012300F051FA1CBD35
:1067E000B80800242DE9F0438FB016460F46054641
:1067F0000021FFF7EBFF10F0FF0F80460BD168463A
:1068000000F032F820B1A7B100240DF10C090CE022
:10681000286800F03DF80FB0BDE8F08357F8242059
:1068200021464846FFF778FE641CBDF80E00A042E2
:10683000F4DC76B100246F4607E000BF56F8242050
:10684000381D2146FFF768FE641CBDF80600A04213
:10685000F4DC2868694600F049F818B9286800F0A7
:1068600017F880464046D6E71FB500280CD00749E8
:10687000D1E90023CDE90023D1E90221CDE90221AC
:1068800002A96A4600F082F904B010BDC8BA000837
:1068900000F050BA30B5A3B00C46054600F08CF9B4
:1068A000FCB1F0B1104988226846F9F7DFFF00F02B
:1068B0004DFB049000F052FB059000F05DF909904B
:1068C00000F0D4F969460A90284600F08FF80028B5
:1068D00005D0882269462046F9F7C8FF012023B079
:1068E00030BD0020FBE7000040BA00082DE9F04170
:1068F0000D46064600F02CFA041E0DD0294601F084
:10690000F5FA07462946204601F09AFA00EA0704FC
:10691000304600F0A3FA2040BDE8F08110B90248EB
:10692000024A026000F080B9B80800240001C0A14A
:1069300010B90248024A026000F0E3BAB808002425
:106940000001C0A100F0ADBA2DE9F041C66B0025F1
:10695000416B04468163CEB1D9B10120226CB047AE
:106960000CE00220226CB047A06BFFF71FF907462E
:10697000226C0320A16BB0476D1CA763A16B00299B
:10698000EFD106E0FFF712F96D1CA063A06B0028A1
:10699000F8D12846BDE8F08103460020596B002954
:1069A00008D00A69401CCB608A4203D0002A01D07B
:1069B0001146F6E770472DE9F041446B002594B18C
:1069C000012600272079C00707D0216A204611B18F
:1069D0008847304600E0384605442069A04202D08E
:1069E00008B10446EEE72846BDE8F0812DE9F04104
:1069F0008CB00C4600F0E0F805000DD064B100202A
:106A0000E067686B60B1E16F491CE1670169814231
:106A100006D029B10846F6E700200CB0BDE8F081A9
:106A2000E06F70B1A88D00B1286B04F13C01FFF755
:106A3000C9F8208738B1A88D012807D9286B0C30F8
:106A400005E0182228E01822122126E0002004F197
:106A50004001FFF7B7F8608730B105F12400074621
:106A6000FFF76CFD18B10AE01822132115E0384633
:106A7000FFF764FD18B1E88C08B113220CE005F1B2
:106A80001C008046FFF75AFD58B94046FFF756FDF7
:106A900038B1E88B28B112221121284600F02BFAD8
:106AA000BAE76868C4F88000FBF748F82C48206112
:106AB00000F054FA606100F05FF8606200F0D6F810
:106AC000A062A86C00F054FA206226A1606CFFF767
:106AD00021FA50B126486064D5E90901C4E91401DE
:106AE000D5E90701C4E9120138E0224A07AE0FCA0E
:106AF00086E80F001F491C2268461031F9F7B6FEE0
:106B000007A8069004F1600069461C220646F9F7C2
:106B1000ADFE04F1440069461C220446F9F7A6FEC6
:106B20003846FFF70BFD50B13846FFF707FD08B1B7
:106B3000A96A00E0002130461C22F9F797FE404682
:106B4000FFF7FCFC50B14046FFF7F8FC08B1296A9A
:106B500000E0002120461C22F9F788FE01205CE7B6
:106B6000586F0008676574207265706F727400005A
:106B7000DECAFAA164541308034810B50469FAF791
:106B8000DDFF204610BD00003854130810B570B169
:106B900069B162B1074C01230460D1E90041C0E949
:106BA0000141D2E90012C0E90312184610BD0020CD
:106BB00010BD0000DECAFAA110B518B1044A016880
:106BC000914200D000200446FAF7B8FF204610BDDD
:106BD0000001C0A130B44AB140B139B1074C1368CB
:106BE000A34206D130BC0C32FFF772B930BC002092
:106BF000704730BC1C32FFF743B90000DECAFAA16F
:106C000030B44AB140B139B1064C1368A34206D141
:106C100030BC121DFFF75CB930BC0020704730BC9F
:106C2000FFF72EB9DECAFAA1F8B50E46FFF7C4FF8A
:106C300004000AD000270097A08D00B1206B6946A0
:106C4000FEF7C0FF050006D00BE01022114600F051
:106C500052F90020F8BD18222046112100F04BF90E
:106C6000009706B135800098F8BD0000034810B5C4
:106C70004469FAF763FF204610BD0000385413083A
:106C80002DE9F04F89B04FF0000A90460646504675
:106C90005446DDE9122163F307009B46019262F33B
:106CA0000F20039161F317400546FAF7CBFE1E4F04
:106CB000F8B1FAF743FF06B31C49C8F80010C6F84C
:106CC000008000F091FAD0B1FFF7D0FF002281469A
:106CD000C5F30721E8B200F070F90022054609F07B
:106CE000FF00C9F3072100F068F9854209D07C68EC
:106CF0000FE0F86909B0BDE8F08F386AFAE73C6840
:106D000007E00BA0006800906846FFF755FC10B93B
:106D1000BC68C6F800A05846039A019900F04DF9E6
:106D2000C8F848002046E5E7385413080001C0A120
:106D30000384048410B5FFF73FFF20B1BDE8104085
:106D4000103000F04BBA0148806910BD3854130868
:106D50002DE9F04F91B00C46FFF72EFF050013D040
:106D6000B4B120683AA1FFF7D5F806004FF0000B48
:106D700011D020680190D4E90301CDE90401D4E9E0
:106D80000101CDE9020144E0002011B0BDE8F08F1F
:106D90001122102159E0D4F804A001212046FFF768
:106DA000D7FBD4F820908046012104F11C001090FC
:106DB000FFF7CEFB28491422074606A8F9F756FD2F
:106DC000B8F1000F4FF0010002D0ADF81E0002E054
:106DD0000024ADF81EB008941FB11099ADF826003C
:106DE00002E00021ADF826B0B9F1000F0A9102D1FE
:106DF0000FB1132206E0BAF1000F05D1B8F1000F70
:106E000002D0122210211FE0142206A901A8F9F7CE
:106E10002DFD86F0010202A9144605F11C00FFF7C2
:106E20000AF868B104A9224605F12400FFF703F827
:106E300040B10320E8602846FFF7AEFD2846A4E7EE
:106E4000122200E013221621284600F054F89BE796
:106E5000696E6974000000009054130870B5FFF764
:106E6000ABFE041E08D0207B800706D410222046EB
:106E7000112100F040F8002070BD2046FFF79BFD77
:106E8000E06B60B1656B55B1D4E90F320020294643
:106E900098472869A84202D008B10546F4E70120C6
:106EA00070BD70B515460E46FFF786FE04462A46AD
:106EB0003146FFF739F800281CD0A08D08B1266BA9
:106EC00000E00026012802D9256B0C350DE00025D5
:106ED0000BE03046FFF74FF92046FFF735FD284617
:106EE000FFF77EF9E08A401CE082E08AA18A8842AE
:106EF000EFD380B270BD002802D0103000F076B918
:106F00007047F8B50E46FFF757FE040007D000277C
:106F10000097A08D012808D9206B0C3006E01022C4
:106F20001146FFF7E8FF0020F8BD00206946FEF794
:106F300049FE050005D1182220461121FFF7DBFF8D
:106F4000009706B135800098F8BD000010B5FAF73B
:106F5000F5FD01A010BD000000000000034810B5C1
:106F6000C468FAF7EBFD204610BD00003854130842
:106F7000030E020C010A002063F3070062F30F20E6
:106F800061F317407047016802460120090A04E0D6
:106F90005368491E53F8213058430029F8D17047EF
:106FA000016802460120090A04E05368491E53F8AB
:106FB000213058430029F8D17047000640EA0140CB
:106FC00040EA022070470000084A002310B5064C32
:106FD000C2E90230C2E900411046FCF7C1F9BDE840
:106FE00010400248FCF70CBA00100040489C0324F3
:106FF0002DE9F05F891E9A46036B914601F0070266
:107000004FF0010B06460BFA02F003EB1134C1F30B
:10701000C807C5B22146641C304602F044FF10B1D7
:107020000120BDE8F09F4FF4007C5B46F11991F818
:107030003800284202D04FF0010801E04FF000086C
:10704000D04501D10220ECE7684081F83800A9F171
:107050000100F3705FEA000909D0680010F0FF0535
:10706000E4D101257F1C6745E0D30027D2E700204B
:10707000D7E7000010B504460022501EE27060639E
:10708000204602F010FF08B1042010BD04F23620A3
:1070900002F0B8FDA0F52A41553901D0032010BDFA
:1070A0000B2211A104F1380002F0DEFE40B194F889
:1070B0003800E92806D0EB2804D0E82802D011E0F7
:1070C000012010BD03220BA104F16E0002F0CCFEE2
:1070D0000028F6D0052208A104F18A0002F0C4FEBF
:1070E0000028EED0022010BDEB7690455846415462
:1070F0002020200046415400464154333200000015
:1071000000E0401C02780AB18A42FAD1D0B270473E
:1071100070B5046D590A0068241D4589500A40EA7B
:10712000C35000232A46F9F7BAF902CC21B18842AC
:1071300004D3401A241DF8E7002070BD21680844DC
:1071400070BDC269891E921E8A4201D80020704714
:10715000026B408900FB0120704700002DE9F05FC1
:107160000C46824601F11A0002F04CFD78BB2078F3
:1071700001270026DFF8609000F03F004FF6FF7B0C
:10718000401E00EB800101EBC00500BF19F80600AE
:10719000204402F037FD80466FB1FF2D17D201F079
:1071A0001BFB07463AF815006D1C01F015FB8742E2
:1071B0000DD1474601E0D84509D1761C0D2EE5D307
:1071C0002078400606D52FB13AF8150010B10020FE
:1071D000BDE8F09F0120FBE744A8100801680022E9
:1071E000027002600846704701207047037813F070
:1071F000FF0F01D0002070470170016862F31F216A
:107200000160012070472DE9F04706685FEA010838
:1072100007462BD04146384602F0CAFA022846D328
:10722000411C45D0F169814242D84546B0690028E9
:107230003ED030784FF0FF3904281ED045455FD14D
:10724000F0696C1CA04200D802243846214602F0A6
:10725000AFFA01282CD0411C2AD080B370690228D3
:107260004ED3F16981424BD9054649E0756915B1A4
:10727000F069A842DAD80125D8E70122294630462C
:1072800001F02AFB040063D0601C61D00123214679
:107290001A463046FFF7ACFE022808D0012809D074
:1072A000B8F1000F08D0F979022909D010E00120C7
:1072B000BDE8F0874846FBE70221F97144E01EE093
:1072C000691C8C4240D0BA680321F971AA1ABA61CC
:1072D00008F101018C4206D1F96909B1491C00E0AD
:1072E0000221F96130E0F869012500B9FD6122460B
:1072F0004146384601F0D7FA38BBFD612AE0ACB907
:107300002C46F069641CA04203D8022D4FF0020401
:107310000AD32146384602F04BFA38B10128C7D0CB
:10732000411CC5D0AC42ECD10020C1E74A46214601
:10733000304603F009F840B9B8F100000AD02246FF
:107340000146304603F000F820B101280FD0012497
:107350002046ADE7D6E906017461891E884201D84E
:10736000401EB061307940F001003071F0E74C46CA
:10737000EEE700002DE9FC5F8246086800250E4616
:1073800001904FF48038DAF80000C76801A804F0D3
:10739000AEF9411C39D0404503D3010C27F8151034
:1073A0006D1C84B2202C12D32F2C10D05C2C0ED04C
:1073B000802C04D274A02146FFF7A2FE28BBFF2D2B
:1073C00023D227F815406D1CE0E7401C019001987E
:1073D00001782F29F9D05C29F7D0202C306001D218
:1073E00004240AE0002408E007EB450030F8020C12
:1073F000202801D02E2802D16D1E002DF4D10020AE
:1074000027F815000DB1002603E00620BDE8FC9F1B
:10741000761C37F816002028FAD016B938882E289E
:1074200003D144F0030400E06D1E2DB107EB4500CD
:1074300030F8020C2E28F7D10B2220210AF140004F
:1074400002F02AFD4FF000084FF0080BCDF8008045
:1074500037F8160006F101065FEA000924D0B9F1F9
:10746000200F04D0B9F12E0F04D1AE4202D044F067
:107470000304EDE70099594501D2AE4219D1BBF1A1
:107480000B0F0FD0AE4201D044F003040CD84FEAEA
:1074900088612E464FF008004FF00B0B4FEA116841
:1074A0000090D5E744F003049AF84000E52847D05F
:1074B00049E0B9F1800F484608D344F0020401F0D6
:1074C0008BF94FF46A7101F05DF98146B9F1FF0F54
:1074D00013D90099ABF10100814204D344F00304B5
:1074E000CDF800B0B4E700984FEA19220AEB00018A
:1074F000401C009081F840201AE0B9F1000F04D040
:10750000014624A0FFF7FCFD18B15F2044F00304FE
:107510000DE0A9F14100192801D848F00208A9F1AD
:107520006100192804D8413080B248F00108814632
:10753000009A00995244491C009182F8409087E7D4
:1075400005218AF84010BBF1080F03D14FEA88608B
:107550004FEA1068C8F38100032803D06FEA0800DF
:10756000800701D144F00204A00709D45FEAC87083
:1075700001D044F010045FEA487001D544F00804DB
:107580008AF84B40002041E7222A3A3C3E3F7C7F6C
:10759000000000002B2C3B3D5B5D00002DE9F05FFF
:1075A000402289460021054602F076FC00264FF075
:1075B000010885212970C02037464024B2464FF08B
:1075C000C10B85F8200000BF05F804B0641C05F865
:1075D00004A0641CB8F1000F06D039F816005FEA69
:1075E000000801D0761CF6B24146281903F0D1FFFD
:1075F000A41CE006EED139F816007F1CFFB200286B
:10760000E2D185F823607F1C48466F7004F0E6F8ED
:10761000014605F12400BDE8F05F03F0BABF812800
:1076200003D3FE2801D801207047002070470000D6
:1076300001490860704700003C0E00244FF47A7145
:10764000484300F001B800000B49002270B54FF02C
:10765000E024096865694843A369A1699942FCD09F
:1076600002D2A3EB010302E0A5EB010633441A4466
:107670000B468242F1D370BD3C0E00242DE9F0414F
:1076800006680F460021044600F016FBE8B9002505
:10769000A16B304602F007FCB8B931780429E16BE0
:1076A000097803D0E52905D021B107E041F3C011E5
:1076B000491C03D06D1CBD420AD000E000252046C5
:1076C000012100F001F90028E2D0042800D10720B0
:1076D000BDE8F0812DE9F0470C46054603F0E4FFD4
:1076E000B8BB21462846FFF72CFD4FF4007706462D
:1076F000686305F1380000213A46804602F0CCFB71
:107700006889BC01B4EB402F04D9440200E064084E
:10771000BC421FD9204601F007F85FEA0009F6D005
:10772000BC4217D90021224602F0B6FB670A0024AA
:1077300000E03C446889A04207D9687832193B468A
:10774000494600F067FB0028F3D0484600F0F0FF00
:107750000FE011E00127002400E03C446889A042CA
:1077600007D9687832193B46414600F053FB0028A0
:10777000F3D06889A04202D00120BDE8F087002044
:10778000FBE72DE9F05F05680021044600F094FA5C
:1077900000284CD1287804280CD0FF264FF0FF3861
:1077A000B146C4F84C80A16B284602F07CFB070070
:1077B0004ED13EE0E86804F011F882462FE02869D7
:1077C000243002F01FFA504529D1296940264FF094
:1077D000000991F8238017E0F00600D1B61C286953
:1077E000304402F00FFA00F0F7FFE968074631F87D
:1077F000190000F0F1FF87420AD1A8F10100B61C80
:1078000000F0FF0809F10109B8F1000FE4D102E02E
:10781000B8F1000F03D1E96831F8190030B1002147
:10782000204600F0B2F85FEA000BC8D05846BDE829
:10783000F09FE16B087850B1CA7AE52802F03F0268
:10784000A27135D0130704D50F2A31D105E00427E2
:1078500038E00F2A01D0DEB11FE094F84B20520629
:1078600029D4420606D591F80D9000F0BF00236B95
:107870000646E364B04208D14A7B4A4505D1E86830
:10788000FFF76CFC08B1761E00E0FF26F6B212E0AE
:10789000084603F0B7FE484514D094F84B00C007E3
:1078A00006D1E06B0B2204F1400102F0DDFA48B191
:1078B000FF26C4F84C800021204600F005F80700A0
:1078C0003FF471AF3846B2E72DE9F0470446066B46
:1078D000806B89462036276830B13978042906D074
:1078E0004FF40011B14205D80420BDE8F0874FF0F5
:1078F0008051F7E7F10540D1616B401C4FF0000863
:10790000A06329B17889401E10EA562F05D034E0D3
:107910003889B0EB561F1FD92FE0204601F048FFF1
:10792000012805461DD9681C14D0F869A8421ED844
:10793000B9F1000F10D0616B2046FFF764FC050021
:107940000DD0012D0DD0681C04D029463846FFF714
:10795000C1FE40B10120C8E7C4F83880C4E7072061
:10796000C3E70220C1E7E07940F00400E071294656
:1079700038466563FFF7E5FBA063C6F308003844AB
:1079800026633830E0630020AFE72DE9F047042696
:107990000768FF2489460546A0465FE0384602F0A6
:1079A00082FA06005ED1E96B087898B13A78042A29
:1079B00012D0CA7AE52802F03F02AA7108D02E2818
:1079C00006D022F02003082B1BD0B446CC451BD098
:1079D000FF2433E0042645E0B9F1000F02D08328EC
:1079E00042D02BE0852829D1286BE864284602F094
:1079F0002BF9060036D13869007900F03F00A871F4
:107A000032E04FF0010CE1E70F2A01D014BB1CE07B
:107A1000420606D591F80D8000F0BF002B6B04469E
:107A2000EB64A04208D14A7B424505D1F86802F0D8
:107A300013FC08B1641E00E0FF24E4B228460021D4
:107A4000FFF742FF060009D00CE0084603F0DAFD1C
:107A5000404509D04FF0FF30E86405E0A96B0029EC
:107A60009CD10EB10020A8633046BDE8F08700002D
:107A70002DE9F04F044690F84B009BB010F0A00F9A
:107A8000256803D006201BB0BDE8F08FE86800260B
:107A900000E0761C30F816100029FAD12878042866
:107AA00019D00C2204F14001059118A802F0EAF95E
:107AB0009DF86B00C0076BD0402084F84B00012775
:107AC000EA68059818A93B4601F02AFE2046FFF710
:107AD00058FEE8BB51E00F200E36B6FBF0F620460C
:107AE000B61C3146FFF7CAFD0028CCD17342E079BD
:107AF000226B202101EB43111144E164420736D58A
:107B000020F00400E071204600F0B6FE0028BAD153
:107B1000421E616B204600F0C6FE0028B3D1A0686B
:107B200028B304A8214602F072F80028ABD1688976
:107B3000D4E904234002121843F10003C4E90423EA
:107B40002869383003F000FDD4E90423286900E0F7
:107B500016E0283003F0F8FC2969E07940F00100D4
:107B600081F8210004A803F018FD00288BD1D5E985
:107B70000310FFF713FD002085E77F1C642F9FD3C0
:107B8000642F0FD00428F7D19DF86B0084F84B00C8
:107B90009DF86B00800707D50D200C36B6FBF0F77B
:107BA0007F1C02E007206EE7012720463946FFF7D9
:107BB00065FD06007BD17F1E079760D0216B784260
:107BC00001EB4011204600F077F806006FD10598D0
:107BD00003F018FD4FF6FF7B0A90A16B284602F0D8
:107BE00062F9060063D107980F23D4F83C90002275
:107BF000C0B20490E8680A99029009F11A0089F865
:107C00000D10114689F80B3089F80C2003F0C1FCE7
:107C100004980027DFF89CA0401E00EB800202EBD6
:107C2000C00801E05E4504D0029830F8186008F101
:107C300001081AF8071001EB0900314603F0A9FC0E
:107C400006B95E467F1C0D2FECD35E4505D0029829
:107C500030F8180008B1049803E0049840F04000A0
:107C6000049089F8000001200021E8702046FFF709
:107C70002BFE06001BD10798401E0790ADD1A16BCB
:107C8000284602F010F9060011D1E06B20220021F5
:107C900002F002F9E06B0B22059902F0F3F8E26BB7
:107CA000012094F84B1001F018011173E870304670
:107CB000E9E6000044A810082DE9F04106680546F1
:107CC0000F463078042806D04FF40010B8423CD953
:107CD000F8063AD102E04FF08050F7E7AC682F6326
:107CE00034B93078032807D3F46A0020E8711CB156
:107CF00070894FEA402812E03089B0EB571F24D931
:107D0000F06A12E0284601F053FD0446401C1AD0E8
:107D1000022C1AD3F069A04217D9A7EB0807214615
:107D20004745EFD23046FFF70CFAC5E90D4060B188
:107D300000EB5722C7F3080188193830C5E90E2037
:107D40000020BDE8F0810120FBE70220F9E710B533
:107D500018B902F027FD002800D0012010BD000056
:107D600010B514464FF4007218B101281BD0012041
:107D700010BD39B1164B01290CD0022904D00329BA
:107D80000FD104E0002010BD0020226010BDB3F828
:107D9000501011E0D3E912010023F8F7F7FB014678
:107DA00012E0042010BD0029ECD001290AD00229DC
:107DB00005D00329F5D108212180002010BD002025
:107DC000228010BD4FF448412160002010BD00000A
:107DD000F09B032470B51C0015460E4602D018B166
:107DE000012070BD042070BD1A4605E006A0F8F71A
:107DF000F1FB02F0D7FC22462946304602F060FD36
:107E00000028F3D170BD00007A7A7A7A7A7A7A0003
:107E10000020704770B51C0015460E4602D018B100
:107E2000012070BD042070BD1A4602E002F0BAFCC9
:107E300022462946304602F055FD0028F6D170BD95
:107E40002DE9F041044628480A460121FEF7C2FE0A
:107E5000F0B3254847F2BC51234AB832006802F11A
:107E6000100402F1200543189360D36000F18001F3
:107E7000A16002F13006E16002F14007A96002F161
:107E8000500CE96000F57453B0606032F06002F1AC
:107E90001001BB607034FB607035CCF8080000F551
:107EA0008066CCF80C009360D3604032886001F1AA
:107EB0004003C8608037A66000F11001E660A8604A
:107EC000E8609660D6609860D8600120B96000E0F4
:107ED00002E0F960BDE8F081132220463021FFF76F
:107EE0000AF80020F6E70000200700242DE9F047FB
:107EF000044651480A460121FEF782FE00287DD043
:107F00004D494E4E091D4E4D081F00F14402D1F857
:107F100000C000F1340700F154034CF0804CC1F86C
:107F200000C000F1640400F1740900F1840A0068E3
:107F3000A2F1300C8860C860A2F1300800F1800125
:107F4000DCF800C005444CF0804CC8F800C0C446C2
:107F5000A2F12008CCF80810CCF80C10A2F1200CEB
:107F600000F5A141DCF800C04CF0804CC8F800C01E
:107F7000C446CCF80810CCF80C108031D7F800C0FB
:107F8000B9604CF0804CC7F800C0F96080311768C8
:107F9000916047F080471760D160803182191E6878
:107FA000996046F080461E60D9602168A260E26058
:107FB00041F08041216004F13001D9F80020C9F876
:107FC000085042F08046C9F80060C9F80C5001F131
:107FD00010021C4B1C4CDAF8006003441B4D044497
:107FE00046F08047CAF80830184E0544CAF80070B9
:107FF0001036CAF80C3001F1F00300E015E00F680C
:1080000030448C6047F080470F60CC601168956009
:10801000D56041F0804111601968986041F080415D
:108020001960D8600120BDE8F08712222046302177
:10803000FEF761FF0020F6E72407002400D20B00C2
:1080400000D60B0000D60F0000DA0F0000EA0F0088
:1080500070B5164D00244FF40E760020314601F025
:10806000FDFF45F8240018B1641CE4B2032CF4D3DE
:108070004FF416760020314601F0F0FF0C4D3146EA
:108080002860002001F0EAFF4FF4007168600020D2
:1080900001F0E4FF032CA86006D1296821B16968CA
:1080A00011B108B1002070BD012070BD949C032463
:1080B0007016002438B5044600F076FA002807D17F
:1080C0006946204603F056FB002801D100212160BB
:1080D00038BD000017B581B014460298009068467C
:1080E00001F0A8FC002802DA0B2004B010BD0A4AF7
:1080F000002352F8201001B10B70019901B10B70EF
:1081000042F820102CB1002201A902A800F02AFC9C
:10811000EBE70020E9E70000A09C03242DE9F74FDE
:10812000050096B00BD002F03F06694617A832460C
:1081300000F018FC04004FF0000A04D037E10920D9
:1081400019B0BDE8F08F009802904FF48C6000F0F9
:10815000EBFA5FEA00090BD0009809F50071C0E95D
:108160000391179902A800F0B3FD040002D006E0C5
:108170001120E5E79DF85300000600D5062416F00F
:108180001C0F7AD04CB1042C03D102A8FFF770FC6D
:10819000044646F008065CB1EDE09DF80E0010F0D4
:1081A000110F01D00724E6E0700701D50824FBE099
:1081B00030077ED500984FF020084FF0010B017872
:1081C000042925D0119901F0D3FC074601F08EFB5C
:1081D000014611980E3003F06CF91199002281F8D4
:1081E0000B801199009803F050F9119800211C3070
:1081F00003F05FF9009981F803B0EFB3D1F8348050
:10820000002202A8394602F049FA040036D0B2E052
:1082100028602946009801F094FC00981E22002155
:108220000069801C01F038FE00981A2200210069C4
:10823000263001F031FE0098016981F8048001F0D8
:1082400055FB014600980069083003F032F90099A7
:1082500002A8096981F821B003F09FF9040016D142
:10826000A96849B10022284602F018FA009904468C
:10827000A868401E486109E019E009E000984146FD
:1082800001F011FE044600987F1E47616CB172E058
:10829000ECBB9DF80E00C10602D504246BE008E09B
:1082A000B10702D5C0077FF47DAF300701D546F096
:1082B00040060098416BA9641199E964017804298A
:1082C00034D0119901F054FCA86011981C3001F0D1
:1082D00062FCC5E9040AC5F850A0D04600982860A1
:1082E0000020009A0146D288AA804FF4007285F8D7
:1082F000306085F831A0C5F844A0C5E90E0005F14D
:108300005400834601F0C8FDB00656D500E032E0C7
:10831000D5E9046756EA07004FD0C5E90E67009813
:10832000C246A9684089400280461DE0049929623E
:1083300006999DF80F2021F0FF01114369621599FC
:10834000A962294601F0FDFBC5E7284601F030FA95
:108350000128014600D80224481C00D101244046CF
:10836000361A67EB0A0724B90246921B7AEB07001C
:10837000EBD3296424B1484600F0DAF9BCB918E01F
:10838000F0051AD00098FEF7DCFE010013D0700A49
:1083900040EAC75042186A64009801235946407861
:1083A000FFF718FD48B10124484600F0C1F9C5F8AF
:1083B00000A02046C4E60224F6E7484600F0B8F9DB
:1083C000F7E72DE9FF5F00269946154604468846E3
:1083D0001E6002A903F0CEF900281CD194F83100E8
:1083E000002818D194F83000C00713D0D4E9040154
:1083F000D4E90EC30127B346B0EB0C004FF0020ADC
:1084000061EB0301431BB14104F15402039200D21A
:10841000054694E0072004B0BDE8F09F208FC0051A
:1084200071D1D4E90E230298560A46EAC356408910
:10843000401E064013D152EA030005D0206D28B13A
:108440002046FEF765FE05E0A06803E0216C2046AB
:1084500001F0AEF902281BD3411C4DD02064216CE1
:108460000298FEF76EFE98B13044690ACDE900101B
:1084700026D00298721841898A4201D9891B00913D
:1084800040784146DDE90032FFF7A4FCA0BB03E0E1
:10849000022084F831A0BEE794F8300000060CD525
:1084A000616C0198081A0099884206D2039908EB7A
:1084B00040204FF4007201F0E5FC0098460230E0E5
:1084C000626C82421DD094F8300000060CD50298F0
:1084D000012303994078FFF79DFC68B994F83000B8
:1084E00000F07F0084F8300002980123019A03997C
:1084F0004078FFF76FFC20B1012084F831708AE7E3
:1085000001E001986064208FC0F30800C0F5007698
:10851000AE4200D92E46011932465431404601F090
:10852000B1FCD9F80010AD1BB0448A19C9F800207D
:10853000D4E90E21921941EB0B01C4E90E21002D63
:108540007FF46CAF002066E773B594B00E4600224E
:10855000694614A800F006FA050023D14FF48C6098
:1085600000F0E2F804000CD0009904F50070CC6033
:10857000009908616846149900F0AAFB050003D031
:108580000DE0112016B070BD9DF84B00000601D51E
:10859000062504E01EB13146684601F0A9F92046DF
:1085A00000F0C6F82846EDE7F0B599B0044601A9F9
:1085B00003F0E0F8050023D194F8300041061FD500
:1085C000000611D501980123626C04F15401407832
:1085D000FFF720FC10B1012019B0F0BD94F8300075
:1085E00000F07F0084F8300001F080F90646019821
:1085F0000178042905D0A16C01F055FC050060D07C
:1086000084E0204600F038F905007FD1421E216C3D
:10861000204600F048F9050078D14FF48C6000F056
:1086200083F807000BD0019807F50071C0E90371CA
:1086300002A8214601F0EBFA050002D03DE011202E
:10864000CAE7019801690A7942F020020A710269B9
:10865000E17941F0010182F821100069A16834300C
:1086600002F027FFD4E9042301980069383002F0B2
:108670006BFFD4E9042301980069283002F064FFFD
:108680000198314600690C3002F013FF0198002177
:10869000026951750069103002F00BFF02A802F068
:1086A0007CFF050009D1019802F0BAFF054694F855
:1086B000300000F0BF0084F83000384600F038F891
:1086C00024E0E56C2946E87A40F02000E872A268D0
:1086D000206802F0DAFE216905F11C0002F0E9FED3
:1086E00005F11600314602F0E4FE002105F112000A
:1086F00002F04FFF01980121C17002F091FF054681
:1087000094F8300000F0BF0084F83000284663E79A
:1087100082B0CDE9000121F0004001909DED000BF9
:1087200002B051EC100B70470146002001F096BCDE
:108730000146002001F086BCF0B5802802464FF0CB
:10874000000001D21046F0BDB1F56A7FFBD10C4E9E
:108750000023102445F22055E91A03EB510136F8A5
:108760002170974206D001D20B4600E00D46641EF0
:10877000F2D1F0BD002CFCD006EB81004088F0BDAA
:1087800004FD1108F0B580284FF0000301D283B238
:108790001DE0B0F5803F1AD2B1F56A7F17D10D4DBB
:1087A000002186B245F220541022601A01EB5000DD
:1087B00035F82070B74206D001D2014600E00446E9
:1087C000521EF2D103E012B105EB80004388184637
:1087D000F0BD000080A8100830B5B0F5803F20D271
:1087E00080B2B0F5805F01D21B4900E01B4931F82F
:1087F000022B002A15D0904213D331F8023B52FAD3
:1088000083F51C0A8542DBB221D9092C09D2DFE8A5
:1088100004F005090E10121416181A00801A31F807
:10882000100030BD811A01F00101401A0DE010382E
:108830000BE0203809E0303807E01A3805E008304E
:1088400003E0503801E0A0F5E35080B230BD002CC9
:10885000CDD101EB4301CAE7885113087A531308BD
:1088600000B5C9B06946FFF76FFE18B14FF0FF3091
:1088700049B000BD0098FBE770B50446C0790328F5
:108880000FD1A669A56808E020686A1C294601F096
:108890005BFD002806D16D1C761E002EF4D1002051
:1088A000E071002070BD70B516460D460446C069E3
:1088B0000FE0012802D92A1A921C00E03246291A38
:1088C0002068491C01F040FD002804D1E069401EE9
:1088D000E0610028EDD170BD2DE9F0470646C06982
:1088E0008D1E9246801EA84200D8002500272C46E7
:1088F0004FF40078A946306B00EB1431304601F09C
:10890000D2FA18B14FF0FF30BDE8F0870120F269CC
:1089100004F00703C4F3C8019840921EC0B2731854
:108920004FEA406C641C93F83830944203EA000329
:108930004FEA1C6002D30024414620462BB1002799
:10894000A146AC4207D10020DEE77F1C5745F8D195
:1089500009F10200D8E70028E1D10120491C414576
:10896000DDD3C8E72DE9FF5F002790460E460F6074
:1089700001F060F8050003D50B2004B0BDE8F09FBE
:10898000CD4850F825409CB1346008F0FE062078B0
:1089900020B16078FFF73CFAC1070BD02770B846CA
:1089A000E8B26070FFF7D3F9C10708D00320E4E70D
:1089B0000C20E2E70EB1400704D40020DDE71EB131
:1089C000400701D50A20D8E7002520462946FEF7B2
:1089D00051FB022820D16F4604EB051090F8FA11E4
:1089E00000F5FB7019B1083001F0D5F800E0002067
:1089F00047F825006D1C042DEED3002657F82650AD
:108A000035B129462046FEF735FB022801D203E0A6
:108A10000320761C042EF1D304287BD002287BD2BD
:108A200001284FF0FF3A4FF400760CD004F14300D8
:108A300001F0E8F8B0426FD104F14E0001F0E2F825
:108A400001006AD085E00B2002E0401C402806D2DD
:108A5000211891F838100029F7D040285CD304F190
:108A6000A00001F0CFF8B0F5807F55D194F8A400B4
:108A70000127B34607FA00F058454DD104F18000B4
:108A800001F094F8C14610EB050841EB0906012EF0
:108A900042D204F18C0001F07EF8014694F8A60061
:108AA00021620128A07037D194F8A50087403804CE
:108AB000000C608130D004F1940001F06CF87F4923
:108AC0000746884228D8B81C6562E06104F190002E
:108AD00001F061F82844206304F1880001F05BF89C
:108AE00061890544226BA5627943511849EB09005D
:108AF000B8EB010186410FD304F1980001F04BF867
:108B00000146E0622046FEF71CFB0146204601F0CC
:108B1000CAF918B1012030E75FE015E000255E4694
:108B2000601990F83810812904D14C3001F033F8E5
:108B3000022802D02035B542F2D3B5426AD00426CD
:108B40005046C4F818A0AEE004F15C0001F023F830
:108B5000014694F848702162012FA77001D0022FBE
:108B600058D14F4394F845006081B0B3411E08428C
:108B700050D104F1490001F045F80107208149D1A5
:108B800004F14B0001F03EF8060004D104F1580056
:108B900001F001F8064604F1460001F033F8020046
:108BA00038D02389D01900EB13118E4232D360895B
:108BB000761AB6FBF0F080B1DFF804C100266045FC
:108BC00000D803264FF6F57C604500D8022640F613
:108BD000F57C604502D8012601E01BE0D6B12A44AD
:108BE000801C29442163E061032EC4E9095213D09B
:108BF00083B1D119E162022E1FD000F0010100EB18
:108C0000400001EB500000BF216A00F2FF10B1EB01
:108C1000502F14D20D20B0E604F1620000F0F2FFF4
:108C20000028F7D120890028F4D104F1640000F075
:108C3000B2FFE169E0628800E6E74000E4E7C4F8DB
:108C400018A08021C4F814A0032E21712CD104F1A6
:108C5000680000F0D7FF012826D1691C204601F0EA
:108C600022F908BB04F2362084F8048000F0CAFF21
:108C7000A0F52A41553917D104F1380000F08BFFD7
:108C80001049884210D104F5077000F084FF0E49A6
:108C9000884209D104F5087000F07DFFA06104F559
:108CA000097000F078FF6061084926700888401C50
:108CB0000880E08081E60000A09C0324FDFFFF7F88
:108CC000F5FFFF0F52526141727241617C16002420
:108CD00073B505680446019801E0401C01900178D5
:108CE0002F29FAD05C29F8D00020A060E06101981B
:108CF0000078202807D2802084F84B0000212046ED
:108D0000FEF7DAFF7CBD01A92046FEF733FB002801
:108D1000F8D12046FEF735FD94F84B1028B1042811
:108D2000F0D14907EED405207CBD4907FCD4A079D9
:108D3000C006F8D52878042809D0208EC0F3080092
:108D400041192846383100F013FFA060DBE72069A5
:108D5000E16CE37920F0FF00A26818432262C4E9C5
:108D600009012146284600F0ECFECCE72DE9F04F42
:108D7000044680699EB0018809B1426800E0002283
:108D800052682AB109B1426800E0002252681268B4
:108D9000012902D943680C3300E000235B6843B12A
:108DA000012902D940680C3000E0002040680068CA
:108DB00000E00020236BD168956986691A68C06855
:108DC000CF68C2F1000A0F975B681C93AB681793DA
:108DD000B3680793C36818938068109088680490FC
:108DE000D1F80490E0690990206A0890606A1690B2
:108DF000A06A159000206CE0CAF10001002900DC97
:108E000000210F98514406910899A0EB0A0088426E
:108E100000D3084600EB0A081C984542002050E0A9
:108E20006842002800DC0020049928444A1B099964
:108E30008A4200D30A46049B06992A44069F94F866
:108E4000346001FB0301831A101A1A90A7EB08077C
:108E500000FB09F07B4313934FF00007049A01FBDA
:108E600009F102FB09F219921490179800EB810B9B
:108E70001EB1DDE90810484300E01398069E1D90DE
:108E8000012014E01A990F441399B94201D11D9998
:108E900000E000214B46CDE90010149A594607988E
:108EA00001F014FA19990020761C0BEB810B464552
:108EB000E8DB079901EB89000790169805440D98A7
:108EC000401C10990D908842AAD315990E988A4497
:108ED000401C0E900146189881428DD31EB0BDE80B
:108EE000F08F2DE9F0478169088808B14A6800E0F1
:108EF0000022526832B108B14A6800E0002252688C
:108F0000146800E00024012802D94A680C3200E00D
:108F10000022526842B1012802D94A680C3200E0AE
:108F200000225268166800E00026022802D94A682A
:108F3000183200E00022526842B1022802D94A6881
:108F4000183200E000225268156800E0002502286F
:108F50000BD9486810F1180F07D030F8181F0129F5
:108F600003D9406808B1476800E0002704F1080011
:108F7000FEF716F80246E068B169A369D0F80490DC
:108F80008C689E68A8692FB3B969D0F80880002062
:108F9000D1F808A01AE000EB0903014613E00D1A0E
:108FA00006EB810C0AEB850708EB850597ED000AB7
:108FB000DCED000A95ED001A04EB8107491C00EE78
:108FC000810A87ED000A8B42E9D818469042E2D325
:108FD000BDE8F0878568002016E000EB0903014634
:108FE0000FE00F1A06EB810C05EB87089CED000AD9
:108FF000D8ED000A04EB8107491C20EE200A87ED1A
:10900000000A8B42EDD818469042E6D3E0E72DE9FE
:10901000F04F81699FB00A88B2F1000900D04A6818
:1090200052682AB15FEA090200D04A6852681268A1
:10903000B9F1010F924602D94A680C3200E00022D1
:10904000526842B1B9F1010F02D94A680C3200E00E
:10905000002252681268B9F1020F089202D94A68D8
:10906000183200E00022526842B1B9F1020F02D971
:109070004A68183200E0002252681268B9F1020F03
:109080000BD94B6813F1180F07D033F8184F012C88
:1090900003D95B6813B15B6800E000239469089D05
:1090A0000994C66BB0F828C0D5F80CE0A4681FFA84
:1090B0008CFC0A94B0F82C80DEF8045017951FFA47
:1090C00088F83588B688078EADB2CDF86CC0B6B2D8
:1090D000B0F834C0BFB2CDF86880D2681995DAF81C
:1090E00018500296DAF80C600D971FFA8CF70C975F
:1090F000D2E901BA72681D92C0690B90A868079402
:109100001290DEF80C000590DEF808001690F0686A
:109110001590B068139013B19869856800E0002538
:109120000998DDE90C64AAF10107761ED0F800E089
:10913000641E0898ABF1010207FB06A6CEF3C61326
:10914000D0F81880CEF3415CCEF3434723FA0CF3FA
:10915000D8F80800A84602FB04B514900020042F9C
:1091600001D0082F23D1099AD26802B3B9F1030FB5
:1091700002D94C68243400E00024646864B1B9F179
:10918000030F02D94868243000E0002040680068DE
:1091900010B181698C6800E0002481691D984968DC
:1091A000CDE900010A992046FDF7D3FA04B9079CDE
:1091B0000BAF224697E80B0019AFCDE90F10CDE9B0
:1091C0000D5397E80B0001AFCDE90903CDE90B166C
:1091D0000298CDF818B0CDE907A0DDE91534139950
:1091E000179887E81B001D98434600901499129821
:1091F00000F0FAF81FB0BDE8F08F00002DE9F04F45
:109200002DED028B87B08069018809B1426800E0CA
:109210000022526832B109B1426800E0002252686F
:10922000156800E00025012902D942680C3200E0EF
:109230000022526842B1012902D942680C3200E092
:1092400000225268146800E00024022902D9426812
:10925000183200E0002252683AB1022902D942686D
:10926000183200E0002252681268022993460BD996
:10927000426812F1180F07D032F8183F012B03D9BA
:10928000526812B1526800E00022EE68E3684FF0C5
:10929000000A0492D6F80480D3F80490D3E902239C
:1092A0005A430092DBF818301A68C2F3C616C2F3AC
:1092B0004157FE400329069602D94668243600E04D
:1092C0000026766856B1032902D94068243000E0B0
:1092D00000204068006808B1866900E00026C2F3FB
:1092E0004340042801D008280ED1DF685EB1D6E9DA
:1092F0000001FDF74DF8D6F80CA00246384651465D
:1093000002F0E0F800E0BA460099A269AB6909FBF7
:1093100001F0DBF8141094689FED328A04EB8907A2
:10932000496804EB8000039199680291059052E02E
:10933000DBF8181004988E6810B18069856800E029
:109340000025BAF1000F35D00698042816D02EE07B
:1093500015B1B5EC010A01E0B0EE480A8DED010A45
:10936000029B01A852463146CDF80080FCF708FB6D
:1093700003989DED010A0644A4EC010ABC42E7D320
:1093800022E015B1B5EC010A01E0B0EE480A8DED1E
:10939000010A029B01A852463146CDF80080FCF735
:1093A00087FB03989DED010A0644A4EC010ABC4228
:1093B000E7D309E002992B46CDE9008932462046E1
:1093C00000F0CCF804EB8904029807EB890700EB66
:1093D0008800029005988442AAD307B0BDEC028BA6
:1093E000BDE8F08F000000002DE9F04F2DED028B5D
:1093F00099B02D9C259EC4F1000A9FED578A1493C5
:109400001290CDE91512DDE92A4044430020139063
:109410002498444396E000BF2C98CAF100014042D2
:109420000D90002900DC0021279889463099A0EB97
:109430000A00884200D30846269B0AEB0901169AC7
:10944000DDE915855943A0EB09000E902498A2F19F
:109450000062DDF850B041431298B2F1807F00EB1A
:1094600081000F9028D2002723E0149810B1BBECA4
:10947000010A01E0B0EE480ADDE90D012E9A0DF176
:10948000080C0892CDF81490CDE90610DDE92A13F6
:109490002898269A8CE80B004046CDE90062249B70
:1094A0002A460F99FDF79EF87F1C08F1040805EB8A
:1094B0008405B742D9D33AE0A000F6F79AFF002717
:1094C00010902FE0002009E0109905EB800292ED4A
:1094D000000A01EB8001401C81ED000A8442F3D8B0
:1094E000149810B1BBEC010A01E0B0EE480A2E98C6
:1094F000DDE90D12CDE90710CDE90592DDE92A106D
:10950000289A269B0096CDE90310CDE90132249BD1
:109510004046DDE90F12FDF765F87F1C08F10408ED
:1095200005EB8405B742CDD31098F6F791FF289844
:1095300015992F9A7043924401EB8000159013986F
:10954000401C1390139929988142FFF465AF19B01C
:10955000BDEC028BBDE8F08F000000002DE9F04F5C
:1095600006469A468B4615462DED028B81B0344651
:109570009FED188ADDE90C9800EB88070EE000BF2C
:109580008DED008A4B465A4629466846FBF780FB1C
:109590009DED000A05EB8905A4EC010ABC42EFD35E
:1095A000BAF1000F11D000210DE000BF0AEB8102DB
:1095B00006EB8100D2ED000A90ED000A491C30EE66
:1095C000200A80ED000A4145F0D301B0BDEC028BCA
:1095D000BDE8F08F0000000070B505468069018885
:1095E00009B1426800E00022526832B109B1426814
:1095F00000E000225268146800E00024012902D92A
:1096000042680C3200E00022526842B1012902D9BE
:1096100040680C3000E000204068066800E000264A
:10962000E86988B14068012804F1080027D0FDF7F7
:10963000AAFCA1690246E869B46989688368A068E0
:10964000BDE87040FCF730BBB169A0698E688568E1
:1096500004F10800FDF797FC05EB80019FED0E0A71
:1096600006EB800006E000BFD1ED000AC0FE200A34
:10967000C0ED000A001F091FA942F5D270BDFDF719
:1096800082FCA1690246E869B46989688368A068B8
:10969000BDE87040FCF75ABB000000002DE9FC411A
:1096A0008069018809B1426800E00022526832B145
:1096B00009B1426800E000225268146800E000240A
:1096C000012902D942680C3200E00022526842B1FE
:1096D000012902D940680C3000E00020406805688C
:1096E00000E00025E168E8684E68476804F108007A
:1096F000FDF749FCCDE900670246A069AB698168C6
:1097000098683346FCF73EFBBDE8FC810349CA6913
:109710005206FCD5C2B28A627047000000100140B8
:109720002DE9FC411C4615460B22074600F0AAFB1A
:10973000052C11D91D4A0CE00021AD1C234604461E
:10974000400863F35F04E30300D55440491C10292B
:10975000F4D328880028EFD107256E4604F00F00C7
:109760003030392800D9C01D70552409A5F10105F4
:10977000F4D17E20A5F10108705506E0FDF74FFFFA
:1097800010B1444506D0641C641CAC4202D2385D62
:109790002028F3D1082D02D2705D6D1C00E020203E
:1097A0003855641C082CF5D3BDE8FC81211001005C
:1097B0002DE9F047066802290C4676D3F169A142EB
:1097C00073D932784FF0FF35012A09D0022A2CD004
:1097D000E90D032A01EA840936D0042A65D142E062
:1097E000B06A04EB540700EB5721304600F05BFBF6
:1097F000002878D1C7F3080030447F1C90F83880E7
:10980000B06A00EB5721304600F04DFB50BBC7F368
:1098100008003044E10790F8382048EA022001D0DF
:10982000050960E0C0F30B055DE0B06A00EB1421B0
:10983000304600F038FBA8B9E0B206EB4000383003
:1098400000F0E0F905464EE0B06A00EBD411304676
:1098500000F029FB30B909EB0600383000F09BF925
:1098600020F070453FE0D0E9041251EA020301D034
:1098700083680BB9C379C3B9491EB6F80AC042F16F
:10988000FF3287684FEA5121C37941EAC251B1FBE7
:10989000FCF1E71B022B6FF0004807D0032B0DD023
:1098A000022B1FD0C06920B90DE01BE08F4219D8F0
:1098B00001D1454617E004F1010514E08169B94280
:1098C000F0D9651C0FE0B06A00EBD411304600F00F
:1098D000EAFA40B909EB0600383000F05CF920F0F4
:1098E000004500E001252846BDE8F08700207047CC
:1098F0002DE9F047D0F800804FF0000A81F81AA057
:109900000646806B0C4600287ED098F8000004289C
:1099100006D0F06C401C33D00025A9464F4610E01D
:10992000D8F810002146BDE8F04700F0B3B87F1C1E
:10993000B9F1000F16D1A0F55841B1F5006F11D261
:109940008146D8F80C0030F817000028EFD100BF8E
:10995000B9F1000F00D0002563190020014683F8FB
:109960001AA00FE061191A31C5F1FF0240EA09405F
:1099700000F06AFD10B105440020E1E70025E7E7AB
:10998000002001462E23F26B125C401C202A0CD0D2
:10999000052A00D1E522092804D10C2902D2651834
:1099A000491C6B736518491C6A730B28EBD360184C
:1099B000554680F80DA0A07E28BB11B100200246BC
:1099C00017E03F21A176012017E000BFA1F141037C
:1099D000192B0AD8F36B092A1B7B01D3102700E04F
:1099E00008273B4201D0203189B22318401C521C69
:1099F0009976A118497B0029E8D120448576F06B3F
:109A0000007B00B9657300E012E0F06BC07A207350
:109A1000F06B1C3000F0BFF8C4E90005F06B1630A5
:109A200000F0F0F86081F06B183000F0EBF8208166
:109A3000BDE8F08710B5016804464FF0FF300A001A
:109A400011D000BF11F8013B202B0DD33A2BF9D1D7
:109A50001378303B092B06D8921C8A4203D1032B82
:109A600001DA1846216010BD002010BD30B5D0E9E4
:109A70000551C368064CD868EB6809685843214013
:109A8000A1F58022C03A01D1C01DC00830BD000040
:109A9000FFFF7F012DE9F0474FF000080C464027FB
:109AA0000546C146464614E0B7F5187F29D2F806A8
:109AB00000D1BF1CE81900F0A5F8BF1CB9F1000FD8
:109AC00008F101080ED1A0F55841B1F5006F09D297
:109AD000814695F823104145E6D800BFB9F1000F43
:109AE0000FD10DE0A1191A31C6F1FF0240EA094079
:109AF00000F0AAFC10B106440020E9E70026EDE7DB
:109B000016B93F20A0760126A1190020887660733F
:109B100028792073C10602D50020014603E005F133
:109B2000380000F043F8C4E9000105F10C0000F032
:109B300069F8608105F10E0000F064F82081BDE84D
:109B4000F08770B5054600690C46343000F023F804
:109B5000A0602869383000F029F8C4E904012869B8
:109B6000002290F8210000F00200E071E26170BD77
:109B700070B50D46064601F11A0000F043F80446A0
:109B80003078032805D105F1140000F03BF844EAD1
:109B90000044204670BD837842780178C07843EA5B
:109BA000002042EA002041EA00207047F0B5C17968
:109BB000837990F805C00A0E077943EA0121C57838
:109BC0001202847842EA1162467803784CEA012056
:109BD0001102020E47EA00201143020E42EA01215F
:109BE00045EA0020090241EA106144EA0022080225
:109BF000110E084346EA0222010241EA126143EAD9
:109C00000220F0BD0178407841EA0020704710B58D
:109C100004460A68002022600A6AA26091F82420A3
:109C2000E2714A6A22F0FF02C4E90420E0612046A2
:109C3000896AE164FEF740F8002804D12046BDE8B7
:109C4000104000F001B810BD2DE9F0410446006855
:109C5000A16B056900F027F9002845D1E16B087870
:109C6000852840D12022284600F00CF9687846016A
:109C7000A6F140002036B0F5007F34D80021204600
:109C8000FDF722FE04282ED000282DD1A16B2068DC
:109C900000F009F9002827D1E16B0878C02822D10B
:109CA000202205F1200000F0EDF895F823000F21A7
:109CB0002C30B0FBF1F0B6EB401F14D340274FF42B
:109CC000187820460021FDF7FFFD04280BD000285E
:109CD0000AD1A16B206800F0E6F8002804D1E16BFE
:109CE0000878C12802D00220BDE8F081474503D2A0
:109CF000E819202200F0C6F82037B742E1D34745E3
:109D000008D8284601F050FD0446A81CFFF77AFF4A
:109D10008442E8D10020E7E7F7F78CFFF8F770FC02
:109D2000042302220521A020F9F788FF4FF4E13037
:109D300001F004FD4FF4C870FDF77AFC002000F03C
:109D400001F9022000F0FEF8032000F0FBF80420E7
:109D500000F0F8F8052000F0F5F8F9F755FFF9F7ED
:109D600035FFFEF775F9304C012230A12068FEF76F
:109D7000B1F94FF47A7501460BE02DA0F6F72AFCF5
:109D80002846FDF75BFC2068012228A1FEF7A2F916
:109D900001460029F1D12CA0F6F71CFC002000F0B0
:109DA0008BF9FCF77DFA2E4C5FF0000604F11008E9
:109DB000002506EB86072B482A463146FCF752FA67
:109DC00027492848FCF7BAFA94EC020A0020B4EEBE
:109DD000E00AF1EE10FA00D20120D4ED020A04EB01
:109DE000800191ED000AB4EEE00AF1EE10FA00D223
:109DF0000220D4ED030A04EB800191ED000AB4EED9
:109E0000E00AF1EE10FA00D2032079196D1C052D3D
:109E100048F82100CFDB761C082EC9DB272044F64A
:109E20001F61FDF7D1F8FEE7949C0324303A00004F
:109E3000B9D2D4D8CEC4BCFECFB5CDB3CAA7B0DC9E
:109E40002025640D0A000000B9D2D4D8CEC4BCFECF
:109E5000CFB5CDB3B3C9B9A62025640D0A00000063
:109E6000001F0024201700242DE9104010F8013BAA
:109E700011F8014B521EA3EB040301D0002BF5D0C7
:109E8000184610BD002A05D011F8013B521E00F8FB
:109E9000013BF9D1704700005FFA81F1521E00F8D2
:109EA000011BFBD1704770B50446406B00260D4680
:109EB000A8420FD0204601F0F7FB06000AD16078D7
:109EC000012304F138012A46FDF784FF08B1751E0D
:109ED00001266563304670BD04E000BF11F8013B08
:109EE00000F8013B521EF9D270470000134A70B5CA
:109EF000131893F8383093B1114B53F820308B423C
:109F00001AD90F4B002402EB8002183B53F8203083
:109F10002046B1FBF3F1136A53F8213008E01168D1
:109F20008847012070BD156A0E18401C45F8264070
:109F30009842F8DB002070BD022070BD400E002466
:109F400028A8100830B504460848074D50F82410DA
:109F500005EB84008A00006A002100F06BF82919E3
:109F6000012081F8380030BD400E0024F8A7100809
:109F70002DE9F0411E4E04460F463019002590F899
:109F8000380010B93168204688474FF0FF326FB370
:109F9000184B53F82410B7FBF1FCB7FBF1F001FBB1
:109FA0001C7101B1401C1349183951F82410491E85
:109FB0001CD406EB8406376A57F821C0BCF1000FA9
:109FC00004D0002585420FD1002206E06D1CF9E780
:109FD000356A8F18521C45F827008242F8D353F88F
:109FE00024004843BDE8F081491EE5D51046F9E755
:109FF000400E002410A8100810B50C4C00220C4B89
:10A00000114603EB800354F8200005E01C6A54F865
:10A01000214004B1521C491C8842F7D84FF47A7190
:10A020004A43B2FBF0F080B210BD0000F8A7100860
:10A03000400E002402E000BF00F8011B521EFBD2BC
:10A0400070470000002906D0034A02EB80029268A4
:10A05000891AFFF74BBF7047400E002410B5044625
:10A06000FFF786FF411C05D0034901EB8401896895
:10A07000084410BD002010BD400E00242DE9F04121
:10A080008846164605461146FFF772FF0446401CF7
:10A090000ED008483246414600EB8507B868204498
:10A0A000FFF71AFF41462846FFF7CCFFB868204467
:10A0B000BDE8F081400E00242DE9F04389B08146CF
:10A0C00000246E4620214846FFF7C8FF002846F8C6
:10A0D00024003ED0641C082CF4D3009837A1F6F776
:10A0E00085FA019838A1F6F781FA029839A1F6F7B6
:10A0F0007DFA03983AA1F6F779FA04983BA1F6F7AE
:10A1000075FA05983CA1F6F771FA06983DA1F6F7A5
:10A110006DFA07983EA1F6F769FADFF8008100248E
:10A120003F4FA8F1200500BF56F82410484600F024
:10A13000A3F945F824003BA0F6F74CFA55F82400A3
:10A1400058B181004846FFF789FF48F8240040B124
:10A150000AE0611C35A0F6F73DFA012009B0BDE820
:10A16000F08339A0F6F736FA002041460CE000BF34
:10A170003A6851F8243002EB800292ED000A03EBBA
:10A180008002401C82ED000A55F824208242EFD85C
:10A1900039684846FFF756FF641C082CC4D3396859
:10A1A0004846FFF74FFF0024484656F82410FFF7B3
:10A1B00049FF641C082CF7D30020CFE7303A454311
:10A1C00047302E7478740000303A454347312E747E
:10A1D00078740000303A454347322E74787400009A
:10A1E000303A454347332E7478740000303A454383
:10A1F00047342E7478740000303A454347352E7446
:10A2000078740000303A454347362E747874000065
:10A21000303A454347372E7478740000CC9C0324B1
:10A2200080160024CDA3D6B900000000706E616DC9
:10A23000655B25645D206163636573732066616996
:10A240006C6564210D0A0000C9EAC7EBC4DAB4E604
:10A25000CAA7B0DC000000002DE9F0470E46814699
:10A2600001F11A00FFF7CEFC28BB3078012500274A
:10A27000DFF8548020F040004FF6FF7A401E00EBDC
:10A28000800101EBC00400BF18F807003044FFF75D
:10A29000B9FC35B1FF2C0ED229F81400641C054618
:10A2A00001E0504507D17F1C0D2FEDD330784006DB
:10A2B00007D5FF2C02D30020BDE8F087002129F844
:10A2C00014100120F8E7000044A81008F0B501EBD5
:10A2D0008206DDE9054517E0002210E0012D21D0BE
:10A2E00000EB820701EB820C97ED000ADCED000A1F
:10A2F00030EE200A00EB8207521C87ED000A9A42DA
:10A30000ECD3002501EB8301B142E5D3002C1AD038
:10A3100000EE104AF7EE000A0021B8EE401A80EE77
:10A32000810A0EE001EB820797ED000AE2E700BF29
:10A3300000EB8102491CD2ED000A60EE800AC2EDFA
:10A34000000A9942F4D3F0BD2DE9F04702291746DF
:10A350000D4604464FF0020673D3E069A84270D957
:10A3600020784FF00109012806D002283AD00328AE
:10A3700048D0042865D145E0A16A05EB5508204680
:10A3800001EB5821FFF78FFD06005AD1C8F30800F2
:10A390002044EA0708F1010800F1380004D00178F0
:10A3A000FAB262F31F1100E03946017084F803909D
:10A3B0002046A16A01EB5821FFF775FD060040D148
:10A3C000C8F308002044E90700F1380002D0C7F3C1
:10A3D000071105E00178C7F3032201F0F0011143F2
:10A3E00001702CE0A06A00EB15212046FFF75BFD11
:10A3F000060026D1E8B2B9B204EB4000383001F0D3
:10A40000C8F81CE0A06A00EBD5112046FFF74BFD11
:10A41000060016D140F2FF10217800EA850000EB1B
:10A420000405042905F1380505D02846FFF7B3FBDC
:10A4300067F31B0007462846394601F03AF884F8CE
:10A4400003903046BDE8F08770B515460C464FF4D2
:10A450006A71FEF797F9FF2806D9022D09D3010A80
:10A4600021706070022070BD18B115B120700120FC
:10A4700070BD002070BD00002DE9F34F87B00D4680
:10A480000020814683460090044604900390069085
:10A4900005900846FEF7E4F90646014668A0F6F77F
:10A4A00099F807984FF41671FFF7D8FD5FEA000896
:10A4B00002D165A0F6F78EF807983146FFF7CEFD7A
:10A4C000B8F1000F074602D163A0F6F783F8012226
:10A4D00029464046FDF722FE010006D063A0F6F7AC
:10A4E00079F8012009B0BDE8F08F65A0F6F772F8A1
:10A4F00006AB324639464046FDF763FF63A0F6F7E8
:10A5000069F84046FDF7D6FDB81910F8010C0D2882
:10A5100001D00A2800D1761E07980421FFF79EFD7E
:10A520005D49002508607EE0785D65281FD02D28F4
:10A5300023D02E282AD0A0F13001092904D8641C88
:10A54000711EA4B28D426DD3202806D00D2804D0F0
:10A550000A2802D0701E854264D10598711E401CE5
:10A5600005908D4200D16D1C0098A8B115E0641CC7
:10A570004FF00109A4B2A34654E0B9F1000F02D094
:10A58000641CA4B24EE001200490F9E70120009081
:10A59000641CA4B2039445E0039421460798FFF796
:10A5A0005DFD8246002005E04119091B7A5C0AF82E
:10A5B0000020401CA042F7D30598012824D0820037
:10A5C000354801680798FFF759FD3349086021466F
:10A5D000CDE9019BDDE903235046F9F78DFB2E48B9
:10A5E0000168059801EB800000ED010A07985146CB
:10A5F000FFF728FD795D0024A146A3460D290394A9
:10A60000049400940DD00DE0CDE9019BDDE9032316
:10A6100021465046F9F770FB1F48006880ED000A9C
:10A62000E4E76D1C6D1CB542FFF47EAF0798414610
:10A63000FFF708FD07983946FFF704FD059851E735
:10A6400025640D0A00000000665F747874C9EAC7CB
:10A65000EBCAA7B0DC00000074656D7062756673AC
:10A660007472C9EAC7EBCAA7B0DC0000665F6F70FE
:10A67000656E206661696C65642125640D0A0000C1
:10A68000BFAACABCB6C1C8A100000000CDEAB3C9C8
:10A69000B6C1C8A100000000801600242DE9F047D3
:10A6A000056888460229174606468A46C1465ED393
:10A6B000E96941455BD96FB12878042802D1F07966
:10A6C000022807D04FF0FF3239462846FFF73CFEFC
:10A6D00000284DD141463046FFF76AF8040031D0DA
:10A6E000012C44D0601C50D02878042806D00022C9
:10A6F00041462846FFF728FE002839D1D5E9060152
:10A70000891E884205D22979401CA86141F00101C7
:10A71000297109F10100A04201D1A1460EE028787B
:10A72000042809D1A9EB0A02514600232846521CED
:10A73000FCF75EFC00281BD1A146CA46E869A0468A
:10A740004045C7D82878042829D12FB1F0790225AF
:10A7500028B103281BD022E00020F0711FE0B4686C
:10A760000EE021463046FFF723F8022802D20220ED
:10A77000BDE8F087411C08D0611C884202D1641CEE
:10A78000BC42EED1BC4209D009E00120F0E7B0683C
:10A79000B84204D8B1690844B84200D3F57100202A
:10A7A000E6E700003F48F0B5016887B041F480312A
:10A7B0000160006800F4803005903A480C30016870
:10A7C00041F004010160016801F004010591016894
:10A7D00041F00801016000680024022100F0080037
:10A7E00005904FF4F8500C238DE8130003222E48F7
:10A7F000CDE903236946F7F7D9FD042000902B48E3
:10A800006946F7F7D3FD2A4D2C606C60AC60EC60B4
:10A8100028486C62AC62EC62A863EC6300F040FB19
:10A82000254E0400254F24D100F09EFA040020D1CB
:10A83000384600F071F904001BD1B7F8540001212B
:10A840000204072000F092FC072000F067F80400E3
:10A850000FD13078032805D030B1012804D0022868
:10A8600002D010E027240EE0012000F0A1FC20B16E
:10A8700004463078032806D00EE06868C0F30D0067
:10A8800040F48040686097F8560040B1012806D037
:10A890005FF0030000F038F807B02046F0BD062056
:10A8A000F8E70000D444025800080258000C02588F
:10A8B00000700052FF07C0005C160024F09B0324C8
:10A8C0001CB5074C002324780CB1CB0D49024FF482
:10A8D0000074CDE900420A4600F07CFB1CBD00007C
:10A8E0005C1600241CB5074C002324780CB1CB0D5A
:10A8F00049024FF40074CDE900420A4600F08AFC98
:10A900001CBD00005C160024034A51686FF3090166
:10A9100001435160704700000070005230B511498A
:10A920006FF07F42104C0BE04B6B13F0450F07D0DC
:10A930000AB15A0707D5042088638C63032030BD11
:10A94000521EF1D2F5E7DA0702D00120886330BD4C
:10A950000A698C63824201D0102030BD486900F042
:10A96000080030BD00700052FF0FE01F0F490020AB
:10A970006FF07F4210B50BE04B6B13F0450F07D023
:10A980000AB15A0707D58A6B032042F004020AE095
:10A99000521EF1D2F5E7DA0704D08A6B012042F0AB
:10A9A00001028A63024A8A6310BD000000700052EF
:10A9B000FF0FE01F0B486FF07F410CE0426B12F07D
:10A9C000450F08D009B1510708D5816B41F004014A
:10A9D000816303207047491EF0D2F4E70249816386
:10A9E0000020704700700052FF0FE01F70B5194A39
:10A9F0006FF07F430546002003E0546B14F0450FD1
:10AA000001D15B1EF9D2640705D5906B40F00400BC
:10AA10009063032070BD63B11369AB4214D10E4B38
:10AA20009363526912F4604F09D091040AD5132040
:10AA300070BD906B40F001009063012070BD120C5E
:10AA40000A8070BD510401D5102070BD1104FCD5E1
:10AA50000F2070BD00700052FF0FE01F2DE9F04184
:10AA600000240E460822074601212546102000F04A
:10AA70007DFB1020FFF752FF00282ED13A04012160
:10AA8000372000F073FB3720FFF748FF002824D160
:10AA9000012303220821401E00F074FB0022012143
:10AAA000332000F063FB3320FFF738FF002814D178
:10AAB000174A40F22A51536B0B4206D1536B1B03CA
:10AAC000F9D4D2F88040D2F88050516B090706D5EE
:10AAD000906B40F0080090630420BDE8F081516B5A
:10AAE000890705D5906B40F0020090630220F4E7DF
:10AAF000516B890605D5906B40F0200090630620CD
:10AB0000EBE723BA034C29BA9463C6E90013E4E7E0
:10AB100000700052FF0FE01F2DE9F04F9049002216
:10AB2000DFF840A24FF0010B0C7880F8564089887E
:10AB3000002CA0F85410DAF800104FEA11634FEA25
:10AB4000114C4FEA93160670C3F38307477003F066
:10AB50000303837080F803C04FEA1123037141712E
:10AB6000DAF804304FEA13614FEA0115C3F30741E5
:10AB700001F00F0945EA1116C680C3F3072180F8DA
:10AB8000089055464FEAD1164672C1F38017877276
:10AB9000C1F3401C80F80BC0C1F3001880F80C8092
:10ABA0004273AD684FEA1567C5F30746C5F3072C36
:10ABB00006D0012C04D0032C02D0022C35D043E067
:10ABC0008907DCB20B0D614643EA840307F00704F2
:10ABD00043EA97130361C7F3C20C80F814C0B707A8
:10ABE00044754FEA561880F816807F0F47EAD11750
:10ABF000BC1CC6F3820C80F817C00BFA04F60BFAE3
:10AC000009F45B1C07764FEAE67C0465A3FB067833
:10AC100002FB068603FB0C63A7FB046C03FB04C367
:10AC200007FB0233C0E912630EE09B0661464FF456
:10AC3000007404659B0A43EA0723334303615C1CE9
:10AC4000630BE404C0E912438C06C1F3801343761E
:10AC5000E9B25D46640E44EAD114847601F07F01C6
:10AC6000C176DAF80C303F4C190E10348E07CF093C
:10AC70000777C1F341174777C1F382018177C3F3A7
:10AC80000741360F46EA9116C67701F00106C1F377
:10AC9000401780F82070C3F3072180F8212080F846
:10ACA0002260C3F34603CF0980F82370C1F3801CF0
:10ACB00080F824C0C1F3401680F82560C1F3001766
:10ACC00080F82670C1F3810C80F827C001F00301E1
:10ACD00080F8281080F8293080F82A502368190E4F
:10ACE00080F82C10190CC3F3072646EA0121C18510
:10ACF00061681B060E0E43EA0643C1F3074643EAAA
:10AD00000623C1F307263343036380F83410A16898
:10AD10000B0E80F835300B0CE4681E06C1F30723D8
:10AD2000C9B246EA034343EA012141EA1461C4F38C
:10AD30000743816390F83C60190746EA131680F8D0
:10AD40003C60C4F3072343EA1151C187C4F34601B1
:10AD500080F8401080F841501046BDE8F08F0000A8
:10AD60005C160024D09B032438B52E4D0120ADF88D
:10AD70000000286880071ED02B4C207804284ED075
:10AD800000220321022000F0F1F9FFF7EFFD002877
:10AD900012D1264869690160A9694160E969816049
:10ADA000296AC160207840B1012806D0062804D065
:10ADB000022802D00CE0252038BD0022012103200A
:10ADC00000F0D4F903206946FFF710FE0028F3D104
:10ADD000207803280AD1BDF80000012102040320D5
:10ADE00000F0C4F9FFF7C2FD0028E5D1207804285F
:10ADF00015D0BDF80000032160600204092000F0B6
:10AE0000B5F9FFF7B3FD0028D6D1084869691038B5
:10AE10000160A9694160E9698160296AC160002017
:10AE200038BD0000007000525C160024E09B032433
:10AE300038B504460020009001211648808802049D
:10AE40000D2000F093F91449486B009010F0450F65
:10AE5000FAD00098C00705D0886B40F001008863E5
:10AE6000012038BD0098400705D5886B40F00400EC
:10AE70008863032038BD08690D2801D0102038BD33
:10AE80000648886348690090C0F343202070002082
:10AE900038BD00005C16002400700052FF0FE01F58
:10AEA0002DE9F047464C00200546064660600746FF
:10AEB000FA20FFF729FD0320206081464FF6FF7836
:10AEC00000221146104600F051F94046616B090618
:10AED00002D4401EFAD200E0B8B13A48A063012182
:10AEE00008204FF4D57200F041F945464046DFF89E
:10AEF000D880616B11F0450F0ED008B148070ED510
:10AF0000A16B41F00401A16313E06D1C4846EDB252
:10AF10004A2DD5D3BDE8F087401EEAD2EEE74806B9
:10AF200003D5A16B41F04001A163012188F8001015
:10AF30008F0700220121372000F018F93720FFF792
:10AF4000EDFCC8B1214F25E000220121372000F09F
:10AF50000DF93720FFF7E2FC0028DBD101213A464A
:10AF6000292000F003F9FFF725FD0028D2D16169FF
:10AF7000761CCA0F03D004E015480743E4E7AE424D
:10AF8000E2D3AE4217D211F0804FC3D0022288F82C
:10AF90000020BFE701213A46084600F0E7F8FFF736
:10AFA00009FD0028B6D16169761CC90F01D1AE42F6
:10AFB000F0D3AE4201D31B20ACE788F80090A9E79C
:10AFC00000700052FF0FE01F5C1600240080FF801D
:10AFD000000010802DE9F05F14469B460546DDE930
:10AFE0000A6755A0F5F7F6FADFF854A10021DFF85B
:10AFF0005491CAF82C106FF07F4899F8001002297C
:10B0000003D10E02640A44EACB54324601211020D7
:10B0100000F0ACF81020FFF781FC00284FD107FBAF
:10B0200006F101230922401E00F0ACF8012F224650
:10B030004FF001010BD9122000F098F81220FFF711
:10B040006DFC06000BD040A0F5F7C4FA72E01120A9
:10B0500000F08CF81120FFF761FC06002FD1F5F706
:10B06000A0F9DFF804B154461BE0606B000412D570
:10B070005FF00001D4F880002870491C020A6A7051
:10B08000030CAB70000EE870082905F10405F1D33C
:10B090006FF07F4004E0B8F1000F12D0A8F101007A
:10B0A0008046606B10F4957FDFD0F5F77CF9606B1C
:10B0B00000070BD5A06B40F00800A0630420BDE89A
:10B0C000F09FC4F838B0F5F76EF9F7E7606B8007CA
:10B0D0000FD5A06B012F40F00200A06307D900221A
:10B0E00001210C2000F042F80C20FFF717FC022091
:10B0F000E5E7606B800605D5A06B40F02000A063FB
:10B100000620DCE7606BC00512D5012F10D999F835
:10B11000000018B1012801D0022809D10022012124
:10B120000C2000F023F80C20FFF7F8FB0600C6D136
:10B13000C4F838B03046C2E7616161616161000006
:10B14000007000525C16002453445F434D445F522C
:10B150004541445F4D554C545F424C4F434B204555
:10B1600072726F720D0A0000FF0FE01F044B00F0B7
:10B170003F0040EA012040F480509A60D860704758
:10B180000070005210B5094C21F07E416062A1624E
:10B19000E06A03F0010120F0FF0040EA021040EAFB
:10B1A000410040F00100E06210BD0000007000525C
:10B1B0007CB500210C460091019100B10224134896
:10B1C0004069800101D50E207CBD114D6946A888DB
:10B1D00080B2FFF743FC0028F6D10198400313D555
:10B1E000A888012102043720FFF7C0FF3720FFF7AE
:10B1F00095FB0028E8D1012122460620FFF7B6FF83
:10B200000620FFF78BFB7CBD25207CBD0070005223
:10B210005C1600242DE9F84F002114460546DDE9AF
:10B220000A868DF8001008B3DFF8E8A1DFF8E8918E
:10B23000CAF82C1099F80000022804D1540A4FF4DF
:10B24000007844EAC354424601211020FFF78EFFE4
:10B250001020FFF763FB002809D1012E4FF0FF3BC0
:10B260002BD906FB08F0B0F1007F02D32620BDE801
:10B27000F88F99F8000018B1012801D0022815D1E3
:10B28000B9F80400012102043720FFF76FFF3720CF
:10B29000FFF744FB0028EAD1012132461720FFF7CF
:10B2A00065FF1720FFF73AFB0028E0D10121224675
:10B2B0001920FFF75BFF192029E0B9F804000121EC
:10B2C00002040D20FFF752FF0D20FFF727FB002897
:10B2D000CDD150465F460DE0B9F8040001217F1E34
:10B2E00002040D20FFF742FF0D20FFF717FB002897
:10B2F000BDD150464069C00502D4002FECD11AE000
:10B30000CFB1012122461820FFF730FF1820FFF7A8
:10B3100005FB0028ABD106FB08F1002358460922A3
:10B32000FFF730FF6FF07F4B5F46F5F73CF8DFF833
:10B33000EC8054461AE0292099E7606B400413D54D
:10B3400000206B782978401CAA78082841EA03215C
:10B35000EB7841EA024141EA0361C4F8801005F14B
:10B360000405EED35F4601E07FB17F1E606B10F4F1
:10B370008D7FE2D0F5F717F8606B00070AD5A06B58
:10B3800040F00800A063042071E7C4F83880F5F7A6
:10B390000AF8F8E7606B80070FD5A06B012E40F02C
:10B3A0000200A06307D9002201210C20FFF7DEFE76
:10B3B0000C20FFF7B3FA022059E7606BC00605D5F1
:10B3C000A06B40F01000A063052050E7606BC00543
:10B3D00012D5012E10D999F8000018B1012801D01A
:10B3E000022809D1002201210C20FFF7BFFE0C200A
:10B3F000FFF794FA00289FD1C4F838806846FFF719
:10B4000017FD002898D19DF800100729F6D00629CD
:10B41000F4D02CE7007000525C160024FF0FE01FF0
:10B4200000B541EC100B2DED028B83B0B1EEC08B5B
:10B4300018EE100A18EE901A8DED008B002818BF38
:10B440000120084320F00040C0F17F6000F1E0409F
:10B45000C00F14D010EE101A10EE900A8DED000BF4
:10B46000002918BF0121084320F00040C0F17F608F
:10B4700000F1E040C00F04BF0120F5F725FB51ECBF
:10B48000180B03B0BDEC028B00BD70B50C46154621
:10B4900091B2064604F11A0000F07BF830780328D8
:10B4A00006D1290C04F11400BDE8704000F071B819
:10B4B00070BD0A0A01704270110A81700A0AC270D6
:10B4C00070470000F0B588420ED0002A0CD08318D7
:10B4D000814210D999420ED2114403E013F8012D94
:10B4E00001F8012D8342F9D8F0BD00BF10F8013BEF
:10B4F000521E01F8013B8B0701D0002AF6D1170933
:10B500000AE0066845688468C36810300E604D60C4
:10B510008C60CB6010317F1E002FF2D1C2F381030B
:10B5200005E000BF50F8044B5B1E41F8044B002BB4
:10B53000F8D102F0030204E010F8013B521E01F8BA
:10B54000013B002AF8D1F0BD110A41EA03611B0A50
:10B5500010B502700A0A42EA036241701B0A827047
:10B56000110A41EA0361C1701B0A0A0A42EA036236
:10B5700002711B0A110A41EA036141711B0A0A0A9E
:10B5800042EA036282711B0A110A41EA0361C17136
:10B5900010BD0A0A0170427070472DE9F04105465E
:10B5A00000680669304600F0FFF80146B01CFFF75E
:10B5B000F0FF77782846E96C7F1CFCF77DFB04469A
:10B5C0004FF0010815E0A96B2868FEF76CFC040039
:10B5D00011D1E86B20223146FEF754FC29687F1E0A
:10B5E00081F803800CD0002128462036FCF76CF946
:10B5F0000446002CE7D0012C02D00220BDE8F081E7
:10B600002046FBE7014600200B2210B5440811F844
:10B61000013B04EBC0101844521EC0B2F6D110BD5D
:10B6200070B5044600F040F8050036D120780328B4
:10B630002CD12079012829D1420204F138000021BF
:10B640000646FEF729FC04F236204AF65521FFF79C
:10B65000A0FF13493046FFF72CFF124904F507708D
:10B66000FFF727FFA16904F50870FFF722FF616962
:10B6700004F50970FFF71DFF626A01233146521C71
:10B6800062636078FCF7C6FB0020207100226078BE
:10B690001146FCF765FB00B10125284670BD00008E
:10B6A000525261417272416170B50446C078002502
:10B6B00048B104F138016078626B01230E46FCF753
:10B6C000A9FB10B10125284670BDA36A0020626B5A
:10B6D000216AD31AE0708B42F5D2A0780228F2D109
:10B6E0000A44607801233146FCF794FBEBE72DE92F
:10B6F000F0410568064615F8014B2046FBF78FFF21
:10B700004FF0FF3760B115F8010B402814D37E28A5
:10B7100003D9A0F180017E290ED800EB042084B269
:10B7200034B14FF46A712046FDF706F8040003D0E7
:10B7300020463560BDE8F0813846FBE70B49002222
:10B7400010B5094C0C230C60C1E90102CA6008461F
:10B750000A61C1E90532F8F75BF9BDE81040044918
:10B7600001220248F8F7D2B90010014074200024E9
:10B77000340E002470B504000E464FF009050CD0BD
:10B78000206850B1017841B1A188C288914204D1AA
:10B790004078FCF73DFBC00703D00020306028460E
:10B7A00070BD20680025F9E770B5034640784FF476
:10B7B000004442010020203201460AE002290BD059
:10B7C000C50700D025465E5C05EB5000304480B2D2
:10B7D000491C9142F2D370BD0321F9E770B50024F2
:10B7E00005464FF4004612E0FCF7F6FF80B2E10791
:10B7F00000D0314601EB5401C2B2114489B2CA07EC
:10B8000000D0324602EB510101EB102084B235F832
:10B81000020B0028E8D1204670BD000010B50029B9
:10B820000AD00878002807D005487844F5F778F85A
:10B83000002801D0002010BD0248784410BD00004F
:10B84000629E12005A9E120002494FF0000000F062
:10B850000AB800BF0000F87F4FF04070E1EE100A18
:10B860007047F5F769BA0CF00F03092B08BF0820E1
:10B8700000F059800A2B0BD0082B18BF704708BF67
:10B880001CF0400F0AD04FF000004FF0000170474D
:10B890001CF0400F18BF4FF0004070471CF0100F15
:10B8A00008D020F0704300F07F4242EAD3014FEA13
:10B8B0004370704700F0604021F07F4242EA00028E
:10B8C00001F07F4040EA727070474FF0FF0C4CF47B
:10B8D000E06C1CEA11531CBF9CEA030C9445C2BFE8
:10B8E000DA4201EB02517047002B0DD0BCF1000F82
:10B8F0000FD0002A01F00041A4BF41F0E04141F027
:10B900007F614FF00000704701F000414FF00000F0
:10B91000704750EA01334FF09B0C18BF4CF0806C1D
:10B920007FF492AF70471CF4801F11D01CF4E02FFD
:10B9300003D06FEACC31490070474FF04050EFF32D
:10B94000008222F0704242EA000282F300887047CF
:10B950004FF0000070470000040000007003002456
:10B9600004000000B403002404000000F4030024D9
:10B9700004000000380400240400000078040024BF
:10B9800004000000BC04002404000000FC040024A7
:10B99000040000004005002404000000800500248D
:10B9A00004000000C805002404000000080600246C
:10B9B0000400000050060024645613084056130883
:10B9C0000C56130828561308000000000000000061
:10B9D0006856130808010000000000000000000085
:10B9E000000000000000000000750E0000000000D4
:10B9F0000000000000000000000000000000000047
:10BA00000000000000000000000000000000000036
:10BA10000000000000000000000000000000000026
:10BA20000000000000000000000000000000000016
:10BA30000000000000000000000000000000000006
:10BA400064561308405613080C561308285613085A
:10BA50000000000000000000685613080801000004
:10BA600000000000000000000000000000000000D6
:10BA700000750E0000000000000000000000000043
:10BA800000000000DECAFAA1000000000000000073
:10BA900000000000000000000000000000000000A6
:10BAA0000000000000000000000000000000000096
:10BAB0000000000000000000000000000000000086
:10BAC000000000000000000000000100E80D00245C
:10BAD00000000100040E0024010000008C7D000025
:10BAE000010000000100000040040400000000000C
:10BAF00000000000000000008C7D00000104000038
:10BB0000000000000100000090EC0F0001000000A8
:10BB1000010000004004044000000000000000009C
:10BB20000000000090EC0F00010400000000000085
:10BB30000000000000000000000000000000000005
:10BB40009280AEBB3CDEAABBB22593BC99A3873DD5
:10BB5000416A30BC3114923E039C153D7F5F30BD7D
:10BB60002A20223DB16A08BE76399D3E14D07C3E23
:10BB700058EDE0BECE1F2E3E025B483EC746D63E85
:10BB800030EED6BDFC10EA3C42998EBDC22997BD6D
:10BB9000DF54A73DB0B1E33D2F5E00BDA9748B3DDE
:10BBA0001DB54A3D9FE4A73D73A1CC3E6874663D38
:10BBB000301551BD20F95FBC1E36ABBB36F47E3D5F
:10BBC0001856D7C066076941719825C15AE3F43EFB
:10BBD00024C605413CC525C1562D38C1FFB50841D5
:10BBE000F1F7D4C0FC1BB6C16F9E57C0937C8CC0CC
:10BBF00013CB8BC052C6C7BF626D303E92028B3FE3
:10BC0000FF767C40BBDC1FC1F67F7A404AF20341DD
:10BC100024A422C0F78275C048BB63C175C959BF4F
:10BC2000D4DEE03EDABA87C06BAB3E3F03ED9C3E0C
:10BC3000C1E04341723327416C003A41BC27893F40
:10BC4000CCAF8BC186CF5041ACE2FEBF9506B53F6D
:10BC5000A987964185A07EC1187F8DC10F68BF401E
:10BC600093BB67C14168174280003CC134DB9CC074
:10BC700065BDECC05F86EBBE9A2E79BE9A82213FED
:10BC800058338E405D4991C1D250D340C8A8DA40A4
:10BC9000D6BA1DC07D55CCC07C8103C10727883E24
:10BCA00053390B4000FE3CC1DC8D1FBF5C2F3C4074
:10BCB000C4FE33412B5D4041A34D2C4198C9B63F92
:10BCC000CA4B6BC112E46C41D9AA97BEBB9A5C3EC9
:10BCD00003604141118CBBC03ECE91C0EA65454135
:10BCE000CE04B1C066E19BC1895C7BC1B47758C00A
:10BCF000D3A7EBC07F6B4E3EF0A84D3FC3E5083E97
:10BD00002F446B3EE7356AC0A7801D40E794C2BF51
:10BD10003C502FC0A4CAFEBFDAC42CC015E3833F39
:10BD20007A12C13D3D363DC1F85CAF3F9634563E78
:10BD30007F9009411DF6404120861741D63A443F85
:10BD4000BF2F7AC1AF6B0741CD41ABC0484BAFBFEE
:10BD5000792E4E416C6F35C14839CD3F429DFF3F32
:10BD6000D9EF3D409D3C10C1DBCE82C12022B1BF46
:10BD700034E679BFAB0B57C0618181C04B65D03EC3
:10BD80009424D74072DFE5BEF532EE40EFA1B73F15
:10BD900037C80C3F9856993FE00B4AC13C462FC02C
:10BDA000E16C60C0CF4A5F41C3DF9BBFECA933C0E9
:10BDB00002E1F7404419DC40ED121441BA198EC07B
:10BDC00096B652C0B81E3E4085AC75C12071A4C065
:10BDD0001CAA3C40829E7EC13F5A62405AB1254116
:10BDE0009E7F8040565CAAC058AC7DC1B1E32F3F16
:10BDF000E7FB454018EE12C14AA81CC1066F5FC0A0
:10BE0000BCF1B640AD1A5E403C67D64065566C4109
:10BE1000BE9293405EE0604054BEAFC0D86F21C177
:10BE200042AD89C0A706E041898A9FC07FC4D6C0C1
:10BE30006E8EDA40BD0511419ADA154100BCBDC0D5
:10BE400007E388C10389844194CD6BC0708B983F10
:10BE5000F2DA6741C290DCC0F6D80BC0339F47418D
:10BE60002D45C6C0D712E7BFD8BA23C21F5E11C185
:10BE7000B37062C11CEB7040BFB938408B24B03F37
:10BE80001A4A6141FC9849C074DCFF40D2549E417B
:10BE9000B735CAC0895ABAC02ECCA0C08ED81240BD
:10BEA000108A3640DB537F412F74873F55140A4078
:10BEB000721E44417D77E540202F08415568BC3F04
:10BEC00086DB44C15FBB8D4170D708411A440740EF
:10BED000712BE0415765EFBE4E951840BA4F8F4128
:10BEE000F43009409680ED412EDD27C1C0F80CC129
:10BEF000263384C05239CA3F7CD33340E7F4DB3F5A
:10BF00004C1157417471FCBF959E7141FCC0814139
:10BF100009F682C0DEAF91C045D11E3F72782C4039
:10BF20005ACB3740CA8CA43F16F7E73E3919F73F82
:10BF3000151367414E4AA4413221B4419C42254029
:10BF400037B960C1ADC35141FBF74440F74387BEE9
:10BF5000853F8041D141674016392E4082B8554116
:10BF600031F6BA3F606F6041C8BC53409D9158C0E4
:10BF7000E1C86BBE0F36C33FAEA4AC3FA60C003F7A
:10BF8000CA0D1741518887BFCB7D2141271A7641C1
:10BF9000566BD2C00F719BC011874A414B9EB7BFF1
:10BFA00035B8923EEBAA7F40833C67BF5F7CDE3EA4
:10BFB00011A47C41BBD0264184142641B2897CBEA9
:10BFC000901787C13490C0417B18B2404233CFBF35
:10BFD0006FB57E41E8E4084149BA834076129A4140
:10BFE000ECDE4B3F418C82C008DA3541364EA8402A
:10BFF0001AAEDBBF1BF26D40EB10F8BDEFC7AABF56
:10C00000F2A56A41E57F89BFC52264415858844141
:10C010005C562AC15BF69FC02781AC416491953E76
:10C020001A271F40F2171841768807C028ADCA3F6B
:10C030000336B1418F5DD04133409C41C40CA63FD3
:10C040000375C9C19C2B6D41B7F94C41E2AB9EC051
:10C0500094F8D641F37DBF40D6649A3F9BB8E74041
:10C06000BD2D523FF3F7A9C06FB1E840BC07D940DE
:10C07000C52F03C14C16403FEB736E3F5AAF8CC0C7
:10C0800015DFE1400E32053E5032B741FB0F0F4144
:10C09000A9528AC03062CBBF1A020141A10F3AC037
:10C0A000496382BF3F96424140608EC0CEB83DBFDB
:10C0B000E88C8C410357D8410ABE0D41D35FE8BFDD
:10C0C0003782E4C0E0238341BD61E24027D015C13F
:10C0D0004B8F7E40DAE2B3C09BD59B40F8B98440D9
:10C0E000DF14554010A1A341923FBAC0E2F99D4030
:10C0F000A56A9940A54402C129ED47C122917FC19B
:10C10000B0233D41A70241400F99ACC00AE22C4048
:10C1100075081541C5477740DCFE5B40EA0CAF3E31
:10C1200004222340CA467FC109FE8EC18C683C4070
:10C130001F1D0E41FB86C23FC9FCAA4042A033BF6F
:10C14000D96325C179D910417AE00441E3084FC091
:10C150006F368A3F89B481C1B3A8154096519D407E
:10C16000A795A53F48F679412EB093C024DE4D40F7
:10C170002808E23F72B539BF7B0A51C037EAFEC0DA
:10C180006989AB400540CB3F78B0D1405728234167
:10C190001D5139409D6A813F0AD9F2BFFDC09B40C5
:10C1A000B0949D40239B8EC1E0B100C1E0A14B4003
:10C1B0004F85434124949B41DEB5A64006B37240AF
:10C1C00001135AC15507D040A106B5BFA2781C3F44
:10C1D0002951B2BC2D65F1BF66590DBD49BBC140A7
:10C1E000358753BF29AFF03EAC7832C1754A353F31
:10C1F0008E4965BF41F7AD3F3A973E3F1724953FC3
:10C20000ECE82741AD1708C0663F2BC01D702940E0
:10C21000DB0442C094F0BFBF13E02FC0F541C13F23
:10C22000EA19B6BE4AE39440F5A7663E0A1A2EBF45
:10C2300042ED0541E5CC7740787C7D41720DF53FBC
:10C2400003C630C18A831941759EBCC13342E6BE24
:10C25000433A3F413824FCC0A71024BF2C2C624134
:10C26000B574EC3D5013EFBE78BD1D40F42D12C0E7
:10C270003008193F6CA85AC094D478C0507A97BE41
:10C28000712B9F4007CD90BFAFE47FC06AD46D4152
:10C29000846E31BF5A2ECC3E48B9C2C177EC7EC005
:10C2A0004E1C20C0AB153640DBE41BBF69918CC02F
:10C2B0007510F240EAE31C41B3CFD040479FBBC0AA
:10C2C00077CBA1C11E0235418470A7C14AA324BF08
:10C2D000F2A31A41F0DB27C17FAF803F00AB46409D
:10C2E000B6B9D73E9EC32FC06AF3EDC0B17780C008
:10C2F000EF60E33EDD308BC02C2B8DC00F7F2A3EDC
:10C3000096E01A41E9E8F63EF3A7C1404F8D2DBFF4
:10C31000D59F6A40AE56D73FEE4D05C265F25AC072
:10C3200076252AC000838E40251E03BF524843C095
:10C3300073F7534069788840DD2DBB3EF5B780C068
:10C34000A9DA03415575E4C0FAB6FDC11682FDBEF7
:10C350007CF122BE99E1E34030252141730512C1F1
:10C36000CD9E0141B9BE834177CD3141241E4AC0E3
:10C370009CDEF5C098380CC0F869DBBED754CEBE41
:10C380004B7524403A544040F114E13D9E921FC049
:10C39000F4065340E45CC940F9FCD4C172918FBFEC
:10C3A000E2D27B3F0FE08B41E615373D2DF0B33EE7
:10C3B0001347B5BF64CB963C4D655CBE77D5DFBFF8
:10C3C00044E9694126B5CFC0E2E26CC23FF0A43F28
:10C3D0000270CCC0D76322411ABE8E40FC0865C0F3
:10C3E00046971440D83B96412D509740A74ABEC06F
:10C3F000D92AC8C05883CABFAFC5E7BF4E5FC5BC06
:10C40000F1DA24C1B5CCB340195485C0BD835BC1FA
:10C41000A1A1C04084B4C0BF20482BC2B1DEF13C12
:10C42000DB4DF93D8E0025C19E7AF03E951280BF0E
:10C4300077C79BC033D6583FAE7968C1E213EC3E54
:10C44000F672C5407DBE2CC03FCFDDC1C2F9AB3F07
:10C450008231FDC066490941938FAAC0EA768BBF3D
:10C46000B21EABC05EDF01C1A286FC40B269AEC0A5
:10C47000BC70C4C0709D31BFFC733FBF8FE4063FEA
:10C4800011F8C4C0C597583E1E2554C097F11EC16F
:10C49000081BC8C0F0A112BF979514C2E528F1BED1
:10C4A0006D2753C03D3184411F42E23FDEA734C0B7
:10C4B000B17500C1ECE3ECC010FA5DC0E12905C024
:10C4C0009D101F404A61AEBF77099BC148D90B3F01
:10C4D00098A47EC06BD2CF40578749C1CA9DB8404F
:10C4E000822EBBC0D7E188C08F572C408C08B7C0C4
:10C4F00052A625C1126462BFB559443FB335543FBB
:10C500001DE0ADC037AECCC0D2240EC192DD67C1F4
:10C5100017F9E4BFC39E3FC06EB2E0C19B953BBF1D
:10C520008AB4A53DD98C30417606E13F34332DC025
:10C5300010AAD2C011560141ECCDA0C0AE211940C5
:10C54000A54964BFE24C36C05E1733C0396DA03FC9
:10C550002EDD27C08255983FF362A3C019A2B9C04F
:10C560001AC91CC133329841EC4FD6C0341820C0D0
:10C57000D79C3CC1D1E9A43F8C930F40E33A743C73
:10C58000A28B00C0F64B50C1A33289C1227054C0A7
:10C59000701831C092E611C0B58A5FC16B896240E4
:10C5A0008A453D40629C9AC129A8703F196AD23FD2
:10C5B000823ED4C0AE7CFCBDF49979C019AC684011
:10C5C000DBBAE7C0C7BEBF40731B1941D1EA45C003
:10C5D000A51CF43FD118D6C07A63BA3F30339140DE
:10C5E00091E3A2403936FCC0305C27C143DA05C074
:10C5F000E1C9474025953EC1F1A73CC1C36B19C0B5
:10C60000C88A2D3F201C1E400F6E473FBB6106416C
:10C61000FF94ED405AF89840B64D05C036405CC1D5
:10C620003ACC83C1C6AFBAC19A7E4DC013D03BC1CC
:10C63000237613C0D82D26413A6A813F4C2F5EC124
:10C64000D03B82C196C78C40C19D873F424FE4BF1B
:10C6500041124841232AA6C00BCC0E406C705A3FB1
:10C66000D32C3A4026C130C189A29E3F01BB4BC0AA
:10C670007A8B3340582A01C1E74C1AC133CF15BF1A
:10C680005F7DA540835AC03FC1677C406618CA40A1
:10C6900028AB554092DF4040F7285BBF67503BC155
:10C6A000BB9E0DC10C60B1BF40CA2FBF22C7F2C0F4
:10C6B0006B8E8740E472CC4022D29E3F1C2ABDC0C4
:10C6C000DCA014C180F9CA40E65E8CC0630374BE6E
:10C6D000197340C0B11811C138A9FBBF30F7A04091
:10C6E000E3128EBE3F4A89C15B11914062A717C019
:10C6F000AF2CDD3DA0C51BC04B0771C086E7853F51
:10C7000019EBB03F1A749CBFE03A484186A30FC0B2
:10C71000C1D97FC059A5A0BF607803C15FB5A1C0D2
:10C7200044EB9CC0C781873F3B0E233F6FC59FC032
:10C73000BCAEA6405FE9D13F86A4E83E0DE3D9BF79
:10C74000F0FE1CC048C99740339218C1874F8D3FF7
:10C75000563EA540B7822BBE1FF91F40399ABA3DFD
:10C760008D2B99BD307081C1A4BE6840093969C064
:10C77000384BD93FD16FE6C079C4F4C04698D83E53
:10C7800018C2FD40B487E7BDA3CDB940457EEF4058
:10C79000C33A11409C8F8F3FACF13EC1BDEC1FC12D
:10C7A000640F97C0C65DAC40C8FF003F9B1EB9C078
:10C7B0002505A9403AC19640FEE60440323BB5C08B
:10C7C000B2BDE33F88A900417AB014C2A6324D3E03
:10C7D000CCD4C740C8CBD840D7F21940C2AB7C40BC
:10C7E00021AC3340DE878CC1A39E0AC05E7DBCBFF6
:10C7F00098922E406AF320C1CC3905C12433813E82
:10C8000051F6EA3F90A819404A32713F8DDCACBF27
:10C810003B877240D963654094AA91C10E4C06C112
:10C820005DC512C1283170415D55C9BEAAB409C1A8
:10C83000B2511740EDCA1941BA9693C034FC38C1C1
:10C84000EB2F69C04484DFC0AEFB27C1A86789BC59
:10C850002DA891C1C99B5CBEDEC8BBC0D27B04C2FF
:10C8600016DDA8BE9EDE1242C38C4C41C694074022
:10C87000E2E6A6C08289F53ED4F1F13D5BAAFCBF99
:10C88000C71715C13BA1A34048A697C1D2018CC1CF
:10C890005BB0EBBF55041540C2BE31C131C4163F79
:10C8A0007E287E3FCAAC06C1A0168EBFBA34183EA1
:10C8B0003CCA1BC1262C97C1C463BEC11516343FA8
:10C8C0005F18CE3F81EE98C1FB0DEC4000A54EC035
:10C8D0007F8E9AC13952E340F5FEE140C89361C1B1
:10C8E00061615F3FEF107640502F55C0B9A1044001
:10C8F000645D3640CAFFB23FFB8491C07A9028C085
:10C900002C0EA5C1975161419DF088C17F33343F02
:10C91000B93731C066AEDF3F9A8442C1BBD41DC077
:10C92000754DB5407407B6403AB87F3B891F9040BB
:10C9300006349CC01837B2C104BAC8401194C44030
:10C94000E3468FC0CDE066C166F395C0DF91B43F8A
:10C950005DA245C156648B4003A64F408E5293C1E1
:10C9600047AA1540B2F435C2B9B0FBC07011BBBFC5
:10C97000EEF1C3405736133F25A93A40C5DAD03F00
:10C980004BD308C1DAB7054126004EC18D729AC15A
:10C990006853E240CF1318BFF223A7C16F2DEA40BE
:10C9A000D5571940B4F6AAC114D834409822E5BD31
:10C9B0001F854DC1A1F64FC1A452D1C19C9F4040DB
:10C9C000A9446C41E53B5EC17E5D63C1F7853D4096
:10C9D00059DC5DC15F908AC0B35624C123A969C1E7
:10C9E0005C2E8340A2E50E419B1291C0037E0EC0D7
:10C9F00020141FC08EF311C0C2FFF53F6E1DB63F5D
:10CA0000EB1332BF3A15ECC031394AC1D449E3C007
:10CA1000D447F540DD3497C0267D98C1AA81AF4048
:10CA20003F531FC0FB4C91C02E8A15403AF2F7BE0F
:10CA3000A7A739C13D81A3C1386D2240D86C14C06D
:10CA4000F5FCEE3F70A89FC1EABA2CC1A31CD73FEA
:10CA500065B8BEC11F5300C1998A0E41AF0288C19B
:10CA600005E3E23FF0BD19413591D1C07D45EBBEF4
:10CA70005685D6C016A559BFE76BC6BEE6910F40D6
:10CA8000D9B718C15B530EC148179FC1D28492C158
:10CA9000AF098EBFB9E99DBF539DB8C16D96F940EE
:10CAA0000864DA4048B407C1A3638C406F30A040EB
:10CAB000058B7DC16958ABC118F405C16B1E5E4082
:10CAC00089B45140F9AAA0C0DF8704C1F05941BF21
:10CAD000657058BFCDFD31C07414A9C0A85C3BC0BF
:10CAE000AFDF0AC1096522C28CCBF7C1308D9140FE
:10CAF0009A63E7C0FECDC93FAF04563E39691EBFF9
:10CB0000C96D58C0A53ACDC0452D15C1A04BD6C0A2
:10CB1000BBA4AFC0BD95A8C09BB6CEC1BE04BABF72
:10CB20004FB193BFA539D74006E6B7BF09CD3DBF8A
:10CB300092B162C0691ACAC01E945BC018D31E406D
:10CB40007737294152C37FC0319F8CC198ED0EC009
:10CB500037B4A03F704F05C0DD6A0140A6AC9C40D1
:10CB60001C908FBFC19B274137CAFEC19462B3405E
:10CB700003464B401F4CCC3F7FF0273FB61C07C0FD
:10CB80009F5F923F4BECCCC0D2E563C067979DC0DE
:10CB900076698EC082BE05C04586D0C1D13553BFEF
:10CBA000D19363BED3CD21C1E97B9FBF0763663FAD
:10CBB00038A8233FDF05E0404ADC2EC169B8C6BF74
:10CBC000DE0847C078C9BDC02FC379C1232D0FC06F
:10CBD0008A7027C07008E23F15BE05C0BECB69C091
:10CBE0000C999EC0A84C20C1A0D684C1964BBF40D2
:10CBF0004526A4401CEDA3BE3658A93EBA7618C0FF
:10CC0000C61681C0259F98C0882058C095BB06C015
:10CC1000E61F9DBE4D2EFBBFBD8E6FC10DFF7A3E40
:10CC2000F59D373F775FF3C13EDE8CBF8BC5E1BE1C
:10CC3000FA9A0CC104ACA1C0ED14A9C0FAEEF1BF80
:10CC40002D6E20400CBECFC0357AFBC0C771EBBF44
:10CC5000FF53DF3E6B280341597B06C1F1079D401E
:10CC6000B2D132C131D209C176C892C1263F014149
:10CC70005F25E8BF5344C63E859F7B3F3B0E95BF73
:10CC8000F0A4DC3EA34A46C1CBA82C3FE20B693F8F
:10CC9000CD57BAC02AEFB7C014D043C1662B313F7D
:10CCA000EE7B933F127BCEC0C36C5BBF91B8363D29
:10CCB000CB86B6C0B86837C0FEF5F0BF55BEE73FBB
:10CCC0003F470E41C9F631BF03A0C0C083341CC02A
:10CCD000C738033F3704D8403954E9C0BDEC93C08E
:10CCE000E6DA04C136E39A4048AE08C130C51941BE
:10CCF000394264C07920DE3FCF99A03EB3BA3CBF31
:10CD0000812900C0C1C0D4C09B9DBBC0AD81A7C05C
:10CD1000927AA6C087BC96C04CA752C1BBB5B53F9E
:10CD20007C9A1440557F7EC12C8C90BFE972D63F0F
:10CD3000A49631C038FBFAC05809D0C03693863F5C
:10CD400017C72C3DF5E376C069FC1CC180FE01C00D
:10CD5000972462C0BD2C26C13EBB784052E4BDC0C2
:10CD6000415695405B12B9BE985846C1546E713F0A
:10CD70004D20854066BD1DC0A2A2C03E50EFF6BF4B
:10CD800034FB843F53AF3C403B5426C1CF2E2BC0D5
:10CD9000E1642D416CA5D34004119EC17015CBC038
:10CDA000A30818C11172C5C15FCF01C09FFF0FC199
:10CDB00033F82EC0C6F61DC09A06B3BF658709C1F9
:10CDC000ADD94D40A0D31C3E6A2F0AC04245B1BF29
:10CDD000D034ACC084E008C1125857BD495EB3C01E
:10CDE000539DF63FD615B7C1B9D014C154B51BBF7A
:10CDF000863B5AC05EB411BFA9E1883EED3E90BEAD
:10CE00003A5BFDC07F24863FCEED97C025E6B2C0D9
:10CE10009DB4CB3FBBCF713E76EC28C1A36C94C0D0
:10CE20009EA8B5C098923FC167583FBE18A287C060
:10CE3000B5F17DC00B27183F15FDD53F4437A3C082
:10CE40004D0504C0637FC4C0C2A307C1B36F883F50
:10CE500075D93DC05F6CA53F70928FC06DAC103F1F
:10CE600063444FC0A6C78BC26F8882C0BBD514BDB8
:10CE7000A4B0EDC0D2A49D3FC27202BEBC423F3EF0
:10CE800042B76ABE729369C03348D43DF03C743FE8
:10CE900016009BC0964A7BC0FBCF14C1397AE6C00E
:10CEA00010DBBEC080EFD34027B2843E4DDDA8C06A
:10CEB00071E288BE4642FD3D5B1DE1C03235CEC009
:10CEC000BF89EC3FB35739C04EBB35C0E2CD66BF1A
:10CED00084A19CC0A1AE0DC0D31A25BF536B06C15F
:10CEE0005B9F303FBFD22BC20244A23F17A99A3E9C
:10CEF0002785EFC0495405C0C83D46BFF641D53D22
:10CF0000648DDDC0EDDB853F08E6A8BF6E20D8C08C
:10CF10000FDE4CC0EB3072BE168D9EC171EA6EC141
:10CF2000F37B93C1746BFD40B2A170BE508192C17E
:10CF3000B9DF63C07FB81B405A82A1BF563BAEC168
:10CF400006D5B340F0B248C0062D56C1AC4E42BF24
:10CF5000BCABA1C06B0FA6C0C788DC3F5166C1C087
:10CF60006C0AC4BEA51EF3BF42AED04056EC99BFBA
:10CF70006A89BCC0E1E621C0B2FD87BF0945A0BFF8
:10CF8000658094C0A8C02A405E5CCDC0576F0CC1BC
:10CF9000550985BE34FEB93F14CB1FBFF0015EC1F9
:10CFA000367C86C1DBBFB940BD520ABFB70582C11E
:10CFB000633674BF2BD983C064BB11C0B8E888C185
:10CFC000EC83CCC1876BA64163627FC13C9BAF3FC2
:10CFD000FFA0CC41104721BF75B96EC190EA6741EF
:10CFE0003FE95BC12B1487C2F3C523C043FAC5BF19
:10CFF000CF4481BEF43177BDE6CA22BEF988E83F4E
:10D00000164E614138D25FC1BC11D241058803423E
:10D01000CDCF0DC16E22F5C09A1123C25A9820407F
:10D02000B7EE63BF02186640DE2DAE3F08D8813FE1
:10D03000C469D941AB0CC941B9F3D341EB35A63F23
:10D04000FAD598C12887F641226980C0DFB6B13D84
:10D0500007D4C541186C2CC07CDD8DC03C95AD411A
:10D06000CFAAF6C085738BC128809540662E173EE7
:10D0700071A6F13EA5317EBF7DBC13BF2121E73FE4
:10D08000A8018E411428F0C033090042C276BF4186
:10D0900070D4D6C0BC049BC0E2A25EC167E69BBE52
:10D0A0007850FEBE4CFC4E4185498D3E469C5F3F0C
:10D0B0006ED67C41CE6FDA4193509F4114D3303FFE
:10D0C00094D46EC1AABEDF41C87A5AC0402630BC93
:10D0D000807D4A4133C11EC1B1B90C406594DE4127
:10D0E000C81003408A6B3F41517E6C413B071140A1
:10D0F000FC2C82401DDE583E69B74DBFDBC280BEAE
:10D10000983A5241527843409029BA41CF27FD4185
:10D110005E4F23C06F29303F507CEEC04276943F73
:10D12000DFF1173F5480C24028954CBFEE49A93C1F
:10D1300074A09E411ED8A3410E86C3413F82983FF2
:10D140006BCA8BC1DA1D5E41B1CFB33F962D7B3FD9
:10D1500095C7E041E6E5F7C035B04540D27BC24116
:10D16000FE349B40980EA341E584103EC4DC1E3E75
:10D17000EC7BCD40446D893F754DC03F4EA88FBDBF
:10D1800052C15041C15A134027F2E74116FFE24114
:10D1900019941EC0EB261BC006371CC0523E0F3F21
:10D1A000F4F92F40204BCFBF3378AD3FC1D9FF3FBB
:10D1B000A5048841471DC241FA7EC941EC020440E2
:10D1C00027119AC162FE9C414CC75E4074492240BF
:10D1D00036489B41356748BFE2AB12C12E27C0419C
:10D1E0000BB66BC170D3BABF9B6FC6C0A80B9BBFF9
:10D1F00051972AC07E576B406F40154068A5F23F9B
:10D200007B0E6541C87A48C15291E1412AF27441CE
:10D21000A38C41C1F71534C1B0F67E40803C754007
:10D22000F01859402E2993C075801E40B5267740CE
:10D2300036BF4041DF40974126209E41DB198040A8
:10D2400023FA1740A9C19CC01B5CDBC1D689A4BFCF
:10D25000BC6016C1C5878A40B874213E7D6992C002
:10D2600099B83540633FDB409F874141F90CDF3C73
:10D27000C9583C41300093BF718E1EC093103CBF13
:10D28000020DA1C0FEB41740ADD685C02595D3C010
:10D290001554363FF79BB73F05B031C2586A98BF67
:10D2A000F77D24BE3B0E37C160560EBE372663C0E5
:10D2B000FF0997C03FB1CC3F391131C11A755AC02F
:10D2C000081B75C035C741408F610EC20C37004046
:10D2D00070765240B6544640AF3BCFC038D278BF8C
:10D2E000FF2DE9C08286BEC110594F41EF603F3E1D
:10D2F000DC338441C57FC83EB4BFFF3F12BF923FBD
:10D3000049B42AC0EB2500C1AD2269C01ECD683FDB
:10D31000DF7865BE269899C07C0B1DC25F666F40A2
:10D320001B828C3F80721CC1CB240A40893A464044
:10D330000DBA4BC03D7B81401E490A40299CE53F08
:10D3400038CCE53F191E1FC06D78EBC1CECD29BD8D
:10D3500007D841C16B9C0D3E3BFDB4C0BC13ACC0B3
:10D36000FB2306C1C112B0C1B20E23419DE5423F6D
:10D37000307ABC40570B9F3FAFABD33FBF79993F4B
:10D3800048733AC102CEEFC0163B5DC156FE9FBF47
:10D39000230801C12FF297C038B520C224FD9A3F5F
:10D3A000A6039640D216E8413506923F093B354028
:10D3B0009AB13BC0F65014C131FE05C10C5508406E
:10D3C000B48D4F40DF9C1FBF65EE37C2B0B593BE32
:10D3D000AEE4E4BF83ED6A4054364D403D18A5C02D
:10D3E000EFA20A40FAD3FDC1B9215A41BA9AB53F1A
:10D3F000331CFE40D112A1BF446A70BF5C35FCBB38
:10D4000097210C40DCB1053FED0FEC3F6D9A9DC0BC
:10D41000BB9A18BF04B41A3EBB4C0CC2F5EB81C0DA
:10D420006C64CCC0105E1C416C6D9BBE1AE6A0C043
:10D4300045F68440AB12CBC0B8DB9B3ED85D27C01D
:10D440003367D140C328F6C0F09207C2B26EA63F40
:10D450000C0D59BF3062C14051A2B83E7A1462C16E
:10D46000CB3A74BFB54F20C22F1F9840C2A7E83FE8
:10D47000614CB740F98F0DC0DBABD03D7DCA6DBEAE
:10D48000D1C69CC03268B7401BBECE3FF8228FC0C9
:10D49000DAEDCC409FDD74407B3F68C1B2299FC06C
:10D4A0002DEAA4C07C6F86C1053A65BF3C92B6C028
:10D4B00085E08DC0AD8774C06C7A5FC0D7858CC0A5
:10D4C000B6F886419957AEC16AA9A4C1D23CAE3F15
:10D4D00009BBDFC0FE8F86C00F612EC1DBBA38C129
:10D4E000B9A305C1B5F12EC2B40C8AC033CA91BF2D
:10D4F000BB65E2BF322510BF5A1A023FF25B553EB0
:10D50000DD2D65C1628026C13B4D9DC165A4CCC0A7
:10D51000F7E88AC0694283C0F284FBC148EC6CBE64
:10D52000C2A0933F5203FFC04D2E5D3F1640863E82
:10D53000962520C1260A90C115485DC175E0B2BF8D
:10D54000CE45164188E38EC110D8F93F82115D3E69
:10D55000B2DC19C1604897C06DF45BC18BCF2FC19D
:10D560000545FAC0A35805C2552036C07EB59BBFFD
:10D570007D6D95C0CC7C2440CB899D3F5748813E32
:10D580006EFC83C1125440C18CFF93C1AC08A9C189
:10D590006775D7BF217CDFBFFEEBC7BF3EA6913FBB
:10D5A00087B6474084777BC0E30A4C3FF95C47402D
:10D5B000F5E186C117B091C18A59C8C1DEE84F4074
:10D5C000A42E8641AAA61BC1348E1E4050C6463DDD
:10D5D000D6F96AC18038AF3F7C8C3BC1B8A626C162
:10D5E000F6797CC19476E7C158EC803F81220FC068
:10D5F000825C82C06FB73E404BE1B53FC3428B3F78
:10D600008FFB2EC1350A88C14CCB94C116B8A4C07B
:10D610008AC406C0C5843AC049DA0B41C5D8E03F88
:10D62000FF4D0D400555ABBE78C038BEEBF70D4041
:10D630005F2C31C0622559C1F3C20BC1147AB1BE4F
:10D64000E7479C41D77576C141A30AC292624BBF9E
:10D65000730325C13DA211401AAB1EC14A9AA1C154
:10D6600048BE0EC1292481C22A293B405C8C29C0B6
:10D6700017D345C072E9883FCE79563E5916FABE97
:10D68000C544C2C11BB90EC1E142C6C1C0943AC172
:10D690008696AFC0F1E8CABF2E5118C22EB78EC011
:10D6A000F882C3C072B2FCBF6E321DBE7A44C4C0E1
:10D6B00051A872C1DEE65CC1DA7D82C155FABCC0F8
:10D6C000BFBD8B416A5407C17FCB63C20F194FBFE7
:10D6D00093215AC1C8C4CB3E036D5D3F14801CC169
:10D6E0000FD5E5BFD3C1D8C1B9C5C73F0530013E8D
:10D6F000024FA4BE92C62DBFF88EB9BFDF6300C033
:10D7000090D351C1F3CE7140FBE995C1E5D717C164
:10D710002155CA3F41843C400A3488C248D0ADC03C
:10D720005046DCC0F6168DC0874205BF189BD9C095
:10D7300089605CC123F334C1941A90C12017C4C01E
:10D740000A729E4045BA0EBF0C9FF6C18F4401BEBF
:10D75000823182BF130A7DC1B37B16C17095EEC0C2
:10D7600075E50BC1BAC535C181A7A4BF3DE98C3FA2
:10D7700061FB9040DC3E0C40925681BE698D173FA4
:10D780005788E3C0AD5BAAC0122AD6C0EA5FC3C007
:10D790003E930CC0967175C0F50ADAC1D8A95B3FFB
:10D7A0004682EC3F90B13CC149D4C4BEDA1E403F32
:10D7B0004D50853FEAFAA940051C21C1FDABF03E62
:10D7C000C48ED93F7A00B5BFD528A8C11C4D7E3D77
:10D7D0001B723CC153E6A9C1E3C883C1F1EBD1C0C0
:10D7E00097AAACC190AB23C270DA60C021533B4012
:10D7F00093248DC036BC623FC43011400817803F6F
:10D800007DC1EBC0463687C1F48B4740BE405740D0
:10D81000A1E8DAC089A6F1C0F3F2DAC179720D404D
:10D820008870DC3F3F71E7C0BA71BC3E8E79963F8D
:10D83000FC0B0240B56B45C141C1B6C094986D3F29
:10D840001D81643F1813973FC98C0540FFDF68BFF7
:10D85000FAA929C0AA0F99C13F3D35C12D71F7BF63
:10D86000E6DDCDC09A1735C19F6B23C1635C434091
:10D8700029F012C14DB1AF3F1A8C963FEB691ABF28
:10D88000744C01C196083CC1503E0040896DBA3EBF
:10D89000E80C0EBFC1928CBFFD033B40A6F9E2BE6F
:10D8A000CFD4133E834E96C0A883E6BEFD3208BE99
:10D8B000954CB93FA552E13F605729C1868F39BFCA
:10D8C0001E2965402DD2374011E4294132489EBFC0
:10D8D000595F47C19B386CC160A63DC128682AC109
:10D8E000B9D428C1EC4E1342057AC7C1B13A67409A
:10D8F00015DD43C1634D74403B74D93FF80CF3BE52
:10D900009EC93FC1304A17C1877777C0988E483F7C
:10D91000771CD0BF2D0D96BFAF652641592C124004
:10D920005F442040D99401C00BB901BDC3EBF03F67
:10D93000D4C17EC014C285C02FF421C0DEA68340AE
:10D94000FE541EC09F51AEC0CED69A40C48864BF5C
:10D95000D5EECBC03F83B8C03959ECC0C71A58C008
:10D9600084110CC1E81DF64132AB9DC11E263F401B
:10D97000543657C160B06F405EB9E73FE43F853F22
:10D98000AA717DC03B970CC157B15640A9FF49C051
:10D99000C4C7C6C09E9163C09AD5C34052C024403C
:10D9A000C2B51C4057366640661233BFAA2C6D4084
:10D9B000566B5DC0FA8AAF3FDFFA0FC116187F4081
:10D9C000473D9B3E78843DC089453EC10C9C1EC1AD
:10D9D00020EA683FEBD9CD3F6349B63FF595F0BFEC
:10D9E000C1F15840C81AA4C1DD81B5401F19833F59
:10D9F000AA00943FBFEC46BFA87795BDB7C82EC11B
:10DA00005C84D3BFBE89754088BA2241236CBFC0F5
:10DA1000C7812840ED3E5C40C91E2D412E6314C1D4
:10DA20008E1625C1AB1E9EC156C311C1315604C10D
:10DA300093F4D04069231BC1B28289BF9D6801C1A4
:10DA4000656296C0A28E77C0D4782FC18023DEC0D5
:10DA500064B0AF404A4B3D406B7BDABE99C9CBC046
:10DA6000C9C588BFCD2A33C2D59B00406ADA963F2C
:10DA7000A36125C131836D3F934BB93FFE36AEC0E4
:10DA8000885621C0A0D562BFB89582C044F2D6BDE9
:10DA9000BA41643D0DDB37BFB70DC43FD6EE18C1A8
:10DAA0009DCC30C13CE6D9C0A6E5BDC04B7223C1B8
:10DAB00015CFB740A051943F42B88640C68036C1CA
:10DAC000945204C06A05B3C0198A91C0E63F94C05D
:10DAD000333DF340466C92BF903F6EBFC5ACC03F34
:10DAE00042C4DBBE539DD3C15918D4C05619383F28
:10DAF000A0DC44C19D28B0BEB0341EBEE88D15C068
:10DB0000715C813F62C12ABF77B4A140853040403B
:10DB1000203CA3C036D931C0071492C047BEF7C01D
:10DB20008609D4C083DAA63FA2BB32C0889710C151
:10DB3000EF1F63C0AB364AC056B0E9401759FAC070
:10DB40004BB424C193A54C3F4D5E19C14FDB86C039
:10DB500026CECD3F23C4B6C0BC4272BEEACB27401E
:10DB60009F7EDF3CC083DFC1473541C115F5E13FF2
:10DB700043F152C13D95B23F2137363F094ED3BFE5
:10DB80008E27543F9E2BFFBFDB0D3F40F159D940FC
:10DB900084B0F4BF55DE04C0D3F297C1F35194C0F2
:10DBA0001D778CC07C361740E8931FC0335564C086
:10DBB000E97FDE405966CAC0C2DC9FBF6460E6C030
:10DBC00076D34240A43B82C008B783C17F3F33C0B5
:10DBD0009485AC40DCB802C17CFDC7BFDF26E23FC4
:10DBE00090E1623C6ADF79C17D637DC16A96024043
:10DBF00044D121C1F0965E3F945B44BDAE722BC010
:10DC00009C56B24098B28E3E622882C03EA5D6BED7
:10DC10001F560AC08FE9F1BEE340CCBF6AEE07C0D1
:10DC200071A18DC0E87AA73F4BAA05C00D4B85C0F6
:10DC300080C69B40B79849C086DA39BF544182C03C
:10DC40001FADE340E89973C1E71B99C1507895BFB8
:10DC5000294F71C14B7FCC3F5599B4401E3A6BC1DF
:10DC60000AC2A64058DF10C07FE8994065EDC2BFE8
:10DC7000E331CCBFC7DEA5BF84AD80BFE57C6FBFFD
:10DC8000931B05C1FB31A84007BDC33FEA6A06C12B
:10DC9000B5240741CF90CD4049CE9DC1B77752C141
:10DCA000F60790C1CF724FC1FD000FBF33BF88C1CF
:10DCB000FF50B8C0002151C1D75A1EC17535A2C14D
:10DCC0000CB402411E1015C1E3AE67C19B9236BE73
:10DCD00087818BC1522DAE3F69B295400C0C32C189
:10DCE000814260406AA50D40D4DAA34008BE2FC02F
:10DCF000E378893FCE710FC0B0B9DFBF635B9EBED2
:10DD0000F44CF8C07DA4873F278E6CC152CA48C12D
:10DD1000F9B6BB408CC48040062ED5C050C74BC15D
:10DD2000AFF381C11FE073C0B77D65BE746780C16A
:10DD3000D49610C1B6C141C128B24EC16C86BAC1D9
:10DD40009EA66C41351580C174F9C2C1D2CFD73FB0
:10DD500097BA1FC103BA1FC0C99101C00F0E52C1AB
:10DD6000170A72C0CE56E84022E120BE564327C0B3
:10DD700003401EBFB0DBAABEC9CAA43D8853C73F3B
:10DD80009C6A99C0F6B3DDC0F9F863C1949B32C1B7
:10DD90000F770DC0F0F466C08DF166C11FB887C063
:10DDA000427DE8C0062141C02981AD3F1C47E3C048
:10DDB000E1A691C0B7583FC140F8F4C0497A28C1E4
:10DDC00059C62B41C30B33C138EBD9C125915A3FFA
:10DDD000306A87C1DF8CF3BFC7CB11C033312CC190
:10DDE000599CF2BF2329DFBF73AB5AC0EFF52DC09A
:10DDF000DFBB8A3E081023C03C12A93E95F6A93B22
:10DE00000DD22CC113C69B3E8C4CA9C1D80790C023
:10DE10005E31B1400B420A40050EEEC123E9ABC0B2
:10DE2000C163C8C0B0CF1E40A910823FCA580BC101
:10DE300047C7B5C0898791C1DAB832C1224D22C126
:10DE40003D466F41D6F342C1DE8A5EC100DD833EAE
:10DE50004C019BC04DEB32C0F9243E402F6863C19A
:10DE60000ADB9140E26179C133DDA6C0ABCD42C08F
:10DE700015993240820B07C04FF71EBFF13E173F86
:10DE8000225944C0E8BC8740F6BB4DC14D4879C11A
:10DE9000F5F38240FC4F6740188312C204E108C0CA
:10DEA000BAAC10BFF9FD6C4102BE8DBC87398EC083
:10DEB000B852DAC0926E8EC1B97A5CC114658AC05C
:10DEC000BCAD66C1FDEB1C414D70504167F429C1EA
:10DED000476B00413CB43AC0C5F5164008C87F40C6
:10DEE000FB85A23F9B2D89403C00A04055B2954048
:10DEF000D741DBBFC49B90C0E4950CC199C115C14B
:10DF000010F82D41680CE73FB66D8541AF521040C7
:10DF1000BB9E1B40B633703FA634244127692FC0F7
:10DF2000B6E770C0B0559CC19EAC2FC1D17E1BC05E
:10DF300082DA3841D0623941B086F1409AC9C4BF13
:10DF400018811DC106263A41D2E80041BC5C55C08B
:10DF5000B7B9544172AE5BC13294653F00F62741B8
:10DF6000E048A5BD8414CAC0D27CF3BFD5D7B0BEEB
:10DF7000A2F2004044760AC1EB091CC1FF708EC0BA
:10DF800002E994400B5F863FD9602C400A637041E0
:10DF90002DF4944037A0303E7133A6419DC7BCC0DC
:10DFA00026AE8DC0963BF9C1BB5573C0D7862BC03A
:10DFB0007F601D41704D6C408F79BE4045BAABC04B
:10DFC00078604CC14CB33341171663C07305913F61
:10DFD000FD5EAC41FCF2CCC04FD7B53F6B523C412B
:10DFE000096DF4BFA72746C1EDFE96C0B64760BFD6
:10DFF0009502E83F64ACD8BEDD65ADBF435F8C3FA2
:10E00000FE2402410DC2E33FF4739241A069A5BE14
:10E010006AD711C0A83794BFF9F233C016739DBFF9
:10E02000CB8C52BFAA3EB63DB854613EF04383BF8D
:10E030001551B340297B8541956E8241D6EDE9BEED
:10E040001CEE85C1E75E2C41D9AA95C00CB9493FA9
:10E050009A2831410C92A7C133ECE6C02FE2464129
:10E0600084B701C1F1B4B84136F9C0C052B5F2BFAE
:10E07000BF01CCC09E0F223FD4C0C03E46D4EB3F70
:10E080005AFE9E409D95F5C00862364144B9B441A0
:10E090000B5AD2C0036988C04430EBC0932939BF02
:10E0A000C9139B3D7206ABBF5DAB7F3FFC73053F61
:10E0B000F0EA4A3F82209241949947416AD5A8BE2E
:10E0C0003E0240C17BCC8641E2E6DA3F8AA09A3F1D
:10E0D000A23A0E4117406DC1A1F76CC1629317417E
:10E0E000F5581FC144CAE4410052C0C19B91CCBF46
:10E0F000A6BD1CC255E4203E9462213BFC2D923FFC
:10E10000E8F97B41E2E77FC1FBD881410F6D4641D1
:10E1100000E50BC1DDE48BC0B0FD2C3FC6E8053F38
:10E12000065D803FD0712FC1A73C2D3FAA47223FFB
:10E1300053965E41F9A708414A5D8E41C001AC3F4C
:10E1400022C660BFF6E019C028AB7A4181298BC096
:10E15000FDDC24C17C1203413B3C96402BCF733F36
:10E16000695F593F9FD745C1CCF7BC3E6844F54035
:10E170004037F9C08A0ABB3E82AEEC3F02AF77C09F
:10E18000F0B020C1BA69AFBF72201CC012824AC170
:10E190003728543F4E233EBFB0DEC83F405B9CC093
:10E1A0000AFE6ABFEC3EFF40680290C0DD05B0BFCA
:10E1B000BA8D9FBF6B86A4C00996C63FD743D13E98
:10E1C00097846040964C94C1469810C156EE3BC16E
:10E1D0003E240FC15BD6EA3F23C7B84002844A40C1
:10E1E000CB5C88401EBC9C401CCEDBC0E6B3EE403E
:10E1F0002AA11CC0F26E4AC08AD7F0BE4A4B29C180
:10E2000060B634C1F263AB3F488597C1C00D0FC102
:10E21000DFC18240BDC88940866BBBC1264117C1A2
:10E22000875200C1B48A8DC1C4970CC144C230C1A9
:10E2300027C217C15106E2C0CF9B993F643775C111
:10E24000B8FB0C41F64F7CC0D20801C02732E8BFB2
:10E250009ADDD6C069CF22C05A1800C0A5EC1CC1F7
:10E26000130F14C0EAD35240CEB429C1A246A0BFB6
:10E270009AC62EC05BBCB43F0E6B663E7EFBB7BF3A
:10E2800003B173C071D9A9BF0CD852C1C38846C1AC
:10E29000BD1414C0BC6C40C00B1F76C0536164BF7A
:10E2A0009476B4C0FAC856C12FD084BF5ABD2AC0D4
:10E2B0002823DCC09AE3253FAFD0063FB98257C080
:10E2C000AB99A440251771C17CE9F3400DC8D1BFBB
:10E2D000799464C13D6F0DC1B2AC4C3F18CC68C19C
:10E2E000AE0239BF301C14C096729EC1C0466EBFCC
:10E2F0000FFEF2BF8ED3B23F029B0E4013C03CBF55
:10E30000937C09C15B72AB3FFF0445C1ED049C40A7
:10E310008AC51AC043F5DFBF5A3A62415F9DE23FAA
:10E32000DF1FB23F60A31DC0E8D218BE2CB6573F16
:10E33000E7BA18C1DA71C2BF0B404A4031A7903F1B
:10E34000AB366BC074F813C1FA97F4C1D4836EC0B6
:10E350006A69F3C0340336C19C62233F0543ACBFF6
:10E360009D87EC3EF61300C0CC54B5C19B884C3E53
:10E37000E8A29C405092C0BE8C0FBFBFE00E24C0EC
:10E3800040E266BF615A5A40AA9ADEC0892121C183
:10E3900017ED0F3FB38E45402222EBC1B416ABC040
:10E3A00049043EC18C2CB1406A1AFEBF30AAF8C0A5
:10E3B000FE3635BF1F2218C1618026C1497218C1BF
:10E3C000D16255C1878B26BFA9639DBF706060BDB8
:10E3D0000F9F07C13A41D140F35927C1C8C38E3FAF
:10E3E000DF91D2C02781E0C109C61E419C9182C045
:10E3F0005941D9C0ACACBBBFC434F43E87ED68BE54
:10E40000CEE1394106AD11C11A8808C19E2DD84010
:10E41000D55AE9C042675AC05903B03FF01CA3BFA8
:10E42000C53A6BC0069F0041D2ECF23CF7A680BF14
:10E43000E91CCF40BC1F47C07BDB563FEA7A1F3F39
:10E4400012AB77C1AEADA93F8876C4C0BC2184C0F1
:10E45000417B2AC0EA5E68C196D6C3403597E84042
:10E4600029C315402E7E4042E9C10CC1B73A4F4046
:10E47000E97716C0EFEA93C01DEFF1C0E02654C063
:10E480002EED8E3E4E74E53F599221C04A47A4C0FE
:10E49000E692594050230C4098EF13C1F141CDBF93
:10E4A00046619E3E68304140DB782DC10689A5BF9C
:10E4B000047CB3400657C0406AFB51414160E3BF52
:10E4C0003C2616C1FB6390C04060FCC0261DA3BF64
:10E4D00029357FC0C58BCCC11E651F407A7C1BC10E
:10E4E00009CB72C04F67D041508491C102142540BE
:10E4F0009FFEC7404C2480BFCCE4B7BF062D8ABF27
:10E50000BDC3383F19602EC1FC74C7C0777A8ABE7C
:10E510006BAED5C053189FC05CEB23C045FD8AC0CD
:10E52000ED3F03C03B93F8BF0D4813C0BDF3573F09
:10E5300049A049400365A34047EEE5C0450B8BBFAA
:10E5400079247CC013C51DC1F91144C130A6B13E68
:10E55000F0138A40312166C17B7193C067F6193E82
:10E56000E748A8BF4E37A4C18480ABC0339BE2BE4E
:10E5700059C2C93FE49E0FC03D95F1BF83D61C3EF2
:10E580005883CDC0AC79A6BFDD4A8F41F7BB08C127
:10E59000449EA6BF21BC063E43C4EFBFAC9EB1BFA4
:10E5A0000076B8C0AABE0BC04C58183E28603B3F4E
:10E5B00094C5D1BFFDA6B23F4DD5B140C541ADBF59
:10E5C0004D7ACDC024C1AA40C9A069C157E252BF4B
:10E5D000E258A6BF502B75C1C5437B40EEBBF4C0CB
:10E5E0004066CFBF57632A416BFE97C00A76B3C01F
:10E5F0004833664000782BC0431776C0E7BA38BF6F
:10E60000DBFD903FDC9D9B3F67830AC1C13F20C17A
:10E61000456695C058975ABF507D90C1C530AFBF71
:10E62000BD4295C0A3C539C1F77BF7BEF1D523C064
:10E63000DCDAA4BEE6EA06C1B7F90A40A4D1AEC04E
:10E64000FD57CFC18B7D5341E2CE963FC2A195BF0E
:10E650000DA49E4134805AC0D740C3BF76E34841E1
:10E660008CC86A40DC4AF6C04D193B4032FC1C3F66
:10E67000AE4D47C0615831C0B18733BF6568C73EF2
:10E68000A6654B41589D983F5EF58341B77B7A4123
:10E690008D844BC0E879F13FE53378405660CF3E3A
:10E6A00087103040B73356C0CB3A413FA00F81C0EE
:10E6B00051DF8241F7CFB44141393841C19E96C004
:10E6C00048A6C3C1D453C64137B17F41E63FEA3FB4
:10E6D00094A54841186B0A40EA071AC1CDB9C34155
:10E6E000A6B901BFE461724042BD14C0711167BF99
:10E6F000A6916ABE9B94F33F6E0E19407D67223C43
:10E700007E45BD41F35CC5C014A1E34188B06F40B4
:10E710008749DE3FC6685A4005AB9EC1299E5AC054
:10E7200005D167C04E67F6C0D48D1FBFE8DD9940A4
:10E7300089FD4A4185A5FA41B1BDB741A3A0EFC00B
:10E74000D47952C1177F814147DD8CC03E2AFABE81
:10E750001194934141DB0D3E1C7E35C18D89BB4038
:10E76000B13808C1A75287C18126D4BEC0FE1AC0E5
:10E77000010B4BC03F37663F84D1A23F427F9ABF17
:10E78000799ED740E5E20C4116ECBD41F6964CBFB0
:10E790004D503140769814BE9F213B40F4431D40BC
:10E7A000A0780A40127D9740BA4DF33B48A045C07F
:10E7B000CDE78E41DF5607414B456F40ED7747BDB2
:10E7C00074874CC1AFB4034287941CC104A9ED3EC9
:10E7D000F9BD8241A1DDDBBE69F32EC029FBC0413A
:10E7E000251FD64059B475C187641FC0C2F910C037
:10E7F000E3352E41B05903C02DE33AC0365F92BFD6
:10E8000058776541F72C2B411ED6F74159EDBE4193
:10E810006378BA3F77FD3C405BE406421C9872C0C7
:10E82000F15D11C00BF31E41882B5ABEF64C81C01E
:10E830000E0A554149990C41A0BDF4412B54E73FC4
:10E840004D2689C0D4A8194108FAAF408C0AC83FA8
:10E850005C1F004249769A3FFC0634C14ED3984172
:10E86000A65ADAC0C17BD641D64EBF3FBA2616C0E3
:10E87000DD36C3BFF79C3940040AB33FDF02733F64
:10E88000D0B45641ED9FFCC076B35141D2D97EC081
:10E89000C6C085C011E5A7C0898E7A3F0F08B44075
:10E8A000D8392FC08864D8C1C56326405DA73AC057
:10E8B0007CAE4841E120AD4001BD85414BF11E4099
:10E8C00037C9FCC05F3B8DBE9DD91F408C4F8E3F2A
:10E8D00078E836C0CB4F13BFBE4DB8C184EAE03EE6
:10E8E00031AF93C1475F58C18446E2C0B0FB5ABF05
:10E8F000111549C0B7061740E394B73FFF65D93FEC
:10E90000CAE525C024F1A1C11C3914C0FEA4D33F1F
:10E910002CD013C1C72524C166C73840F5B8EF3FD6
:10E92000DF2F8B403EE8A641C711C83FA8A13A405F
:10E93000CE920EC01B38DB3FD75657C06DDA3C4035
:10E94000FDAC15C0AB3C913DA22F17BF25665F3FC4
:10E9500071080A41E54E36C040D427C1DEB5C54036
:10E9600094A912C1A575EFC18500BDBFB97B8DBF4C
:10E97000063F8FC0319BB63F3BE1893FBB498D3F8E
:10E9800013104BC0018BABC010644D4096CB384088
:10E990005D54F5C0B51AC3C0AD6D8AC0F8A8154066
:10E9A00080C1E63F84132C41F01EB83E6327D63F5A
:10E9B000719C713FBA3E6D3D6360CF40C4F403402B
:10E9C000C1721A404DF65FC0F1DACEC02AF50ABF17
:10E9D0007BB4DA3EB21581C007EA053FCF5547BF89
:10E9E00053BB98BFE1BE9DC1751C37C0CF10EBBEB5
:10E9F00081ECBFBECFFA46BF232A10BD35B07B3DA8
:10EA0000788C613F88CFA2BFCB02543FF5D161C063
:10EA1000BE7AAC3F1F9CA8BF1F1770C17CB8663F71
:10EA2000F3AB86C02F5994C040B1BB3E6E06BBBF4E
:10EA30004EBBC0409D73E9BF2F883BC0DDDE5DC08B
:10EA40006CB568406E8A7BC0D446D93F136D05C053
:10EA5000AAE315C0CE0F17C1427670403555E5BC0C
:10EA600066A356406CA3D9C09F394DC138EFCE3F45
:10EA700079BAE63FACD9ACC0C7A485C0F4178FBF44
:10EA800097043C4094588B3FFF2317C1CE8FA6C0FC
:10EA90006BDC963F355A4E40E71EB5C144E266C175
:10EAA000B3FE53C18CF0B240F167B5BF652C1DC1F8
:10EAB000C51CE03F555C44C117C5D4C02D156CC1C1
:10EAC000614D864049DA5B40150E68C0A45409C008
:10EAD000B17AB7BF97F28FC1B5635F40FE9613C09E
:10EAE000498D8E40753DB340B984E6C1B973703F1E
:10EAF0003949284043D109C12F3116C1CC2DD7BF88
:10EB00002C69723FAB8AF73F4D5B1240786791BF2B
:10EB10002AB79F40A4F06B400B0360C1C42C82C194
:10EB20003D2B9CC177B25E41B573AFBFAA037CC1D8
:10EB300053E3B940067ECB3D9F1F9FC0DFF7A2C1C4
:10EB4000B067D9402ACCE83F6859CBC12279D33F7E
:10EB5000BF5AB53F864D883F7BC3F0C012E90DC058
:10EB60000243E1C09EE207C210EF14BF8CCD96BFF6
:10EB7000F9A437C02A55AB3F45A49ABE97742640E6
:10EB80006338A8402AF647C0C579A240FC62F63B2C
:10EB900091FABBC06DB975C009F1B0C1C5026CC0B6
:10EBA000C219F5BEA2725941239685BE985FAEBFC9
:10EBB000FE6710C0041243C00241403F0013D83F1B
:10EBC00029A201C1B40AA840124799C136A4DEBFE8
:10EBD000B10D6DC0D11E2AC0D54FE540074E39C0DA
:10EBE000134D0541FF95BB3A84424FBFAB8F2D3F7C
:10EBF000677575BF589519C0FEC5F4BF746A4CBFE0
:10EC0000D9E18EBF0144DE4079A09A40D194383FCB
:10EC100080FD82407A80A140AA9064C185BBE8C093
:10EC20000CC59BC05E4EF44093FE14C09EE1E7C04D
:10EC300059FCA940891507400CCCBC3FB8A07DC049
:10EC4000250C5B409B1E6F3FAE1E79C19D2453BEB9
:10EC5000F468EE3FCBF8C73E57D90F403456C53D58
:10EC6000588DAFBF584232C042AAE83F7B48C4BF6C
:10EC7000334086BFC91C3FBEFB6AC83EFF07DABFF0
:10EC80003977923F713A87BDAC65DCBF96EB8DC09A
:10EC900075DE5741EDDB9ABFF61C3AC1DCA5FD3F9E
:10ECA0004505984077DC83C2A5808F3ED6CA3F4099
:10ECB00025DF00C0D7D894C076E7AC402C3972402D
:10ECC000D95D923F01899EC0E79897C1C8D3CA3FDA
:10ECD000429226404478903EA156EAC0516617BF42
:10ECE000FDE523C178B709C295D57EBF19A9E6BF56
:10ECF00040C97DC01C946A40C17F943F806D4E40E6
:10ED0000836640C0C2C20DC166F907417B1FE73F61
:10ED1000FE8E8CC1978D24C1D1C0B4C1508D8F405F
:10ED200076F5904097481E4212CFF03FD628884093
:10ED30009D72813F22CD8240790B9740B3D1A73F8E
:10ED4000252774BE5CA03FC0524E63C10C71DEBF6C
:10ED5000E3D1FA40F5AAE4BF1EF683402469ADC0B2
:10ED600095A8C240AF3ECE40EA1FB6BE70BCEC3F95
:10ED7000D2FEC53F1FFB0AC055A1CCBF5AB19CBFF4
:10ED8000EDD794C037E0704007F54A417C2DCCC0E8
:10ED9000BBE19040456B82408D2A9FC1C2A18BC0D0
:10EDA000B86710C130485E41AB8BDBBF240D36C065
:10EDB00019EF3DC04EE390C039F5F8BE3A3C8CC027
:10EDC0009776E3C0E55D91416DB5AD40CE44C33F5C
:10EDD000A65FBF41538270412645E4BF8D1C474169
:10EDE00015D21C405C394FC08F8846C1EFFD97C0DB
:10EDF0006B2E5340C67788BFEADFB73FF2FA154063
:10EE00005C7DE8405F7081BEBB3AB44107A196418A
:10EE10006E85E740C840973F12088A407986783F60
:10EE2000B970C2BFF6D9084153076040914A133FF9
:10EE30007194AD412452F14145A9E041EBDE1B4004
:10EE40006DE3F4C160029841F7A5D0C0A617A7BE34
:10EE500082D6004252690940598EF03F3F75C94140
:10EE6000770C68BF582033C1FA69DDBFBC66493CE6
:10EE70008C8E4ABD95C21EC0969E6F3E1A167D406E
:10EE800009D7C041CE4232C0D544054203A5C64190
:10EE9000F03CAB4065BFFF3F2E8482411F4C8CBFCE
:10EEA000DBD7063F16A4D2BF99691440A2F9D6BF9A
:10EEB0003E2FB74105A5A541105A3042FD5B4BBF1F
:10EEC00082C26CC10DEBF341D6BBC7C1C5E4FDBE28
:10EED00083098D41FF3084BF9207324037239F4121
:10EEE000D3A522403E6252C1622508402743034019
:10EEF000045994C0921F2BBFCC6A26BF1B8421BF2C
:10EF000096FD4A41E7F18EBF36A709428D23804125
:10EF100049B5DB4095E066401D28D0411BCEE13F5E
:10EF2000CCD95C4040F998C10939B4BF4335FE3FA4
:10EF30004E4FA041BA4F0842E47F35418FD59EBF66
:10EF4000A66080C15E42F8416064E8407894413F29
:10EF5000AA43A24163EDA9BFFAD74240D1878F41AE
:10EF6000C6FFC1BE929070C1CBED743F8E050AC042
:10EF7000B5187BC03218D3BEA0CC06C0159BBBBE53
:10EF8000F748844102BDF7BF2C0A22421056EA41DD
:10EF90009EAA9E405A9CD43FF4C53441A39F4CBFC7
:10EFA00050820AC017B667404D199CBF8F1DB9BF6C
:10EFB0000A54AE417C4D8641CA53BC4184C78EC0C1
:10EFC0009B4A72C16B93984163EA3242B5F23EBFED
:10EFD00042F38B41CA9E0AC00EA4ADBF0B12B441CE
:10EFE000A83A6C40A71773C1B796633FD7070CC008
:10EFF000B46681C1412D73C07848D2BFFAAD28C034
:10F00000A0BFDD41A89220407D440242E9CBAB4144
:10F01000726D8EBFE0A5784048C02BC1868769C05D
:10F02000C2F43BC04B480340D1F261C02E90E6C011
:10F03000EB3694413C50984100EBAF41487E83C091
:10F0400031647D3F0B6B0841A040BDBE551DE5BB43
:10F05000CAAD0E41E2E149C1A49BA0C0CC222E4121
:10F060003E5A10C0C1E31BC0BA1CE2C136F472C0E4
:10F07000B80123C099E0893F7D18973F202001BE49
:10F0800009508440554CD9C0D8C724C1CEC8E340EC
:10F090001C366EC02AFD13C0AE21D93EC6C2BE3F8B
:10F0A000185D1840E1BA68BE45F5913FB128B7BE7A
:10F0B0004A7C4941B6339E40A072A2403E95DE3E56
:10F0C0002CCA50C05CBE2840C59FC0BF8F86523F2F
:10F0D00036AA2F41BA1EF2C0BFA13FC083D8753FE8
:10F0E000771F0CC0E5081CC2365A0AC285FB78C0DF
:10F0F000BCF510C13A8FCE3F29E5473F29AECB3E44
:10F10000794F1941B415A3BFF57C1F41BF123C4094
:10F11000870885C0778343C07A680ABFEE43603FA3
:10F12000AABEC2BFA3A615C15DD11E40B452A33E64
:10F130005D03404168E8A64075DF77407A4192BFA1
:10F14000E79932C0759380405B5DD03EC19013BF9C
:10F150006D9C93C0EF3044C018031EBE0D1A913F42
:10F160001D87903F22B9AEBF6EC7D8C1A34E5D3F89
:10F170009C5834409BC6FBBED6DCDCBD234C2FBF65
:10F18000D1A1B23F6D4C31BFC757784022714C3F7F
:10F19000827443C0228C58BF9FF6B8BE8F0419C03A
:10F1A000D14B51BF653FFA40C886EEBFFE9D53C0AC
:10F1B000FE26F540AEFC3141E79D1841F3CF96C0E5
:10F1C000EA012740FC1930414B662641D7C012C1E5
:10F1D000D66483C00CE7ADC1FA0B7F40EDCCA7C06D
:10F1E000E262CB3F937A8341366FE5C1E1599440A7
:10F1F000F96FAE40B83F4DC0733724C1CD4310C145
:10F20000EEC200416316384025263D41405C3E4138
:10F2100015FCE0407D987540C936E5402D139DBF33
:10F22000A8AF0DC0AABFC541EBA64AC1ACC11F3FE4
:10F2300040216EBFE329B940DB8D59410B25BE3F0C
:10F24000D94A1CC14FD6374119F95041453C97BFA7
:10F2500069F52941D0CFE1C0B2319BBD58E6894064
:10F26000A7CC1CC0D518D9406794EDC06B6CF63D97
:10F27000BC4B613FB4D9C9BFC9AC30C05D018DC0C2
:10F28000CBFBE940EC67E6BFC1E63C41ACC75D4162
:10F29000AF479B40C7BB6A3F0267DC405DCA803F07
:10F2A0005BD52240C53365C13D6463BFE6EC013FD9
:10F2B0000F738840CCCA48410BF06A404FE571405B
:10F2C00049A6D0BF67BDFB40452882BFCA3811C0E0
:10F2D000D469A440948D86C0286166C0BCDF9D407F
:10F2E0009EE5C0BF8A1A0BC2D1AD2041DCF922BF16
:10F2F000B2651B400B0D95BFD3E011BFD45A823EBF
:10F3000048874641618D49C0036FE9C0C1443C4113
:10F31000EFEC91C0C248C3BE1F5209C17A3A6CBF1C
:10F320009BEF23BFAAD482C1BC456EBFE73D33C06B
:10F3300018EFFE40AC891B41A2AA2BC12E547EC0FF
:10F340006BAC7C41DECF9641B92AFFC0A81DC0BF7F
:10F350007334723F54C6933CB0FBB9C0D75868C0F1
:10F360008E90E6BFF2D8BE410DC286414746EF3DC2
:10F37000CEC4473F70889FBBF0FCC0BE97A9CEBEED
:10F38000A1A9B140C3B2B0C0393033400DCE0B415A
:10F39000C9E07EC098464EC079FC0BBFEB42B73E39
:10F3A000393A5D3F8BE70DC012B7C23F6C08573F3B
:10F3B0005F16A2407E210EBF8293A3BF4AE58CBF99
:10F3C000195A9C402C36A4C0769CC14068E9C53FC0
:10F3D000FCD3463FE37A00BFF882B240809B2FBF48
:10F3E000CD21F8BF1946B0C14463F6406D47B8BFA0
:10F3F000B81AEFC0AEF834BF2F1FF9BFA888B5BF49
:10F400005569F1C0FD8A6240B74611C1DADE6F402E
:10F41000B87801405AC0294093C4FE3FC7D207C004
:10F4200036C1C8C0F1CF9E400B8D283F4F75AEC08E
:10F430009B7C7BC04AC7A93D4FC0E440C915CEBFE5
:10F440006EBCFC406475F6BF7E3CC541095D06BFDD
:10F4500094BB05BF1CBEF1C02E100FC1A69B45403A
:10F46000033C52400985A741D768EA3F2E29454011
:10F47000245011C08D352AC01B6710C0FFFF85C006
:10F4800083D4AF400F1088C017BF6DC057D996C046
:10F490006D1F8840AB7BAD3F6535E8C07CC3943FB2
:10F4A000BA23C1C0F2010C412EAB92C097A4FEBF9B
:10F4B000ADF8B84075331A405C91AD40C54CD7BF2C
:10F4C00024C986C0762B2940FFD1CDC03BD800C0CF
:10F4D0009664B84088662EC1C6FC5D40BA927F40F3
:10F4E0007BFD694090B4934265B885C198641E3F26
:10F4F000C4F6F6C0CA2899C0965F1DC0BDF97EBF8C
:10F50000F8C29EC0F73882C0FF90033FCB37A140BE
:10F51000D49B77C0FCD9BFC0A36CC6C02BE6C5C0C6
:10F5200036957FC0D213E741F5FA82C0230305C1A7
:10F53000B500BE3E23E929C0F2A85841CE58DCC030
:10F540002068483FEC0187C0D7DF93C029B91B3F33
:10F55000D01782BF86B46D3F83ACB7C105B8BDC0BC
:10F5600069E3E4C1DB6A9DC14C209D40B97F8FBF38
:10F57000435BBFC0950E1D3F8F326C3FFA619B3FCE
:10F5800029AC9DBFC2E3CFC1244E1CC100E41DC005
:10F5900042CF49C1D1BD28C1548005C0E75C254098
:10F5A0003958494083A79E4153F9803F6C7AFB3F0D
:10F5B000F9A1EABDC93BEEBED98D4FC0DC961C4017
:10F5C00007B38CBFBC777CBFA0F03E3FBB46DE3D9F
:10F5D00015DA0840CCBB10C06F21C7C1505C12C007
:10F5E000F2DABDC1CB4590C150D641C036882AC0A1
:10F5F00066E488BF7FA5A0BE69D1853F997B753E33
:10F600008427B0C094E8ADC1C074FBBF9E51D4C084
:10F610006244EEBFC84830C09E3F4EBE54D4AFBA1D
:10F62000921822BDEBB2D83F0706423F0042993EF6
:10F630003F411AC113B992C055EEA0C07BD0BF3F65
:10F64000BBF59E4075D3763ECB7B84C0289393BF99
:10F6500049C01CC067561EC009BAB9C10642B8BF2E
:10F66000731374C17BAE4DC1363CD7C0301D2AC068
:10F670007813B640A45450BF772077BF3BB2513FB8
:10F680005F9D83C02C6CA9C166E79CBFC78891BFF2
:10F69000C02F6F3FC817F13F9836503FC74D5EBF30
:10F6A00081E414C0861C5F40B506F4BEFC3E42C037
:10F6B000F0F47A40A14B7CC0CA4411C00AECB5BF3B
:10F6C000866DA83F5A59CFBEAD2300C14340B13E1D
:10F6D0009E130FC0E6A5EFBEABB906C258A91740EE
:10F6E0008A14D2C1F0709E41573EF2BFF4F41EBF9F
:10F6F00087F9D9BE2099553F2484AB3ED7A3043A5D
:10F700003636EFC05715F3C1E2DFA3C07ADD42C041
:10F71000743976BFE908F0C00F468FC0BBE39A3E4C
:10F720005B82EB3F3E401641AC88253FFEF6103F22
:10F73000A31D19C0EC2904BF6834BCC07A0762BF9E
:10F74000BCBD4740A5CD01C122BB80C03B9F833FCC
:10F75000C9CB90BF91242F406A47B8C1A8859CBFF0
:10F76000415EADC149CC3C3F7C1D40409B2BC23D1E
:10F770003CE9E1BF411C9F3F6275A83F1B03913EDE
:10F78000B8CE80C02D03C0C17DC1B8C05B9BED3F2A
:10F79000E36DFFC040D8ECC0ACFC10C1C149604073
:10F7A000A9815F4040E39EC1EE10FB3EF133B840BB
:10F7B000B97610C05DE263C0725B96BFB14FAC40DA
:10F7C0006348064133356CC0D0BEE8C06D299FBF89
:10F7D0008F5E3EC0DA846DBF39D409BF85F7BBBFE9
:10F7E000305363BE4BC3A1C17E34A8C0469A953F37
:10F7F000E7219AC0D45408C0F2354CBF343BD3BF84
:10F80000BA2A4EBF0D45AD3FC391B3C0975606C14E
:10F810004D639040A4A6C0BD28AA86C0448C28C1D0
:10F8200053CA71C16447B4C18D3734BF181C3FC17E
:10F830002BABCCC0684FD1C01DF41FC0009780C156
:10F840002574C240769D9CC0021DD0C075D93BBFB7
:10F85000F9E596BF353AABC0B2531C40DAD9D0C0F7
:10F860006CDF4840FB46B6C1308A99C12A91073EF9
:10F87000477B76C02BE759BFBF09803DDB2136BFF0
:10F88000138B803F5896814095F3ECC00413E7C07A
:10F890002A4B364020F4E03FE8FB6D3FEFA504C162
:10F8A000B1C443C1E817A7C09F22853E9CDA14C1AA
:10F8B000092EC4C0C2BF2CC1E68518C023D20CC11A
:10F8C000116206415C94EEC06647AAC19742ECBE45
:10F8D00045E82EC1D1DCDDC0A7B518BFE0C7A4C084
:10F8E0003FEC2EC0C84D52C1454416C1914481BF62
:10F8F0008311FDBF8547103F5729113FC4DFF23EFA
:10F90000E4701440A06EAABF096DDDC0E1E705C137
:10F91000FAFCE3BE2DFE94BF09617BC1984552BF3E
:10F920007C7B8C3EF88F33C06C85F7BD1DDE46BFF7
:10F930001CE589C031EDA5C08A6335C154BB973F32
:10F94000E79F484070E315C1CAF0B7C11CC4013E2F
:10F9500026FF9ABFDE542740B604AAC10CEA0BC1A9
:10F960009CA48BC17963DA4179FE57C0C808A3BF54
:10F97000406D0EC18001F13F0D791D3FEFC4FF3E88
:10F98000A09584C0E7EF89C1C7D238C104E4E0C0C4
:10F99000131780C02A0B56C0BAC386C1A62F8D3E4E
:10F9A0004BBA8A3C3331963E3E0F76BF6A0FB33F67
:10F9B000A7B85040E62A4DC1B99AC9C0582FB83FE0
:10F9C000343E2041D73B39C01EA83AC14C961D3E5B
:10F9D00024432ABF5636F840AE6B06C2A13E31C161
:10F9E0000EFBC3C103AA7C4105EA00C0FB0EB0BEFA
:10F9F000DDDE4BC1D324A23FF4B3043F727B363E1D
:10FA000022D4AFC026D8E9C1239D4FBFCDAC97C04B
:10FA1000E8619FC04E6692C07222BAC1DC9416BFE4
:10FA20007B47F03FDB82CEC0D2E7663EB3DBF8BE59
:10FA3000E7E2F2C0B231E2C0FAE6223F60209CBFAA
:10FA4000E0D47F41205550C186B39E3E1090D6BC75
:10FA5000A99003C1A1228940A34AB9C0C9F40CC12D
:10FA6000CC5660C065C766C28B0500C1C69A7BC014
:10FA70003ECBCD408F005C3F7BC51B3F7F03BF3F2C
:10FA8000664610C10D15CDC0A12614C1A03C02C10F
:10FA9000C3F8E9BF4E06C7BFE3DE3141A08BDABF32
:10FAA000CA77A7BF08F8354113B5DA3EEC07A5BF02
:10FAB000F6691BBE0FAC89BF0B6072C1D8EF1CBFCB
:10FAC000EB9F8141C5A53AC1E92BF73EA593C23E04
:10FAD000E8C51E40FD109840A4319B40BDBB18C036
:10FAE00007DA4640A94BE04146859E3FA38B8FBE77
:10FAF000BC9103C12C4E383EA34DEE3EBEB8943EA1
:10FB00004FCD42C1F407CE3F2E89DFBE75CD45C033
:10FB10007A0881C06A6D173DCCBF26C170938A3FB9
:10FB2000FFD38740547450409D58CD3F3FBB083FA2
:10FB3000C4F280C08D0222C109B973BF0EA4EB3D8F
:10FB40008E501A41C1A72DC1212F2C40C04C94BF0B
:10FB500020E32DC1DA16E0BE803289C0D0E490C126
:10FB6000264905401FBA29C1DBCC693FDBFDB03F08
:10FB700000F645C15B4093BFD68D643E9B3599BD71
:10FB8000618A30C1BE0A0AC0B93890C0AABB14C18C
:10FB90003D545E3DDF8B9F3F8A44A4C0B05FD4BF1D
:10FBA000D87FFE3F49BCFC3F591DBBBED1E18F3E13
:10FBB0009B3F6CC0B49F9BC0CBC14FC133D0824030
:10FBC000CD6D8B4080925DC09A81B0408AB832C1C1
:10FBD000639987C0AEC271C04AC442BFE00184C00D
:10FBE000D483E33F8F7746C1D202163E8504DC40C2
:10FBF0004F7714C1897217C078CD7CC043283EC1AD
:10FC00004F4B17C1D4FDCCBEB168B2C1EE77F4C082
:10FC1000C162ACBF1DCE82BE5256B340BC06AEC060
:10FC200079A9DAC075C78EC0941443C1CCB58BC016
:10FC300005EA78405EB644C18BFEC7C0156FA3C00D
:10FC4000327E9DC0F42E93C070BFEFC0473546C1D1
:10FC500032C184C1F7AECDC096C79E406E8EA3C0A0
:10FC600095A52741D544E8408DDC93C0BF69BD40D0
:10FC7000619EBE3EFF75ADC0AD2A14C1A23B13C14B
:10FC8000DFE150C072350A41D48773C0333CF5C000
:10FC9000DB14A13F8E6FA040831277C09773E7C03B
:10FCA000F300CFC0C68FC74130B034C19D9FE7C0BD
:10FCB000685523C01A780CC12B994FC150700CC1E4
:10FCC00080580F40989CD4C0ECE0524065252C3FF2
:10FCD0008F48EFBF123E6A403355A7C1AD80B3BE17
:10FCE000418CC1BDB2038842D6F724C1E08A5DBF12
:10FCF000EFFB0DC17B7B21C0E69AACBE0A8B3BBEFD
:10FD000045259340EBF362C1CBEB663F55A495C00C
:10FD1000E80853BFC09368C0C78744C0CEE74BC054
:10FD200059B2C43FE60737412DE2D6BE86460B3FA7
:10FD3000922BADBF880C71C0F353FDC04D5403BE70
:10FD4000081421C161C13EBF17DD81BF4C89883FC6
:10FD5000DCF5CB40F16F43401EFABAC1CD51BC3E39
:10FD600089DE48C118858B41EA7F5AC105637ABF95
:10FD700003D976C1FDA48D3E502EBBBFE7718D3FE8
:10FD8000CE0BE23EE00CC4C1100495407A9B28C122
:10FD9000B83798C0C8E1D0C01E25D240C8E6CA3FD7
:10FDA0004E79E9BF98E91EC0CC290F3F2B040040D3
:10FDB000989C0EC0778BD73F2E3F18C1D1061D40AF
:10FDC000C37DAABF2E09163F0797A8C1A85C243D92
:10FDD000CDBD2BC06ECF98400ABB35C101104AC0C3
:10FDE00070FA04C1CDCE0A427A4209C1EDF30BBFCD
:10FDF000E80FF5C079DC59BFE8B2A5BFECF9B5BE94
:10FE0000ED44204003B25FC183A4834058E7AABFFA
:10FE1000D72F3A3E9647D4BF0C9D98C1CF8B9C3EBE
:10FE20004BDFB0BF7609074083A026BEE24BEB3E16
:10FE30004DCC8AC020AE78C0DF52D23F47E05EC0D2
:10FE400016AAC3C0E7F580BEB96D34C23D766E3FD9
:10FE5000A3790940B89D0A41A2848AC18F668C3D6E
:10FE6000187041C18E7710429AD01EC1B738CE3E6D
:10FE7000E8805AC1BB12933F466179BFC3BD513E72
:10FE8000B48D783F8402CAC07F8149BEB9F12CC0CD
:10FE90002137DDBEBD2C8FC09A370EC21DE5903EC6
:10FEA000384B6340115338418E204CBE834E144072
:10FEB00098B0C7C061A1053FE12FC5C05E334B407C
:10FEC0005FAC2340C692B4C0D6DD10C27C4322BED4
:10FED00048D3E53E94E0983FB956D74048D742BB57
:10FEE000E6E009C1ABC50CC254A785C0039E103F14
:10FEF00015F31DBF107298BE6B45EF3EFF0952BF50
:10FF00005369BC40B06C0D414C89663FC6AFC640DA
:10FF1000A2E9F53F6EA4BEBEC4151EC2245E553FC5
:10FF200067DB6D40056BEE402C1B0A3FC03F8240F3
:10FF3000FE3C8BC043B183C0B30FDA4044A45B3FA7
:10FF4000882509C11939A041B283C24005D6F93FBD
:10FF5000B9C0484133F40BC06BF6BEC0C6CF974161
:10FF6000713A84C0E38CCAC1A790E7408CE0F7BF28
:10FF7000928EEBC000F4234059E24A40BA161A4070
:10FF8000A213A741105932C0144182419E049D41E1
:10FF90004EEA56C1416AD1C0F037DF40D8565A40C8
:10FFA000A84E5240F3C60C429610E93F05F260405D
:10FFB000ABB54C41A813384160BD5641141B0E40EF
:10FFC000E4FC18C1E5299441241F5840B72A8BBF8F
:10FFD0004C4D6C416F7D30C0DB85353CBA166B41B2
:10FFE00003A9B23FB2E82540AD150AC05A64C73E26
:10FFF000B34209C093BAD8BFCF7175BF1EF4D6BE45
:020000040801F1
:1000000071386C41CA0A5C3F5479B9413FD72E41DF
:10001000622C8EBF8746893EBA760FC1C6CA183F8A
:100020005BF2BD3EA70CB241C2DD61BE43BE7B3F69
:100030009BFB74419A3C4441945EAC41BAF7713EDB
:10004000B312CDC1428B4841CCADC5C1AFE4CBBFEB
:10005000E0366941003049C07B5EF63E933F154172
:100060000D6F173F3611014142D4A0C0AF851FBFAD
:100070008CD60440BE3D91C043A03EC0E0893CC048
:10008000A5E12C41D22168408C77154120967E4114
:10009000FB58DB40BD464B403F4D20C2D0E999C0E4
:1000A00017663EC0DD9D63C1BC5318C0227C76C07C
:1000B0009260844124C18541D77AE54173EDFEBF4A
:1000C000821C19C13FB6A1413D0DAEC1E8949E3ED0
:1000D0008C148241E50CAB3F0559F8BE3F339D417E
:1000E00048F013C0A666AF3FA6359CBD90AD92C048
:1000F000C7F587BDEFE1D2BFFB9F6ABE5E2410BE8D
:10010000006B6441593DCFBFAA748B41FA92C7BFBF
:1001100093BDA24035BD913F5D6607C22E1552408A
:100120009F0506401F2112C250C0333F712A5D4017
:1001300010AF8741F48AA8415EDCB3414B2A97BDDA
:10014000ACB967C1AD364941FBE01EC1AE38223FB4
:100150000F205C4134C53940B1CACAC1E3E4F5405F
:100160008D839FC1356164C1EDD209402709AAC0C2
:10017000B23AAEC08FDE0340A1FB0740F4B6753F34
:10018000EBDF5041438AA9C1E9073B41C72F174123
:10019000BA5319C197082DC17B0AE2C061212540DD
:1001A000547D2A4076B94AC0F81FFD3E664FA240F2
:1001B000E47CB7417CCD3441FD830141704E0A405F
:1001C0008AFCCEC1A715C941DCFFBEC1285EDCC0D8
:1001D00019E6E8412BF79AC0F9762140BC24794111
:1001E00080742540AFDA5FC19EC5123FA932D13F6E
:1001F000CDCE7540DFB9B4C0AFD933C1BED6ADC026
:100200007C14AD41518E3F4054F61B421BDF05422A
:10021000A8B72E3FB07116407A37E7C1AEBE4FC1C6
:1002200036E74FC1542DC24166F1B0C0635E6AC16A
:10023000CB735B414E29014269FFEF41A39651C147
:100240001C7309C248D6C54116DF5E41D23B29BEA8
:100250007DB60642E24214BEF97098409086B041E5
:100260007BB4D93F8B0A88C0CDD48DBFDAC00C3F98
:1002700032708B405C9B5F3FBFE01CBF265B36BF8C
:10028000AE101941256D09409CC0D1418B9DB841EC
:10029000F8789B40AA281140B7B59740E03994BF41
:1002A000FED7193F9439AAC0D6014A3F90D5243DC4
:1002B0004CE1B241169DC741E9782342451F013EFA
:1002C000CB93E1C1F0E9D9419ECDF5405726A43F3B
:1002D00050C1BD41D01FCFBD0AAF4B3F3EA6C74165
:1002E000C4884BC013F8BBC103389C40A76F8E3F36
:1002F000716C95C0B0E3C53F24BD05406417833FD2
:10030000C6999C41962103C0D55F1F42A1278C410D
:10031000800D0440AB81A13EC733E440A0E9C2BCDC
:100320008CC8913F8542C8C03309373F5678044096
:10033000CF4B1542CBD3E641F14DB64117B8523FF2
:10034000A6E01DC27A71C141FE8D21414447643F40
:100350005E7A0B42A82A823F5D9660BE01C39E4131
:100360000840FEC0FF8FA7C14F069EC187EE503EDA
:10037000807E1CC1F7D69340491F52409A22C83F45
:1003800078D0BA41679F2EC09D921142ED9E9B414D
:100390000F80A6C0645090BFD158254166EA9040B6
:1003A00096601D4029259F4126090D3F7395EA3F20
:1003B0008CE3BB41C5709C416D7A0C42E95A5040B8
:1003C000D32C04C24FF0D9419EDCCBC034992FC04E
:1003D00048C392414BE927405D950341CB1DA6419F
:1003E0009382B83F54B08F416BBC8FC15303A43F7D
:1003F00089F5E4BE87A94DBFBFE7ECBEDDF4CEBFF3
:100400006238B841F2BDCA4041C10D4211BBEE4154
:10041000476CA740307A653F4421FC3FFD934FC0B5
:10042000822309BFD3758041CF5CBFBF3E29DEBEAA
:100430008AA41742EF4A1A42B448CC417904F1BE6B
:1004400090BCD9C040CB0041004104C05CD081BF0A
:100450001900C1C083D7FFC02F9AB9BF627980C08D
:10046000DCAF36BF20FD65415154A7BF8CD40D3E93
:1004700082C14DC1EFF6633F0441583D8D9405C0E4
:100480009FBC084134463D418F2EEB400871194016
:1004900048214BC18209E23D5BC677C1B74543C0E5
:1004A000BA1D2FC0C5D25CC090B794C015AFABBF0A
:1004B0000ADA1340A726BE40BBCC3C40B10BD4BFE8
:1004C0008651ACC1E986AAC0572D28410CD2AFBFD6
:1004D0008FE18D401AF679BF218AE840FB1ACBBF25
:1004E0005EF791C0A42734C26C5B07C1FCDE6F3F8E
:1004F0003029C8C090ABBCBF207873C08D84B3C016
:100500009E9B68BF54A5A6C0C9B5274111809040E5
:10051000D15721BF33AF1C40449EFFBFE7A280C02C
:10052000A4E3533F00B76A41723B4AC0AA8B95C00F
:10053000251FBAC05AAE8641CCCB03410768A9C07B
:100540002E9ED3C08B8FB23F4212E5C0B725D3BFDA
:10055000E9F0B93FCD4742C1591703C1A0C146C018
:10056000FE4CDABF4D2015C02DA32240B039E03F2C
:1005700048EF8A4087C34CC0DC383D40D2BDC5BF80
:10058000C14CE0C071E88FC1A2B402C0934103C165
:100590006330F83E9593BE3F64C5A1417B4A3F3F1F
:1005A00088F1B63EF007F54009802DC0361FDBBF4D
:1005B000748BFFBC09FE0941F2832440E9D4A240B8
:1005C000E7A37BC0269F13C07C7F37417F5B0BC0B6
:1005D000D561143F3281A63FB91BE43F6ECABF40CC
:1005E000C8C5B3C032F8A241E96A2740EE3AA6BFB7
:1005F000844CD540ADDFFCBF1F9BDCBF82500BC0DD
:100600007A564840EC3AF9C0F4E376BFAC0E30407D
:10061000628160406554394070B90D416311EB3E11
:100620004DFD51C0C6B492C0E2C787C017D0244068
:100630006468E840CABE3D409EEA3041C646B0BF4D
:1006400050B12140B7FBC8BF4A4214C077280C40C4
:1006500068211D41CFF115C1C30580C0D38FC9BE2C
:10066000A6E2B63FBDFB88C1152368C0CC767BC02F
:100670008336CE40FCDA77C0F357813FE48475BE01
:1006800089D257C02934CBC0FCD1804066E9A9404B
:100690002BA248C0193F1A4045B926C1692BD2BFC9
:1006A000BE0A87BFCE36F3C1DDBC64400BAB86C04B
:1006B000123EC8406F53E2401125BA3FEF39213F47
:1006C00056D901C025ED8B3E07CEC4BFCA91A73EC7
:1006D0002CABAE4020674D40D0B7D3BE2CAAAF4064
:1006E0006F53803E2EC0A5402D028741349E6A3F45
:1006F000E3D35DC18302223F31B788BEAAAF5D3E1E
:10070000C6F50A41556EA5BFF58F2C40F4B17B416B
:100710005345F8C06AA13EC0CD6154BFB8BA1C3F72
:100720009E4A38BF5B78213FA59BA13E8CCE82BFFD
:10073000BA11354116314A401004C8C04135563F00
:1007400026E817C14C38AA40BBDEAD3FD4B71E3EE9
:10075000B33C9041E426A640A5C0B340DE4DFE4028
:1007600028A480BFB93B33C2C1C09441919A7B4059
:1007700001DAB2C0A6E0F7BFCC95083FD94B3EBF27
:10078000F0ECC140129C1440E79E82409B3C6141CA
:100790000258F03F159CBA3E7CADA7404332BDBE27
:1007A0007101803F8D179B40074E47BE9F0874BC68
:1007B000D630CE402BD98940AB4CC240389C1C3F30
:1007C000D025EAC0459985419D516E40FD020AC081
:1007D0009E233E40D6A6A4C0CEFE4140CE04643F38
:1007E000E5294BC0F5164341B56D18C19A7209C091
:1007F0005D2806C01415D9BEBD2184C01C5639BF62
:1008000028288CBF6B5C68C07EFE59C0E9F0794037
:10081000677214BFE19DC8BFC7099241A7D72A3F9D
:100820007843EB3F90BDAE407C6C80C079FD32C018
:10083000AD0D0A415F26E74023534341CC0A713E88
:100840006C6A723F55FE28417F1CDD401866B7C0B8
:1008500002D77740287BEFC12E6C4B40AF549541B7
:10086000E4CC1D40BFF2A14070439CC1EB356A3F10
:10087000ADA1F2BF5FB022C19BAE5AC1A37537C113
:100880003145054132D03D404970E1406DA44140C1
:10089000A33DD04097CF2040763545C15E3DA3C0F3
:1008A000967E45C0789EA1C02A645BC1F29FA0C01D
:1008B000E4D585C08DFAE44024F30B418B749BC0D2
:1008C000B5A10AC0350E1EC0276C96BFD4996440EE
:1008D0003D608940DA94A6C176A201C034CDC63FFE
:1008E0009B92973D2B3503C299CCFBC1A8181FC022
:1008F000DC2DF03F3BD66DC01FC602BF2C2CDA3F6B
:10090000A0686BBEA45F20406EAD88BF48E2CD40BA
:10091000F9D28BBEEC3AD0BFE0642DC0BA3803BF29
:1009200079094440C3D9E2C03148E73FC357293F62
:10093000E5E055409E5447BF66CBDF402A9AC83F4A
:10094000D27CE3C1B1A7AC41555444C0FFFDDBBE2E
:100950000D225F415D6BD0C0F287E7BF204CA24102
:10096000028C6D4034F772C1AD9C1BBF4DE58CC04D
:1009700064E7BE40C8E5D6C09CBEA9C07677CFBFAD
:1009800024E08141DFE0F03DC977D241C1058041DB
:10099000094FE440AC8702404C2A37419236FFC0F1
:1009A000072502C14AA7CCC19EB52BBFEAB5D9C065
:1009B000D9B467416A958A41CFEB5741586189C0E4
:1009C000CBD167C1145EA041D718E1C0F73A04BD8E
:1009D000769AA441751235C044773ABDBF5C744124
:1009E0006425353F3F3012C1512009C14B1625BE49
:1009F000F8919C4044596DC01B3AB8BF598B97BDC4
:100A000025BF99414236FE3C453B8D41DCF1A74173
:100A100048D92E4090880EBF96672742A95F26C00E
:100A20002D1C893FAF80B8C0199493BE0B50C0BF36
:100A3000323383410B6C2441709FB2412F24ECBEB2
:100A4000CDBDA7C13E81624108C704C1C3D6863D62
:100A5000B65839412FF7803E10711240ECBB164159
:100A6000F0BD203F8D061A419C17DDBF7B685D40BD
:100A7000AD5A5C3F5E7F0C40CC490440ECAC483E34
:100A8000152B804175CB14BF6C96924119A09D41E6
:100A90008D19014081FC2B3FFFF486C198832B3FC9
:100AA0002AE2BC4015DC3FC15314913FC36B0840A0
:100AB000CC851341AC503541571AB83F4368834049
:100AC0003B4763C10F297A416561073FA14FB43F9E
:100AD000CC5C7741EAD234BF86FC29402DF88641B0
:100AE000A1F487C0613218427879AEBE2FDDB63FDF
:100AF00075E4F9BF22629E40A7557F40D7530B4053
:100B000036F297414F99C2409431A04164403D4133
:100B1000E3FFEEC03232CBC064093EC1F2848840AC
:100B200057A4A840C6084B41B1D8603F8541BB409F
:100B30006677AA410E605E41C79C5B41B47FBC40B2
:100B4000AD8A11C18DB95E411C479C4188C9093FDE
:100B5000E2E26B41E447913FF095EF3FB5F4574136
:100B600091D211408D35B740680B3E40176DB83FAC
:100B70006B8D30C1C5B19940F653534077F7EF3EC6
:100B800045E1A6414715B14074B207415EA97341E2
:100B90000870E8C04B8C56C06FF8544160F0A33F1A
:100BA00094EF9240A144BABD5B501EBF5A1D5E40F7
:100BB0005FCCE94081416F418709064119D3D33F9A
:100BC0001BDA0041EEC4C5BFBAD9BE4183A7D53FE9
:100BD0002E196E41B10E9EBEAA9A794144D4674146
:100BE00008C7D2C0A4F49D3FE748714188E3FC40A8
:100BF000FB19F04186231541E566AB41A63DB541A1
:100C0000639E82411FFBC9BF29D3E740E762C93F0A
:100C1000B2A502C12B31364138240E41902A37410A
:100C200073006F4140DEA741008B8A40B6424C3FC3
:100C3000FF5DD7C010F25E4197626641F63C77C017
:100C40005098863D368B4E3DB8C9993D8527A93CC5
:100C50006C29B43D1E833F3B1556373D49ADB33D2E
:100C60003205803D315EC23CA3D9FB3C304A9E3CFC
:100C70005668933D0EA7E93CA76A813D28A9C13C6F
:100C8000EB07703CF5B1BA3CA27AB93D3CFA1F3D86
:100C90000F67763C34CC933D9E6D843C875D233D4D
:100CA0007DAF573D5FC5A83CB13C933C5D52663D6E
:100CB0004C53FE3C57C7B03BE6AC023D36411C3DB1
:100CC00055FC92BCE832123C30E22ABB6BC089BDB5
:100CD000A0E67A3C04CDBFBCAEDAACBC22708DBCC1
:100CE0007D9326BCE4C2F0BC197B13BEF87D55BDD4
:100CF0006263FFBB90F7AFBD3B45A1BC66A077BC6C
:100D000084B1093AE0E4B6BB7EC72A3D4C040CBD71
:100D1000DC9909BB33E742BCAE4F10BC3B269EBDFD
:100D20008B6B6CBD660247BD863685BCF3382ABC2A
:100D3000BC042CBBBC9AAEB9D8804DBC2C818C3C79
:100D40000C37463E415AA03E64799E3D733A71BECF
:100D500023270ABE93C6503E1E21DE3E986637BF4B
:100D6000DABDE53DC2265BBFC2708C3EF460033D38
:100D700085772DBF6E00F3BE7E69E13EEF68DABE77
:100D8000465C00BA2402953ECCEEA03E8082EC3E4A
:100D90006991463F1CEC3A3FC10F30BFC1B403BF5D
:100DA0005C00453BBADB77BD24379BBE38FBD43DA6
:100DB0000D76473FC15D7E3EBE111DBC2A1ED13E51
:100DC000FB40B03EE5B5A13DD2019BBE439F1BBE9B
:100DD000F2BC22BEA392B63E6C0DF33EBF643ABC99
:100DE0004C24313DAD3C08BFEB3A943EED79E53EF5
:100DF0009F4673BEB0E351BE192E663D227C82BE73
:100E00001A1E83BEF98D6F3ED0A62C3ED7A70E3F8B
:100E1000C96C183EE667F03E0647CEBE1459983EB0
:100E2000A56C923EF21B143E413F003EB1894ABE82
:100E30007BA4453CCB67943D7E7AAF3E795181BA25
:100E4000E633663FFEA0963E7CC2C7BDEDB71BBE33
:100E5000B6AB67BE3442E23E6F9AE43E7E768FBE0A
:100E600029275BBDBA711DBD31D4CFBD4851683E45
:100E70003D1B6B3E65FF87BD3B26D93E4B53193D5D
:100E80003EFF3F3EC339A53E4032343ECF3F813F17
:100E900030E4E43E5B32843ED51D5DBD10F579BE85
:100EA000189F873C9B8B943EB0D1A83D9D2AF33D73
:100EB0007325C93E7D0F4D3E60940F3FA51B553EE7
:100EC000B5D2F53E3DE4853E50F819BE0179EF3BC1
:100ED000AE189BBE780D903E8B311E3E6CBD01BF9F
:100EE00065F9043FC8A5913DF768E4BE430E923E04
:100EF000F83CD83EEF0775BE07C3073E447B243E4F
:100F0000F85AF53D3BE5883EC6FF2DBEAB065A3E7E
:100F1000B94A073FECEB2E3E68A0103EF5D68DBDDA
:100F20001C1660BEAFAE823E14DC88BDB4B37B3EFF
:100F30002836383EBCC1BEBD52EF923EF2669A3EA4
:100F40009C461C3E70989F3E482828BB7C3ED1BDE5
:100F5000A4E347BDF6552E3DA88369BCE8FC30BE2E
:100F60001224F83C68B93F3D3503DE3D1DA20F3D1C
:100F70001304323F4A6EF3BDEEC0AD3D1C84D63E35
:100F8000D8DF253E2E2E9DBDDCBCAABE0025F8BDB7
:100F9000C291D33D2FD6F93E7E6C0F3FA9D064BEDF
:100FA000AF1C12BF613C183FA15B2B3E87E38EBD97
:100FB0007AB6DFBDEE32D2BEC96C623E3EF6E4BC0C
:100FC0006F2D0CBFE7B81E3E43CE8D3E0A2EECBD02
:100FD000369E92BDB4FFC0BD40E995BE8C2CFDBDD0
:100FE000C7045FBE29DE943E9314203EF27D7EBD91
:100FF000BF5FD53EF647C6BD4D35753EF168073E2D
:10100000761988BAC1FCF0BC27491ABF000E46BD4C
:101010000AF1653D8F06DEBE0D7596BD615E3ABE76
:10102000989C6DBEDB012FBEE5C77E3C23470CBEFE
:10103000309C77BD2EA2C7BE077EADBEF91A63BD38
:10104000EBA2C5BEB8DB2EBEAE66903EF59C5DBE83
:101050001FE885BE8F9F603C9F25673D913846BE47
:101060001D5F963E05B2033F78003FBE22FE73BE71
:10107000B533E83C56F7A4BEC8EC26BF4D14663D18
:1010800035CDB0BEE91753BE007FD6BEA036B23E06
:101090005F0CE0BE3DB091BE702549BDF26103BE5C
:1010A00021BF8B3E0C3B95BE8CFCFEBE8A9F8D3BC8
:1010B000BF6005BF968C84BE897B09BEDB73D2BE40
:1010C000DC5744BEBD7CBBBEF77AC13ED80111BE21
:1010D0006DD819BE1C2688BD24C7913EC721EEBD20
:1010E0001AD8BBBB8C75403FAB05A3BEBFCA21BF9E
:1010F0000A1F2B3E89D123BEA03288BEFC8B14BEB2
:1011000061208DBE93A4D0BE565494BE57A3C23E58
:101110008E992BBFB4ABC8BDD47ABF3D25DE91BD3F
:10112000926C073E75E97EBC153CD3BE3E147D3DF6
:10113000CA23A1BE264B82BEA7EA46BEEDF615BF66
:10114000DE3507BFAC9134BE25EDB93E469F373D35
:10115000F59D10BEE9C060BDE06B183E1B43A5BE07
:10116000E9AED8BD5027293F4745FEBDC235FBBD7E
:101170002C90223DAB2F7DBC903CD5BDB40413BE5A
:10118000C62A9FBE14E7A0BE64FC32BF815DED3D60
:10119000560A51BF78F2E4BE54FE853E7D4F9F3E15
:1011A000728A8D3EC04127BD4784393DFAC792BE41
:1011B000DDCEF7BEDCDA973CA14BAABDDD8DBBBE10
:1011C0004B3EE8BD0EE661BE294E55BE1BE128BE72
:1011D00002B560BEA7370BBE6A606A3E89889F3E33
:1011E000A17762BE9053F73E17208CBE2C79713EDA
:1011F0003006253E9E75783D580A1EBE603E143E60
:10120000106F14BFA5C0B8BD443784BE818D4A3F5E
:10121000B4EBBFBE21D4553EE311C73ECCCFF83E60
:10122000B2F59F3ECAA80EBB745B233C20FD603D17
:101230006710C43DF1CB1ABEC505EE3D18C882BE8D
:10124000C4CD143EC094243C4BF055BEE3D3F8BE4D
:101250009C45C2BE229D18BD14C3083E77BCD3BDB9
:1012600078E5E3BE45267D3E7B65EE3D4C40F53E90
:10127000BF71083F93438CBEEAFF273ECA83EA3E14
:10128000FC7D53BD8C0FC83EE4CBE23DDD0A453FFB
:101290008817D63D166ACD3EBB255C3F873B8B3E0B
:1012A00059269CBD6E89BF3E90A5813D41F2FD3D12
:1012B00072F6393E9838B93D44C38E3E72A196BD50
:1012C000103A0ABD49D4873E689A853E020EA4BEF4
:1012D00060E3F13D5841CA3EB631E6BE0188373B76
:1012E00083499EBD8EDF2DBF76BB0BBFB6567C3FBC
:1012F0006C73283E44091B3F1057E13EABA2283FC8
:10130000FC98793ECE411A3F13D2583E294C023FF9
:101310001AB6193E5D49AA3E3CAA093F865A773E55
:1013200070EC073EC247033F04C2EA3D3D962D3EA6
:10133000E1F6C63E09DDE63EAAAE3C3FAA92963EE5
:10134000F42F923EE693943E4A1555B8B1D022BE92
:101350002F92223EB6ABD43B4551B3BE56D6653A2A
:101360000D07CF3D563584BE2050E1BE4511C03E2D
:10137000A81FD8BD6EB2AB3EACC9B23DA69FBD3E64
:10138000006FBBBB163B8C3EE0BE573D9092123FB8
:101390005C70D73D9CE97B3E40F16F3D430A3FBD09
:1013A0005525E33D471E933E9F61F5BC6F035C3EB0
:1013B0001FFD4E3E96758F3EEBE9C63E31E2513E33
:1013C000A9E8ED3EE240733EF2070C3EDFAD43BEBE
:1013D000729CF03D4B2AFA3CDFD25B3E63FF45BE78
:1013E0001E57303E783BAFBE04A2193E95C19BBC50
:1013F00096DE1DBD0FA09DBC5F58A1BEEED78C3DF3
:1014000022F3B63E7221523E6712533E2E67D63EFD
:101410000287C63B74947A3E9D21DC3D7C454ABEE2
:101420003B15BCBDAFEB443E519D69BEB1F7E73DF6
:101430005D93B2BE981C1D3A849800BB08A4EC3D95
:101440006918B83D34018ABDE9FABB3E0BBAFB3BD3
:101450006E86AF3EF032EF3E9D54C53DB5675D3EB2
:101460009DF7D63C3D801EBE515E4CBEC1EC40BED9
:10147000933E16BDAE6B9C3E5723ED3DF891CD3E9D
:101480001476213FDADB263E19DB3A3E0A024F3D55
:10149000BB6A94BDAE67753E0E26483C9CFEA7BE57
:1014A00018B47E3E9E88CD3D494697BDB2B5AEBDCF
:1014B0004B78B3BD2C144DBD6375673CA4279DBC10
:1014C0008E811DBEC4EAC1BE8B8729BCAAC3243E3F
:1014D00099618D3DF574963D7D6EEE3D66CB13BEF4
:1014E00014ED1F3D25E49F3DE1D2263EFCBC98BE95
:1014F000C14B573E38C1963D414988BE736D553E3C
:10150000A33735BEA684B7BECC7C14BE3030B43D04
:10151000F69BCCBE67AF6A3CF51C1FBE76B063BDC0
:1015200099D230BDC3A537BE132FA73E69689BBEB5
:101530009CCC88BE040CBEBE16C495BE6C0EFBBE11
:10154000D5A25F3DFD8CD3BE0211D7BE7BEF513ECD
:10155000DFD7363E0FD0563C8A9A21BE0408A6BE7D
:1015600013A31A3F2956B23E432774BDFC50D9BE7F
:10157000BBAD843E82628D3EE3F839BF7DD917BE94
:10158000E260E0BE0895DCBECE320DBFC8C5BD3EF0
:10159000827F1DBF17AD63BFB858E9BD20EDC4BD44
:1015A000EF23B8BD551CBFBE2EAE75BD0B88C5BDA3
:1015B000595205BFE92A34BEE2CDA3BE72BEEEBECB
:1015C00076DB85BD148737BF6F9CC4BEF55DDBBD80
:1015D0003B661CBE2386953DC5D111BF620BC3BEC1
:1015E00055419D3E4A1D683F071CFDBE961DD4BE59
:1015F000BEE2483F7B5D033F26CAECBE894B273DD8
:101600006AAA94BE52A006BFFA6D0BBF0673383D9E
:10161000994352BF13E211BFAA0CF1BC019797BEC8
:1016200024F2EE3D3450DEBE04BA2FBF761FFCBB61
:10163000133723BFDFDE49BE11634BBE598F11BF85
:10164000253FBF3E2CC335BF2C3008BE0770303C51
:101650001607D1BD709932BDD26E41BFC94799BE40
:1016600077EE233B3650213E4AE4CFBC313DFC3C73
:10167000EF66593EBB3F973ECC5E19BE812BE3BE61
:1016800027F6A6BEE3FDB2BE8FA5CA3C36FA433E9E
:10169000D2DC34BFCD493B3D7A9B0C3DA15D2DBED4
:1016A000FDEF293E252B56BE86D92CBFEFB32B3E2E
:1016B00021FF88BE37C3E4BD0243D6BE53FF9BBEA5
:1016C000A3DA3F3ED4CCCDBE1E4FB8BE02F5C1BD9D
:1016D000C474A43B944606BA62DA08BFF6CFABBE28
:1016E000F9E5ADBEE065EABEF3D5143E04026B3DFC
:1016F0009CCD8DBF85427F3EB188723E487058BFF9
:10170000EA9B48BD81490ABE6D174A3E2C9C9BBD91
:101710001BA6283D47AC023E40F29CBC6400D1BDF4
:101720000D2192BEE647A9BE708544BEDC34843EDE
:10173000A6DE213E397E9CBE67E705BF1506A5BE25
:101740000F9E26BEE11D253E60F8993E0D7607BD31
:10175000152B843EFA8BE23E5E3ABABE51D1D2BD21
:10176000B5C55CBD8E60E6BE4BFAADBC89E40A3EF1
:10177000D53793BF092A223E76A5EA3ED0E4633EE0
:10178000CFDE163F1BFF153D96456ABDE2D6F2BC83
:101790009694E93DC865263EB00C003E262F4D3E8E
:1017A000D76065BE29B81E3EC555823E2ECC1D3E73
:1017B000FAA9D6BD31B27D3D27D4B23E0251D3BD88
:1017C000B6AC07BEBC2FB13DEBC7D13E0589B23EDA
:1017D0007784233D4C73473E019F28BFF9018BBEA0
:1017E00018516A3E746016BF4808E1BD439D77BD3D
:1017F0006EB553BFA8E4E43DFB812CBE7142863B2D
:101800000E79FFBC63FD92BE73DCB4BE48A8CD3E2A
:101810001D44ADBED766BE3CD4BF12BEFF74813E30
:10182000C1688EBDFBCF943D6C155EBEABDA19BEB0
:10183000B27208BFD5984E3D654DCF3D74CC27BDE3
:101840008646903EBDD8723E4DBFF43E936C9CBC24
:1018500030E3BE3DAD67F33C662510BF93F9C0BED3
:101860000E36CC3E709CB7BE0E0303BF57A1A03E00
:101870002412AEBD345FAB3E010831BEA3B805BE35
:1018800019A3453CC0E0E3BEB4835BBD947AE93E56
:101890006800E73D9D42A83ECCD4183F1C81DB3E4A
:1018A000E91094BE17AA043F7A087F3AF0A19A3D46
:1018B000FB897FBED4A4A43E8B1C743EF2D1BC3DF8
:1018C0005073AE3EF7B409BFBA404FBE7EF113BFAE
:1018D00068E645BEEC1A5DBEA157253FC08535BD03
:1018E000D6121ABF6511113E0BB034BE367E51BE02
:1018F00043EE9B3E703D2DBE3283753E522FBF3B63
:10190000D899A3BED11AA7BEFE93C23C1C49BBBD49
:10191000683C84BE4CA38D3E4378143F4F821DBE6D
:10192000D28606BE2BEBFC3E2E4404BF2576293D15
:10193000BD51D13E1AFEAE3DCDCF003F3AC339BEB8
:101940008C3E8BBE66247BBEBC7F17BEE30DAFBE54
:1019500077182ABEF2A0983EB7A371BEDF8241BEBF
:101960007779743E08629DBD28EAD6BE76E70B3EC5
:101970004996CC3E0FB318BEB3CA273FBD3CFB3DD2
:10198000621892BE799BDABC88E8CCBD53CD933BFC
:10199000877609BE4EC508BEF08FCF3DC962A63D11
:1019A00007B3B73EDB7C11BD112123BF3B9103BDC3
:1019B00026EA923E4D03103E01DABB3DC2F8293DB6
:1019C000622909BDB4E05BBECE0812BF87E215BF35
:1019D000ABC6D0BE501B8FBD1DD254BEF8B87EBE64
:1019E000D36517BE81D21EBFFD3DE53D9674B4BDE3
:1019F00055FA40BFB922E0BEC300AC3E06A72CBFDB
:101A000042F2EFBE21F0A43E5246B63D2F1077BD04
:101A10005E52E1BD1E076B3EDEAB80BEBDEC0DBE6F
:101A20004E3EE53D84FB3ABEF7FA0ABF42FC863ED5
:101A3000AF171F3F89AC013E8A510A3E1AA24CBB28
:101A4000ED45A33E50F818BDF1CA29BF0B225CBE7C
:101A5000F8E284BECBAE27BED352CB3D7AD0623EF5
:101A60003CB9B8BE20E423BE72A9E33EEB61E5BEFB
:101A7000AE09F5BE8D172BBE6FBAF13DFF35F9BE2D
:101A8000D25AEABE183BB93EA3D0F23E695A81BE93
:101A9000D166D33E0FC6013FAE1C393E55CA6FBE5C
:101AA0001CB6033EE5268D3EF333323E16A2903E31
:101AB00069F7293FF7EB623E8704033EE7B7E1BDD4
:101AC00042F56E3E7F5EACBDA4FD4ABF86CB76BEBE
:101AD000A2DE7CBF085DC8BE5DC819BEF6C1333D3D
:101AE0000A92F2BE0C3456BF61982F3FD605AFBEA6
:101AF000E61BDA3DA2E015BFA2B6B03D0D0880BEE0
:101B000084A1B1BE439E143EA2C2A33EDCCE213DC1
:101B100034C3363F50F50C3FCB6B973D881B80BEDE
:101B2000D953333EEC6A823EF25F1F3DC911443FF8
:101B3000532A703FC2B14F3EBFAF813E6E0D1C3D78
:101B4000000FD73E0E6E21BE5C3FECBEF73B19BDC9
:101B5000B9A779BFDA29B1BDC8013EBE39B5A63EE5
:101B60007821D7BE5C8EA4BFC8CAFE3E575DA13C9B
:101B70007F01B4BD2E8B91BEEF78EF3E826FD9BE50
:101B8000ED15D1BE5267823E3709313E1386B43E11
:101B90007C0E853E941DE43ED7FFB63EBDCB79BE9C
:101BA00028E52C3FF0D0863E39D5473D28BA363F50
:101BB0005557743F8EF7503E1E053D3E943E1E3EE7
:101BC000A1F30F3FBC1DB5BE2B9818BF33CE2BBE63
:101BD000119A0DBF3C99A13C72A5B13D94088E3E6F
:101BE000E47F0BBF5A1E87BF1F510E3FC377073ECE
:101BF000D96823BFDD1C1F3DB775CD3E70BBB8BE95
