:020000040800F2
:1000000090FC0024750400086F670008556600081E
:100010006D67000879240008497600080000000098
:10002000000000000000000000000000B103000814
:10003000C12B0008000000000D040008ED69000855
:100040008F0400088F0400088F0400088F04000844
:100050008F0400088F0400088F0400088F04000834
:100060008F0400088F0400088F0400088F04000824
:100070008F0400088F0400088F0400088F04000814
:100080008F0400088F0400088F0400088F04000804
:100090008F0400088F0400088F040008C32B000899
:1000A0008F0400088F0400088F0400088F040008E4
:1000B0008F0400088F0400088F0400088F040008D4
:1000C0008F0400088F0400088F040008716700087F
:1000D0008F040008317600088F0400083D76000880
:1000E0008F0400088F040008000000008F0400083F
:1000F0008F0400088F0400088F0400088F04000894
:100100008F0400088F0400088F0400088F04000883
:100110008F0400088F0400088F0400088F04000873
:100120008F0400088F0400086D2600087926000857
:100130008F0400088F0400088F0400088F04000853
:1001400000000000000000000000000000000000AF
:100150008F0400088F0400088F0400088F04000833
:100160008F0400088F0400088F0400088F04000823
:100170008F0400088F0400088F04000800000000AE
:100180008F0400088F0400088F0400088F04000803
:100190008F0400088F0400088F0400088F040008F3
:1001A0008F0400088F0400088F0400088F040008E3
:1001B0008F0400088F0400088F0400088F040008D3
:1001C0008F0400088F0400088F0400088F040008C3
:1001D0008F0400088F0400088F0400088F040008B3
:1001E0008F0400088F0400088F0400088F040008A3
:1001F0008F0400088F0400088F0400088F04000893
:100200008F0400088F0400088F0400088F04000882
:100210008F0400088F0400088F0400088F04000872
:100220008F0400088F0400088F04000800000000FD
:100230008F0400088F040008000000008F040008ED
:100240008F0400088F0400088F0400088F04000842
:100250008F0400088F0400088F0400088F04000832
:100260008F0400088F0400088F0400088F04000822
:100270008F0400088F0400088F04000800000000AD
:100280008F0400088F0400088F040008000000009D
:10029000000000008F04000800F002F800F079F878
:1002A0000AA090E8000C82448344AAF10107DA45D1
:1002B00001D100F06EF8AFF2090EBAE80F0013F0AA
:1002C000010F18BFFB1A43F001031847CCB610000A
:1002D000ECB610000A444FF0000C10F8013B13F08C
:1002E000070408BF10F8014B1D1108BF10F8015B8F
:1002F000641E05D010F8016B641E01F8016BF9D182
:1003000013F0080F1EBF10F8014BAD1C0C1B09D1D8
:100310006D1E58BF01F801CBFAD505E014F8016B4A
:1003200001F8016B6D1EF9D59142D6D370470000DC
:100330000023002400250026103A28BF78C1FBD8EE
:10034000520728BF30C148BF0B60704766290CF0C8
:10035000DC80642900F0EC81782900F02582632993
:1003600000F0CD86732900F0D286002070471FB5BB
:100370000CF0C6F89DE8030000F0F0FB00F004FF6D
:100380000400002000210CF0A5F8E0601FBD10B5AE
:1003900010BD01F01EF81146FFF7E9FF09F0D0FC8F
:1003A00001F03CF803B4FFF7F2FF03BC07F084FF51
:1003B0002D4B19680868B0E8F04F80F30988BFF347
:1003C0006F8F4FF0000080F311887047000000002D
:1003D00008480068006880F308884FF0000080F348
:1003E000148862B661B6BFF34F8FBFF36F8F00DF23
:1003F00000BF00BF08ED00E0DFF80C00016841F429
:1004000070010160704700BF88ED00E0EFF30980E4
:10041000BFF36F8F144B1A681EF0100F08BF20ED4A
:10042000108A20E9F04F106009B44FF0500072B606
:1004300080F31188BFF34F8FBFF36F8F62B60BF05D
:10044000E3F84FF0000080F3118809BC19680868D0
:10045000B0E8F04F1EF0100F08BFB0EC108A80F328
:100460000988BFF36F8F704728160024EFF30580CB
:10047000704700000948804709480047FEE7FEE74B
:10048000FEE7FEE7FEE7FEE7FEE7FEE7FEE7FEE744
:1004900004480549054A064B70470000056A0008F4
:1004A0009902000890EC002490FC002490F40024B1
:1004B00090F40024704770B5064600F033FB0568E1
:1004C00006F10B0020F00704B4429CBF002070BD71
:1004D0002B466A68BAB11068A04210D304F1080133
:1004E00088423CBF5068586007D35168101941607A
:1004F0001168091B016058601460101D70BD13461F
:100500005268002AE7D12146284600F013FB002854
:10051000DED170BD70B50446051F00F003FB006816
:10052000002C14BF446870BD002C18BFAC423CBF07
:1005300020466468F8D301680A18AA4218BF4560CB
:1005400003D12A6805461144016028684119A14277
:100550001CBF6C6070BD61686960216808442860D8
:1005600070BD53EA020C00F069802DE9F04B4FF0AA
:100570000006002B1FBFB3FA83F503FA05F424FA33
:1005800005F65E4012BF1643B2FA82F502FA05F490
:10059000C5F120051EBF22FA05FC44EA0C042035F3
:1005A00056EA044C4FEA144418BF641C4FF000088C
:1005B0004FF00009904271EB030C39D3002919BFA9
:1005C000B1FA81F701FA07F6B0FA80F700FA07F6F8
:1005D000C7F120071EBF20FA07FC46EA0C062037A9
:1005E000B6FBF4FCA7EB0507103F07F01F0BCBF1A0
:1005F00020060CFA0BFB2CFA06F644BFB346002685
:10060000202FA4BF5E464FF0000B5BEA060C08BF2C
:100610004FF0010B19EB0B09ABFB027C48EB060812
:10062000C01B06FB02CC0BFB03CC71EB0C01C1E73A
:100630000B46024641464846BDE8F08B13B54FF0E5
:1006400000004FF00001AFF30080BDE81C40704790
:100650000FB4044910B503AA029800F05DFD10BC68
:100660005DF814FB3C0E00240FB41CB5074B06AA22
:100670007B4469460090059800F01FFD0020694604
:1006800000F02EFD1CBC5DF814FB00006D0A00009C
:1006900070B5044685690068C10601D5302600E0C2
:1006A0002026C00707D070BDD4E90121304690470D
:1006B000206A401C20626D1EF6D570BD70B50446E0
:1006C00085690078C00707D170BDD4E901212020D9
:1006D0009047206A401C20626D1EF6D570BD70B533
:1006E0000C460546012A05D02878800600D5EA691F
:1006F000002302E0012305E05B1C934202D2E05C90
:100700000028F9D1A869E618C01AA861286A184417
:1007100028622846FFF7BCFF04E0D5E9012114F860
:10072000010B9047B442F8D32846FFF7C7FF70BDCE
:100730002DE9F0410646002410687529314616A5BA
:1007400010D0AFF30080002802DA404213A507E082
:1007500031688A0701D512A502E0490704D511A521
:10076000012401E0AFF3008000210A2206F12407F2
:1007700009E0B0FBF2FCB0FBF2F302FB1C003030EE
:1007800078541846491C0028F3D123462A4630469F
:10079000BDE8F04100F023BA000000002D00000089
:1007A0002B0000002000000070B504460D462146D5
:1007B0001068AFF300802188090502D50F4A7A44FA
:1007C00002E00E4A7A440E32002104F1240305E0CF
:1007D00000F00F060009965D5E54491C0028F7D111
:1007E00020780023000704D5702D02D009B1022320
:1007F00011322046BDE8704000F0F1B976B010002B
:100800002DE9F05F894604464FF0000ADFF824B175
:10081000FB44C0F820A02046E168884700287DD02E
:10082000252806D0D4E901219047206A401C206287
:10083000F1E700255F462046E16888472028064604
:1008400007DB312E05D2B81910F8200C08B105438A
:10085000F1E7A80701D525F00405C4F81CA000277E
:10086000C4F818A02A2E09D0304607F009FB38B387
:1008700004EB8708303EC8F8186019E059F8041BEB
:10088000204604EB87029161E1688847012F064604
:1008900018D1E069002820DA25F020051DE0D8F8FD
:1008A000180000EB800006EB40003038C8F8180054
:1008B0002046E1688847064607F0E2FA0028EED1B4
:1008C000012F0AD02E2E08D12046E16888477F1CD0
:1008D0000646022F45F02005C4DBA069002803DA94
:1008E000404245F00105A061E80701D025F0100560
:1008F000A6B1A6F14100192802D8203645F40065BA
:100900004A463146204625604D46FFF71FFD60B13F
:10091000012807D0ED1D25F0070000E007E000F1F9
:10092000080978E705F1040975E730467AE7206A97
:10093000BDE8F09F4CB0100040EA010310B59B07E2
:100940000FD1042A0DD310C808C9121F9C42F8D039
:1009500020BA19BA884201D9012010BD4FF0FF30EA
:1009600010BD1AB1D30703D0521C07E0002010BD00
:1009700010F8013B11F8014B1B1B07D110F8013B8C
:1009800011F8014B1B1B01D1921EF1D1184610BD6D
:1009900010B5431C02E010F8011B71B18107FAD1B8
:1009A0004FF0013202C88C1A8C4314EAC211F9D0FC
:1009B000C01A0A0603D0C01E10BDC01A10BD0A041A
:1009C00001D0801E10BD0902FCD0401E10BD032ABC
:1009D00040F2308010F0030C00F0158011F8013B5C
:1009E000BCF1020F624498BF11F801CB00F8013B43
:1009F00038BF11F8013BA2F1040298BF00F801CB07
:100A000038BF00F8013B11F0030300F02580083ADD
:100A1000C0F0088051F8043B083A51F804CBA0E834
:100A20000810F5E7121D5CBF51F8043B40F8043B89
:100A3000AFF30080D20724BF11F8013B11F801CBBE
:100A400048BF11F8012B24BF00F8013B00F801CB8F
:100A500048BF00F8012B704710B5203AC0F00B805A
:100A6000B1E81850203AA0E81850B1E81850A0E8B2
:100A70001850BFF4F5AF5FEA027C24BFB1E818500C
:100A8000A0E8185044BF18C918C0BDE810405FEA7C
:100A9000827C24BF51F8043B40F8043B08BF7047F8
:100AA000D20728BF31F8023B48BF11F8012B28BFFD
:100AB00020F8023B48BF00F8012B704702F0FF030B
:100AC00043EA032242EA024200F03ABB4FF000023E
:100AD00000B5134694469646203922BFA0E80C5034
:100AE000A0E80C50B1F12001BFF4F7AF090728BF0F
:100AF000A0E80C5048BF0CC05DF804EB890028BF8B
:100B000040F8042B08BF704748BF20F8022B11F0B3
:100B1000804F18BF00F8012B70477047704770472F
:100B2000704700000048704738EC00247047704759
:100B30007047704738B504460A4600206946AFF34F
:100B40000080002808BF38BD02460099204600F00A
:100B500023FB012038BD012000F034BCF8B5AFF311
:100B60000080054600200C46102000BF0646A8194C
:100B7000A0420DD9324669460020AFF3008007003D
:100B800008BF00F01FFC0098A04218BF0546C4191A
:100B9000FFF7C8FF05600746F01D20F00700461963
:100BA000284600F00AF8B44208BFF8BDA21B31463F
:100BB0003868BDE8F84000F0EFBA00210160C0E9F4
:100BC000011070471020704710B500F0E1FA00687E
:100BD00010BD10B5044600F0DBFA046010BD2DE92D
:100BE000F0470D4699469246044600F124080168F4
:100BF000880604D5E06921F01001216000E00120A1
:100C0000A84201DD471B00E00027A1697A1902EB29
:100C10000900081AA0612078C00602D42046FFF718
:100C200037FD002608E0D4E901211AF806009047B4
:100C3000206A401C761C20624E45F4DB2078C006FA
:100C40000AD52046FFF724FD06E0D4E90121302033
:100C50009047206A401C2062381EA7F10107F4DC8F
:100C600007E0D4E9012118F805009047206A401CEC
:100C70002062281EA5F10105F3DC2046FFF71EFDCA
:100C80002078000602D50220BDE8F0870120FBE7AE
:100C900070472DE9FF4F0C461E464FF0FF378BB0D3
:100CA000D2E90001DDF860800A908A46C1F30A5556
:100CB00005B93D46002108464FF00000BAF1000F8B
:100CC00000F4400005DA00EB80004FF4400101EA37
:100CD00050004FEA9059B9F1010F00DDB9460A986A
:100CE00050EA4A000ED044F61050A5F2FF354543B5
:100CF0002F14B8F1000F1ED07542291E1EDDC9F158
:100D000000021CE0B8F1010F4FF0000001D03021CB
:100D100003E0F24305E02154401CB042FBDB3046C7
:100D20000022002121540B99C1F80880C1E900205C
:100D30000FB0BDE8F08FBD1B6D1CDEE74A4600DA40
:100D4000694206A800F0C8FA06AB93E8070003ABB7
:100D500083E8070050460A9900F0C6FD8DE80700B9
:100D6000A0F500501F3800900398002D0ADD42F2D4
:100D70001F014A460844002303A90390684601F076
:100D80002FF809E0A0F500504A461F38002303A9B8
:100D90000390684601F039F88DE807000004000C64
:100DA00003D04FF0FF30410800E01046B8F1000FCB
:100DB00003D00022009215461EE0751E05D400F0F7
:100DC00005FA303262556D1EF9D5B346012208434B
:100DD00002D000227F1C04E02078302801D10022BC
:100DE0007F1E002A099784D01DE0112D07DA00F03C
:100DF000EDF9303262556D1C50EA0102F5D108431D
:100E000002D00098C8B10EE00021681E05E0235C06
:100E1000625C63542254401E491C8142F7DBAB469E
:100E2000A81B401E0990002004F80B000B98099A9B
:100E3000C0F80880C0E9002B7AE711264FF00008BF
:100E400057E72DE9F04F88460446D21D22F00701EE
:100E500091B0D1E90001CDE90A0106F0F6FB0246A6
:100E60000B98C00F01D02D2007E02068810701D525
:100E70002B2002E0202101EAC000032A099001D0C2
:100E8000072A05DB03464146204600F0E5F90BE161
:100E90002078800601D5E06900E00620B8F1650FF2
:100EA000814606D0B8F1660F18D0B8F1670F70D13F
:100EB00031E00020B9F1110F009001DB112301E0B6
:100EC00009F101030AAA01A90CA8FFF7E2FEDDE976
:100ED0000C70002609F10105834647E001204B46CE
:100EE00000904FF000470AAA01A90CA8FFF7D1FE15
:100EF000DDE90DB00C995D46002610B909F101003D
:100F00000D18B9EB050003D4C0F1FF3609F1010556
:100F1000A5EB09002BE0B9F1010F01DA4FF001094F
:100F20000020B9F1110F0090484601DD112300E0C7
:100F300003460AAA01A90CA8FFF7ABFEDDE90C7075
:100F40004D4600268346207800070AD4AB4500DAD8
:100F50005D4601A8012D04DD411911F8011C30295D
:100F600007D04F4502DA17F1040F04DA0120824658
:100F70000FE06D1EEEE7002F02DCED1B3E4403E0A8
:100F8000781CA84200DD7D1CB81B00F1010A4FF05F
:100F900000472078000703D4AA4501DB4FF0FF3A51
:100FA0000021B7F1004F0DF143088DF8431024D014
:100FB00002202B23002F01DA7F422D230A21021E5B
:100FC000A0F1010000DC5FB197FBF1FC97FBF1F2AF
:100FD00001FB1C7C17460CF1300C08F801CDEEE744
:100FE000A8F1010003702188090501D5452100E021
:100FF0006521A0F1010800F8011C09980FA9A1EBD7
:101000000807FF1D00B10120411901EBEA70A16939
:101010003844081A401EA0612078C00602D4204639
:10102000FFF736FB099828B1D4E901219047206ADF
:10103000401C20622078C00622D52046FFF728FBFE
:101040001EE0002E04DBB34502DD01A8805D00E058
:101050003020D4E901219047206A401C2062761C90
:10106000AAF101005FEA000A0AD100F08DF8C06819
:101070000168405CD4E901219047206A401C20624D
:10108000281EA5F10105DCDC07E0D4E9012118F8F0
:10109000010B9047206A401C2062381EA7F101070F
:1010A000F3DC2046FFF70AFB032011B041E6000005
:1010B00001694A1C02610878704700B58FB0CDE91C
:1010C00001310021059105497944CDE9031011460C
:1010D0006846FFF795FB0FB000BD0000E5FFFFFF7E
:1010E0000A6802F8010B0A60704710B5436913B132
:1010F000AFF3008001E0FFF7F2FA012010BD127893
:1011000000F124010A7000224A700122EDE7116803
:101110004FF0FF32E9E70000074B70B50D467B4406
:10112000FFF7CBFF0446284600F048F910B14FF016
:10113000FF3070BD204670BD478B00004FF00002AD
:101140000429C0F0128010F0030C3FF4C1ACCCF1C4
:10115000040CBCF1020F18BF00F8012BA8BF20F847
:10116000022BA1EB0C01FFF7B3BC5FEAC17C24BFEB
:1011700000F8012B00F8012B48BF00F8012B704745
:101180000048704730EC00240048704750EC0024C1
:101190000048704730EC0024034640688C46002825
:1011A00018BF88423CBF03464068F8D3186818440B
:1011B000884207D00CF1030020F00700001D411AFF
:1011C000521A0146081D0A60FFF7A4B930B5B0F104
:1011D0000A024FEA900E71F100034EEA817EB0EBF5
:1011E0000E0061EB91014FEA101E4EEA017E10EBFA
:1011F0000E0041EB11114FEA102E4EEA016E10EB7A
:101200000E0041EB11214FEA104E4EEA014E10EB59
:101210000E0041EB1141401841F100014FEAD000AE
:1012200040EA41704FEAD10110EB80054FEA81049A
:1012300044EA907444EB01046D1944EB0404521B1E
:10124000A3414FF0000348BF0A3200D530BD401C17
:1012500041F1000130BD00002DE9F0411F46044678
:1012600003260168072A01F4006004DB08B116A513
:1012700005E016A503E008B115A500E015A521F0CD
:1012800010002060A069C01EA0610FB1401EA061C7
:101290002046FFF7FDF94FB1D4E9012138469047C8
:1012A000206A401C2062C01C206206E0206AFAE727
:1012B000D4E9012115F8010B9047761EF8D220469B
:1012C000FFF7FCF9BDE8F0814E414E006E616E0003
:1012D000494E4600696E66002DE9F0478146164684
:1012E0008AB0354878440DC88DE80D0032487844FE
:1012F000801C03AC0DC884E80D0041F69B30084407
:10130000372190FBF1F290FBF1F5A5F1800501FB8F
:1013100012041B3C02D56442012000E00020DFF8EB
:1013200098A080460027FA44AAF1BE0A0EE0E00722
:101330000AD03246684607EB470101230AEB8101D8
:1013400000F063FD8DE8070064107F1C002CEED1D7
:10135000194F7F44AE3F19E0E80715D007EB0410A2
:101360000DF1180A90E80E008AE80E00C068F042FD
:1013700001D1981908903246012306A903A800F06C
:1013800044FD03AB83E807006D10641C002DE3D11E
:101390004FF0010332466946B8F1000F03A802D0AE
:1013A00000F01EFD01E000F030FDC9E90001C9F8C0
:1013B00008200AB0BDE8F08738A61000007B00F0D6
:1013C0008000704710B500F037F8BDE8104000F01D
:1013D0002EB87546FFF7D4FEAE4605006946534663
:1013E00020F00700854618B020B5FFF751F8BDE89A
:1013F00020404FF000064FF000074FF000084FF07C
:10140000000B21F00701AC46ACE8C009ACE8C0090C
:10141000ACE8C009ACE8C0098D46704710B5044679
:10142000AFF300802046BDE81040FEF7BBBF0028A8
:1014300001D006F041BF704710B5012805D000214A
:1014400003A000F055F8012010BD09A1F8E7000045
:1014500053494752544D454D3A204F7574206F669D
:101460002068656170206D656D6F72790000000005
:101470003A2048656170206D656D6F727920636FE9
:1014800072727570746564004FF0013C50F8042B63
:1014900051F8043B9A4215D1A2EB0C03934313EA93
:1014A000CC130BD150F8042B51F8043B9A4209D1CC
:1014B000A2EB0C03934313EACC13E7D04FF00000E8
:1014C000704700BFD01A01BAB1FA81F101F01801DA
:1014D00022FA01F0CB40C1F12001DBB2C0B2C01A48
:1014E0002CFA01F3D11A914311EAC311E6D17047E6
:1014F00070B505460C460A2000E06D1C06F0DDFEC6
:1015000035B128780028F8D102E0641C06F0D5FE39
:1015100014B120780028F8D1BDE870400A2006F008
:10152000CCBE00002DE9F04F81B02DED048B88B0CA
:1015300006880027B7EBD30FD0F804C0A6F1010549
:1015400084680CEB850B0395CDE9016300F05E81A7
:10155000F008079026F0070004EB8000069046F0A4
:10156000070006F007050CEB800AA7EBD6000590F4
:1015700068424FEAD30904909FEDD10A604600BF4C
:101580000B68CBF800304B68CBF804308B68CBF895
:101590000830CB68CBF80C300B69CBF810304B69B6
:1015A000CBF814308B69CBF81830CB69CBF81C30F2
:1015B000079BD0ED006AD0ED015AD0ED027AD0ED54
:1015C000031AD0ED043AD0ED052A002BD0ED064ADF
:1015D00000F0C2804FF00008DDF814E0B0EE401AD1
:1015E000B0EE402AB0EE403AB0EE404AB0EE405A7B
:1015F000B0EE406AB0EE407AF0EE400A04EB080626
:1016000000EB080396ED009A93ED078A46EE890AEF
:101610001EF1010E05EE897A08F1200807EE896AAD
:1016200001EE895A03EE894A02EE893A04EE892ACC
:1016300009EE081A96ED019AD3ED086A45EE890A7B
:1016400007EE897A01EE896A03EE895A02EE894A29
:1016500004EE893A08EE092A09EE261A96ED029A56
:10166000D3ED095A47EE890A01EE897A03EE896AB9
:1016700002EE895A04EE894A08EE093A06EE892AF2
:1016800009EE251A96ED039AD3ED0A7A41EE890AFE
:1016900003EE897A02EE896A04EE895A08EE094A55
:1016A00006EE893A05EE892A09EE271A96ED049A84
:1016B000D3ED0B1A43EE890A02EE897A04EE896AA9
:1016C00008EE095A06EE894A05EE893A07EE892A9C
:1016D00009EE211A96ED059AD3ED0C3A42EE890AED
:1016E00004EE897A08EE096A06EE895A05EE894AFF
:1016F00007EE893A01EE892A09EE231A96ED069A39
:10170000D3ED0D2A44EE890A08EE097A06EE896ABD
:1017100005EE895A07EE894A01EE893A03EE892AD5
:1017200009EE221A96ED079AD3ED0E4A48EE090A01
:1017300006EE897A05EE896A07EE895A01EE894A32
:1017400003EE893A02EE892A09EE241A7FF456AF95
:101750005646069B13E000BF00F11C06F0EE400A5F
:10176000B0EE407AB0EE406AB0EE405AB0EE404A79
:10177000B0EE403AB0EE402AB0EE401A2346203197
:10178000002D0BF1200B26D0049F00BF93ED008AA3
:1017900046EE880AF0EE656A043305EE887AF0EECC
:1017A000675A013707EE886AF0EE617A01EE885ACF
:1017B000F0EE631A03EE884AF0EE623AF0EE642A25
:1017C00004EE882AD6ED004A03EE883A06F10406B4
:1017D00008EE241ADAD102F12003C2ED000A82EDEC
:1017E000017A203082ED026AB9F1010982ED035AD3
:1017F0000AF1200A82ED044A82ED053A82ED062ABA
:1018000082ED071A1A467FF4BBAE01E0604613462C
:10181000029A12F0070825D0019AC2F1000E9FED3E
:10182000280A00BF0E687746CBF800600026B0EEAD
:10183000401A00BF8519A21995ED002A92ED003AD1
:1018400002EE031A013706F10406F3D11A1D83EDE7
:10185000001A04310BF1040BB8F1010800F1040087
:101860001346DFD10021039FB1EB970F18D0B908C1
:10187000494200BF02680131CCF800204268CCF830
:10188000042000F110028368CCF808300CF110033A
:10189000C068CCF80C009C461046EBD110469C4624
:1018A00017F0030106D0494250F8042B01314CF8DF
:1018B000042BF9D108B0BDEC048B01B0BDE8F08F6A
:1018C00000000000B0B5DDF810C0054601EB0C00CB
:1018D00029806FF00301AA6001EB800118461C46C5
:1018E000FFF7F4F86C60B0BD5FEA400C08BF91F000
:1018F000000F4FEA8C234FEAC12243EA51514FEACD
:101900001C5018BF00F5F0404FEA300018BF41F0FE
:1019100000415FEA6C5C00F02980BCF1FF3F08BF2A
:1019200040F080407047130C06BF12044FF0100CBB
:101930004FF0000C130E04BF12020CF1080C130F31
:1019400004BF12010CF1040C930F04BF92000CF1C0
:10195000020CD30F04BF52000CF1010C11464FF0E2
:101960000002A0F11F00A0EB0C00704711F0004F27
:1019700008BF704731F000413FF4D5AF0B0C06BFF4
:1019800009044FF0100C4FF0000C0B0E04BF0902BD
:101990000CF1080C0B0F04BF09010CF1040C8B0FA8
:1019A00004BF89000CF1020CCB0F04BF49000CF1FD
:1019B000010CCCF12003A0EB0C0022FA03F302FA95
:1019C0000CF241EA030100F10100704720F07F4C66
:1019D00080EA030023F07F47ACEB070303F57C5359
:1019E00000F0004003F1FF032DE980494FEA154B59
:1019F00009B44FEA144325EA0B4E24EA03480FF2D8
:101A0000042606EB132749083E785FEA320203FBFF
:101A10000667C7F5000707FB06F64FEA54374FEA9B
:101A2000D64606F1020607FB066CCCF1005C4FEAD5
:101A30001C472CEA074C07FB06F40CFB06F504EBED
:101A400015464FEA961634BF00204FF000404FEA8B
:101A5000D13706FB07FC4FEA1C4C0CFB0BF7D21BE3
:101A600003FB0CF761EB07010CFB0EF7B0EB074033
:101A700072EB17420CFB08F734BFA2EB0742B2EB44
:101A8000074261EB17414FEA0C444FEA910706FB0E
:101A900007FC4FEA1C4C0CFB0BF7B0EBC74072EB9A
:101AA000573203FB0CF734BFA2EBC742B2EBC7427D
:101AB00061EB57310CFB0EF7B0EBC70072EB5772BE
:101AC0000CFB08F734BFA2EBC702B2EBC70261EB15
:101AD0005771039F4FEA816141EA921104EBCC04F4
:101AE0004FEAD1374FEA826206FB07FC42EA9012C6
:101AF0004FEA80604FEA1C4C0CFB0BF7D21B03FB38
:101B00000CF761EB07010CFB0EF7B0EB074072EB33
:101B100017420CFB08F734BFA2EB0742B2EB0742B7
:101B200061EB17414FEA8C554FEA910704EB9C2477
:101B300006FB07FC4FEA1C4C0CFB0BF7B0EBC74055
:101B400072EB573203FB0CF734BFA2EBC742B2EB88
:101B5000C74261EB57310CFB0EF7B0EBC70072EBDD
:101B600057720CFB08F734BFA2EBC702B2EBC702F7
:101B700061EB577115EB4C254FEA816141EA9211F7
:101B80004FEA82624FEAD13742EA901206FB07FC25
:101B900044F100044FEA80604FEA1C4C0CFB0BF749
:101BA000D21B03FB0CF761EB07010CFB0EF7B0EB4C
:101BB000074072EB17420CFB08F734BFA2EB074259
:101BC000B2EB074261EB174115EB1C154FEA81316F
:101BD00041EA92414FEA823242EA90424FEA803033
:101BE0004FEA0C7644F1000448EA03434EEA0B48FE
:101BF0004FF0000EB2EB080C71EB030724BF6246F6
:101C000039464EEB0E0E4FF0000B00185241494181
:101C10004BEB0B0BB2EB080C71EB03077BF1000BEA
:101C200024BF624639464EEB0E0E4FF0000B0018F3
:101C3000524149414BEB0B0BB2EB080C71EB030724
:101C40007BF1000B24BF624639464EEB0E0E51EA83
:101C5000020718BF46F0010616EB0E7655F100029A
:101C600054F1000103D5BDE88901BDE80088BDE855
:101C70008901BDE80048B619524141EB0101A3F1C9
:101C80000103704780807F7E7D7C7B7A79787776D0
:101C900076757473727171706F6E6E6D6C6C6B6A49
:101CA0006A696868676666656464636362616160E7
:101CB000605F5F5E5E5D5D5C5C5B5B5A5A59595864
:101CC00058575756565555555454535352525251CE
:101CD000515050504F4F4F4E4E4D4D4D4C4C4C4B24
:101CE0004B4B4A4A4A49494948484847474747466B
:101CF00046464545454444444443434343424242A7
:101D000042414141002B9C4630D477002BD01CB57A
:101D10004FEA370703B44FF010004FF01001BAF14B
:101D2000000F06D0BCF1000FDCBF40F0080040F00F
:101D300008014FF000000FBCBDE810400BF1010B93
:101D4000BBF1010F08BF5FEA170722BF12F10102C2
:101D500011F101014FF0004143F1000300F0004098
:101D600043EA00007047F9D35708D0E746EA064631
:101D700013F1400F4FEA16461FDD13F1200FDFBFAE
:101D800016430A46002120335B42BED0C3F1200730
:101D900046EA064602FA07F74FEA164646EA0706FB
:101DA000C3F1200722FA03F201FA07F721FA03F13F
:101DB0004FF0000342EA0702A7E746EA020646EAB6
:101DC00006464FEA164646EA0106BCBF46EA064604
:101DD000360C4FF000034FF000024FF0000194E783
:101DE0002DE9804C9A46934670B491E8380007C8B4
:101DF00031EA400C48BF34EA430C03D5FFF7E6FD57
:101E0000FFF780FFF0BCBDE8008C2DE9804C9A46BE
:101E1000934670B491E8380007C810F0804F08BFAF
:101E200013F0804F03D100F005F8FFF76BFFF0BC13
:101E3000BDE8008C20F07F4780EA030023F07F4C50
:101E400007EB0C03A3F57C5300F00040A3F1FE0365
:101E500092F0000F00F0B38095F0000F00F0778053
:101E60002DE901494FEA11404FEA144621EA0048A2
:101E700000FB06FC24EA064708FB06F607FB08F809
:101E800000FB07F718EB06484CEB164C4FEA124BD9
:101E900018EB07484FEA15464CEB174022EA0B4E69
:101EA0000BFB06FC25EA06470EFB06F607FB0EFEBB
:101EB0000BFB07F71EEB064E4CEB164C4FF00006E3
:101EC0001EEB074E4CEB174B18EB0B0840F10000D4
:101ED00018EB0E0B58EB000840F100008F1A4FF082
:101EE00000013CBFC943661B14BFB5EB040C0021C5
:101EF0003CBFC943F61B4FEA17444EEA8E0E27EA51
:101F000004454FEA1C4704FB07622CEA074C05FB1B
:101F100007F70CFB05F604FB0CFC16EB074642EB3F
:101F2000174216EB0C4642EB1C421BEB060658EB25
:101F30000202414146EA9E0601D5BDE80189B61973
:101F4000524141EB0101A3F10103BDE801894FEAD0
:101F500014454FEA114724EA054621EA074C05FBE0
:101F600007F406FB07F70CFB06F105FB0CFC11EB75
:101F7000074144EB17444FEA124711EB0C4144EB85
:101F80001C4422EA074C05FB07F206FB07F70CFB93
:101F900006F605FB0CFC16EB074642EB174216EB68
:101FA0000C4642EB1C456A1854F1000148BF7047CB
:101FB000B619524141EB0101A3F10103704795F0BD
:101FC000000F37D04FEA11424FEA144721EA024688
:101FD00024EA074C02FB07F106FB07F70CFB06F4AB
:101FE00002FB0CFC14EB074441EB17414FEA154789
:101FF00014EB0C4441EB1C4125EA074C02FB07F5AE
:1020000006FB07F70CFB06F602FB0CFC16EB07467B
:1020100045EB174516EB0C4645EB1C42121951F1E6
:10202000000148BF7047B619524141EB0101A3F1CD
:10203000010370474FEA14454FEA114724EA054669
:1020400021EA074C05FB07F106FB07F70CFB06F23C
:102050004FF0000605FB0CFC12EB074241EB174169
:1020600012EB0C4251EB1C4148BF7047921841EBF8
:102070000101A3F1010370472C48F0B5016887B056
:1020800041F001010160016801F001010591016861
:1020900041F080010160016801F080010591016853
:1020A00041F001010160016801F001010591016841
:1020B00041F0800101600068012402251C4F00F0FE
:1020C0008000059010266946CDE90064CDE90245FF
:1020D000384602F0FBF8CDE90064164E6946CDE9BA
:1020E0000245304602F0F2F820206946CDE90004AE
:1020F000CDE90245304602F0E9F8200200224FF413
:1021000004118DE807006946384602F0DFF8062220
:102110001720114602F0CAFA04F0F0FA01223846FC
:10212000102102F0F1F907B0F0BD0000E0440258C0
:1021300000000258001C025870B58C4C012220216E
:10214000204602F0E1F98A4E01221021304602F0C9
:10215000DBF900222046102102F0D6F94FF47A75FF
:10216000284606F081FF01222046102102F0CCF91A
:10217000284606F079FF00222046102102F0C4F91B
:102180000A2006F07FFF01222046102102F0BCF950
:10219000284606F069FF00222046202102F0B4F90B
:1021A00000223046102102F0AFF9112004F0E6FAC7
:1021B0000A2006F067FF01223046102102F0A4F940
:1021C000202000F011F904460AE06AA02146FEF73B
:1021D0003FFA202000F008F90446284602F01EF8D5
:1021E000732CF2D10A2006F04DFFE021422000F0CE
:1021F0001FF9642006F038FF0A2006F043FF012192
:10220000412000F015F9F021432000F011F90A20D7
:1022100006F038FF0021442000F00AF90A2006F0F9
:1022200031FF0021452000F003F90A2006F02AFFC3
:10223000EF21462000F0FCF80A2006F023FF0F21D2
:10224000472000F0F5F80A2006F01CFF0021482086
:1022500000F0EEF80A2006F015FFEA21492000F010
:10226000E7F80A2006F00EFF03214A2000F0E0F80C
:102270000A2006F007FF0C214B2000F0D9F80A20B5
:1022800006F000FF222000F0AFF801463DA0FEF767
:10229000DFF90A2006F0F6FE212000F0A5F801463D
:1022A00038A0FEF7D5F90A2006F0ECFE232000F056
:1022B0009BF8014633A0FEF7CBF90A2006F0E2FEB8
:1022C000242000F091F801462EA0FEF7C1F90A2063
:1022D00006F0D8FE252000F087F8014629A0FEF779
:1022E000B7F90A2006F0CEFE262000F07DF8014660
:1022F00024A0FEF7ADF90A2006F0C4FE272000F066
:1023000073F801461FA0FEF7A3F90A2006F0BAFEF3
:10231000282000F069F801461AA0FEF799F90A2072
:1023200006F0B0FE292000F05FF8014615A0FEF788
:102330008FF90A2006F0A6FE2A2000F055F8014683
:1023400010A0FEF785F90A2006F09CFE2B2000F075
:102350004BF801460BA0FEF77BF9284606F084FEF9
:102360002846BDE8704006F07FBE0000001C025801
:10237000000002584552524F522049443A2530320B
:10238000780D0A002578200010B5154C0022102188
:10239000204602F0B9F80A2006F074FE102004F07E
:1023A000EDF90A2006F06EFE01222046102102F00F
:1023B000ABF80C480122202102F0A6F800F06EFADA
:1023C0000A2006F051FE00222046102102F09CF85F
:1023D0000A2006F049FEBDE81040172002F058B967
:1023E00000000258001C025870B5104D0022102148
:1023F0000446284602F088F8204604F0BFF90A2077
:1024000006F040FE002004F0B9F90A2006F03AFE7A
:10241000FF2004F0B3F904460A2006F033FE01223F
:102420002846102102F070F8204670BD00000258C6
:1024300070B5104C00220E4605461021204602F0D1
:1024400063F8284604F09AF90A2006F01BFE0020E3
:1024500004F094F90A2006F015FE304604F08EF9D7
:102460000A2006F00FFE2046BDE870400122102130
:1024700002F04AB800000258FEE700002DE9F041E2
:10248000002405F0C8FB050013D03648006840F270
:102490005146721C0021C0F30A000123A0F5806799
:1024A000493F04D0B04207D141F0010108E019468C
:1024B00006E02046BDE8F081904201D1012000E015
:1024C0000020014328494FF0180008D08860886830
:1024D000182843D18B6088680028FCD13DE0234E4A
:1024E0004FF00A47224AD6F800C0B7EB4C5F08D13C
:1024F00010601068182831D1136010680028FCD1D2
:102500002BE0D6F800C0CCF30A0CACF58067833F13
:102510000AD037684FF01042B2EB475F12D18860A3
:102520008868182809D019E010601068182815D19B
:10253000136010680028FCD10FE08B6088680028C9
:10254000FCD10AE03268520508D1886088681828F2
:1025500004D18B6088680028FCD10124284605F04E
:10256000CDFBA6E7002004E0003002400010005C34
:10257000084C02582DE9F04105F04DFB35490B6838
:1025800040F251456C1C0021C3F30A030122A3F55C
:102590008066493E04D0AB4204D141F0010105E020
:1025A000114603E0A34201D1012300E000232A4D9C
:1025B0002A4E19432A4908D08A608A68002AFCD129
:1025C0000D600968B14241D0FEE7264C4FF00A4C3D
:1025D000254BD4F800E0244F0837BCEB4E5F08D100
:1025E0003A6039680029FCD11D601968B1422DD0CC
:1025F000FEE7D4F800E0CEF30A0EAEF5806CBCF135
:10260000830C0ED027684FF01043B3EB475F11D116
:102610008A608A68002AFCD10D600968B14215D031
:10262000FEE73A6039680029FCD11D601968B142A3
:102630000CD0FEE723685B0508D18A608A68002A0F
:10264000FCD10D600968B14200D0FEE705F056FBF1
:10265000BDE8F081002004E0C2A507F4CDB5E8B5DF
:10266000003002400010005C004C02580148C06F6E
:1026700000F030BF9C2100240148806F00F02ABF89
:102680009C210024294A016891423AD0274A1832F5
:10269000914236D0254A3032914232D0234A4832D4
:1026A00091422ED0214A603291422AD01F4A78327C
:1026B000914226D01D4A9032914222D01B4AA83224
:1026C00091421ED01A4A91421BD0194A18329142A7
:1026D00017D0174A3032914213D0154A48329142EE
:1026E0000FD0134A603291420BD0114A7832914296
:1026F00007D00F4A9032914203D00D4AA83291423E
:1027000011D1CAB21823103AB2FBF3F26FF30901E8
:10271000032A02F00703074AD25CC26500D9091DEB
:1027200081650846704721F0FF01F9E7100002407B
:102730001004024090B3100830B5224A012301680A
:102740009142CAB21BD01F4C1434A14217D01D4C69
:102750002834A14213D01B4C3C34A1420FD0194C59
:102760005034A1420BD0174C6434A14207D0154C11
:102770007834A14203D0134C8C34A1420CD11421E3
:10278000114C083AB2FBF1F10F4A803201F01F05FB
:1027900004EB8101AB4010E00C4D1824103A0D44BD
:1027A000B2FBF4F1A82D00D80831094A01F01F044A
:1027B00002EB8101064AA3408032603080E80E00BF
:1027C00030BD00000854025800580258F0FBFDBF0D
:1027D0000008024010B50279531E072B2DD8174C64
:1027E0000168A1421BD0154C1434A14217D0134CE0
:1027F0002834A14213D0114C3C34A1420FD00F4CCD
:102800005034A1420BD00D4C6434A14207D00B4C84
:102810007834A14203D0094C8C34A14203D1084939
:10282000074C443102E00749064C443104EB820274
:10283000C0E91B2101219940416710BD085402588D
:10284000FC580258FC08024010B583694FF0C07470
:10285000826A0146002053B1B3F5005F15D072B112
:10286000012A0CD0022A0AD0032A09D104E01AB1A5
:10287000012A06D0022A03D1C96AC90100D5012064
:1028800010BDC96AA142FAD010BD002AF7D0012AB2
:10289000F2D0022AF3D0032AF3D010BD37482DE935
:1028A000F843016841F00201016000684FF003083D
:1028B000334E002400F0020000904025314A4FF4CE
:1028C00080693046C6E90948F46226233463C6E9C4
:1028D0000254C6E90494B461F4613462C6E9002389
:1028E00000F002FD10B128A0FDF7B2FE244801F06F
:1028F00065F910B124A0FDF7ABFE214F2522214937
:102900004FF40030883F07F580751839BE67B7630C
:10291000C5E90948EC622C6385E81600C5E903495E
:102920006C61AC61C5E90740284600F0DDFC10B1E0
:1029300015A0FDF78DFE1248783001F03FF910B177
:1029400011A0FDF785FEFD6703220121AF633B2047
:1029500001F0ACFE3B2001F09BFE032201213A2056
:1029600001F0A4FE3A2001F093FE0549F031002069
:102970000C54401C0928FBDBBDE8F883D8440258FE
:102980002422002458040240656572002DE9F04FAE
:10299000804E804FDFF8FC911836DFF8F8A14837F9
:1029A0000468856D0AF1300ADFF8ECB14C45DFF8B8
:1029B000ECC1DFF8ECE16DD0B4426BD0544569D086
:1029C000BC4267D0DFF8D081A8F11808444561D037
:1029D0005C455FD064455DD074455BD0DFF8C48151
:1029E000444557D0DFF8BC8108F11808444551D060
:1029F000DFF8B08108F1300844454BD0DFF8A481FE
:102A000008F14808444545D0DFF8988108F160088E
:102A100044453FD0DFF88C8108F17808444539D02F
:102A2000DFF8808108F19008444533D0DFF87481E5
:102A300008F1A80844452DD0DFF86C81444529D021
:102A4000DFF8648108F11408444523D0DFF8588189
:102A500008F1280844451DD0DFF84C8108F13C08F6
:102A6000444517D0DFF8408108F15008444511D0A3
:102A7000DFF8348108F1640844450BD0DFF8288181
:102A800008F17808444505D0DFF81C8108F18C086E
:102A9000444509D1D0E91948C4F80480C46E1CB17A
:102AA000D0E91C48C4F8048004684C452ED0B442D8
:102AB0002CD054452AD0BC4228D0374E183EB442C0
:102AC00024D05C4522D0644520D074451ED0354EBC
:102AD000B4421BD0334E1836B44217D0314E303684
:102AE000B44213D02F4E4836B4420FD02D4E60362C
:102AF000B4420BD02B4E7836B44207D0294E9036D4
:102B0000B44203D0274EA836B44215D190F85C6089
:102B10003F2406F01F06B440AC600468256825F425
:102B2000802525602EE09A600068C160BDE8F08FC6
:102B300099600068C260F9E71B4EB4421BD01A4E80
:102B40001436B44217D0184E2836B44213D0164E5D
:102B50003C36B4420FD0144E5036B4420BD0124E15
:102B60006436B44207D0104E7836B44203D00E4ECD
:102B70008C36B442DAD190F85C60012406F01F066E
:102B8000B4406C60046863608368402B0368CFD1F5
:102B9000C9E700001000024088000240A000024087
:102BA000B8000240100402400854025803490923A7
:102BB0000246A1F5BC7002F041BF000014230024BE
:102BC000704710B54FF48074204601F073FB4FF04E
:102BD000B040C0F8884010BD0548812108B5054BBC
:102BE000054A0068009003F58160FEF76BFE08BDA2
:102BF000CC16002410E80024C4B31008034A13685C
:102C00000A4601460248FEF78DBC0000CC1600249F
:102C100018EC0024F0B50126044600201E2301E034
:102C20005B1E05D303F01F0706FA07F50D42F7D028
:102C300072B1082A0AD0102A05D0182A01D1072B10
:102C400006D30120F0BD082BFBD201E0102BF8D2F7
:102C50002368596121688B6823F0180313438B6044
:102C6000F0BD000010B5040010D0607F20B9002036
:102C70002077204600F032F821790220607739B1C0
:102C8000D4E902122046FFF7C5FF48B1012010BD6C
:102C90002168114848612068816821F0180181602D
:102CA0006079A0B121682069086101222068636908
:102CB000816821F06001194381602068A3698168FF
:102CC00021F08001194381606277002010BD2168E6
:102CD0004FF0FF30E8E70000B71DC10408B50068F9
:102CE0000649884208D10648016841F40021016084
:102CF000006800F40020009008BD0000004C02585D
:102D0000E04402582DE9F84F044601F009FC009018
:102D10003CB194F83500022806D08021616500207E
:102D2000E4E00120BDE8F88FC74DC74EC64918350D
:102D300020683036DFF81483DFF814938842DFF818
:102D400014A3DFF814B32ED0A8422CD0B0422AD05E
:102D5000404528D0484526D0504524D0584522D05B
:102D6000BD4A183290421ED0BC4A90421BD0BB4A8A
:102D70001832904217D0B94A3032904213D0B74A35
:102D8000483290420FD0B54A603290420BD0B34ADD
:102D90007832904207D0B14A9032904203D0AF4A85
:102DA000A832904209D1026822F01E020260206817
:102DB000426922F08002426103E0026822F00E02C2
:102DC000026027688F4238464DD0A8424BD0B042AF
:102DD00049D0404547D0484545D0504543D0584557
:102DE00041D09D4A183290423DD09C4A90423AD000
:102DF0009A4A1832904236D0984A3032904232D0B5
:102E0000964A483290422ED0944A603290422AD05C
:102E1000924A7832904226D0904A9032904222D004
:102E20008E4AA83290421ED08D4A90421BD08C4AC6
:102E30001432904217D08A4A2832904213D0884ADE
:102E40003C3290420FD0864A503290420BD0844A96
:102E50006432904207D0824A7832904203D0804A4E
:102E60008C32974204D1206E026822F48072026094
:102E700075492068884228D0A84226D0B04224D084
:102E8000404522D0484520D050451ED058451CD042
:102E900071491831884218D07049884215D06F495D
:102EA0001831884211D06D49303188420DD06B49BC
:102EB0004831884209D069496031884205D0674964
:102EC0007831884201D065499031016821F00101D3
:102ED00001600EE001F024FB0099401A052808D992
:102EE000202262650321002084F8351084F8340024
:102EF00017E73868C007EDD1534A01212068904296
:102F00002ED0A8422CD0B0422AD0404528D04845E7
:102F100026D0504524D0584522D04F4B18339842E4
:102F20001ED04E4B98421BD04C4B1833984217D0B2
:102F30004A4B3033984213D0484B483398420FD015
:102F4000464B603398420BD0444B7833984207D0BD
:102F5000424B9033984203D0404BA833984208D15B
:102F600094F85C703F23A06D07F01F07BB4083609F
:102F700007E094F85C30A06D03F01F0301FA03F33F
:102F80004360206890424DD0A8424BD0B04249D017
:102F9000404547D0484545D0504543D0584541D09D
:102FA0002D4A183290423DD02C4A90423AD02B4ABA
:102FB0001832904236D0294A3032904232D0274AD5
:102FC000483290422ED0254A603290422AD0234A7D
:102FD0007832904226D0214A9032904222D01F4A25
:102FE000A83290421ED01E4A90421BD01C4A143276
:102FF000904217D01A4A2832904213D0184A3C32D5
:1030000090420FD0164A503290420BD0144A64328C
:10301000904207D0124A7832904203D0104A8C3244
:1030200090420BD1D4E919024260E06E30B10268DF
:1030300022F480720260D4E91C024260002084F80D
:10304000351084F834006DE610000240580002404C
:103050007000024088000240A000024010040240BC
:10306000085402582DE9F05F28B190F83510022974
:1030700004D0802141650120BDE8F09F904C904B29
:103080000168183C18338E4ADFF83C92A1428D4CFF
:10309000DFF838E28E4FDFF83CB2DFF83CA28F4D0C
:1030A0008F4E31D091422FD099422DD0A1422BD0BA
:1030B000494529D0714527D0B94225D0DFF810C243
:1030C0000CF1180C61451FD0DFF808C2ACF1600CA0
:1030D000614519D0DFF8FCC1ACF1480C614513D053
:1030E000DFF8F0C1ACF1300C61450DD0DFF8E4C180
:1030F000ACF1180C614507D0594505D0514503D0B6
:10310000A94201D0B1422CD1DFF8B4C14FF004087C
:1031100080F83580ACF1180C61451DD091421BD070
:10312000994219D0A14217D0494515D0714513D005
:10313000B94211D06648183081420DD065486038D8
:10314000814209D063484838814205D0614830380F
:10315000814201D05F481838086820F001000860FB
:10316000ABE0D1F800C02CF00E08DFF854C1C1F874
:103170000080ACF1180C0168614527D0914225D040
:10318000994223D0A14221D049451FD071451DD07D
:10319000B9421BD0DFF838C10CF1180C614515D0CD
:1031A000DFF830C1ACF1600C61450FD0DFF824C10D
:1031B000ACF1480C614509D0DFF818C1ACF1300C16
:1031C000614503D0DFF80CC1ACF1180CD1F800C098
:1031D0002CF0010CC1F800C0DFF8E4804FF0010CC6
:1031E0000168A8F11808414546D0914244D099425F
:1031F00042D0A14240D049453ED071453CD0B94271
:103200003AD0334A1832914236D0324A603A91422B
:1032100032D0304A483A91422ED02E4A303A91422A
:103220002AD02C4A183A914226D0594524D05145EB
:1032300022D0A94220D0B1421ED02A4A91421BD0AE
:10324000284A1432914217D0264A2832914213D08C
:10325000244A3C3291420FD0224A503291420BD044
:10326000204A6432914207D01E4A7832914203D0FC
:103270001C4A8C32914218D1016E0A6822F4807285
:103280000A6090F85C20816D02F01F020CFA02F2D5
:103290004A60D0E919124A60C16E31B10A6822F45D
:1032A00080720A60D0E91C124A600022016D80F829
:1032B00035C080F8342001B188470020DCE60000EA
:1032C000280002405800024070000240880002407E
:1032D000A00002407004024088040240A0040240A2
:1032E000B8040240085402582DE9F05F04007DD074
:1032F0006D4A6D4B6C491832206830336B4E6C4F01
:103300008842DFF8B0C1DFF8B081DFF8B091DFF8B4
:10331000B0A1DFF8B0B1DFF8B0E121D090421FD00A
:1033200098421DD0B0421BD0B84219D0604517D08A
:10333000404515D0484513D0504511D058450FD0C1
:1033400070450DD0604D1835A84209D05E4D30351E
:10335000A84205D05C4D4835A84201D05A4D603591
:10336000056825F00105056020680025884227D002
:10337000904225D0984223D0B04221D0B8421FD0ED
:1033800060451DD040451BD0484519D0504517D049
:10339000584515D0704513D04B49183188420FD08D
:1033A0004949303188420BD047494831884207D0DB
:1033B00045496031884203D043497831884218D169
:1033C0002121056020684560206885602068C5600F
:1033D00020680561206841612046FFF753F994F8A1
:1033E0005C203F2102F01F02914000E059E0816023
:1033F00031E0364988421BD034491431884217D015
:1034000032492831884213D030493C3188420FD0AC
:103410002E49503188420BD02C496431884207D064
:103420002A497831884203D028498C31884238D1E2
:10343000056020684560206885602068C560206858
:1034400005612046FFF71EF994F85C20012102F087
:103450001F02914041602046FFF76EF9206E18B1BF
:103460000560D4E9190141606068401E072807D84B
:103470002046FFF7AFF9E06E0560D4E91C0141601A
:10348000E56625676567E56325646564A564E564AD
:103490002565656584F83550002084F83450BDE812
:1034A000F09F0120FBE7000010000240580002409E
:1034B0007000024088000240A0000240B8000240B4
:1034C00010040240280402404004024008540258FC
:1034D000406D70472DE9FC5F0446F74E0020DFF891
:1034E000D88300904FF41652F44808F11808A56DDF
:1034F000DFF8C493DFF8C0A3016809F13009206840
:103500000AF1480AB1FBF2F1B04201912F68D5F8F7
:1035100000C0DFF8ACB335D04146884232D04845D0
:1035200030D050452ED058452CD0E549183188422E
:1035300028D0E3493031884224D0E14948318842DB
:1035400020D0E04988421DD0DE491831884219D088
:10355000DC493031884215D0DA494831884211D0EF
:10356000DFF860E30EF1600E70450BD0D54A78327B
:10357000904207D0D34B9033984203D0D149A83121
:1035800088427DD194F85C20082102F01F0201FAE4
:1035900002F23A424AD0B04232D0404530D048459B
:1035A0002ED050452CD058452AD0C54A18329042CA
:1035B00026D0C34A3032904222D0C14A483290428B
:1035C0001ED0C04A90421BD0BE4A1832904217D03B
:1035D000BC4A3032904213D0BA4A483290420FD09F
:1035E000B84A603290420BD0B64A7832904207D047
:1035F000B44A9032904203D0B24AA832904203D1EA
:10360000026802F0040202E0026802F008026AB1F5
:10361000026822F00402026094F85C0000F01F00CF
:103620008140A960606D40F00100606594F85C0025
:10363000012100F01F008140394240D02068B04293
:1036400034D0404532D0484530D050452ED0584532
:103650002CD09B4A1832904228D0994A303290425E
:1036600024D0974A4832904220D0964A90421DD0AA
:10367000944A1832904219D0924A3032904200E077
:10368000AFE113D08F4A483290420FD08D4A60325A
:1036900090420BD08B4A7832904207D0894A9032C0
:1036A000904203D0874AA83290427DD1406910F001
:1036B000800F04D0A960606D40F00200606594F84E
:1036C0005C00042100F01F00814039423ED0206898
:1036D000B04232D0404530D048452ED050452CD055
:1036E00058452AD0764A1832904226D0744A303251
:1036F000904222D0724A483290421ED0714A904283
:103700001BD0704A1832904217D06E4A3032904225
:1037100013D06C4A483290420FD06A4A60329042CD
:103720000BD0684A7832904207D0664A9032904275
:1037300003D0644AA83290424ED1006810F0020FC4
:1037400004D0A960606D40F00400606594F85C00EE
:10375000102100F01F008140394258D02068B0424B
:1037600034D0404532D0484530D050452ED0584511
:103770002CD0534A1832904228D0514A30329042CD
:1037800024D04F4A4832904220D04E4A90421DD019
:103790004C4A1832904219D04A4A3032904215D0E1
:1037A000484A4832904200E014E00FD0454A603267
:1037B00090420BD0434A7832904207D0414A90322F
:1037C000904203D03F4AA832904207D1006800F0EF
:1037D000080006E0006872E70068B7E7006800F0DC
:1037E0000400A0B1A96020680168490304D50068FD
:1037F000000308D5A16C07E00168C90503D401687E
:1038000021F008010160216C09B12046884794F835
:103810005C00202100F01F008140394279D02068EF
:10382000B04232D0404530D048452ED050452CD003
:1038300058452AD0224A1832904226D0204A3032A7
:10384000904222D01E4A483290421ED01D4A9042D9
:103850001BD01C4A1832904217D01A4A303290427C
:1038600013D0184A483290420FD0164A6032904224
:103870000BD0144A7832904207D0124A90329042CC
:1038800003D0104AA832904203D1006800F0100023
:1038900002E0006800F00200B0B3A96094F83500BF
:1038A0000428206801680FD049037ED50068000312
:1038B0002BD4616C2AE00000100002402C0E002482
:1038C000700002401004024021F0160101602068DF
:1038D000416921F080014161206C08B9A06C20B1E0
:1038E0002068016821F00801016094F85C303F21F4
:1038F000012003F01F0300229940A96084F83500DD
:1039000084F83420216D65E003E0E16B09B12046C5
:103910008847606D00287DD0606DC00759D0206851
:10392000042184F83510B0422BD0404529D04845B9
:1039300027D0504525D0584523D09D49884220D0D6
:103940009B49183188421CD099493031884218D09F
:103950009849884215D097491831884211D0954925
:10396000303188420DD093494831884209D091497D
:103970006031884205D08F497831884201D08D4925
:103980009031016821F00101016020680099019ADD
:10399000491C0091914202D80168C907F6D100681C
:1039A000C00710D003200FE0FFE70168C905ACD4C1
:1039B00003680121002223F01003036084F835100E
:1039C00084F83420A1E7012084F83500002084F831
:1039D0003400E16C00291DD002B02046BDE8F05F44
:1039E0000847754988421DD073491431884219D05F
:1039F00071492831884215D06F493C31884211D035
:103A00006D49503188420DD06B496431884209D0EC
:103A1000694900E084E07831884203D066498C31FE
:103A200088427DD194F85C800427016808F01F0863
:103A300007FA08F717EA0C0F009746D04F0744D54E
:103A400000980F04686003D5C8033CD4A16CC1E79B
:103A5000880638D42068B0422DD055496039884254
:103A600029D0484527D0504525D0584523D0504926
:103A7000884220D04E49183188421CD04C49303100
:103A8000884218D04B49884215D04A49183188429B
:103A900011D04849303188420DD0464948318842DA
:103AA00009D0704507D0904205D0984203D04149D3
:103AB000A831884203D1016821F0080102E00168C1
:103AC00021F004010160216C84E7022707FA08F75E
:103AD00017EA0C0F00974ED08F074CD500980F04B3
:103AE000686003D5C80344D4616C73E7880640D48A
:103AF0002068B0422FD02E49603988422BD04845EB
:103B000029D0504527D0584525D02949884222D070
:103B10002749183188421ED025493031884200E0BB
:103B200044E018D02349884215D0224918318842F0
:103B300011D02049303188420DD01E494831884289
:103B400009D0704507D0904205D0984203D019495A
:103B5000A831884203D1016821F0140102E0016814
:103B600021F00A010160012184F83510002084F859
:103B70003400E16B2EE7082202FA08F212EA0C0F79
:103B800014D0090712D5016821F00E01016094F8E4
:103B90005C100120002201F01F0100FA01F16960B0
:103BA000606584F8350084F8342012E7BDE8FC9F96
:103BB0008800024010040240085402582DE9F05FCA
:103BC000044600F0ADFC002C07467DD0E34E0221F8
:103BD00020684FF00308DFF888934FF00005DFF806
:103BE00084A3B042DFF880B334D0DC4A183290426C
:103BF00030D048452ED050452CD058452AD0DA4AEE
:103C00001832904226D0D84A3032904222D0D64A3A
:103C1000483290421ED0D54A90421BD0D34A183227
:103C2000904217D0D14A3032904213D0CF4A483216
:103C300090420FD0CD4A603290420BD0CB4A7832BE
:103C4000904207D0C94A9032904203D0C74AA83266
:103C500090427DD184F83510B04284F834502ED093
:103C6000BE49183188422AD0484528D0504526D030
:103C7000584524D0BC491831884220D0BA49303147
:103C800088421CD0B8494831884218D0B749884288
:103C900015D0B6491831884211D0B4493031884224
:103CA0000DD0B2494831884209D0B04960318842CC
:103CB00005D0AE497831884201D0AC4990310168D5
:103CC00021F00101016008E027E100BF00F028FCBD
:103CD000C01B052801D920211CE120680068C0070D
:103CE000F4D104F108002168D4E9053C8E4685C86A
:103CF00009681043D4E907281F43636A38439C4F7F
:103D000040EA0C001043394040EA0800042B40EA26
:103D1000010003D1D4E90B12114308439549096806
:103D20006FF30F01B1F1005F0FD36168A1F12902B8
:103D3000052A08D9163A032A05D9083A012A02D9D0
:103D40004F39032901D840F48010CEF8000000E07C
:103D500023E02068676A4069042F20F0070047EAE3
:103D600000070DD1D4E90A01074349B12046FEF707
:103D70006BFD28B140206065012184F83510CCE04E
:103D8000206847612046FEF77DFC94F85C203F21C7
:103D900002F01F029140816054E0774A90421BD0AC
:103DA000754B1433984217D0734B2833984213D075
:103DB000714B3C3398420FD06F4B503398420BD02D
:103DC0006D4B6433984207D06B4B7833984203D0E5
:103DD000694B8C3398427DD184F8351084F8345087
:103DE000664B0168A26801EA030E402A73D0802A5C
:103DF00072D00022D4E90378D4E9053142EAD7022F
:103E000042EAD8085C4AD4E9077C48EAD30848EA81
:103E1000D10141EAD701524241EA1C11142341EA7F
:103E20000E01016020681044B0FBF3F08000E065F3
:103E30002046FEF727FC94F85C20012102F01F02C7
:103E4000914041602068B04257D0444918318842BF
:103E500053D0484551D050454FD058454DD0424998
:103E60001831884249D040493031884245D03E49D6
:103E70004831884241D03D4988423ED03B491831C3
:103E800088423AD039493031884236D037494831B2
:103E9000884232D03549603188422ED0334978315A
:103EA00088422AD031499031884226D02F49A83102
:103EB000884222D0304988421FD02F49143188428D
:103EC0001BD02D492831884217D02B493C318842DC
:103ED00013D002E01DE017E018E027495031884276
:103EE0000BD025496431884207D023497831884274
:103EF00003D021498C31884229D12046FEF71CFC91
:103F0000A06880280CD00CE0102273E74FF48042A8
:103F100070E74021616584F835800120BDE8F09F9D
:103F20006560216E20790860D4E9190141606068FC
:103F3000401E072808D82046FEF74CFCE06E0560BE
:103F4000D4E91C01416002E0E56625676567012050
:103F5000656584F835000020E0E7000010000240AD
:103F6000400002405800024070000240100402402D
:103F70003F8010FE0010005C085402580F00FEFF46
:103F80002DE9F84F04008C464FF00000009014D04B
:103F900094F83400012812D094F835500120002103
:103FA00084F83400012D0CD0C0026065012000901F
:103FB00084F834100098BDE8F88F0120FBE7022058
:103FC000F9E78C4D0226206884F83560A8428A4DB6
:103FD00061658A4E8A4FDFF82C82DFF82C92DFF879
:103FE0002CA2DFF82CB226D0A84224D0B04222D096
:103FF000B84220D040451ED048451CD050451AD06C
:10400000584518D08349884215D0824918318842D2
:1040100011D08049303188420DD07E4948318842E4
:1040200009D07C496031884205D07A49783188428C
:1040300001D078499031016821F0010101606146A9
:104040002046FEF7A3FC6B49206888422CD0A8428A
:104050002AD0B04228D0B84226D0404524D0484586
:1040600022D0504520D058451ED06A4A90421BD0DD
:10407000684A1832904217D0664A3032904213D0C4
:10408000644A483290420FD0624A603290420BD06C
:10409000604A7832904207D05E4A9032904203D014
:1040A0005C4AA83290420CD1026822F01E0242F013
:1040B00016020260206C88B12068026842F0080293
:1040C0000BE0026822F00E0242F00A020260206C4D
:1040D00020B12068026842F0040202602068884231
:1040E0004BD0A84249D0B04247D0B84245D0404515
:1040F00043D0484541D050453FD058453DD0454A32
:1041000090423AD0434A1832904236D0414A303237
:10411000904232D03F4A483290422ED03D4A6032DF
:1041200090422AD03B4A7832904226D0394A903287
:10413000904222D0374AA83290421ED0364A90424E
:104140001BD0354A1432904217D0334A283290425D
:1041500013D0314A3C3290420FD02F4A5032904215
:104160000BD02D4A6432904207D02B4A78329042CD
:1041700003D0294A8C3290420DD1206E0268D203BE
:1041800003D5026842F480720260E06E18B10268E2
:1041900042F4807202602068884226D0A84224D06F
:1041A000B04222D0B84220D040451ED048451CD055
:1041B00050451AD0584518D01649884215D015498F
:1041C0001831884211D01349303188420DD011493D
:1041D0004831884209D00F496031884205D00D49E5
:1041E0007831884201D00B499031016841F00101DA
:1041F0000160DFE61000024028000240400002405B
:10420000580002407000024088000240A0000240B6
:10421000B8000240100402400854025870B5044629
:1042200000F07EF90546601C02D004480078044482
:1042300000F076F9401BA042FAD370BD200E002496
:104240000248016841F001010160704720040058F4
:10425000144810B5FEF7AAFC12481349C278037936
:104260004479120442EA0322224342F317024A60CD
:104270008279C379047A100440EA032020430023A2
:1042800040F31700086009481A46006807F02CFC44
:104290000748002304491A46091D0068BDE810407C
:1042A00007F022BCACA0002420160024B016002485
:1042B000B41600244FF0B04110B5D1F88820024266
:1042C00003D0C1F88800FFF7C3FF10BD2DE9F84FF8
:1042D00003247D4D00234FF001094FF0B04B4FF008
:1042E0000F0AE9E009FA03F73A4076D00E7906F0B2
:1042F0000306012E01D0022E18D1D0F808C04FEAD3
:10430000430ECE6804FA0EF82CEA080C06FA0EF6F4
:1043100046EA0C068660D0F804C00E792CEA070C39
:10432000C6F300169E4046EA0C0646600E79F64338
:10433000B6070BD0C6684FEA43088F6804FA08FC3A
:1043400026EA0C0607FA08F73743C7600E7906F02D
:104350000306022E12D1DE080F694FEA437C00EB00
:104360008606B646366A4FEADC6C0AFA0CF807FA9B
:104370000CF726EA08063743CEF820700F79066856
:104380004FEA430807F0030704FA08FC07FA08F7A6
:1043900026EA0C06374307604E6816F4403F1CD0EF
:1043A0004A4E376847F00207376036689F0706F0C5
:1043B0000206009623F0030606F1B046B6463F0F0C
:1043C000D6F80864DFF808810AFA07FC404526EAB7
:1043D0000C0603D14FF0000C41E06CE0DFF8F4C0B4
:1043E000604502D14FF0010C39E0DFF8ECC06045C8
:1043F00002D14FF0020C32E0DFF8E0C0604502D19C
:104400004FF0030C2BE0DFF8D8C0604502D14FF02D
:10441000040C24E0DFF8CCC0604502D14FF0050C5D
:104420001DE0DFF8C4C0604502D14FF0060C16E075
:10443000DFF8B8C0604502D14FF0070C0FE0DFF89D
:10444000B0C0604502D14FF0080C08E0DFF8A4C00E
:10445000604502D14FF0090C01E04FF00A0C0CFA54
:1044600007FC4CEA060CCEF808C44F68DBF8006085
:10447000FF0226EA020600D516435F46CBF800602D
:10448000D1F804C0DBF804605FEA8C2C26EA02064F
:1044900000D516437E606E684F6826EA0206BF03A9
:1044A00000D516436E602E684F6826EA0206FF03A9
:1044B00000D516432E605B1C0A6832FA03F67FF4BF
:1044C00011AFBDE8F88F000080000058F444025896
:1044D000000002580004025800080258000C02585C
:1044E000001002580014025800180258001C02580C
:1044F0000020025800240258426921EA02030A40BF
:1045000043EA0241816170470AB181617047090441
:10451000FBE7000001480068000C70470010005CD9
:104520000148806870470000200E0024024881681E
:104530000278114481607047200E0024032010B5DA
:1045400000F0D4F800F0B6FB0F4A10491468136865
:10455000C4F3032203F00F038A5CC95C02F01F025C
:1045600001F01F01D0400A4A20FA01F11160094907
:1045700008600F2000F010F808B1012010BD00F015
:1045800079F8002010BD000018440258B0B310089C
:10459000300E00242C0E002470B50D4D04462878F2
:1045A000A0B14FF47A71B1FBF0F00A490968B1FB90
:1045B000F0F001F050FB48B9102C07D20022214640
:1045C000501E00F073F800206C6070BD012070BDBB
:1045D000200E00242C0E0024F0B5154C4378211D2C
:1045E0000A1D23600378F3B143680B60057BC67A2C
:1045F000817A437B2D07847B45EA0665C77B90F86B
:1046000009C0067A90F800E045EAC14040EA8340DC
:1046100040EA444040EA074040EA0C2040EA4600B5
:1046200040EA0E0001E0002008601060F0BD0000CC
:1046300098ED00E0BFF35F8F044800210368034A50
:1046400023F48033036070321160704724ED00E082
:10465000074A40F00100064970321060086840F4D3
:1046600080300860BFF34F8FBFF36F8F704700003B
:1046700024ED00E0054808B5016841F00201016041
:10468000006800F00200009008BD0000F4440258E9
:10469000002809DB410900F01F028900012001F117
:1046A000E0219040C1F80001704700000E4BF0B4CB
:1046B0001B680D46C3F30223C3F10706042E00D97D
:1046C0000426191D072901D2002300E0DB1E012466
:1046D00004FA06F19C40491E2940641E994014408A
:1046E0002143F0BC02F0DCBF0CED00E0064900F015
:1046F000070210B54FF6FF040868044B204040EA5B
:1047000002201843086010BD0CED00E00000FA051F
:104710000248016841F08071016070470C480258FE
:1047200010B500F081FA05490968054AC1F3021184
:10473000515C01F01F01C84010BD00002044025828
:10474000B0B31008494930B5484C0B1D0A68143401
:1047500009681D68246802F00303C5F30012C1F361
:104760000531C4F3CC04002914FB02F200EE102A38
:10477000F8EE400A75D03F4A9FED3D1AB7EE000AA9
:104780006BB1DFED3D1A012B01D0022B64D002EE9C
:10479000101A1168F8EE422A81EEA22A21E0334C69
:1047A000283C23689B0612D5344B246801EE901AEE
:1047B0001168C4F3C104F8EE612AE34001EE903AB7
:1047C000C1F30801F8EE611A81EEA22A0BE001EEB6
:1047D000901ADFED2B2A00BFF8EE611A116882EE05
:1047E000A12AC1F3080101EE901A1168F8EE611ACE
:1047F00040EE811A71EE800A62EE200AC1F3462172
:1048000001EE101AB8EE411A31EE001AC0EE811A0C
:10481000BCEEE11A80ED001A1168C1F3064101EE09
:10482000101AB8EE411A31EE001AC0EE811ABCEE31
:10483000E11A80ED011A1168C1F3066101EE101A48
:10484000B8EE411A31EE000A80EE801ABCEEC10AC1
:1048500080ED020A30BD04E001EE901ADFED092A76
:10486000BAE70021016041608160F3E72844025803
:1048700000000039384402580024744A0090D003E4
:104880000024744C20BCBE4B494930B5484C0B1D2C
:104890000A681C3409681D68246802F00303C5F324
:1048A0000022C1F30551C4F3CC04002914FB02F229
:1048B00000EE102AF8EE400A75D03F4A9FED3D1AEF
:1048C000B7EE000A6BB1DFED3D1A012B01D0022BD0
:1048D00064D002EE101A1168F8EE422A81EEA22A84
:1048E00021E0334C283C23689B0612D5344B2468C6
:1048F00001EE901A1168C4F3C104F8EE612AE34096
:1049000001EE903AC1F30801F8EE611A81EEA22A95
:104910000BE001EE901ADFED2B2A00BFF8EE611AD2
:10492000116882EEA12AC1F3080101EE901A116804
:10493000F8EE611A40EE811A71EE800A62EE200AEA
:10494000C1F3462101EE101AB8EE411A31EE001AF9
:10495000C0EE811ABCEEE11A80ED001A1168C1F3B5
:10496000064101EE101AB8EE411A31EE001AC0EEFF
:10497000811ABCEEE11A80ED011A1168C1F30661DB
:1049800001EE101AB8EE411A31EE000A80EE801ADC
:10499000BCEEC10A80ED020A30BD04E001EE901ABF
:1049A000DFED092ABAE70021016041608160F3E789
:1049B0002844025800000039404402580024744A38
:1049C0000090D0030024744C20BCBE4B2DE9F05F56
:1049D00004000F467ED0DFF83882D8F8000000F0DF
:1049E0000F00B8420CD2D8F8001021F00F01394363
:1049F000C8F80010D8F8000000F00F00B84269D1E4
:104A00002078844D40070AD52069296801F070019B
:104A1000884204D9296821F0700101432960207877
:104A20007C4E361D00070AD56069316801F07001BF
:104A3000884204D9316821F0700101433160207847
:104A4000C0060AD5A069316801F4E061884204D942
:104A5000316821F4E061014331602078DFF8B4B1BE
:104A600080060BF1080B0CD5E1695846DBF80020F5
:104A700002F07002914204D9026822F070020A43E7
:104A80000260207880070AD5E068296801F00F01EC
:104A9000884204D9296821F00F0101432960207858
:104AA000C0073ED05B49A2682868183920F47060BE
:104AB000104328606068022818D0032819D00968BC
:104AC000012819D0490700294ADADFF848A1AAF1DC
:104AD000080A00E044E0DAF8002022F0070202436E
:104AE000CAF80020FFF71CFD814612E0096889031F
:104AF000E9E709688901E6E7C905E4E7FFF710FD82
:104B0000A0EB090141F28830814202D90320BDE8BF
:104B1000F09F6168DAF8000000F03800B0EBC10FD8
:104B2000ECD1207880070AD5E068296801F00F01F0
:104B3000884204D2296821F00F0101432960D8F886
:104B40000010404601F00F01B9420BD9016821F075
:104B50000F0139430160006800F00F00B84201D036
:104B60000120D4E7207840070AD52069296801F0A0
:104B70007001884204D2296821F070010143296044
:104B8000207800070AD56069316801F07001884219
:104B900004D2316821F07001014331602078C006F1
:104BA0000AD5A069316801F4E061884204D2316815
:104BB00021F4E06101433160207880060CD5E16981
:104BC0005846DBF8002002F07002914204D20268DD
:104BD00022F070020A43026000F06CF80E492A6865
:104BE0002B68C2F3032203F00F038A5CC95C02F056
:104BF0001F0201F01F01D040084A20FA01F11160A4
:104C00000749086007480068BDE8F05FFFF7C4BCCB
:104C10000020005218440258B0B31008300E00248F
:104C20002C0E0024240E002430B500F043F80B4A6B
:104C30000B490C4B15681468C5F3032204F00F04EC
:104C40008A5C095D02F01F0201F01F01D040064A94
:104C500020FA01F119601060084630BD184402586E
:104C6000B0B31008300E00242C0E002400B5FFF75E
:104C7000DBFF05490968054AC1F30211515C01F0E7
:104C80001F01C84000BD00001C440258B0B310080A
:104C900000B5FFF7C9FF05490968054AC1F30221BC
:104CA000515C01F01F01C84000BD00001C440258C7
:104CB000B0B31008454970B545480968434B103BEF
:104CC00011F0380208D00111082A03D0102A0BD0A5
:104CD000182A0BD0084670BD19688906FBD51968DB
:104CE000C1F3C101C84070BD3A4870BD3749374D66
:104CF00018310C1D24350A68096826682D6802F0F1
:104D0000030406F00102C1F30511C5F3CC0515FB40
:104D100002F200EE102AB8EE400AE9B32F4ADFEDA6
:104D20002E0AB7EE001A6CB1DFED2D1A012C01D05E
:104D3000022C43D002EE101A1068F8EE422A81EEDF
:104D4000A22A1EE01C68A40611D51B6801EE901A69
:104D50001168C3F3C103F8EE612AD84001EE900A4E
:104D6000C1F30800F8EE611A81EEA22A0BE001EE11
:104D7000901ADFED1C2A00BFF8EE611A106882EE6F
:104D8000A12AC0F3080001EE900AF8EE611A40EE85
:104D9000201A31EE810A00E015E022EE000A1068C8
:104DA000C0F34620401C00EE900AF8EE600A80EE48
:104DB000201ABCEEC10A10EE100A70BD01EE901A66
:104DC000DFED092AD8E7002070BD0000104402582A
:104DD0000090D00340787D01000000393044025833
:104DE0000024744A0024744C20BCBE4B2DE9F05FB3
:104DF00004007DD0FF4F2078FE4D1837DFF8F49384
:104E0000103DC00748D0D9F80000396800F03800DC
:104E1000102815D0182803D101F0030002280FD064
:104E20006068B0F5803F12D010B1B0F5A02F18D057
:104E3000286820F480302860286820F4802009E069
:104E40002868800328D560680028D2D024E028682C
:104E500040F480302860606888B1FFF761FB064647
:104E600009E0286840F480202860F0E7FFF758FB4D
:104E7000801B64286FD828688003F7D50CE0FFF703
:104E80004FFB064605E000BFFFF74AFB801B642886
:104E9000F0D828688003F7D4207841F20308D54E73
:104EA0000C3E800769D5D9F80000396810F0380049
:104EB0000ED0182801D188070AD0E06890B329687D
:104EC00021F0190101432960FFF72AFB824631E0F6
:104ED0002868400702D5E06800288AD0E168286881
:104EE00020F0190008432860FFF71AFB824607E00C
:104EF000DFE000BFFFF714FBA0EB0A000228B9D8DF
:104F000028684007F6D500BFFFF704FB40451BD8D3
:104F10002069402812D0316821F47C3141EA003008
:104F200030602AE018E000BFFFF7FAFAA0EB0A00B1
:104F300002289FD828684007F6D5E5E7306820F4B6
:104F40007C3040F40030EBE7207C316821F0FE41FA
:104F500041EA0060E4E70DE1286820F001002860E4
:104F6000FFF7DEFA824605E0FFF7DAFAA0EB0A0067
:104F700002288DD828684007F6D42078C0065DD571
:104F8000D9F80000DFF86CB2396800F03800ABF1F6
:104F9000040B082810D0182803D101F003000128C1
:104FA0000AD0E0690028286838D040F080002860E6
:104FB000FFF7B6FA824623E02868C00523D5E069EA
:104FC000802876D11FE0206A202821D0316821F086
:104FD000F84141EA8060306030E000BF94F8201072
:104FE000DBF8002022F07C5242EA0161CBF800108D
:104FF00024E000BFFFF794FAA0EB0A00022898D83B
:105000002868C005F6D5FFF785FA4045E6D8DAE707
:10501000306820F0F84040F08040DCE720F080006D
:105020002860FFF77DFA064605E000BFFFF778FA33
:10503000801B02289DD82868C005F7D42078000777
:1050400029D56C486169643000298046016811D017
:1050500041F001010160FFF763FA064605E000BF79
:10506000FFF75EFA801B0228C9D8D8F80000800735
:10507000F6D510E021F001010160FFF751FA064674
:1050800005E000BFFFF74CFA801B022872D8D8F861
:1050900000008007F6D42078800623D5A069002878
:1050A000286810D040F480502860FFF739FA06468F
:1050B00005E02CE1FFF734FA801B02285AD8286853
:1050C0008004F7D50EE020F480502860FFF728FA1E
:1050D000064604E0FFF724FA801B02284AD8286815
:1050E0008004F7D4207840074FD5DFF80C81D8F83A
:1050F000001041F48071C8F80010FFF711FA06465D
:1051000005E000BFFFF70CFA801B642832D8D8F8FE
:105110000000C005F6D5374EA068603601280AD0D9
:1051200008B1052813D0306820F0010030603068E5
:1051300020F0040002E0306840F001003060A06818
:1051400041F2883A90B1FFF7EBF980460AE0306807
:1051500040F004003060EEE7FFF7E2F9A0EB080151
:10516000514507D830688007F6D50EE0FFF7D8F92B
:10517000804607E084E000BFFFF7D2F9A0EB08010A
:1051800051457DD830688007F6D4606AB0B3DFF847
:105190006480D9F8001008F12008C1F3C201032986
:1051A0006FD00228286820F08070286003D0FFF7B5
:1051B000B7F9044680E0FFF7B3F9064605E000BF03
:1051C000FFF7AEF9801B022873D828688001F7D456
:1051D000E26A40F2F331386854F8283F884340EAE5
:1051E000021018433860217B4FF4FE0C22894FF0E7
:1051F000FE4704E0104402580048025889E0208A23
:105200004902521E267DA1F5007189B2401EC2F3EB
:1052100008021143761E0CEA004001433E4807EAAB
:10522000066211433C4AC8F800100832016821F0B8
:105230000101016011684FF6F876236AB14341EA33
:10524000C30111600168A26921F00C0111430160E2
:105250000168E26921F0020111430160016841F433
:1052600080310160016841F400310160016841F45E
:1052700080210160016841F001010160286801E0BE
:1052800017E01DE040F080702860FFF749F9044600
:1052900005E000BFFFF744F9001B022809D8286881
:1052A0008001F7D535E000BFFFF73AF9001B02286F
:1052B00002D90320BDE8F09F28688001F4D428E0DB
:1052C00039680128D8F8000021D0A26A01F0030350
:1052D00093421CD1E26AC1F305118A4217D1216BB6
:1052E000C0F30802491E8A4211D1616BC0F3462205
:1052F000491E91420BD1A16BC0F30642491E914257
:1053000005D1E16BC0F30660491E814201D0012046
:10531000D0E70020CEE700002C4402587047000080
:105320002DE9F0470168044600200F69D1F8149078
:10533000D1F8088094F8816007EA090515F0600F3C
:1053400008D1690706D5616F20468847216F20463E
:105350008847012005F04101012905D1690703D4DF
:10536000216F20468847012005F02201022906D13D
:10537000690704D4616F2046BDE8F047084700285C
:1053800057D128074FF0010A68D5206818F4404F1C
:10539000826942F0080181612068816941F0100151
:1053A00081612068816941F400618161206801693F
:1053B00021F00801016109D0042E04D0A06FC0695A
:1053C00020B1032E3ED0E06FC069A0BB206880688A
:1053D00010F4404F1ED021E0E0680F2806D9206865
:1053E000616E006B0860606E001D0DE0616E072845
:1053F000206804D9008E0880606E801C04E090F85C
:1054000030000870606E401C6066B4F86A00401E90
:10541000A4F86A00B4F86A000028DDD1204601F043
:10542000C1F984F881A0D4F8840020B12046FFF7A8
:1054300075FFBDE8F087FFE7052E07D0042E09D0E1
:10544000032EF6D1204600F0F7FBF2E7204600F0ED
:10545000F4FBEEE7204600F05DF9EAE75FEA095069
:1054600007D5380705D52068816941F4006181615D
:10547000DFE715F4587FDCD068060AD5D4F884003D
:1054800040F00400C4F884002068816941F04001C4
:105490008161A8050AD5D4F8840040F00100C4F861
:1054A00084002068816941F400718161E8050AD5B2
:1054B000D4F8840040F00800C4F8840020688169B2
:1054C00041F480718161A8060AD5D4F8840040F0C7
:1054D0008000C4F884002068816941F02001816166
:1054E000D4F884000028A4D0206840F26B32C8F3BE
:1054F00081310368032923F00101016020680169FB
:1055000021EA0201016102D084F881A08EE72068BF
:10551000104D816821F440418160E06F50B1056514
:10552000E06FFDF79FFD28B1D4F8840040F0400003
:10553000C4F88400A06F002887D00565A06FFDF730
:1055400091FD002885D0D4F8840040F04000C4F8D4
:1055500084006EE7616800082DE9F047040029D057
:10556000504A4FF0000920684F4B504D9042C4F80C
:10557000289006D0984204D0A84202D0E1680F29B2
:1055800018D8E1684FF0010AE76B0831C9080AEB47
:1055900057167143904205D0984203D0A84201D0DB
:1055A000082907D8904203D0984201D0A84204D1DC
:1055B000102902D90120BDE8F08794F8810020B9B4
:1055C000204684F8809000F073F8022084F881006F
:1055D0002068016821F0010101602168A0698A68E2
:1055E000B0F1806F02F4F81010D16268B2F5800F4C
:1055F00001D01AB10AE0A26B22B107E0A26BB2F1AE
:10560000805F03D10A6842F480520A60A66AE169A9
:10561000E26B25683143E368024311431943A960F3
:10562000D4E90D02D4E90571636A25691843D4F8F9
:1056300020C00A43266810432843A56D3843D4E9A7
:105640000182D4E9123140EA0C0040EA0800084324
:10565000104318432843F060606868B92068816887
:1056600021F4C05141F4006181602068816821F417
:10567000C06141F4806181602068016D21F0010109
:1056800001656068400206D52068626DC16821F03E
:1056900000411143C160C4F8849084F881A00020C7
:1056A00089E700000030014000380040003C004025
:1056B00010B586B0044614216846FBF707FA124974
:1056C000206888421ED11148016841F48051016070
:1056D000006800F4805005900C481038016841F0D3
:1056E0000101016000680522E02100F00100059041
:1056F00002200290CDE90010CDE90302044869467A
:10570000FEF7E4FD06B010BD00300140F044025841
:1057100000000258704770472DE9FF4F83B090F8A2
:10572000801004461D4600209346109F01290190D9
:1057300014D04FF0010A84F880A0FEF7F1FE8046F5
:1057400094F881006368002101282E464FF48002FE
:105750000CD0934208D1A36833B903E0022007B00C
:10576000BDE8F08F042801D0022037E0049898B3F8
:10577000BBF1000F31D07DB394F88100042802D032
:10578000052084F8810089460846C4F88410C4F8CE
:1057900064B0A4F86A50A4F868500499E165A4F8CC
:1057A0006250A4F8605020676067206841686FF31A
:1057B0000F01294341602068016841F00101016047
:1057C0006068904204D12068016841F40071016072
:1057D000E0680F2835D846E0FFE7012084F8801004
:1057E000BDE72068416989070DD565B1E16D09689C
:1057F0000162E06D001DE065B4F86200401EA4F88F
:105800006200B4F8625048F208022068416911420F
:105810000DD066B1006B616E0860606E001D606641
:10582000B4F86A00401EA4F86A00B4F86A60FEF793
:1058300077FEA0EB0800B84202D3781C01D004E048
:105840001FB155EA0600CCD1DCE0204600F0AAFFEB
:10585000D4F8842084F8809042F48071C4F88410D5
:1058600084F881A05DE007284AD8C8E02068416933
:1058700089071BD5D5B1012D0BD9E16B49B1E16D7C
:1058800009680162E06D001DE065B4F86200801EE9
:1058900008E0E16D09880184E06D801CE065B4F8E2
:1058A0006200401EA4F86200B4F8625020684169AA
:1058B00011F4604F1AD0CEB14169090409D5006BCB
:1058C000616E0860606E001D6066B4F86A00801E3C
:1058D00008E0008E616E0880606E801C6066B4F81F
:1058E0006A00401EA4F86A00B4F86A60FEF718FE69
:1058F000A0EB0800B84202D3781C01D004E01FB12D
:1059000055EA0600B2D17DE0204600F04BFFD4F806
:10591000842084F8809042F48070C4F8840084F875
:1059200081A003201BE72068416989072BD555B367
:10593000032D0CD9E16B40290BD9E16D0968016297
:10594000E06D001DE065B4F86200001F17E0012D56
:105950000BD9E16B49B1E16D09880184E06D801CD0
:10596000E065B4F86200801E09E0E16D097880F816
:105970002010E06D401CE065B4F86200401EA4F801
:105980006200B4F862502068416911F4604F2BD076
:1059900056B34169090409D5006B616E0860606EF9
:1059A000001D6066B4F86A00001F19E0416901F447
:1059B000C041B1F5005F09D9008E616E0880606E4C
:1059C000801C6066B4F86A00801E09E090F8300020
:1059D000616E0870606E401C6066B4F86A00401E1C
:1059E000A4F86A00B4F86A60FEF79AFDA0EB08001C
:1059F000B84202D3781C02D027E7002FFCD055EA2A
:105A0000060090D10022434608212046009700F06E
:105A10007CFF28B1D4F8840040F02000C4F8840052
:105A2000204600F0BFFE84F881A0D4F8841084F8EA
:105A3000809009B1012092E6019890E62DE9F041AD
:105A4000044690F880001E46012810D094F881008A
:105A5000012763684FF4800801284FF0000584F89F
:105A600080700BD0434507D1A3682BB902E0022018
:105A7000BDE8F081042801D0022030E071B36AB3A0
:105A800066B394F88100042802D0052084F88100D0
:105A90004FF48040C4F88450E165A4F86060A4F835
:105AA00062606266A4F86860A4F86A60256765674A
:105AB00021688A6822F440428A60E1680F2903D98C
:105AC000E26F9269824209D107294FF4005C09D93B
:105AD000E26F936963452AD0834228D0012084F87D
:105AE0008050C5E7A16F8A69624505D1B4F862208C
:105AF000521C5208A4F862208969814205D1B4F889
:105B00006210C91C8908A4F86210E16F8A696245B5
:105B100005D1B4F86A20521C5208A4F86A20896999
:105B2000814219D1B4F86A00C01C800812E00F2924
:105B300012D8A16F8969814205D1B4F86210491C5D
:105B40004908A4F862109169814205D1B4F86A004D
:105B5000401C4008A4F86A0094F88100E16F042812
:105B600013D0304808643048E16FC863E06F2F49B4
:105B7000C164E06F0565B4F86A302168626EE06F59
:105B80003031FEF7FDF9D8B904E029480864294806
:105B9000E16FEAE72068816841F480418160A06F8D
:105BA0000564A06FC563A06FC564A06F0565B4F8F8
:105BB00062302268E16DA06F2032FEF7E1F958B142
:105BC000D4F88410384684F8805041F01001C4F8AD
:105BD000841084F881704BE7A06FC069B0F5807FB6
:105BE000206841686FF30F0100D0314341602068A5
:105BF000816841F4004181602068016941F4587175
:105C000001612068016841F0010101606068404560
:105C100004D12068016841F400710160284684F8CD
:105C2000805025E7B1680008E36800087B68000839
:105C3000A7680008BB6800087047704770470428D1
:105C40004FF0E020016903D021F0040101617047A9
:105C500041F00401FAE7401EB0F1807F10B501D396
:105C6000012010BD4FF0E02460610F21601701F0AA
:105C700017FD0020A0610721216110BD704770470A
:105C800070477047704700002DE9F04103680446F3
:105C9000002540F60F06D86919689A68304209D184
:105CA00086067DD501F0200602F080573E4377D06E
:105CB000216F62E1C64EC74F16400F4037436FD089
:105CC000C70709D0CF0507D501271F62D4F88C304C
:105CD00043F00103C4F88C3083070AD5D30708D0FA
:105CE000276802233B62D4F88C3043F00403C4F8E5
:105CF0008C3043070AD5D30708D0276804233B62BA
:105D0000D4F88C3043F00203C4F88C3003070CD570
:105D100001F02003334308D0266808233362D4F807
:105D20008C3043F00803C4F88C3003050BD54B01CD
:105D300009D526684FF400633362D4F88C3043F001
:105D40002003C4F88C30D4F88C30002B3AD0800675
:105D500009D501F0200002F08051084303D0216FE3
:105D600009B1204688472168D4F88C008968490623
:105D700002D410F0280F27D0204600F04FFF2068F3
:105D8000806840061BD52068083050E8001F21F0CD
:105D9000400140E80012002AF5D1E06F78B100E040
:105DA00018E08D490165E06FFDF75CF9002809D026
:105DB000E06F016D00E02046BDE8F0410847204655
:105DC000FFF760FFBDE8F0812046FFF75BFFC4F8F6
:105DD0008C50F7E7E76E2026012F7CD1C7067AD5D5
:105DE000CF0678D5102018622068806840067DD5DF
:105DF000E16F7A4A0868904234D0784A183290426B
:105E000030D0764A303290422CD0744A4832904298
:105E100028D0724A6032904224D0704A7832904240
:105E200020D06E4A903290421CD06C4AA8329042E8
:105E300018D06B4A904215D0694A1832904211D05E
:105E4000674A303290420DD0654A4832904209D0BC
:105E5000634A6032904205D0614A7832904201D064
:105E60005F4A903240680004000CABD0B4F85C206C
:105E70008242A7D9A4F85E00C869B0F5807F2ED011
:105E8000216851E8000F20F4807041E80002002AE8
:105E9000F6D12068083050E8001F21F0010140E8E9
:105EA0000012002AF5D12068083050E8001F21F0C8
:105EB000400140E80012002AF5D1C4F88860E56688
:105EC000216851E8000F20F0100041E80002002A8C
:105ED000F6D1E06F01E03BE008E0FCF713FFB4F817
:105EE0005C00B4F85E10401A81B22DE0B4F85C009A
:105EF000B4F85E10B4F85E20401A81B2002AB4D023
:105F00000029B2D0226852E8000F20F4907042E8D5
:105F10000003002BF6D1334B226802F1080252E84D
:105F2000000F00EA030042E80007002FF4D1C4F894
:105F30008860E5662567226852E8000F20F01000AF
:105F400042E80003002BF6D12046FFF797FE39E721
:105F5000C70209D5570207D54FF4801018622046B2
:105F6000BDE8F041FFF78DBE03060AD501F08003BE
:105F700002F40002134304D0616F00297FF41BAFC9
:105F800020E7420611D54A060FD52046026852E89E
:105F9000001F21F0400142E80013002BF6D1C0F8A9
:105FA0008460456700F0A7F90CE7020206D54A00B5
:105FB00004D52046BDE8F041FFF762BEC001C6D55A
:105FC0000029C4DA2046BDE8F041FFF758BE0000C2
:105FD0000100001020010004096C000810000240BC
:105FE00010040240FEFFFFEF10B5040003D0D4F808
:105FF000840010B107E0012010BD002084F880006B
:10600000204600F027F82420C4F8840020680168A6
:1060100021F001010160204601F042F80128EBD097
:10602000A06A10B1204600F05BFD2068416821F4B1
:10603000904141602068816821F02A0181602068D8
:10604000016841F0010101602046BDE8104000F008
:10605000ABBD00002DE9F0473A490746006802252C
:10606000394C86B088424FF001084FF480694FF0F8
:10607000070633D134481030016841F01001016047
:10608000006800F010000590206840F001002060DA
:10609000206800F001000590206840F001002060B9
:1060A000206829028DE8220100F00100DFF89CA0A1
:1060B00069460395CDE904605046FEF707F9694645
:1060C0005046CDF800900496FEF700F92520FEF723
:1060D000DFFA032225201146FEF7E8FA1C4839684A
:1060E00081422CD118480830016841F480210160B8
:1060F000006800F480200590206840F002002060D5
:10610000206800F002000590206840F00200206046
:1061100020686946CDF8009000F002000D4CCDE9F2
:1061200001580395CDE904602046FEF7CFF84FF4FF
:1061300000606946049600902046FEF7C7F806B056
:10614000BDE8F08700100140E0440258000002580A
:10615000004800400004025870B4D0F88830202B6A
:1061600020D1E1B1DAB190F88030012B1AD0036868
:1061700001260D4D002480F88060C466AB420BD030
:106180005B681B0208D5046854E8003F43F0806355
:1061900044E80035002DF6D170BC01F057B901205C
:1061A00070BC70470220FBE7000C005870B51D4919
:1061B000054600681C4C884221D16188080417D428
:1061C00004F101024FF000004B04127804D50A2AB2
:1061D0000DD141F400400AE00D2A1ED0134EC1F348
:1061E0000D03491C89B2C729F254618000D960802F
:1061F00001220D490D48491CC830FFF7ADFF0C497D
:10620000286888420CD10120207007490422BDE88B
:1062100070400848091DFFF79FBF41F48040E6E742
:1062200070BD000000100140340E0024B41F002493
:10623000004800400C2100242DE9F8430446D0F822
:1062400084001F4616460D46202852D1DDB1D6B136
:1062500094F8800001284CD0012084F8800021228D
:106260004FF00008C4F88C80C4F884201834FEF77E
:1062700057F9814654F8100CA687E687183CB0F50C
:10628000805F03D004E00120BDE8F883206920B1DD
:106290002E46002584F8808010E00026FAE7802151
:1062A000204601F05FF9B8B9C6B116F8010B2168B4
:1062B0008862B4F85600401EA4F85600B4F85600A0
:1062C0004B464FF0000200970028E8D14FF0400104
:1062D000204601F047F938B10320D5E735F8020B25
:1062E0002168C0F30800E3E72020C4F88400002000
:1062F000CAE70220C8E770472DE9F0411D4C05466A
:1063000030200F46207060702846FAF741FB4FF4AA
:106310007A76294682B218483346FFF78DFF384611
:1063200002F0A2FE15480178012918D10021017060
:106330001348042233462146FFF77EFF012002F076
:1063400093FE21780FA0FAF783F961780DA0FAF790
:106350007FF920784F280BD060784B2808D005496A
:10636000042207483346FFF767FF0020BDE8F081AD
:106370000120FBE7380E00240C210024340E0024F9
:106380007C2000242563000070B500264FF41640E1
:1063900004F0D4FD4FF4FA75284602F065FE5DA0C6
:1063A000FAF756F95DA02946FFF7A6FF5D4C0028D5
:1063B0007DD0012220460221FEF7A6F800222046C9
:1063C0000121FEF7A1F858A0FAF742F958A0FAF710
:1063D0003FF95AA02946FFF78FFF002874D000220A
:1063E00020460221FEF790F8012220461146FEF7D2
:1063F0008BF84DA0FAF72CF955A0FAF729F957A018
:106400002946FFF779FF00285ED0002220460221AE
:10641000FEF77AF8012220461146FEF775F842A0F1
:10642000FAF716F953A0FAF713F956A02946FFF721
:1064300063FF002848D0012220460221FEF764F8BD
:10644000002220460121FEF75FF837A0FAF700F995
:1064500050A0FAF7FDF852A02946FFF74DFF00289B
:1064600032D0002220460221FEF74EF801222046BB
:106470001146FEF749F82CA0FAF7EAF80022204668
:106480000821FEF741F84BA0FAF7E2F84CA02946A4
:10649000FFF732FF58B1012220460221FEF734F8FF
:1064A000002220460121FEF72FF81FA000E00BE09C
:1064B000FAF7CEF845A0FAF7CBF846A02946FFF741
:1064C0001BFF0128064613D045A0FAF7C1F80122A8
:1064D00020460221FEF718F8012220461146FEF759
:1064E00013F8002220460821FEF70EF8304670BD52
:1064F00043A0FAF7ADF8002220460221FEF704F887
:10650000002220460121FDF7FFFF4FF4E13004F0A7
:1065100015FDE6E74154B2E2CAD4200041540D0A09
:106520000000000000040258B3C9B9A60D0A00001B
:10653000C9E8D6C3C0B6D1C0C3FB200041542B4E1E
:10654000414D453D6563675F626C75650D0A0000EE
:10655000C9E8D6C3B2A8CCD8C2CA200041542B5532
:106560004152543D3131353230302C312C300D0A0E
:1065700000000000C9E8D6C3C1ACBDD3B7BDCABDD9
:106580002000000041542B434D4F44453D310D0A3E
:1065900000000000C9E8D6C3C3DCC2EB2000000045
:1065A00041542B505357443D2231323334220D0A8B
:1065B00000000000D6F7B4D3C9E8D6C3200000001D
:1065C00041542B524F4C453D300D0A00B8B4CEBB60
:1065D0002000000041542B52455345540D0A000041
:1065E000C8F4C0B6D1C0C1ACBDD3B2BBC9CFC7EB34
:1065F000B6CFB5E7BAF3D6D8C6F40D0A000000004E
:10660000C0B6D1C0C9E8D6C3B3C9B9A60D0A000047
:106610000E4810B586B0016841F0020101600068C3
:1066200002220B4C082100F0020005900120CDE968
:106630000202CDE9001069462046FDF747FE01221F
:1066400020460821FDF760FF06B010BDE044025867
:1066500000040258FEE700000548812108B5054BFB
:10666000054A0068009003F50470FBF72BF908BD9C
:10667000CC16002414EA0024C8B51008034A136895
:106680000A4601460248FAF74DBF0000CC16002426
:1066900024EC00240B480021094B012210B50360B3
:1066A00001714171416102628161FCF7DBFA0028EE
:1066B00004D0BDE8104004A0F9F7CABF10BD000027
:1066C000004C0258901F002443524345455200009D
:1066D000094808B5016841F004010160016801F052
:1066E00004010091016841F080010160006800F040
:1066F0008000009008BD0000E04402582DE9F04100
:1067000018484FF480060725154FB4000021A30058
:10671000C0E9021583611A01C0E90414C0E9072128
:10672000416252008162C16241638163C16301645D
:1067300041648164C164C0E914128165C0E90076D6
:10674000FEF70AFF10B108A0F9F782FF002201212D
:106750002320FDF7ABFFBDE8F0412320FDF798BFF4
:10676000003001409C21002465657200FEE7FEE7D1
:106770000148FEF7D5BD00009C21002401B582B080
:1067800000204FF47A718DF804000123044801AA17
:10679000009102A9FEF7C0FF9DF804000EBD0000A5
:1067A0009C21002410B5026840F26F33516994694E
:1067B00044F0080494610268946944F01004946100
:1067C0000268146824F001041460026814699C4390
:1067D00014610268936823F44043936090F8812029
:1067E000042A0CD08A060AD5D0F8842042F0800210
:1067F000C0F884200268936943F02003936190F805
:106800008120032A0CD04A060AD5D0F8842042F011
:106810000402C0F884200268936943F04003936146
:106820008A050AD5D0F8842042F00102C0F88420FD
:106830000268936943F400739361C9050AD5D0F8DF
:10684000841041F00801C0F8841001688A6942F49C
:1068500080728A610021A0F86210A0F86A1010BD51
:1068600010B5806B00210122A0F86A10A0F8621018
:1068700080F88120FEF752FD10BD10B5846BFCF747
:1068800027FE02280ED02046FFF78CFFD4F8841094
:10689000012041F01001C4F8841084F881002046E2
:1068A000FEF73CFD10BD10B5806BFEF734FF10BD48
:1068B00010B5806BFFF7C2F910BD10B5806B90F872
:1068C0008110072909D0C16FC969B1F5807F05D052
:1068D0000068016941F00801016110BDFEF71AFF6F
:1068E00010BD10B5806B90F88110072909D0816F19
:1068F000C969B1F5807F05D00068016941F00801E0
:10690000016110BDFFF799F910BD2DE9F0419846DE
:1069100016460D460746069C09E0FDF701FEA0EB72
:106920000800A04202D3601C01D00BE054B13868CB
:10693000406935EA000007D00020B042EDD00020C9
:10694000BDE8F0810320FBE70120F6E710B5214CFC
:106950008EB000220CA9606905F04AF9012833D1F4
:10696000206900220BA905F043F901282CD16068A9
:1069700019A1029003A89DED0C0AB7EEC00A8DED97
:10698000000B9DED0B0AB7EEC00A53EC102BF9F784
:106990006BFE03A8F9F7FCFF82B212484FF47A733A
:1069A00003A9FFF749FC606802900BA09DED0C0A5B
:1069B000B7EEC00A8DED000B9DED0B0AB7EEC00AD5
:1069C00053EC102BF9F744FE07480121FDF794FD25
:1069D0000EB010BDA816002425662C25662C256453
:1069E0000A0000000C2100240004025810B5FDF735
:1069F0009DFD05F02FFA012803D0BDE8104004F0FA
:106A0000D1BE10BD2C48F0B52C4A016841F470018C
:106A10000160106800F00F00072804D2106820F011
:106A20000F00C01D106026490020254C10340B6853
:106A3000244D43F001030B6020600B682B400B607A
:106A4000136803F00F03072B04D9136823F00F0317
:106A5000DB1D13601A4C1C4A18341C4B261D371DB5
:106A60002060174C1A4D28343060261D3860371DC1
:106A700023603B1D35601C1D3A60251D2E1D1860CE
:106A8000331D22602860326018600A680C4B114C7C
:106A900022F4802260330A60186020686FF30F00D0
:106AA000B0F1005F03D20C490120C1F8080143F2A4
:106AB000D2000A490860F0BD88ED00E000200052D5
:106AC000004402587FEDF6EA800201010002020252
:106AD0000000FF010010005C0080005100400052E7
:106AE00090F82810C90706D00168C36A4A6822F4E2
:106AF00000321A434A6090F82810890706D50168C9
:106B0000036B4A6822F480321A434A6090F82810D6
:106B1000490706D50168436B4A6822F480221A436C
:106B20004A6090F82810090706D50168836B4A6807
:106B300022F400421A434A6090F82810C90606D58C
:106B40000168C36B8A6822F480521A438A6090F805
:106B50002810890606D50168036C8A6822F4005261
:106B60001A438A6090F82810490611D50168436CD1
:106B70004A6822F480121A434A60416CB1F5801FC2
:106B800006D10168836C4A6822F4C0021A434A6045
:106B900090F82810090606D50168C26C486820F4F0
:106BA0000020104348607047F8B500260446C0F83E
:106BB0008C60FDF7B5FC054620686FF07E470068E5
:106BC000000708D500222B464FF4001120460097FD
:106BD00000F0C8FC60B92068006840070AD50022B0
:106BE0002B464FF480012046009700F0BBFC08B113
:106BF0000320F8BD2020C4F88400C4F88800E666AD
:106C0000002084F88060F8BD10B5806B0021A0F8EA
:106C10005E10A0F85610FFF735F810BD10B50268E9
:106C200052E8001F21F4907142E80013002BF6D1C6
:106C30000E4B0268083252E8001F194042E8001467
:106C4000002CF6D1C16E012908D1026852E8001F5C
:106C500021F0100142E80013002BF6D10021202280
:106C6000C0F88820C166016710BD0000FEFFFFEF7D
:106C700010B5D0F88810B0F860202229016804D03F
:106C8000886940F00800886110BD496A836D114031
:106C90001980816D891C8165B0F85E10491EA0F8CD
:106CA0005E10B0F85E100029EED1026852E8001FB5
:106CB00021F4907142E80013002BF6D101680831ED
:106CC00051E8002F22F0010241E80023002BF5D10A
:106CD0002022C0F888200021C26E0167012A02D05C
:106CE000FFF764FA10BDC166026852E8001F21F088
:106CF000100142E80013002BF6D10168CA69D243A3
:106D0000D20601D410220A62B0F85C10FEF7B6FF7A
:106D100010BD00002DE9F04704460068C569D0F8B1
:106D200000A0D0F80880D4F88810B4F86060222958
:106D300005D0816941F008018161BDE8F087B4F8B0
:106D400068704FF0000963E02068A16D406A304030
:106D50000880A06D801CA065B4F85E00401EA4F8F9
:106D60005E002068C569690730D0E9070AD05FEA8C
:106D7000CA5107D501210162D4F88C0040F001000E
:106D8000C4F88C00A8070BD55FEAC87008D021684A
:106D900002200862D4F88C0040F00400C4F88C0093
:106DA00068070BD55FEAC87008D021680420086224
:106DB000D4F88C0040F00200C4F88C00D4F88C00A9
:106DC00020B12046FEF75EFFC4F88C90B4F85E0058
:106DD000F0B9216851E8000F20F4807041E800020A
:106DE000002AF6D1264A2068083050E8001F1140DA
:106DF00040E80013002BF6D120214846C4F8881043
:106E0000E16EC4F87090012923D02046FFF7CEF937
:106E10000FB1A80698D4B4F85E0000288DD0B4F85D
:106E20006810814289D92068083050E8001F21F09D
:106E3000805140E80012002AF5D1124820672168ED
:106E400051E8000F40F0200041E80002002AF6D18E
:106E500073E7E066216851E8000F20F0100041E878
:106E60000002002AF6D12068C169C943C90601D4CD
:106E700010210162B4F85C102046FEF7FFFEC7E760
:106E8000FEFFFFEF716C000810B5D0F88810B0F865
:106E900060202229016804D0886940F008008861D8
:106EA00010BD496A836D11401970816D491C81655F
:106EB000B0F85E10491EA0F85E10B0F85E10002910
:106EC000EED1026852E8001F21F4907142E80013ED
:106ED000002BF6D10168083151E8002F22F00102A1
:106EE00041E80023002BF5D12022C0F888200021A2
:106EF000C26E0167012A02D0FFF758F910BDC166C2
:106F0000026852E8001F21F0100142E80013002B34
:106F1000F6D10168CA69D243D20601D410220A62AE
:106F2000B0F85C10FEF7AAFE10BD00002DE9F04796
:106F300004460068C569D0F800A0D0F80880D4F8ED
:106F40008810B4F86060222905D0816941F00801F9
:106F50008161BDE8F087B4F868704FF0000963E024
:106F60002068A16D406A30400870A06D401CA0658B
:106F7000B4F85E00401EA4F85E002068C569690789
:106F800030D0E9070AD05FEACA5107D50121016272
:106F9000D4F88C0040F00100C4F88C00A8070BD591
:106FA0005FEAC87008D0216802200862D4F88C001B
:106FB00040F00400C4F88C0068070BD55FEAC87085
:106FC00008D0216804200862D4F88C0040F0020048
:106FD000C4F88C00D4F88C0020B12046FEF752FE95
:106FE000C4F88C90B4F85E00F0B9216851E8000F45
:106FF00020F4807041E80002002AF6D1264A206879
:10700000083050E8001F114040E80013002BF6D173
:1070100020214846C4F88810E16EC4F87090012918
:1070200023D02046FFF7C2F80FB1A80698D4B4F8D1
:107030005E0000288DD0B4F86810814289D920689C
:10704000083050E8001F21F0805140E80012002A6B
:10705000F5D112482067216851E8000F40F0200068
:1070600041E80002002AF6D173E7E066216851E8A2
:10707000000F20F0100041E80002002AF6D120683D
:10708000C169C943C90601D410210162B4F85C107A
:107090002046FEF7F3FDC7E7FEFFFFEF896E00080D
:1070A0002DE9F04304468068D84E87B0D84B21685C
:1070B000D4E90427D4F81CC010430A68002547EA25
:1070C0000C073843324002430A602068E268416896
:1070D00021F44051114341602268A1699A4201D0D4
:1070E000206A01439768DFF82CC3CB4ECB4807EAF0
:1070F0000C070F4397602168676ACA6A22F00F0283
:107100003A43CA622268B2420ED1006800F03800E9
:10711000182873D047DCB8B3082879D010286FD16D
:1071200078E028287ED17BE0BD498A4209D10068F9
:1071300000F00700062875D2DFE800F0546A6C6E94
:107140007072B8498A4209D1006800F00700062829
:1071500068D2DFE800F0475D5F616365B2498A424B
:1071600009D1006800F0070006285BD2DFE800F0D4
:107170003A5052545658AD498A420BD1006800F03B
:10718000070006284ED200E010E0DFE800F02B41B7
:1071900043454749A6498A420AD1006800F03800B1
:1071A000182839D0B7DD2028BBD13CE001203AE0D7
:1071B000A0498A4209D1006800F00700062831D2B0
:1071C000DFE800F01026282A2C2E9B498A420BD19A
:1071D000006800F00700062824D2DFE800F0031959
:1071E0001B1D1F2100201EE09A421BD18B48001D51
:1071F000006800F00700062814D202E00CE007E067
:1072000010E0DFE800F0030507090B0D02200AE09B
:10721000042008E0082006E0102004E0202002E01E
:10722000402000E080208549DFF814829A42854A98
:107230004FF400434FEA21174FF000064ED11028BB
:107240001AD006DC022809D004280BD008287CD1EB
:107250000DE020283ED0402877D13DE0FDF760FAD0
:10726000014610E06846FDF76DFA01990BE003A8AE
:10727000FDF70AFB049906E01068800605D5106842
:10728000C0F3C100C140002970D0606A676838F857
:10729000102007EB4703B1FBF2F0834255D8B0EB67
:1072A000073F52D8002308461946F9F75AF9024613
:1072B0007808130E120243EA012110183A46714170
:1072C0000023F9F74EF9604AA0F5407191423CD88D
:1072D00021688FE03946D8E71946D6E7D4F81CC0B4
:1072E0004FF6EF799C4546D1082819D005DC58B1F6
:1072F00001280CD0042875D10DE0102815D02028C5
:1073000035D040286ED134E0FDF7B0FC01E0FDF748
:10731000BFFC014610E06846FDF714FA01990BE046
:1073200003A8FDF7B1FA049906E01068800604D5B9
:107330001068C0F3C100C140C1B1636A606838F829
:107340001330B1FBF3F1490000E04BE001EB5001D9
:10735000B1FBF0F0A0F11001494543D84FF6F073AE
:107360002168C0F342021840104343E043E039462D
:10737000E3E71946E1E7082819D005DC58B10128F0
:107380000CD004282ED10DE0102815D020282BD0A9
:10739000402827D12AE0FDF769FC01E0FDF778FCE1
:1073A000014610E06846FDF7CDF901990BE003A80E
:1073B000FDF76AFA049906E01068800604D51068A3
:1073C000C0F3C100C140B1B1636A606838F81330DE
:1073D000B1FBF3F101EB5001B1FBF0F0A0F11001B2
:1073E000494505D9012506E03946EDE71946EBE7A1
:1073F000216880B2C8600120A4F86A00A4F868007F
:1074000028462667666707B0BDE8F083F369FFCFBB
:10741000000C0058FFF4FF110010014054440258C2
:107420000044004000480040004C00400050004034
:107430000014014000780040007C00400090D00320
:1074400098B3100800440258FFFC0F0070B5846820
:10745000002381654FF48055A0F85C20AC42A0F871
:107460005E204FF0FF01036704D1046904BB40F2C2
:10747000FF111DE04FF07F06C4B1B4F1805F1AD058
:10748000A0F860302221C0F88C30C0F88810016864
:10749000083151E8004F44F0010441E80046002E55
:1074A000F5D1416EB1F1005F0CD030E0046934B920
:1074B000A0F86010E6E7016909B13F21F8E7A0F8FC
:1074C0006060DFE7B0F86810914220D88168A94277
:1074D00001D10169C9B11F490167016980F8803094
:1074E00041B1026852E8001F41F4807142E8001384
:1074F000002BF6D10168083151E8002F42F080528C
:1075000041E80023002BF5D121E01349E4E781682D
:10751000A94201D1016979B110490167016980F877
:10752000803059B1016851E8002F42F4907241E86F
:107530000023002BF6D10AE00949EEE7016851E883
:10754000002F42F0200241E80023002BF6D100205A
:1075500070BD00002D6F0008156D0008896E0008D1
:10756000716C00082DE9F0479A4617460E4604460E
:10757000089D4FF000094FF020084CE0681C4AD0ED
:10758000FCF7CEFFA0EB0A00A8422AD84DB3206832
:10759000016849073FD5C069C04300053BD4216855
:1075A0004FF400600862216851E8000F20F4D070A9
:1075B00041E80002002AF6D12068083050E8001F98
:1075C00021F0010140E80012002AF5D1C4F88480BE
:1075D00084F88090C4F88880C4F88C800320BDE8CB
:1075E000F087206850E8001F21F4D07140E80012B5
:1075F000002AF6D12068083050E8001F21F0010170
:1076000040E80012002AF5D1C4F8848084F8809004
:10761000C4F88880E2E72068C06936EA000004D038
:107620000020B842AAD00020D9E70120F9E70000E5
:107630000148FEF729BB00007C2000240148FEF72A
:1076400023BB00000C210024FEE703B40198410095
:10765000009850EAC12018BF04204A0D18BF40F01E
:10766000010040F2FF72B2EB515F08BF40F0020030
:10767000012808BF052002B070474100080218BF6A
:1076800004200A0E18BF40F001004FF07F4232EA9A
:10769000010108BF40F00200012808BF0520704723
:1076A000090700284FEA116104DB00F1E02080F8AF
:1076B0000014704700F00F0000F1E02080F8141D66
:1076C000704700009FED3C0A63E000BF92ED003A76
:1076D00091ED004AD2ED012AD1ED013A04EE030A00
:1076E00092ED022AD1ED021AD2ED030A91ED031AAE
:1076F00091ED044A03EEA20AD2ED043A92ED053A66
:10770000D1ED052A01EE820A92ED062AD1ED061A84
:1077100001EE200A92ED071AD1ED070A04EE230AC2
:10772000D2ED083A91ED084A02EE830AD2ED092A19
:1077300091ED093A01EE820A92ED0A2AD1ED0A1A78
:1077400000EE810A92ED0B1AD1ED0B0A04EE230A2A
:1077500091ED0C4AD1ED0D3A03EE220A92ED0C3A6E
:10776000D2ED0D2A01EE820A92ED0E2AD1ED0F1A0A
:1077700000EE810A91ED0E1AD2ED0F0A403140322F
:10778000103B04EE030A03EEA20A01EE020A01EE28
:10779000A00A102B9AD206E0F1EC010A5B1EB2ECB3
:1077A000011A00EE810A002BF6D1D0ED000A30EE6E
:1077B000800A80ED000A70470000000010B510EE4E
:1077C000104A4FF019406849002200EB44002DEDAB
:1077D000028B884257D8DFED650A14F0004F60EE47
:1077E000200A14BF9FED621A9FED621A71EE200A03
:1077F000FDEEE00A10EE900A00EE900AF8EEE00AC4
:107800009FED5D1A00EEC10A9FED5C1A00EEC10A01
:10781000DFED5B0A9FED5B1A00EE201ADFED5A0ADE
:1078200040EE010A9FED591A594B00F0030100EE9A
:10783000201A21EE000A7B4403EB8103D3ED000AFA
:10784000544B7B4403EB810393ED001A524B41EE02
:10785000000A7B4403EB8101801091ED000A70EE79
:10786000800AEABB00EE100AB8EEC01ADFED4B1A30
:107870009FED4B0ABDEC028B01EE210ABCEEC00A63
:1078800020EE200A10BD4FF0FF40A0431BD04FF068
:10789000CE40B0EB440F82BF9FED420ABDEC028B9D
:1078A00010BD4148B0EB440F28BF012293D2022003
:1078B000F9F78FF914F0004F15D0BDEC028BBDE83D
:1078C000104000F081B814F5000F02BF9FED370A99
:1078D000BDEC028B10BDBDEC028BBDE8104000E09A
:1078E00007E000F065B8BDEC028BBDE8104000F089
:1078F00063B800EBD07359104FF07E5202EBC151C8
:1079000000EE101AA0EB630002EBC05060EE200AFC
:1079100000EE100A20EE208A18EE100A88B118EE48
:10792000100AB0F1FF4F15D018EE100AFFF7A5FEB0
:10793000042808BF00F048F8B0EE480ABDEC028BFE
:1079400010BD0220F9F745F9BDEC028BBDE81040EF
:1079500000F03AB80220F9F73CF9BDEC028BBDE823
:10796000104000F029B800000000501E3BAAB840AB
:10797000000000BF0000003F0070313EF4FD0537FD
:1079800012BB2A3D12BB2A3EFFFFFF3EFFFF7F3F97
:107990004A4010004E4010001E4010000000004BF6
:1079A00000007E4E0000803F0000A0850000000027
:1079B00030EE000A704700009FED020A20EE000A38
:1079C00070470000000000709FED020A20EE000AE0
:1079D00070470000000000102DE9F0478246089D26
:1079E00025F00100EC0803EB80069FED460A5AE003
:1079F00051F8040BD3ED001A00F0FF0C0CF00F0847
:107A00004FEA1C1793ED014A02EB870CC0F30729DC
:107A1000DCED000A02EB880C4FEA191700EEA10A10
:107A20009CED001A02EB870C93ED025ADCED000A84
:107A300009F00F0801EE040A02EB880C93ED033AFB
:107A4000DCED002AC0F30747D3ED044A00EE850AB7
:107A50004FEA171807F00F0702EB880C02EB8707B5
:107A60009CED002A02EE830A000ED3ED053AD7ED15
:107A7000001A4FEA101C00F00F0702EE240A02EB76
:107A80008C0093ED064A90ED001A02EB870093ED0F
:107A9000075A01EEA30AD0ED000A2033641E01EE5E
:107AA000040A00EE850A002CA2D115E011F8010BA2
:107AB00093ED002A93ED011A040900F00F0002EB88
:107AC000840402EB8000D4ED001AD0ED000A0833E4
:107AD00001EE820A00EE810AB342E7D3E80709D03B
:107AE000087893ED001A000902EB8000D0ED000A3F
:107AF00000EE810ADAED000A30EE800A8AED000A13
:107B0000BDE8F08700000000F0B59FED3D0A059D3F
:107B100003EB8504103C05F0030527E00E7893ED98
:107B2000001A4F7802EB8606D3ED012AD6ED000A43
:107B300002EB870611F802CF00EE810A96ED001ADB
:107B400002EB8C0791F801C093ED022AD7ED000AF1
:107B500002EB8C0601EE220AD3ED031A891C1033C6
:107B600000EE820AD6ED000A00EEA10AA342D5D9A2
:107B700015B3012D04D0022D0CD0032D38D11CE0FB
:107B8000097893ED001A02EB8101D1ED000A00EEB5
:107B9000810A2DE00C78D3ED001A497802EB8404B9
:107BA000D3ED010A94ED001A02EB810101EE210AE6
:107BB00091ED001A01EE200A1AE00C7893ED002AEC
:107BC0004D7802EB8404897893ED011AD4ED001A04
:107BD00002EB850402EB810101EE820A94ED002A9A
:107BE000D3ED020AD1ED001A02EE010A01EEA00A5D
:107BF000D0ED000A30EE800A80ED000AF0BD0000F2
:107C00000000000010B54169044688472069A04281
:107C100000D1002010BD0120704700002DE9F04F79
:107C200000260F4699B00546B04634464DE000BFE9
:107C3000A868C4EBC4028946D0E9013C03EB82008A
:107C40000B902D480FAA02920CEBC40A51F8082F92
:107C5000406A49680C91110A61F31F201C21834678
:107C600004A8F8F733FFD9F81800006800F0E2FB29
:107C70000490D9F81800806805905FEA0A0009D0DE
:107C8000C0F80080D9F80010416029B1498819B1C5
:107C9000012102E0404603E00021016001B900201B
:107CA0000690D9F818001C2204A94068CDE9080BF9
:107CB0000C980A900298F8F7CFFE0B981C220FA997
:107CC000F8F7CAFE761CB6B2641C0DB1288800E035
:107CD0000020A04205D9686818B150F82410002986
:107CE000A6D11EB1A8684068386001E0C7F80080DE
:107CF00019B03046BDE8F08FCCB7100870470000CF
:107D000010B501EB820400EB8200D3EC030AF5EE20
:107D1000C01AF1EE10FA29D2B5EEC01AF1EE10FA3F
:107D200011D0001F241F8C421FD394ED000AB4EE23
:107D3000E00AF1EE10FA03D830EE600A20EE010AF4
:107D400080ED000AEDE79FED161A0AE094ED000AB7
:107D5000B4EEE00AF1EE10FA01D8B0EE410A80ED7F
:107D6000000A001F241F8C42F0D210BD001F241FE8
:107D70008C42FAD394ED000AB4EEE10AF1EE10FA67
:107D800009D8B4EEE00AF1EE10FA06D830EE600A37
:107D900020EE010A01E0B0EE610A80ED000AE5E79D
:107DA0000000000010B59FED0C1AD3ED000A01EBA6
:107DB000820400EB8200001F241F8C420BD394ED41
:107DC000000AB4EEE00AF1EE10FA01D8B0EE410A72
:107DD00080ED000AEFE710BD000000002DE9F0473C
:107DE00001EB82081E460C4605462DED028BDDE9AF
:107DF0000AA93CE00120D4ED008A9FED208A06E02C
:107E000004EB8001401C91ED000AC8FE808AB0425C
:107E1000F6D300270FE000BF04EB870090ED000AC7
:107E200030EE680AFFF7CAFC30EE088A05EB8700DF
:107E30007F1C80ED000AB742EED3B5EEC08AF1EEAA
:107E400010FA10D0F7EE000A002080EE880A08E051
:107E500005EB8001401CD1ED000A60EE800AC1ED07
:107E6000000AB042F4D304EB8A0405EB89054445CB
:107E7000C0D3BDEC028BBDE8F0870000000000001D
:107E800030380A2801D2012070470020704770B5B1
:107E9000054648880C466988884202D9A2B100206C
:107EA00070BD8AB100260BE06168C6EBC6006A6847
:107EB00001EB800102EB80001C22F8F7CDFD761C5F
:107EC0006088B042F0D801E06068686060886880CF
:107ED00020882880012070BD30B500B3F9B1F2B11F
:107EE0005268E2B10F4C1368A34203D0012902602B
:107EF00013D014E00023121D07E000BF52F82350F6
:107F0000A54204D040F823505B1C8B42F6D38B4231
:107F100005D152F82300A04201D1012030BD00203C
:107F200030BD0000DECAFAA170B506000D46144649
:107F30001AD0CCB1104600F025FB00B16088A842F1
:107F400012D10421002309E0C3EBC302606801EBF6
:107F50008202805820B146F823005B1CAB42F3D369
:107F6000AB4201D1012070BD002070BD03498842A1
:107F700001D101207047002070470000DECAFAA13D
:107F80002DE9FE4F04009246894603D0A08D20B112
:107F9000256B03E00020BDE8FE8F0025217B00203B
:107FA000E082C943A082880702D030221121DCE0A0
:107FB000B9F1000F62D0002D60D02888C8B3D9F87D
:107FC00018000026D0F8008056E0A868006800EB92
:107FD0000610019052D060B3C6EBC600029001219A
:107FE00009EB8000009000F0D7FA0246DBF8180099
:107FF00041688A421AD8009ADBF80C309269DF682F
:10800000D2F80CC0674511D19F68D2F808C0674507
:108010000CD15B685268934208D1006800F0FAF90D
:108020000746584601F044FE874203D21822122127
:108030009BE023E0DBF81800006800F0FBF90299F0
:10804000C00159F82110B0EBC11F01D01922EEE791
:108050000098406890B100988069006880B1404500
:10806000414600D208465A468046DDE9001000F03D
:108070008FF806F101062DB1288804E01722D6E713
:108080002122D4E70020B04206D9686820B150F818
:1080900026B0BBF1000F98D1BAF1000F73D0A08DBC
:1080A000012806D9256B0C3503D0288808B1002695
:1080B00057E0182258E0A868006800EB061B39D08A
:1080C000BBF1000F36D0C6EBC600019001210AEBD0
:1080D0008000009000F060FAD9F8183059688842A2
:1080E000E7D8009AD9F80C009269C768D2F80CC09A
:1080F0006745DED18768D2F808C06745D9D14068A6
:1081000052689042D5D1186800F084F90746484675
:1081100001F0CEFD8742CCD3D9F81800006800F0FA
:1081200089F90199C0015AF82110B0EBC11F03D0A1
:10813000192219E0172217E0009840680028F9D0AA
:1081400000988069006870B14045414600D20846F9
:10815000009980464A46584600F01AF806F1010692
:108160003DB1288806E021221321204600F0E7FED9
:1081700010E70020B04206D9686820B150F8269078
:10818000B9F1000F97D14FF00100A4F8148002E775
:1081900070B50E4604461546104601F089FDA060F4
:1081A0000146B06900684843E060716861607268C8
:1081B00010442060A8690268920007D4D0E9022325
:1081C000D21A11448160A9696068C86070BD2DE948
:1081D000F0410025064620E0B268816913680A680C
:1081E00003EB0514920005D58968D4E9010202F079
:1081F000C7FC08E0D1E902236768D21A3A448A60D2
:1082000080696168C16094E807001144616081423F
:1082100001D3E168411A61606D1C0EB1308800E045
:108220000020A84206D97068002803D050F8250025
:108230000028D1D1BDE8F0812DE9F04100250646A6
:108240002BE0B26888691268036802EB05149A0093
:108250000FD58068D4E9011202F092FCD4E9010143
:10826000084460602168884201D3E068081A6060B1
:1082700012E0D4E90020A36818446060904201D362
:10828000E068101A60608A69D2E90237DB1B184483
:10829000906089696068C8606D1C0EB1308800E02C
:1082A0000020A84206D97068002803D050F8251095
:1082B0000029C6D1BDE8F08170477047094A5FF0D8
:1082C000000130B54FF4FA7302EB810400EB810535
:1082D00094ED000A491C994285ED000AF4DB002068
:1082E00030BD0000500E002410B51548A4B0002287
:1082F00022A900682290134800F098FA10F0FF0FAE
:1083000004D0020AC1B210A0F8F7A2F90D4C6946D8
:10831000206800F0E3FA60B12068002100F022FB41
:1083200060600021206800F027FBA060002024B0DE
:1083300010BD0EA0F8F78CF94FF0FF30F7E7000002
:10834000C0B31008440E002461695F6572726F72D9
:108350005F747970653A25642C61695F6572726F2C
:10836000725F636F64653A25640D0A006169206776
:108370006574207265706F7274206572726F720A14
:108380000000000010B50A4C0B4661684860A26806
:108390005360206800F0FAFA012807D0206800F046
:1083A0009BFA020AC1B203A0F8F752F9002010BDEF
:1083B000440E002461695F6572726F725F74797038
:1083C000653A25642C61695F6572726F725F636FD5
:1083D00064653A25640D0A0010B589B1C0F3C61270
:1083E000C0F341545143C0F3434301F1070121F06D
:1083F0000700042B20FA04F004D0082B07D104E076
:10840000002010BD00EB021001E000EB0220C01DB7
:10841000C00810BD59B1C0F3C613C0F3415259434F
:10842000C91D21F00700D040C01DC00870470020C2
:1084300070470000C0F3434102294FF0400170B57E
:108440001CD03A4A20F07E430D019C1A93424FF40F
:1084500000665FD029DC364A9342A3EB020459D070
:1084600019DC402B57D0403BB3F580234CD0802BF8
:1084700037D0AB424FD12E49C91F4CE0C0F3C05199
:10848000C0F3C612C90500F07F0341EAC2111943C7
:1084900041F480213FE0A4F54074F93C1FD00F2C3B
:1084A00035D0B44237D1234935E0234BE21A9C4200
:1084B0001BD00BDC214AA2181DD0802A19D0AA4259
:1084C00011D0A2F58062073A25D117E00F2A18D003
:1084D000B2420CD01A4BDA421DD11A491BE01A499C
:1084E00019E01A4917E01A4915E01A4913E01A4928
:1084F00011E01A490FE0194980390CE01449C91DEF
:1085000009E014490F3106E01049803903E00E49B3
:108510000F3100E0114600F0804300F000520B43A1
:108520001A4300F00060104370BD000040040600D4
:10853000470404004010040000047E00000482FF91
:1085400000F801FF4010820140080400C000040050
:10855000400484004008840040108400C00084006F
:1085600070B514460D46064600F00CF840B1706830
:10857000C5EBC50110EB810002D04460012070BD45
:10858000002070BD28B1416819B1408808B10120B0
:108590007047002070470000020010B52AD0106814
:1085A000154BB3EBC01F03D0144BB3EBC01F01D16D
:1085B000012000E0002008429069406802D01F308E
:1085C00020F01F005369D9B2012900D000211B0AF5
:1085D00007E0012907D0946954F821406043491C01
:1085E0001AB11C4602E00124F8E700248C42F0DCBA
:1085F000002800DC002010BD006000420060000286
:1086000009A108B50968009148B101789DF80020DA
:10861000914204D104226946F8F78EF908B100208E
:1086200008BD012008BD0000038404842DE9FF4F2C
:108630002DED020B82B0DDE913E8DDE91609DDF866
:1086400048B0189C00FB08F05843002702EB800A52
:108650009DE06142002900DC0021ABEB04024245B1
:1086600000D34246661801FB03F0511AABEB01053B
:108670005E435D430195A8EB010203FB01F50599FB
:108680000AEB80005A4301EB860100920026F0EECF
:10869000400A6FE0002225F00F0C58E091ED004AEF
:1086A000D0ED004AD1ED011A90ED011A44EE840A92
:1086B000D1ED023A90ED022A91ED033AD0ED032A72
:1086C000D0ED044A41EE210A91ED054A90ED051ADC
:1086D000D1ED071A42EE230AD0ED063A90ED072AB3
:1086E000203042EE830A91ED043AD1ED062A203182
:1086F00044EE830A41EE040A43EEA20AB1EC043AC6
:1087000042EE210AB0EC041A41EE030A90ED013A60
:1087100091ED021A41EEA30AD0ED001AD1ED013A13
:1087200042EE040A90ED024A91ED032A42EEA40AB9
:10873000D1ED004AD0ED032A10301031103241EE55
:10874000A40A43EE230A44EE010A42EE820A94454B
:10875000A4DC06E0B0EC011A521CF1EC011A41EE67
:10876000210AAA42F6DB019A761C01EB8201009AEB
:1087700000EB82004E458DDB04987F1CC0ED000AA3
:108780001199049800EB81000490199804447745EE
:10879000FFF45FAF08B0BDE8F08FF0B5042BDDE962
:1087A000055400EB840427D0082B27D12FE06E0856
:1087B000002312E00F783F0902EB870797ED000ACC
:1087C00080ED000A11F8017B07F00F0702EB870725
:1087D00097ED000A80ED010A0830B34203F101036E
:1087E000E8D3EB0708D011F8013B1B0902EB830328
:1087F00093ED000AA0EC010AA042D8D3F0BD11F815
:10880000013B02EB830393ED000AA0EC010AA042B6
:10881000F5D3F0BD1CB500230522CDE90023024AA3
:10882000012300F051FA1CBDB80800242DE9F043E3
:108830008FB016460F4605460021FFF7EBFF10F0FC
:10884000FF0F80460BD1684600F032F820B1A7B187
:1088500000240DF10C090CE0286800F03DF80FB081
:10886000BDE8F08357F8242021464846FFF778FEFC
:10887000641CBDF80E00A042F4DC76B100246F4603
:1088800007E000BF56F82420381D2146FFF768FE98
:10889000641CBDF80600A042F4DC2868694600F0BC
:1088A00049F818B9286800F017F880464046D6E71E
:1088B0001FB500280CD00749D1E90023CDE90023DA
:1088C000D1E90221CDE9022102A96A4600F082F92C
:1088D00004B010BD80C6000800F050BA30B5A3B097
:1088E0000C46054600F08CF9FCB1F0B11049882225
:1088F0006846F8F7B1F800F04DFB049000F052FB29
:10890000059000F05DF9099000F0D4F969460A90ED
:10891000284600F08FF8002805D0882269462046B6
:10892000F8F79AF8012023B030BD0020FBE70000E3
:10893000F8C500082DE9F0410D46064600F02CFA76
:10894000041E0DD0294600F00DFC0746294620469E
:1089500000F0B2FB00EA0704304600F0A3FA204022
:10896000BDE8F08110B90248024A026000F080B907
:10897000B80800240001C0A110B90248024A0260F0
:1089800000F0E3BAB80800240001C0A100F0ADBABD
:108990002DE9F041C66B0025416B04468163CEB1E1
:1089A000D9B10120226CB0470CE00220226CB04704
:1089B000A06BFFF727F90746226C0320A16BB04795
:1089C0006D1CA763A16B0029EFD106E0FFF71AF930
:1089D0006D1CA063A06B0028F8D12846BDE8F0818B
:1089E00003460020596B002908D00A69401CCB605F
:1089F0008A4203D0002A01D01146F6E770472DE9DC
:108A0000F041446B002594B1012600272079C0076E
:108A100007D0216A204611B18847304600E0384629
:108A200005442069A04202D008B10446EEE728467A
:108A3000BDE8F0812DE9F0418CB00C4600F0E0F883
:108A400005000DD064B10020E067686B60B1E16F94
:108A5000491CE1670169814206D029B10846F6E761
:108A600000200CB0BDE8F081E06F70B1A88D00B1BE
:108A7000286B04F13C01FFF7D1F8208738B1A88DAD
:108A8000012807D9286B0C3005E0182228E01822AD
:108A9000122126E0002004F14001FFF7BFF86087B3
:108AA00030B105F124000746FFF76CFD18B10AE06C
:108AB0001822132115E03846FFF764FD18B1E88C41
:108AC00008B113220CE005F11C008046FFF75AFDA7
:108AD00058B94046FFF756FD38B1E88B28B112224D
:108AE0001121284600F02BFABAE76868C4F8800024
:108AF000F9F740FD2C48206100F054FA606100F065
:108B00005FF8606200F0D6F8A062A86C00F054FA3A
:108B1000206226A1606CFFF729FA50B126486064F4
:108B2000D5E90901C4E91401D5E90701C4E9120135
:108B300038E0224A07AE0FCA86E80F001F491C2200
:108B400068461031F7F788FF07A8069004F1600027
:108B500069461C220646F7F77FFF04F14400694688
:108B60001C220446F7F778FF3846FFF70BFD50B19B
:108B70003846FFF707FD08B1A96A00E0002130463A
:108B80001C22F7F769FF4046FFF7FCFC50B1404656
:108B9000FFF7F8FC08B1296A00E0002120461C22FA
:108BA000F7F75AFF01205CE7A08F00086765742083
:108BB0007265706F72740000DECAFAA1F8B710080F
:108BC000034810B50469F9F7D5FC204610BD000034
:108BD000CCB7100810B570B169B162B1074C012370
:108BE0000460D1E90041C0E90141D2E90012C0E9C5
:108BF0000312184610BD002010BD0000DECAFAA105
:108C000010B518B1044A0168914200D00020044612
:108C1000F9F7B0FC204610BD0001C0A130B44AB144
:108C200040B139B1074C1368A34206D130BC0C32B5
:108C3000FFF77AB930BC0020704730BC1C32FFF718
:108C40004BB90000DECAFAA130B44AB140B139B123
:108C5000064C1368A34206D130BC121DFFF764B95D
:108C600030BC0020704730BCFFF736B9DECAFAA12D
:108C7000F8B50E46FFF7C4FF04000AD0002700979E
:108C8000A08D00B1206B6946FEF7C8FF050006D035
:108C90000BE01022114600F052F90020F8BD182216
:108CA0002046112100F04BF9009706B1358000985D
:108CB000F8BD0000034810B54469F9F75BFC204695
:108CC00010BD0000CCB710082DE9F04F89B04FF06F
:108CD000000A9046064650465446DDE9122163F3E9
:108CE00007009B46019262F30F20039161F3174046
:108CF0000546F9F7C3FB1E4FF8B1F9F73BFC06B385
:108D00001C49C8F80010C6F8008000F086F9D0B100
:108D1000FFF7D0FF00228146C5F30721E8B200F03B
:108D200070F90022054609F0FF00C9F3072100F0A1
:108D300068F9854209D07C680FE0F86909B0BDE8A0
:108D4000F08F386AFAE73C6807E00BA000680090F3
:108D50006846FFF755FC10B9BC68C6F800A0584635
:108D6000039A019900F04DF9C8F848002046E5E75C
:108D7000CCB710080001C0A10384048410B5FFF72C
:108D80003FFF20B1BDE81040103000F040B901486D
:108D9000806910BDCCB710082DE9F04F91B00C469A
:108DA000FFF72EFF050013D0B4B120683AA1FFF7FA
:108DB000DDF806004FF0000B11D020680190D4E9D7
:108DC0000301CDE90401D4E90101CDE9020144E048
:108DD000002011B0BDE8F08F1122102159E0D4F825
:108DE00004A001212046FFF7D7FBD4F8209080464D
:108DF000012104F11C001090FFF7CEFB284914223A
:108E0000074606A8F7F728FEB8F1000F4FF001005B
:108E100002D0ADF81E0002E00024ADF81EB00894A8
:108E20001FB11099ADF8260002E00021ADF826B080
:108E3000B9F1000F0A9102D10FB1132206E0BAF185
:108E4000000F05D1B8F1000F02D0122210211FE04F
:108E5000142206A901A8F7F7FFFD86F0010202A976
:108E6000144605F11C00FFF712F868B104A9224668
:108E700005F12400FFF70BF840B10320E860284615
:108E8000FFF7AEFD2846A4E7122200E013221621C8
:108E9000284600F054F89BE7696E697400000000F2
:108EA00024B8100870B5FFF7ABFE041E08D0207B75
:108EB000800706D410222046112100F040F800203F
:108EC00070BD2046FFF79BFDE06B60B1656B55B14F
:108ED000D4E90F320020294698472869A84202D0D9
:108EE00008B10546F4E7012070BD70B515460E4681
:108EF000FFF786FE04462A463146FFF741F8002870
:108F00001CD0A08D08B1266B00E00026012802D9F4
:108F1000256B0C350DE000250BE03046FFF757F9C7
:108F20002046FFF735FD2846FFF786F9E08A401C0A
:108F3000E082E08AA18A8842EFD380B270BD002827
:108F400002D0103000F06BB87047F8B50E46FFF74E
:108F500057FE040007D000270097A08D012808D9EC
:108F6000206B0C3006E010221146FFF7E8FF0020CE
:108F7000F8BD00206946FEF751FE050005D1182214
:108F800020461121FFF7DBFF009706B135800098DE
:108F9000F8BD000010B5F9F7EDFA01A010BD000012
:108FA00000000000034810B5C468F9F7E3FA204652
:108FB00010BD0000CCB71008030E020C010A0020FF
:108FC00063F3070062F30F2061F3174070470168F5
:108FD00002460120090A04E05368491E53F8213073
:108FE00058430029F8D17047016802460120090A58
:108FF00004E05368491E53F8213058430029F8D142
:109000007047000640EA014040EA022070470168CC
:109010000022027002600846704701207047037802
:1090200013F0FF0F01D0002070470170016862F358
:109030001F2101600120704710B504460420FCF791
:10904000FEFD08494FF0E0200C804FF47A714C434C
:10905000016941F0020101614461016941F00101CE
:10906000016110BD400E002470B5002405464FF488
:109070007A7603E0304600F005F8641CAC42F9D380
:1090800070BD00000B49002270B54FF0E024098844
:1090900065694843A369A1699942FCD002D2A3EB58
:1090A000010302E0A5EB010633441A440B46824259
:1090B000F1D370BD400E00242DE9F041044628484C
:1090C0000A460121FFF7AAFDF0B3254847F2BC513B
:1090D000234AB832006802F1100402F12005431857
:1090E0009360D36000F18001A16002F13006E1607D
:1090F00002F14007A96002F1500CE96000F57453D9
:10910000B0606032F06002F11001BB607034FB604F
:109110007035CCF8080000F58066CCF80C00936040
:10912000D3604032886001F14003C8608037A66098
:1091300000F11001E660A860E8609660D660986073
:10914000D8600120B96000E002E0F960BDE8F0817C
:10915000132220463021FFF7F2FE0020F6E7000040
:10916000200700242DE9F047044651480A46012112
:10917000FFF76AFD00287DD04D494E4E091D4E4D2A
:10918000081F00F14402D1F800C000F1340700F1DB
:1091900054034CF0804CC1F800C000F1640400F1AD
:1091A000740900F1840A0068A2F1300C8860C8607C
:1091B000A2F1300800F18001DCF800C005444CF059
:1091C000804CC8F800C0C446A2F12008CCF80810B2
:1091D000CCF80C10A2F1200C00F5A141DCF800C085
:1091E0004CF0804CC8F800C0C446CCF80810CCF84D
:1091F0000C108031D7F800C0B9604CF0804CC7F833
:1092000000C0F96080311768916047F080471760AF
:10921000D160803182191E68996046F080461E60D8
:10922000D9602168A260E26041F08041216004F1D0
:109230003001D9F80020C9F8085042F08046C9F83A
:109240000060C9F80C5001F110021C4B1C4CDAF8FC
:10925000006003441B4D044446F08047CAF80830C0
:10926000184E0544CAF800701036CAF80C3001F1E7
:10927000F00300E015E00F6830448C6047F0804751
:109280000F60CC6011689560D56041F0804111603D
:109290001968986041F080411960D8600120BDE8EC
:1092A000F087122220463021FFF749FE0020F6E722
:1092B0002407002400D20B0000D60B0000D60F00BC
:1092C00000DA0F0000EA0F002DE9F04F0446806934
:1092D0009EB0018809B1426800E0002252682AB1BC
:1092E00009B1426800E0002252681268012902D9DF
:1092F00043680C3300E000235B6843B1012902D9C5
:1093000040680C3000E000204068006800E0002069
:10931000236BD168956986691A68C068CF68C2F105
:10932000000A0F975B681C93AB681793B3680793A9
:10933000C36818938068109088680490D1F80490EE
:10934000E0690990206A0890606A1690A06A1590FA
:1093500000206CE0CAF10001002900DC00210F9818
:10936000514406910899A0EB0A00884200D30846B0
:1093700000EB0A081C984542002050E06842002893
:1093800000DC0020049928444A1B09998A4200D332
:109390000A46049B06992A44069F94F8346001FB10
:1093A0000301831A101A1A90A7EB080700FB09F0B3
:1093B0007B4313934FF00007049A01FB09F102FB72
:1093C00009F219921490179800EB810B1EB1DDE998
:1093D0000810484300E01398069E1D90012014E0F9
:1093E0001A990F441399B94201D11D9900E0002147
:1093F0004B46CDE90010149A5946079800F050FDED
:1094000019990020761C0BEB810B4645E8DB079988
:1094100001EB89000790169805440D98401C10999F
:109420000D908842AAD315990E988A44401C0E903C
:109430000146189881428DD31EB0BDE8F08F2DE90A
:10944000F0478169088808B14A6800E00022526844
:1094500032B108B14A6800E000225268146800E0A6
:109460000024012802D94A680C3200E00022526828
:1094700042B1012802D94A680C3200E00022526849
:10948000166800E00026022802D94A68183200E077
:109490000022526842B1022802D94A68183200E01C
:1094A00000225268156800E0002502280BD94868A0
:1094B00010F1180F07D030F8181F012903D94068A0
:1094C00008B1476800E0002704F10800FFF78CFDB1
:1094D0000246E068B169A369D0F804908C689E6880
:1094E000A8692FB3B969D0F808800020D1F808A086
:1094F0001AE000EB0903014613E00D1A06EB810C9C
:109500000AEB850708EB850597ED000ADCED000AFC
:1095100095ED001A04EB8107491C00EE810A87EDE6
:10952000000A8B42E9D818469042E2D3BDE8F087A2
:109530008568002016E000EB090301460FE00F1AD2
:1095400006EB810C05EB87089CED000AD8ED000ABC
:1095500004EB8107491C20EE200A87ED000A8B42AC
:10956000EDD818469042E6D3E0E72DE9F04F816947
:109570009FB00A88B2F1000900D04A6852682AB147
:109580005FEA090200D04A6852681268B9F1010F17
:10959000924602D94A680C3200E00022526842B179
:1095A000B9F1010F02D94A680C3200E0002252687A
:1095B0001268B9F1020F089202D94A68183200E025
:1095C0000022526842B1B9F1020F02D94A6818323A
:1095D00000E0002252681268B9F1020F0BD94B6803
:1095E00013F1180F07D033F8184F012C03D95B681B
:1095F00013B15B6800E000239469089D0994C66B71
:10960000B0F828C0D5F80CE0A4681FFA8CFC0A94C6
:10961000B0F82C80DEF8045017951FFA88F83588CA
:10962000B688078EADB2CDF86CC0B6B2B0F834C013
:10963000BFB2CDF86880D2681995DAF81850029652
:10964000DAF80C600D971FFA8CF70C97D2E901BA83
:1096500072681D92C0690B90A86807941290DEF89A
:109660000C000590DEF808001690F0681590B068C0
:10967000139013B19869856800E000250998DDE929
:109680000C64AAF10107761ED0F800E0641E089869
:10969000ABF1010207FB06A6CEF3C613D0F8188083
:1096A000CEF3415CCEF3434723FA0CF3D8F808001D
:1096B000A84602FB04B514900020042F01D0082F07
:1096C00023D1099AD26802B3B9F1030F02D94C68C9
:1096D000243400E00024646864B1B9F1030F02D9B6
:1096E0004868243000E000204068006810B18169BB
:1096F0008C6800E0002481691D984968CDE900016B
:109700000A992046FFF749F804B9079C0BAF224697
:1097100097E80B0019AFCDE90F10CDE90D5397E88D
:109720000B0001AFCDE90903CDE90B160298CDF886
:1097300018B0CDE907A0DDE915341399179887E82B
:109740001B001D98434600901499129800F0FAF8F7
:109750001FB0BDE8F08F00002DE9F04F2DED028B1A
:1097600087B08069018809B1426800E00022526830
:1097700032B109B1426800E000225268156800E089
:109780000025012902D942680C3200E0002252680B
:1097900042B1012902D942680C3200E0002252682D
:1097A000146800E00024022902D94268183200E05F
:1097B000002252683AB1022902D94268183200E008
:1097C000002252681268022993460BD9426812F1AE
:1097D000180F07D032F8183F012B03D9526812B185
:1097E000526800E00022EE68E3684FF0000A04923D
:1097F000D6F80480D3F80490D3E902235A430092A8
:10980000DBF818301A68C2F3C616C2F34157FE409F
:109810000329069602D94668243600E000267668B9
:1098200056B1032902D94068243000E00020406886
:10983000006808B1866900E00026C2F343400428AE
:1098400001D008280ED1DF685EB1D6E90001FEF72D
:10985000C3FDD6F80CA002463846514601F090F9F7
:1098600000E0BA460099A269AB6909FB01F0DBF898
:10987000141094689FED328A04EB8907496804EB61
:109880008000039199680291059052E0DBF818106E
:1098900004988E6810B18069856800E00025BAF1EF
:1098A000000F35D00698042816D02EE015B1B5EC7F
:1098B000010A01E0B0EE480A8DED010A029B01A801
:1098C00052463146CDF80080FEF786F803989DEDAC
:1098D000010A0644A4EC010ABC42E7D322E015B118
:1098E000B5EC010A01E0B0EE480A8DED010A029BD9
:1098F00001A852463146CDF80080FEF705F90398DD
:109900009DED010A0644A4EC010ABC42E7D309E03C
:1099100002992B46CDE900893246204600F0CCF86A
:1099200004EB8904029807EB890700EB880002909A
:1099300005988442AAD307B0BDEC028BBDE8F08F36
:10994000000000002DE9F04F2DED028B99B02D9C09
:10995000259EC4F1000A9FED578A14931290CDE919
:109960001512DDE92A404443002013902498444313
:1099700096E000BF2C98CAF1000140420D900029EA
:1099800000DC0021279889463099A0EB0A00884224
:1099900000D30846269B0AEB0901169ADDE91585D6
:1099A0005943A0EB09000E902498A2F10062DDF863
:1099B00050B041431298B2F1807F00EB81000F90CC
:1099C00028D2002723E0149810B1BBEC010A01E073
:1099D000B0EE480ADDE90D012E9A0DF1080C08924F
:1099E000CDF81490CDE90610DDE92A132898269ABF
:1099F0008CE80B004046CDE90062249B2A460F9973
:109A0000FEF714FE7F1C08F1040805EB8405B7423D
:109A1000D9D33AE0A000F6F74EFD002710902FE0D2
:109A2000002009E0109905EB800292ED000A01EB9D
:109A30008001401C81ED000A8442F3D8149810B1D3
:109A4000BBEC010A01E0B0EE480A2E98DDE90D12E8
:109A5000CDE90710CDE90592DDE92A10289A269B69
:109A60000096CDE90310CDE90132249B4046DDE9A3
:109A70000F12FEF7DBFD7F1C08F1040805EB8405DF
:109A8000B742CDD31098F6F745FD289815992F9A2F
:109A90007043924401EB800015901398401C139082
:109AA000139929988142FFF465AF19B0BDEC028B80
:109AB000BDE8F08F000000002DE9F04F06469A4601
:109AC0008B4615462DED028B81B034469FED188AEA
:109AD000DDE90C9800EB88070EE000BF8DED008AF1
:109AE0004B465A4629466846FDF7ECFD9DED000AB7
:109AF00005EB8905A4EC010ABC42EFD3BAF1000FD3
:109B000011D000210DE000BF0AEB810206EB8100BD
:109B1000D2ED000A90ED000A491C30EE200A80EDDB
:109B2000000A4145F0D301B0BDEC028BBDE8F08FD7
:109B30000000000070B505468069018809B14268DF
:109B400000E00022526832B109B1426800E0002210
:109B50005268146800E00024012902D942680C32DE
:109B600000E00022526842B1012902D940680C305D
:109B700000E000204068066800E00026E86988B13F
:109B80004068012804F1080027D0FFF720FAA169F6
:109B90000246E869B46989688368A068BDE87040D6
:109BA000FEF7AEB8B169A0698E68856804F1080057
:109BB000FFF70DFA05EB80019FED0E0A06EB800022
:109BC00006E000BFD1ED000AC0FE200AC0ED000A89
:109BD000001F091FA942F5D270BDFFF7F8F9A1696E
:109BE0000246E869B46989688368A068BDE8704086
:109BF000FEF7D8B8000000002DE9FC41806901881B
:109C000009B1426800E00022526832B109B14268ED
:109C100000E000225268146800E00024012902D903
:109C200042680C3200E00022526842B1012902D998
:109C300040680C3000E000204068056800E0002526
:109C4000E168E8684E68476804F10800FFF7BFF96B
:109C5000CDE900670246A069AB6981689868334620
:109C6000FEF7BCF8BDE8FC810349CA695206FCD581
:109C7000C2B28A627047000000100140074901200B
:109C80001CB500238202CDE90001084804A102F0BE
:109C9000B5F8BDE81C4001F05FBC0000C016002410
:109CA00073746172745F7461736B000005AC0008BB
:109CB00030B5D0E90551C368064CD868EB6809682F
:109CC00058432140A1F58022C03A01D1C01DC008EF
:109CD00030BD0000FFFF7F01174830B587B0016835
:109CE00041F002010160016801F002010591016883
:109CF00041F00201016000680124104D694600F046
:109D00000200059002200294CDE900042846039445
:109D1000FAF7DCFA694628460094FAF7D7FA0122E6
:109D200028460221FAF7F0FB012228461146FAF7ED
:109D3000EBFB07B030BD0000E044025800040258BD
:109D400000F0CAFFFAF7FAFB042302220521A02043
:109D500001F00CF84FF4C870FFF76EF94FF4E134DE
:109D6000204601F00FF9FCF753FCFCF70DFB2046F1
:109D700001F0E4F81F4802224FF47A731CA1FCF7AB
:109D80005BFA00F047F8FFF7A7FF1B4C0022022107
:109D90002046FAF7B9FB002220460121FAF7B4FB6E
:109DA000FCF796FCFCF776FCF8F716FFFCF754FC82
:109DB000FEF79AFA11A0F6F74BFC1148FEF77EFA6F
:109DC00010A0F6F745FC10490D48FEF7DBFA0FA08E
:109DD000F6F73EFC0C4800F0A1F80DA0F6F738FCB1
:109DE000F8F74AF9F8F7A8F9FFF748FFFEE700008F
:109DF0006F6B00000C210024000402586161000018
:109E0000A017002462620000801F0024636300002A
:109E1000646400007FB5002501242B46122103262F
:109E200002224806CDE90064CDE9024500F00BF8B6
:109E300018210096CDE90154002303940622C80698
:109E400000F001F87FBD2DE9FF5F07461E460EA812
:109E500014460D4690E8000FFAF7ECFB8DF80C6005
:109E600000208DF8085001218DF809008DF80D9023
:109E70008DF800108DF80A0068468DF80EA08DF858
:109E8000014001978DF80B808DF80FB0FAF7A4FB15
:109E90000420FAF7DDFB04B00020BDE8F09F0000CD
:109EA000F0B501EB8206DDE9054517E0002210E080
:109EB000012D21D000EB820701EB820C97ED000A07
:109EC000DCED000A30EE200A00EB8207521C87ED21
:109ED000000A9A42ECD3002501EB8301B142E5D39D
:109EE000002C1AD000EE104AF7EE000A0021B8EE5E
:109EF000401A80EE810A0EE001EB820797ED000A1E
:109F0000E2E700BF00EB8102491CD2ED000A60EEDF
:109F1000800AC2ED000A9942F4D3F0BD70B505463F
:109F20000BA0F6F795FB002405EB840090ED000AEA
:109F30000AA0B7EEC00A53EC102BF6F789FB641C9D
:109F4000042CF1DB06A0F6F783FB002070BD0000B7
:109F50006F75745F646174613A00000025662000CB
:109F60000A0000002DE9F041204C0F460546002074
:109F7000E668216881F859002068001D01F01EF88C
:109F800038B922680121206992F82C209140884339
:109F90002061681C15D1A7B11549226848689060F6
:109FA00023688268DA6022688368121D5A6022681A
:109FB000121D8260206841610868401C0860BDE88D
:109FC000F08120683544B5424560216805D2E06BD8
:109FD000091DBDE8F04101F012B8A06B091D01F0A8
:109FE0000EF8A06A8542EAD2A562E8E728160024A6
:109FF000C8A300242DE9F041054601F025F8354CB1
:10A00000354FA068401CA060206810B1606930B373
:10A010002BE02560A068012827D1002606EB8600EA
:10A0200007EB800000F0DDFF761C202EF6D32B48D6
:10A0300000F0D7FF2948143000F0D3FF274828301C
:10A0400000F0CFFF25483C3000F0CBFF23485030D4
:10A0500000F0C7FF2148A0631430E06305E0E86A20
:10A060002168C96A814200D825600121606A401CCC
:10A0700060626864E86A226981401143216100EBF3
:10A080008000291D07EB80004068A8608268EA60B4
:10A09000826851608160E86A00EB800007EB800114
:10A0A000696157F82010491C47F8201001F012F898
:10A0B000606900280CD02068E96AC06A884207D22B
:10A0C00007494FF080500860BFF34F8FBFF36F8F89
:10A0D000BDE8F08128160024F8A0002478A300240D
:10A0E00004ED00E010B500F0AFFF0E4C2068A0B901
:10A0F0000D4800F076FF0C48143000F072FF0A485B
:10A100000022E060102114302061052001F062FB84
:10A11000206010B105A101F0CDF8BDE8104000F0BD
:10A12000D9BF000068160024DCA30024546D7251CE
:10A130000000000030B4026C0B46002A0BD0D0E9BE
:10A1400002411144C160A14201D30168C1601846B7
:10A1500030BCF6F73CBC30BC70472DE9F041856B54
:10A160001746026C0446002682B1C7B1E068F6F7D4
:10A170002EFCE168206C2268091AE160914202D24B
:10A18000A168081AE060022F16D017E02068A8B96D
:10A19000A06801F021FF06460020A0600EE0606884
:10A1A000F6F715FCD4E90101226C10446060884286
:10A1B00004D32068606001E005B16D1E6D1CA563CD
:10A1C0003046BDE8F08110B50446006B00F0BCFFDE
:10A1D0002046BDE8104000F0B7BF000011484FF422
:10A1E000705110B5420706D00E49C01D20F007007F
:10A1F000411AC1F570510C4C002301440839A4F1F7
:10A20000180221F00701C4E900030C1A11604B6029
:10A210000B60C0E9001494604FF00041546051613C
:10A2200010BD000004A4002494160024144E4FF026
:10A230008058144CDFF85090A6F52F7712E000BF3D
:10A2400000F002FFF068C568281D00F0B7FEA068A6
:10A25000401EA0606068401E606000F03BFF284622
:10A26000FFF7B1FF60680028EAD138680128F9D902
:10A27000C9F80080BFF34F8FBFF36F8FF2E7000084
:10A28000B4A300242816002404ED00E02DE9F05FBB
:10A29000DDE90B940F460A9E91009A4615468346C7
:10A2A000A522206BF6F70AFC206B6FF0030101EB8F
:10A2B0008501084420F007085FEA487005D04FF494
:10A2C000587220A127A0F6F7C3F94FF0000567B137
:10A2D00000202218395C82F83410395C11B1401C1E
:10A2E0001028F6D384F8435001E084F83450202E2F
:10A2F00006D314A140F297321AA0F6F7A9F91F2647
:10A30000E662201DC4E9136500F076FE04F1180032
:10A3100000F072FE6565C6F12000A061524684F827
:10A320005850594684F8595040462461646200F000
:10A3300013FBB9F1000F206001D0C9F80040BDE85F
:10A34000F09F00002E2E5C4D6964646C657761722D
:10A3500065735C4672656552544F535C7461736BF0
:10A36000732E63004572726F723A2025732C20257C
:10A37000640D0A0030B5114900E011460A688242B6
:10A38000FBD34B685C18844203D1446808462344DD
:10A390004B6043681D18954209D1084C183C24684D
:10A3A000A24209D052681A4442600A6812680260E8
:10A3B000814200D0086030BD0460F9E794160024A3
:10A3C00070B50D4D914241604FF00004006106D818
:10A3D0008169D21A8A4206D2011D286907E09A4291
:10A3E00003D2994201D3012403E0011DE86800F083
:10A3F00006FE204670BD00006816002410B5044615
:10A4000000F022FEA06B28B15FF0000400F062FEB5
:10A41000204610BD0124F9E7F1B500980026846CB0
:10A420002CB91AA140F6D53220A0F6F711F9A06B8D
:10A43000E16B884205D315A140F6D6321BA0F6F792
:10A4400007F9A06BE16B88421ED294F945500022B7
:10A4500069462046FFF781FE0646681C02D07F2D24
:10A4600009D00EE0606A78B104F1240001F026FE04
:10A4700050B1012608E005A140F6F6320BA0F6F730
:10A48000E7F86D1C84F845503046F8BD2E2E5C4D23
:10A490006964646C6577617265735C467265655268
:10A4A000544F535C71756575652E63004572726F0C
:10A4B000723A2025732C2025640D0A0070B50646DB
:10A4C0000D480D46C068C068C468201D00F076FDC8
:10A4D00094F82800410705D52A463146204600F069
:10A4E000D3F803E000F0FE0084F82800216A20463B
:10A4F000BDE87040084700006816002470B5394E6A
:10A5000086B066E00098002806DA019ADDE90201CB
:10A510009047009800285CDB029C606910B1201D08
:10A5200000F04CFD04A800F0D1F8054600980A2878
:10A530004FD2DFE800F04E0505282B420505282BF9
:10A5400094F828002A4640F0010084F82800A16908
:10A550000198014403462046FFF732FF60B394F8A8
:10A560002800410707D501982A46A16901442046E1
:10A5700000F08AF803E000F0FE0084F82800216A69
:10A580002046884725E094F828001EE094F828002B
:10A5900040F0010084F828000198A06128B912A1B8
:10A5A00040F2593219A0F6F753F8A0692B461A4623
:10A5B00041192046FFF704FF0BE094F828008107BB
:10A5C00003D4204600F0C0FD03E000F0FE0084F854
:10A5D000280030680022694601F00AFB002891D16A
:10A5E00006B070BD681600242E2E5C4D6964646C44
:10A5F0006577617265735C4672656552544F535C52
:10A6000074696D6572732E63000000004572726F8D
:10A61000723A2025732C2025640D0A00F8B50D46EA
:10A62000064600F0E9FF684600F050F8044600983E
:10A6300010B101F0C7FDF8BD1148ADB1016909685D
:10A64000D9B100250068311B2A4600F073FE01F0E5
:10A65000B9FD0028EFD10B494FF080500860BFF3DF
:10A660004F8FBFF36F8FF8BDA642EBD801F0AAFD64
:10A6700021463046FFF722FFF8BD0125E2E7000042
:10A680006816002404ED00E070B516460C46054639
:10A6900004E0A869296A044428468847A869234633
:10A6A000324601192846FFF78BFE0028F1D170BD14
:10A6B0000548816B096821B1816BC96809688162AD
:10A6C00070474FF0FF31FAE7281600242DE9F041DA
:10A6D000064601F0CDFB0E4C0546A068854214D21B
:10A6E0004FF0FF3704E0C06839460068FFF7E6FE28
:10A6F000E06801680029F6D12169C4E9031001204E
:10A7000030602846A560BDE8F0810020F8E7000031
:10A710006816002409484068401C04D0E32208A1C0
:10A7200016A0F5F795FF72B6502080F31188BFF39D
:10A730004F8FBFF36F8F62B6FEE700009C160024B8
:10A740002E2E5C4D6964646C6577617265735C463E
:10A7500072656552544F535C706F727461626C65C0
:10A760005C525644535C41524D5F434D375C7230EE
:10A7700070315C706F72742E630000004572726FEE
:10A78000723A2025732C2025640D0A00074CE068DE
:10A79000016841B1C0680021D0F80000FFF73EFF1A
:10A7A000FFF7ACFEF3E701210020F7E7681600246D
:10A7B0002DE9F041044600F047FC94F9455004F1BE
:10A7C00024060FE0A06C18B12046FFF725FE04E038
:10A7D000606A48B1304601F071FC08B100F044FEF7
:10A7E0006D1E6DB2002DEDDC4FF0FF3684F8456034
:10A7F00000F070FC00F028FC94F9445004F11007BC
:10A8000009E0206948B1384601F058FC08B100F071
:10A810002BFE6D1E6DB2002DF3DC84F84460BDE8A4
:10A82000F04100F057BC00002DE9F041002705463B
:10A8300000F0E2FE364E306808B9FFF7CFFC7069D1
:10A84000054258D1002D56D005F10804AC4252D92A
:10A8500060070ED004F00700C0F108002044A042B9
:10A8600049D90446400704D09C222AA136A0F5F716
:10A87000EFFE002C3FD0706884423CD8244818304A
:10A8800001460D6801E028460D466968A14202D2E2
:10A8900029680029F7D13168B0468D422BD007686E
:10A8A0002968016008376868001B10280ED92E1926
:10A8B000700704D0CF2217A123A0F5F7C9FE68685E
:10A8C000001B706030466C60FFF754FD6A684046BC
:10A8D000D8F80410891AC8F80410D8F8083099423A
:10A8E00000D28160002143691A43C5E90012C168A2
:10A8F000491CC8F80C1001F065FC780705D04FF42E
:10A90000887204A110A0F5F7A3FE3846BDE8F081D7
:10A910007C1600242E2E5C4D6964646C6577617230
:10A9200065735C4672656552544F535C706F727408
:10A9300061626C655C4D656D4D616E675C686561FB
:10A94000705F342E630000004572726F723A2025EA
:10A95000732C2025640D0A0070B5041F094E231FB7
:10A960004FF0807521F0010125601C1F1960A0F1D6
:10A9700020010B1F266044380A606FF002051D603D
:10A9800070BD000015A700083D48012210B5D0E9B0
:10A990000B1351EA030407D0044694ED071AD4EDD3
:10A9A000080AC1B11BB118E080ED0A0A06E0D0ED3B
:10A9B000090AB4EEE00AF1EE10FA02DD80ED090AB0
:10A9C00042E0D0ED0A0AB4EEE00AF1EE10FA3BD212
:10A9D00080ED0A0A38E0012B09D0D0ED091AB4EE57
:10A9E000E10AF1EE10FA17DD80ED090A1DE0B4EE80
:10A9F000C10A80ED0A0AF1EE10FA80ED090A02DDC3
:10AA000080ED070A06E0B4EEE00AF1EE10FA01D29A
:10AA100080ED080AC26219E0D0ED0A1AB4EEE10A2C
:10AA2000F1EE10FA01D280ED0A0AB4EEC10AF1EE9D
:10AA300010FA02DD80ED070A06E0B4EEE00AF1EE5E
:10AA400010FA01D280ED080A491CC162D0ED080A53
:10AA500090ED071AC16A70EE601A71EE600AB1F5E6
:10AA6000FA7F81EEA00A0AD1D0ED090A0021C0EDDB
:10AA7000070AD0ED0A0AC0ED080AC0E90B1210BDA2
:10AA8000CC1600243D48012210B5D0E9051351EA47
:10AA9000030407D0044694ED011AD4ED020AC1B1B3
:10AAA0001BB118E080ED040A06E0D0ED030AB4EE15
:10AAB000E00AF1EE10FA02DD80ED030A42E0D0ED8B
:10AAC000040AB4EEE00AF1EE10FA3BD280ED040A7B
:10AAD00038E0012B09D0D0ED031AB4EEE10AF1EE13
:10AAE00010FA17DD80ED030A1DE0B4EEC10A80ED17
:10AAF000040AF1EE10FA80ED030A02DD80ED010A8E
:10AB000006E0B4EEE00AF1EE10FA01D280ED020A9E
:10AB1000426119E0D0ED041AB4EEE10AF1EE10FA48
:10AB200001D280ED040AB4EEC10AF1EE10FA02DDA2
:10AB300080ED010A06E0B4EEE00AF1EE10FA01D26F
:10AB400080ED020A491C4161D0ED020A90ED011A24
:10AB5000416970EE601A71EE600AFA2981EEA00A6E
:10AB60000AD1D0ED030A0021C0ED010AD0ED040A9C
:10AB7000C0ED020AC0E9051210BD0000CC16002489
:10AB8000F0B588420ED0002A0CD08318814210D92B
:10AB900099420ED2114403E013F8012D01F8012D62
:10ABA0008342F9D8F0BD00BF10F8013B521E01F8F6
:10ABB000013B8B0701D0002AF6D117090AE006688D
:10ABC00045688468C36810300E604D608C60CB604F
:10ABD00010317F1E002FF2D1C2F3810305E000BFC8
:10ABE00050F8044B5B1E41F8044B002BF8D102F0E7
:10ABF000030204E010F8013B521E01F8013B002A59
:10AC0000F8D1F0BD7CB500F01FFA002204216420C9
:10AC100000F0E0FD224C00220421E060642000F0FE
:10AC2000D9FD0022A0600421642000F0D3FD0022A1
:10AC300020610421642000F0CDFD1A4901236061E8
:10AC400019A01A460091042101F06CFB206048B164
:10AC500001F00EF902460020009001210346206811
:10AC600001F0EAFB0E4803254FF48076203032468F
:10AC7000002311A1CDE90050124801F0BFF80848A7
:10AC8000002311A132461C30CDE90050114801F0DB
:10AC9000B5F8A06900F070FBBDE87C4000F01ABA7E
:10ACA000A81600244D6900084175746F52656C6FD9
:10ACB000616454696D6572007461736B5F64737075
:10ACC0007278000031AE00087461736B5F65636772
:10ACD0007278000075AE0008224A0020F0B51168B5
:10ACE000890311D4BFF34F8FBFF36F8F1E490860E4
:10ACF000BFF34F8FBFF36F8F116841F400311160C4
:10AD0000BFF34F8FBFF36F8F1168C90323D4154969
:10AD100070310860BFF34F8F081F43F6FF7400685F
:10AD2000114D1035C0F34E31C0F3C90304EA41168A
:10AD3000184600BF46EA80772F60401EFAD2491EAF
:10AD4000F4D2BFF34F8F106840F480301060BFF32F
:10AD50004F8FBFF36F8F04484C30016841F00401FE
:10AD60000160F0BD14ED00E050EF00E0F0B52D4CB7
:10AD70009DB0256825F0040525602B4C294D0C3528
:10AD8000266826F00106266024682E68002446F412
:10AD900040462E602E6806F440461B962E68B60488
:10ADA000FCD54FF4803C0394212712940825CDE96B
:10ADB000007C0127CDE906740CAF02260996CDE987
:10ADC000105487E80D00CDE90A616846FAF70EF8DD
:10ADD00080B940201A903F210301CDE9165003228B
:10ADE000CDE9180313AB13A883E816000221F9F785
:10ADF000EDFD10B101201DB0F0BDF9F789FC0B4845
:10AE0000016841F0800101600848F430016841F0B8
:10AE100002010160006800F002001B90F9F710FACF
:10AE20000020E8E70C4802582C040058004402585F
:10AE30000F4C4FF0FF350EB501A92A46E06800F02F
:10AE4000D7FE9DED010A02A96846B8EEC00A8DED55
:10AE5000000AFBF713FC9DED020AFFF795FD8DED4F
:10AE6000000A606900232A46694600F071FDE3E7A5
:10AE7000A81600240EB50025F7F786FADFF8B4808F
:10AE80006F1E2D4C4FF4FA79A8F120063A4601A91D
:10AE9000A06800F0ADFE9DED010A02A96846B8EE7B
:10AEA000C00A8DED000AF7F7A9FE9DED020AFFF733
:10AEB000E9FD8DED000A206900233A46694600F05D
:10AEC00047FD08EB8501681C9DED000A85B24D45E4
:10AED00081ED000ADAD11749002516482039FDF71F
:10AEE00051FA0020606096EC020AB4EEE00AF1EE3E
:10AEF00010FA01D201206060D6ED020A06EB800054
:10AF000090ED000AB4EEE00AF1EE10FA01D36068A9
:10AF100001E002206060D6ED030A06EB800090EDB0
:10AF2000000AB4EEE00AF1EE10FAAFD2032060603E
:10AF3000ACE7000040E00024A81600240F490022DE
:10AF400010B50D4C0C230C60C1E90102CA60084623
:10AF50000A61C1E90532FBF747F8032227201146B1
:10AF6000F9F7A4FB2720F9F793FBBDE8104004494B
:10AF700004220248FBF7F0B8004800400C210024EE
:10AF8000380E00240B49002210B5094C0C230C602C
:10AF9000C1E90102CA6008460A61C1E90532FBF74E
:10AFA00023F8BDE81040044901220248FBF7D4B859
:10AFB000001001407C200024350E0024D0E901322D
:10AFC00001699A60D0E901235A604A68824201D13E
:10AFD00082684A60002202610868401E08600868B2
:10AFE00070474FF0FF3300F108010022C0E9011360
:10AFF0000260C1600161704700210161704730B596
:10B000000B685A1C02D000F1080202E0026904E059
:10B010002246546825689D42FAD953684B6099606E
:10B020008A60516008610168491C016030BD426856
:10B030004A6093688B609368596091600861016809
:10B04000491C01607047000072B6502080F31188DF
:10B05000BFF34F8FBFF36F8F094962B64868401C3A
:10B06000486001280AD10748006810F0FF0F05D09A
:10B0700005A14FF4D37213A0F5F7EABA70470000A8
:10B080009C16002404ED00E02E2E5C4D6964646C77
:10B090006577617265735C4672656552544F535CA7
:10B0A000706F727461626C655C525644535C4152BD
:10B0B0004D5F434D375C723070315C706F72742E2F
:10B0C000630000004572726F723A2025732C2025B0
:10B0D000640D0A0010B5084C606828B907A140F259
:10B0E000AD1215A0F5F7B4FA6068401E606001D19A
:10B0F00080F3118810BD00009C1600242E2E5C4D9C
:10B100006964646C6577617265735C4672656552EB
:10B11000544F535C706F727461626C655C5256443C
:10B12000535C41524D5F434D375C723070315C70FF
:10B130006F72742E630000004572726F723A2025A0
:10B14000732C2025640D0A0070B500282DD0174DF2
:10B15000A0F1080460686969084205D14FF4927251
:10B1600013A120A0F5F774FA206828B110A140F2CD
:10B1700025121CA0F5F76CFA60686969084214D0C2
:10B180002268002A11D18843606000F035FA6068B7
:10B190006968084468602046FFF7ECF82869401C9D
:10B1A0002861BDE8704001F00DB870BD7C16002428
:10B1B0002E2E5C4D6964646C6577617265735C46C4
:10B1C00072656552544F535C706F727461626C6546
:10B1D0005C4D656D4D616E675C686561705F342EB6
:10B1E000630000004572726F723A2025732C20258F
:10B1F000640D0A004FF0E020002101614FF47A72E3
:10B200008161072303490968B1FBF2F1491E4161DD
:10B21000036170472C0E002410B5F5F727F9104C88
:10B2200010280CD300F1E020217890F8F003884238
:10B2300005D20CA140F2093219A0F5F709FA1C4811
:10B24000A168006800F4E060884207D9BDE81040BA
:10B2500004A140F2193212A0F5F7FAB910BD0000AE
:10B260009C1600242E2E5C4D6964646C65776172B7
:10B2700065735C4672656552544F535C706F7274AF
:10B2800061626C655C525644535C41524D5F434D64
:10B29000375C723070315C706F72742E6300000026
:10B2A0004572726F723A2025732C2025640D0A00B6
:10B2B0000CED00E070B504000D4605D110A140F67C
:10B2C000C82217A0F5F7C4F9002D4FF0000215D0E1
:10B2D0001748134600EBC3014E68A64202D100EBAB
:10B2E000C30207E01AB950F8336006B90A465B1C7E
:10B2F000082BEFD3002A01D0C2E9005470BD000032
:10B300002E2E5C4D6964646C6577617265735C4672
:10B3100072656552544F535C71756575652E630097
:10B320004572726F723A2025732C2025640D0A0035
:10B33000B8A0002470B515460E460446FFF784FEFB
:10B3400094F944100020491C01D184F8440094F978
:10B350004510491C01D184F84500FFF7BBFEA06BE6
:10B3600028B904F124002A46314600F0B3F82046FB
:10B37000BDE87040FFF71CBA70B50546FFF764FEE4
:10B38000254C05B92568281DFFF718FE58B9E86A4D
:10B39000224A00EB800152F8211021B922690121D3
:10B3A00081408A432261A86A18B105F11800FFF7AD
:10B3B00005FE606A401C60622068854207D118481B
:10B3C000291DFFF734FE6068401C606004E0A0683F
:10B3D000401EA060FFF76CF9FFF77CFE20688542F5
:10B3E00002D02846FEF7EFFE6069002812D02068E0
:10B3F00085420FD1606B28B10AA140F2DC4211A056
:10B40000F5F726F913494FF080500860BFF34F8FCE
:10B41000BFF36F8F70BD000028160024F8A0002431
:10B42000B4A300242E2E5C4D6964646C6577617250
:10B4300065735C4672656552544F535C7461736BFF
:10B44000732E63004572726F723A2025732C20258B
:10B45000640D0A0004ED00E002490A6A0260C9684E
:10B46000416070472816002401490120C8617047D7
:10B470002816002470B504000D4605D108A140F639
:10B480001C420FA0F5F7E4F8114801682046183176
:10B49000FFF7B5FD2846BDE870400121FEF762BD0B
:10B4A0002E2E5C4D6964646C6577617265735C46D1
:10B4B00072656552544F535C7461736B732E6300F5
:10B4C0004572726F723A2025732C2025640D0A0094
:10B4D0002816002470B5040015460E4605D111A1AA
:10B4E00040F6524217A0F5F7B3F81A4802686168AF
:10B4F000D1618A6803681A6202688B6818325A60E0
:10B50000026818328A60006884622068401C2060EB
:10B510000DB14FF0FF3629463046BDE87040FEF7CA
:10B5200021BD00002E2E5C4D6964646C65776172EC
:10B5300065735C4672656552544F535C7461736BFE
:10B54000732E63004572726F723A2025732C20258A
:10B55000640D0A00281600247CB5174800258022B7
:10B560002B4616A1CDE90050164800F047FC124CBE
:10B570002C3C012803D100F01FFF012802D0401C01
:10B5800012D017E0502072B680F31188BFF34F8FAE
:10B59000BFF36F8F62B601204FF0FF31A16260618F
:10B5A000E56000F075F805E04FF4046206A10EA016
:10B5B000F5F74EF8206B7CBD5416002449444C45E9
:10B5C000000000002DA200082E2E5C4D6964646C02
:10B5D0006577617265735C4672656552544F535C62
:10B5E0007461736B732E63004572726F723A20251B
:10B5F000732C2025640D0A000248416B491C4163ED
:10B60000704700002816002470B5134C606B10B111
:10B610000120E06170BD0020E061104D2069B0FAAA
:10B6200080F0C0F11F0000EB800655F8260028B915
:10B630000BA140F6024212A0F5F70AF805EB8600CE
:10B6400000F10802416849684160914201D14968AE
:10B650004160C868206070BD28160024F8A000244E
:10B660002E2E5C4D6964646C6577617265735C460F
:10B6700072656552544F535C7461736B732E630033
:10B680004572726F723A2025732C2025640D0A00D2
:10B690007CB52D4DFF2029780191287028788DF8F0
:10B6A00000009DF800109DF8000001F0F0018142BB
:10B6B00005D026A140F24D1233A0F4F7C9FF9DF842
:10B6C00000100720344C01F050012170A06005E00B
:10B6D0009DF8001049008DF80010401E9DF80010E4
:10B6E0000906F5D40328A0600ED018A140F261121B
:10B6F00025A0F4F7ADFFA068032805D013A14FF4EF
:10B70000B57221A0F4F7A4FF207A000200F4E060F3
:10B71000A060019828702148016841F4700101601F
:10B72000016841F070410160FFF764FD0020606036
:10B73000F4F762FE1A48016841F040410160F4F7F5
:10B7400047FE00207CBD000000E400E02E2E5C4D92
:10B750006964646C6577617265735C467265655295
:10B76000544F535C706F727461626C655C525644E6
:10B77000535C41524D5F434D375C723070315C70A9
:10B780006F72742E630000004572726F723A20254A
:10B79000732C2025640D0A009C16002420ED00E087
:10B7A00034EF00E072B6502010B580F31188BFF37B
:10B7B0004F8FBFF36F8F62B600F060FB18B1044982
:10B7C0004FF080500860002080F3118810BD000009
:10B7D00004ED00E02DE9F041050017460E464FF05C
:10B7E00000041FD0601EB0FBF5F0B0421AD305FB79
:10B7F00006F010F1550F15D85430FFF715F8040076
:10B8000016D004F154005EB120600121C4E90F5646
:10B81000204600F029F884F850700021A16407E068
:10B820002460F2E704A14FF4E3720BA0F4F710FFD9
:10B830002046BDE8F08100002E2E5C4D6964646CEA
:10B840006577617265735C4672656552544F535CEF
:10B8500071756575652E63004572726F723A2025A9
:10B86000732C2025640D0A002DE9F05F04008B463F
:10B870004FF001092FD0E06B98B34FF0FF3A226CE4
:10B88000BAFBF0F090422CD3FFF7DEFB21680025D5
:10B89000D4E90F23D4F840C004F1100810460E4636
:10B8A000401EA56302FB031200FB0C10BBF1000F4E
:10B8B000666084F844A084F845A0C4E902201BD047
:10B8C0004046FFF78EFB04F12400FFF78AFB00BF20
:10B8D000FFF700FC0DE04FF4887210A117A0F4F7F9
:10B8E000B7FE0EA14FF0000914A040F24512F4F784
:10B8F000AFFE4846BDE8F09F20690028E8D04046EA
:10B9000000F0DCFB0028E3D010494FF080500860C5
:10B91000BFF34F8FBFF36F8FDAE700002E2E5C4D21
:10B920006964646C6577617265735C4672656552C3
:10B93000544F535C71756575652E63004572726F67
:10B94000723A2025732C2025640D0A0004ED00E0D6
:10B950002DE9FF4704001D4682B08A464FF00008DB
:10B9600005D154A140F22E325AA0F4F771FEBAF17B
:10B97000000F07D1206C28B14EA140F22F3255A004
:10B98000F4F766FE022D08D1E06B012805D04FF4D4
:10B990004C7248A14FA0F4F75BFE00F05BFA38B997
:10B9A000049828B143A140F233324AA0F4F750FE84
:10B9B0004C4F4FF080564FF0000900BFFFF744FB9B
:10B9C000A06BE16B884207D3022D05D0049838B3F1
:10B9D000B8F1000F27D02BE0D4F838802A46514622
:10B9E0002046FEF7BAFBA16C41B1022D02D1B8F19D
:10B9F000000F0FD12046FEF70FFD05E0616A19B177
:10BA000004F1240000F05AFB20B13E60BFF34F8FD9
:10BA1000BFF36F8FFFF75EFB012006B0BDE8F08734
:10BA2000FFF758FB22E06846FFF716FD4FF00108CC
:10BA3000FFF750FBFFF7E0FDFFF706FB94F944002A
:10BA4000401C01D184F8449094F94500401C01D178
:10BA500084F84590FFF73EFB04A9684600F076F9AC
:10BA600030B12046FEF7A4FE00F0ACFB0020D4E786
:10BA7000FFF7EAFAA06BE16B884213D1FFF72AFBCC
:10BA8000049904F11000FFF7F5FC2046FEF790FE44
:10BA900000F098FB002891D13E60BFF34F8FBFF3B9
:10BAA0006F8F8BE7FFF716FB2046FEF781FE00F055
:10BAB00089FB83E72E2E5C4D6964646C6577617247
:10BAC00065735C4672656552544F535C717565755C
:10BAD000652E63004572726F723A2025732C202503
:10BAE000640D0A0004ED00E02DE9F04704001F4654
:10BAF00016468A4605D132A140F2024238A0F4F738
:10BB0000A7FDBAF1000F07D1206C28B12CA140F29B
:10BB1000034233A0F4F79CFD022F08D1E06B01280B
:10BB200005D027A140F204422DA0F4F791FDFFF7C4
:10BB300073FB72B65021EFF3118081F31188BFF3CC
:10BB40004F8FBFF36F8FA16B62B6E26B804691425D
:10BB500006D3022F04D0002088F31188BDE8F087B7
:10BB600094F94550D4F838903A4651462046FEF7AD
:10BB7000F4FA681C02D07F2D16D01BE0A06C0125C2
:10BB800040B1022F02D1B9F1000F16D12046FEF7C5
:10BB900043FC05E0606A80B104F1240000F08EFAF5
:10BBA00058B156B1356008E005A140F28D420CA0B5
:10BBB000F4F74EFD6D1C84F845500120CCE70000E1
:10BBC0002E2E5C4D6964646C6577617265735C46AA
:10BBD00072656552544F535C71756575652E6300CF
:10BBE0004572726F723A2025732C2025640D0A006D
:10BBF0002DE9F74704008A4683B04FF0000605D1CF
:10BC000045A140F251524CA0F4F722FDBAF1000FC9
:10BC100007D1206C28B140A140F2555246A0F4F75C
:10BC200017FD00F017F938B9059828B13AA140F28C
:10BC30005A5241A0F4F70CFDDFF80C814FF0805709
:10BC40004FF00009FFF700FAA56BC5B15146204639
:10BC5000FEF770FA6D1EA563206950B104F1100063
:10BC600000F02CFA28B1C8F80070BFF34F8FBFF373
:10BC70006F8FFFF72FFA012006B0BDE8F087059817
:10BC800008B11EB106E0FFF725FA27E06846FFF786
:10BC9000E3FB0126FFF71EFAFFF7AEFCFFF7D4F92E
:10BCA00094F94400401C01D184F8449094F9450073
:10BCB000401C01D184F84590FFF70CFA05A96846AD
:10BCC00000F044F8002820460AD0FEF771FD00F08D
:10BCD00079FA2046FEF792FB0028B3D00020CBE78C
:10BCE000FEF78CFB90B1059904F12400FFF7C2FB2D
:10BCF0002046FEF75DFD00F065FA0028A2D1C8F8E5
:10BD00000070BFF34F8FBFF36F8F9BE72046FEF7A6
:10BD10004FFD00F057FA95E72E2E5C4D6964646C78
:10BD20006577617265735C4672656552544F535C0A
:10BD300071756575652E63004572726F723A2025C4
:10BD4000732C2025640D0A0004ED00E02DE9F0417C
:10BD500005000C4605D11CA140F6FD4222A0F4F7D7
:10BD600077FC2CB918A140F6FE421FA0F4F770FC36
:10BD7000FFF76AF920490023CA6808686F68D61B74
:10BD800090F8590020B10868012580F8593015E075
:10BD90002068B0F1FF3F0DD0D5F800C0096A8C458E
:10BDA00001D0974208D9B04206D9801B20602846AE
:10BDB000FFF752FB002501E001252360FFF78AF918
:10BDC0002846BDE8F08100002E2E5C4D6964646C4D
:10BDD0006577617265735C4672656552544F535C5A
:10BDE0007461736B732E63004572726F723A202513
:10BDF000732C2025640D0A00281600242DE9FF5F0E
:10BE0000994616468A4683469000DDE90E87FEF77E
:10BE10000BFD05001AD05C20FEF706FD040012D0D1
:10BE200000212563CDE900874B463246CDE902412A
:10BE300051465846FEF72AFA2046FEF7DBF8012065
:10BE400004B0BDE8F09F2846FFF77EF94FF0FF30C1
:10BE5000F6E700000548416919B1406B18B10020B0
:10BE60007047012070470220704700002816002408
:10BE70000148C06870470000281600242DE9F047EB
:10BE8000474C606B002628B1A069401CA061304679
:10BE9000BDE8F087E5686D1CE56011D1A06B006816
:10BEA00028B140A140F6C72246A0F4F7D1FBA06B11
:10BEB000E16BA163E063206A401C2062FEF7F8FB9F
:10BEC0004448A16A8D420FD34FF00009A16B096865
:10BED00039B1A16BC968C9684A68954212D2A26299
:10BEE00002E04FF0FF31A1622168C96A01EB8101D4
:10BEF00050F82100012800D90126E0690028C6D0A9
:10BF00000126C4E7D1E902734A6901F10408BB6064
:10BF1000D1E902377B605368434501D1CB68536058
:10BF2000C1F8149013685B1E13608A6A9AB1D1E954
:10BF3000077C01F11803C7F808C0D1E9077CCCF8E9
:10BF4000047057689F4201D10B6A5360C1F8289072
:10BF500013685B1E1360CA6A0123276993403B4341
:10BF6000236102EB820200EB820252688A609368CE
:10BF7000CB609368C3F80480C2F80880CA6A02EBF9
:10BF8000820200EB82034B6150F822305B1C40F8C8
:10BF900022302268C96AD26A914297D3012695E776
:10BFA000281600242E2E5C4D6964646C65776172DE
:10BFB00065735C4672656552544F535C7461736B74
:10BFC000732E63004572726F723A2025732C202500
:10BFD000640D0A00F8A0002470B5002804464FF054
:10BFE00000064CD0274D2868844205D026A141F296
:10BFF0004F022DA0F4F72CFB206D28B922A141F2AD
:10C00000500229A0F4F724FBD4E91320E16A401E72
:10C010002065914233D090BB201DFEF7CFFF002852
:10C020004FF0010006D194F82C20296900FA02F2A1
:10C0300091432961E16CC1F12002A261E1622A69A8
:10C040008840104328611C4A01EB8100211D02EB4E
:10C0500080004068A0608368E36083685960816005
:10C06000E06A00EB800002EB80006061E06A00EBB8
:10C07000800052F82010491C42F82010012630465A
:10C0800070BD0000281600242E2E5C4D6964646C7F
:10C090006577617265735C4672656552544F535C97
:10C0A0007461736B732E63004572726F723A202550
:10C0B000732C2025640D0A00F8A0002470B5C06818
:10C0C000C4682CB930A140F6824237A0F4F7C0FA18
:10C0D000D4E90721A06A9160D4E90712516004F104
:10C0E00018024168914201D1216A41600023A36294
:10C0F0000168491E016030490125486B98B12F4BFA
:10C100005868E06186682662866872608260A36211
:10C110001868401C1860E06A0A68D26A904231D9F7
:10C120000120CD6170BDD4E902606269B060D4E9DC
:10C1300002067060201D5668864201D1E66856608E
:10C14000636113685B1E13600E69E26A05FA02F30D
:10C1500033430B6102EB8203194A02EB83035B68F2
:10C16000A3609E68E6609E6870609860E06A00EB7D
:10C17000800002EB8003636152F820305B1C42F8C0
:10C180002030C8E7002070BD2E2E5C4D6964646CC1
:10C190006577617265735C4672656552544F535C96
:10C1A0007461736B732E63004572726F723A20254F
:10C1B000732C2025640D0A0028160024A0A3002457
:10C1C000F8A000242DE9F041464D686B0024274675
:10C1D00028B945A140F6B3024BA0F4F739FAFEF7AF
:10C1E00033FF686B401E6863686B002875D14A4A4C
:10C1F0008046A8680126E8BB6FE0D068C468D4E92F
:10C200000731A06A9960D4E90713596004F1180155
:10C2100043688B4201D1216A4160C4F828800168DB
:10C22000491E0160D4E9023C6169201DC3F808C0C1
:10C23000D4E9023CCCF804304B68834201D1E36876
:10C240004B60C4F814800B685B1E0B60E16A2B69BD
:10C2500006FA01FC4CEA030CC5F810C02F4B01EBA9
:10C26000810103EB81014968A160D1F808C0C4F8DD
:10C270000CC000E015E0D1F808C0CCF804008860DC
:10C28000E06A00EB800003EB8001616153F820104D
:10C29000491C43F820102968E06AC96A884200D323
:10C2A000EE6110680028A8D10CB1FEF701FAAC6964
:10C2B00044B100BFFFF7E2FD00B1EE61641EF9D1A9
:10C2C000C5F81880E86940B1154901274FF0805042
:10C2D0000860BFF34F8FBFF36F8FFEF7FBFE38464A
:10C2E000BDE8F081281600242E2E5C4D6964646C34
:10C2F0006577617265735C4672656552544F535C35
:10C300007461736B732E63004572726F723A2025ED
:10C31000732C2025640D0A00A0A30024F8A000249B
:10C3200004ED00E02DE9F047DDF820A0994616461F
:10C330000D4607462C20FEF777FA04001ED0B846BB
:10C340004F460020D14684F828002DB90DA140F2B7
:10C350006B1215A0F4F77CF9FDF7C4FE04F1180187
:10C36000C4F80080201D81E8A002FEF745FE2EB132
:10C3700094F8280040F0040184F828102046BDE815
:10C38000F08700002E2E5C4D6964646C65776172E5
:10C3900065735C4672656552544F535C74696D6594
:10C3A00072732E63000000004572726F723A20258E
:10C3B000732C2025640D0A001CB50024FDF792FEA5
:10C3C0000C48006868B10B491F200023091D4FF479
:10C3D0008072CDE900010A4807A1FFF70FFD0400B4
:10C3E00005D108A140F219120FA0F4F731F9204647
:10C3F0001CBD000068160024546D72205376630043
:10C400008DA700082E2E5C4D6964646C657761729F
:10C4100065735C4672656552544F535C74696D6513
:10C4200072732E63000000004572726F723A20250D
:10C43000732C2025640D0A002DE9FF47DDF830A09C
:10C440000700994690460E464FF0000405D113A10F
:10C4500040F28B121AA0F4F7FBF81D4D286880B14A
:10C46000062E0297CDE9006811DAFFF7F3FC0228E7
:10C470004FF0000309D0002228686946FFF768FAE8
:10C48000044604B02046BDE8F0875246F4E7002396
:10C490004A466946FFF728FBF2E700002E2E5C4D66
:10C4A0006964646C6577617265735C467265655238
:10C4B000544F535C74696D6572732E630000000005
:10C4C0004572726F723A2025732C2025640D0A0084
:10C4D0006816002410B500290AD00878002807D073
:10C4E00005487844F4F7D0FF002801D0002010BDA3
:10C4F0000248784410BD0000D6F40F00CEF40F00BF
:10C500004FF04070E1EE100A7047F4F79ABC00005B
:10C51000040000007003002404000000B4030024A1
:10C5200004000000F4030024040000003804002488
:10C53000040000007804002404000000BC0400246F
:10C5400004000000FC040024040000004005002456
:10C55000040000008005002404000000C805002439
:10C560000400000008060024040000005006002417
:10C5700090B910086CB9100838B9100854B91008EF
:10C58000000000000000000094B91008080100003D
:10C59000000000000000000000000000000000009B
:10C5A00000750E0000000000000000000000000008
:10C5B000000000000000000000000000000000007B
:10C5C000000000000000000000000000000000006B
:10C5D000000000000000000000000000000000005B
:10C5E000000000000000000000000000000000004B
:10C5F000000000000000000090B910086CB910089D
:10C6000038B9100854B910080000000000000000FC
:10C6100094B91008080100000000000000000000AC
:10C62000000000000000000000750E000000000087
:10C63000000000000000000000000000DECAFAA1B7
:10C6400000000000000000000000000000000000EA
:10C6500000000000000000000000000000000000DA
:10C6600000000000000000000000000000000000CA
:10C6700000000000000000000000000000000000BA
:10C6800000000100E80D002400000100040E002459
:10C69000010000008C7D000001000000010000008E
:10C6A0004004040000000000000000000000000042
:10C6B0008C7D00000104000000000000010000006B
:10C6C00090EC0F0001000000010000004004044055
:10C6D00000000000000000000000000090EC0F00CF
:10C6E0000104000000000000000000000000000045
:10C6F000000000000000000000000000000000003A
:10C700009280AEBB3CDEAABBB22593BC99A3873D09
:10C71000416A30BC3114923E039C153D7F5F30BDB1
:10C720002A20223DB16A08BE76399D3E14D07C3E57
:10C7300058EDE0BECE1F2E3E025B483EC746D63EB9
:10C7400030EED6BDFC10EA3C42998EBDC22997BDA1
:10C75000DF54A73DB0B1E33D2F5E00BDA9748B3D12
:10C760001DB54A3D9FE4A73D73A1CC3E6874663D6C
:10C77000301551BD20F95FBC1E36ABBB36F47E3D93
:10C780001856D7C066076941719825C15AE3F43E2F
:10C7900024C605413CC525C1562D38C1FFB5084109
:10C7A000F1F7D4C0FC1BB6C16F9E57C0937C8CC000
:10C7B00013CB8BC052C6C7BF626D303E92028B3F17
:10C7C000FF767C40BBDC1FC1F67F7A404AF2034112
:10C7D00024A422C0F78275C048BB63C175C959BF84
:10C7E000D4DEE03EDABA87C06BAB3E3F03ED9C3E41
:10C7F000C1E04341723327416C003A41BC27893F75
:10C80000CCAF8BC186CF5041ACE2FEBF9506B53FA1
:10C81000A987964185A07EC1187F8DC10F68BF4052
:10C8200093BB67C14168174280003CC134DB9CC0A8
:10C8300065BDECC05F86EBBE9A2E79BE9A82213F21
:10C8400058338E405D4991C1D250D340C8A8DA40D8
:10C85000D6BA1DC07D55CCC07C8103C10727883E58
:10C8600053390B4000FE3CC1DC8D1FBF5C2F3C40A8
:10C87000C4FE33412B5D4041A34D2C4198C9B63FC6
:10C88000CA4B6BC112E46C41D9AA97BEBB9A5C3EFD
:10C8900003604141118CBBC03ECE91C0EA65454169
:10C8A000CE04B1C066E19BC1895C7BC1B47758C03E
:10C8B000D3A7EBC07F6B4E3EF0A84D3FC3E5083ECB
:10C8C0002F446B3EE7356AC0A7801D40E794C2BF86
:10C8D0003C502FC0A4CAFEBFDAC42CC015E3833F6E
:10C8E0007A12C13D3D363DC1F85CAF3F9634563EAD
:10C8F0007F9009411DF6404120861741D63A443FBA
:10C90000BF2F7AC1AF6B0741CD41ABC0484BAFBF22
:10C91000792E4E416C6F35C14839CD3F429DFF3F66
:10C92000D9EF3D409D3C10C1DBCE82C12022B1BF7A
:10C9300034E679BFAB0B57C0618181C04B65D03EF7
:10C940009424D74072DFE5BEF532EE40EFA1B73F49
:10C9500037C80C3F9856993FE00B4AC13C462FC060
:10C96000E16C60C0CF4A5F41C3DF9BBFECA933C01D
:10C9700002E1F7404419DC40ED121441BA198EC0AF
:10C9800096B652C0B81E3E4085AC75C12071A4C099
:10C990001CAA3C40829E7EC13F5A62405AB125414A
:10C9A0009E7F8040565CAAC058AC7DC1B1E32F3F4A
:10C9B000E7FB454018EE12C14AA81CC1066F5FC0D4
:10C9C000BCF1B640AD1A5E403C67D64065566C413E
:10C9D000BE9293405EE0604054BEAFC0D86F21C1AC
:10C9E00042AD89C0A706E041898A9FC07FC4D6C0F6
:10C9F0006E8EDA40BD0511419ADA154100BCBDC00A
:10CA000007E388C10389844194CD6BC0708B983F44
:10CA1000F2DA6741C290DCC0F6D80BC0339F4741C1
:10CA20002D45C6C0D712E7BFD8BA23C21F5E11C1B9
:10CA3000B37062C11CEB7040BFB938408B24B03F6B
:10CA40001A4A6141FC9849C074DCFF40D2549E41AF
:10CA5000B735CAC0895ABAC02ECCA0C08ED81240F1
:10CA6000108A3640DB537F412F74873F55140A40AC
:10CA7000721E44417D77E540202F08415568BC3F38
:10CA800086DB44C15FBB8D4170D708411A44074023
:10CA9000712BE0415765EFBE4E951840BA4F8F415C
:10CAA000F43009409680ED412EDD27C1C0F80CC15D
:10CAB000263384C05239CA3F7CD33340E7F4DB3F8E
:10CAC0004C1157417471FCBF959E7141FCC081416E
:10CAD00009F682C0DEAF91C045D11E3F72782C406E
:10CAE0005ACB3740CA8CA43F16F7E73E3919F73FB7
:10CAF000151367414E4AA4413221B4419C4225405E
:10CB000037B960C1ADC35141FBF74440F74387BE1D
:10CB1000853F8041D141674016392E4082B855414A
:10CB200031F6BA3F606F6041C8BC53409D9158C018
:10CB3000E1C86BBE0F36C33FAEA4AC3FA60C003FAE
:10CB4000CA0D1741518887BFCB7D2141271A7641F5
:10CB5000566BD2C00F719BC011874A414B9EB7BF25
:10CB600035B8923EEBAA7F40833C67BF5F7CDE3ED8
:10CB700011A47C41BBD0264184142641B2897CBEDD
:10CB8000901787C13490C0417B18B2404233CFBF69
:10CB90006FB57E41E8E4084149BA834076129A4174
:10CBA000ECDE4B3F418C82C008DA3541364EA8405E
:10CBB0001AAEDBBF1BF26D40EB10F8BDEFC7AABF8A
:10CBC000F2A56A41E57F89BFC52264415858844176
:10CBD0005C562AC15BF69FC02781AC416491953EAB
:10CBE0001A271F40F2171841768807C028ADCA3FA0
:10CBF0000336B1418F5DD04133409C41C40CA63F08
:10CC00000375C9C19C2B6D41B7F94C41E2AB9EC085
:10CC100094F8D641F37DBF40D6649A3F9BB8E74075
:10CC2000BD2D523FF3F7A9C06FB1E840BC07D94012
:10CC3000C52F03C14C16403FEB736E3F5AAF8CC0FB
:10CC400015DFE1400E32053E5032B741FB0F0F4178
:10CC5000A9528AC03062CBBF1A020141A10F3AC06B
:10CC6000496382BF3F96424140608EC0CEB83DBF0F
:10CC7000E88C8C410357D8410ABE0D41D35FE8BF11
:10CC80003782E4C0E0238341BD61E24027D015C173
:10CC90004B8F7E40DAE2B3C09BD59B40F8B984400D
:10CCA000DF14554010A1A341923FBAC0E2F99D4064
:10CCB000A56A9940A54402C129ED47C122917FC1CF
:10CCC000B0233D41A70241400F99ACC00AE22C407D
:10CCD00075081541C5477740DCFE5B40EA0CAF3E66
:10CCE00004222340CA467FC109FE8EC18C683C40A5
:10CCF0001F1D0E41FB86C23FC9FCAA4042A033BFA4
:10CD0000D96325C179D910417AE00441E3084FC0C5
:10CD10006F368A3F89B481C1B3A8154096519D40B2
:10CD2000A795A53F48F679412EB093C024DE4D402B
:10CD30002808E23F72B539BF7B0A51C037EAFEC00E
:10CD40006989AB400540CB3F78B0D140572823419B
:10CD50001D5139409D6A813F0AD9F2BFFDC09B40F9
:10CD6000B0949D40239B8EC1E0B100C1E0A14B4037
:10CD70004F85434124949B41DEB5A64006B37240E3
:10CD800001135AC15507D040A106B5BFA2781C3F78
:10CD90002951B2BC2D65F1BF66590DBD49BBC140DB
:10CDA000358753BF29AFF03EAC7832C1754A353F65
:10CDB0008E4965BF41F7AD3F3A973E3F1724953FF7
:10CDC000ECE82741AD1708C0663F2BC01D70294015
:10CDD000DB0442C094F0BFBF13E02FC0F541C13F58
:10CDE000EA19B6BE4AE39440F5A7663E0A1A2EBF7A
:10CDF00042ED0541E5CC7740787C7D41720DF53FF1
:10CE000003C630C18A831941759EBCC13342E6BE58
:10CE1000433A3F413824FCC0A71024BF2C2C624168
:10CE2000B574EC3D5013EFBE78BD1D40F42D12C01B
:10CE30003008193F6CA85AC094D478C0507A97BE75
:10CE4000712B9F4007CD90BFAFE47FC06AD46D4186
:10CE5000846E31BF5A2ECC3E48B9C2C177EC7EC039
:10CE60004E1C20C0AB153640DBE41BBF69918CC063
:10CE70007510F240EAE31C41B3CFD040479FBBC0DE
:10CE800077CBA1C11E0235418470A7C14AA324BF3C
:10CE9000F2A31A41F0DB27C17FAF803F00AB4640D1
:10CEA000B6B9D73E9EC32FC06AF3EDC0B17780C03C
:10CEB000EF60E33EDD308BC02C2B8DC00F7F2A3E10
:10CEC00096E01A41E9E8F63EF3A7C1404F8D2DBF29
:10CED000D59F6A40AE56D73FEE4D05C265F25AC0A7
:10CEE00076252AC000838E40251E03BF524843C0CA
:10CEF00073F7534069788840DD2DBB3EF5B780C09D
:10CF0000A9DA03415575E4C0FAB6FDC11682FDBE2B
:10CF10007CF122BE99E1E34030252141730512C125
:10CF2000CD9E0141B9BE834177CD3141241E4AC017
:10CF30009CDEF5C098380CC0F869DBBED754CEBE75
:10CF40004B7524403A544040F114E13D9E921FC07D
:10CF5000F4065340E45CC940F9FCD4C172918FBF20
:10CF6000E2D27B3F0FE08B41E615373D2DF0B33E1B
:10CF70001347B5BF64CB963C4D655CBE77D5DFBF2C
:10CF800044E9694126B5CFC0E2E26CC23FF0A43F5C
:10CF90000270CCC0D76322411ABE8E40FC0865C027
:10CFA00046971440D83B96412D509740A74ABEC0A3
:10CFB000D92AC8C05883CABFAFC5E7BF4E5FC5BC3A
:10CFC000F1DA24C1B5CCB340195485C0BD835BC12F
:10CFD000A1A1C04084B4C0BF20482BC2B1DEF13C47
:10CFE000DB4DF93D8E0025C19E7AF03E951280BF43
:10CFF00077C79BC033D6583FAE7968C1E213EC3E89
:10D00000F672C5407DBE2CC03FCFDDC1C2F9AB3F3B
:10D010008231FDC066490941938FAAC0EA768BBF71
:10D02000B21EABC05EDF01C1A286FC40B269AEC0D9
:10D03000BC70C4C0709D31BFFC733FBF8FE4063F1E
:10D0400011F8C4C0C597583E1E2554C097F11EC1A3
:10D05000081BC8C0F0A112BF979514C2E528F1BE05
:10D060006D2753C03D3184411F42E23FDEA734C0EB
:10D07000B17500C1ECE3ECC010FA5DC0E12905C058
:10D080009D101F404A61AEBF77099BC148D90B3F35
:10D0900098A47EC06BD2CF40578749C1CA9DB84083
:10D0A000822EBBC0D7E188C08F572C408C08B7C0F8
:10D0B00052A625C1126462BFB559443FB335543FEF
:10D0C0001DE0ADC037AECCC0D2240EC192DD67C129
:10D0D00017F9E4BFC39E3FC06EB2E0C19B953BBF52
:10D0E0008AB4A53DD98C30417606E13F34332DC05A
:10D0F00010AAD2C011560141ECCDA0C0AE211940FA
:10D10000A54964BFE24C36C05E1733C0396DA03FFD
:10D110002EDD27C08255983FF362A3C019A2B9C083
:10D120001AC91CC133329841EC4FD6C0341820C004
:10D13000D79C3CC1D1E9A43F8C930F40E33A743CA7
:10D14000A28B00C0F64B50C1A33289C1227054C0DB
:10D15000701831C092E611C0B58A5FC16B89624018
:10D160008A453D40629C9AC129A8703F196AD23F06
:10D17000823ED4C0AE7CFCBDF49979C019AC684045
:10D18000DBBAE7C0C7BEBF40731B1941D1EA45C037
:10D19000A51CF43FD118D6C07A63BA3F3033914012
:10D1A00091E3A2403936FCC0305C27C143DA05C0A8
:10D1B000E1C9474025953EC1F1A73CC1C36B19C0E9
:10D1C000C88A2D3F201C1E400F6E473FBB610641A1
:10D1D000FF94ED405AF89840B64D05C036405CC10A
:10D1E0003ACC83C1C6AFBAC19A7E4DC013D03BC101
:10D1F000237613C0D82D26413A6A813F4C2F5EC159
:10D20000D03B82C196C78C40C19D873F424FE4BF4F
:10D2100041124841232AA6C00BCC0E406C705A3FE5
:10D22000D32C3A4026C130C189A29E3F01BB4BC0DE
:10D230007A8B3340582A01C1E74C1AC133CF15BF4E
:10D240005F7DA540835AC03FC1677C406618CA40D5
:10D2500028AB554092DF4040F7285BBF67503BC189
:10D26000BB9E0DC10C60B1BF40CA2FBF22C7F2C028
:10D270006B8E8740E472CC4022D29E3F1C2ABDC0F8
:10D28000DCA014C180F9CA40E65E8CC0630374BEA2
:10D29000197340C0B11811C138A9FBBF30F7A040C5
:10D2A000E3128EBE3F4A89C15B11914062A717C04D
:10D2B000AF2CDD3DA0C51BC04B0771C086E7853F85
:10D2C00019EBB03F1A749CBFE03A484186A30FC0E7
:10D2D000C1D97FC059A5A0BF607803C15FB5A1C007
:10D2E00044EB9CC0C781873F3B0E233F6FC59FC067
:10D2F000BCAEA6405FE9D13F86A4E83E0DE3D9BFAE
:10D30000F0FE1CC048C99740339218C1874F8D3F2B
:10D31000563EA540B7822BBE1FF91F40399ABA3D31
:10D320008D2B99BD307081C1A4BE6840093969C098
:10D33000384BD93FD16FE6C079C4F4C04698D83E87
:10D3400018C2FD40B487E7BDA3CDB940457EEF408C
:10D35000C33A11409C8F8F3FACF13EC1BDEC1FC161
:10D36000640F97C0C65DAC40C8FF003F9B1EB9C0AC
:10D370002505A9403AC19640FEE60440323BB5C0BF
:10D38000B2BDE33F88A900417AB014C2A6324D3E37
:10D39000CCD4C740C8CBD840D7F21940C2AB7C40F0
:10D3A00021AC3340DE878CC1A39E0AC05E7DBCBF2A
:10D3B00098922E406AF320C1CC3905C12433813EB6
:10D3C00051F6EA3F90A819404A32713F8DDCACBF5C
:10D3D0003B877240D963654094AA91C10E4C06C147
:10D3E0005DC512C1283170415D55C9BEAAB409C1DD
:10D3F000B2511740EDCA1941BA9693C034FC38C1F6
:10D40000EB2F69C04484DFC0AEFB27C1A86789BC8D
:10D410002DA891C1C99B5CBEDEC8BBC0D27B04C233
:10D4200016DDA8BE9EDE1242C38C4C41C694074056
:10D43000E2E6A6C08289F53ED4F1F13D5BAAFCBFCD
:10D44000C71715C13BA1A34048A697C1D2018CC103
:10D450005BB0EBBF55041540C2BE31C131C4163FAD
:10D460007E287E3FCAAC06C1A0168EBFBA34183ED5
:10D470003CCA1BC1262C97C1C463BEC11516343FDC
:10D480005F18CE3F81EE98C1FB0DEC4000A54EC069
:10D490007F8E9AC13952E340F5FEE140C89361C1E5
:10D4A00061615F3FEF107640502F55C0B9A1044035
:10D4B000645D3640CAFFB23FFB8491C07A9028C0B9
:10D4C0002C0EA5C1975161419DF088C17F33343F37
:10D4D000B93731C066AEDF3F9A8442C1BBD41DC0AC
:10D4E000754DB5407407B6403AB87F3B891F9040F0
:10D4F00006349CC01837B2C104BAC8401194C44065
:10D50000E3468FC0CDE066C166F395C0DF91B43FBE
:10D510005DA245C156648B4003A64F408E5293C115
:10D5200047AA1540B2F435C2B9B0FBC07011BBBFF9
:10D53000EEF1C3405736133F25A93A40C5DAD03F34
:10D540004BD308C1DAB7054126004EC18D729AC18E
:10D550006853E240CF1318BFF223A7C16F2DEA40F2
:10D56000D5571940B4F6AAC114D834409822E5BD65
:10D570001F854DC1A1F64FC1A452D1C19C9F40400F
:10D58000A9446C41E53B5EC17E5D63C1F7853D40CA
:10D5900059DC5DC15F908AC0B35624C123A969C11B
:10D5A0005C2E8340A2E50E419B1291C0037E0EC00B
:10D5B00020141FC08EF311C0C2FFF53F6E1DB63F91
:10D5C000EB1332BF3A15ECC031394AC1D449E3C03C
:10D5D000D447F540DD3497C0267D98C1AA81AF407D
:10D5E0003F531FC0FB4C91C02E8A15403AF2F7BE44
:10D5F000A7A739C13D81A3C1386D2240D86C14C0A2
:10D60000F5FCEE3F70A89FC1EABA2CC1A31CD73F1E
:10D6100065B8BEC11F5300C1998A0E41AF0288C1CF
:10D6200005E3E23FF0BD19413591D1C07D45EBBE28
:10D630005685D6C016A559BFE76BC6BEE6910F400A
:10D64000D9B718C15B530EC148179FC1D28492C18C
:10D65000AF098EBFB9E99DBF539DB8C16D96F94022
:10D660000864DA4048B407C1A3638C406F30A0401F
:10D67000058B7DC16958ABC118F405C16B1E5E40B6
:10D6800089B45140F9AAA0C0DF8704C1F05941BF55
:10D69000657058BFCDFD31C07414A9C0A85C3BC0F3
:10D6A000AFDF0AC1096522C28CCBF7C1308D914032
:10D6B0009A63E7C0FECDC93FAF04563E39691EBF2D
:10D6C000C96D58C0A53ACDC0452D15C1A04BD6C0D7
:10D6D000BBA4AFC0BD95A8C09BB6CEC1BE04BABFA7
:10D6E0004FB193BFA539D74006E6B7BF09CD3DBFBF
:10D6F00092B162C0691ACAC01E945BC018D31E40A2
:10D700007737294152C37FC0319F8CC198ED0EC03D
:10D7100037B4A03F704F05C0DD6A0140A6AC9C4005
:10D720001C908FBFC19B274137CAFEC19462B34092
:10D7300003464B401F4CCC3F7FF0273FB61C07C031
:10D740009F5F923F4BECCCC0D2E563C067979DC012
:10D7500076698EC082BE05C04586D0C1D13553BF23
:10D76000D19363BED3CD21C1E97B9FBF0763663FE1
:10D7700038A8233FDF05E0404ADC2EC169B8C6BFA8
:10D78000DE0847C078C9BDC02FC379C1232D0FC0A3
:10D790008A7027C07008E23F15BE05C0BECB69C0C5
:10D7A0000C999EC0A84C20C1A0D684C1964BBF4006
:10D7B0004526A4401CEDA3BE3658A93EBA7618C033
:10D7C000C61681C0259F98C0882058C095BB06C04A
:10D7D000E61F9DBE4D2EFBBFBD8E6FC10DFF7A3E75
:10D7E000F59D373F775FF3C13EDE8CBF8BC5E1BE51
:10D7F000FA9A0CC104ACA1C0ED14A9C0FAEEF1BFB5
:10D800002D6E20400CBECFC0357AFBC0C771EBBF78
:10D81000FF53DF3E6B280341597B06C1F1079D4052
:10D82000B2D132C131D209C176C892C1263F01417D
:10D830005F25E8BF5344C63E859F7B3F3B0E95BFA7
:10D84000F0A4DC3EA34A46C1CBA82C3FE20B693FC3
:10D85000CD57BAC02AEFB7C014D043C1662B313FB1
:10D86000EE7B933F127BCEC0C36C5BBF91B8363D5D
:10D87000CB86B6C0B86837C0FEF5F0BF55BEE73FEF
:10D880003F470E41C9F631BF03A0C0C083341CC05E
:10D89000C738033F3704D8403954E9C0BDEC93C0C2
:10D8A000E6DA04C136E39A4048AE08C130C51941F2
:10D8B000394264C07920DE3FCF99A03EB3BA3CBF65
:10D8C000812900C0C1C0D4C09B9DBBC0AD81A7C091
:10D8D000927AA6C087BC96C04CA752C1BBB5B53FD3
:10D8E0007C9A1440557F7EC12C8C90BFE972D63F44
:10D8F000A49631C038FBFAC05809D0C03693863F91
:10D9000017C72C3DF5E376C069FC1CC180FE01C041
:10D91000972462C0BD2C26C13EBB784052E4BDC0F6
:10D92000415695405B12B9BE985846C1546E713F3E
:10D930004D20854066BD1DC0A2A2C03E50EFF6BF7F
:10D9400034FB843F53AF3C403B5426C1CF2E2BC009
:10D95000E1642D416CA5D34004119EC17015CBC06C
:10D96000A30818C11172C5C15FCF01C09FFF0FC1CD
:10D9700033F82EC0C6F61DC09A06B3BF658709C12D
:10D98000ADD94D40A0D31C3E6A2F0AC04245B1BF5D
:10D99000D034ACC084E008C1125857BD495EB3C052
:10D9A000539DF63FD615B7C1B9D014C154B51BBFAE
:10D9B000863B5AC05EB411BFA9E1883EED3E90BEE1
:10D9C0003A5BFDC07F24863FCEED97C025E6B2C00E
:10D9D0009DB4CB3FBBCF713E76EC28C1A36C94C005
:10D9E0009EA8B5C098923FC167583FBE18A287C095
:10D9F000B5F17DC00B27183F15FDD53F4437A3C0B7
:10DA00004D0504C0637FC4C0C2A307C1B36F883F84
:10DA100075D93DC05F6CA53F70928FC06DAC103F53
:10DA200063444FC0A6C78BC26F8882C0BBD514BDEC
:10DA3000A4B0EDC0D2A49D3FC27202BEBC423F3E24
:10DA400042B76ABE729369C03348D43DF03C743F1C
:10DA500016009BC0964A7BC0FBCF14C1397AE6C042
:10DA600010DBBEC080EFD34027B2843E4DDDA8C09E
:10DA700071E288BE4642FD3D5B1DE1C03235CEC03D
:10DA8000BF89EC3FB35739C04EBB35C0E2CD66BF4E
:10DA900084A19CC0A1AE0DC0D31A25BF536B06C193
:10DAA0005B9F303FBFD22BC20244A23F17A99A3ED0
:10DAB0002785EFC0495405C0C83D46BFF641D53D56
:10DAC000648DDDC0EDDB853F08E6A8BF6E20D8C0C1
:10DAD0000FDE4CC0EB3072BE168D9EC171EA6EC176
:10DAE000F37B93C1746BFD40B2A170BE508192C1B3
:10DAF000B9DF63C07FB81B405A82A1BF563BAEC19D
:10DB000006D5B340F0B248C0062D56C1AC4E42BF58
:10DB1000BCABA1C06B0FA6C0C788DC3F5166C1C0BB
:10DB20006C0AC4BEA51EF3BF42AED04056EC99BFEE
:10DB30006A89BCC0E1E621C0B2FD87BF0945A0BF2C
:10DB4000658094C0A8C02A405E5CCDC0576F0CC1F0
:10DB5000550985BE34FEB93F14CB1FBFF0015EC12D
:10DB6000367C86C1DBBFB940BD520ABFB70582C152
:10DB7000633674BF2BD983C064BB11C0B8E888C1B9
:10DB8000EC83CCC1876BA64163627FC13C9BAF3FF6
:10DB9000FFA0CC41104721BF75B96EC190EA674123
:10DBA0003FE95BC12B1487C2F3C523C043FAC5BF4D
:10DBB000CF4481BEF43177BDE6CA22BEF988E83F82
:10DBC000164E614138D25FC1BC11D2410588034273
:10DBD000CDCF0DC16E22F5C09A1123C25A982040B4
:10DBE000B7EE63BF02186640DE2DAE3F08D8813F16
:10DBF000C469D941AB0CC941B9F3D341EB35A63F58
:10DC0000FAD598C12887F641226980C0DFB6B13DB8
:10DC100007D4C541186C2CC07CDD8DC03C95AD414E
:10DC2000CFAAF6C085738BC128809540662E173E1B
:10DC300071A6F13EA5317EBF7DBC13BF2121E73F18
:10DC4000A8018E411428F0C033090042C276BF41BA
:10DC500070D4D6C0BC049BC0E2A25EC167E69BBE86
:10DC60007850FEBE4CFC4E4185498D3E469C5F3F40
:10DC70006ED67C41CE6FDA4193509F4114D3303F32
:10DC800094D46EC1AABEDF41C87A5AC0402630BCC7
:10DC9000807D4A4133C11EC1B1B90C406594DE415B
:10DCA000C81003408A6B3F41517E6C413B071140D5
:10DCB000FC2C82401DDE583E69B74DBFDBC280BEE2
:10DCC000983A5241527843409029BA41CF27FD41BA
:10DCD0005E4F23C06F29303F507CEEC04276943FA8
:10DCE000DFF1173F5480C24028954CBFEE49A93C54
:10DCF00074A09E411ED8A3410E86C3413F82983F27
:10DD00006BCA8BC1DA1D5E41B1CFB33F962D7B3F0D
:10DD100095C7E041E6E5F7C035B04540D27BC2414A
:10DD2000FE349B40980EA341E584103EC4DC1E3EA9
:10DD3000EC7BCD40446D893F754DC03F4EA88FBDF3
:10DD400052C15041C15A134027F2E74116FFE24148
:10DD500019941EC0EB261BC006371CC0523E0F3F55
:10DD6000F4F92F40204BCFBF3378AD3FC1D9FF3FEF
:10DD7000A5048841471DC241FA7EC941EC02044016
:10DD800027119AC162FE9C414CC75E4074492240F3
:10DD900036489B41356748BFE2AB12C12E27C041D0
:10DDA0000BB66BC170D3BABF9B6FC6C0A80B9BBF2D
:10DDB00051972AC07E576B406F40154068A5F23FCF
:10DDC0007B0E6541C87A48C15291E1412AF2744103
:10DDD000A38C41C1F71534C1B0F67E40803C75403C
:10DDE000F01859402E2993C075801E40B526774003
:10DDF00036BF4041DF40974126209E41DB198040DD
:10DE000023FA1740A9C19CC01B5CDBC1D689A4BF03
:10DE1000BC6016C1C5878A40B874213E7D6992C036
:10DE200099B83540633FDB409F874141F90CDF3CA7
:10DE3000C9583C41300093BF718E1EC093103CBF47
:10DE4000020DA1C0FEB41740ADD685C02595D3C044
:10DE50001554363FF79BB73F05B031C2586A98BF9B
:10DE6000F77D24BE3B0E37C160560EBE372663C019
:10DE7000FF0997C03FB1CC3F391131C11A755AC063
:10DE8000081B75C035C741408F610EC20C3700407A
:10DE900070765240B6544640AF3BCFC038D278BFC0
:10DEA000FF2DE9C08286BEC110594F41EF603F3E51
:10DEB000DC338441C57FC83EB4BFFF3F12BF923FF1
:10DEC00049B42AC0EB2500C1AD2269C01ECD683F10
:10DED000DF7865BE269899C07C0B1DC25F666F40D7
:10DEE0001B828C3F80721CC1CB240A40893A464079
:10DEF0000DBA4BC03D7B81401E490A40299CE53F3D
:10DF000038CCE53F191E1FC06D78EBC1CECD29BDC1
:10DF100007D841C16B9C0D3E3BFDB4C0BC13ACC0E7
:10DF2000FB2306C1C112B0C1B20E23419DE5423FA1
:10DF3000307ABC40570B9F3FAFABD33FBF79993F7F
:10DF400048733AC102CEEFC0163B5DC156FE9FBF7B
:10DF5000230801C12FF297C038B520C224FD9A3F93
:10DF6000A6039640D216E8413506923F093B35405C
:10DF70009AB13BC0F65014C131FE05C10C550840A2
:10DF8000B48D4F40DF9C1FBF65EE37C2B0B593BE66
:10DF9000AEE4E4BF83ED6A4054364D403D18A5C061
:10DFA000EFA20A40FAD3FDC1B9215A41BA9AB53F4E
:10DFB000331CFE40D112A1BF446A70BF5C35FCBB6C
:10DFC00097210C40DCB1053FED0FEC3F6D9A9DC0F1
:10DFD000BB9A18BF04B41A3EBB4C0CC2F5EB81C00F
:10DFE0006C64CCC0105E1C416C6D9BBE1AE6A0C078
:10DFF00045F68440AB12CBC0B8DB9B3ED85D27C052
:10E000003367D140C328F6C0F09207C2B26EA63F74
:10E010000C0D59BF3062C14051A2B83E7A1462C1A2
:10E02000CB3A74BFB54F20C22F1F9840C2A7E83F1C
:10E03000614CB740F98F0DC0DBABD03D7DCA6DBEE2
:10E04000D1C69CC03268B7401BBECE3FF8228FC0FD
:10E05000DAEDCC409FDD74407B3F68C1B2299FC0A0
:10E060002DEAA4C07C6F86C1053A65BF3C92B6C05C
:10E0700085E08DC0AD8774C06C7A5FC0D7858CC0D9
:10E08000B6F886419957AEC16AA9A4C1D23CAE3F49
:10E0900009BBDFC0FE8F86C00F612EC1DBBA38C15D
:10E0A000B9A305C1B5F12EC2B40C8AC033CA91BF61
:10E0B000BB65E2BF322510BF5A1A023FF25B553EE4
:10E0C000DD2D65C1628026C13B4D9DC165A4CCC0DC
:10E0D000F7E88AC0694283C0F284FBC148EC6CBE99
:10E0E000C2A0933F5203FFC04D2E5D3F1640863EB7
:10E0F000962520C1260A90C115485DC175E0B2BFC2
:10E10000CE45164188E38EC110D8F93F82115D3E9D
:10E11000B2DC19C1604897C06DF45BC18BCF2FC1D1
:10E120000545FAC0A35805C2552036C07EB59BBF31
:10E130007D6D95C0CC7C2440CB899D3F5748813E66
:10E140006EFC83C1125440C18CFF93C1AC08A9C1BD
:10E150006775D7BF217CDFBFFEEBC7BF3EA6913FEF
:10E1600087B6474084777BC0E30A4C3FF95C474061
:10E17000F5E186C117B091C18A59C8C1DEE84F40A8
:10E18000A42E8641AAA61BC1348E1E4050C6463D11
:10E19000D6F96AC18038AF3F7C8C3BC1B8A626C196
:10E1A000F6797CC19476E7C158EC803F81220FC09C
:10E1B000825C82C06FB73E404BE1B53FC3428B3FAC
:10E1C0008FFB2EC1350A88C14CCB94C116B8A4C0B0
:10E1D0008AC406C0C5843AC049DA0B41C5D8E03FBD
:10E1E000FF4D0D400555ABBE78C038BEEBF70D4076
:10E1F0005F2C31C0622559C1F3C20BC1147AB1BE84
:10E20000E7479C41D77576C141A30AC292624BBFD2
:10E21000730325C13DA211401AAB1EC14A9AA1C188
:10E2200048BE0EC1292481C22A293B405C8C29C0EA
:10E2300017D345C072E9883FCE79563E5916FABECB
:10E24000C544C2C11BB90EC1E142C6C1C0943AC1A6
:10E250008696AFC0F1E8CABF2E5118C22EB78EC045
:10E26000F882C3C072B2FCBF6E321DBE7A44C4C015
:10E2700051A872C1DEE65CC1DA7D82C155FABCC02C
:10E28000BFBD8B416A5407C17FCB63C20F194FBF1B
:10E2900093215AC1C8C4CB3E036D5D3F14801CC19D
:10E2A0000FD5E5BFD3C1D8C1B9C5C73F0530013EC1
:10E2B000024FA4BE92C62DBFF88EB9BFDF6300C067
:10E2C00090D351C1F3CE7140FBE995C1E5D717C199
:10E2D0002155CA3F41843C400A3488C248D0ADC071
:10E2E0005046DCC0F6168DC0874205BF189BD9C0CA
:10E2F00089605CC123F334C1941A90C12017C4C053
:10E300000A729E4045BA0EBF0C9FF6C18F4401BEF3
:10E31000823182BF130A7DC1B37B16C17095EEC0F6
:10E3200075E50BC1BAC535C181A7A4BF3DE98C3FD6
:10E3300061FB9040DC3E0C40925681BE698D173FD8
:10E340005788E3C0AD5BAAC0122AD6C0EA5FC3C03B
:10E350003E930CC0967175C0F50ADAC1D8A95B3F2F
:10E360004682EC3F90B13CC149D4C4BEDA1E403F66
:10E370004D50853FEAFAA940051C21C1FDABF03E96
:10E38000C48ED93F7A00B5BFD528A8C11C4D7E3DAB
:10E390001B723CC153E6A9C1E3C883C1F1EBD1C0F4
:10E3A00097AAACC190AB23C270DA60C021533B4046
:10E3B00093248DC036BC623FC43011400817803FA3
:10E3C0007DC1EBC0463687C1F48B4740BE40574005
:10E3D000A1E8DAC089A6F1C0F3F2DAC179720D4082
:10E3E0008870DC3F3F71E7C0BA71BC3E8E79963FC2
:10E3F000FC0B0240B56B45C141C1B6C094986D3F5E
:10E400001D81643F1813973FC98C0540FFDF68BF2B
:10E41000FAA929C0AA0F99C13F3D35C12D71F7BF97
:10E42000E6DDCDC09A1735C19F6B23C1635C4340C5
:10E4300029F012C14DB1AF3F1A8C963FEB691ABF5C
:10E44000744C01C196083CC1503E0040896DBA3EF3
:10E45000E80C0EBFC1928CBFFD033B40A6F9E2BEA3
:10E46000CFD4133E834E96C0A883E6BEFD3208BECD
:10E47000954CB93FA552E13F605729C1868F39BFFE
:10E480001E2965402DD2374011E4294132489EBFF4
:10E49000595F47C19B386CC160A63DC128682AC13D
:10E4A000B9D428C1EC4E1342057AC7C1B13A6740CE
:10E4B00015DD43C1634D74403B74D93FF80CF3BE86
:10E4C0009EC93FC1304A17C1877777C0988E483FB1
:10E4D000771CD0BF2D0D96BFAF652641592C124039
:10E4E0005F442040D99401C00BB901BDC3EBF03F9C
:10E4F000D4C17EC014C285C02FF421C0DEA68340E3
:10E50000FE541EC09F51AEC0CED69A40C48864BF90
:10E51000D5EECBC03F83B8C03959ECC0C71A58C03C
:10E5200084110CC1E81DF64132AB9DC11E263F404F
:10E53000543657C160B06F405EB9E73FE43F853F56
:10E54000AA717DC03B970CC157B15640A9FF49C085
:10E55000C4C7C6C09E9163C09AD5C34052C0244070
:10E56000C2B51C4057366640661233BFAA2C6D40B8
:10E57000566B5DC0FA8AAF3FDFFA0FC116187F40B5
:10E58000473D9B3E78843DC089453EC10C9C1EC1E1
:10E5900020EA683FEBD9CD3F6349B63FF595F0BF20
:10E5A000C1F15840C81AA4C1DD81B5401F19833F8D
:10E5B000AA00943FBFEC46BFA87795BDB7C82EC14F
:10E5C0005C84D3BFBE89754088BA2241236CBFC02A
:10E5D000C7812840ED3E5C40C91E2D412E6314C109
:10E5E0008E1625C1AB1E9EC156C311C1315604C142
:10E5F00093F4D04069231BC1B28289BF9D6801C1D9
:10E60000656296C0A28E77C0D4782FC18023DEC009
:10E6100064B0AF404A4B3D406B7BDABE99C9CBC07A
:10E62000C9C588BFCD2A33C2D59B00406ADA963F60
:10E63000A36125C131836D3F934BB93FFE36AEC018
:10E64000885621C0A0D562BFB89582C044F2D6BD1D
:10E65000BA41643D0DDB37BFB70DC43FD6EE18C1DC
:10E660009DCC30C13CE6D9C0A6E5BDC04B7223C1EC
:10E6700015CFB740A051943F42B88640C68036C1FE
:10E68000945204C06A05B3C0198A91C0E63F94C091
:10E69000333DF340466C92BF903F6EBFC5ACC03F68
:10E6A00042C4DBBE539DD3C15918D4C05619383F5C
:10E6B000A0DC44C19D28B0BEB0341EBEE88D15C09C
:10E6C000715C813F62C12ABF77B4A1408530404070
:10E6D000203CA3C036D931C0071492C047BEF7C052
:10E6E0008609D4C083DAA63FA2BB32C0889710C186
:10E6F000EF1F63C0AB364AC056B0E9401759FAC0A5
:10E700004BB424C193A54C3F4D5E19C14FDB86C06D
:10E7100026CECD3F23C4B6C0BC4272BEEACB274052
:10E720009F7EDF3CC083DFC1473541C115F5E13F26
:10E7300043F152C13D95B23F2137363F094ED3BF19
:10E740008E27543F9E2BFFBFDB0D3F40F159D94030
:10E7500084B0F4BF55DE04C0D3F297C1F35194C026
:10E760001D778CC07C361740E8931FC0335564C0BA
:10E77000E97FDE405966CAC0C2DC9FBF6460E6C064
:10E7800076D34240A43B82C008B783C17F3F33C0E9
:10E790009485AC40DCB802C17CFDC7BFDF26E23FF8
:10E7A00090E1623C6ADF79C17D637DC16A96024077
:10E7B00044D121C1F0965E3F945B44BDAE722BC044
:10E7C0009C56B24098B28E3E622882C03EA5D6BE0C
:10E7D0001F560AC08FE9F1BEE340CCBF6AEE07C006
:10E7E00071A18DC0E87AA73F4BAA05C00D4B85C02B
:10E7F00080C69B40B79849C086DA39BF544182C071
:10E800001FADE340E89973C1E71B99C1507895BFEC
:10E81000294F71C14B7FCC3F5599B4401E3A6BC113
:10E820000AC2A64058DF10C07FE8994065EDC2BF1C
:10E83000E331CCBFC7DEA5BF84AD80BFE57C6FBF31
:10E84000931B05C1FB31A84007BDC33FEA6A06C15F
:10E85000B5240741CF90CD4049CE9DC1B77752C175
:10E86000F60790C1CF724FC1FD000FBF33BF88C103
:10E87000FF50B8C0002151C1D75A1EC17535A2C181
:10E880000CB402411E1015C1E3AE67C19B9236BEA7
:10E8900087818BC1522DAE3F69B295400C0C32C1BD
:10E8A000814260406AA50D40D4DAA34008BE2FC063
:10E8B000E378893FCE710FC0B0B9DFBF635B9EBE06
:10E8C000F44CF8C07DA4873F278E6CC152CA48C162
:10E8D000F9B6BB408CC48040062ED5C050C74BC192
:10E8E000AFF381C11FE073C0B77D65BE746780C19F
:10E8F000D49610C1B6C141C128B24EC16C86BAC10E
:10E900009EA66C41351580C174F9C2C1D2CFD73FE4
:10E9100097BA1FC103BA1FC0C99101C00F0E52C1DF
:10E92000170A72C0CE56E84022E120BE564327C0E7
:10E9300003401EBFB0DBAABEC9CAA43D8853C73F6F
:10E940009C6A99C0F6B3DDC0F9F863C1949B32C1EB
:10E950000F770DC0F0F466C08DF166C11FB887C097
:10E96000427DE8C0062141C02981AD3F1C47E3C07C
:10E97000E1A691C0B7583FC140F8F4C0497A28C118
:10E9800059C62B41C30B33C138EBD9C125915A3F2E
:10E99000306A87C1DF8CF3BFC7CB11C033312CC1C4
:10E9A000599CF2BF2329DFBF73AB5AC0EFF52DC0CE
:10E9B000DFBB8A3E081023C03C12A93E95F6A93B56
:10E9C0000DD22CC113C69B3E8C4CA9C1D80790C058
:10E9D0005E31B1400B420A40050EEEC123E9ABC0E7
:10E9E000C163C8C0B0CF1E40A910823FCA580BC136
:10E9F00047C7B5C0898791C1DAB832C1224D22C15B
:10EA00003D466F41D6F342C1DE8A5EC100DD833EE2
:10EA10004C019BC04DEB32C0F9243E402F6863C1CE
:10EA20000ADB9140E26179C133DDA6C0ABCD42C0C3
:10EA300015993240820B07C04FF71EBFF13E173FBA
:10EA4000225944C0E8BC8740F6BB4DC14D4879C14E
:10EA5000F5F38240FC4F6740188312C204E108C0FE
:10EA6000BAAC10BFF9FD6C4102BE8DBC87398EC0B7
:10EA7000B852DAC0926E8EC1B97A5CC114658AC090
:10EA8000BCAD66C1FDEB1C414D70504167F429C11E
:10EA9000476B00413CB43AC0C5F5164008C87F40FA
:10EAA000FB85A23F9B2D89403C00A04055B295407C
:10EAB000D741DBBFC49B90C0E4950CC199C115C17F
:10EAC00010F82D41680CE73FB66D8541AF521040FC
:10EAD000BB9E1B40B633703FA634244127692FC02C
:10EAE000B6E770C0B0559CC19EAC2FC1D17E1BC093
:10EAF00082DA3841D0623941B086F1409AC9C4BF48
:10EB000018811DC106263A41D2E80041BC5C55C0BF
:10EB1000B7B9544172AE5BC13294653F00F62741EC
:10EB2000E048A5BD8414CAC0D27CF3BFD5D7B0BE1F
:10EB3000A2F2004044760AC1EB091CC1FF708EC0EE
:10EB400002E994400B5F863FD9602C400A63704114
:10EB50002DF4944037A0303E7133A6419DC7BCC010
:10EB600026AE8DC0963BF9C1BB5573C0D7862BC06E
:10EB70007F601D41704D6C408F79BE4045BAABC07F
:10EB800078604CC14CB33341171663C07305913F95
:10EB9000FD5EAC41FCF2CCC04FD7B53F6B523C415F
:10EBA000096DF4BFA72746C1EDFE96C0B64760BF0A
:10EBB0009502E83F64ACD8BEDD65ADBF435F8C3FD6
:10EBC000FE2402410DC2E33FF4739241A069A5BE49
:10EBD0006AD711C0A83794BFF9F233C016739DBF2E
:10EBE000CB8C52BFAA3EB63DB854613EF04383BFC2
:10EBF0001551B340297B8541956E8241D6EDE9BE22
:10EC00001CEE85C1E75E2C41D9AA95C00CB9493FDD
:10EC10009A2831410C92A7C133ECE6C02FE246415D
:10EC200084B701C1F1B4B84136F9C0C052B5F2BFE2
:10EC3000BF01CCC09E0F223FD4C0C03E46D4EB3FA4
:10EC40005AFE9E409D95F5C00862364144B9B441D4
:10EC50000B5AD2C0036988C04430EBC0932939BF36
:10EC6000C9139B3D7206ABBF5DAB7F3FFC73053F95
:10EC7000F0EA4A3F82209241949947416AD5A8BE62
:10EC80003E0240C17BCC8641E2E6DA3F8AA09A3F51
:10EC9000A23A0E4117406DC1A1F76CC162931741B2
:10ECA000F5581FC144CAE4410052C0C19B91CCBF7A
:10ECB000A6BD1CC255E4203E9462213BFC2D923F30
:10ECC000E8F97B41E2E77FC1FBD881410F6D464106
:10ECD00000E50BC1DDE48BC0B0FD2C3FC6E8053F6D
:10ECE000065D803FD0712FC1A73C2D3FAA47223F30
:10ECF00053965E41F9A708414A5D8E41C001AC3F81
:10ED000022C660BFF6E019C028AB7A4181298BC0CA
:10ED1000FDDC24C17C1203413B3C96402BCF733F6A
:10ED2000695F593F9FD745C1CCF7BC3E6844F54069
:10ED30004037F9C08A0ABB3E82AEEC3F02AF77C0D3
:10ED4000F0B020C1BA69AFBF72201CC012824AC1A4
:10ED50003728543F4E233EBFB0DEC83F405B9CC0C7
:10ED60000AFE6ABFEC3EFF40680290C0DD05B0BFFE
:10ED7000BA8D9FBF6B86A4C00996C63FD743D13ECC
:10ED800097846040964C94C1469810C156EE3BC1A2
:10ED90003E240FC15BD6EA3F23C7B84002844A40F5
:10EDA000CB5C88401EBC9C401CCEDBC0E6B3EE4072
:10EDB0002AA11CC0F26E4AC08AD7F0BE4A4B29C1B4
:10EDC00060B634C1F263AB3F488597C1C00D0FC137
:10EDD000DFC18240BDC88940866BBBC1264117C1D7
:10EDE000875200C1B48A8DC1C4970CC144C230C1DE
:10EDF00027C217C15106E2C0CF9B993F643775C146
:10EE0000B8FB0C41F64F7CC0D20801C02732E8BFE6
:10EE10009ADDD6C069CF22C05A1800C0A5EC1CC12B
:10EE2000130F14C0EAD35240CEB429C1A246A0BFEA
:10EE30009AC62EC05BBCB43F0E6B663E7EFBB7BF6E
:10EE400003B173C071D9A9BF0CD852C1C38846C1E0
:10EE5000BD1414C0BC6C40C00B1F76C0536164BFAE
:10EE60009476B4C0FAC856C12FD084BF5ABD2AC008
:10EE70002823DCC09AE3253FAFD0063FB98257C0B4
:10EE8000AB99A440251771C17CE9F3400DC8D1BFEF
:10EE9000799464C13D6F0DC1B2AC4C3F18CC68C1D0
:10EEA000AE0239BF301C14C096729EC1C0466EBF00
:10EEB0000FFEF2BF8ED3B23F029B0E4013C03CBF89
:10EEC000937C09C15B72AB3FFF0445C1ED049C40DC
:10EED0008AC51AC043F5DFBF5A3A62415F9DE23FDF
:10EEE000DF1FB23F60A31DC0E8D218BE2CB6573F4B
:10EEF000E7BA18C1DA71C2BF0B404A4031A7903F50
:10EF0000AB366BC074F813C1FA97F4C1D4836EC0EA
:10EF10006A69F3C0340336C19C62233F0543ACBF2A
:10EF20009D87EC3EF61300C0CC54B5C19B884C3E87
:10EF3000E8A29C405092C0BE8C0FBFBFE00E24C020
:10EF400040E266BF615A5A40AA9ADEC0892121C1B7
:10EF500017ED0F3FB38E45402222EBC1B416ABC074
:10EF600049043EC18C2CB1406A1AFEBF30AAF8C0D9
:10EF7000FE3635BF1F2218C1618026C1497218C1F3
:10EF8000D16255C1878B26BFA9639DBF706060BDEC
:10EF90000F9F07C13A41D140F35927C1C8C38E3FE3
:10EFA000DF91D2C02781E0C109C61E419C9182C079
:10EFB0005941D9C0ACACBBBFC434F43E87ED68BE88
:10EFC000CEE1394106AD11C11A8808C19E2DD84045
:10EFD000D55AE9C042675AC05903B03FF01CA3BFDD
:10EFE000C53A6BC0069F0041D2ECF23CF7A680BF49
:10EFF000E91CCF40BC1F47C07BDB563FEA7A1F3F6E
:10F0000012AB77C1AEADA93F8876C4C0BC2184C025
:10F01000417B2AC0EA5E68C196D6C3403597E84076
:10F0200029C315402E7E4042E9C10CC1B73A4F407A
:10F03000E97716C0EFEA93C01DEFF1C0E02654C097
:10F040002EED8E3E4E74E53F599221C04A47A4C032
:10F05000E692594050230C4098EF13C1F141CDBFC7
:10F0600046619E3E68304140DB782DC10689A5BFD0
:10F07000047CB3400657C0406AFB51414160E3BF86
:10F080003C2616C1FB6390C04060FCC0261DA3BF98
:10F0900029357FC0C58BCCC11E651F407A7C1BC142
:10F0A00009CB72C04F67D041508491C102142540F2
:10F0B0009FFEC7404C2480BFCCE4B7BF062D8ABF5B
:10F0C000BDC3383F19602EC1FC74C7C0777A8ABEB1
:10F0D0006BAED5C053189FC05CEB23C045FD8AC002
:10F0E000ED3F03C03B93F8BF0D4813C0BDF3573F3E
:10F0F00049A049400365A34047EEE5C0450B8BBFDF
:10F1000079247CC013C51DC1F91144C130A6B13E9C
:10F11000F0138A40312166C17B7193C067F6193EB6
:10F12000E748A8BF4E37A4C18480ABC0339BE2BE82
:10F1300059C2C93FE49E0FC03D95F1BF83D61C3E26
:10F140005883CDC0AC79A6BFDD4A8F41F7BB08C15B
:10F15000449EA6BF21BC063E43C4EFBFAC9EB1BFD8
:10F160000076B8C0AABE0BC04C58183E28603B3F82
:10F1700094C5D1BFFDA6B23F4DD5B140C541ADBF8D
:10F180004D7ACDC024C1AA40C9A069C157E252BF7F
:10F19000E258A6BF502B75C1C5437B40EEBBF4C0FF
:10F1A0004066CFBF57632A416BFE97C00A76B3C053
:10F1B0004833664000782BC0431776C0E7BA38BFA3
:10F1C000DBFD903FDC9D9B3F67830AC1C13F20C1AF
:10F1D000456695C058975ABF507D90C1C530AFBFA6
:10F1E000BD4295C0A3C539C1F77BF7BEF1D523C099
:10F1F000DCDAA4BEE6EA06C1B7F90A40A4D1AEC083
:10F20000FD57CFC18B7D5341E2CE963FC2A195BF42
:10F210000DA49E4134805AC0D740C3BF76E3484115
:10F220008CC86A40DC4AF6C04D193B4032FC1C3F9A
:10F23000AE4D47C0615831C0B18733BF6568C73E26
:10F24000A6654B41589D983F5EF58341B77B7A4157
:10F250008D844BC0E879F13FE53378405660CF3E6E
:10F2600087103040B73356C0CB3A413FA00F81C022
:10F2700051DF8241F7CFB44141393841C19E96C038
:10F2800048A6C3C1D453C64137B17F41E63FEA3FE8
:10F2900094A54841186B0A40EA071AC1CDB9C34189
:10F2A000A6B901BFE461724042BD14C0711167BFCD
:10F2B000A6916ABE9B94F33F6E0E19407D67223C77
:10F2C0007E45BD41F35CC5C014A1E34188B06F40E9
:10F2D0008749DE3FC6685A4005AB9EC1299E5AC089
:10F2E00005D167C04E67F6C0D48D1FBFE8DD9940D9
:10F2F00089FD4A4185A5FA41B1BDB741A3A0EFC040
:10F30000D47952C1177F814147DD8CC03E2AFABEB5
:10F310001194934141DB0D3E1C7E35C18D89BB406C
:10F32000B13808C1A75287C18126D4BEC0FE1AC019
:10F33000010B4BC03F37663F84D1A23F427F9ABF4B
:10F34000799ED740E5E20C4116ECBD41F6964CBFE4
:10F350004D503140769814BE9F213B40F4431D40F0
:10F36000A0780A40127D9740BA4DF33B48A045C0B3
:10F37000CDE78E41DF5607414B456F40ED7747BDE6
:10F3800074874CC1AFB4034287941CC104A9ED3EFD
:10F39000F9BD8241A1DDDBBE69F32EC029FBC0416E
:10F3A000251FD64059B475C187641FC0C2F910C06B
:10F3B000E3352E41B05903C02DE33AC0365F92BF0A
:10F3C00058776541F72C2B411ED6F74159EDBE41C8
:10F3D0006378BA3F77FD3C405BE406421C9872C0FC
:10F3E000F15D11C00BF31E41882B5ABEF64C81C053
:10F3F0000E0A554149990C41A0BDF4412B54E73FF9
:10F400004D2689C0D4A8194108FAAF408C0AC83FDC
:10F410005C1F004249769A3FFC0634C14ED39841A6
:10F42000A65ADAC0C17BD641D64EBF3FBA2616C017
:10F43000DD36C3BFF79C3940040AB33FDF02733F98
:10F44000D0B45641ED9FFCC076B35141D2D97EC0B5
:10F45000C6C085C011E5A7C0898E7A3F0F08B440A9
:10F46000D8392FC08864D8C1C56326405DA73AC08B
:10F470007CAE4841E120AD4001BD85414BF11E40CD
:10F4800037C9FCC05F3B8DBE9DD91F408C4F8E3F5E
:10F4900078E836C0CB4F13BFBE4DB8C184EAE03E1A
:10F4A00031AF93C1475F58C18446E2C0B0FB5ABF39
:10F4B000111549C0B7061740E394B73FFF65D93F20
:10F4C000CAE525C024F1A1C11C3914C0FEA4D33F54
:10F4D0002CD013C1C72524C166C73840F5B8EF3F0B
:10F4E000DF2F8B403EE8A641C711C83FA8A13A4094
:10F4F000CE920EC01B38DB3FD75657C06DDA3C406A
:10F50000FDAC15C0AB3C913DA22F17BF25665F3FF8
:10F5100071080A41E54E36C040D427C1DEB5C5406A
:10F5200094A912C1A575EFC18500BDBFB97B8DBF80
:10F53000063F8FC0319BB63F3BE1893FBB498D3FC2
:10F5400013104BC0018BABC010644D4096CB3840BC
:10F550005D54F5C0B51AC3C0AD6D8AC0F8A815409A
:10F5600080C1E63F84132C41F01EB83E6327D63F8E
:10F57000719C713FBA3E6D3D6360CF40C4F403405F
:10F58000C1721A404DF65FC0F1DACEC02AF50ABF4B
:10F590007BB4DA3EB21581C007EA053FCF5547BFBD
:10F5A00053BB98BFE1BE9DC1751C37C0CF10EBBEE9
:10F5B00081ECBFBECFFA46BF232A10BD35B07B3DDC
:10F5C000788C613F88CFA2BFCB02543FF5D161C098
:10F5D000BE7AAC3F1F9CA8BF1F1770C17CB8663FA6
:10F5E000F3AB86C02F5994C040B1BB3E6E06BBBF83
:10F5F0004EBBC0409D73E9BF2F883BC0DDDE5DC0C0
:10F600006CB568406E8A7BC0D446D93F136D05C087
:10F61000AAE315C0CE0F17C1427670403555E5BC40
:10F6200066A356406CA3D9C09F394DC138EFCE3F79
:10F6300079BAE63FACD9ACC0C7A485C0F4178FBF78
:10F6400097043C4094588B3FFF2317C1CE8FA6C030
:10F650006BDC963F355A4E40E71EB5C144E266C1A9
:10F66000B3FE53C18CF0B240F167B5BF652C1DC12C
:10F67000C51CE03F555C44C117C5D4C02D156CC1F5
:10F68000614D864049DA5B40150E68C0A45409C03C
:10F69000B17AB7BF97F28FC1B5635F40FE9613C0D2
:10F6A000498D8E40753DB340B984E6C1B973703F52
:10F6B0003949284043D109C12F3116C1CC2DD7BFBC
:10F6C0002C69723FAB8AF73F4D5B1240786791BF60
:10F6D0002AB79F40A4F06B400B0360C1C42C82C1C9
:10F6E0003D2B9CC177B25E41B573AFBFAA037CC10D
:10F6F00053E3B940067ECB3D9F1F9FC0DFF7A2C1F9
:10F70000B067D9402ACCE83F6859CBC12279D33FB2
:10F71000BF5AB53F864D883F7BC3F0C012E90DC08C
:10F720000243E1C09EE207C210EF14BF8CCD96BF2A
:10F73000F9A437C02A55AB3F45A49ABE977426401A
:10F740006338A8402AF647C0C579A240FC62F63B60
:10F7500091FABBC06DB975C009F1B0C1C5026CC0EA
:10F76000C219F5BEA2725941239685BE985FAEBFFD
:10F77000FE6710C0041243C00241403F0013D83F4F
:10F7800029A201C1B40AA840124799C136A4DEBF1C
:10F79000B10D6DC0D11E2AC0D54FE540074E39C00E
:10F7A000134D0541FF95BB3A84424FBFAB8F2D3FB0
:10F7B000677575BF589519C0FEC5F4BF746A4CBF14
:10F7C000D9E18EBF0144DE4079A09A40D194383F00
:10F7D00080FD82407A80A140AA9064C185BBE8C0C8
:10F7E0000CC59BC05E4EF44093FE14C09EE1E7C082
:10F7F00059FCA940891507400CCCBC3FB8A07DC07E
:10F80000250C5B409B1E6F3FAE1E79C19D2453BEED
:10F81000F468EE3FCBF8C73E57D90F403456C53D8C
:10F82000588DAFBF584232C042AAE83F7B48C4BFA0
:10F83000334086BFC91C3FBEFB6AC83EFF07DABF24
:10F840003977923F713A87BDAC65DCBF96EB8DC0CE
:10F8500075DE5741EDDB9ABFF61C3AC1DCA5FD3FD2
:10F860004505984077DC83C2A5808F3ED6CA3F40CD
:10F8700025DF00C0D7D894C076E7AC402C39724061
:10F88000D95D923F01899EC0E79897C1C8D3CA3F0E
:10F89000429226404478903EA156EAC0516617BF76
:10F8A000FDE523C178B709C295D57EBF19A9E6BF8A
:10F8B00040C97DC01C946A40C17F943F806D4E401A
:10F8C000836640C0C2C20DC166F907417B1FE73F96
:10F8D000FE8E8CC1978D24C1D1C0B4C1508D8F4094
:10F8E00076F5904097481E4212CFF03FD6288840C8
:10F8F0009D72813F22CD8240790B9740B3D1A73FC3
:10F90000252774BE5CA03FC0524E63C10C71DEBFA0
:10F91000E3D1FA40F5AAE4BF1EF683402469ADC0E6
:10F9200095A8C240AF3ECE40EA1FB6BE70BCEC3FC9
:10F93000D2FEC53F1FFB0AC055A1CCBF5AB19CBF28
:10F94000EDD794C037E0704007F54A417C2DCCC01C
:10F95000BBE19040456B82408D2A9FC1C2A18BC004
:10F96000B86710C130485E41AB8BDBBF240D36C099
:10F9700019EF3DC04EE390C039F5F8BE3A3C8CC05B
:10F980009776E3C0E55D91416DB5AD40CE44C33F90
:10F99000A65FBF41538270412645E4BF8D1C47419D
:10F9A00015D21C405C394FC08F8846C1EFFD97C00F
:10F9B0006B2E5340C67788BFEADFB73FF2FA154097
:10F9C0005C7DE8405F7081BEBB3AB44107A19641BF
:10F9D0006E85E740C840973F12088A407986783F95
:10F9E000B970C2BFF6D9084153076040914A133F2E
:10F9F0007194AD412452F14145A9E041EBDE1B4039
:10FA00006DE3F4C160029841F7A5D0C0A617A7BE68
:10FA100082D6004252690940598EF03F3F75C94174
:10FA2000770C68BF582033C1FA69DDBFBC66493C1A
:10FA30008C8E4ABD95C21EC0969E6F3E1A167D40A2
:10FA400009D7C041CE4232C0D544054203A5C641C4
:10FA5000F03CAB4065BFFF3F2E8482411F4C8CBF02
:10FA6000DBD7063F16A4D2BF99691440A2F9D6BFCE
:10FA70003E2FB74105A5A541105A3042FD5B4BBF53
:10FA800082C26CC10DEBF341D6BBC7C1C5E4FDBE5C
:10FA900083098D41FF3084BF9207324037239F4155
:10FAA000D3A522403E6252C162250840274303404D
:10FAB000045994C0921F2BBFCC6A26BF1B8421BF60
:10FAC00096FD4A41E7F18EBF36A709428D2380415A
:10FAD00049B5DB4095E066401D28D0411BCEE13F93
:10FAE000CCD95C4040F998C10939B4BF4335FE3FD9
:10FAF0004E4FA041BA4F0842E47F35418FD59EBF9B
:10FB0000A66080C15E42F8416064E8407894413F5D
:10FB1000AA43A24163EDA9BFFAD74240D1878F41E2
:10FB2000C6FFC1BE929070C1CBED743F8E050AC076
:10FB3000B5187BC03218D3BEA0CC06C0159BBBBE87
:10FB4000F748844102BDF7BF2C0A22421056EA4111
:10FB50009EAA9E405A9CD43FF4C53441A39F4CBFFB
:10FB600050820AC017B667404D199CBF8F1DB9BFA0
:10FB70000A54AE417C4D8641CA53BC4184C78EC0F5
:10FB80009B4A72C16B93984163EA3242B5F23EBF21
:10FB900042F38B41CA9E0AC00EA4ADBF0B12B44102
:10FBA000A83A6C40A71773C1B796633FD7070CC03C
:10FBB000B46681C1412D73C07848D2BFFAAD28C068
:10FBC000A0BFDD41A89220407D440242E9CBAB4179
:10FBD000726D8EBFE0A5784048C02BC1868769C092
:10FBE000C2F43BC04B480340D1F261C02E90E6C046
:10FBF000EB3694413C50984100EBAF41487E83C0C6
:10FC000031647D3F0B6B0841A040BDBE551DE5BB77
:10FC1000CAAD0E41E2E149C1A49BA0C0CC222E4155
:10FC20003E5A10C0C1E31BC0BA1CE2C136F472C018
:10FC3000B80123C099E0893F7D18973F202001BE7D
:10FC400009508440554CD9C0D8C724C1CEC8E34020
:10FC50001C366EC02AFD13C0AE21D93EC6C2BE3FBF
:10FC6000185D1840E1BA68BE45F5913FB128B7BEAE
:10FC70004A7C4941B6339E40A072A2403E95DE3E8A
:10FC80002CCA50C05CBE2840C59FC0BF8F86523F63
:10FC900036AA2F41BA1EF2C0BFA13FC083D8753F1C
:10FCA000771F0CC0E5081CC2365A0AC285FB78C013
:10FCB000BCF510C13A8FCE3F29E5473F29AECB3E78
:10FCC000794F1941B415A3BFF57C1F41BF123C40C9
:10FCD000870885C0778343C07A680ABFEE43603FD8
:10FCE000AABEC2BFA3A615C15DD11E40B452A33E99
:10FCF0005D03404168E8A64075DF77407A4192BFD6
:10FD0000E79932C0759380405B5DD03EC19013BFD0
:10FD10006D9C93C0EF3044C018031EBE0D1A913F76
:10FD20001D87903F22B9AEBF6EC7D8C1A34E5D3FBD
:10FD30009C5834409BC6FBBED6DCDCBD234C2FBF99
:10FD4000D1A1B23F6D4C31BFC757784022714C3FB3
:10FD5000827443C0228C58BF9FF6B8BE8F0419C06E
:10FD6000D14B51BF653FFA40C886EEBFFE9D53C0E0
:10FD7000FE26F540AEFC3141E79D1841F3CF96C019
:10FD8000EA012740FC1930414B662641D7C012C119
:10FD9000D66483C00CE7ADC1FA0B7F40EDCCA7C0A1
:10FDA000E262CB3F937A8341366FE5C1E1599440DB
:10FDB000F96FAE40B83F4DC0733724C1CD4310C179
:10FDC000EEC200416316384025263D41405C3E416D
:10FDD00015FCE0407D987540C936E5402D139DBF68
:10FDE000A8AF0DC0AABFC541EBA64AC1ACC11F3F19
:10FDF00040216EBFE329B940DB8D59410B25BE3F41
:10FE0000D94A1CC14FD6374119F95041453C97BFDB
:10FE100069F52941D0CFE1C0B2319BBD58E6894098
:10FE2000A7CC1CC0D518D9406794EDC06B6CF63DCB
:10FE3000BC4B613FB4D9C9BFC9AC30C05D018DC0F6
:10FE4000CBFBE940EC67E6BFC1E63C41ACC75D4196
:10FE5000AF479B40C7BB6A3F0267DC405DCA803F3B
:10FE60005BD52240C53365C13D6463BFE6EC013F0D
:10FE70000F738840CCCA48410BF06A404FE571408F
:10FE800049A6D0BF67BDFB40452882BFCA3811C014
:10FE9000D469A440948D86C0286166C0BCDF9D40B3
:10FEA0009EE5C0BF8A1A0BC2D1AD2041DCF922BF4A
:10FEB000B2651B400B0D95BFD3E011BFD45A823EF3
:10FEC00048874641618D49C0036FE9C0C1443C4148
:10FED000EFEC91C0C248C3BE1F5209C17A3A6CBF51
:10FEE0009BEF23BFAAD482C1BC456EBFE73D33C0A0
:10FEF00018EFFE40AC891B41A2AA2BC12E547EC034
:10FF00006BAC7C41DECF9641B92AFFC0A81DC0BFB3
:10FF10007334723F54C6933CB0FBB9C0D75868C025
:10FF20008E90E6BFF2D8BE410DC286414746EF3DF6
:10FF3000CEC4473F70889FBBF0FCC0BE97A9CEBE21
:10FF4000A1A9B140C3B2B0C0393033400DCE0B418E
:10FF5000C9E07EC098464EC079FC0BBFEB42B73E6D
:10FF6000393A5D3F8BE70DC012B7C23F6C08573F6F
:10FF70005F16A2407E210EBF8293A3BF4AE58CBFCD
:10FF8000195A9C402C36A4C0769CC14068E9C53FF4
:10FF9000FCD3463FE37A00BFF882B240809B2FBF7C
:10FFA000CD21F8BF1946B0C14463F6406D47B8BFD4
:10FFB000B81AEFC0AEF834BF2F1FF9BFA888B5BF7D
:10FFC0005569F1C0FD8A6240B74611C1DADE6F4063
:10FFD000B87801405AC0294093C4FE3FC7D207C039
:10FFE00036C1C8C0F1CF9E400B8D283F4F75AEC0C3
:10FFF0009B7C7BC04AC7A93D4FC0E440C915CEBF1A
:020000040801F1
:100000006EBCFC406475F6BF7E3CC541095D06BF11
:1000100094BB05BF1CBEF1C02E100FC1A69B45406E
:10002000033C52400985A741D768EA3F2E29454045
:10003000245011C08D352AC01B6710C0FFFF85C03A
:1000400083D4AF400F1088C017BF6DC057D996C07A
:100050006D1F8840AB7BAD3F6535E8C07CC3943FE6
:10006000BA23C1C0F2010C412EAB92C097A4FEBFCF
:10007000ADF8B84075331A405C91AD40C54CD7BF60
:1000800024C986C0762B2940FFD1CDC03BD800C003
:100090009664B84088662EC1C6FC5D40BA927F4027
:1000A0007BFD694090B4934265B885C198641E3F5A
:1000B000C4F6F6C0CA2899C0965F1DC0BDF97EBFC0
:1000C000F8C29EC0F73882C0FF90033FCB37A140F3
:1000D000D49B77C0FCD9BFC0A36CC6C02BE6C5C0FB
:1000E00036957FC0D213E741F5FA82C0230305C1DC
:1000F000B500BE3E23E929C0F2A85841CE58DCC065
:100100002068483FEC0187C0D7DF93C029B91B3F67
:10011000D01782BF86B46D3F83ACB7C105B8BDC0F0
:1001200069E3E4C1DB6A9DC14C209D40B97F8FBF6C
:10013000435BBFC0950E1D3F8F326C3FFA619B3F02
:1001400029AC9DBFC2E3CFC1244E1CC100E41DC039
:1001500042CF49C1D1BD28C1548005C0E75C2540CC
:100160003958494083A79E4153F9803F6C7AFB3F41
:10017000F9A1EABDC93BEEBED98D4FC0DC961C404B
:1001800007B38CBFBC777CBFA0F03E3FBB46DE3DD3
:1001900015DA0840CCBB10C06F21C7C1505C12C03B
:1001A000F2DABDC1CB4590C150D641C036882AC0D5
:1001B00066E488BF7FA5A0BE69D1853F997B753E67
:1001C0008427B0C094E8ADC1C074FBBF9E51D4C0B9
:1001D0006244EEBFC84830C09E3F4EBE54D4AFBA52
:1001E000921822BDEBB2D83F0706423F0042993E2B
:1001F0003F411AC113B992C055EEA0C07BD0BF3F9A
:10020000BBF59E4075D3763ECB7B84C0289393BFCD
:1002100049C01CC067561EC009BAB9C10642B8BF62
:10022000731374C17BAE4DC1363CD7C0301D2AC09C
:100230007813B640A45450BF772077BF3BB2513FEC
:100240005F9D83C02C6CA9C166E79CBFC78891BF26
:10025000C02F6F3FC817F13F9836503FC74D5EBF64
:1002600081E414C0861C5F40B506F4BEFC3E42C06B
:10027000F0F47A40A14B7CC0CA4411C00AECB5BF6F
:10028000866DA83F5A59CFBEAD2300C14340B13E51
:100290009E130FC0E6A5EFBEABB906C258A9174022
:1002A0008A14D2C1F0709E41573EF2BFF4F41EBFD3
:1002B00087F9D9BE2099553F2484AB3ED7A3043A91
:1002C0003636EFC05715F3C1E2DFA3C07ADD42C076
:1002D000743976BFE908F0C00F468FC0BBE39A3E81
:1002E0005B82EB3F3E401641AC88253FFEF6103F57
:1002F000A31D19C0EC2904BF6834BCC07A0762BFD3
:10030000BCBD4740A5CD01C122BB80C03B9F833F00
:10031000C9CB90BF91242F406A47B8C1A8859CBF24
:10032000415EADC149CC3C3F7C1D40409B2BC23D52
:100330003CE9E1BF411C9F3F6275A83F1B03913E12
:10034000B8CE80C02D03C0C17DC1B8C05B9BED3F5E
:10035000E36DFFC040D8ECC0ACFC10C1C1496040A7
:10036000A9815F4040E39EC1EE10FB3EF133B840EF
:10037000B97610C05DE263C0725B96BFB14FAC400E
:100380006348064133356CC0D0BEE8C06D299FBFBD
:100390008F5E3EC0DA846DBF39D409BF85F7BBBF1D
:1003A000305363BE4BC3A1C17E34A8C0469A953F6B
:1003B000E7219AC0D45408C0F2354CBF343BD3BFB8
:1003C000BA2A4EBF0D45AD3FC391B3C0975606C183
:1003D0004D639040A4A6C0BD28AA86C0448C28C105
:1003E00053CA71C16447B4C18D3734BF181C3FC1B3
:1003F0002BABCCC0684FD1C01DF41FC0009780C18B
:100400002574C240769D9CC0021DD0C075D93BBFEB
:10041000F9E596BF353AABC0B2531C40DAD9D0C02B
:100420006CDF4840FB46B6C1308A99C12A91073E2D
:10043000477B76C02BE759BFBF09803DDB2136BF24
:10044000138B803F5896814095F3ECC00413E7C0AE
:100450002A4B364020F4E03FE8FB6D3FEFA504C196
:10046000B1C443C1E817A7C09F22853E9CDA14C1DE
:10047000092EC4C0C2BF2CC1E68518C023D20CC14E
:10048000116206415C94EEC06647AAC19742ECBE79
:1004900045E82EC1D1DCDDC0A7B518BFE0C7A4C0B8
:1004A0003FEC2EC0C84D52C1454416C1914481BF96
:1004B0008311FDBF8547103F5729113FC4DFF23E2E
:1004C000E4701440A06EAABF096DDDC0E1E705C16C
:1004D000FAFCE3BE2DFE94BF09617BC1984552BF73
:1004E0007C7B8C3EF88F33C06C85F7BD1DDE46BF2C
:1004F0001CE589C031EDA5C08A6335C154BB973F67
:10050000E79F484070E315C1CAF0B7C11CC4013E63
:1005100026FF9ABFDE542740B604AAC10CEA0BC1DD
:100520009CA48BC17963DA4179FE57C0C808A3BF88
:10053000406D0EC18001F13F0D791D3FEFC4FF3EBC
:10054000A09584C0E7EF89C1C7D238C104E4E0C0F8
:10055000131780C02A0B56C0BAC386C1A62F8D3E82
:100560004BBA8A3C3331963E3E0F76BF6A0FB33F9B
:10057000A7B85040E62A4DC1B99AC9C0582FB83F14
:10058000343E2041D73B39C01EA83AC14C961D3E8F
:1005900024432ABF5636F840AE6B06C2A13E31C195
:1005A0000EFBC3C103AA7C4105EA00C0FB0EB0BE2E
:1005B000DDDE4BC1D324A23FF4B3043F727B363E51
:1005C00022D4AFC026D8E9C1239D4FBFCDAC97C080
:1005D000E8619FC04E6692C07222BAC1DC9416BF19
:1005E0007B47F03FDB82CEC0D2E7663EB3DBF8BE8E
:1005F000E7E2F2C0B231E2C0FAE6223F60209CBFDF
:10060000E0D47F41205550C186B39E3E1090D6BCA9
:10061000A99003C1A1228940A34AB9C0C9F40CC161
:10062000CC5660C065C766C28B0500C1C69A7BC048
:100630003ECBCD408F005C3F7BC51B3F7F03BF3F60
:10064000664610C10D15CDC0A12614C1A03C02C143
:10065000C3F8E9BF4E06C7BFE3DE3141A08BDABF66
:10066000CA77A7BF08F8354113B5DA3EEC07A5BF36
:10067000F6691BBE0FAC89BF0B6072C1D8EF1CBFFF
:10068000EB9F8141C5A53AC1E92BF73EA593C23E38
:10069000E8C51E40FD109840A4319B40BDBB18C06A
:1006A00007DA4640A94BE04146859E3FA38B8FBEAB
:1006B000BC9103C12C4E383EA34DEE3EBEB8943ED5
:1006C0004FCD42C1F407CE3F2E89DFBE75CD45C068
:1006D0007A0881C06A6D173DCCBF26C170938A3FEE
:1006E000FFD38740547450409D58CD3F3FBB083FD7
:1006F000C4F280C08D0222C109B973BF0EA4EB3DC4
:100700008E501A41C1A72DC1212F2C40C04C94BF3F
:1007100020E32DC1DA16E0BE803289C0D0E490C15A
:10072000264905401FBA29C1DBCC693FDBFDB03F3C
:1007300000F645C15B4093BFD68D643E9B3599BDA5
:10074000618A30C1BE0A0AC0B93890C0AABB14C1C0
:100750003D545E3DDF8B9F3F8A44A4C0B05FD4BF51
:10076000D87FFE3F49BCFC3F591DBBBED1E18F3E47
:100770009B3F6CC0B49F9BC0CBC14FC133D0824064
:10078000CD6D8B4080925DC09A81B0408AB832C1F5
:10079000639987C0AEC271C04AC442BFE00184C041
:1007A000D483E33F8F7746C1D202163E8504DC40F6
:1007B0004F7714C1897217C078CD7CC043283EC1E1
:1007C0004F4B17C1D4FDCCBEB168B2C1EE77F4C0B7
:1007D000C162ACBF1DCE82BE5256B340BC06AEC095
:1007E00079A9DAC075C78EC0941443C1CCB58BC04B
:1007F00005EA78405EB644C18BFEC7C0156FA3C042
:10080000327E9DC0F42E93C070BFEFC0473546C105
:1008100032C184C1F7AECDC096C79E406E8EA3C0D4
:1008200095A52741D544E8408DDC93C0BF69BD4004
:10083000619EBE3EFF75ADC0AD2A14C1A23B13C17F
:10084000DFE150C072350A41D48773C0333CF5C034
:10085000DB14A13F8E6FA040831277C09773E7C06F
:10086000F300CFC0C68FC74130B034C19D9FE7C0F1
:10087000685523C01A780CC12B994FC150700CC118
:1008800080580F40989CD4C0ECE0524065252C3F26
:100890008F48EFBF123E6A403355A7C1AD80B3BE4B
:1008A000418CC1BDB2038842D6F724C1E08A5DBF46
:1008B000EFFB0DC17B7B21C0E69AACBE0A8B3BBE31
:1008C00045259340EBF362C1CBEB663F55A495C041
:1008D000E80853BFC09368C0C78744C0CEE74BC089
:1008E00059B2C43FE60737412DE2D6BE86460B3FDC
:1008F000922BADBF880C71C0F353FDC04D5403BEA5
:10090000081421C161C13EBF17DD81BF4C89883FFA
:10091000DCF5CB40F16F43401EFABAC1CD51BC3E6D
:1009200089DE48C118858B41EA7F5AC105637ABFC9
:1009300003D976C1FDA48D3E502EBBBFE7718D3F1C
:10094000CE0BE23EE00CC4C1100495407A9B28C156
:10095000B83798C0C8E1D0C01E25D240C8E6CA3F0B
:100960004E79E9BF98E91EC0CC290F3F2B04004007
:10097000989C0EC0778BD73F2E3F18C1D1061D40E3
:10098000C37DAABF2E09163F0797A8C1A85C243DC6
:10099000CDBD2BC06ECF98400ABB35C101104AC0F7
:1009A00070FA04C1CDCE0A427A4209C1EDF30BBF01
:1009B000E80FF5C079DC59BFE8B2A5BFECF9B5BEC8
:1009C000ED44204003B25FC183A4834058E7AABF2F
:1009D000D72F3A3E9647D4BF0C9D98C1CF8B9C3EF3
:1009E0004BDFB0BF7609074083A026BEE24BEB3E4B
:1009F0004DCC8AC020AE78C0DF52D23F47E05EC007
:100A000016AAC3C0E7F580BEB96D34C23D766E3F0D
:100A1000A3790940B89D0A41A2848AC18F668C3DA2
:100A2000187041C18E7710429AD01EC1B738CE3EA1
:100A3000E8805AC1BB12933F466179BFC3BD513EA6
:100A4000B48D783F8402CAC07F8149BEB9F12CC001
:100A50002137DDBEBD2C8FC09A370EC21DE5903EFA
:100A6000384B6340115338418E204CBE834E1440A6
:100A700098B0C7C061A1053FE12FC5C05E334B40B0
:100A80005FAC2340C692B4C0D6DD10C27C4322BE08
:100A900048D3E53E94E0983FB956D74048D742BB8B
:100AA000E6E009C1ABC50CC254A785C0039E103F48
:100AB00015F31DBF107298BE6B45EF3EFF0952BF84
:100AC0005369BC40B06C0D414C89663FC6AFC6400F
:100AD000A2E9F53F6EA4BEBEC4151EC2245E553FFA
:100AE00067DB6D40056BEE402C1B0A3FC03F824028
:100AF000FE3C8BC043B183C0B30FDA4044A45B3FDC
:100B0000882509C11939A041B283C24005D6F93FF1
:100B1000B9C0484133F40BC06BF6BEC0C6CF974195
:100B2000713A84C0E38CCAC1A790E7408CE0F7BF5C
:100B3000928EEBC000F4234059E24A40BA161A40A4
:100B4000A213A741105932C0144182419E049D4115
:100B50004EEA56C1416AD1C0F037DF40D8565A40FC
:100B6000A84E5240F3C60C429610E93F05F2604091
:100B7000ABB54C41A813384160BD5641141B0E4023
:100B8000E4FC18C1E5299441241F5840B72A8BBFC3
:100B90004C4D6C416F7D30C0DB85353CBA166B41E6
:100BA00003A9B23FB2E82540AD150AC05A64C73E5A
:100BB000B34209C093BAD8BFCF7175BF1EF4D6BE79
:100BC00071386C41CA0A5C3F5479B9413FD72E4114
:100BD000622C8EBF8746893EBA760FC1C6CA183FBF
:100BE0005BF2BD3EA70CB241C2DD61BE43BE7B3F9E
:100BF0009BFB74419A3C4441945EAC41BAF7713E10
:100C0000B312CDC1428B4841CCADC5C1AFE4CBBF1F
:100C1000E0366941003049C07B5EF63E933F1541A6
:100C20000D6F173F3611014142D4A0C0AF851FBFE1
:100C30008CD60440BE3D91C043A03EC0E0893CC07C
:100C4000A5E12C41D22168408C77154120967E4148
:100C5000FB58DB40BD464B403F4D20C2D0E999C018
:100C600017663EC0DD9D63C1BC5318C0227C76C0B0
:100C70009260844124C18541D77AE54173EDFEBF7E
:100C8000821C19C13FB6A1413D0DAEC1E8949E3E04
:100C90008C148241E50CAB3F0559F8BE3F339D41B2
:100CA00048F013C0A666AF3FA6359CBD90AD92C07C
:100CB000C7F587BDEFE1D2BFFB9F6ABE5E2410BEC1
:100CC000006B6441593DCFBFAA748B41FA92C7BFF4
:100CD00093BDA24035BD913F5D6607C22E155240BF
:100CE0009F0506401F2112C250C0333F712A5D404C
:100CF00010AF8741F48AA8415EDCB3414B2A97BD0F
:100D0000ACB967C1AD364941FBE01EC1AE38223FE8
:100D10000F205C4134C53940B1CACAC1E3E4F54093
:100D20008D839FC1356164C1EDD209402709AAC0F6
:100D3000B23AAEC08FDE0340A1FB0740F4B6753F68
:100D4000EBDF5041438AA9C1E9073B41C72F174157
:100D5000BA5319C197082DC17B0AE2C06121254011
:100D6000547D2A4076B94AC0F81FFD3E664FA24026
:100D7000E47CB7417CCD3441FD830141704E0A4093
:100D80008AFCCEC1A715C941DCFFBEC1285EDCC00C
:100D900019E6E8412BF79AC0F9762140BC24794145
:100DA00080742540AFDA5FC19EC5123FA932D13FA2
:100DB000CDCE7540DFB9B4C0AFD933C1BED6ADC05A
:100DC0007C14AD41518E3F4054F61B421BDF05425F
:100DD000A8B72E3FB07116407A37E7C1AEBE4FC1FB
:100DE00036E74FC1542DC24166F1B0C0635E6AC19F
:100DF000CB735B414E29014269FFEF41A39651C17C
:100E00001C7309C248D6C54116DF5E41D23B29BEDC
:100E10007DB60642E24214BEF97098409086B04119
:100E20007BB4D93F8B0A88C0CDD48DBFDAC00C3FCC
:100E300032708B405C9B5F3FBFE01CBF265B36BFC0
:100E4000AE101941256D09409CC0D1418B9DB84120
:100E5000F8789B40AA281140B7B59740E03994BF75
:100E6000FED7193F9439AAC0D6014A3F90D5243DF8
:100E70004CE1B241169DC741E9782342451F013E2E
:100E8000CB93E1C1F0E9D9419ECDF5405726A43F6F
:100E900050C1BD41D01FCFBD0AAF4B3F3EA6C74199
:100EA000C4884BC013F8BBC103389C40A76F8E3F6A
:100EB000716C95C0B0E3C53F24BD05406417833F06
:100EC000C6999C41962103C0D55F1F42A1278C4142
:100ED000800D0440AB81A13EC733E440A0E9C2BC11
:100EE0008CC8913F8542C8C03309373F56780440CB
:100EF000CF4B1542CBD3E641F14DB64117B8523F27
:100F0000A6E01DC27A71C141FE8D21414447643F74
:100F10005E7A0B42A82A823F5D9660BE01C39E4165
:100F20000840FEC0FF8FA7C14F069EC187EE503E0E
:100F3000807E1CC1F7D69340491F52409A22C83F79
:100F400078D0BA41679F2EC09D921142ED9E9B4181
:100F50000F80A6C0645090BFD158254166EA9040EA
:100F600096601D4029259F4126090D3F7395EA3F54
:100F70008CE3BB41C5709C416D7A0C42E95A5040EC
:100F8000D32C04C24FF0D9419EDCCBC034992FC082
:100F900048C392414BE927405D950341CB1DA641D3
:100FA0009382B83F54B08F416BBC8FC15303A43FB1
:100FB00089F5E4BE87A94DBFBFE7ECBEDDF4CEBF27
:100FC0006238B841F2BDCA4041C10D4211BBEE4189
:100FD000476CA740307A653F4421FC3FFD934FC0EA
:100FE000822309BFD3758041CF5CBFBF3E29DEBEDF
:100FF0008AA41742EF4A1A42B448CC417904F1BEA0
:1010000090BCD9C040CB0041004104C05CD081BF3E
:101010001900C1C083D7FFC02F9AB9BF627980C0C1
:10102000DCAF36BF20FD65415154A7BF8CD40D3EC7
:1010300082C14DC1EFF6633F0441583D8D9405C018
:101040009FBC084134463D418F2EEB40087119404A
:1010500048214BC18209E23D5BC677C1B74543C019
:10106000BA1D2FC0C5D25CC090B794C015AFABBF3E
:101070000ADA1340A726BE40BBCC3C40B10BD4BF1C
:101080008651ACC1E986AAC0572D28410CD2AFBF0A
:101090008FE18D401AF679BF218AE840FB1ACBBF59
:1010A0005EF791C0A42734C26C5B07C1FCDE6F3FC2
:1010B0003029C8C090ABBCBF207873C08D84B3C04A
:1010C0009E9B68BF54A5A6C0C9B52741118090401A
:1010D000D15721BF33AF1C40449EFFBFE7A280C061
:1010E000A4E3533F00B76A41723B4AC0AA8B95C044
:1010F000251FBAC05AAE8641CCCB03410768A9C0B0
:101100002E9ED3C08B8FB23F4212E5C0B725D3BF0E
:10111000E9F0B93FCD4742C1591703C1A0C146C04C
:10112000FE4CDABF4D2015C02DA32240B039E03F60
:1011300048EF8A4087C34CC0DC383D40D2BDC5BFB4
:10114000C14CE0C071E88FC1A2B402C0934103C199
:101150006330F83E9593BE3F64C5A1417B4A3F3F53
:1011600088F1B63EF007F54009802DC0361FDBBF81
:10117000748BFFBC09FE0941F2832440E9D4A240EC
:10118000E7A37BC0269F13C07C7F37417F5B0BC0EA
:10119000D561143F3281A63FB91BE43F6ECABF4000
:1011A000C8C5B3C032F8A241E96A2740EE3AA6BFEB
:1011B000844CD540ADDFFCBF1F9BDCBF82500BC011
:1011C0007A564840EC3AF9C0F4E376BFAC0E3040B2
:1011D000628160406554394070B90D416311EB3E46
:1011E0004DFD51C0C6B492C0E2C787C017D024409D
:1011F0006468E840CABE3D409EEA3041C646B0BF82
:1012000050B12140B7FBC8BF4A4214C077280C40F8
:1012100068211D41CFF115C1C30580C0D38FC9BE60
:10122000A6E2B63FBDFB88C1152368C0CC767BC063
:101230008336CE40FCDA77C0F357813FE48475BE35
:1012400089D257C02934CBC0FCD1804066E9A9407F
:101250002BA248C0193F1A4045B926C1692BD2BFFD
:10126000BE0A87BFCE36F3C1DDBC64400BAB86C07F
:10127000123EC8406F53E2401125BA3FEF39213F7B
:1012800056D901C025ED8B3E07CEC4BFCA91A73EFB
:101290002CABAE4020674D40D0B7D3BE2CAAAF4098
:1012A0006F53803E2EC0A5402D028741349E6A3F79
:1012B000E3D35DC18302223F31B788BEAAAF5D3E52
:1012C000C6F50A41556EA5BFF58F2C40F4B17B41A0
:1012D0005345F8C06AA13EC0CD6154BFB8BA1C3FA7
:1012E0009E4A38BF5B78213FA59BA13E8CCE82BF32
:1012F000BA11354116314A401004C8C04135563F35
:1013000026E817C14C38AA40BBDEAD3FD4B71E3E1D
:10131000B33C9041E426A640A5C0B340DE4DFE405C
:1013200028A480BFB93B33C2C1C09441919A7B408D
:1013300001DAB2C0A6E0F7BFCC95083FD94B3EBF5B
:10134000F0ECC140129C1440E79E82409B3C6141FE
:101350000258F03F159CBA3E7CADA7404332BDBE5B
:101360007101803F8D179B40074E47BE9F0874BC9C
:10137000D630CE402BD98940AB4CC240389C1C3F64
:10138000D025EAC0459985419D516E40FD020AC0B5
:101390009E233E40D6A6A4C0CEFE4140CE04643F6C
:1013A000E5294BC0F5164341B56D18C19A7209C0C5
:1013B0005D2806C01415D9BEBD2184C01C5639BF96
:1013C00028288CBF6B5C68C07EFE59C0E9F079406C
:1013D000677214BFE19DC8BFC7099241A7D72A3FD2
:1013E0007843EB3F90BDAE407C6C80C079FD32C04D
:1013F000AD0D0A415F26E74023534341CC0A713EBD
:101400006C6A723F55FE28417F1CDD401866B7C0EC
:1014100002D77740287BEFC12E6C4B40AF549541EB
:10142000E4CC1D40BFF2A14070439CC1EB356A3F44
:10143000ADA1F2BF5FB022C19BAE5AC1A37537C147
:101440003145054132D03D404970E1406DA44140F5
:10145000A33DD04097CF2040763545C15E3DA3C027
:10146000967E45C0789EA1C02A645BC1F29FA0C051
:10147000E4D585C08DFAE44024F30B418B749BC006
:10148000B5A10AC0350E1EC0276C96BFD499644022
:101490003D608940DA94A6C176A201C034CDC63F32
:1014A0009B92973D2B3503C299CCFBC1A8181FC056
:1014B000DC2DF03F3BD66DC01FC602BF2C2CDA3F9F
:1014C000A0686BBEA45F20406EAD88BF48E2CD40EF
:1014D000F9D28BBEEC3AD0BFE0642DC0BA3803BF5E
:1014E00079094440C3D9E2C03148E73FC357293F97
:1014F000E5E055409E5447BF66CBDF402A9AC83F7F
:10150000D27CE3C1B1A7AC41555444C0FFFDDBBE62
:101510000D225F415D6BD0C0F287E7BF204CA24136
:10152000028C6D4034F772C1AD9C1BBF4DE58CC081
:1015300064E7BE40C8E5D6C09CBEA9C07677CFBFE1
:1015400024E08141DFE0F03DC977D241C10580410F
:10155000094FE440AC8702404C2A37419236FFC025
:10156000072502C14AA7CCC19EB52BBFEAB5D9C099
:10157000D9B467416A958A41CFEB5741586189C018
:10158000CBD167C1145EA041D718E1C0F73A04BDC2
:10159000769AA441751235C044773ABDBF5C744158
:1015A0006425353F3F3012C1512009C14B1625BE7D
:1015B000F8919C4044596DC01B3AB8BF598B97BDF8
:1015C00025BF99414236FE3C453B8D41DCF1A741A8
:1015D00048D92E4090880EBF96672742A95F26C043
:1015E0002D1C893FAF80B8C0199493BE0B50C0BF6B
:1015F000323383410B6C2441709FB2412F24ECBEE7
:10160000CDBDA7C13E81624108C704C1C3D6863D96
:10161000B65839412FF7803E10711240ECBB16418D
:10162000F0BD203F8D061A419C17DDBF7B685D40F1
:10163000AD5A5C3F5E7F0C40CC490440ECAC483E68
:10164000152B804175CB14BF6C96924119A09D411A
:101650008D19014081FC2B3FFFF486C198832B3FFD
:101660002AE2BC4015DC3FC15314913FC36B0840D4
:10167000CC851341AC503541571AB83F436883407D
:101680003B4763C10F297A416561073FA14FB43FD2
:10169000CC5C7741EAD234BF86FC29402DF88641E4
:1016A000A1F487C0613218427879AEBE2FDDB63F13
:1016B00075E4F9BF22629E40A7557F40D7530B4087
:1016C00036F297414F99C2409431A04164403D4168
:1016D000E3FFEEC03232CBC064093EC1F2848840E1
:1016E00057A4A840C6084B41B1D8603F8541BB40D4
:1016F0006677AA410E605E41C79C5B41B47FBC40E7
:10170000AD8A11C18DB95E411C479C4188C9093F12
:10171000E2E26B41E447913FF095EF3FB5F457416A
:1017200091D211408D35B740680B3E40176DB83FE0
:101730006B8D30C1C5B19940F653534077F7EF3EFA
:1017400045E1A6414715B14074B207415EA9734116
:101750000870E8C04B8C56C06FF8544160F0A33F4E
:1017600094EF9240A144BABD5B501EBF5A1D5E402B
:101770005FCCE94081416F418709064119D3D33FCE
:101780001BDA0041EEC4C5BFBAD9BE4183A7D53F1D
:101790002E196E41B10E9EBEAA9A794144D467417A
:1017A00008C7D2C0A4F49D3FE748714188E3FC40DC
:1017B000FB19F04186231541E566AB41A63DB541D5
:1017C000639E82411FFBC9BF29D3E740E762C93F3F
:1017D000B2A502C12B31364138240E41902A37413F
:1017E00073006F4140DEA741008B8A40B6424C3FF8
:1017F000FF5DD7C010F25E4197626641F63C77C04C
:101800005098863D368B4E3DB8C9993D8527A93CF9
:101810006C29B43D1E833F3B1556373D49ADB33D62
:101820003205803D315EC23CA3D9FB3C304A9E3C30
:101830005668933D0EA7E93CA76A813D28A9C13CA3
:10184000EB07703CF5B1BA3CA27AB93D3CFA1F3DBA
:101850000F67763C34CC933D9E6D843C875D233D81
:101860007DAF573D5FC5A83CB13C933C5D52663DA2
:101870004C53FE3C57C7B03BE6AC023D36411C3DE5
:1018800055FC92BCE832123C30E22ABB6BC089BDE9
:10189000A0E67A3C04CDBFBCAEDAACBC22708DBCF5
:1018A0007D9326BCE4C2F0BC197B13BEF87D55BD08
:1018B0006263FFBB90F7AFBD3B45A1BC66A077BCA0
:1018C00084B1093AE0E4B6BB7EC72A3D4C040CBDA6
:1018D000DC9909BB33E742BCAE4F10BC3B269EBD32
:1018E0008B6B6CBD660247BD863685BCF3382ABC5F
:1018F000BC042CBBBC9AAEB9D8804DBC2C818C3CAE
:101900000C37463E415AA03E64799E3D733A71BE03
:1019100023270ABE93C6503E1E21DE3E986637BF7F
:10192000DABDE53DC2265BBFC2708C3EF460033D6C
:1019300085772DBF6E00F3BE7E69E13EEF68DABEAB
:10194000465C00BA2402953ECCEEA03E8082EC3E7E
:101950006991463F1CEC3A3FC10F30BFC1B403BF91
:101960005C00453BBADB77BD24379BBE38FBD43DDA
:101970000D76473FC15D7E3EBE111DBC2A1ED13E85
:10198000FB40B03EE5B5A13DD2019BBE439F1BBECF
:10199000F2BC22BEA392B63E6C0DF33EBF643ABCCD
:1019A0004C24313DAD3C08BFEB3A943EED79E53E29
:1019B0009F4673BEB0E351BE192E663D227C82BEA7
:1019C0001A1E83BEF98D6F3ED0A62C3ED7A70E3FC0
:1019D000C96C183EE667F03E0647CEBE1459983EE5
:1019E000A56C923EF21B143E413F003EB1894ABEB7
:1019F0007BA4453CCB67943D7E7AAF3E795181BA5A
:101A0000E633663FFEA0963E7CC2C7BDEDB71BBE67
:101A1000B6AB67BE3442E23E6F9AE43E7E768FBE3E
:101A200029275BBDBA711DBD31D4CFBD4851683E79
:101A30003D1B6B3E65FF87BD3B26D93E4B53193D91
:101A40003EFF3F3EC339A53E4032343ECF3F813F4B
:101A500030E4E43E5B32843ED51D5DBD10F579BEB9
:101A6000189F873C9B8B943EB0D1A83D9D2AF33DA7
:101A70007325C93E7D0F4D3E60940F3FA51B553E1B
:101A8000B5D2F53E3DE4853E50F819BE0179EF3BF5
:101A9000AE189BBE780D903E8B311E3E6CBD01BFD3
:101AA00065F9043FC8A5913DF768E4BE430E923E38
:101AB000F83CD83EEF0775BE07C3073E447B243E83
:101AC000F85AF53D3BE5883EC6FF2DBEAB065A3EB3
:101AD000B94A073FECEB2E3E68A0103EF5D68DBD0F
:101AE0001C1660BEAFAE823E14DC88BDB4B37B3E34
:101AF0002836383EBCC1BEBD52EF923EF2669A3ED9
:101B00009C461C3E70989F3E482828BB7C3ED1BD19
:101B1000A4E347BDF6552E3DA88369BCE8FC30BE62
:101B20001224F83C68B93F3D3503DE3D1DA20F3D50
:101B30001304323F4A6EF3BDEEC0AD3D1C84D63E69
:101B4000D8DF253E2E2E9DBDDCBCAABE0025F8BDEB
:101B5000C291D33D2FD6F93E7E6C0F3FA9D064BE13
:101B6000AF1C12BF613C183FA15B2B3E87E38EBDCB
:101B70007AB6DFBDEE32D2BEC96C623E3EF6E4BC40
:101B80006F2D0CBFE7B81E3E43CE8D3E0A2EECBD36
:101B9000369E92BDB4FFC0BD40E995BE8C2CFDBD04
:101BA000C7045FBE29DE943E9314203EF27D7EBDC5
:101BB000BF5FD53EF647C6BD4D35753EF168073E61
:101BC000761988BAC1FCF0BC27491ABF000E46BD81
:101BD0000AF1653D8F06DEBE0D7596BD615E3ABEAB
:101BE000989C6DBEDB012FBEE5C77E3C23470CBE33
:101BF000309C77BD2EA2C7BE077EADBEF91A63BD6D
